{"src/RulesEngineRunLogic.sol":{"RulesEngineRunLogic":{"abi":[{"anonymous":false,"inputs":[{"indexed":false,"internalType":"string","name":"_message","type":"string"}],"name":"RulesEngineEvent","type":"event"},{"inputs":[{"internalType":"uint256","name":"_policyId","type":"uint256"},{"components":[{"internalType":"enum RulesStorageStructure.PT","name":"pType","type":"uint8"},{"internalType":"bytes","name":"trackerValue","type":"bytes"}],"internalType":"struct RulesStorageStructure.Trackers","name":"tracker","type":"tuple"}],"name":"addTracker","outputs":[],"stateMutability":"nonpayable","type":"function"},{"inputs":[{"internalType":"address","name":"_contractAddress","type":"address"},{"internalType":"uint256[]","name":"_policyId","type":"uint256[]"}],"name":"applyPolicy","outputs":[],"stateMutability":"nonpayable","type":"function"},{"inputs":[{"internalType":"bool","name":"x","type":"bool"}],"name":"bool2ui","outputs":[{"internalType":"uint256","name":"ans","type":"uint256"}],"stateMutability":"pure","type":"function"},{"inputs":[{"internalType":"uint256","name":"_policyId","type":"uint256"},{"components":[{"internalType":"enum RulesStorageStructure.PT","name":"pType","type":"uint8"},{"internalType":"uint256","name":"typeSpecificIndex","type":"uint256"},{"internalType":"bool","name":"trackerValue","type":"bool"},{"internalType":"bool","name":"foreignCall","type":"bool"}],"internalType":"struct RulesStorageStructure.Placeholder[]","name":"placeHolders","type":"tuple[]"},{"components":[{"internalType":"uint256","name":"foreignCallIndex","type":"uint256"},{"components":[{"internalType":"enum RulesStorageStructure.PT","name":"functionCallArgumentType","type":"uint8"},{"components":[{"internalType":"enum RulesStorageStructure.PT","name":"pType","type":"uint8"},{"internalType":"uint256","name":"typeSpecificIndex","type":"uint256"},{"internalType":"bool","name":"trackerValue","type":"bool"},{"internalType":"bool","name":"foreignCall","type":"bool"}],"internalType":"struct RulesStorageStructure.Placeholder","name":"functionSignatureArg","type":"tuple"}],"internalType":"struct RulesStorageStructure.IndividualArgumentMapping[]","name":"mappings","type":"tuple[]"}],"internalType":"struct RulesStorageStructure.ForeignCallArgumentMappings[]","name":"fcArgs","type":"tuple[]"},{"components":[{"internalType":"enum RulesStorageStructure.PT[]","name":"argumentTypes","type":"uint8[]"},{"internalType":"bytes[]","name":"values","type":"bytes[]"}],"internalType":"struct RulesStorageStructure.Arguments","name":"functionSignatureArgs","type":"tuple"}],"name":"buildArguments","outputs":[{"components":[{"internalType":"enum RulesStorageStructure.PT[]","name":"argumentTypes","type":"uint8[]"},{"internalType":"bytes[]","name":"values","type":"bytes[]"}],"internalType":"struct RulesStorageStructure.Arguments","name":"","type":"tuple"}],"stateMutability":"nonpayable","type":"function"},{"inputs":[{"internalType":"address","name":"contractAddress","type":"address"},{"internalType":"bytes","name":"functionSignature","type":"bytes"},{"internalType":"bytes","name":"arguments","type":"bytes"}],"name":"checkPolicies","outputs":[{"internalType":"uint256","name":"retVal","type":"uint256"}],"stateMutability":"nonpayable","type":"function"},{"inputs":[{"internalType":"uint256","name":"_effectId","type":"uint256"}],"name":"deleteEffect","outputs":[],"stateMutability":"nonpayable","type":"function"},{"inputs":[{"internalType":"uint256","name":"_policyId","type":"uint256"},{"internalType":"uint256[]","name":"_effectIds","type":"uint256[]"},{"components":[{"internalType":"uint256[]","name":"instructionSet","type":"uint256[]"},{"components":[{"internalType":"uint256[]","name":"instructionSetIndex","type":"uint256[]"},{"internalType":"enum RulesStorageStructure.PT[]","name":"argumentTypes","type":"uint8[]"},{"internalType":"bytes[]","name":"dataValues","type":"bytes[]"}],"internalType":"struct RulesStorageStructure.RawData","name":"rawData","type":"tuple"},{"components":[{"internalType":"enum RulesStorageStructure.PT","name":"pType","type":"uint8"},{"internalType":"uint256","name":"typeSpecificIndex","type":"uint256"},{"internalType":"bool","name":"trackerValue","type":"bool"},{"internalType":"bool","name":"foreignCall","type":"bool"}],"internalType":"struct RulesStorageStructure.Placeholder[]","name":"placeHolders","type":"tuple[]"},{"components":[{"internalType":"enum RulesStorageStructure.PT","name":"pType","type":"uint8"},{"internalType":"uint256","name":"typeSpecificIndex","type":"uint256"},{"internalType":"bool","name":"trackerValue","type":"bool"},{"internalType":"bool","name":"foreignCall","type":"bool"}],"internalType":"struct RulesStorageStructure.Placeholder[]","name":"effectPlaceHolders","type":"tuple[]"},{"components":[{"internalType":"uint256","name":"foreignCallIndex","type":"uint256"},{"components":[{"internalType":"enum RulesStorageStructure.PT","name":"functionCallArgumentType","type":"uint8"},{"components":[{"internalType":"enum RulesStorageStructure.PT","name":"pType","type":"uint8"},{"internalType":"uint256","name":"typeSpecificIndex","type":"uint256"},{"internalType":"bool","name":"trackerValue","type":"bool"},{"internalType":"bool","name":"foreignCall","type":"bool"}],"internalType":"struct RulesStorageStructure.Placeholder","name":"functionSignatureArg","type":"tuple"}],"internalType":"struct RulesStorageStructure.IndividualArgumentMapping[]","name":"mappings","type":"tuple[]"}],"internalType":"struct RulesStorageStructure.ForeignCallArgumentMappings[]","name":"fcArgumentMappingsConditions","type":"tuple[]"},{"components":[{"internalType":"uint256","name":"foreignCallIndex","type":"uint256"},{"components":[{"internalType":"enum RulesStorageStructure.PT","name":"functionCallArgumentType","type":"uint8"},{"components":[{"internalType":"enum RulesStorageStructure.PT","name":"pType","type":"uint8"},{"internalType":"uint256","name":"typeSpecificIndex","type":"uint256"},{"internalType":"bool","name":"trackerValue","type":"bool"},{"internalType":"bool","name":"foreignCall","type":"bool"}],"internalType":"struct RulesStorageStructure.Placeholder","name":"functionSignatureArg","type":"tuple"}],"internalType":"struct RulesStorageStructure.IndividualArgumentMapping[]","name":"mappings","type":"tuple[]"}],"internalType":"struct RulesStorageStructure.ForeignCallArgumentMappings[]","name":"fcArgumentMappingsEffects","type":"tuple[]"},{"internalType":"uint256[]","name":"posEffects","type":"uint256[]"},{"internalType":"uint256[]","name":"negEffects","type":"uint256[]"}],"internalType":"struct RulesStorageStructure.Rule","name":"applicableRule","type":"tuple"},{"components":[{"internalType":"enum RulesStorageStructure.PT[]","name":"argumentTypes","type":"uint8[]"},{"internalType":"bytes[]","name":"values","type":"bytes[]"}],"internalType":"struct RulesStorageStructure.Arguments","name":"functionSignatureArgs","type":"tuple"}],"name":"doEffects","outputs":[],"stateMutability":"nonpayable","type":"function"},{"inputs":[{"internalType":"uint256","name":"_policyId","type":"uint256"},{"components":[{"internalType":"uint256[]","name":"instructionSet","type":"uint256[]"},{"components":[{"internalType":"uint256[]","name":"instructionSetIndex","type":"uint256[]"},{"internalType":"enum RulesStorageStructure.PT[]","name":"argumentTypes","type":"uint8[]"},{"internalType":"bytes[]","name":"dataValues","type":"bytes[]"}],"internalType":"struct RulesStorageStructure.RawData","name":"rawData","type":"tuple"},{"components":[{"internalType":"enum RulesStorageStructure.PT","name":"pType","type":"uint8"},{"internalType":"uint256","name":"typeSpecificIndex","type":"uint256"},{"internalType":"bool","name":"trackerValue","type":"bool"},{"internalType":"bool","name":"foreignCall","type":"bool"}],"internalType":"struct RulesStorageStructure.Placeholder[]","name":"placeHolders","type":"tuple[]"},{"components":[{"internalType":"enum RulesStorageStructure.PT","name":"pType","type":"uint8"},{"internalType":"uint256","name":"typeSpecificIndex","type":"uint256"},{"internalType":"bool","name":"trackerValue","type":"bool"},{"internalType":"bool","name":"foreignCall","type":"bool"}],"internalType":"struct RulesStorageStructure.Placeholder[]","name":"effectPlaceHolders","type":"tuple[]"},{"components":[{"internalType":"uint256","name":"foreignCallIndex","type":"uint256"},{"components":[{"internalType":"enum RulesStorageStructure.PT","name":"functionCallArgumentType","type":"uint8"},{"components":[{"internalType":"enum RulesStorageStructure.PT","name":"pType","type":"uint8"},{"internalType":"uint256","name":"typeSpecificIndex","type":"uint256"},{"internalType":"bool","name":"trackerValue","type":"bool"},{"internalType":"bool","name":"foreignCall","type":"bool"}],"internalType":"struct RulesStorageStructure.Placeholder","name":"functionSignatureArg","type":"tuple"}],"internalType":"struct RulesStorageStructure.IndividualArgumentMapping[]","name":"mappings","type":"tuple[]"}],"internalType":"struct RulesStorageStructure.ForeignCallArgumentMappings[]","name":"fcArgumentMappingsConditions","type":"tuple[]"},{"components":[{"internalType":"uint256","name":"foreignCallIndex","type":"uint256"},{"components":[{"internalType":"enum RulesStorageStructure.PT","name":"functionCallArgumentType","type":"uint8"},{"components":[{"internalType":"enum RulesStorageStructure.PT","name":"pType","type":"uint8"},{"internalType":"uint256","name":"typeSpecificIndex","type":"uint256"},{"internalType":"bool","name":"trackerValue","type":"bool"},{"internalType":"bool","name":"foreignCall","type":"bool"}],"internalType":"struct RulesStorageStructure.Placeholder","name":"functionSignatureArg","type":"tuple"}],"internalType":"struct RulesStorageStructure.IndividualArgumentMapping[]","name":"mappings","type":"tuple[]"}],"internalType":"struct RulesStorageStructure.ForeignCallArgumentMappings[]","name":"fcArgumentMappingsEffects","type":"tuple[]"},{"internalType":"uint256[]","name":"posEffects","type":"uint256[]"},{"internalType":"uint256[]","name":"negEffects","type":"uint256[]"}],"internalType":"struct RulesStorageStructure.Rule","name":"applicableRule","type":"tuple"},{"components":[{"internalType":"enum RulesStorageStructure.PT[]","name":"argumentTypes","type":"uint8[]"},{"internalType":"bytes[]","name":"values","type":"bytes[]"}],"internalType":"struct RulesStorageStructure.Arguments","name":"functionSignatureArgs","type":"tuple"},{"internalType":"uint256[]","name":"instructionSet","type":"uint256[]"}],"name":"evaluateExpression","outputs":[],"stateMutability":"nonpayable","type":"function"},{"inputs":[{"internalType":"uint256","name":"_policyId","type":"uint256"},{"components":[{"internalType":"enum RulesStorageStructure.PT","name":"pType","type":"uint8"},{"internalType":"uint256","name":"typeSpecificIndex","type":"uint256"},{"internalType":"bool","name":"trackerValue","type":"bool"},{"internalType":"bool","name":"foreignCall","type":"bool"}],"internalType":"struct RulesStorageStructure.Placeholder[]","name":"placeHolders","type":"tuple[]"},{"components":[{"internalType":"uint256","name":"foreignCallIndex","type":"uint256"},{"components":[{"internalType":"enum RulesStorageStructure.PT","name":"functionCallArgumentType","type":"uint8"},{"components":[{"internalType":"enum RulesStorageStructure.PT","name":"pType","type":"uint8"},{"internalType":"uint256","name":"typeSpecificIndex","type":"uint256"},{"internalType":"bool","name":"trackerValue","type":"bool"},{"internalType":"bool","name":"foreignCall","type":"bool"}],"internalType":"struct RulesStorageStructure.Placeholder","name":"functionSignatureArg","type":"tuple"}],"internalType":"struct RulesStorageStructure.IndividualArgumentMapping[]","name":"mappings","type":"tuple[]"}],"internalType":"struct RulesStorageStructure.ForeignCallArgumentMappings[]","name":"fcArgumentMappings","type":"tuple[]"},{"components":[{"internalType":"enum RulesStorageStructure.PT[]","name":"argumentTypes","type":"uint8[]"},{"internalType":"bytes[]","name":"values","type":"bytes[]"}],"internalType":"struct RulesStorageStructure.Arguments","name":"functionSignatureArgs","type":"tuple"},{"internalType":"uint256","name":"placeholderIndex","type":"uint256"}],"name":"evaluateForeignCalls","outputs":[{"components":[{"internalType":"enum RulesStorageStructure.PT","name":"pType","type":"uint8"},{"internalType":"bytes","name":"value","type":"bytes"}],"internalType":"struct RulesStorageStructure.ForeignCallReturnValue","name":"","type":"tuple"}],"stateMutability":"nonpayable","type":"function"},{"inputs":[{"internalType":"uint256","name":"_policyId","type":"uint256"},{"components":[{"internalType":"uint256[]","name":"instructionSet","type":"uint256[]"},{"components":[{"internalType":"uint256[]","name":"instructionSetIndex","type":"uint256[]"},{"internalType":"enum RulesStorageStructure.PT[]","name":"argumentTypes","type":"uint8[]"},{"internalType":"bytes[]","name":"dataValues","type":"bytes[]"}],"internalType":"struct RulesStorageStructure.RawData","name":"rawData","type":"tuple"},{"components":[{"internalType":"enum RulesStorageStructure.PT","name":"pType","type":"uint8"},{"internalType":"uint256","name":"typeSpecificIndex","type":"uint256"},{"internalType":"bool","name":"trackerValue","type":"bool"},{"internalType":"bool","name":"foreignCall","type":"bool"}],"internalType":"struct RulesStorageStructure.Placeholder[]","name":"placeHolders","type":"tuple[]"},{"components":[{"internalType":"enum RulesStorageStructure.PT","name":"pType","type":"uint8"},{"internalType":"uint256","name":"typeSpecificIndex","type":"uint256"},{"internalType":"bool","name":"trackerValue","type":"bool"},{"internalType":"bool","name":"foreignCall","type":"bool"}],"internalType":"struct RulesStorageStructure.Placeholder[]","name":"effectPlaceHolders","type":"tuple[]"},{"components":[{"internalType":"uint256","name":"foreignCallIndex","type":"uint256"},{"components":[{"internalType":"enum RulesStorageStructure.PT","name":"functionCallArgumentType","type":"uint8"},{"components":[{"internalType":"enum RulesStorageStructure.PT","name":"pType","type":"uint8"},{"internalType":"uint256","name":"typeSpecificIndex","type":"uint256"},{"internalType":"bool","name":"trackerValue","type":"bool"},{"internalType":"bool","name":"foreignCall","type":"bool"}],"internalType":"struct RulesStorageStructure.Placeholder","name":"functionSignatureArg","type":"tuple"}],"internalType":"struct RulesStorageStructure.IndividualArgumentMapping[]","name":"mappings","type":"tuple[]"}],"internalType":"struct RulesStorageStructure.ForeignCallArgumentMappings[]","name":"fcArgumentMappingsConditions","type":"tuple[]"},{"components":[{"internalType":"uint256","name":"foreignCallIndex","type":"uint256"},{"components":[{"internalType":"enum RulesStorageStructure.PT","name":"functionCallArgumentType","type":"uint8"},{"components":[{"internalType":"enum RulesStorageStructure.PT","name":"pType","type":"uint8"},{"internalType":"uint256","name":"typeSpecificIndex","type":"uint256"},{"internalType":"bool","name":"trackerValue","type":"bool"},{"internalType":"bool","name":"foreignCall","type":"bool"}],"internalType":"struct RulesStorageStructure.Placeholder","name":"functionSignatureArg","type":"tuple"}],"internalType":"struct RulesStorageStructure.IndividualArgumentMapping[]","name":"mappings","type":"tuple[]"}],"internalType":"struct RulesStorageStructure.ForeignCallArgumentMappings[]","name":"fcArgumentMappingsEffects","type":"tuple[]"},{"internalType":"uint256[]","name":"posEffects","type":"uint256[]"},{"internalType":"uint256[]","name":"negEffects","type":"uint256[]"}],"internalType":"struct RulesStorageStructure.Rule[]","name":"applicableRules","type":"tuple[]"},{"components":[{"internalType":"enum RulesStorageStructure.PT[]","name":"argumentTypes","type":"uint8[]"},{"internalType":"bytes[]","name":"values","type":"bytes[]"}],"internalType":"struct RulesStorageStructure.Arguments","name":"functionSignatureArgs","type":"tuple"}],"name":"evaluateRulesAndExecuteEffects","outputs":[{"internalType":"bool","name":"retVal","type":"bool"}],"stateMutability":"nonpayable","type":"function"},{"inputs":[{"internalType":"uint256","name":"_policyId","type":"uint256"},{"internalType":"uint256","name":"index","type":"uint256"}],"name":"getTracker","outputs":[{"components":[{"internalType":"enum RulesStorageStructure.PT","name":"pType","type":"uint8"},{"internalType":"bytes","name":"trackerValue","type":"bytes"}],"internalType":"struct RulesStorageStructure.Trackers","name":"trackers","type":"tuple"}],"stateMutability":"view","type":"function"},{"inputs":[{"internalType":"uint256","name":"_ruleId","type":"uint256"},{"internalType":"uint256","name":"instructionSetId","type":"uint256"}],"name":"retrieveRawAddressFromInstructionSet","outputs":[{"components":[{"internalType":"uint256","name":"instructionSetValue","type":"uint256"},{"internalType":"address","name":"rawData","type":"address"}],"internalType":"struct RulesStorageStructure.AddressVerificationStruct","name":"retVal","type":"tuple"}],"stateMutability":"view","type":"function"},{"inputs":[{"internalType":"uint256","name":"_ruleId","type":"uint256"},{"internalType":"uint256","name":"instructionSetId","type":"uint256"}],"name":"retrieveRawStringFromInstructionSet","outputs":[{"components":[{"internalType":"uint256","name":"instructionSetValue","type":"uint256"},{"internalType":"string","name":"rawData","type":"string"}],"internalType":"struct RulesStorageStructure.StringVerificationStruct","name":"retVal","type":"tuple"}],"stateMutability":"view","type":"function"},{"inputs":[{"internalType":"uint256","name":"_policyId","type":"uint256"},{"internalType":"uint256[]","name":"prog","type":"uint256[]"},{"components":[{"internalType":"enum RulesStorageStructure.PT[]","name":"argumentTypes","type":"uint8[]"},{"internalType":"bytes[]","name":"values","type":"bytes[]"}],"internalType":"struct RulesStorageStructure.Arguments","name":"arguments","type":"tuple"}],"name":"run","outputs":[{"internalType":"bool","name":"ans","type":"bool"}],"stateMutability":"nonpayable","type":"function"},{"inputs":[{"internalType":"uint256","name":"x","type":"uint256"}],"name":"ui2bool","outputs":[{"internalType":"bool","name":"ans","type":"bool"}],"stateMutability":"pure","type":"function"},{"inputs":[{"components":[{"internalType":"uint256","name":"effectId","type":"uint256"},{"internalType":"enum EffectStructures.ET","name":"effectType","type":"uint8"},{"internalType":"string","name":"text","type":"string"},{"internalType":"uint256[]","name":"instructionSet","type":"uint256[]"}],"internalType":"struct EffectStructures.Effect","name":"_effect","type":"tuple"}],"name":"updateEffect","outputs":[{"internalType":"uint256","name":"_effectId","type":"uint256"}],"stateMutability":"nonpayable","type":"function"},{"inputs":[{"internalType":"uint256","name":"_policyId","type":"uint256"},{"internalType":"address","name":"foreignContractAddress","type":"address"},{"internalType":"string","name":"functionSignature","type":"string"},{"internalType":"enum RulesStorageStructure.PT","name":"returnType","type":"uint8"},{"internalType":"enum RulesStorageStructure.PT[]","name":"arguments","type":"uint8[]"}],"name":"updateForeignCall","outputs":[{"components":[{"internalType":"address","name":"foreignCallAddress","type":"address"},{"internalType":"uint256","name":"foreignCallIndex","type":"uint256"},{"internalType":"bytes4","name":"signature","type":"bytes4"},{"internalType":"enum RulesStorageStructure.PT","name":"returnType","type":"uint8"},{"internalType":"enum RulesStorageStructure.PT[]","name":"parameterTypes","type":"uint8[]"}],"internalType":"struct RulesStorageStructure.ForeignCall","name":"fc","type":"tuple"}],"stateMutability":"nonpayable","type":"function"},{"inputs":[{"internalType":"uint256","name":"_functionSignatureId","type":"uint256"},{"internalType":"bytes4","name":"functionSignature","type":"bytes4"},{"internalType":"enum RulesStorageStructure.PT[]","name":"pTypes","type":"uint8[]"}],"name":"updateFunctionSignature","outputs":[{"internalType":"uint256","name":"","type":"uint256"}],"stateMutability":"nonpayable","type":"function"},{"inputs":[{"internalType":"uint256","name":"_policyId","type":"uint256"},{"internalType":"bytes[]","name":"_signatures","type":"bytes[]"},{"internalType":"uint256[]","name":"functionSignatureIds","type":"uint256[]"},{"internalType":"uint256[][]","name":"ruleIds","type":"uint256[][]"}],"name":"updatePolicy","outputs":[{"internalType":"uint256","name":"","type":"uint256"}],"stateMutability":"nonpayable","type":"function"},{"inputs":[{"internalType":"uint256","name":"_ruleId","type":"uint256"},{"components":[{"internalType":"uint256[]","name":"instructionSet","type":"uint256[]"},{"components":[{"internalType":"uint256[]","name":"instructionSetIndex","type":"uint256[]"},{"internalType":"enum RulesStorageStructure.PT[]","name":"argumentTypes","type":"uint8[]"},{"internalType":"bytes[]","name":"dataValues","type":"bytes[]"}],"internalType":"struct RulesStorageStructure.RawData","name":"rawData","type":"tuple"},{"components":[{"internalType":"enum RulesStorageStructure.PT","name":"pType","type":"uint8"},{"internalType":"uint256","name":"typeSpecificIndex","type":"uint256"},{"internalType":"bool","name":"trackerValue","type":"bool"},{"internalType":"bool","name":"foreignCall","type":"bool"}],"internalType":"struct RulesStorageStructure.Placeholder[]","name":"placeHolders","type":"tuple[]"},{"components":[{"internalType":"enum RulesStorageStructure.PT","name":"pType","type":"uint8"},{"internalType":"uint256","name":"typeSpecificIndex","type":"uint256"},{"internalType":"bool","name":"trackerValue","type":"bool"},{"internalType":"bool","name":"foreignCall","type":"bool"}],"internalType":"struct RulesStorageStructure.Placeholder[]","name":"effectPlaceHolders","type":"tuple[]"},{"components":[{"internalType":"uint256","name":"foreignCallIndex","type":"uint256"},{"components":[{"internalType":"enum RulesStorageStructure.PT","name":"functionCallArgumentType","type":"uint8"},{"components":[{"internalType":"enum RulesStorageStructure.PT","name":"pType","type":"uint8"},{"internalType":"uint256","name":"typeSpecificIndex","type":"uint256"},{"internalType":"bool","name":"trackerValue","type":"bool"},{"internalType":"bool","name":"foreignCall","type":"bool"}],"internalType":"struct RulesStorageStructure.Placeholder","name":"functionSignatureArg","type":"tuple"}],"internalType":"struct RulesStorageStructure.IndividualArgumentMapping[]","name":"mappings","type":"tuple[]"}],"internalType":"struct RulesStorageStructure.ForeignCallArgumentMappings[]","name":"fcArgumentMappingsConditions","type":"tuple[]"},{"components":[{"internalType":"uint256","name":"foreignCallIndex","type":"uint256"},{"components":[{"internalType":"enum RulesStorageStructure.PT","name":"functionCallArgumentType","type":"uint8"},{"components":[{"internalType":"enum RulesStorageStructure.PT","name":"pType","type":"uint8"},{"internalType":"uint256","name":"typeSpecificIndex","type":"uint256"},{"internalType":"bool","name":"trackerValue","type":"bool"},{"internalType":"bool","name":"foreignCall","type":"bool"}],"internalType":"struct RulesStorageStructure.Placeholder","name":"functionSignatureArg","type":"tuple"}],"internalType":"struct RulesStorageStructure.IndividualArgumentMapping[]","name":"mappings","type":"tuple[]"}],"internalType":"struct RulesStorageStructure.ForeignCallArgumentMappings[]","name":"fcArgumentMappingsEffects","type":"tuple[]"},{"internalType":"uint256[]","name":"posEffects","type":"uint256[]"},{"internalType":"uint256[]","name":"negEffects","type":"uint256[]"}],"internalType":"struct RulesStorageStructure.Rule","name":"rule","type":"tuple"}],"name":"updateRule","outputs":[{"internalType":"uint256","name":"","type":"uint256"}],"stateMutability":"nonpayable","type":"function"},{"inputs":[{"internalType":"uint256","name":"_policyId","type":"uint256"},{"internalType":"uint256","name":"updatedUintTracker","type":"uint256"},{"internalType":"address","name":"updatedAddressTracker","type":"address"},{"internalType":"string","name":"updatedStringTracker","type":"string"},{"internalType":"bool","name":"updatedBoolTracker","type":"bool"},{"internalType":"bytes","name":"updatedBytesTracker","type":"bytes"}],"name":"updateTracker","outputs":[],"stateMutability":"nonpayable","type":"function"}],"evm":{"bytecode":{"linkReferences":{},"object":"6080604052348015600f57600080fd5b506167ee8061001f6000396000f3fe608060405234801561001057600080fd5b50600436106101375760003560e01c80638085367b116100b8578063a5bcf7f21161007c578063a5bcf7f2146102b7578063a6e481d3146102ca578063c80388a2146102dd578063df11708c14610314578063e21eaa1814610327578063f7a481171461033a57600080fd5b80638085367b1461025857806386ff45ad1461026b5780639228303f1461027e5780639c7a08e614610291578063a16ca3d5146102a457600080fd5b80635fcaa1c9116100ff5780635fcaa1c9146101cd5780636af870c6146101f15780636ecfdf671461021257806372a340d7146102255780637e6382ac1461024557600080fd5b80630d6b001b1461013c57806311ad2153146101515780632f71833b146101645780633bbaa76c1461018d5780634e9f6125146101ad575b600080fd5b61014f61014a3660046142a4565b61034d565b005b61014f61015f366004614a41565b61038b565b610177610172366004614adc565b610420565b6040516101849190614ca7565b60405180910390f35b6101a061019b366004614cd6565b610922565b6040516101849190614d6c565b6101c06101bb366004614dd1565b610b35565b6040516101849190614df3565b6101e16101db3660046142a4565b60011490565b6040519015158152602001610184565b6102046101ff366004614e63565b610b7f565b604051908152602001610184565b6101e1610220366004614f10565b610e80565b610238610233366004614dd1565b61117d565b604051610184919061501f565b6101e161025336600461504a565b61128a565b6102046102663660046150b4565b611c06565b610204610279366004615112565b611c20565b61014f61028c366004615198565b611ca4565b61014f61029f3660046151ec565b611d85565b6102046102b236600461528a565b61204e565b6102046102c53660046152c4565b6120b9565b6102386102d836600461531f565b61213e565b6102f06102eb366004614dd1565b61231b565b60408051825181526020928301516001600160a01b03169281019290925201610184565b61014f6103223660046153c2565b61236d565b610204610335366004615456565b612584565b61014f6103483660046154a4565b6125e2565b6000818152600c6020526040812081815560018101805460ff19169055906103786002830182614042565b61038660038301600061407f565b505050565b60006103a18585606001518660a0015186610420565b905060018251111561041957604051631f98e0ab60e21b81523090637e6382ac906103d49088908690869060040161551c565b6020604051808303816000875af11580156103f3573d6000803e3d6000fd5b505050506040513d601f19601f820116820180604052508101906104179190615551565b505b5050505050565b6040805180820190915260608082526020820152604080518082019091526060808252602082015284516001600160401b03811115610461576104616142bd565b60405190808252806020026020018201604052801561048a578160200160208202803683370190505b50815284516001600160401b038111156104a6576104a66142bd565b6040519080825280602002602001820160405280156104d957816020015b60608152602001906001900390816104c45790505b5060208201526000805b8651811015610916578681815181106104fe576104fe61556e565b602002602001015160600151156105a357600061051e898989898661213e565b905080600001518460000151848151811061053b5761053b61556e565b6020026020010190600581111561055457610554614b6b565b9081600581111561056757610567614b6b565b815250508060200151846020015184815181106105865761058661556e565b60200260200101819052508261059b9061559a565b92505061090e565b8681815181106105b5576105b561556e565b602002602001015160400151156107575760005b6000898152600560205260409020600101548110156107515760008981526005602052604090206001018054829081106106055761060561556e565b60009182526020909120600290910201548451805160ff90921691859081106106305761063061556e565b6020026020010190600581111561064957610649614b6b565b9081600581111561065c5761065c614b6b565b90525060008981526005602052604090206001018054829081106106825761068261556e565b9060005260206000209060020201600101805461069e906155b3565b80601f01602080910402602001604051908101604052809291908181526020018280546106ca906155b3565b80156107175780601f106106ec57610100808354040283529160200191610717565b820191906000526020600020905b8154815290600101906020018083116106fa57829003601f168201915b5050505050846020015184815181106107325761073261556e565b6020026020010181905250826107479061559a565b92506001016105c9565b5061090e565b600087828151811061076b5761076b61556e565b602002602001015160000151600581111561078857610788614b6b565b036107d9576000836000015183815181106107a5576107a561556e565b602002602001019060058111156107be576107be614b6b565b908160058111156107d1576107d1614b6b565b9052506108a5565b60028782815181106107ed576107ed61556e565b602002602001015160000151600581111561080a5761080a614b6b565b03610827576002836000015183815181106107a5576107a561556e565b600187828151811061083b5761083b61556e565b602002602001015160000151600581111561085857610858614b6b565b036108a5576001836000015183815181106108755761087561556e565b6020026020010190600581111561088e5761088e614b6b565b908160058111156108a1576108a1614b6b565b9052505b84602001518782815181106108bc576108bc61556e565b602002602001015160200151815181106108d8576108d861556e565b6020026020010151836020015183815181106108f6576108f661556e565b60200260200101819052508161090b9061559a565b91505b6001016104e3565b50909695505050505050565b61092a61409d565b6001600160a01b038516815283516020808601919091206001600160e01b03191660408301526008805491830182905260006109658361559a565b90915550506060810183600581111561098057610980614b6b565b9081600581111561099357610993614b6b565b90525081516001600160401b038111156109af576109af6142bd565b6040519080825280602002602001820160405280156109d8578160200160208202803683370190505b50608082015260005b8251811015610a51578281815181106109fc576109fc61556e565b602002602001015182608001518281518110610a1a57610a1a61556e565b60200260200101906005811115610a3357610a33614b6b565b90816005811115610a4657610a46614b6b565b9052506001016109e1565b5060008681526004602081815260408084206001908101805480830182559086529483902086519590940290930180546001600160a01b0319166001600160a01b03909516949094178455908401519183019190915582015160028201805463ffffffff19811660e09390931c9283178255606085015185949390929164ffffffffff191617640100000000836005811115610aef57610aef614b6b565b021790555060808201518051610b0f9160038401916020909101906140cd565b505050600095865260046020526040909520805460ff1916600117905550929392505050565b604080518082019091526000815260606020820152600080610b598585600161261d565b9150915080806020019051810190610b7191906155e7565b602084015250815292915050565b600087600003610b9757600980546001019055610b9d565b60098890555b858414610c085760405162461bcd60e51b815260206004820152602e60248201527f5369676e61747572657320616e64207369676e6174757265206964277320617260448201526d19481a5b98dbdb9cda5cdd195b9d60921b60648201526084015b60405180910390fd5b60005b86811015610e525760036000878784818110610c2957610c2961556e565b602090810292909201358352508101919091526040016000205460ff16610c865760405162461bcd60e51b8152602060048201526011602482015270496e76616c6964205369676e617475726560781b6044820152606401610bff565b858582818110610c9857610c9861556e565b90506020020135600160006009548152602001908152602001600020600101600001898984818110610ccc57610ccc61556e565b9050602002810190610cde9190615654565b604051610cec92919061569a565b9081526040519081900360200190205560005b848483818110610d1157610d1161556e565b9050602002810190610d2391906156aa565b9050811015610dc45760026000868685818110610d4257610d4261556e565b9050602002810190610d5491906156aa565b84818110610d6457610d6461556e565b602090810292909201358352508101919091526040016000205460ff16610dbc5760405162461bcd60e51b815260206004820152600c60248201526b496e76616c69642052756c6560a01b6044820152606401610bff565b600101610cff565b50838382818110610dd757610dd761556e565b9050602002810190610de991906156aa565b60095460009081526001602052604090206002018a8a85818110610e0f57610e0f61556e565b9050602002810190610e219190615654565b604051610e2f92919061569a565b908152604051908190036020019020610e49929091614181565b50600101610c0b565b5050600980546000908152600160208190526040909120805460ff1916909117905554979650505050505050565b600160005b835181101561117557600085815260046020908152604080832081518083018352815460ff16151581526001820180548451818702810187019095528085529194929385840193909290879084015b82821015610ffc5760008481526020908190206040805160a0810182526004860290920180546001600160a01b03168352600181015493830193909352600283015460e081901b6001600160e01b031916918301919091529091906060830190640100000000900460ff166005811115610f5057610f50614b6b565b6005811115610f6157610f61614b6b565b815260200160038201805480602002602001604051908101604052809291908181526020018280548015610fe457602002820191906000526020600020906000905b82829054906101000a900460ff166005811115610fc257610fc2614b6b565b815260206001928301818104948501949093039092029101808411610fa35790505b50505050508152505081526020019060010190610ed4565b5050505081525050905061102a8686848151811061101c5761101c61556e565b602002602001015186612ee0565b6110d15760009250306001600160a01b031663df11708c878785815181106110545761105461556e565b602002602001015160e001518886815181106110725761107261556e565b6020026020010151886040518563ffffffff1660e01b815260040161109a949392919061585a565b600060405180830381600087803b1580156110b457600080fd5b505af11580156110c8573d6000803e3d6000fd5b5050505061116c565b306001600160a01b031663df11708c878785815181106110f3576110f361556e565b602002602001015160c001518886815181106111115761111161556e565b6020026020010151886040518563ffffffff1660e01b8152600401611139949392919061585a565b600060405180830381600087803b15801561115357600080fd5b505af1158015611167573d6000803e3d6000fd5b505050505b50600101610e85565b509392505050565b6111856141bc565b60008381526005602052604090206001018054839081106111a8576111a861556e565b60009182526020909120604080518082019091526002909202018054829060ff1660058111156111da576111da614b6b565b60058111156111eb576111eb614b6b565b81526020016001820180546111ff906155b3565b80601f016020809104026020016040519081016040528092919081815260200182805461122b906155b3565b80156112785780601f1061124d57610100808354040283529160200191611278565b820191906000526020600020905b81548152906001019060200180831161125b57829003601f168201915b50505050508152505090505b92915050565b60006112946141ce565b6000805b85821015611bdb576000808888858181106112b5576112b561556e565b90506020020135600c8111156112cd576112cd614b6b565b9050600b81600c8111156112e3576112e3614b6b565b036114ad57600089896112f7876001615966565b8181106113065761130661556e565b602002919091013591506000905061131e89806156aa565b8381811061132e5761132e61556e565b90506020020160208101906113439190615979565b9050600081600581111561135957611359614b6b565b036113b75761136b60208a018a6156aa565b8381811061137b5761137b61556e565b905060200281019061138d9190615654565b81019061139a9190615996565b6001600160a01b031693506113b0600287615966565b95506114a6565b60028160058111156113cb576113cb614b6b565b03611419576113dd60208a018a6156aa565b838181106113ed576113ed61556e565b90506020028101906113ff9190615654565b81019061140c91906142a4565b93506113b0600287615966565b600181600581111561142d5761142d614b6b565b036114a65761143f60208a018a6156aa565b8381811061144f5761144f61556e565b90506020028101906114619190615654565b81019061146e91906159b3565b60405160200161147e91906159e7565b60408051601f19818403018152919052805160209091012093506114a3600287615966565b95505b5050611baf565b600c81600c8111156114c1576114c1614b6b565b0361160f576002600560008c81526020019081526020016000206001018a8a8760016114ed9190615966565b8181106114fc576114fc61556e565b90506020020135815481106115135761151361556e565b600091825260209091206002909102015460ff16600581111561153857611538614b6b565b036115fd5784898961154b876002615966565b81811061155a5761155a61556e565b90506020020135604081106115715761157161556e565b602002015160405160200161158891815260200190565b60408051601f1981840301815291815260008c81526005602052206001908101908b908b906115b8908990615966565b8181106115c7576115c761556e565b90506020020135815481106115de576115de61556e565b906000526020600020906002020160010190816115fb9190615a61565b505b611608600385615966565b9350611baf565b600081600c81111561162357611623614b6b565b0361165a578888611635866001615966565b8181106116445761164461556e565b9050602002013591506002846116089190615966565b600181600c81111561166e5761166e614b6b565b036116fc57848989611681876002615966565b8181106116905761169061556e565b90506020020135604081106116a7576116a761556e565b6020020151858a8a6116ba886001615966565b8181106116c9576116c961556e565b90506020020135604081106116e0576116e061556e565b60200201516116ef9190615966565b9150611608600385615966565b600281600c81111561171057611710614b6b565b0361179157848989611723876002615966565b8181106117325761173261556e565b90506020020135604081106117495761174961556e565b6020020151858a8a61175c886001615966565b81811061176b5761176b61556e565b90506020020135604081106117825761178261556e565b60200201516116ef9190615b19565b600381600c8111156117a5576117a5614b6b565b03611826578489896117b8876002615966565b8181106117c7576117c761556e565b90506020020135604081106117de576117de61556e565b6020020151858a8a6117f1886001615966565b8181106118005761180061556e565b90506020020135604081106118175761181761556e565b60200201516116ef9190615b2c565b600481600c81111561183a5761183a614b6b565b036118bb5784898961184d876002615966565b81811061185c5761185c61556e565b90506020020135604081106118735761187361556e565b6020020151858a8a611886886001615966565b8181106118955761189561556e565b90506020020135604081106118ac576118ac61556e565b60200201516116ef9190615b43565b600581600c8111156118cf576118cf614b6b565b0361194f576116ef858a8a6118e5886002615966565b8181106118f4576118f461556e565b905060200201356040811061190b5761190b61556e565b6020020151868b8b61191e896001615966565b81811061192d5761192d61556e565b90506020020135604081106119445761194461556e565b602002015110611c06565b600681600c81111561196357611963614b6b565b036119e3576116ef858a8a611979886002615966565b8181106119885761198861556e565b905060200201356040811061199f5761199f61556e565b6020020151868b8b6119b2896001615966565b8181106119c1576119c161556e565b90506020020135604081106119d8576119d861556e565b602002015111611c06565b600781600c8111156119f7576119f7614b6b565b03611a77576116ef858a8a611a0d886002615966565b818110611a1c57611a1c61556e565b9050602002013560408110611a3357611a3361556e565b6020020151868b8b611a46896001615966565b818110611a5557611a5561556e565b9050602002013560408110611a6c57611a6c61556e565b602002015114611c06565b600881600c811115611a8b57611a8b614b6b565b03611aed576116ef611ad5868b8b611aa4896001615966565b818110611ab357611ab361556e565b9050602002013560408110611aca57611aca61556e565b602002015160011490565b80156102665750610266868b8b611aa4896002615966565b600981600c811115611b0157611b01614b6b565b03611b31576116ef611b1a868b8b611aa4896001615966565b806102665750610266868b8b611aa4896002615966565b600a81600c811115611b4557611b45614b6b565b03611b7157611b64611b5e868b8b611aa4896001615966565b15611c06565b9150611608600285615966565b60405162461bcd60e51b815260206004820152601360248201527224b63632b3b0b61034b739ba393ab1ba34b7b760691b6044820152606401610bff565b81858460408110611bc257611bc261556e565b6020020152611bd2600184615966565b92505050611298565b611bfa83611bea600184615b19565b60408110611aca57611aca61556e565b98975050505050505050565b600081611c14576000611c17565b60015b60ff1692915050565b600160005b6001600160a01b038716600090815260208190526040902054811015611c9a576001600160a01b03871660009081526020819052604090208054611c89919083908110611c7457611c7461556e565b90600052602060002001548888888888612f65565b611c9257600091505b600101611c25565b5095945050505050565b806001600160401b03811115611cbc57611cbc6142bd565b604051908082528060200260200182016040528015611ce5578160200160208202803683370190505b506001600160a01b0384166000908152602081815260409091208251611d1193919291909101906141ed565b5060005b81811015611d7f57828282818110611d2f57611d2f61556e565b90506020020135600080866001600160a01b03166001600160a01b031681526020019081526020016000208281548110611d6b57611d6b61556e565b600091825260209091200155600101611d15565b50505050565b6000868152600560205260408120805460ff191660011790555b6000878152600560205260409020600101548110156120455760026000888152600560205260409020600101805483908110611ddd57611ddd61556e565b600091825260209091206002909102015460ff166005811115611e0257611e02614b6b565b03611e67576040805160208101889052015b60408051601f198184030181529181526000898152600560205220600101805483908110611e4457611e4461556e565b90600052602060002090600202016001019081611e619190615a61565b5061203d565b6000878152600560205260408120600101805483908110611e8a57611e8a61556e565b600091825260209091206002909102015460ff166005811115611eaf57611eaf614b6b565b03611ecd57604080516001600160a01b038716602082015201611e14565b60016000888152600560205260409020600101805483908110611ef257611ef261556e565b600091825260209091206002909102015460ff166005811115611f1757611f17614b6b565b03611f2d5783604051602001611e1491906159e7565b60036000888152600560205260409020600101805483908110611f5257611f5261556e565b600091825260209091206002909102015460ff166005811115611f7757611f77614b6b565b03611f8e5760408051841515602082015201611e14565b60056000888152600560205260409020600101805483908110611fb357611fb361556e565b600091825260209091206002909102015460ff166005811115611fd857611fd8614b6b565b0361203d5781604051602001611fee91906159e7565b60408051601f19818403018152918152600089815260056020522060010180548390811061201e5761201e61556e565b9060005260206000209060020201600101908161203b9190615a61565b505b600101611d9f565b50505050505050565b600081351561207c5781356000908152600c6020526040902082906120738282615be0565b50509035919050565b600d805490600061208c8361559a565b9091555050600d546000908152600c6020526040902082906120ae8282615be0565b5050600d5492915050565b6000836000036120d157600b805460010190556120d7565b600b8490555b600b805460009081526003602090815260408083208054600160ff19909116811790915584548452818420805464ffffffff00191661010060e08b901c021790559354835290912084516121329391909101918501906140cd565b5050600b549392505050565b6121466141bc565b60005b600087815260046020526040902060010154811015611c9a578583815181106121745761217461556e565b6020026020010151602001516004600089815260200190815260200160002060010182815481106121a7576121a761556e565b9060005260206000209060040201600101540361230a57600087815260046020526040812060010180546123009190849081106121e6576121e661556e565b60009182526020918290206040805160a081018252600490930290910180546001600160a01b0316835260018101549383019390935260028301546001600160e01b031960e082901b1691830191909152909190606083019060ff64010000000090910416600581111561225c5761225c614b6b565b600581111561226d5761226d614b6b565b8152602001600382018054806020026020016040519081016040528092919081815260200182805480156122f057602002820191906000526020600020906000905b82829054906101000a900460ff1660058111156122ce576122ce614b6b565b8152602060019283018181049485019490930390920291018084116122af5790505b5050505050815250508787613a1e565b9250612312915050565b600101612149565b95945050505050565b604080518082019091526000808252602082015260008061233e8585600061261d565b91509150808060200190518101906123569190615cf0565b6001600160a01b0316602084015250815292915050565b60005b8381101561041757600085858381811061238c5761238c61556e565b90506020020135111561257c576000600c60008787858181106123b1576123b161556e565b905060200201358152602001908152602001600020604051806080016040529081600082015481526020016001820160009054906101000a900460ff1660028111156123ff576123ff614b6b565b600281111561241057612410614b6b565b8152602001600282018054612424906155b3565b80601f0160208091040260200160405190810160405280929190818152602001828054612450906155b3565b801561249d5780601f106124725761010080835404028352916020019161249d565b820191906000526020600020905b81548152906001019060200180831161248057829003601f168201915b50505050508152602001600382018054806020026020016040519081016040528092919081815260200182805480156124f557602002820191906000526020600020905b8154815260200190600101908083116124e1575b50505050508152505090506000600281111561251357612513614b6b565b8160200151600281111561252957612529614b6b565b036125405761253b8160400151613e2b565b61257a565b60018160200151600281111561255857612558614b6b565b0361256a5761253b8160400151613e45565b61257a878585846060015161038b565b505b600101612370565b60008260000361259c57600a805460010190556125a2565b600a8390555b600a8054600090815260026020526040808220805460ff191660019081179091559254825290208391016125d68282616535565b5050600a549392505050565b60008281526005602090815260408220805460ff1916600190811782559081018054918201815583529120829160020201611d7f8282616682565b600083815260026020908152604080832081518083018352815460ff16151581528251600183018054610120818802840181019096526101008301818152606097899795969590870194939284929184919084018282801561269e57602002820191906000526020600020905b81548152602001906001019080831161268a575b50505050508152602001600182016040518060600160405290816000820180548060200260200160405190810160405280929190818152602001828054801561270657602002820191906000526020600020905b8154815260200190600101908083116126f2575b505050505081526020016001820180548060200260200160405190810160405280929190818152602001828054801561278e57602002820191906000526020600020906000905b82829054906101000a900460ff16600581111561276c5761276c614b6b565b81526020600192830181810494850194909303909202910180841161274d5790505b5050505050815260200160028201805480602002602001604051908101604052809291908181526020016000905b828210156128685783829060005260206000200180546127db906155b3565b80601f0160208091040260200160405190810160405280929190818152602001828054612807906155b3565b80156128545780601f1061282957610100808354040283529160200191612854565b820191906000526020600020905b81548152906001019060200180831161283757829003601f168201915b5050505050815260200190600101906127bc565b5050505081525050815260200160048201805480602002602001604051908101604052809291908181526020016000905b82821015612926576000848152602090206040805160808101909152600384029091018054829060ff1660058111156128d4576128d4614b6b565b60058111156128e5576128e5614b6b565b815260018281015460208084019190915260029093015460ff8082161515604085015261010090910416151560609092019190915291835292019101612899565b50505050815260200160058201805480602002602001604051908101604052809291908181526020016000905b828210156129e0576000848152602090206040805160808101909152600384029091018054829060ff16600581111561298e5761298e614b6b565b600581111561299f5761299f614b6b565b815260018281015460208084019190915260029093015460ff8082161515604085015261010090910416151560609092019190915291835292019101612953565b50505050815260200160068201805480602002602001604051908101604052809291908181526020016000905b82821015612b4d57838290600052602060002090600202016040518060400160405290816000820154815260200160018201805480602002602001604051908101604052809291908181526020016000905b82821015612b365760008481526020902060408051808201909152600484029091018054829060ff166005811115612a9957612a99614b6b565b6005811115612aaa57612aaa614b6b565b81526040805160808101909152600183018054602090930192829060ff166005811115612ad957612ad9614b6b565b6005811115612aea57612aea614b6b565b815260018281015460208084019190915260029093015460ff80821615156040850152610100909104161515606090920191909152919092529284529390910192919091019050612a5f565b505050508152505081526020019060010190612a0d565b50505050815260200160078201805480602002602001604051908101604052809291908181526020016000905b82821015612cba57838290600052602060002090600202016040518060400160405290816000820154815260200160018201805480602002602001604051908101604052809291908181526020016000905b82821015612ca35760008481526020902060408051808201909152600484029091018054829060ff166005811115612c0657612c06614b6b565b6005811115612c1757612c17614b6b565b81526040805160808101909152600183018054602090930192829060ff166005811115612c4657612c46614b6b565b6005811115612c5757612c57614b6b565b815260018281015460208084019190915260029093015460ff80821615156040850152610100909104161515606090920191909152919092529284529390910192919091019050612bcc565b505050508152505081526020019060010190612b7a565b50505050815260200160088201805480602002602001604051908101604052809291908181526020018280548015612d1157602002820191906000526020600020905b815481526020019060010190808311612cfd575b5050505050815260200160098201805480602002602001604051908101604052809291908181526020018280548015612d6957602002820191906000526020600020905b815481526020019060010190808311612d55575b505050919092525050509052508051909150612db65760405162461bcd60e51b815260206004820152600c60248201526b556e6b6e6f776e2052756c6560a01b6044820152606401610bff565b60005b60208083015101515151811015612ed65785826020015160200151600001518281518110612de957612de961556e565b602002602001015103612ece57846005811115612e0857612e08614b6b565b826020015160200151602001518281518110612e2657612e2661556e565b60200260200101516005811115612e3f57612e3f614b6b565b14612e7d5760405162461bcd60e51b815260206004820152600e60248201526d496e636f7272656374207479706560901b6044820152606401610bff565b816020015160200151604001518181518110612e9b57612e9b61556e565b602002602001015192508160200151600001518681518110612ebf57612ebf61556e565b60200260200101519350612ed6565b600101612db9565b5050935093915050565b600080612ef7858560400151866080015186610420565b8451604051631f98e0ab60e21b81529192503091637e6382ac91612f2291899190869060040161551c565b6020604051808303816000875af1158015612f41573d6000803e3d6000fd5b505050506040513d601f19601f820116820180604052508101906123129190615551565b60008681526001602052604081205460609060ff161561313d5760036000600160008b81526020019081526020016000206001016000018888604051612fac92919061569a565b908152604080516020928190038301902054835290820192909252016000205460ff161561313d5760036000600160008b8152602001908152602001600020600101600001888860405161300192919061569a565b9081526020016040518091039020548152602001908152602001600020600101805490506001600160401b0381111561303c5761303c6142bd565b604051908082528060200260200182016040528015613065578160200160208202803683370190505b50905060005b815181101561313b5760036000600160008c815260200190815260200160002060010160000189896040516130a192919061569a565b908152602001604051809103902054815260200190815260200160002060010181815481106130d2576130d261556e565b90600052602060002090602091828204019190069054906101000a900460ff168282815181106131045761310461556e565b6020026020010190600581111561311d5761311d614b6b565b9081600581111561313057613130614b6b565b90525060010161306b565b505b600061314b8486018661675c565b90506000600160008b8152602001908152602001600020600101600101888860405161317892919061569a565b908152604051908190036020019020546001600160401b0381111561319f5761319f6142bd565b6040519080825280602002602001820160405280156131d857816020015b6131c5614228565b8152602001906001900390816131bd5790505b50905060005b8151811015613a045760008b81526001602052604080822090516002929183019061320c908d908d9061569a565b9081526020016040518091039020838154811061322b5761322b61556e565b6000918252602080832090910154835282019290925260400190205460ff16156139fc5760008b815260016020526040808220905160029291830190613274908d908d9061569a565b908152602001604051809103902083815481106132935761329361556e565b90600052602060002001548152602001908152602001600020600101604051806101000160405290816000820180548060200260200160405190810160405280929190818152602001828054801561330a57602002820191906000526020600020905b8154815260200190600101908083116132f6575b50505050508152602001600182016040518060600160405290816000820180548060200260200160405190810160405280929190818152602001828054801561337257602002820191906000526020600020905b81548152602001906001019080831161335e575b50505050508152602001600182018054806020026020016040519081016040528092919081815260200182805480156133fa57602002820191906000526020600020906000905b82829054906101000a900460ff1660058111156133d8576133d8614b6b565b8152602060019283018181049485019490930390920291018084116133b95790505b5050505050815260200160028201805480602002602001604051908101604052809291908181526020016000905b828210156134d4578382906000526020600020018054613447906155b3565b80601f0160208091040260200160405190810160405280929190818152602001828054613473906155b3565b80156134c05780601f10613495576101008083540402835291602001916134c0565b820191906000526020600020905b8154815290600101906020018083116134a357829003601f168201915b505050505081526020019060010190613428565b5050505081525050815260200160048201805480602002602001604051908101604052809291908181526020016000905b82821015613592576000848152602090206040805160808101909152600384029091018054829060ff16600581111561354057613540614b6b565b600581111561355157613551614b6b565b815260018281015460208084019190915260029093015460ff8082161515604085015261010090910416151560609092019190915291835292019101613505565b50505050815260200160058201805480602002602001604051908101604052809291908181526020016000905b8282101561364c576000848152602090206040805160808101909152600384029091018054829060ff1660058111156135fa576135fa614b6b565b600581111561360b5761360b614b6b565b815260018281015460208084019190915260029093015460ff80821615156040850152610100909104161515606090920191909152918352920191016135bf565b50505050815260200160068201805480602002602001604051908101604052809291908181526020016000905b828210156137b957838290600052602060002090600202016040518060400160405290816000820154815260200160018201805480602002602001604051908101604052809291908181526020016000905b828210156137a25760008481526020902060408051808201909152600484029091018054829060ff16600581111561370557613705614b6b565b600581111561371657613716614b6b565b81526040805160808101909152600183018054602090930192829060ff16600581111561374557613745614b6b565b600581111561375657613756614b6b565b815260018281015460208084019190915260029093015460ff808216151560408501526101009091041615156060909201919091529190925292845293909101929190910190506136cb565b505050508152505081526020019060010190613679565b50505050815260200160078201805480602002602001604051908101604052809291908181526020016000905b8282101561392657838290600052602060002090600202016040518060400160405290816000820154815260200160018201805480602002602001604051908101604052809291908181526020016000905b8282101561390f5760008481526020902060408051808201909152600484029091018054829060ff16600581111561387257613872614b6b565b600581111561388357613883614b6b565b81526040805160808101909152600183018054602090930192829060ff1660058111156138b2576138b2614b6b565b60058111156138c3576138c3614b6b565b815260018281015460208084019190915260029093015460ff80821615156040850152610100909104161515606090920191909152919092529284529390910192919091019050613838565b5050505081525050815260200190600101906137e6565b5050505081526020016008820180548060200260200160405190810160405280929190818152602001828054801561397d57602002820191906000526020600020905b815481526020019060010190808311613969575b50505050508152602001600982018054806020026020016040519081016040528092919081815260200182805480156139d557602002820191906000526020600020905b8154815260200190600101908083116139c1575b5050505050815250508282815181106139f0576139f061556e565b60200260200101819052505b6001016131de565b50613a108a8284610e80565b9a9950505050505050505050565b613a266141bc565b6000808360200151516001600160401b03811115613a4657613a466142bd565b604051908082528060200260200182016040528015613a6f578160200160208202803683370190505b50905060008460200151516001600160401b03811115613a9157613a916142bd565b604051908082528060200260200182016040528015613ac457816020015b6060815260200190600190039081613aaf5790505b50905060008560200151516001600160401b03811115613ae657613ae66142bd565b604051908082528060200260200182016040528015613b0f578160200160208202803683370190505b50905060005b8751811015613cc7578860200151888281518110613b3557613b3561556e565b60200260200101516000015103613cbf5760005b888281518110613b5b57613b5b61556e565b60200260200101516020015151811015613cbd576000898381518110613b8357613b8361556e565b6020026020010151602001518281518110613ba057613ba061556e565b6020026020010151600001519050600089602001518b8581518110613bc757613bc761556e565b6020026020010151602001518481518110613be457613be461556e565b6020026020010151602001516020015181518110613c0457613c0461556e565b6020026020010151905081858481518110613c2157613c2161556e565b60200260200101906005811115613c3a57613c3a614b6b565b90816005811115613c4d57613c4d614b6b565b8152505080868481518110613c6457613c6461556e565b60209081029190910101526001826005811115613c8357613c83614b6b565b03613cb3578051878981518110613c9c57613c9c61556e565b6020908102919091010152613cb08861559a565b97505b5050600101613b49565b505b600101613b15565b506000613cda82848b6040015187613e7f565b90506000808a600001516001600160a01b031683604051613cfb9190616790565b6000604051808303816000865af19150503d8060008114613d38576040519150601f19603f3d011682016040523d82523d6000602084013e613d3d565b606091505b50915091508115613e1d5760038b606001516005811115613d6057613d60614b6b565b03613d84578760035b90816005811115613d7c57613d7c614b6b565b905250613e15565b60028b606001516005811115613d9c57613d9c614b6b565b03613da957876002613d69565b60018b606001516005811115613dc157613dc1614b6b565b03613dce57876001613d69565b60008b606001516005811115613de657613de6614b6b565b03613df357876000613d69565b60048b606001516005811115613e0b57613e0b614b6b565b03613e1557600488525b602088018190525b505050505050509392505050565b8060405162461bcd60e51b8152600401610bff91906159e7565b7f52894df7fe00b6fc7efac33cdc922cb2330fae87180401745d00a7a53ad30df981604051613e7491906159e7565b60405180910390a150565b60608351855114613e9257613e926167a2565b845182511115613ea457613ea46167a2565b600085516020613eb49190615b2c565b9050600083516020613ec69190615b2c565b905060005b8451811015613f25576020858281518110613ee857613ee861556e565b6020026020010151601f613efc9190615966565b613f069190615b43565b613f11906020615b2c565b613f1b9083615966565b9150600101613ecb565b5080820160040160405193508084528560208501528060200184016040525060048083016000805b8a51811015614034576020810260208c0101516020820260208c0101518160008114613f885760018114613fa2576002811461401557614022565b6001600160a01b036020830151168760208c010152614022565b600486038760208c0101526020840260208e0101516040810151808860208e0101526060820191506020880160208d01016020601f830104915060005b82811015613ffb57602081028481015190830152600101613fdf565b505060208102602001880197505050600185019450614022565b60208201518760208c0101525b50505060209390930192600101613f4d565b505050505050949350505050565b50805461404e906155b3565b6000825580601f1061405e575050565b601f01602090049060005260206000209081019061407c919061428f565b50565b508054600082559060005260206000209081019061407c919061428f565b6040805160a0810182526000808252602082018190529181018290529060608201905b8152602001606081525090565b82805482825590600052602060002090601f016020900481019282156141715791602002820160005b8382111561414257835183826101000a81548160ff0219169083600581111561412157614121614b6b565b021790555092602001926001016020816000010492830192600103026140f6565b801561416f5782816101000a81549060ff0219169055600101602081600001049283019260010302614142565b505b5061417d92915061428f565b5090565b828054828255906000526020600020908101928215614171579160200282015b828111156141715782358255916020019190600101906141a1565b604080518082019091528060006140c0565b6040518061080001604052806040906020820280368337509192915050565b828054828255906000526020600020908101928215614171579160200282015b8281111561417157825182559160200191906001019061420d565b6040518061010001604052806060815260200161425f60405180606001604052806060815260200160608152602001606081525090565b81526020016060815260200160608152602001606081526020016060815260200160608152602001606081525090565b5b8082111561417d5760008155600101614290565b6000602082840312156142b657600080fd5b5035919050565b634e487b7160e01b600052604160045260246000fd5b604080519081016001600160401b03811182821017156142f5576142f56142bd565b60405290565b60405161010081016001600160401b03811182821017156142f5576142f56142bd565b604051601f8201601f191681016001600160401b0381118282101715614346576143466142bd565b604052919050565b60006001600160401b03821115614367576143676142bd565b5060051b60200190565b600082601f83011261438257600080fd5b81356143956143908261434e565b61431e565b8082825260208201915060208360051b8601019250858311156143b757600080fd5b602085015b83811015611c9a5780358352602092830192016143bc565b6006811061407c57600080fd5b600082601f8301126143f257600080fd5b81356144006143908261434e565b8082825260208201915060208360051b86010192508583111561442257600080fd5b602085015b83811015611c9a57803561443a816143d4565b835260209283019201614427565b60006001600160401b03821115614461576144616142bd565b50601f01601f191660200190565b600082601f83011261448057600080fd5b813560208301600061449461439084614448565b90508281528583830111156144a857600080fd5b82826020830137600092810160200192909252509392505050565b600082601f8301126144d457600080fd5b81356144e26143908261434e565b8082825260208201915060208360051b86010192508583111561450457600080fd5b602085015b83811015611c9a5780356001600160401b0381111561452757600080fd5b614536886020838a010161446f565b84525060209283019201614509565b60006060828403121561455757600080fd5b604051606081016001600160401b0381118282101715614579576145796142bd565b60405290508082356001600160401b0381111561459557600080fd5b6145a185828601614371565b82525060208301356001600160401b038111156145bd57600080fd5b6145c9858286016143e1565b60208301525060408301356001600160401b038111156145e857600080fd5b6145f4858286016144c3565b6040830152505092915050565b801515811461407c57600080fd5b60006080828403121561462157600080fd5b604051608081016001600160401b0381118282101715614643576146436142bd565b6040529050808235614654816143d4565b815260208381013590820152604083013561466e81614601565b6040820152606083013561468181614601565b6060919091015292915050565b600082601f83011261469f57600080fd5b81356146ad6143908261434e565b8082825260208201915060208360071b8601019250858311156146cf57600080fd5b602085015b83811015611c9a576146e6878261460f565b83526020909201916080016146d4565b600082601f83011261470757600080fd5b81356147156143908261434e565b8082825260208201915060208360051b86010192508583111561473757600080fd5b602085015b83811015611c9a5780356001600160401b0381111561475a57600080fd5b86016040818903601f1901121561477057600080fd5b6147786142d3565b6020820135815260408201356001600160401b0381111561479857600080fd5b60208184010192505088601f8301126147b057600080fd5b81356147be6143908261434e565b80828252602082019150602060a0840286010192508b8311156147e057600080fd5b6020850194505b8285101561483b5760a0858d0312156147ff57600080fd5b6148076142d3565b8535614812816143d4565b81526148218d6020880161460f565b60208201528083525060208201915060a0850194506147e7565b806020850152505050808552505060208301925060208101905061473c565b6000610100828403121561486d57600080fd5b6148756142fb565b905081356001600160401b0381111561488d57600080fd5b61489984828501614371565b82525060208201356001600160401b038111156148b557600080fd5b6148c184828501614545565b60208301525060408201356001600160401b038111156148e057600080fd5b6148ec8482850161468e565b60408301525060608201356001600160401b0381111561490b57600080fd5b6149178482850161468e565b60608301525060808201356001600160401b0381111561493657600080fd5b614942848285016146f6565b60808301525060a08201356001600160401b0381111561496157600080fd5b61496d848285016146f6565b60a08301525060c08201356001600160401b0381111561498c57600080fd5b61499884828501614371565b60c08301525060e08201356001600160401b038111156149b757600080fd5b6149c384828501614371565b60e08301525092915050565b6000604082840312156149e157600080fd5b6149e96142d3565b905081356001600160401b03811115614a0157600080fd5b614a0d848285016143e1565b82525060208201356001600160401b03811115614a2957600080fd5b614a35848285016144c3565b60208301525092915050565b60008060008060808587031215614a5757600080fd5b8435935060208501356001600160401b03811115614a7457600080fd5b614a808782880161485a565b93505060408501356001600160401b03811115614a9c57600080fd5b614aa8878288016149cf565b92505060608501356001600160401b03811115614ac457600080fd5b614ad087828801614371565b91505092959194509250565b60008060008060808587031215614af257600080fd5b8435935060208501356001600160401b03811115614b0f57600080fd5b614b1b8782880161468e565b93505060408501356001600160401b03811115614b3757600080fd5b614b43878288016146f6565b92505060608501356001600160401b03811115614b5f57600080fd5b614ad0878288016149cf565b634e487b7160e01b600052602160045260246000fd5b60068110614b9157614b91614b6b565b9052565b600081518084526020840193506020830160005b82811015614bcf57614bbc868351614b81565b6020958601959190910190600101614ba9565b5093949350505050565b60005b83811015614bf4578181015183820152602001614bdc565b50506000910152565b60008151808452614c15816020860160208601614bd9565b601f01601f19169290920160200192915050565b600082825180855260208501945060208160051b8301016020850160005b8381101561091657601f19858403018852614c63838351614bfd565b6020988901989093509190910190600101614c47565b6000815160408452614c8e6040850182614b95565b9050602083015184820360208601526123128282614c29565b602081526000614cba6020830184614c79565b9392505050565b6001600160a01b038116811461407c57600080fd5b600080600080600060a08688031215614cee57600080fd5b853594506020860135614d0081614cc1565b935060408601356001600160401b03811115614d1b57600080fd5b614d278882890161446f565b9350506060860135614d38816143d4565b915060808601356001600160401b03811115614d5357600080fd5b614d5f888289016143e1565b9150509295509295909350565b6020815260018060a01b0382511660208201526020820151604082015263ffffffff60e01b604083015116606082015260006060830151614db06080840182614b81565b50608083015160a080840152614dc960c0840182614b95565b949350505050565b60008060408385031215614de457600080fd5b50508035926020909101359150565b602081528151602082015260006020830151604080840152614dc96060840182614bfd565b60008083601f840112614e2a57600080fd5b5081356001600160401b03811115614e4157600080fd5b6020830191508360208260051b8501011115614e5c57600080fd5b9250929050565b60008060008060008060006080888a031215614e7e57600080fd5b8735965060208801356001600160401b03811115614e9b57600080fd5b614ea78a828b01614e18565b90975095505060408801356001600160401b03811115614ec657600080fd5b614ed28a828b01614e18565b90955093505060608801356001600160401b03811115614ef157600080fd5b614efd8a828b01614e18565b989b979a50959850939692959293505050565b600080600060608486031215614f2557600080fd5b8335925060208401356001600160401b03811115614f4257600080fd5b8401601f81018613614f5357600080fd5b8035614f616143908261434e565b8082825260208201915060208360051b850101925088831115614f8357600080fd5b602084015b83811015614fc45780356001600160401b03811115614fa657600080fd5b614fb58b60208389010161485a565b84525060209283019201614f88565b50945050505060408401356001600160401b03811115614fe357600080fd5b614fef868287016149cf565b9150509250925092565b615004828251614b81565b6000602082015160406020850152614dc96040850182614bfd565b602081526000614cba6020830184614ff9565b60006040828403121561504457600080fd5b50919050565b6000806000806060858703121561506057600080fd5b8435935060208501356001600160401b0381111561507d57600080fd5b61508987828801614e18565b90945092505060408501356001600160401b038111156150a857600080fd5b614ad087828801615032565b6000602082840312156150c657600080fd5b8135614cba81614601565b60008083601f8401126150e357600080fd5b5081356001600160401b038111156150fa57600080fd5b602083019150836020828501011115614e5c57600080fd5b60008060008060006060868803121561512a57600080fd5b853561513581614cc1565b945060208601356001600160401b0381111561515057600080fd5b61515c888289016150d1565b90955093505060408601356001600160401b0381111561517b57600080fd5b615187888289016150d1565b969995985093965092949392505050565b6000806000604084860312156151ad57600080fd5b83356151b881614cc1565b925060208401356001600160401b038111156151d357600080fd5b6151df86828701614e18565b9497909650939450505050565b60008060008060008060c0878903121561520557600080fd5b8635955060208701359450604087013561521e81614cc1565b935060608701356001600160401b0381111561523957600080fd5b61524589828a0161446f565b935050608087013561525681614601565b915060a08701356001600160401b0381111561527157600080fd5b61527d89828a0161446f565b9150509295509295509295565b60006020828403121561529c57600080fd5b81356001600160401b038111156152b257600080fd5b820160808185031215614cba57600080fd5b6000806000606084860312156152d957600080fd5b8335925060208401356001600160e01b0319811681146152f857600080fd5b915060408401356001600160401b0381111561531357600080fd5b614fef868287016143e1565b600080600080600060a0868803121561533757600080fd5b8535945060208601356001600160401b0381111561535457600080fd5b6153608882890161468e565b94505060408601356001600160401b0381111561537c57600080fd5b615388888289016146f6565b93505060608601356001600160401b038111156153a457600080fd5b6153b0888289016149cf565b95989497509295608001359392505050565b6000806000806000608086880312156153da57600080fd5b8535945060208601356001600160401b038111156153f757600080fd5b61540388828901614e18565b90955093505060408601356001600160401b0381111561542257600080fd5b61542e8882890161485a565b92505060608601356001600160401b0381111561544a57600080fd5b614d5f888289016149cf565b6000806040838503121561546957600080fd5b8235915060208301356001600160401b0381111561548657600080fd5b8301610100818603121561549957600080fd5b809150509250929050565b600080604083850312156154b757600080fd5b8235915060208301356001600160401b038111156154d457600080fd5b6154e085828601615032565b9150509250929050565b600081518084526020840193506020830160005b82811015614bcf5781518652602095860195909101906001016154fe565b83815260606020820152600061553560608301856154ea565b82810360408401526155478185614c79565b9695505050505050565b60006020828403121561556357600080fd5b8151614cba81614601565b634e487b7160e01b600052603260045260246000fd5b634e487b7160e01b600052601160045260246000fd5b6000600182016155ac576155ac615584565b5060010190565b600181811c908216806155c757607f821691505b60208210810361504457634e487b7160e01b600052602260045260246000fd5b6000602082840312156155f957600080fd5b81516001600160401b0381111561560f57600080fd5b8201601f8101841361562057600080fd5b805161562e61439082614448565b81815285602083850101111561564357600080fd5b612312826020830160208601614bd9565b6000808335601e1984360301811261566b57600080fd5b8301803591506001600160401b0382111561568557600080fd5b602001915036819003821315614e5c57600080fd5b8183823760009101908152919050565b6000808335601e198436030181126156c157600080fd5b8301803591506001600160401b038211156156db57600080fd5b6020019150600581901b3603821315614e5c57600080fd5b600081516060845261570860608501826154ea565b9050602083015184820360208601526157218282614b95565b915050604083015184820360408601526123128282614c29565b615746828251614b81565b602081015160208301526040810151151560408301526060810151151560608301525050565b600081518084526020840193506020830160005b82811015614bcf5761579386835161573b565b6080959095019460209190910190600101615780565b600082825180855260208501945060208160051b8301016020850160005b8381101561091657848303601f190188528151805184526020908101516040828601819052815190860181905291019060009060608601905b80831015615841578351615815838251614b81565b60208101519050615829602084018261573b565b5060a082019150602084019350600183019250615800565b5060209a8b019a909550939093019250506001016157c7565b84815260806020820152600061587360808301866154ea565b8281036040840152845161010082526158906101008301826154ea565b9050602086015182820360208401526158a982826156f3565b915050604086015182820360408401526158c3828261576c565b915050606086015182820360608401526158dd828261576c565b915050608086015182820360808401526158f782826157a9565b91505060a086015182820360a084015261591182826157a9565b91505060c086015182820360c084015261592b82826154ea565b91505060e086015182820360e084015261594582826154ea565b92505050828103606084015261595b8185614c79565b979650505050505050565b8082018082111561128457611284615584565b60006020828403121561598b57600080fd5b8135614cba816143d4565b6000602082840312156159a857600080fd5b8135614cba81614cc1565b6000602082840312156159c557600080fd5b81356001600160401b038111156159db57600080fd5b614dc98482850161446f565b602081526000614cba6020830184614bfd565b5b81811015615a0f57600081556001016159fb565b5050565b601f82111561038657806000526020600020601f840160051c81016020851015615a3a5750805b610419601f850160051c8301826159fa565b600019600383901b1c191660019190911b1790565b81516001600160401b03811115615a7a57615a7a6142bd565b615a8e81615a8884546155b3565b84615a13565b6020601f821160018114615abc5760008315615aaa5750848201515b615ab48482615a4c565b855550610419565b600084815260208120601f198516915b82811015615aec5787850151825560209485019460019092019101615acc565b5084821015615b0a5786840151600019600387901b60f8161c191681555b50505050600190811b01905550565b8181038181111561128457611284615584565b808202811582820484141761128457611284615584565b600082615b6057634e487b7160e01b600052601260045260246000fd5b500490565b6001600160401b03831115615b7c57615b7c6142bd565b600160401b831115615b9057615b906142bd565b805483825580841015615bb657816000526020600020615bb48282018683016159fa565b505b508181600052602060002060005b8581101561041757823582820155602090920191600101615bc4565b8135815560018101602083013560038110801590615bfd57600080fd5b50815460ff191660ff9190911617905560028101615c1e6040840184615654565b6001600160401b03811115615c3557615c356142bd565b615c4981615c4385546155b3565b85615a13565b6000601f821160018114615c775760008315615c655750838201355b615c6f8482615a4c565b865550615cd0565b600085815260208120601f198516915b82811015615ca75786850135825560209485019460019092019101615c87565b5084821015615cc45760001960f88660031b161c19848701351681555b505060018360011b0185555b5050505050615ce260608301836156aa565b611d7f818360038601615b65565b600060208284031215615d0257600080fd5b8151614cba81614cc1565b60008235605e19833603018112615d2357600080fd5b9190910192915050565b600160401b821115615d4157615d416142bd565b80548282558083101561038657816000526020600020601f840160051c8101601f85168015615d8157600019820180546000198360200360031b1c168155505b50610419601f840160051c8301826159fa565b60008135611284816143d4565b6001600160401b03831115615db857615db86142bd565b615dc28382615d2d565b60008181526020902082908460051c60005b81811015615e2a576000805b6020811015615e1d57615e0c615df587615d94565b60ff908116600384901b90811b91901b1984161790565b602096909601959150600101615de0565b5083820155600101615dd4565b50601f198616808703818814615e69576000805b82811015615e6357615e52615df588615d94565b602097909701969150600101615e3e565b50848401555b5050505050505050565b6001600160401b03831115615e8a57615e8a6142bd565b615e9e83615e9883546155b3565b83615a13565b6000601f841160018114615ecc5760008515615eba5750838201355b615ec48682615a4c565b845550610419565b600083815260209020601f19861690835b82811015615efd5786850135825560209485019460019092019101615edd565b5086821015615f1a5760001960f88860031b161c19848701351681555b505060018560011b0183555050505050565b600160401b831115615f4057615f406142bd565b805483825580841015615fc8576000828152602090208481019082015b80821015615fc557615f6f82546155b3565b8015615fb957601f811160018114615f8a5760008455615fb7565b600084815260209020615fa8601f840160051c8201600183016159fa565b50600084815260208120818655555b505b50600182019150615f5d565b50505b5060008181526020812083915b8581101561041757615fe78386615654565b615ff2818386615e73565b50506020929092019160019182019101615fd5565b61601182836156aa565b6001600160401b03811115616028576160286142bd565b600160401b81111561603c5761603c6142bd565b825481845580821015616062578360005260206000206160608282018483016159fa565b505b5082600052602060002060005b8281101561608b5783358282015560209093019260010161606f565b5050505061609c60208301836156aa565b6160aa818360018601615da1565b50506160b960408301836156aa565b611d7f818360028601615f2c565b6000808335601e198436030181126160de57600080fd5b8301803591506001600160401b038211156160f857600080fd5b6020019150600781901b3603821315614e5c57600080fd5b6006821061612057616120614b6b565b60ff1981541660ff831681178255505050565b813561613e816143d4565b6161488183616110565b506020820135600182015560028101604083013561616581614601565b8154606085013561617581614601565b61ff0081151560081b1660ff8415151661ffff19841617178455505050505050565b600160401b8311156161ab576161ab6142bd565b80548382558084101561621757806003026003810482146161ce576161ce615584565b846003026003810486146161e4576161e4615584565b60008481526020902091820191015b818110156162145760008082556001820181905560028201556003016161f3565b50505b5060008181526020812083915b85811015610417576162368383616133565b6080929092019160039190910190600101616224565b60008235603e19833603018112615d2357600080fd5b60008154600083558015610386576001600160fe1b038116811461628857616288615584565b60009150828252602082208160021b81015b80821015610419578382556162c16001830160008155600060018201556000600282015550565b60048201915061629a565b600160401b8211156162e0576162e06142bd565b805482825580831015610386576001600160fe1b038116811461630557616305615584565b6001600160fe1b038316831461631d5761631d615584565b8160005260206000208160021b81018460021b820191505b80821015610419576000825561635d6001830160008155600060018201556000600282015550565b600482019150616335565b8135815560018101602083013536849003601e1901811261638857600080fd5b830180356001600160401b038111156163a057600080fd5b60208201915060a0810236038213156163b857600080fd5b6163c281846162cc565b600092835260208320925b818110156104175782356163e0816143d4565b6163ea8186616110565b5060208301356163f9816143d4565b6164068160018701616110565b506040830135600285015560038401606084013561642381614601565b8154608086013561643381614601565b61ffff199190911691151560ff169190911790151560081b61ff00161790556004939093019260a092909201916001016163cd565b600160401b83111561647c5761647c6142bd565b8054838255808410156164f7576001600160ff1b03811681146164a1576164a1615584565b6001600160ff1b03841684146164b9576164b9615584565b8160005260206000208160011b81018560011b820191505b808210156164f457600082556164e960018301616262565b6002820191506164d1565b50505b5060008181526020812083915b858110156104175761651f616519848761624c565b83616368565b6020929092019160029190910190600101616504565b61653f82836156aa565b6001600160401b03811115616556576165566142bd565b600160401b81111561656a5761656a6142bd565b8254818455808210156165905783600052602060002061658e8282018483016159fa565b505b5082600052602060002060005b828110156165b95783358282015560209093019260010161659d565b505050506165d66165cd6020840184615d0d565b60018301616007565b6165e360408301836160c7565b6165f1818360048601616197565b505061660060608301836160c7565b61660e818360058601616197565b505061661d60808301836156aa565b61662b818360068601616468565b505061663a60a08301836156aa565b616648818360078601616468565b505061665760c08301836156aa565b616665818360088601615b65565b505061667460e08301836156aa565b611d7f818360098601615b65565b813561668d816143d4565b6166978183616110565b50600181016166a96020840184615654565b6001600160401b038111156166c0576166c06142bd565b6166ce81615c4385546155b3565b6000601f8211600181146166fc57600083156166ea5750838201355b6166f48482615a4c565b865550612045565b600085815260209020601f19841690835b8281101561672d578685013582556020948501946001909201910161670d565b508482101561674a5760001960f88660031b161c19848701351681555b50505050600190811b01909155505050565b60006020828403121561676e57600080fd5b81356001600160401b0381111561678457600080fd5b614dc9848285016149cf565b60008251615d23818460208701614bd9565b634e487b7160e01b600052600160045260246000fdfea2646970667358221220b09beb89b655aa5255c29db3fb41220ab0c0ea41fa6eac4d84d00abd24c8652f64736f6c634300081b0033","opcodes":"PUSH1 0x80 PUSH1 0x40 MSTORE CALLVALUE DUP1 ISZERO PUSH1 0xF JUMPI PUSH1 0x0 DUP1 REVERT JUMPDEST POP PUSH2 0x67EE DUP1 PUSH2 0x1F PUSH1 0x0 CODECOPY PUSH1 0x0 RETURN INVALID PUSH1 0x80 PUSH1 0x40 MSTORE CALLVALUE DUP1 ISZERO PUSH2 0x10 JUMPI PUSH1 0x0 DUP1 REVERT JUMPDEST POP PUSH1 0x4 CALLDATASIZE LT PUSH2 0x137 JUMPI PUSH1 0x0 CALLDATALOAD PUSH1 0xE0 SHR DUP1 PUSH4 0x8085367B GT PUSH2 0xB8 JUMPI DUP1 PUSH4 0xA5BCF7F2 GT PUSH2 0x7C JUMPI DUP1 PUSH4 0xA5BCF7F2 EQ PUSH2 0x2B7 JUMPI DUP1 PUSH4 0xA6E481D3 EQ PUSH2 0x2CA JUMPI DUP1 PUSH4 0xC80388A2 EQ PUSH2 0x2DD JUMPI DUP1 PUSH4 0xDF11708C EQ PUSH2 0x314 JUMPI DUP1 PUSH4 0xE21EAA18 EQ PUSH2 0x327 JUMPI DUP1 PUSH4 0xF7A48117 EQ PUSH2 0x33A JUMPI PUSH1 0x0 DUP1 REVERT JUMPDEST DUP1 PUSH4 0x8085367B EQ PUSH2 0x258 JUMPI DUP1 PUSH4 0x86FF45AD EQ PUSH2 0x26B JUMPI DUP1 PUSH4 0x9228303F EQ PUSH2 0x27E JUMPI DUP1 PUSH4 0x9C7A08E6 EQ PUSH2 0x291 JUMPI DUP1 PUSH4 0xA16CA3D5 EQ PUSH2 0x2A4 JUMPI PUSH1 0x0 DUP1 REVERT JUMPDEST DUP1 PUSH4 0x5FCAA1C9 GT PUSH2 0xFF JUMPI DUP1 PUSH4 0x5FCAA1C9 EQ PUSH2 0x1CD JUMPI DUP1 PUSH4 0x6AF870C6 EQ PUSH2 0x1F1 JUMPI DUP1 PUSH4 0x6ECFDF67 EQ PUSH2 0x212 JUMPI DUP1 PUSH4 0x72A340D7 EQ PUSH2 0x225 JUMPI DUP1 PUSH4 0x7E6382AC EQ PUSH2 0x245 JUMPI PUSH1 0x0 DUP1 REVERT JUMPDEST DUP1 PUSH4 0xD6B001B EQ PUSH2 0x13C JUMPI DUP1 PUSH4 0x11AD2153 EQ PUSH2 0x151 JUMPI DUP1 PUSH4 0x2F71833B EQ PUSH2 0x164 JUMPI DUP1 PUSH4 0x3BBAA76C EQ PUSH2 0x18D JUMPI DUP1 PUSH4 0x4E9F6125 EQ PUSH2 0x1AD JUMPI JUMPDEST PUSH1 0x0 DUP1 REVERT JUMPDEST PUSH2 0x14F PUSH2 0x14A CALLDATASIZE PUSH1 0x4 PUSH2 0x42A4 JUMP JUMPDEST PUSH2 0x34D JUMP JUMPDEST STOP JUMPDEST PUSH2 0x14F PUSH2 0x15F CALLDATASIZE PUSH1 0x4 PUSH2 0x4A41 JUMP JUMPDEST PUSH2 0x38B JUMP JUMPDEST PUSH2 0x177 PUSH2 0x172 CALLDATASIZE PUSH1 0x4 PUSH2 0x4ADC JUMP JUMPDEST PUSH2 0x420 JUMP JUMPDEST PUSH1 0x40 MLOAD PUSH2 0x184 SWAP2 SWAP1 PUSH2 0x4CA7 JUMP JUMPDEST PUSH1 0x40 MLOAD DUP1 SWAP2 SUB SWAP1 RETURN JUMPDEST PUSH2 0x1A0 PUSH2 0x19B CALLDATASIZE PUSH1 0x4 PUSH2 0x4CD6 JUMP JUMPDEST PUSH2 0x922 JUMP JUMPDEST PUSH1 0x40 MLOAD PUSH2 0x184 SWAP2 SWAP1 PUSH2 0x4D6C JUMP JUMPDEST PUSH2 0x1C0 PUSH2 0x1BB CALLDATASIZE PUSH1 0x4 PUSH2 0x4DD1 JUMP JUMPDEST PUSH2 0xB35 JUMP JUMPDEST PUSH1 0x40 MLOAD PUSH2 0x184 SWAP2 SWAP1 PUSH2 0x4DF3 JUMP JUMPDEST PUSH2 0x1E1 PUSH2 0x1DB CALLDATASIZE PUSH1 0x4 PUSH2 0x42A4 JUMP JUMPDEST PUSH1 0x1 EQ SWAP1 JUMP JUMPDEST PUSH1 0x40 MLOAD SWAP1 ISZERO ISZERO DUP2 MSTORE PUSH1 0x20 ADD PUSH2 0x184 JUMP JUMPDEST PUSH2 0x204 PUSH2 0x1FF CALLDATASIZE PUSH1 0x4 PUSH2 0x4E63 JUMP JUMPDEST PUSH2 0xB7F JUMP JUMPDEST PUSH1 0x40 MLOAD SWAP1 DUP2 MSTORE PUSH1 0x20 ADD PUSH2 0x184 JUMP JUMPDEST PUSH2 0x1E1 PUSH2 0x220 CALLDATASIZE PUSH1 0x4 PUSH2 0x4F10 JUMP JUMPDEST PUSH2 0xE80 JUMP JUMPDEST PUSH2 0x238 PUSH2 0x233 CALLDATASIZE PUSH1 0x4 PUSH2 0x4DD1 JUMP JUMPDEST PUSH2 0x117D JUMP JUMPDEST PUSH1 0x40 MLOAD PUSH2 0x184 SWAP2 SWAP1 PUSH2 0x501F JUMP JUMPDEST PUSH2 0x1E1 PUSH2 0x253 CALLDATASIZE PUSH1 0x4 PUSH2 0x504A JUMP JUMPDEST PUSH2 0x128A JUMP JUMPDEST PUSH2 0x204 PUSH2 0x266 CALLDATASIZE PUSH1 0x4 PUSH2 0x50B4 JUMP JUMPDEST PUSH2 0x1C06 JUMP JUMPDEST PUSH2 0x204 PUSH2 0x279 CALLDATASIZE PUSH1 0x4 PUSH2 0x5112 JUMP JUMPDEST PUSH2 0x1C20 JUMP JUMPDEST PUSH2 0x14F PUSH2 0x28C CALLDATASIZE PUSH1 0x4 PUSH2 0x5198 JUMP JUMPDEST PUSH2 0x1CA4 JUMP JUMPDEST PUSH2 0x14F PUSH2 0x29F CALLDATASIZE PUSH1 0x4 PUSH2 0x51EC JUMP JUMPDEST PUSH2 0x1D85 JUMP JUMPDEST PUSH2 0x204 PUSH2 0x2B2 CALLDATASIZE PUSH1 0x4 PUSH2 0x528A JUMP JUMPDEST PUSH2 0x204E JUMP JUMPDEST PUSH2 0x204 PUSH2 0x2C5 CALLDATASIZE PUSH1 0x4 PUSH2 0x52C4 JUMP JUMPDEST PUSH2 0x20B9 JUMP JUMPDEST PUSH2 0x238 PUSH2 0x2D8 CALLDATASIZE PUSH1 0x4 PUSH2 0x531F JUMP JUMPDEST PUSH2 0x213E JUMP JUMPDEST PUSH2 0x2F0 PUSH2 0x2EB CALLDATASIZE PUSH1 0x4 PUSH2 0x4DD1 JUMP JUMPDEST PUSH2 0x231B JUMP JUMPDEST PUSH1 0x40 DUP1 MLOAD DUP3 MLOAD DUP2 MSTORE PUSH1 0x20 SWAP3 DUP4 ADD MLOAD PUSH1 0x1 PUSH1 0x1 PUSH1 0xA0 SHL SUB AND SWAP3 DUP2 ADD SWAP3 SWAP1 SWAP3 MSTORE ADD PUSH2 0x184 JUMP JUMPDEST PUSH2 0x14F PUSH2 0x322 CALLDATASIZE PUSH1 0x4 PUSH2 0x53C2 JUMP JUMPDEST PUSH2 0x236D JUMP JUMPDEST PUSH2 0x204 PUSH2 0x335 CALLDATASIZE PUSH1 0x4 PUSH2 0x5456 JUMP JUMPDEST PUSH2 0x2584 JUMP JUMPDEST PUSH2 0x14F PUSH2 0x348 CALLDATASIZE PUSH1 0x4 PUSH2 0x54A4 JUMP JUMPDEST PUSH2 0x25E2 JUMP JUMPDEST PUSH1 0x0 DUP2 DUP2 MSTORE PUSH1 0xC PUSH1 0x20 MSTORE PUSH1 0x40 DUP2 KECCAK256 DUP2 DUP2 SSTORE PUSH1 0x1 DUP2 ADD DUP1 SLOAD PUSH1 0xFF NOT AND SWAP1 SSTORE SWAP1 PUSH2 0x378 PUSH1 0x2 DUP4 ADD DUP3 PUSH2 0x4042 JUMP JUMPDEST PUSH2 0x386 PUSH1 0x3 DUP4 ADD PUSH1 0x0 PUSH2 0x407F JUMP JUMPDEST POP POP POP JUMP JUMPDEST PUSH1 0x0 PUSH2 0x3A1 DUP6 DUP6 PUSH1 0x60 ADD MLOAD DUP7 PUSH1 0xA0 ADD MLOAD DUP7 PUSH2 0x420 JUMP JUMPDEST SWAP1 POP PUSH1 0x1 DUP3 MLOAD GT ISZERO PUSH2 0x419 JUMPI PUSH1 0x40 MLOAD PUSH4 0x1F98E0AB PUSH1 0xE2 SHL DUP2 MSTORE ADDRESS SWAP1 PUSH4 0x7E6382AC SWAP1 PUSH2 0x3D4 SWAP1 DUP9 SWAP1 DUP7 SWAP1 DUP7 SWAP1 PUSH1 0x4 ADD PUSH2 0x551C JUMP JUMPDEST PUSH1 0x20 PUSH1 0x40 MLOAD DUP1 DUP4 SUB DUP2 PUSH1 0x0 DUP8 GAS CALL ISZERO DUP1 ISZERO PUSH2 0x3F3 JUMPI RETURNDATASIZE PUSH1 0x0 DUP1 RETURNDATACOPY RETURNDATASIZE PUSH1 0x0 REVERT JUMPDEST POP POP POP POP PUSH1 0x40 MLOAD RETURNDATASIZE PUSH1 0x1F NOT PUSH1 0x1F DUP3 ADD AND DUP3 ADD DUP1 PUSH1 0x40 MSTORE POP DUP2 ADD SWAP1 PUSH2 0x417 SWAP2 SWAP1 PUSH2 0x5551 JUMP JUMPDEST POP JUMPDEST POP POP POP POP POP JUMP JUMPDEST PUSH1 0x40 DUP1 MLOAD DUP1 DUP3 ADD SWAP1 SWAP2 MSTORE PUSH1 0x60 DUP1 DUP3 MSTORE PUSH1 0x20 DUP3 ADD MSTORE PUSH1 0x40 DUP1 MLOAD DUP1 DUP3 ADD SWAP1 SWAP2 MSTORE PUSH1 0x60 DUP1 DUP3 MSTORE PUSH1 0x20 DUP3 ADD MSTORE DUP5 MLOAD PUSH1 0x1 PUSH1 0x1 PUSH1 0x40 SHL SUB DUP2 GT ISZERO PUSH2 0x461 JUMPI PUSH2 0x461 PUSH2 0x42BD JUMP JUMPDEST PUSH1 0x40 MLOAD SWAP1 DUP1 DUP3 MSTORE DUP1 PUSH1 0x20 MUL PUSH1 0x20 ADD DUP3 ADD PUSH1 0x40 MSTORE DUP1 ISZERO PUSH2 0x48A JUMPI DUP2 PUSH1 0x20 ADD PUSH1 0x20 DUP3 MUL DUP1 CALLDATASIZE DUP4 CALLDATACOPY ADD SWAP1 POP JUMPDEST POP DUP2 MSTORE DUP5 MLOAD PUSH1 0x1 PUSH1 0x1 PUSH1 0x40 SHL SUB DUP2 GT ISZERO PUSH2 0x4A6 JUMPI PUSH2 0x4A6 PUSH2 0x42BD JUMP JUMPDEST PUSH1 0x40 MLOAD SWAP1 DUP1 DUP3 MSTORE DUP1 PUSH1 0x20 MUL PUSH1 0x20 ADD DUP3 ADD PUSH1 0x40 MSTORE DUP1 ISZERO PUSH2 0x4D9 JUMPI DUP2 PUSH1 0x20 ADD JUMPDEST PUSH1 0x60 DUP2 MSTORE PUSH1 0x20 ADD SWAP1 PUSH1 0x1 SWAP1 SUB SWAP1 DUP2 PUSH2 0x4C4 JUMPI SWAP1 POP JUMPDEST POP PUSH1 0x20 DUP3 ADD MSTORE PUSH1 0x0 DUP1 JUMPDEST DUP7 MLOAD DUP2 LT ISZERO PUSH2 0x916 JUMPI DUP7 DUP2 DUP2 MLOAD DUP2 LT PUSH2 0x4FE JUMPI PUSH2 0x4FE PUSH2 0x556E JUMP JUMPDEST PUSH1 0x20 MUL PUSH1 0x20 ADD ADD MLOAD PUSH1 0x60 ADD MLOAD ISZERO PUSH2 0x5A3 JUMPI PUSH1 0x0 PUSH2 0x51E DUP10 DUP10 DUP10 DUP10 DUP7 PUSH2 0x213E JUMP JUMPDEST SWAP1 POP DUP1 PUSH1 0x0 ADD MLOAD DUP5 PUSH1 0x0 ADD MLOAD DUP5 DUP2 MLOAD DUP2 LT PUSH2 0x53B JUMPI PUSH2 0x53B PUSH2 0x556E JUMP JUMPDEST PUSH1 0x20 MUL PUSH1 0x20 ADD ADD SWAP1 PUSH1 0x5 DUP2 GT ISZERO PUSH2 0x554 JUMPI PUSH2 0x554 PUSH2 0x4B6B JUMP JUMPDEST SWAP1 DUP2 PUSH1 0x5 DUP2 GT ISZERO PUSH2 0x567 JUMPI PUSH2 0x567 PUSH2 0x4B6B JUMP JUMPDEST DUP2 MSTORE POP POP DUP1 PUSH1 0x20 ADD MLOAD DUP5 PUSH1 0x20 ADD MLOAD DUP5 DUP2 MLOAD DUP2 LT PUSH2 0x586 JUMPI PUSH2 0x586 PUSH2 0x556E JUMP JUMPDEST PUSH1 0x20 MUL PUSH1 0x20 ADD ADD DUP2 SWAP1 MSTORE POP DUP3 PUSH2 0x59B SWAP1 PUSH2 0x559A JUMP JUMPDEST SWAP3 POP POP PUSH2 0x90E JUMP JUMPDEST DUP7 DUP2 DUP2 MLOAD DUP2 LT PUSH2 0x5B5 JUMPI PUSH2 0x5B5 PUSH2 0x556E JUMP JUMPDEST PUSH1 0x20 MUL PUSH1 0x20 ADD ADD MLOAD PUSH1 0x40 ADD MLOAD ISZERO PUSH2 0x757 JUMPI PUSH1 0x0 JUMPDEST PUSH1 0x0 DUP10 DUP2 MSTORE PUSH1 0x5 PUSH1 0x20 MSTORE PUSH1 0x40 SWAP1 KECCAK256 PUSH1 0x1 ADD SLOAD DUP2 LT ISZERO PUSH2 0x751 JUMPI PUSH1 0x0 DUP10 DUP2 MSTORE PUSH1 0x5 PUSH1 0x20 MSTORE PUSH1 0x40 SWAP1 KECCAK256 PUSH1 0x1 ADD DUP1 SLOAD DUP3 SWAP1 DUP2 LT PUSH2 0x605 JUMPI PUSH2 0x605 PUSH2 0x556E JUMP JUMPDEST PUSH1 0x0 SWAP2 DUP3 MSTORE PUSH1 0x20 SWAP1 SWAP2 KECCAK256 PUSH1 0x2 SWAP1 SWAP2 MUL ADD SLOAD DUP5 MLOAD DUP1 MLOAD PUSH1 0xFF SWAP1 SWAP3 AND SWAP2 DUP6 SWAP1 DUP2 LT PUSH2 0x630 JUMPI PUSH2 0x630 PUSH2 0x556E JUMP JUMPDEST PUSH1 0x20 MUL PUSH1 0x20 ADD ADD SWAP1 PUSH1 0x5 DUP2 GT ISZERO PUSH2 0x649 JUMPI PUSH2 0x649 PUSH2 0x4B6B JUMP JUMPDEST SWAP1 DUP2 PUSH1 0x5 DUP2 GT ISZERO PUSH2 0x65C JUMPI PUSH2 0x65C PUSH2 0x4B6B JUMP JUMPDEST SWAP1 MSTORE POP PUSH1 0x0 DUP10 DUP2 MSTORE PUSH1 0x5 PUSH1 0x20 MSTORE PUSH1 0x40 SWAP1 KECCAK256 PUSH1 0x1 ADD DUP1 SLOAD DUP3 SWAP1 DUP2 LT PUSH2 0x682 JUMPI PUSH2 0x682 PUSH2 0x556E JUMP JUMPDEST SWAP1 PUSH1 0x0 MSTORE PUSH1 0x20 PUSH1 0x0 KECCAK256 SWAP1 PUSH1 0x2 MUL ADD PUSH1 0x1 ADD DUP1 SLOAD PUSH2 0x69E SWAP1 PUSH2 0x55B3 JUMP JUMPDEST DUP1 PUSH1 0x1F ADD PUSH1 0x20 DUP1 SWAP2 DIV MUL PUSH1 0x20 ADD PUSH1 0x40 MLOAD SWAP1 DUP2 ADD PUSH1 0x40 MSTORE DUP1 SWAP3 SWAP2 SWAP1 DUP2 DUP2 MSTORE PUSH1 0x20 ADD DUP3 DUP1 SLOAD PUSH2 0x6CA SWAP1 PUSH2 0x55B3 JUMP JUMPDEST DUP1 ISZERO PUSH2 0x717 JUMPI DUP1 PUSH1 0x1F LT PUSH2 0x6EC JUMPI PUSH2 0x100 DUP1 DUP4 SLOAD DIV MUL DUP4 MSTORE SWAP2 PUSH1 0x20 ADD SWAP2 PUSH2 0x717 JUMP JUMPDEST DUP3 ADD SWAP2 SWAP1 PUSH1 0x0 MSTORE PUSH1 0x20 PUSH1 0x0 KECCAK256 SWAP1 JUMPDEST DUP2 SLOAD DUP2 MSTORE SWAP1 PUSH1 0x1 ADD SWAP1 PUSH1 0x20 ADD DUP1 DUP4 GT PUSH2 0x6FA JUMPI DUP3 SWAP1 SUB PUSH1 0x1F AND DUP3 ADD SWAP2 JUMPDEST POP POP POP POP POP DUP5 PUSH1 0x20 ADD MLOAD DUP5 DUP2 MLOAD DUP2 LT PUSH2 0x732 JUMPI PUSH2 0x732 PUSH2 0x556E JUMP JUMPDEST PUSH1 0x20 MUL PUSH1 0x20 ADD ADD DUP2 SWAP1 MSTORE POP DUP3 PUSH2 0x747 SWAP1 PUSH2 0x559A JUMP JUMPDEST SWAP3 POP PUSH1 0x1 ADD PUSH2 0x5C9 JUMP JUMPDEST POP PUSH2 0x90E JUMP JUMPDEST PUSH1 0x0 DUP8 DUP3 DUP2 MLOAD DUP2 LT PUSH2 0x76B JUMPI PUSH2 0x76B PUSH2 0x556E JUMP JUMPDEST PUSH1 0x20 MUL PUSH1 0x20 ADD ADD MLOAD PUSH1 0x0 ADD MLOAD PUSH1 0x5 DUP2 GT ISZERO PUSH2 0x788 JUMPI PUSH2 0x788 PUSH2 0x4B6B JUMP JUMPDEST SUB PUSH2 0x7D9 JUMPI PUSH1 0x0 DUP4 PUSH1 0x0 ADD MLOAD DUP4 DUP2 MLOAD DUP2 LT PUSH2 0x7A5 JUMPI PUSH2 0x7A5 PUSH2 0x556E JUMP JUMPDEST PUSH1 0x20 MUL PUSH1 0x20 ADD ADD SWAP1 PUSH1 0x5 DUP2 GT ISZERO PUSH2 0x7BE JUMPI PUSH2 0x7BE PUSH2 0x4B6B JUMP JUMPDEST SWAP1 DUP2 PUSH1 0x5 DUP2 GT ISZERO PUSH2 0x7D1 JUMPI PUSH2 0x7D1 PUSH2 0x4B6B JUMP JUMPDEST SWAP1 MSTORE POP PUSH2 0x8A5 JUMP JUMPDEST PUSH1 0x2 DUP8 DUP3 DUP2 MLOAD DUP2 LT PUSH2 0x7ED JUMPI PUSH2 0x7ED PUSH2 0x556E JUMP JUMPDEST PUSH1 0x20 MUL PUSH1 0x20 ADD ADD MLOAD PUSH1 0x0 ADD MLOAD PUSH1 0x5 DUP2 GT ISZERO PUSH2 0x80A JUMPI PUSH2 0x80A PUSH2 0x4B6B JUMP JUMPDEST SUB PUSH2 0x827 JUMPI PUSH1 0x2 DUP4 PUSH1 0x0 ADD MLOAD DUP4 DUP2 MLOAD DUP2 LT PUSH2 0x7A5 JUMPI PUSH2 0x7A5 PUSH2 0x556E JUMP JUMPDEST PUSH1 0x1 DUP8 DUP3 DUP2 MLOAD DUP2 LT PUSH2 0x83B JUMPI PUSH2 0x83B PUSH2 0x556E JUMP JUMPDEST PUSH1 0x20 MUL PUSH1 0x20 ADD ADD MLOAD PUSH1 0x0 ADD MLOAD PUSH1 0x5 DUP2 GT ISZERO PUSH2 0x858 JUMPI PUSH2 0x858 PUSH2 0x4B6B JUMP JUMPDEST SUB PUSH2 0x8A5 JUMPI PUSH1 0x1 DUP4 PUSH1 0x0 ADD MLOAD DUP4 DUP2 MLOAD DUP2 LT PUSH2 0x875 JUMPI PUSH2 0x875 PUSH2 0x556E JUMP JUMPDEST PUSH1 0x20 MUL PUSH1 0x20 ADD ADD SWAP1 PUSH1 0x5 DUP2 GT ISZERO PUSH2 0x88E JUMPI PUSH2 0x88E PUSH2 0x4B6B JUMP JUMPDEST SWAP1 DUP2 PUSH1 0x5 DUP2 GT ISZERO PUSH2 0x8A1 JUMPI PUSH2 0x8A1 PUSH2 0x4B6B JUMP JUMPDEST SWAP1 MSTORE POP JUMPDEST DUP5 PUSH1 0x20 ADD MLOAD DUP8 DUP3 DUP2 MLOAD DUP2 LT PUSH2 0x8BC JUMPI PUSH2 0x8BC PUSH2 0x556E JUMP JUMPDEST PUSH1 0x20 MUL PUSH1 0x20 ADD ADD MLOAD PUSH1 0x20 ADD MLOAD DUP2 MLOAD DUP2 LT PUSH2 0x8D8 JUMPI PUSH2 0x8D8 PUSH2 0x556E JUMP JUMPDEST PUSH1 0x20 MUL PUSH1 0x20 ADD ADD MLOAD DUP4 PUSH1 0x20 ADD MLOAD DUP4 DUP2 MLOAD DUP2 LT PUSH2 0x8F6 JUMPI PUSH2 0x8F6 PUSH2 0x556E JUMP JUMPDEST PUSH1 0x20 MUL PUSH1 0x20 ADD ADD DUP2 SWAP1 MSTORE POP DUP2 PUSH2 0x90B SWAP1 PUSH2 0x559A JUMP JUMPDEST SWAP2 POP JUMPDEST PUSH1 0x1 ADD PUSH2 0x4E3 JUMP JUMPDEST POP SWAP1 SWAP7 SWAP6 POP POP POP POP POP POP JUMP JUMPDEST PUSH2 0x92A PUSH2 0x409D JUMP JUMPDEST PUSH1 0x1 PUSH1 0x1 PUSH1 0xA0 SHL SUB DUP6 AND DUP2 MSTORE DUP4 MLOAD PUSH1 0x20 DUP1 DUP7 ADD SWAP2 SWAP1 SWAP2 KECCAK256 PUSH1 0x1 PUSH1 0x1 PUSH1 0xE0 SHL SUB NOT AND PUSH1 0x40 DUP4 ADD MSTORE PUSH1 0x8 DUP1 SLOAD SWAP2 DUP4 ADD DUP3 SWAP1 MSTORE PUSH1 0x0 PUSH2 0x965 DUP4 PUSH2 0x559A JUMP JUMPDEST SWAP1 SWAP2 SSTORE POP POP PUSH1 0x60 DUP2 ADD DUP4 PUSH1 0x5 DUP2 GT ISZERO PUSH2 0x980 JUMPI PUSH2 0x980 PUSH2 0x4B6B JUMP JUMPDEST SWAP1 DUP2 PUSH1 0x5 DUP2 GT ISZERO PUSH2 0x993 JUMPI PUSH2 0x993 PUSH2 0x4B6B JUMP JUMPDEST SWAP1 MSTORE POP DUP2 MLOAD PUSH1 0x1 PUSH1 0x1 PUSH1 0x40 SHL SUB DUP2 GT ISZERO PUSH2 0x9AF JUMPI PUSH2 0x9AF PUSH2 0x42BD JUMP JUMPDEST PUSH1 0x40 MLOAD SWAP1 DUP1 DUP3 MSTORE DUP1 PUSH1 0x20 MUL PUSH1 0x20 ADD DUP3 ADD PUSH1 0x40 MSTORE DUP1 ISZERO PUSH2 0x9D8 JUMPI DUP2 PUSH1 0x20 ADD PUSH1 0x20 DUP3 MUL DUP1 CALLDATASIZE DUP4 CALLDATACOPY ADD SWAP1 POP JUMPDEST POP PUSH1 0x80 DUP3 ADD MSTORE PUSH1 0x0 JUMPDEST DUP3 MLOAD DUP2 LT ISZERO PUSH2 0xA51 JUMPI DUP3 DUP2 DUP2 MLOAD DUP2 LT PUSH2 0x9FC JUMPI PUSH2 0x9FC PUSH2 0x556E JUMP JUMPDEST PUSH1 0x20 MUL PUSH1 0x20 ADD ADD MLOAD DUP3 PUSH1 0x80 ADD MLOAD DUP3 DUP2 MLOAD DUP2 LT PUSH2 0xA1A JUMPI PUSH2 0xA1A PUSH2 0x556E JUMP JUMPDEST PUSH1 0x20 MUL PUSH1 0x20 ADD ADD SWAP1 PUSH1 0x5 DUP2 GT ISZERO PUSH2 0xA33 JUMPI PUSH2 0xA33 PUSH2 0x4B6B JUMP JUMPDEST SWAP1 DUP2 PUSH1 0x5 DUP2 GT ISZERO PUSH2 0xA46 JUMPI PUSH2 0xA46 PUSH2 0x4B6B JUMP JUMPDEST SWAP1 MSTORE POP PUSH1 0x1 ADD PUSH2 0x9E1 JUMP JUMPDEST POP PUSH1 0x0 DUP7 DUP2 MSTORE PUSH1 0x4 PUSH1 0x20 DUP2 DUP2 MSTORE PUSH1 0x40 DUP1 DUP5 KECCAK256 PUSH1 0x1 SWAP1 DUP2 ADD DUP1 SLOAD DUP1 DUP4 ADD DUP3 SSTORE SWAP1 DUP7 MSTORE SWAP5 DUP4 SWAP1 KECCAK256 DUP7 MLOAD SWAP6 SWAP1 SWAP5 MUL SWAP1 SWAP4 ADD DUP1 SLOAD PUSH1 0x1 PUSH1 0x1 PUSH1 0xA0 SHL SUB NOT AND PUSH1 0x1 PUSH1 0x1 PUSH1 0xA0 SHL SUB SWAP1 SWAP6 AND SWAP5 SWAP1 SWAP5 OR DUP5 SSTORE SWAP1 DUP5 ADD MLOAD SWAP2 DUP4 ADD SWAP2 SWAP1 SWAP2 SSTORE DUP3 ADD MLOAD PUSH1 0x2 DUP3 ADD DUP1 SLOAD PUSH4 0xFFFFFFFF NOT DUP2 AND PUSH1 0xE0 SWAP4 SWAP1 SWAP4 SHR SWAP3 DUP4 OR DUP3 SSTORE PUSH1 0x60 DUP6 ADD MLOAD DUP6 SWAP5 SWAP4 SWAP1 SWAP3 SWAP2 PUSH5 0xFFFFFFFFFF NOT AND OR PUSH5 0x100000000 DUP4 PUSH1 0x5 DUP2 GT ISZERO PUSH2 0xAEF JUMPI PUSH2 0xAEF PUSH2 0x4B6B JUMP JUMPDEST MUL OR SWAP1 SSTORE POP PUSH1 0x80 DUP3 ADD MLOAD DUP1 MLOAD PUSH2 0xB0F SWAP2 PUSH1 0x3 DUP5 ADD SWAP2 PUSH1 0x20 SWAP1 SWAP2 ADD SWAP1 PUSH2 0x40CD JUMP JUMPDEST POP POP POP PUSH1 0x0 SWAP6 DUP7 MSTORE PUSH1 0x4 PUSH1 0x20 MSTORE PUSH1 0x40 SWAP1 SWAP6 KECCAK256 DUP1 SLOAD PUSH1 0xFF NOT AND PUSH1 0x1 OR SWAP1 SSTORE POP SWAP3 SWAP4 SWAP3 POP POP POP JUMP JUMPDEST PUSH1 0x40 DUP1 MLOAD DUP1 DUP3 ADD SWAP1 SWAP2 MSTORE PUSH1 0x0 DUP2 MSTORE PUSH1 0x60 PUSH1 0x20 DUP3 ADD MSTORE PUSH1 0x0 DUP1 PUSH2 0xB59 DUP6 DUP6 PUSH1 0x1 PUSH2 0x261D JUMP JUMPDEST SWAP2 POP SWAP2 POP DUP1 DUP1 PUSH1 0x20 ADD SWAP1 MLOAD DUP2 ADD SWAP1 PUSH2 0xB71 SWAP2 SWAP1 PUSH2 0x55E7 JUMP JUMPDEST PUSH1 0x20 DUP5 ADD MSTORE POP DUP2 MSTORE SWAP3 SWAP2 POP POP JUMP JUMPDEST PUSH1 0x0 DUP8 PUSH1 0x0 SUB PUSH2 0xB97 JUMPI PUSH1 0x9 DUP1 SLOAD PUSH1 0x1 ADD SWAP1 SSTORE PUSH2 0xB9D JUMP JUMPDEST PUSH1 0x9 DUP9 SWAP1 SSTORE JUMPDEST DUP6 DUP5 EQ PUSH2 0xC08 JUMPI PUSH1 0x40 MLOAD PUSH3 0x461BCD PUSH1 0xE5 SHL DUP2 MSTORE PUSH1 0x20 PUSH1 0x4 DUP3 ADD MSTORE PUSH1 0x2E PUSH1 0x24 DUP3 ADD MSTORE PUSH32 0x5369676E61747572657320616E64207369676E61747572652069642773206172 PUSH1 0x44 DUP3 ADD MSTORE PUSH14 0x19481A5B98DBDB9CDA5CDD195B9D PUSH1 0x92 SHL PUSH1 0x64 DUP3 ADD MSTORE PUSH1 0x84 ADD JUMPDEST PUSH1 0x40 MLOAD DUP1 SWAP2 SUB SWAP1 REVERT JUMPDEST PUSH1 0x0 JUMPDEST DUP7 DUP2 LT ISZERO PUSH2 0xE52 JUMPI PUSH1 0x3 PUSH1 0x0 DUP8 DUP8 DUP5 DUP2 DUP2 LT PUSH2 0xC29 JUMPI PUSH2 0xC29 PUSH2 0x556E JUMP JUMPDEST PUSH1 0x20 SWAP1 DUP2 MUL SWAP3 SWAP1 SWAP3 ADD CALLDATALOAD DUP4 MSTORE POP DUP2 ADD SWAP2 SWAP1 SWAP2 MSTORE PUSH1 0x40 ADD PUSH1 0x0 KECCAK256 SLOAD PUSH1 0xFF AND PUSH2 0xC86 JUMPI PUSH1 0x40 MLOAD PUSH3 0x461BCD PUSH1 0xE5 SHL DUP2 MSTORE PUSH1 0x20 PUSH1 0x4 DUP3 ADD MSTORE PUSH1 0x11 PUSH1 0x24 DUP3 ADD MSTORE PUSH17 0x496E76616C6964205369676E6174757265 PUSH1 0x78 SHL PUSH1 0x44 DUP3 ADD MSTORE PUSH1 0x64 ADD PUSH2 0xBFF JUMP JUMPDEST DUP6 DUP6 DUP3 DUP2 DUP2 LT PUSH2 0xC98 JUMPI PUSH2 0xC98 PUSH2 0x556E JUMP JUMPDEST SWAP1 POP PUSH1 0x20 MUL ADD CALLDATALOAD PUSH1 0x1 PUSH1 0x0 PUSH1 0x9 SLOAD DUP2 MSTORE PUSH1 0x20 ADD SWAP1 DUP2 MSTORE PUSH1 0x20 ADD PUSH1 0x0 KECCAK256 PUSH1 0x1 ADD PUSH1 0x0 ADD DUP10 DUP10 DUP5 DUP2 DUP2 LT PUSH2 0xCCC JUMPI PUSH2 0xCCC PUSH2 0x556E JUMP JUMPDEST SWAP1 POP PUSH1 0x20 MUL DUP2 ADD SWAP1 PUSH2 0xCDE SWAP2 SWAP1 PUSH2 0x5654 JUMP JUMPDEST PUSH1 0x40 MLOAD PUSH2 0xCEC SWAP3 SWAP2 SWAP1 PUSH2 0x569A JUMP JUMPDEST SWAP1 DUP2 MSTORE PUSH1 0x40 MLOAD SWAP1 DUP2 SWAP1 SUB PUSH1 0x20 ADD SWAP1 KECCAK256 SSTORE PUSH1 0x0 JUMPDEST DUP5 DUP5 DUP4 DUP2 DUP2 LT PUSH2 0xD11 JUMPI PUSH2 0xD11 PUSH2 0x556E JUMP JUMPDEST SWAP1 POP PUSH1 0x20 MUL DUP2 ADD SWAP1 PUSH2 0xD23 SWAP2 SWAP1 PUSH2 0x56AA JUMP JUMPDEST SWAP1 POP DUP2 LT ISZERO PUSH2 0xDC4 JUMPI PUSH1 0x2 PUSH1 0x0 DUP7 DUP7 DUP6 DUP2 DUP2 LT PUSH2 0xD42 JUMPI PUSH2 0xD42 PUSH2 0x556E JUMP JUMPDEST SWAP1 POP PUSH1 0x20 MUL DUP2 ADD SWAP1 PUSH2 0xD54 SWAP2 SWAP1 PUSH2 0x56AA JUMP JUMPDEST DUP5 DUP2 DUP2 LT PUSH2 0xD64 JUMPI PUSH2 0xD64 PUSH2 0x556E JUMP JUMPDEST PUSH1 0x20 SWAP1 DUP2 MUL SWAP3 SWAP1 SWAP3 ADD CALLDATALOAD DUP4 MSTORE POP DUP2 ADD SWAP2 SWAP1 SWAP2 MSTORE PUSH1 0x40 ADD PUSH1 0x0 KECCAK256 SLOAD PUSH1 0xFF AND PUSH2 0xDBC JUMPI PUSH1 0x40 MLOAD PUSH3 0x461BCD PUSH1 0xE5 SHL DUP2 MSTORE PUSH1 0x20 PUSH1 0x4 DUP3 ADD MSTORE PUSH1 0xC PUSH1 0x24 DUP3 ADD MSTORE PUSH12 0x496E76616C69642052756C65 PUSH1 0xA0 SHL PUSH1 0x44 DUP3 ADD MSTORE PUSH1 0x64 ADD PUSH2 0xBFF JUMP JUMPDEST PUSH1 0x1 ADD PUSH2 0xCFF JUMP JUMPDEST POP DUP4 DUP4 DUP3 DUP2 DUP2 LT PUSH2 0xDD7 JUMPI PUSH2 0xDD7 PUSH2 0x556E JUMP JUMPDEST SWAP1 POP PUSH1 0x20 MUL DUP2 ADD SWAP1 PUSH2 0xDE9 SWAP2 SWAP1 PUSH2 0x56AA JUMP JUMPDEST PUSH1 0x9 SLOAD PUSH1 0x0 SWAP1 DUP2 MSTORE PUSH1 0x1 PUSH1 0x20 MSTORE PUSH1 0x40 SWAP1 KECCAK256 PUSH1 0x2 ADD DUP11 DUP11 DUP6 DUP2 DUP2 LT PUSH2 0xE0F JUMPI PUSH2 0xE0F PUSH2 0x556E JUMP JUMPDEST SWAP1 POP PUSH1 0x20 MUL DUP2 ADD SWAP1 PUSH2 0xE21 SWAP2 SWAP1 PUSH2 0x5654 JUMP JUMPDEST PUSH1 0x40 MLOAD PUSH2 0xE2F SWAP3 SWAP2 SWAP1 PUSH2 0x569A JUMP JUMPDEST SWAP1 DUP2 MSTORE PUSH1 0x40 MLOAD SWAP1 DUP2 SWAP1 SUB PUSH1 0x20 ADD SWAP1 KECCAK256 PUSH2 0xE49 SWAP3 SWAP1 SWAP2 PUSH2 0x4181 JUMP JUMPDEST POP PUSH1 0x1 ADD PUSH2 0xC0B JUMP JUMPDEST POP POP PUSH1 0x9 DUP1 SLOAD PUSH1 0x0 SWAP1 DUP2 MSTORE PUSH1 0x1 PUSH1 0x20 DUP2 SWAP1 MSTORE PUSH1 0x40 SWAP1 SWAP2 KECCAK256 DUP1 SLOAD PUSH1 0xFF NOT AND SWAP1 SWAP2 OR SWAP1 SSTORE SLOAD SWAP8 SWAP7 POP POP POP POP POP POP POP JUMP JUMPDEST PUSH1 0x1 PUSH1 0x0 JUMPDEST DUP4 MLOAD DUP2 LT ISZERO PUSH2 0x1175 JUMPI PUSH1 0x0 DUP6 DUP2 MSTORE PUSH1 0x4 PUSH1 0x20 SWAP1 DUP2 MSTORE PUSH1 0x40 DUP1 DUP4 KECCAK256 DUP2 MLOAD DUP1 DUP4 ADD DUP4 MSTORE DUP2 SLOAD PUSH1 0xFF AND ISZERO ISZERO DUP2 MSTORE PUSH1 0x1 DUP3 ADD DUP1 SLOAD DUP5 MLOAD DUP2 DUP8 MUL DUP2 ADD DUP8 ADD SWAP1 SWAP6 MSTORE DUP1 DUP6 MSTORE SWAP2 SWAP5 SWAP3 SWAP4 DUP6 DUP5 ADD SWAP4 SWAP1 SWAP3 SWAP1 DUP8 SWAP1 DUP5 ADD JUMPDEST DUP3 DUP3 LT ISZERO PUSH2 0xFFC JUMPI PUSH1 0x0 DUP5 DUP2 MSTORE PUSH1 0x20 SWAP1 DUP2 SWAP1 KECCAK256 PUSH1 0x40 DUP1 MLOAD PUSH1 0xA0 DUP2 ADD DUP3 MSTORE PUSH1 0x4 DUP7 MUL SWAP1 SWAP3 ADD DUP1 SLOAD PUSH1 0x1 PUSH1 0x1 PUSH1 0xA0 SHL SUB AND DUP4 MSTORE PUSH1 0x1 DUP2 ADD SLOAD SWAP4 DUP4 ADD SWAP4 SWAP1 SWAP4 MSTORE PUSH1 0x2 DUP4 ADD SLOAD PUSH1 0xE0 DUP2 SWAP1 SHL PUSH1 0x1 PUSH1 0x1 PUSH1 0xE0 SHL SUB NOT AND SWAP2 DUP4 ADD SWAP2 SWAP1 SWAP2 MSTORE SWAP1 SWAP2 SWAP1 PUSH1 0x60 DUP4 ADD SWAP1 PUSH5 0x100000000 SWAP1 DIV PUSH1 0xFF AND PUSH1 0x5 DUP2 GT ISZERO PUSH2 0xF50 JUMPI PUSH2 0xF50 PUSH2 0x4B6B JUMP JUMPDEST PUSH1 0x5 DUP2 GT ISZERO PUSH2 0xF61 JUMPI PUSH2 0xF61 PUSH2 0x4B6B JUMP JUMPDEST DUP2 MSTORE PUSH1 0x20 ADD PUSH1 0x3 DUP3 ADD DUP1 SLOAD DUP1 PUSH1 0x20 MUL PUSH1 0x20 ADD PUSH1 0x40 MLOAD SWAP1 DUP2 ADD PUSH1 0x40 MSTORE DUP1 SWAP3 SWAP2 SWAP1 DUP2 DUP2 MSTORE PUSH1 0x20 ADD DUP3 DUP1 SLOAD DUP1 ISZERO PUSH2 0xFE4 JUMPI PUSH1 0x20 MUL DUP3 ADD SWAP2 SWAP1 PUSH1 0x0 MSTORE PUSH1 0x20 PUSH1 0x0 KECCAK256 SWAP1 PUSH1 0x0 SWAP1 JUMPDEST DUP3 DUP3 SWAP1 SLOAD SWAP1 PUSH2 0x100 EXP SWAP1 DIV PUSH1 0xFF AND PUSH1 0x5 DUP2 GT ISZERO PUSH2 0xFC2 JUMPI PUSH2 0xFC2 PUSH2 0x4B6B JUMP JUMPDEST DUP2 MSTORE PUSH1 0x20 PUSH1 0x1 SWAP3 DUP4 ADD DUP2 DUP2 DIV SWAP5 DUP6 ADD SWAP5 SWAP1 SWAP4 SUB SWAP1 SWAP3 MUL SWAP2 ADD DUP1 DUP5 GT PUSH2 0xFA3 JUMPI SWAP1 POP JUMPDEST POP POP POP POP POP DUP2 MSTORE POP POP DUP2 MSTORE PUSH1 0x20 ADD SWAP1 PUSH1 0x1 ADD SWAP1 PUSH2 0xED4 JUMP JUMPDEST POP POP POP POP DUP2 MSTORE POP POP SWAP1 POP PUSH2 0x102A DUP7 DUP7 DUP5 DUP2 MLOAD DUP2 LT PUSH2 0x101C JUMPI PUSH2 0x101C PUSH2 0x556E JUMP JUMPDEST PUSH1 0x20 MUL PUSH1 0x20 ADD ADD MLOAD DUP7 PUSH2 0x2EE0 JUMP JUMPDEST PUSH2 0x10D1 JUMPI PUSH1 0x0 SWAP3 POP ADDRESS PUSH1 0x1 PUSH1 0x1 PUSH1 0xA0 SHL SUB AND PUSH4 0xDF11708C DUP8 DUP8 DUP6 DUP2 MLOAD DUP2 LT PUSH2 0x1054 JUMPI PUSH2 0x1054 PUSH2 0x556E JUMP JUMPDEST PUSH1 0x20 MUL PUSH1 0x20 ADD ADD MLOAD PUSH1 0xE0 ADD MLOAD DUP9 DUP7 DUP2 MLOAD DUP2 LT PUSH2 0x1072 JUMPI PUSH2 0x1072 PUSH2 0x556E JUMP JUMPDEST PUSH1 0x20 MUL PUSH1 0x20 ADD ADD MLOAD DUP9 PUSH1 0x40 MLOAD DUP6 PUSH4 0xFFFFFFFF AND PUSH1 0xE0 SHL DUP2 MSTORE PUSH1 0x4 ADD PUSH2 0x109A SWAP5 SWAP4 SWAP3 SWAP2 SWAP1 PUSH2 0x585A JUMP JUMPDEST PUSH1 0x0 PUSH1 0x40 MLOAD DUP1 DUP4 SUB DUP2 PUSH1 0x0 DUP8 DUP1 EXTCODESIZE ISZERO DUP1 ISZERO PUSH2 0x10B4 JUMPI PUSH1 0x0 DUP1 REVERT JUMPDEST POP GAS CALL ISZERO DUP1 ISZERO PUSH2 0x10C8 JUMPI RETURNDATASIZE PUSH1 0x0 DUP1 RETURNDATACOPY RETURNDATASIZE PUSH1 0x0 REVERT JUMPDEST POP POP POP POP PUSH2 0x116C JUMP JUMPDEST ADDRESS PUSH1 0x1 PUSH1 0x1 PUSH1 0xA0 SHL SUB AND PUSH4 0xDF11708C DUP8 DUP8 DUP6 DUP2 MLOAD DUP2 LT PUSH2 0x10F3 JUMPI PUSH2 0x10F3 PUSH2 0x556E JUMP JUMPDEST PUSH1 0x20 MUL PUSH1 0x20 ADD ADD MLOAD PUSH1 0xC0 ADD MLOAD DUP9 DUP7 DUP2 MLOAD DUP2 LT PUSH2 0x1111 JUMPI PUSH2 0x1111 PUSH2 0x556E JUMP JUMPDEST PUSH1 0x20 MUL PUSH1 0x20 ADD ADD MLOAD DUP9 PUSH1 0x40 MLOAD DUP6 PUSH4 0xFFFFFFFF AND PUSH1 0xE0 SHL DUP2 MSTORE PUSH1 0x4 ADD PUSH2 0x1139 SWAP5 SWAP4 SWAP3 SWAP2 SWAP1 PUSH2 0x585A JUMP JUMPDEST PUSH1 0x0 PUSH1 0x40 MLOAD DUP1 DUP4 SUB DUP2 PUSH1 0x0 DUP8 DUP1 EXTCODESIZE ISZERO DUP1 ISZERO PUSH2 0x1153 JUMPI PUSH1 0x0 DUP1 REVERT JUMPDEST POP GAS CALL ISZERO DUP1 ISZERO PUSH2 0x1167 JUMPI RETURNDATASIZE PUSH1 0x0 DUP1 RETURNDATACOPY RETURNDATASIZE PUSH1 0x0 REVERT JUMPDEST POP POP POP POP JUMPDEST POP PUSH1 0x1 ADD PUSH2 0xE85 JUMP JUMPDEST POP SWAP4 SWAP3 POP POP POP JUMP JUMPDEST PUSH2 0x1185 PUSH2 0x41BC JUMP JUMPDEST PUSH1 0x0 DUP4 DUP2 MSTORE PUSH1 0x5 PUSH1 0x20 MSTORE PUSH1 0x40 SWAP1 KECCAK256 PUSH1 0x1 ADD DUP1 SLOAD DUP4 SWAP1 DUP2 LT PUSH2 0x11A8 JUMPI PUSH2 0x11A8 PUSH2 0x556E JUMP JUMPDEST PUSH1 0x0 SWAP2 DUP3 MSTORE PUSH1 0x20 SWAP1 SWAP2 KECCAK256 PUSH1 0x40 DUP1 MLOAD DUP1 DUP3 ADD SWAP1 SWAP2 MSTORE PUSH1 0x2 SWAP1 SWAP3 MUL ADD DUP1 SLOAD DUP3 SWAP1 PUSH1 0xFF AND PUSH1 0x5 DUP2 GT ISZERO PUSH2 0x11DA JUMPI PUSH2 0x11DA PUSH2 0x4B6B JUMP JUMPDEST PUSH1 0x5 DUP2 GT ISZERO PUSH2 0x11EB JUMPI PUSH2 0x11EB PUSH2 0x4B6B JUMP JUMPDEST DUP2 MSTORE PUSH1 0x20 ADD PUSH1 0x1 DUP3 ADD DUP1 SLOAD PUSH2 0x11FF SWAP1 PUSH2 0x55B3 JUMP JUMPDEST DUP1 PUSH1 0x1F ADD PUSH1 0x20 DUP1 SWAP2 DIV MUL PUSH1 0x20 ADD PUSH1 0x40 MLOAD SWAP1 DUP2 ADD PUSH1 0x40 MSTORE DUP1 SWAP3 SWAP2 SWAP1 DUP2 DUP2 MSTORE PUSH1 0x20 ADD DUP3 DUP1 SLOAD PUSH2 0x122B SWAP1 PUSH2 0x55B3 JUMP JUMPDEST DUP1 ISZERO PUSH2 0x1278 JUMPI DUP1 PUSH1 0x1F LT PUSH2 0x124D JUMPI PUSH2 0x100 DUP1 DUP4 SLOAD DIV MUL DUP4 MSTORE SWAP2 PUSH1 0x20 ADD SWAP2 PUSH2 0x1278 JUMP JUMPDEST DUP3 ADD SWAP2 SWAP1 PUSH1 0x0 MSTORE PUSH1 0x20 PUSH1 0x0 KECCAK256 SWAP1 JUMPDEST DUP2 SLOAD DUP2 MSTORE SWAP1 PUSH1 0x1 ADD SWAP1 PUSH1 0x20 ADD DUP1 DUP4 GT PUSH2 0x125B JUMPI DUP3 SWAP1 SUB PUSH1 0x1F AND DUP3 ADD SWAP2 JUMPDEST POP POP POP POP POP DUP2 MSTORE POP POP SWAP1 POP JUMPDEST SWAP3 SWAP2 POP POP JUMP JUMPDEST PUSH1 0x0 PUSH2 0x1294 PUSH2 0x41CE JUMP JUMPDEST PUSH1 0x0 DUP1 JUMPDEST DUP6 DUP3 LT ISZERO PUSH2 0x1BDB JUMPI PUSH1 0x0 DUP1 DUP9 DUP9 DUP6 DUP2 DUP2 LT PUSH2 0x12B5 JUMPI PUSH2 0x12B5 PUSH2 0x556E JUMP JUMPDEST SWAP1 POP PUSH1 0x20 MUL ADD CALLDATALOAD PUSH1 0xC DUP2 GT ISZERO PUSH2 0x12CD JUMPI PUSH2 0x12CD PUSH2 0x4B6B JUMP JUMPDEST SWAP1 POP PUSH1 0xB DUP2 PUSH1 0xC DUP2 GT ISZERO PUSH2 0x12E3 JUMPI PUSH2 0x12E3 PUSH2 0x4B6B JUMP JUMPDEST SUB PUSH2 0x14AD JUMPI PUSH1 0x0 DUP10 DUP10 PUSH2 0x12F7 DUP8 PUSH1 0x1 PUSH2 0x5966 JUMP JUMPDEST DUP2 DUP2 LT PUSH2 0x1306 JUMPI PUSH2 0x1306 PUSH2 0x556E JUMP JUMPDEST PUSH1 0x20 MUL SWAP2 SWAP1 SWAP2 ADD CALLDATALOAD SWAP2 POP PUSH1 0x0 SWAP1 POP PUSH2 0x131E DUP10 DUP1 PUSH2 0x56AA JUMP JUMPDEST DUP4 DUP2 DUP2 LT PUSH2 0x132E JUMPI PUSH2 0x132E PUSH2 0x556E JUMP JUMPDEST SWAP1 POP PUSH1 0x20 MUL ADD PUSH1 0x20 DUP2 ADD SWAP1 PUSH2 0x1343 SWAP2 SWAP1 PUSH2 0x5979 JUMP JUMPDEST SWAP1 POP PUSH1 0x0 DUP2 PUSH1 0x5 DUP2 GT ISZERO PUSH2 0x1359 JUMPI PUSH2 0x1359 PUSH2 0x4B6B JUMP JUMPDEST SUB PUSH2 0x13B7 JUMPI PUSH2 0x136B PUSH1 0x20 DUP11 ADD DUP11 PUSH2 0x56AA JUMP JUMPDEST DUP4 DUP2 DUP2 LT PUSH2 0x137B JUMPI PUSH2 0x137B PUSH2 0x556E JUMP JUMPDEST SWAP1 POP PUSH1 0x20 MUL DUP2 ADD SWAP1 PUSH2 0x138D SWAP2 SWAP1 PUSH2 0x5654 JUMP JUMPDEST DUP2 ADD SWAP1 PUSH2 0x139A SWAP2 SWAP1 PUSH2 0x5996 JUMP JUMPDEST PUSH1 0x1 PUSH1 0x1 PUSH1 0xA0 SHL SUB AND SWAP4 POP PUSH2 0x13B0 PUSH1 0x2 DUP8 PUSH2 0x5966 JUMP JUMPDEST SWAP6 POP PUSH2 0x14A6 JUMP JUMPDEST PUSH1 0x2 DUP2 PUSH1 0x5 DUP2 GT ISZERO PUSH2 0x13CB JUMPI PUSH2 0x13CB PUSH2 0x4B6B JUMP JUMPDEST SUB PUSH2 0x1419 JUMPI PUSH2 0x13DD PUSH1 0x20 DUP11 ADD DUP11 PUSH2 0x56AA JUMP JUMPDEST DUP4 DUP2 DUP2 LT PUSH2 0x13ED JUMPI PUSH2 0x13ED PUSH2 0x556E JUMP JUMPDEST SWAP1 POP PUSH1 0x20 MUL DUP2 ADD SWAP1 PUSH2 0x13FF SWAP2 SWAP1 PUSH2 0x5654 JUMP JUMPDEST DUP2 ADD SWAP1 PUSH2 0x140C SWAP2 SWAP1 PUSH2 0x42A4 JUMP JUMPDEST SWAP4 POP PUSH2 0x13B0 PUSH1 0x2 DUP8 PUSH2 0x5966 JUMP JUMPDEST PUSH1 0x1 DUP2 PUSH1 0x5 DUP2 GT ISZERO PUSH2 0x142D JUMPI PUSH2 0x142D PUSH2 0x4B6B JUMP JUMPDEST SUB PUSH2 0x14A6 JUMPI PUSH2 0x143F PUSH1 0x20 DUP11 ADD DUP11 PUSH2 0x56AA JUMP JUMPDEST DUP4 DUP2 DUP2 LT PUSH2 0x144F JUMPI PUSH2 0x144F PUSH2 0x556E JUMP JUMPDEST SWAP1 POP PUSH1 0x20 MUL DUP2 ADD SWAP1 PUSH2 0x1461 SWAP2 SWAP1 PUSH2 0x5654 JUMP JUMPDEST DUP2 ADD SWAP1 PUSH2 0x146E SWAP2 SWAP1 PUSH2 0x59B3 JUMP JUMPDEST PUSH1 0x40 MLOAD PUSH1 0x20 ADD PUSH2 0x147E SWAP2 SWAP1 PUSH2 0x59E7 JUMP JUMPDEST PUSH1 0x40 DUP1 MLOAD PUSH1 0x1F NOT DUP2 DUP5 SUB ADD DUP2 MSTORE SWAP2 SWAP1 MSTORE DUP1 MLOAD PUSH1 0x20 SWAP1 SWAP2 ADD KECCAK256 SWAP4 POP PUSH2 0x14A3 PUSH1 0x2 DUP8 PUSH2 0x5966 JUMP JUMPDEST SWAP6 POP JUMPDEST POP POP PUSH2 0x1BAF JUMP JUMPDEST PUSH1 0xC DUP2 PUSH1 0xC DUP2 GT ISZERO PUSH2 0x14C1 JUMPI PUSH2 0x14C1 PUSH2 0x4B6B JUMP JUMPDEST SUB PUSH2 0x160F JUMPI PUSH1 0x2 PUSH1 0x5 PUSH1 0x0 DUP13 DUP2 MSTORE PUSH1 0x20 ADD SWAP1 DUP2 MSTORE PUSH1 0x20 ADD PUSH1 0x0 KECCAK256 PUSH1 0x1 ADD DUP11 DUP11 DUP8 PUSH1 0x1 PUSH2 0x14ED SWAP2 SWAP1 PUSH2 0x5966 JUMP JUMPDEST DUP2 DUP2 LT PUSH2 0x14FC JUMPI PUSH2 0x14FC PUSH2 0x556E JUMP JUMPDEST SWAP1 POP PUSH1 0x20 MUL ADD CALLDATALOAD DUP2 SLOAD DUP2 LT PUSH2 0x1513 JUMPI PUSH2 0x1513 PUSH2 0x556E JUMP JUMPDEST PUSH1 0x0 SWAP2 DUP3 MSTORE PUSH1 0x20 SWAP1 SWAP2 KECCAK256 PUSH1 0x2 SWAP1 SWAP2 MUL ADD SLOAD PUSH1 0xFF AND PUSH1 0x5 DUP2 GT ISZERO PUSH2 0x1538 JUMPI PUSH2 0x1538 PUSH2 0x4B6B JUMP JUMPDEST SUB PUSH2 0x15FD JUMPI DUP5 DUP10 DUP10 PUSH2 0x154B DUP8 PUSH1 0x2 PUSH2 0x5966 JUMP JUMPDEST DUP2 DUP2 LT PUSH2 0x155A JUMPI PUSH2 0x155A PUSH2 0x556E JUMP JUMPDEST SWAP1 POP PUSH1 0x20 MUL ADD CALLDATALOAD PUSH1 0x40 DUP2 LT PUSH2 0x1571 JUMPI PUSH2 0x1571 PUSH2 0x556E JUMP JUMPDEST PUSH1 0x20 MUL ADD MLOAD PUSH1 0x40 MLOAD PUSH1 0x20 ADD PUSH2 0x1588 SWAP2 DUP2 MSTORE PUSH1 0x20 ADD SWAP1 JUMP JUMPDEST PUSH1 0x40 DUP1 MLOAD PUSH1 0x1F NOT DUP2 DUP5 SUB ADD DUP2 MSTORE SWAP2 DUP2 MSTORE PUSH1 0x0 DUP13 DUP2 MSTORE PUSH1 0x5 PUSH1 0x20 MSTORE KECCAK256 PUSH1 0x1 SWAP1 DUP2 ADD SWAP1 DUP12 SWAP1 DUP12 SWAP1 PUSH2 0x15B8 SWAP1 DUP10 SWAP1 PUSH2 0x5966 JUMP JUMPDEST DUP2 DUP2 LT PUSH2 0x15C7 JUMPI PUSH2 0x15C7 PUSH2 0x556E JUMP JUMPDEST SWAP1 POP PUSH1 0x20 MUL ADD CALLDATALOAD DUP2 SLOAD DUP2 LT PUSH2 0x15DE JUMPI PUSH2 0x15DE PUSH2 0x556E JUMP JUMPDEST SWAP1 PUSH1 0x0 MSTORE PUSH1 0x20 PUSH1 0x0 KECCAK256 SWAP1 PUSH1 0x2 MUL ADD PUSH1 0x1 ADD SWAP1 DUP2 PUSH2 0x15FB SWAP2 SWAP1 PUSH2 0x5A61 JUMP JUMPDEST POP JUMPDEST PUSH2 0x1608 PUSH1 0x3 DUP6 PUSH2 0x5966 JUMP JUMPDEST SWAP4 POP PUSH2 0x1BAF JUMP JUMPDEST PUSH1 0x0 DUP2 PUSH1 0xC DUP2 GT ISZERO PUSH2 0x1623 JUMPI PUSH2 0x1623 PUSH2 0x4B6B JUMP JUMPDEST SUB PUSH2 0x165A JUMPI DUP9 DUP9 PUSH2 0x1635 DUP7 PUSH1 0x1 PUSH2 0x5966 JUMP JUMPDEST DUP2 DUP2 LT PUSH2 0x1644 JUMPI PUSH2 0x1644 PUSH2 0x556E JUMP JUMPDEST SWAP1 POP PUSH1 0x20 MUL ADD CALLDATALOAD SWAP2 POP PUSH1 0x2 DUP5 PUSH2 0x1608 SWAP2 SWAP1 PUSH2 0x5966 JUMP JUMPDEST PUSH1 0x1 DUP2 PUSH1 0xC DUP2 GT ISZERO PUSH2 0x166E JUMPI PUSH2 0x166E PUSH2 0x4B6B JUMP JUMPDEST SUB PUSH2 0x16FC JUMPI DUP5 DUP10 DUP10 PUSH2 0x1681 DUP8 PUSH1 0x2 PUSH2 0x5966 JUMP JUMPDEST DUP2 DUP2 LT PUSH2 0x1690 JUMPI PUSH2 0x1690 PUSH2 0x556E JUMP JUMPDEST SWAP1 POP PUSH1 0x20 MUL ADD CALLDATALOAD PUSH1 0x40 DUP2 LT PUSH2 0x16A7 JUMPI PUSH2 0x16A7 PUSH2 0x556E JUMP JUMPDEST PUSH1 0x20 MUL ADD MLOAD DUP6 DUP11 DUP11 PUSH2 0x16BA DUP9 PUSH1 0x1 PUSH2 0x5966 JUMP JUMPDEST DUP2 DUP2 LT PUSH2 0x16C9 JUMPI PUSH2 0x16C9 PUSH2 0x556E JUMP JUMPDEST SWAP1 POP PUSH1 0x20 MUL ADD CALLDATALOAD PUSH1 0x40 DUP2 LT PUSH2 0x16E0 JUMPI PUSH2 0x16E0 PUSH2 0x556E JUMP JUMPDEST PUSH1 0x20 MUL ADD MLOAD PUSH2 0x16EF SWAP2 SWAP1 PUSH2 0x5966 JUMP JUMPDEST SWAP2 POP PUSH2 0x1608 PUSH1 0x3 DUP6 PUSH2 0x5966 JUMP JUMPDEST PUSH1 0x2 DUP2 PUSH1 0xC DUP2 GT ISZERO PUSH2 0x1710 JUMPI PUSH2 0x1710 PUSH2 0x4B6B JUMP JUMPDEST SUB PUSH2 0x1791 JUMPI DUP5 DUP10 DUP10 PUSH2 0x1723 DUP8 PUSH1 0x2 PUSH2 0x5966 JUMP JUMPDEST DUP2 DUP2 LT PUSH2 0x1732 JUMPI PUSH2 0x1732 PUSH2 0x556E JUMP JUMPDEST SWAP1 POP PUSH1 0x20 MUL ADD CALLDATALOAD PUSH1 0x40 DUP2 LT PUSH2 0x1749 JUMPI PUSH2 0x1749 PUSH2 0x556E JUMP JUMPDEST PUSH1 0x20 MUL ADD MLOAD DUP6 DUP11 DUP11 PUSH2 0x175C DUP9 PUSH1 0x1 PUSH2 0x5966 JUMP JUMPDEST DUP2 DUP2 LT PUSH2 0x176B JUMPI PUSH2 0x176B PUSH2 0x556E JUMP JUMPDEST SWAP1 POP PUSH1 0x20 MUL ADD CALLDATALOAD PUSH1 0x40 DUP2 LT PUSH2 0x1782 JUMPI PUSH2 0x1782 PUSH2 0x556E JUMP JUMPDEST PUSH1 0x20 MUL ADD MLOAD PUSH2 0x16EF SWAP2 SWAP1 PUSH2 0x5B19 JUMP JUMPDEST PUSH1 0x3 DUP2 PUSH1 0xC DUP2 GT ISZERO PUSH2 0x17A5 JUMPI PUSH2 0x17A5 PUSH2 0x4B6B JUMP JUMPDEST SUB PUSH2 0x1826 JUMPI DUP5 DUP10 DUP10 PUSH2 0x17B8 DUP8 PUSH1 0x2 PUSH2 0x5966 JUMP JUMPDEST DUP2 DUP2 LT PUSH2 0x17C7 JUMPI PUSH2 0x17C7 PUSH2 0x556E JUMP JUMPDEST SWAP1 POP PUSH1 0x20 MUL ADD CALLDATALOAD PUSH1 0x40 DUP2 LT PUSH2 0x17DE JUMPI PUSH2 0x17DE PUSH2 0x556E JUMP JUMPDEST PUSH1 0x20 MUL ADD MLOAD DUP6 DUP11 DUP11 PUSH2 0x17F1 DUP9 PUSH1 0x1 PUSH2 0x5966 JUMP JUMPDEST DUP2 DUP2 LT PUSH2 0x1800 JUMPI PUSH2 0x1800 PUSH2 0x556E JUMP JUMPDEST SWAP1 POP PUSH1 0x20 MUL ADD CALLDATALOAD PUSH1 0x40 DUP2 LT PUSH2 0x1817 JUMPI PUSH2 0x1817 PUSH2 0x556E JUMP JUMPDEST PUSH1 0x20 MUL ADD MLOAD PUSH2 0x16EF SWAP2 SWAP1 PUSH2 0x5B2C JUMP JUMPDEST PUSH1 0x4 DUP2 PUSH1 0xC DUP2 GT ISZERO PUSH2 0x183A JUMPI PUSH2 0x183A PUSH2 0x4B6B JUMP JUMPDEST SUB PUSH2 0x18BB JUMPI DUP5 DUP10 DUP10 PUSH2 0x184D DUP8 PUSH1 0x2 PUSH2 0x5966 JUMP JUMPDEST DUP2 DUP2 LT PUSH2 0x185C JUMPI PUSH2 0x185C PUSH2 0x556E JUMP JUMPDEST SWAP1 POP PUSH1 0x20 MUL ADD CALLDATALOAD PUSH1 0x40 DUP2 LT PUSH2 0x1873 JUMPI PUSH2 0x1873 PUSH2 0x556E JUMP JUMPDEST PUSH1 0x20 MUL ADD MLOAD DUP6 DUP11 DUP11 PUSH2 0x1886 DUP9 PUSH1 0x1 PUSH2 0x5966 JUMP JUMPDEST DUP2 DUP2 LT PUSH2 0x1895 JUMPI PUSH2 0x1895 PUSH2 0x556E JUMP JUMPDEST SWAP1 POP PUSH1 0x20 MUL ADD CALLDATALOAD PUSH1 0x40 DUP2 LT PUSH2 0x18AC JUMPI PUSH2 0x18AC PUSH2 0x556E JUMP JUMPDEST PUSH1 0x20 MUL ADD MLOAD PUSH2 0x16EF SWAP2 SWAP1 PUSH2 0x5B43 JUMP JUMPDEST PUSH1 0x5 DUP2 PUSH1 0xC DUP2 GT ISZERO PUSH2 0x18CF JUMPI PUSH2 0x18CF PUSH2 0x4B6B JUMP JUMPDEST SUB PUSH2 0x194F JUMPI PUSH2 0x16EF DUP6 DUP11 DUP11 PUSH2 0x18E5 DUP9 PUSH1 0x2 PUSH2 0x5966 JUMP JUMPDEST DUP2 DUP2 LT PUSH2 0x18F4 JUMPI PUSH2 0x18F4 PUSH2 0x556E JUMP JUMPDEST SWAP1 POP PUSH1 0x20 MUL ADD CALLDATALOAD PUSH1 0x40 DUP2 LT PUSH2 0x190B JUMPI PUSH2 0x190B PUSH2 0x556E JUMP JUMPDEST PUSH1 0x20 MUL ADD MLOAD DUP7 DUP12 DUP12 PUSH2 0x191E DUP10 PUSH1 0x1 PUSH2 0x5966 JUMP JUMPDEST DUP2 DUP2 LT PUSH2 0x192D JUMPI PUSH2 0x192D PUSH2 0x556E JUMP JUMPDEST SWAP1 POP PUSH1 0x20 MUL ADD CALLDATALOAD PUSH1 0x40 DUP2 LT PUSH2 0x1944 JUMPI PUSH2 0x1944 PUSH2 0x556E JUMP JUMPDEST PUSH1 0x20 MUL ADD MLOAD LT PUSH2 0x1C06 JUMP JUMPDEST PUSH1 0x6 DUP2 PUSH1 0xC DUP2 GT ISZERO PUSH2 0x1963 JUMPI PUSH2 0x1963 PUSH2 0x4B6B JUMP JUMPDEST SUB PUSH2 0x19E3 JUMPI PUSH2 0x16EF DUP6 DUP11 DUP11 PUSH2 0x1979 DUP9 PUSH1 0x2 PUSH2 0x5966 JUMP JUMPDEST DUP2 DUP2 LT PUSH2 0x1988 JUMPI PUSH2 0x1988 PUSH2 0x556E JUMP JUMPDEST SWAP1 POP PUSH1 0x20 MUL ADD CALLDATALOAD PUSH1 0x40 DUP2 LT PUSH2 0x199F JUMPI PUSH2 0x199F PUSH2 0x556E JUMP JUMPDEST PUSH1 0x20 MUL ADD MLOAD DUP7 DUP12 DUP12 PUSH2 0x19B2 DUP10 PUSH1 0x1 PUSH2 0x5966 JUMP JUMPDEST DUP2 DUP2 LT PUSH2 0x19C1 JUMPI PUSH2 0x19C1 PUSH2 0x556E JUMP JUMPDEST SWAP1 POP PUSH1 0x20 MUL ADD CALLDATALOAD PUSH1 0x40 DUP2 LT PUSH2 0x19D8 JUMPI PUSH2 0x19D8 PUSH2 0x556E JUMP JUMPDEST PUSH1 0x20 MUL ADD MLOAD GT PUSH2 0x1C06 JUMP JUMPDEST PUSH1 0x7 DUP2 PUSH1 0xC DUP2 GT ISZERO PUSH2 0x19F7 JUMPI PUSH2 0x19F7 PUSH2 0x4B6B JUMP JUMPDEST SUB PUSH2 0x1A77 JUMPI PUSH2 0x16EF DUP6 DUP11 DUP11 PUSH2 0x1A0D DUP9 PUSH1 0x2 PUSH2 0x5966 JUMP JUMPDEST DUP2 DUP2 LT PUSH2 0x1A1C JUMPI PUSH2 0x1A1C PUSH2 0x556E JUMP JUMPDEST SWAP1 POP PUSH1 0x20 MUL ADD CALLDATALOAD PUSH1 0x40 DUP2 LT PUSH2 0x1A33 JUMPI PUSH2 0x1A33 PUSH2 0x556E JUMP JUMPDEST PUSH1 0x20 MUL ADD MLOAD DUP7 DUP12 DUP12 PUSH2 0x1A46 DUP10 PUSH1 0x1 PUSH2 0x5966 JUMP JUMPDEST DUP2 DUP2 LT PUSH2 0x1A55 JUMPI PUSH2 0x1A55 PUSH2 0x556E JUMP JUMPDEST SWAP1 POP PUSH1 0x20 MUL ADD CALLDATALOAD PUSH1 0x40 DUP2 LT PUSH2 0x1A6C JUMPI PUSH2 0x1A6C PUSH2 0x556E JUMP JUMPDEST PUSH1 0x20 MUL ADD MLOAD EQ PUSH2 0x1C06 JUMP JUMPDEST PUSH1 0x8 DUP2 PUSH1 0xC DUP2 GT ISZERO PUSH2 0x1A8B JUMPI PUSH2 0x1A8B PUSH2 0x4B6B JUMP JUMPDEST SUB PUSH2 0x1AED JUMPI PUSH2 0x16EF PUSH2 0x1AD5 DUP7 DUP12 DUP12 PUSH2 0x1AA4 DUP10 PUSH1 0x1 PUSH2 0x5966 JUMP JUMPDEST DUP2 DUP2 LT PUSH2 0x1AB3 JUMPI PUSH2 0x1AB3 PUSH2 0x556E JUMP JUMPDEST SWAP1 POP PUSH1 0x20 MUL ADD CALLDATALOAD PUSH1 0x40 DUP2 LT PUSH2 0x1ACA JUMPI PUSH2 0x1ACA PUSH2 0x556E JUMP JUMPDEST PUSH1 0x20 MUL ADD MLOAD PUSH1 0x1 EQ SWAP1 JUMP JUMPDEST DUP1 ISZERO PUSH2 0x266 JUMPI POP PUSH2 0x266 DUP7 DUP12 DUP12 PUSH2 0x1AA4 DUP10 PUSH1 0x2 PUSH2 0x5966 JUMP JUMPDEST PUSH1 0x9 DUP2 PUSH1 0xC DUP2 GT ISZERO PUSH2 0x1B01 JUMPI PUSH2 0x1B01 PUSH2 0x4B6B JUMP JUMPDEST SUB PUSH2 0x1B31 JUMPI PUSH2 0x16EF PUSH2 0x1B1A DUP7 DUP12 DUP12 PUSH2 0x1AA4 DUP10 PUSH1 0x1 PUSH2 0x5966 JUMP JUMPDEST DUP1 PUSH2 0x266 JUMPI POP PUSH2 0x266 DUP7 DUP12 DUP12 PUSH2 0x1AA4 DUP10 PUSH1 0x2 PUSH2 0x5966 JUMP JUMPDEST PUSH1 0xA DUP2 PUSH1 0xC DUP2 GT ISZERO PUSH2 0x1B45 JUMPI PUSH2 0x1B45 PUSH2 0x4B6B JUMP JUMPDEST SUB PUSH2 0x1B71 JUMPI PUSH2 0x1B64 PUSH2 0x1B5E DUP7 DUP12 DUP12 PUSH2 0x1AA4 DUP10 PUSH1 0x1 PUSH2 0x5966 JUMP JUMPDEST ISZERO PUSH2 0x1C06 JUMP JUMPDEST SWAP2 POP PUSH2 0x1608 PUSH1 0x2 DUP6 PUSH2 0x5966 JUMP JUMPDEST PUSH1 0x40 MLOAD PUSH3 0x461BCD PUSH1 0xE5 SHL DUP2 MSTORE PUSH1 0x20 PUSH1 0x4 DUP3 ADD MSTORE PUSH1 0x13 PUSH1 0x24 DUP3 ADD MSTORE PUSH19 0x24B63632B3B0B61034B739BA393AB1BA34B7B7 PUSH1 0x69 SHL PUSH1 0x44 DUP3 ADD MSTORE PUSH1 0x64 ADD PUSH2 0xBFF JUMP JUMPDEST DUP2 DUP6 DUP5 PUSH1 0x40 DUP2 LT PUSH2 0x1BC2 JUMPI PUSH2 0x1BC2 PUSH2 0x556E JUMP JUMPDEST PUSH1 0x20 MUL ADD MSTORE PUSH2 0x1BD2 PUSH1 0x1 DUP5 PUSH2 0x5966 JUMP JUMPDEST SWAP3 POP POP POP PUSH2 0x1298 JUMP JUMPDEST PUSH2 0x1BFA DUP4 PUSH2 0x1BEA PUSH1 0x1 DUP5 PUSH2 0x5B19 JUMP JUMPDEST PUSH1 0x40 DUP2 LT PUSH2 0x1ACA JUMPI PUSH2 0x1ACA PUSH2 0x556E JUMP JUMPDEST SWAP9 SWAP8 POP POP POP POP POP POP POP POP JUMP JUMPDEST PUSH1 0x0 DUP2 PUSH2 0x1C14 JUMPI PUSH1 0x0 PUSH2 0x1C17 JUMP JUMPDEST PUSH1 0x1 JUMPDEST PUSH1 0xFF AND SWAP3 SWAP2 POP POP JUMP JUMPDEST PUSH1 0x1 PUSH1 0x0 JUMPDEST PUSH1 0x1 PUSH1 0x1 PUSH1 0xA0 SHL SUB DUP8 AND PUSH1 0x0 SWAP1 DUP2 MSTORE PUSH1 0x20 DUP2 SWAP1 MSTORE PUSH1 0x40 SWAP1 KECCAK256 SLOAD DUP2 LT ISZERO PUSH2 0x1C9A JUMPI PUSH1 0x1 PUSH1 0x1 PUSH1 0xA0 SHL SUB DUP8 AND PUSH1 0x0 SWAP1 DUP2 MSTORE PUSH1 0x20 DUP2 SWAP1 MSTORE PUSH1 0x40 SWAP1 KECCAK256 DUP1 SLOAD PUSH2 0x1C89 SWAP2 SWAP1 DUP4 SWAP1 DUP2 LT PUSH2 0x1C74 JUMPI PUSH2 0x1C74 PUSH2 0x556E JUMP JUMPDEST SWAP1 PUSH1 0x0 MSTORE PUSH1 0x20 PUSH1 0x0 KECCAK256 ADD SLOAD DUP9 DUP9 DUP9 DUP9 DUP9 PUSH2 0x2F65 JUMP JUMPDEST PUSH2 0x1C92 JUMPI PUSH1 0x0 SWAP2 POP JUMPDEST PUSH1 0x1 ADD PUSH2 0x1C25 JUMP JUMPDEST POP SWAP6 SWAP5 POP POP POP POP POP JUMP JUMPDEST DUP1 PUSH1 0x1 PUSH1 0x1 PUSH1 0x40 SHL SUB DUP2 GT ISZERO PUSH2 0x1CBC JUMPI PUSH2 0x1CBC PUSH2 0x42BD JUMP JUMPDEST PUSH1 0x40 MLOAD SWAP1 DUP1 DUP3 MSTORE DUP1 PUSH1 0x20 MUL PUSH1 0x20 ADD DUP3 ADD PUSH1 0x40 MSTORE DUP1 ISZERO PUSH2 0x1CE5 JUMPI DUP2 PUSH1 0x20 ADD PUSH1 0x20 DUP3 MUL DUP1 CALLDATASIZE DUP4 CALLDATACOPY ADD SWAP1 POP JUMPDEST POP PUSH1 0x1 PUSH1 0x1 PUSH1 0xA0 SHL SUB DUP5 AND PUSH1 0x0 SWAP1 DUP2 MSTORE PUSH1 0x20 DUP2 DUP2 MSTORE PUSH1 0x40 SWAP1 SWAP2 KECCAK256 DUP3 MLOAD PUSH2 0x1D11 SWAP4 SWAP2 SWAP3 SWAP2 SWAP1 SWAP2 ADD SWAP1 PUSH2 0x41ED JUMP JUMPDEST POP PUSH1 0x0 JUMPDEST DUP2 DUP2 LT ISZERO PUSH2 0x1D7F JUMPI DUP3 DUP3 DUP3 DUP2 DUP2 LT PUSH2 0x1D2F JUMPI PUSH2 0x1D2F PUSH2 0x556E JUMP JUMPDEST SWAP1 POP PUSH1 0x20 MUL ADD CALLDATALOAD PUSH1 0x0 DUP1 DUP7 PUSH1 0x1 PUSH1 0x1 PUSH1 0xA0 SHL SUB AND PUSH1 0x1 PUSH1 0x1 PUSH1 0xA0 SHL SUB AND DUP2 MSTORE PUSH1 0x20 ADD SWAP1 DUP2 MSTORE PUSH1 0x20 ADD PUSH1 0x0 KECCAK256 DUP3 DUP2 SLOAD DUP2 LT PUSH2 0x1D6B JUMPI PUSH2 0x1D6B PUSH2 0x556E JUMP JUMPDEST PUSH1 0x0 SWAP2 DUP3 MSTORE PUSH1 0x20 SWAP1 SWAP2 KECCAK256 ADD SSTORE PUSH1 0x1 ADD PUSH2 0x1D15 JUMP JUMPDEST POP POP POP POP JUMP JUMPDEST PUSH1 0x0 DUP7 DUP2 MSTORE PUSH1 0x5 PUSH1 0x20 MSTORE PUSH1 0x40 DUP2 KECCAK256 DUP1 SLOAD PUSH1 0xFF NOT AND PUSH1 0x1 OR SWAP1 SSTORE JUMPDEST PUSH1 0x0 DUP8 DUP2 MSTORE PUSH1 0x5 PUSH1 0x20 MSTORE PUSH1 0x40 SWAP1 KECCAK256 PUSH1 0x1 ADD SLOAD DUP2 LT ISZERO PUSH2 0x2045 JUMPI PUSH1 0x2 PUSH1 0x0 DUP9 DUP2 MSTORE PUSH1 0x5 PUSH1 0x20 MSTORE PUSH1 0x40 SWAP1 KECCAK256 PUSH1 0x1 ADD DUP1 SLOAD DUP4 SWAP1 DUP2 LT PUSH2 0x1DDD JUMPI PUSH2 0x1DDD PUSH2 0x556E JUMP JUMPDEST PUSH1 0x0 SWAP2 DUP3 MSTORE PUSH1 0x20 SWAP1 SWAP2 KECCAK256 PUSH1 0x2 SWAP1 SWAP2 MUL ADD SLOAD PUSH1 0xFF AND PUSH1 0x5 DUP2 GT ISZERO PUSH2 0x1E02 JUMPI PUSH2 0x1E02 PUSH2 0x4B6B JUMP JUMPDEST SUB PUSH2 0x1E67 JUMPI PUSH1 0x40 DUP1 MLOAD PUSH1 0x20 DUP2 ADD DUP9 SWAP1 MSTORE ADD JUMPDEST PUSH1 0x40 DUP1 MLOAD PUSH1 0x1F NOT DUP2 DUP5 SUB ADD DUP2 MSTORE SWAP2 DUP2 MSTORE PUSH1 0x0 DUP10 DUP2 MSTORE PUSH1 0x5 PUSH1 0x20 MSTORE KECCAK256 PUSH1 0x1 ADD DUP1 SLOAD DUP4 SWAP1 DUP2 LT PUSH2 0x1E44 JUMPI PUSH2 0x1E44 PUSH2 0x556E JUMP JUMPDEST SWAP1 PUSH1 0x0 MSTORE PUSH1 0x20 PUSH1 0x0 KECCAK256 SWAP1 PUSH1 0x2 MUL ADD PUSH1 0x1 ADD SWAP1 DUP2 PUSH2 0x1E61 SWAP2 SWAP1 PUSH2 0x5A61 JUMP JUMPDEST POP PUSH2 0x203D JUMP JUMPDEST PUSH1 0x0 DUP8 DUP2 MSTORE PUSH1 0x5 PUSH1 0x20 MSTORE PUSH1 0x40 DUP2 KECCAK256 PUSH1 0x1 ADD DUP1 SLOAD DUP4 SWAP1 DUP2 LT PUSH2 0x1E8A JUMPI PUSH2 0x1E8A PUSH2 0x556E JUMP JUMPDEST PUSH1 0x0 SWAP2 DUP3 MSTORE PUSH1 0x20 SWAP1 SWAP2 KECCAK256 PUSH1 0x2 SWAP1 SWAP2 MUL ADD SLOAD PUSH1 0xFF AND PUSH1 0x5 DUP2 GT ISZERO PUSH2 0x1EAF JUMPI PUSH2 0x1EAF PUSH2 0x4B6B JUMP JUMPDEST SUB PUSH2 0x1ECD JUMPI PUSH1 0x40 DUP1 MLOAD PUSH1 0x1 PUSH1 0x1 PUSH1 0xA0 SHL SUB DUP8 AND PUSH1 0x20 DUP3 ADD MSTORE ADD PUSH2 0x1E14 JUMP JUMPDEST PUSH1 0x1 PUSH1 0x0 DUP9 DUP2 MSTORE PUSH1 0x5 PUSH1 0x20 MSTORE PUSH1 0x40 SWAP1 KECCAK256 PUSH1 0x1 ADD DUP1 SLOAD DUP4 SWAP1 DUP2 LT PUSH2 0x1EF2 JUMPI PUSH2 0x1EF2 PUSH2 0x556E JUMP JUMPDEST PUSH1 0x0 SWAP2 DUP3 MSTORE PUSH1 0x20 SWAP1 SWAP2 KECCAK256 PUSH1 0x2 SWAP1 SWAP2 MUL ADD SLOAD PUSH1 0xFF AND PUSH1 0x5 DUP2 GT ISZERO PUSH2 0x1F17 JUMPI PUSH2 0x1F17 PUSH2 0x4B6B JUMP JUMPDEST SUB PUSH2 0x1F2D JUMPI DUP4 PUSH1 0x40 MLOAD PUSH1 0x20 ADD PUSH2 0x1E14 SWAP2 SWAP1 PUSH2 0x59E7 JUMP JUMPDEST PUSH1 0x3 PUSH1 0x0 DUP9 DUP2 MSTORE PUSH1 0x5 PUSH1 0x20 MSTORE PUSH1 0x40 SWAP1 KECCAK256 PUSH1 0x1 ADD DUP1 SLOAD DUP4 SWAP1 DUP2 LT PUSH2 0x1F52 JUMPI PUSH2 0x1F52 PUSH2 0x556E JUMP JUMPDEST PUSH1 0x0 SWAP2 DUP3 MSTORE PUSH1 0x20 SWAP1 SWAP2 KECCAK256 PUSH1 0x2 SWAP1 SWAP2 MUL ADD SLOAD PUSH1 0xFF AND PUSH1 0x5 DUP2 GT ISZERO PUSH2 0x1F77 JUMPI PUSH2 0x1F77 PUSH2 0x4B6B JUMP JUMPDEST SUB PUSH2 0x1F8E JUMPI PUSH1 0x40 DUP1 MLOAD DUP5 ISZERO ISZERO PUSH1 0x20 DUP3 ADD MSTORE ADD PUSH2 0x1E14 JUMP JUMPDEST PUSH1 0x5 PUSH1 0x0 DUP9 DUP2 MSTORE PUSH1 0x5 PUSH1 0x20 MSTORE PUSH1 0x40 SWAP1 KECCAK256 PUSH1 0x1 ADD DUP1 SLOAD DUP4 SWAP1 DUP2 LT PUSH2 0x1FB3 JUMPI PUSH2 0x1FB3 PUSH2 0x556E JUMP JUMPDEST PUSH1 0x0 SWAP2 DUP3 MSTORE PUSH1 0x20 SWAP1 SWAP2 KECCAK256 PUSH1 0x2 SWAP1 SWAP2 MUL ADD SLOAD PUSH1 0xFF AND PUSH1 0x5 DUP2 GT ISZERO PUSH2 0x1FD8 JUMPI PUSH2 0x1FD8 PUSH2 0x4B6B JUMP JUMPDEST SUB PUSH2 0x203D JUMPI DUP2 PUSH1 0x40 MLOAD PUSH1 0x20 ADD PUSH2 0x1FEE SWAP2 SWAP1 PUSH2 0x59E7 JUMP JUMPDEST PUSH1 0x40 DUP1 MLOAD PUSH1 0x1F NOT DUP2 DUP5 SUB ADD DUP2 MSTORE SWAP2 DUP2 MSTORE PUSH1 0x0 DUP10 DUP2 MSTORE PUSH1 0x5 PUSH1 0x20 MSTORE KECCAK256 PUSH1 0x1 ADD DUP1 SLOAD DUP4 SWAP1 DUP2 LT PUSH2 0x201E JUMPI PUSH2 0x201E PUSH2 0x556E JUMP JUMPDEST SWAP1 PUSH1 0x0 MSTORE PUSH1 0x20 PUSH1 0x0 KECCAK256 SWAP1 PUSH1 0x2 MUL ADD PUSH1 0x1 ADD SWAP1 DUP2 PUSH2 0x203B SWAP2 SWAP1 PUSH2 0x5A61 JUMP JUMPDEST POP JUMPDEST PUSH1 0x1 ADD PUSH2 0x1D9F JUMP JUMPDEST POP POP POP POP POP POP POP JUMP JUMPDEST PUSH1 0x0 DUP2 CALLDATALOAD ISZERO PUSH2 0x207C JUMPI DUP2 CALLDATALOAD PUSH1 0x0 SWAP1 DUP2 MSTORE PUSH1 0xC PUSH1 0x20 MSTORE PUSH1 0x40 SWAP1 KECCAK256 DUP3 SWAP1 PUSH2 0x2073 DUP3 DUP3 PUSH2 0x5BE0 JUMP JUMPDEST POP POP SWAP1 CALLDATALOAD SWAP2 SWAP1 POP JUMP JUMPDEST PUSH1 0xD DUP1 SLOAD SWAP1 PUSH1 0x0 PUSH2 0x208C DUP4 PUSH2 0x559A JUMP JUMPDEST SWAP1 SWAP2 SSTORE POP POP PUSH1 0xD SLOAD PUSH1 0x0 SWAP1 DUP2 MSTORE PUSH1 0xC PUSH1 0x20 MSTORE PUSH1 0x40 SWAP1 KECCAK256 DUP3 SWAP1 PUSH2 0x20AE DUP3 DUP3 PUSH2 0x5BE0 JUMP JUMPDEST POP POP PUSH1 0xD SLOAD SWAP3 SWAP2 POP POP JUMP JUMPDEST PUSH1 0x0 DUP4 PUSH1 0x0 SUB PUSH2 0x20D1 JUMPI PUSH1 0xB DUP1 SLOAD PUSH1 0x1 ADD SWAP1 SSTORE PUSH2 0x20D7 JUMP JUMPDEST PUSH1 0xB DUP5 SWAP1 SSTORE JUMPDEST PUSH1 0xB DUP1 SLOAD PUSH1 0x0 SWAP1 DUP2 MSTORE PUSH1 0x3 PUSH1 0x20 SWAP1 DUP2 MSTORE PUSH1 0x40 DUP1 DUP4 KECCAK256 DUP1 SLOAD PUSH1 0x1 PUSH1 0xFF NOT SWAP1 SWAP2 AND DUP2 OR SWAP1 SWAP2 SSTORE DUP5 SLOAD DUP5 MSTORE DUP2 DUP5 KECCAK256 DUP1 SLOAD PUSH5 0xFFFFFFFF00 NOT AND PUSH2 0x100 PUSH1 0xE0 DUP12 SWAP1 SHR MUL OR SWAP1 SSTORE SWAP4 SLOAD DUP4 MSTORE SWAP1 SWAP2 KECCAK256 DUP5 MLOAD PUSH2 0x2132 SWAP4 SWAP2 SWAP1 SWAP2 ADD SWAP2 DUP6 ADD SWAP1 PUSH2 0x40CD JUMP JUMPDEST POP POP PUSH1 0xB SLOAD SWAP4 SWAP3 POP POP POP JUMP JUMPDEST PUSH2 0x2146 PUSH2 0x41BC JUMP JUMPDEST PUSH1 0x0 JUMPDEST PUSH1 0x0 DUP8 DUP2 MSTORE PUSH1 0x4 PUSH1 0x20 MSTORE PUSH1 0x40 SWAP1 KECCAK256 PUSH1 0x1 ADD SLOAD DUP2 LT ISZERO PUSH2 0x1C9A JUMPI DUP6 DUP4 DUP2 MLOAD DUP2 LT PUSH2 0x2174 JUMPI PUSH2 0x2174 PUSH2 0x556E JUMP JUMPDEST PUSH1 0x20 MUL PUSH1 0x20 ADD ADD MLOAD PUSH1 0x20 ADD MLOAD PUSH1 0x4 PUSH1 0x0 DUP10 DUP2 MSTORE PUSH1 0x20 ADD SWAP1 DUP2 MSTORE PUSH1 0x20 ADD PUSH1 0x0 KECCAK256 PUSH1 0x1 ADD DUP3 DUP2 SLOAD DUP2 LT PUSH2 0x21A7 JUMPI PUSH2 0x21A7 PUSH2 0x556E JUMP JUMPDEST SWAP1 PUSH1 0x0 MSTORE PUSH1 0x20 PUSH1 0x0 KECCAK256 SWAP1 PUSH1 0x4 MUL ADD PUSH1 0x1 ADD SLOAD SUB PUSH2 0x230A JUMPI PUSH1 0x0 DUP8 DUP2 MSTORE PUSH1 0x4 PUSH1 0x20 MSTORE PUSH1 0x40 DUP2 KECCAK256 PUSH1 0x1 ADD DUP1 SLOAD PUSH2 0x2300 SWAP2 SWAP1 DUP5 SWAP1 DUP2 LT PUSH2 0x21E6 JUMPI PUSH2 0x21E6 PUSH2 0x556E JUMP JUMPDEST PUSH1 0x0 SWAP2 DUP3 MSTORE PUSH1 0x20 SWAP2 DUP3 SWAP1 KECCAK256 PUSH1 0x40 DUP1 MLOAD PUSH1 0xA0 DUP2 ADD DUP3 MSTORE PUSH1 0x4 SWAP1 SWAP4 MUL SWAP1 SWAP2 ADD DUP1 SLOAD PUSH1 0x1 PUSH1 0x1 PUSH1 0xA0 SHL SUB AND DUP4 MSTORE PUSH1 0x1 DUP2 ADD SLOAD SWAP4 DUP4 ADD SWAP4 SWAP1 SWAP4 MSTORE PUSH1 0x2 DUP4 ADD SLOAD PUSH1 0x1 PUSH1 0x1 PUSH1 0xE0 SHL SUB NOT PUSH1 0xE0 DUP3 SWAP1 SHL AND SWAP2 DUP4 ADD SWAP2 SWAP1 SWAP2 MSTORE SWAP1 SWAP2 SWAP1 PUSH1 0x60 DUP4 ADD SWAP1 PUSH1 0xFF PUSH5 0x100000000 SWAP1 SWAP2 DIV AND PUSH1 0x5 DUP2 GT ISZERO PUSH2 0x225C JUMPI PUSH2 0x225C PUSH2 0x4B6B JUMP JUMPDEST PUSH1 0x5 DUP2 GT ISZERO PUSH2 0x226D JUMPI PUSH2 0x226D PUSH2 0x4B6B JUMP JUMPDEST DUP2 MSTORE PUSH1 0x20 ADD PUSH1 0x3 DUP3 ADD DUP1 SLOAD DUP1 PUSH1 0x20 MUL PUSH1 0x20 ADD PUSH1 0x40 MLOAD SWAP1 DUP2 ADD PUSH1 0x40 MSTORE DUP1 SWAP3 SWAP2 SWAP1 DUP2 DUP2 MSTORE PUSH1 0x20 ADD DUP3 DUP1 SLOAD DUP1 ISZERO PUSH2 0x22F0 JUMPI PUSH1 0x20 MUL DUP3 ADD SWAP2 SWAP1 PUSH1 0x0 MSTORE PUSH1 0x20 PUSH1 0x0 KECCAK256 SWAP1 PUSH1 0x0 SWAP1 JUMPDEST DUP3 DUP3 SWAP1 SLOAD SWAP1 PUSH2 0x100 EXP SWAP1 DIV PUSH1 0xFF AND PUSH1 0x5 DUP2 GT ISZERO PUSH2 0x22CE JUMPI PUSH2 0x22CE PUSH2 0x4B6B JUMP JUMPDEST DUP2 MSTORE PUSH1 0x20 PUSH1 0x1 SWAP3 DUP4 ADD DUP2 DUP2 DIV SWAP5 DUP6 ADD SWAP5 SWAP1 SWAP4 SUB SWAP1 SWAP3 MUL SWAP2 ADD DUP1 DUP5 GT PUSH2 0x22AF JUMPI SWAP1 POP JUMPDEST POP POP POP POP POP DUP2 MSTORE POP POP DUP8 DUP8 PUSH2 0x3A1E JUMP JUMPDEST SWAP3 POP PUSH2 0x2312 SWAP2 POP POP JUMP JUMPDEST PUSH1 0x1 ADD PUSH2 0x2149 JUMP JUMPDEST SWAP6 SWAP5 POP POP POP POP POP JUMP JUMPDEST PUSH1 0x40 DUP1 MLOAD DUP1 DUP3 ADD SWAP1 SWAP2 MSTORE PUSH1 0x0 DUP1 DUP3 MSTORE PUSH1 0x20 DUP3 ADD MSTORE PUSH1 0x0 DUP1 PUSH2 0x233E DUP6 DUP6 PUSH1 0x0 PUSH2 0x261D JUMP JUMPDEST SWAP2 POP SWAP2 POP DUP1 DUP1 PUSH1 0x20 ADD SWAP1 MLOAD DUP2 ADD SWAP1 PUSH2 0x2356 SWAP2 SWAP1 PUSH2 0x5CF0 JUMP JUMPDEST PUSH1 0x1 PUSH1 0x1 PUSH1 0xA0 SHL SUB AND PUSH1 0x20 DUP5 ADD MSTORE POP DUP2 MSTORE SWAP3 SWAP2 POP POP JUMP JUMPDEST PUSH1 0x0 JUMPDEST DUP4 DUP2 LT ISZERO PUSH2 0x417 JUMPI PUSH1 0x0 DUP6 DUP6 DUP4 DUP2 DUP2 LT PUSH2 0x238C JUMPI PUSH2 0x238C PUSH2 0x556E JUMP JUMPDEST SWAP1 POP PUSH1 0x20 MUL ADD CALLDATALOAD GT ISZERO PUSH2 0x257C JUMPI PUSH1 0x0 PUSH1 0xC PUSH1 0x0 DUP8 DUP8 DUP6 DUP2 DUP2 LT PUSH2 0x23B1 JUMPI PUSH2 0x23B1 PUSH2 0x556E JUMP JUMPDEST SWAP1 POP PUSH1 0x20 MUL ADD CALLDATALOAD DUP2 MSTORE PUSH1 0x20 ADD SWAP1 DUP2 MSTORE PUSH1 0x20 ADD PUSH1 0x0 KECCAK256 PUSH1 0x40 MLOAD DUP1 PUSH1 0x80 ADD PUSH1 0x40 MSTORE SWAP1 DUP2 PUSH1 0x0 DUP3 ADD SLOAD DUP2 MSTORE PUSH1 0x20 ADD PUSH1 0x1 DUP3 ADD PUSH1 0x0 SWAP1 SLOAD SWAP1 PUSH2 0x100 EXP SWAP1 DIV PUSH1 0xFF AND PUSH1 0x2 DUP2 GT ISZERO PUSH2 0x23FF JUMPI PUSH2 0x23FF PUSH2 0x4B6B JUMP JUMPDEST PUSH1 0x2 DUP2 GT ISZERO PUSH2 0x2410 JUMPI PUSH2 0x2410 PUSH2 0x4B6B JUMP JUMPDEST DUP2 MSTORE PUSH1 0x20 ADD PUSH1 0x2 DUP3 ADD DUP1 SLOAD PUSH2 0x2424 SWAP1 PUSH2 0x55B3 JUMP JUMPDEST DUP1 PUSH1 0x1F ADD PUSH1 0x20 DUP1 SWAP2 DIV MUL PUSH1 0x20 ADD PUSH1 0x40 MLOAD SWAP1 DUP2 ADD PUSH1 0x40 MSTORE DUP1 SWAP3 SWAP2 SWAP1 DUP2 DUP2 MSTORE PUSH1 0x20 ADD DUP3 DUP1 SLOAD PUSH2 0x2450 SWAP1 PUSH2 0x55B3 JUMP JUMPDEST DUP1 ISZERO PUSH2 0x249D JUMPI DUP1 PUSH1 0x1F LT PUSH2 0x2472 JUMPI PUSH2 0x100 DUP1 DUP4 SLOAD DIV MUL DUP4 MSTORE SWAP2 PUSH1 0x20 ADD SWAP2 PUSH2 0x249D JUMP JUMPDEST DUP3 ADD SWAP2 SWAP1 PUSH1 0x0 MSTORE PUSH1 0x20 PUSH1 0x0 KECCAK256 SWAP1 JUMPDEST DUP2 SLOAD DUP2 MSTORE SWAP1 PUSH1 0x1 ADD SWAP1 PUSH1 0x20 ADD DUP1 DUP4 GT PUSH2 0x2480 JUMPI DUP3 SWAP1 SUB PUSH1 0x1F AND DUP3 ADD SWAP2 JUMPDEST POP POP POP POP POP DUP2 MSTORE PUSH1 0x20 ADD PUSH1 0x3 DUP3 ADD DUP1 SLOAD DUP1 PUSH1 0x20 MUL PUSH1 0x20 ADD PUSH1 0x40 MLOAD SWAP1 DUP2 ADD PUSH1 0x40 MSTORE DUP1 SWAP3 SWAP2 SWAP1 DUP2 DUP2 MSTORE PUSH1 0x20 ADD DUP3 DUP1 SLOAD DUP1 ISZERO PUSH2 0x24F5 JUMPI PUSH1 0x20 MUL DUP3 ADD SWAP2 SWAP1 PUSH1 0x0 MSTORE PUSH1 0x20 PUSH1 0x0 KECCAK256 SWAP1 JUMPDEST DUP2 SLOAD DUP2 MSTORE PUSH1 0x20 ADD SWAP1 PUSH1 0x1 ADD SWAP1 DUP1 DUP4 GT PUSH2 0x24E1 JUMPI JUMPDEST POP POP POP POP POP DUP2 MSTORE POP POP SWAP1 POP PUSH1 0x0 PUSH1 0x2 DUP2 GT ISZERO PUSH2 0x2513 JUMPI PUSH2 0x2513 PUSH2 0x4B6B JUMP JUMPDEST DUP2 PUSH1 0x20 ADD MLOAD PUSH1 0x2 DUP2 GT ISZERO PUSH2 0x2529 JUMPI PUSH2 0x2529 PUSH2 0x4B6B JUMP JUMPDEST SUB PUSH2 0x2540 JUMPI PUSH2 0x253B DUP2 PUSH1 0x40 ADD MLOAD PUSH2 0x3E2B JUMP JUMPDEST PUSH2 0x257A JUMP JUMPDEST PUSH1 0x1 DUP2 PUSH1 0x20 ADD MLOAD PUSH1 0x2 DUP2 GT ISZERO PUSH2 0x2558 JUMPI PUSH2 0x2558 PUSH2 0x4B6B JUMP JUMPDEST SUB PUSH2 0x256A JUMPI PUSH2 0x253B DUP2 PUSH1 0x40 ADD MLOAD PUSH2 0x3E45 JUMP JUMPDEST PUSH2 0x257A DUP8 DUP6 DUP6 DUP5 PUSH1 0x60 ADD MLOAD PUSH2 0x38B JUMP JUMPDEST POP JUMPDEST PUSH1 0x1 ADD PUSH2 0x2370 JUMP JUMPDEST PUSH1 0x0 DUP3 PUSH1 0x0 SUB PUSH2 0x259C JUMPI PUSH1 0xA DUP1 SLOAD PUSH1 0x1 ADD SWAP1 SSTORE PUSH2 0x25A2 JUMP JUMPDEST PUSH1 0xA DUP4 SWAP1 SSTORE JUMPDEST PUSH1 0xA DUP1 SLOAD PUSH1 0x0 SWAP1 DUP2 MSTORE PUSH1 0x2 PUSH1 0x20 MSTORE PUSH1 0x40 DUP1 DUP3 KECCAK256 DUP1 SLOAD PUSH1 0xFF NOT AND PUSH1 0x1 SWAP1 DUP2 OR SWAP1 SWAP2 SSTORE SWAP3 SLOAD DUP3 MSTORE SWAP1 KECCAK256 DUP4 SWAP2 ADD PUSH2 0x25D6 DUP3 DUP3 PUSH2 0x6535 JUMP JUMPDEST POP POP PUSH1 0xA SLOAD SWAP4 SWAP3 POP POP POP JUMP JUMPDEST PUSH1 0x0 DUP3 DUP2 MSTORE PUSH1 0x5 PUSH1 0x20 SWAP1 DUP2 MSTORE PUSH1 0x40 DUP3 KECCAK256 DUP1 SLOAD PUSH1 0xFF NOT AND PUSH1 0x1 SWAP1 DUP2 OR DUP3 SSTORE SWAP1 DUP2 ADD DUP1 SLOAD SWAP2 DUP3 ADD DUP2 SSTORE DUP4 MSTORE SWAP2 KECCAK256 DUP3 SWAP2 PUSH1 0x2 MUL ADD PUSH2 0x1D7F DUP3 DUP3 PUSH2 0x6682 JUMP JUMPDEST PUSH1 0x0 DUP4 DUP2 MSTORE PUSH1 0x2 PUSH1 0x20 SWAP1 DUP2 MSTORE PUSH1 0x40 DUP1 DUP4 KECCAK256 DUP2 MLOAD DUP1 DUP4 ADD DUP4 MSTORE DUP2 SLOAD PUSH1 0xFF AND ISZERO ISZERO DUP2 MSTORE DUP3 MLOAD PUSH1 0x1 DUP4 ADD DUP1 SLOAD PUSH2 0x120 DUP2 DUP9 MUL DUP5 ADD DUP2 ADD SWAP1 SWAP7 MSTORE PUSH2 0x100 DUP4 ADD DUP2 DUP2 MSTORE PUSH1 0x60 SWAP8 DUP10 SWAP8 SWAP6 SWAP7 SWAP6 SWAP1 DUP8 ADD SWAP5 SWAP4 SWAP3 DUP5 SWAP3 SWAP2 DUP5 SWAP2 SWAP1 DUP5 ADD DUP3 DUP3 DUP1 ISZERO PUSH2 0x269E JUMPI PUSH1 0x20 MUL DUP3 ADD SWAP2 SWAP1 PUSH1 0x0 MSTORE PUSH1 0x20 PUSH1 0x0 KECCAK256 SWAP1 JUMPDEST DUP2 SLOAD DUP2 MSTORE PUSH1 0x20 ADD SWAP1 PUSH1 0x1 ADD SWAP1 DUP1 DUP4 GT PUSH2 0x268A JUMPI JUMPDEST POP POP POP POP POP DUP2 MSTORE PUSH1 0x20 ADD PUSH1 0x1 DUP3 ADD PUSH1 0x40 MLOAD DUP1 PUSH1 0x60 ADD PUSH1 0x40 MSTORE SWAP1 DUP2 PUSH1 0x0 DUP3 ADD DUP1 SLOAD DUP1 PUSH1 0x20 MUL PUSH1 0x20 ADD PUSH1 0x40 MLOAD SWAP1 DUP2 ADD PUSH1 0x40 MSTORE DUP1 SWAP3 SWAP2 SWAP1 DUP2 DUP2 MSTORE PUSH1 0x20 ADD DUP3 DUP1 SLOAD DUP1 ISZERO PUSH2 0x2706 JUMPI PUSH1 0x20 MUL DUP3 ADD SWAP2 SWAP1 PUSH1 0x0 MSTORE PUSH1 0x20 PUSH1 0x0 KECCAK256 SWAP1 JUMPDEST DUP2 SLOAD DUP2 MSTORE PUSH1 0x20 ADD SWAP1 PUSH1 0x1 ADD SWAP1 DUP1 DUP4 GT PUSH2 0x26F2 JUMPI JUMPDEST POP POP POP POP POP DUP2 MSTORE PUSH1 0x20 ADD PUSH1 0x1 DUP3 ADD DUP1 SLOAD DUP1 PUSH1 0x20 MUL PUSH1 0x20 ADD PUSH1 0x40 MLOAD SWAP1 DUP2 ADD PUSH1 0x40 MSTORE DUP1 SWAP3 SWAP2 SWAP1 DUP2 DUP2 MSTORE PUSH1 0x20 ADD DUP3 DUP1 SLOAD DUP1 ISZERO PUSH2 0x278E JUMPI PUSH1 0x20 MUL DUP3 ADD SWAP2 SWAP1 PUSH1 0x0 MSTORE PUSH1 0x20 PUSH1 0x0 KECCAK256 SWAP1 PUSH1 0x0 SWAP1 JUMPDEST DUP3 DUP3 SWAP1 SLOAD SWAP1 PUSH2 0x100 EXP SWAP1 DIV PUSH1 0xFF AND PUSH1 0x5 DUP2 GT ISZERO PUSH2 0x276C JUMPI PUSH2 0x276C PUSH2 0x4B6B JUMP JUMPDEST DUP2 MSTORE PUSH1 0x20 PUSH1 0x1 SWAP3 DUP4 ADD DUP2 DUP2 DIV SWAP5 DUP6 ADD SWAP5 SWAP1 SWAP4 SUB SWAP1 SWAP3 MUL SWAP2 ADD DUP1 DUP5 GT PUSH2 0x274D JUMPI SWAP1 POP JUMPDEST POP POP POP POP POP DUP2 MSTORE PUSH1 0x20 ADD PUSH1 0x2 DUP3 ADD DUP1 SLOAD DUP1 PUSH1 0x20 MUL PUSH1 0x20 ADD PUSH1 0x40 MLOAD SWAP1 DUP2 ADD PUSH1 0x40 MSTORE DUP1 SWAP3 SWAP2 SWAP1 DUP2 DUP2 MSTORE PUSH1 0x20 ADD PUSH1 0x0 SWAP1 JUMPDEST DUP3 DUP3 LT ISZERO PUSH2 0x2868 JUMPI DUP4 DUP3 SWAP1 PUSH1 0x0 MSTORE PUSH1 0x20 PUSH1 0x0 KECCAK256 ADD DUP1 SLOAD PUSH2 0x27DB SWAP1 PUSH2 0x55B3 JUMP JUMPDEST DUP1 PUSH1 0x1F ADD PUSH1 0x20 DUP1 SWAP2 DIV MUL PUSH1 0x20 ADD PUSH1 0x40 MLOAD SWAP1 DUP2 ADD PUSH1 0x40 MSTORE DUP1 SWAP3 SWAP2 SWAP1 DUP2 DUP2 MSTORE PUSH1 0x20 ADD DUP3 DUP1 SLOAD PUSH2 0x2807 SWAP1 PUSH2 0x55B3 JUMP JUMPDEST DUP1 ISZERO PUSH2 0x2854 JUMPI DUP1 PUSH1 0x1F LT PUSH2 0x2829 JUMPI PUSH2 0x100 DUP1 DUP4 SLOAD DIV MUL DUP4 MSTORE SWAP2 PUSH1 0x20 ADD SWAP2 PUSH2 0x2854 JUMP JUMPDEST DUP3 ADD SWAP2 SWAP1 PUSH1 0x0 MSTORE PUSH1 0x20 PUSH1 0x0 KECCAK256 SWAP1 JUMPDEST DUP2 SLOAD DUP2 MSTORE SWAP1 PUSH1 0x1 ADD SWAP1 PUSH1 0x20 ADD DUP1 DUP4 GT PUSH2 0x2837 JUMPI DUP3 SWAP1 SUB PUSH1 0x1F AND DUP3 ADD SWAP2 JUMPDEST POP POP POP POP POP DUP2 MSTORE PUSH1 0x20 ADD SWAP1 PUSH1 0x1 ADD SWAP1 PUSH2 0x27BC JUMP JUMPDEST POP POP POP POP DUP2 MSTORE POP POP DUP2 MSTORE PUSH1 0x20 ADD PUSH1 0x4 DUP3 ADD DUP1 SLOAD DUP1 PUSH1 0x20 MUL PUSH1 0x20 ADD PUSH1 0x40 MLOAD SWAP1 DUP2 ADD PUSH1 0x40 MSTORE DUP1 SWAP3 SWAP2 SWAP1 DUP2 DUP2 MSTORE PUSH1 0x20 ADD PUSH1 0x0 SWAP1 JUMPDEST DUP3 DUP3 LT ISZERO PUSH2 0x2926 JUMPI PUSH1 0x0 DUP5 DUP2 MSTORE PUSH1 0x20 SWAP1 KECCAK256 PUSH1 0x40 DUP1 MLOAD PUSH1 0x80 DUP2 ADD SWAP1 SWAP2 MSTORE PUSH1 0x3 DUP5 MUL SWAP1 SWAP2 ADD DUP1 SLOAD DUP3 SWAP1 PUSH1 0xFF AND PUSH1 0x5 DUP2 GT ISZERO PUSH2 0x28D4 JUMPI PUSH2 0x28D4 PUSH2 0x4B6B JUMP JUMPDEST PUSH1 0x5 DUP2 GT ISZERO PUSH2 0x28E5 JUMPI PUSH2 0x28E5 PUSH2 0x4B6B JUMP JUMPDEST DUP2 MSTORE PUSH1 0x1 DUP3 DUP2 ADD SLOAD PUSH1 0x20 DUP1 DUP5 ADD SWAP2 SWAP1 SWAP2 MSTORE PUSH1 0x2 SWAP1 SWAP4 ADD SLOAD PUSH1 0xFF DUP1 DUP3 AND ISZERO ISZERO PUSH1 0x40 DUP6 ADD MSTORE PUSH2 0x100 SWAP1 SWAP2 DIV AND ISZERO ISZERO PUSH1 0x60 SWAP1 SWAP3 ADD SWAP2 SWAP1 SWAP2 MSTORE SWAP2 DUP4 MSTORE SWAP3 ADD SWAP2 ADD PUSH2 0x2899 JUMP JUMPDEST POP POP POP POP DUP2 MSTORE PUSH1 0x20 ADD PUSH1 0x5 DUP3 ADD DUP1 SLOAD DUP1 PUSH1 0x20 MUL PUSH1 0x20 ADD PUSH1 0x40 MLOAD SWAP1 DUP2 ADD PUSH1 0x40 MSTORE DUP1 SWAP3 SWAP2 SWAP1 DUP2 DUP2 MSTORE PUSH1 0x20 ADD PUSH1 0x0 SWAP1 JUMPDEST DUP3 DUP3 LT ISZERO PUSH2 0x29E0 JUMPI PUSH1 0x0 DUP5 DUP2 MSTORE PUSH1 0x20 SWAP1 KECCAK256 PUSH1 0x40 DUP1 MLOAD PUSH1 0x80 DUP2 ADD SWAP1 SWAP2 MSTORE PUSH1 0x3 DUP5 MUL SWAP1 SWAP2 ADD DUP1 SLOAD DUP3 SWAP1 PUSH1 0xFF AND PUSH1 0x5 DUP2 GT ISZERO PUSH2 0x298E JUMPI PUSH2 0x298E PUSH2 0x4B6B JUMP JUMPDEST PUSH1 0x5 DUP2 GT ISZERO PUSH2 0x299F JUMPI PUSH2 0x299F PUSH2 0x4B6B JUMP JUMPDEST DUP2 MSTORE PUSH1 0x1 DUP3 DUP2 ADD SLOAD PUSH1 0x20 DUP1 DUP5 ADD SWAP2 SWAP1 SWAP2 MSTORE PUSH1 0x2 SWAP1 SWAP4 ADD SLOAD PUSH1 0xFF DUP1 DUP3 AND ISZERO ISZERO PUSH1 0x40 DUP6 ADD MSTORE PUSH2 0x100 SWAP1 SWAP2 DIV AND ISZERO ISZERO PUSH1 0x60 SWAP1 SWAP3 ADD SWAP2 SWAP1 SWAP2 MSTORE SWAP2 DUP4 MSTORE SWAP3 ADD SWAP2 ADD PUSH2 0x2953 JUMP JUMPDEST POP POP POP POP DUP2 MSTORE PUSH1 0x20 ADD PUSH1 0x6 DUP3 ADD DUP1 SLOAD DUP1 PUSH1 0x20 MUL PUSH1 0x20 ADD PUSH1 0x40 MLOAD SWAP1 DUP2 ADD PUSH1 0x40 MSTORE DUP1 SWAP3 SWAP2 SWAP1 DUP2 DUP2 MSTORE PUSH1 0x20 ADD PUSH1 0x0 SWAP1 JUMPDEST DUP3 DUP3 LT ISZERO PUSH2 0x2B4D JUMPI DUP4 DUP3 SWAP1 PUSH1 0x0 MSTORE PUSH1 0x20 PUSH1 0x0 KECCAK256 SWAP1 PUSH1 0x2 MUL ADD PUSH1 0x40 MLOAD DUP1 PUSH1 0x40 ADD PUSH1 0x40 MSTORE SWAP1 DUP2 PUSH1 0x0 DUP3 ADD SLOAD DUP2 MSTORE PUSH1 0x20 ADD PUSH1 0x1 DUP3 ADD DUP1 SLOAD DUP1 PUSH1 0x20 MUL PUSH1 0x20 ADD PUSH1 0x40 MLOAD SWAP1 DUP2 ADD PUSH1 0x40 MSTORE DUP1 SWAP3 SWAP2 SWAP1 DUP2 DUP2 MSTORE PUSH1 0x20 ADD PUSH1 0x0 SWAP1 JUMPDEST DUP3 DUP3 LT ISZERO PUSH2 0x2B36 JUMPI PUSH1 0x0 DUP5 DUP2 MSTORE PUSH1 0x20 SWAP1 KECCAK256 PUSH1 0x40 DUP1 MLOAD DUP1 DUP3 ADD SWAP1 SWAP2 MSTORE PUSH1 0x4 DUP5 MUL SWAP1 SWAP2 ADD DUP1 SLOAD DUP3 SWAP1 PUSH1 0xFF AND PUSH1 0x5 DUP2 GT ISZERO PUSH2 0x2A99 JUMPI PUSH2 0x2A99 PUSH2 0x4B6B JUMP JUMPDEST PUSH1 0x5 DUP2 GT ISZERO PUSH2 0x2AAA JUMPI PUSH2 0x2AAA PUSH2 0x4B6B JUMP JUMPDEST DUP2 MSTORE PUSH1 0x40 DUP1 MLOAD PUSH1 0x80 DUP2 ADD SWAP1 SWAP2 MSTORE PUSH1 0x1 DUP4 ADD DUP1 SLOAD PUSH1 0x20 SWAP1 SWAP4 ADD SWAP3 DUP3 SWAP1 PUSH1 0xFF AND PUSH1 0x5 DUP2 GT ISZERO PUSH2 0x2AD9 JUMPI PUSH2 0x2AD9 PUSH2 0x4B6B JUMP JUMPDEST PUSH1 0x5 DUP2 GT ISZERO PUSH2 0x2AEA JUMPI PUSH2 0x2AEA PUSH2 0x4B6B JUMP JUMPDEST DUP2 MSTORE PUSH1 0x1 DUP3 DUP2 ADD SLOAD PUSH1 0x20 DUP1 DUP5 ADD SWAP2 SWAP1 SWAP2 MSTORE PUSH1 0x2 SWAP1 SWAP4 ADD SLOAD PUSH1 0xFF DUP1 DUP3 AND ISZERO ISZERO PUSH1 0x40 DUP6 ADD MSTORE PUSH2 0x100 SWAP1 SWAP2 DIV AND ISZERO ISZERO PUSH1 0x60 SWAP1 SWAP3 ADD SWAP2 SWAP1 SWAP2 MSTORE SWAP2 SWAP1 SWAP3 MSTORE SWAP3 DUP5 MSTORE SWAP4 SWAP1 SWAP2 ADD SWAP3 SWAP2 SWAP1 SWAP2 ADD SWAP1 POP PUSH2 0x2A5F JUMP JUMPDEST POP POP POP POP DUP2 MSTORE POP POP DUP2 MSTORE PUSH1 0x20 ADD SWAP1 PUSH1 0x1 ADD SWAP1 PUSH2 0x2A0D JUMP JUMPDEST POP POP POP POP DUP2 MSTORE PUSH1 0x20 ADD PUSH1 0x7 DUP3 ADD DUP1 SLOAD DUP1 PUSH1 0x20 MUL PUSH1 0x20 ADD PUSH1 0x40 MLOAD SWAP1 DUP2 ADD PUSH1 0x40 MSTORE DUP1 SWAP3 SWAP2 SWAP1 DUP2 DUP2 MSTORE PUSH1 0x20 ADD PUSH1 0x0 SWAP1 JUMPDEST DUP3 DUP3 LT ISZERO PUSH2 0x2CBA JUMPI DUP4 DUP3 SWAP1 PUSH1 0x0 MSTORE PUSH1 0x20 PUSH1 0x0 KECCAK256 SWAP1 PUSH1 0x2 MUL ADD PUSH1 0x40 MLOAD DUP1 PUSH1 0x40 ADD PUSH1 0x40 MSTORE SWAP1 DUP2 PUSH1 0x0 DUP3 ADD SLOAD DUP2 MSTORE PUSH1 0x20 ADD PUSH1 0x1 DUP3 ADD DUP1 SLOAD DUP1 PUSH1 0x20 MUL PUSH1 0x20 ADD PUSH1 0x40 MLOAD SWAP1 DUP2 ADD PUSH1 0x40 MSTORE DUP1 SWAP3 SWAP2 SWAP1 DUP2 DUP2 MSTORE PUSH1 0x20 ADD PUSH1 0x0 SWAP1 JUMPDEST DUP3 DUP3 LT ISZERO PUSH2 0x2CA3 JUMPI PUSH1 0x0 DUP5 DUP2 MSTORE PUSH1 0x20 SWAP1 KECCAK256 PUSH1 0x40 DUP1 MLOAD DUP1 DUP3 ADD SWAP1 SWAP2 MSTORE PUSH1 0x4 DUP5 MUL SWAP1 SWAP2 ADD DUP1 SLOAD DUP3 SWAP1 PUSH1 0xFF AND PUSH1 0x5 DUP2 GT ISZERO PUSH2 0x2C06 JUMPI PUSH2 0x2C06 PUSH2 0x4B6B JUMP JUMPDEST PUSH1 0x5 DUP2 GT ISZERO PUSH2 0x2C17 JUMPI PUSH2 0x2C17 PUSH2 0x4B6B JUMP JUMPDEST DUP2 MSTORE PUSH1 0x40 DUP1 MLOAD PUSH1 0x80 DUP2 ADD SWAP1 SWAP2 MSTORE PUSH1 0x1 DUP4 ADD DUP1 SLOAD PUSH1 0x20 SWAP1 SWAP4 ADD SWAP3 DUP3 SWAP1 PUSH1 0xFF AND PUSH1 0x5 DUP2 GT ISZERO PUSH2 0x2C46 JUMPI PUSH2 0x2C46 PUSH2 0x4B6B JUMP JUMPDEST PUSH1 0x5 DUP2 GT ISZERO PUSH2 0x2C57 JUMPI PUSH2 0x2C57 PUSH2 0x4B6B JUMP JUMPDEST DUP2 MSTORE PUSH1 0x1 DUP3 DUP2 ADD SLOAD PUSH1 0x20 DUP1 DUP5 ADD SWAP2 SWAP1 SWAP2 MSTORE PUSH1 0x2 SWAP1 SWAP4 ADD SLOAD PUSH1 0xFF DUP1 DUP3 AND ISZERO ISZERO PUSH1 0x40 DUP6 ADD MSTORE PUSH2 0x100 SWAP1 SWAP2 DIV AND ISZERO ISZERO PUSH1 0x60 SWAP1 SWAP3 ADD SWAP2 SWAP1 SWAP2 MSTORE SWAP2 SWAP1 SWAP3 MSTORE SWAP3 DUP5 MSTORE SWAP4 SWAP1 SWAP2 ADD SWAP3 SWAP2 SWAP1 SWAP2 ADD SWAP1 POP PUSH2 0x2BCC JUMP JUMPDEST POP POP POP POP DUP2 MSTORE POP POP DUP2 MSTORE PUSH1 0x20 ADD SWAP1 PUSH1 0x1 ADD SWAP1 PUSH2 0x2B7A JUMP JUMPDEST POP POP POP POP DUP2 MSTORE PUSH1 0x20 ADD PUSH1 0x8 DUP3 ADD DUP1 SLOAD DUP1 PUSH1 0x20 MUL PUSH1 0x20 ADD PUSH1 0x40 MLOAD SWAP1 DUP2 ADD PUSH1 0x40 MSTORE DUP1 SWAP3 SWAP2 SWAP1 DUP2 DUP2 MSTORE PUSH1 0x20 ADD DUP3 DUP1 SLOAD DUP1 ISZERO PUSH2 0x2D11 JUMPI PUSH1 0x20 MUL DUP3 ADD SWAP2 SWAP1 PUSH1 0x0 MSTORE PUSH1 0x20 PUSH1 0x0 KECCAK256 SWAP1 JUMPDEST DUP2 SLOAD DUP2 MSTORE PUSH1 0x20 ADD SWAP1 PUSH1 0x1 ADD SWAP1 DUP1 DUP4 GT PUSH2 0x2CFD JUMPI JUMPDEST POP POP POP POP POP DUP2 MSTORE PUSH1 0x20 ADD PUSH1 0x9 DUP3 ADD DUP1 SLOAD DUP1 PUSH1 0x20 MUL PUSH1 0x20 ADD PUSH1 0x40 MLOAD SWAP1 DUP2 ADD PUSH1 0x40 MSTORE DUP1 SWAP3 SWAP2 SWAP1 DUP2 DUP2 MSTORE PUSH1 0x20 ADD DUP3 DUP1 SLOAD DUP1 ISZERO PUSH2 0x2D69 JUMPI PUSH1 0x20 MUL DUP3 ADD SWAP2 SWAP1 PUSH1 0x0 MSTORE PUSH1 0x20 PUSH1 0x0 KECCAK256 SWAP1 JUMPDEST DUP2 SLOAD DUP2 MSTORE PUSH1 0x20 ADD SWAP1 PUSH1 0x1 ADD SWAP1 DUP1 DUP4 GT PUSH2 0x2D55 JUMPI JUMPDEST POP POP POP SWAP2 SWAP1 SWAP3 MSTORE POP POP POP SWAP1 MSTORE POP DUP1 MLOAD SWAP1 SWAP2 POP PUSH2 0x2DB6 JUMPI PUSH1 0x40 MLOAD PUSH3 0x461BCD PUSH1 0xE5 SHL DUP2 MSTORE PUSH1 0x20 PUSH1 0x4 DUP3 ADD MSTORE PUSH1 0xC PUSH1 0x24 DUP3 ADD MSTORE PUSH12 0x556E6B6E6F776E2052756C65 PUSH1 0xA0 SHL PUSH1 0x44 DUP3 ADD MSTORE PUSH1 0x64 ADD PUSH2 0xBFF JUMP JUMPDEST PUSH1 0x0 JUMPDEST PUSH1 0x20 DUP1 DUP4 ADD MLOAD ADD MLOAD MLOAD MLOAD DUP2 LT ISZERO PUSH2 0x2ED6 JUMPI DUP6 DUP3 PUSH1 0x20 ADD MLOAD PUSH1 0x20 ADD MLOAD PUSH1 0x0 ADD MLOAD DUP3 DUP2 MLOAD DUP2 LT PUSH2 0x2DE9 JUMPI PUSH2 0x2DE9 PUSH2 0x556E JUMP JUMPDEST PUSH1 0x20 MUL PUSH1 0x20 ADD ADD MLOAD SUB PUSH2 0x2ECE JUMPI DUP5 PUSH1 0x5 DUP2 GT ISZERO PUSH2 0x2E08 JUMPI PUSH2 0x2E08 PUSH2 0x4B6B JUMP JUMPDEST DUP3 PUSH1 0x20 ADD MLOAD PUSH1 0x20 ADD MLOAD PUSH1 0x20 ADD MLOAD DUP3 DUP2 MLOAD DUP2 LT PUSH2 0x2E26 JUMPI PUSH2 0x2E26 PUSH2 0x556E JUMP JUMPDEST PUSH1 0x20 MUL PUSH1 0x20 ADD ADD MLOAD PUSH1 0x5 DUP2 GT ISZERO PUSH2 0x2E3F JUMPI PUSH2 0x2E3F PUSH2 0x4B6B JUMP JUMPDEST EQ PUSH2 0x2E7D JUMPI PUSH1 0x40 MLOAD PUSH3 0x461BCD PUSH1 0xE5 SHL DUP2 MSTORE PUSH1 0x20 PUSH1 0x4 DUP3 ADD MSTORE PUSH1 0xE PUSH1 0x24 DUP3 ADD MSTORE PUSH14 0x496E636F72726563742074797065 PUSH1 0x90 SHL PUSH1 0x44 DUP3 ADD MSTORE PUSH1 0x64 ADD PUSH2 0xBFF JUMP JUMPDEST DUP2 PUSH1 0x20 ADD MLOAD PUSH1 0x20 ADD MLOAD PUSH1 0x40 ADD MLOAD DUP2 DUP2 MLOAD DUP2 LT PUSH2 0x2E9B JUMPI PUSH2 0x2E9B PUSH2 0x556E JUMP JUMPDEST PUSH1 0x20 MUL PUSH1 0x20 ADD ADD MLOAD SWAP3 POP DUP2 PUSH1 0x20 ADD MLOAD PUSH1 0x0 ADD MLOAD DUP7 DUP2 MLOAD DUP2 LT PUSH2 0x2EBF JUMPI PUSH2 0x2EBF PUSH2 0x556E JUMP JUMPDEST PUSH1 0x20 MUL PUSH1 0x20 ADD ADD MLOAD SWAP4 POP PUSH2 0x2ED6 JUMP JUMPDEST PUSH1 0x1 ADD PUSH2 0x2DB9 JUMP JUMPDEST POP POP SWAP4 POP SWAP4 SWAP2 POP POP JUMP JUMPDEST PUSH1 0x0 DUP1 PUSH2 0x2EF7 DUP6 DUP6 PUSH1 0x40 ADD MLOAD DUP7 PUSH1 0x80 ADD MLOAD DUP7 PUSH2 0x420 JUMP JUMPDEST DUP5 MLOAD PUSH1 0x40 MLOAD PUSH4 0x1F98E0AB PUSH1 0xE2 SHL DUP2 MSTORE SWAP2 SWAP3 POP ADDRESS SWAP2 PUSH4 0x7E6382AC SWAP2 PUSH2 0x2F22 SWAP2 DUP10 SWAP2 SWAP1 DUP7 SWAP1 PUSH1 0x4 ADD PUSH2 0x551C JUMP JUMPDEST PUSH1 0x20 PUSH1 0x40 MLOAD DUP1 DUP4 SUB DUP2 PUSH1 0x0 DUP8 GAS CALL ISZERO DUP1 ISZERO PUSH2 0x2F41 JUMPI RETURNDATASIZE PUSH1 0x0 DUP1 RETURNDATACOPY RETURNDATASIZE PUSH1 0x0 REVERT JUMPDEST POP POP POP POP PUSH1 0x40 MLOAD RETURNDATASIZE PUSH1 0x1F NOT PUSH1 0x1F DUP3 ADD AND DUP3 ADD DUP1 PUSH1 0x40 MSTORE POP DUP2 ADD SWAP1 PUSH2 0x2312 SWAP2 SWAP1 PUSH2 0x5551 JUMP JUMPDEST PUSH1 0x0 DUP7 DUP2 MSTORE PUSH1 0x1 PUSH1 0x20 MSTORE PUSH1 0x40 DUP2 KECCAK256 SLOAD PUSH1 0x60 SWAP1 PUSH1 0xFF AND ISZERO PUSH2 0x313D JUMPI PUSH1 0x3 PUSH1 0x0 PUSH1 0x1 PUSH1 0x0 DUP12 DUP2 MSTORE PUSH1 0x20 ADD SWAP1 DUP2 MSTORE PUSH1 0x20 ADD PUSH1 0x0 KECCAK256 PUSH1 0x1 ADD PUSH1 0x0 ADD DUP9 DUP9 PUSH1 0x40 MLOAD PUSH2 0x2FAC SWAP3 SWAP2 SWAP1 PUSH2 0x569A JUMP JUMPDEST SWAP1 DUP2 MSTORE PUSH1 0x40 DUP1 MLOAD PUSH1 0x20 SWAP3 DUP2 SWAP1 SUB DUP4 ADD SWAP1 KECCAK256 SLOAD DUP4 MSTORE SWAP1 DUP3 ADD SWAP3 SWAP1 SWAP3 MSTORE ADD PUSH1 0x0 KECCAK256 SLOAD PUSH1 0xFF AND ISZERO PUSH2 0x313D JUMPI PUSH1 0x3 PUSH1 0x0 PUSH1 0x1 PUSH1 0x0 DUP12 DUP2 MSTORE PUSH1 0x20 ADD SWAP1 DUP2 MSTORE PUSH1 0x20 ADD PUSH1 0x0 KECCAK256 PUSH1 0x1 ADD PUSH1 0x0 ADD DUP9 DUP9 PUSH1 0x40 MLOAD PUSH2 0x3001 SWAP3 SWAP2 SWAP1 PUSH2 0x569A JUMP JUMPDEST SWAP1 DUP2 MSTORE PUSH1 0x20 ADD PUSH1 0x40 MLOAD DUP1 SWAP2 SUB SWAP1 KECCAK256 SLOAD DUP2 MSTORE PUSH1 0x20 ADD SWAP1 DUP2 MSTORE PUSH1 0x20 ADD PUSH1 0x0 KECCAK256 PUSH1 0x1 ADD DUP1 SLOAD SWAP1 POP PUSH1 0x1 PUSH1 0x1 PUSH1 0x40 SHL SUB DUP2 GT ISZERO PUSH2 0x303C JUMPI PUSH2 0x303C PUSH2 0x42BD JUMP JUMPDEST PUSH1 0x40 MLOAD SWAP1 DUP1 DUP3 MSTORE DUP1 PUSH1 0x20 MUL PUSH1 0x20 ADD DUP3 ADD PUSH1 0x40 MSTORE DUP1 ISZERO PUSH2 0x3065 JUMPI DUP2 PUSH1 0x20 ADD PUSH1 0x20 DUP3 MUL DUP1 CALLDATASIZE DUP4 CALLDATACOPY ADD SWAP1 POP JUMPDEST POP SWAP1 POP PUSH1 0x0 JUMPDEST DUP2 MLOAD DUP2 LT ISZERO PUSH2 0x313B JUMPI PUSH1 0x3 PUSH1 0x0 PUSH1 0x1 PUSH1 0x0 DUP13 DUP2 MSTORE PUSH1 0x20 ADD SWAP1 DUP2 MSTORE PUSH1 0x20 ADD PUSH1 0x0 KECCAK256 PUSH1 0x1 ADD PUSH1 0x0 ADD DUP10 DUP10 PUSH1 0x40 MLOAD PUSH2 0x30A1 SWAP3 SWAP2 SWAP1 PUSH2 0x569A JUMP JUMPDEST SWAP1 DUP2 MSTORE PUSH1 0x20 ADD PUSH1 0x40 MLOAD DUP1 SWAP2 SUB SWAP1 KECCAK256 SLOAD DUP2 MSTORE PUSH1 0x20 ADD SWAP1 DUP2 MSTORE PUSH1 0x20 ADD PUSH1 0x0 KECCAK256 PUSH1 0x1 ADD DUP2 DUP2 SLOAD DUP2 LT PUSH2 0x30D2 JUMPI PUSH2 0x30D2 PUSH2 0x556E JUMP JUMPDEST SWAP1 PUSH1 0x0 MSTORE PUSH1 0x20 PUSH1 0x0 KECCAK256 SWAP1 PUSH1 0x20 SWAP2 DUP3 DUP3 DIV ADD SWAP2 SWAP1 MOD SWAP1 SLOAD SWAP1 PUSH2 0x100 EXP SWAP1 DIV PUSH1 0xFF AND DUP3 DUP3 DUP2 MLOAD DUP2 LT PUSH2 0x3104 JUMPI PUSH2 0x3104 PUSH2 0x556E JUMP JUMPDEST PUSH1 0x20 MUL PUSH1 0x20 ADD ADD SWAP1 PUSH1 0x5 DUP2 GT ISZERO PUSH2 0x311D JUMPI PUSH2 0x311D PUSH2 0x4B6B JUMP JUMPDEST SWAP1 DUP2 PUSH1 0x5 DUP2 GT ISZERO PUSH2 0x3130 JUMPI PUSH2 0x3130 PUSH2 0x4B6B JUMP JUMPDEST SWAP1 MSTORE POP PUSH1 0x1 ADD PUSH2 0x306B JUMP JUMPDEST POP JUMPDEST PUSH1 0x0 PUSH2 0x314B DUP5 DUP7 ADD DUP7 PUSH2 0x675C JUMP JUMPDEST SWAP1 POP PUSH1 0x0 PUSH1 0x1 PUSH1 0x0 DUP12 DUP2 MSTORE PUSH1 0x20 ADD SWAP1 DUP2 MSTORE PUSH1 0x20 ADD PUSH1 0x0 KECCAK256 PUSH1 0x1 ADD PUSH1 0x1 ADD DUP9 DUP9 PUSH1 0x40 MLOAD PUSH2 0x3178 SWAP3 SWAP2 SWAP1 PUSH2 0x569A JUMP JUMPDEST SWAP1 DUP2 MSTORE PUSH1 0x40 MLOAD SWAP1 DUP2 SWAP1 SUB PUSH1 0x20 ADD SWAP1 KECCAK256 SLOAD PUSH1 0x1 PUSH1 0x1 PUSH1 0x40 SHL SUB DUP2 GT ISZERO PUSH2 0x319F JUMPI PUSH2 0x319F PUSH2 0x42BD JUMP JUMPDEST PUSH1 0x40 MLOAD SWAP1 DUP1 DUP3 MSTORE DUP1 PUSH1 0x20 MUL PUSH1 0x20 ADD DUP3 ADD PUSH1 0x40 MSTORE DUP1 ISZERO PUSH2 0x31D8 JUMPI DUP2 PUSH1 0x20 ADD JUMPDEST PUSH2 0x31C5 PUSH2 0x4228 JUMP JUMPDEST DUP2 MSTORE PUSH1 0x20 ADD SWAP1 PUSH1 0x1 SWAP1 SUB SWAP1 DUP2 PUSH2 0x31BD JUMPI SWAP1 POP JUMPDEST POP SWAP1 POP PUSH1 0x0 JUMPDEST DUP2 MLOAD DUP2 LT ISZERO PUSH2 0x3A04 JUMPI PUSH1 0x0 DUP12 DUP2 MSTORE PUSH1 0x1 PUSH1 0x20 MSTORE PUSH1 0x40 DUP1 DUP3 KECCAK256 SWAP1 MLOAD PUSH1 0x2 SWAP3 SWAP2 DUP4 ADD SWAP1 PUSH2 0x320C SWAP1 DUP14 SWAP1 DUP14 SWAP1 PUSH2 0x569A JUMP JUMPDEST SWAP1 DUP2 MSTORE PUSH1 0x20 ADD PUSH1 0x40 MLOAD DUP1 SWAP2 SUB SWAP1 KECCAK256 DUP4 DUP2 SLOAD DUP2 LT PUSH2 0x322B JUMPI PUSH2 0x322B PUSH2 0x556E JUMP JUMPDEST PUSH1 0x0 SWAP2 DUP3 MSTORE PUSH1 0x20 DUP1 DUP4 KECCAK256 SWAP1 SWAP2 ADD SLOAD DUP4 MSTORE DUP3 ADD SWAP3 SWAP1 SWAP3 MSTORE PUSH1 0x40 ADD SWAP1 KECCAK256 SLOAD PUSH1 0xFF AND ISZERO PUSH2 0x39FC JUMPI PUSH1 0x0 DUP12 DUP2 MSTORE PUSH1 0x1 PUSH1 0x20 MSTORE PUSH1 0x40 DUP1 DUP3 KECCAK256 SWAP1 MLOAD PUSH1 0x2 SWAP3 SWAP2 DUP4 ADD SWAP1 PUSH2 0x3274 SWAP1 DUP14 SWAP1 DUP14 SWAP1 PUSH2 0x569A JUMP JUMPDEST SWAP1 DUP2 MSTORE PUSH1 0x20 ADD PUSH1 0x40 MLOAD DUP1 SWAP2 SUB SWAP1 KECCAK256 DUP4 DUP2 SLOAD DUP2 LT PUSH2 0x3293 JUMPI PUSH2 0x3293 PUSH2 0x556E JUMP JUMPDEST SWAP1 PUSH1 0x0 MSTORE PUSH1 0x20 PUSH1 0x0 KECCAK256 ADD SLOAD DUP2 MSTORE PUSH1 0x20 ADD SWAP1 DUP2 MSTORE PUSH1 0x20 ADD PUSH1 0x0 KECCAK256 PUSH1 0x1 ADD PUSH1 0x40 MLOAD DUP1 PUSH2 0x100 ADD PUSH1 0x40 MSTORE SWAP1 DUP2 PUSH1 0x0 DUP3 ADD DUP1 SLOAD DUP1 PUSH1 0x20 MUL PUSH1 0x20 ADD PUSH1 0x40 MLOAD SWAP1 DUP2 ADD PUSH1 0x40 MSTORE DUP1 SWAP3 SWAP2 SWAP1 DUP2 DUP2 MSTORE PUSH1 0x20 ADD DUP3 DUP1 SLOAD DUP1 ISZERO PUSH2 0x330A JUMPI PUSH1 0x20 MUL DUP3 ADD SWAP2 SWAP1 PUSH1 0x0 MSTORE PUSH1 0x20 PUSH1 0x0 KECCAK256 SWAP1 JUMPDEST DUP2 SLOAD DUP2 MSTORE PUSH1 0x20 ADD SWAP1 PUSH1 0x1 ADD SWAP1 DUP1 DUP4 GT PUSH2 0x32F6 JUMPI JUMPDEST POP POP POP POP POP DUP2 MSTORE PUSH1 0x20 ADD PUSH1 0x1 DUP3 ADD PUSH1 0x40 MLOAD DUP1 PUSH1 0x60 ADD PUSH1 0x40 MSTORE SWAP1 DUP2 PUSH1 0x0 DUP3 ADD DUP1 SLOAD DUP1 PUSH1 0x20 MUL PUSH1 0x20 ADD PUSH1 0x40 MLOAD SWAP1 DUP2 ADD PUSH1 0x40 MSTORE DUP1 SWAP3 SWAP2 SWAP1 DUP2 DUP2 MSTORE PUSH1 0x20 ADD DUP3 DUP1 SLOAD DUP1 ISZERO PUSH2 0x3372 JUMPI PUSH1 0x20 MUL DUP3 ADD SWAP2 SWAP1 PUSH1 0x0 MSTORE PUSH1 0x20 PUSH1 0x0 KECCAK256 SWAP1 JUMPDEST DUP2 SLOAD DUP2 MSTORE PUSH1 0x20 ADD SWAP1 PUSH1 0x1 ADD SWAP1 DUP1 DUP4 GT PUSH2 0x335E JUMPI JUMPDEST POP POP POP POP POP DUP2 MSTORE PUSH1 0x20 ADD PUSH1 0x1 DUP3 ADD DUP1 SLOAD DUP1 PUSH1 0x20 MUL PUSH1 0x20 ADD PUSH1 0x40 MLOAD SWAP1 DUP2 ADD PUSH1 0x40 MSTORE DUP1 SWAP3 SWAP2 SWAP1 DUP2 DUP2 MSTORE PUSH1 0x20 ADD DUP3 DUP1 SLOAD DUP1 ISZERO PUSH2 0x33FA JUMPI PUSH1 0x20 MUL DUP3 ADD SWAP2 SWAP1 PUSH1 0x0 MSTORE PUSH1 0x20 PUSH1 0x0 KECCAK256 SWAP1 PUSH1 0x0 SWAP1 JUMPDEST DUP3 DUP3 SWAP1 SLOAD SWAP1 PUSH2 0x100 EXP SWAP1 DIV PUSH1 0xFF AND PUSH1 0x5 DUP2 GT ISZERO PUSH2 0x33D8 JUMPI PUSH2 0x33D8 PUSH2 0x4B6B JUMP JUMPDEST DUP2 MSTORE PUSH1 0x20 PUSH1 0x1 SWAP3 DUP4 ADD DUP2 DUP2 DIV SWAP5 DUP6 ADD SWAP5 SWAP1 SWAP4 SUB SWAP1 SWAP3 MUL SWAP2 ADD DUP1 DUP5 GT PUSH2 0x33B9 JUMPI SWAP1 POP JUMPDEST POP POP POP POP POP DUP2 MSTORE PUSH1 0x20 ADD PUSH1 0x2 DUP3 ADD DUP1 SLOAD DUP1 PUSH1 0x20 MUL PUSH1 0x20 ADD PUSH1 0x40 MLOAD SWAP1 DUP2 ADD PUSH1 0x40 MSTORE DUP1 SWAP3 SWAP2 SWAP1 DUP2 DUP2 MSTORE PUSH1 0x20 ADD PUSH1 0x0 SWAP1 JUMPDEST DUP3 DUP3 LT ISZERO PUSH2 0x34D4 JUMPI DUP4 DUP3 SWAP1 PUSH1 0x0 MSTORE PUSH1 0x20 PUSH1 0x0 KECCAK256 ADD DUP1 SLOAD PUSH2 0x3447 SWAP1 PUSH2 0x55B3 JUMP JUMPDEST DUP1 PUSH1 0x1F ADD PUSH1 0x20 DUP1 SWAP2 DIV MUL PUSH1 0x20 ADD PUSH1 0x40 MLOAD SWAP1 DUP2 ADD PUSH1 0x40 MSTORE DUP1 SWAP3 SWAP2 SWAP1 DUP2 DUP2 MSTORE PUSH1 0x20 ADD DUP3 DUP1 SLOAD PUSH2 0x3473 SWAP1 PUSH2 0x55B3 JUMP JUMPDEST DUP1 ISZERO PUSH2 0x34C0 JUMPI DUP1 PUSH1 0x1F LT PUSH2 0x3495 JUMPI PUSH2 0x100 DUP1 DUP4 SLOAD DIV MUL DUP4 MSTORE SWAP2 PUSH1 0x20 ADD SWAP2 PUSH2 0x34C0 JUMP JUMPDEST DUP3 ADD SWAP2 SWAP1 PUSH1 0x0 MSTORE PUSH1 0x20 PUSH1 0x0 KECCAK256 SWAP1 JUMPDEST DUP2 SLOAD DUP2 MSTORE SWAP1 PUSH1 0x1 ADD SWAP1 PUSH1 0x20 ADD DUP1 DUP4 GT PUSH2 0x34A3 JUMPI DUP3 SWAP1 SUB PUSH1 0x1F AND DUP3 ADD SWAP2 JUMPDEST POP POP POP POP POP DUP2 MSTORE PUSH1 0x20 ADD SWAP1 PUSH1 0x1 ADD SWAP1 PUSH2 0x3428 JUMP JUMPDEST POP POP POP POP DUP2 MSTORE POP POP DUP2 MSTORE PUSH1 0x20 ADD PUSH1 0x4 DUP3 ADD DUP1 SLOAD DUP1 PUSH1 0x20 MUL PUSH1 0x20 ADD PUSH1 0x40 MLOAD SWAP1 DUP2 ADD PUSH1 0x40 MSTORE DUP1 SWAP3 SWAP2 SWAP1 DUP2 DUP2 MSTORE PUSH1 0x20 ADD PUSH1 0x0 SWAP1 JUMPDEST DUP3 DUP3 LT ISZERO PUSH2 0x3592 JUMPI PUSH1 0x0 DUP5 DUP2 MSTORE PUSH1 0x20 SWAP1 KECCAK256 PUSH1 0x40 DUP1 MLOAD PUSH1 0x80 DUP2 ADD SWAP1 SWAP2 MSTORE PUSH1 0x3 DUP5 MUL SWAP1 SWAP2 ADD DUP1 SLOAD DUP3 SWAP1 PUSH1 0xFF AND PUSH1 0x5 DUP2 GT ISZERO PUSH2 0x3540 JUMPI PUSH2 0x3540 PUSH2 0x4B6B JUMP JUMPDEST PUSH1 0x5 DUP2 GT ISZERO PUSH2 0x3551 JUMPI PUSH2 0x3551 PUSH2 0x4B6B JUMP JUMPDEST DUP2 MSTORE PUSH1 0x1 DUP3 DUP2 ADD SLOAD PUSH1 0x20 DUP1 DUP5 ADD SWAP2 SWAP1 SWAP2 MSTORE PUSH1 0x2 SWAP1 SWAP4 ADD SLOAD PUSH1 0xFF DUP1 DUP3 AND ISZERO ISZERO PUSH1 0x40 DUP6 ADD MSTORE PUSH2 0x100 SWAP1 SWAP2 DIV AND ISZERO ISZERO PUSH1 0x60 SWAP1 SWAP3 ADD SWAP2 SWAP1 SWAP2 MSTORE SWAP2 DUP4 MSTORE SWAP3 ADD SWAP2 ADD PUSH2 0x3505 JUMP JUMPDEST POP POP POP POP DUP2 MSTORE PUSH1 0x20 ADD PUSH1 0x5 DUP3 ADD DUP1 SLOAD DUP1 PUSH1 0x20 MUL PUSH1 0x20 ADD PUSH1 0x40 MLOAD SWAP1 DUP2 ADD PUSH1 0x40 MSTORE DUP1 SWAP3 SWAP2 SWAP1 DUP2 DUP2 MSTORE PUSH1 0x20 ADD PUSH1 0x0 SWAP1 JUMPDEST DUP3 DUP3 LT ISZERO PUSH2 0x364C JUMPI PUSH1 0x0 DUP5 DUP2 MSTORE PUSH1 0x20 SWAP1 KECCAK256 PUSH1 0x40 DUP1 MLOAD PUSH1 0x80 DUP2 ADD SWAP1 SWAP2 MSTORE PUSH1 0x3 DUP5 MUL SWAP1 SWAP2 ADD DUP1 SLOAD DUP3 SWAP1 PUSH1 0xFF AND PUSH1 0x5 DUP2 GT ISZERO PUSH2 0x35FA JUMPI PUSH2 0x35FA PUSH2 0x4B6B JUMP JUMPDEST PUSH1 0x5 DUP2 GT ISZERO PUSH2 0x360B JUMPI PUSH2 0x360B PUSH2 0x4B6B JUMP JUMPDEST DUP2 MSTORE PUSH1 0x1 DUP3 DUP2 ADD SLOAD PUSH1 0x20 DUP1 DUP5 ADD SWAP2 SWAP1 SWAP2 MSTORE PUSH1 0x2 SWAP1 SWAP4 ADD SLOAD PUSH1 0xFF DUP1 DUP3 AND ISZERO ISZERO PUSH1 0x40 DUP6 ADD MSTORE PUSH2 0x100 SWAP1 SWAP2 DIV AND ISZERO ISZERO PUSH1 0x60 SWAP1 SWAP3 ADD SWAP2 SWAP1 SWAP2 MSTORE SWAP2 DUP4 MSTORE SWAP3 ADD SWAP2 ADD PUSH2 0x35BF JUMP JUMPDEST POP POP POP POP DUP2 MSTORE PUSH1 0x20 ADD PUSH1 0x6 DUP3 ADD DUP1 SLOAD DUP1 PUSH1 0x20 MUL PUSH1 0x20 ADD PUSH1 0x40 MLOAD SWAP1 DUP2 ADD PUSH1 0x40 MSTORE DUP1 SWAP3 SWAP2 SWAP1 DUP2 DUP2 MSTORE PUSH1 0x20 ADD PUSH1 0x0 SWAP1 JUMPDEST DUP3 DUP3 LT ISZERO PUSH2 0x37B9 JUMPI DUP4 DUP3 SWAP1 PUSH1 0x0 MSTORE PUSH1 0x20 PUSH1 0x0 KECCAK256 SWAP1 PUSH1 0x2 MUL ADD PUSH1 0x40 MLOAD DUP1 PUSH1 0x40 ADD PUSH1 0x40 MSTORE SWAP1 DUP2 PUSH1 0x0 DUP3 ADD SLOAD DUP2 MSTORE PUSH1 0x20 ADD PUSH1 0x1 DUP3 ADD DUP1 SLOAD DUP1 PUSH1 0x20 MUL PUSH1 0x20 ADD PUSH1 0x40 MLOAD SWAP1 DUP2 ADD PUSH1 0x40 MSTORE DUP1 SWAP3 SWAP2 SWAP1 DUP2 DUP2 MSTORE PUSH1 0x20 ADD PUSH1 0x0 SWAP1 JUMPDEST DUP3 DUP3 LT ISZERO PUSH2 0x37A2 JUMPI PUSH1 0x0 DUP5 DUP2 MSTORE PUSH1 0x20 SWAP1 KECCAK256 PUSH1 0x40 DUP1 MLOAD DUP1 DUP3 ADD SWAP1 SWAP2 MSTORE PUSH1 0x4 DUP5 MUL SWAP1 SWAP2 ADD DUP1 SLOAD DUP3 SWAP1 PUSH1 0xFF AND PUSH1 0x5 DUP2 GT ISZERO PUSH2 0x3705 JUMPI PUSH2 0x3705 PUSH2 0x4B6B JUMP JUMPDEST PUSH1 0x5 DUP2 GT ISZERO PUSH2 0x3716 JUMPI PUSH2 0x3716 PUSH2 0x4B6B JUMP JUMPDEST DUP2 MSTORE PUSH1 0x40 DUP1 MLOAD PUSH1 0x80 DUP2 ADD SWAP1 SWAP2 MSTORE PUSH1 0x1 DUP4 ADD DUP1 SLOAD PUSH1 0x20 SWAP1 SWAP4 ADD SWAP3 DUP3 SWAP1 PUSH1 0xFF AND PUSH1 0x5 DUP2 GT ISZERO PUSH2 0x3745 JUMPI PUSH2 0x3745 PUSH2 0x4B6B JUMP JUMPDEST PUSH1 0x5 DUP2 GT ISZERO PUSH2 0x3756 JUMPI PUSH2 0x3756 PUSH2 0x4B6B JUMP JUMPDEST DUP2 MSTORE PUSH1 0x1 DUP3 DUP2 ADD SLOAD PUSH1 0x20 DUP1 DUP5 ADD SWAP2 SWAP1 SWAP2 MSTORE PUSH1 0x2 SWAP1 SWAP4 ADD SLOAD PUSH1 0xFF DUP1 DUP3 AND ISZERO ISZERO PUSH1 0x40 DUP6 ADD MSTORE PUSH2 0x100 SWAP1 SWAP2 DIV AND ISZERO ISZERO PUSH1 0x60 SWAP1 SWAP3 ADD SWAP2 SWAP1 SWAP2 MSTORE SWAP2 SWAP1 SWAP3 MSTORE SWAP3 DUP5 MSTORE SWAP4 SWAP1 SWAP2 ADD SWAP3 SWAP2 SWAP1 SWAP2 ADD SWAP1 POP PUSH2 0x36CB JUMP JUMPDEST POP POP POP POP DUP2 MSTORE POP POP DUP2 MSTORE PUSH1 0x20 ADD SWAP1 PUSH1 0x1 ADD SWAP1 PUSH2 0x3679 JUMP JUMPDEST POP POP POP POP DUP2 MSTORE PUSH1 0x20 ADD PUSH1 0x7 DUP3 ADD DUP1 SLOAD DUP1 PUSH1 0x20 MUL PUSH1 0x20 ADD PUSH1 0x40 MLOAD SWAP1 DUP2 ADD PUSH1 0x40 MSTORE DUP1 SWAP3 SWAP2 SWAP1 DUP2 DUP2 MSTORE PUSH1 0x20 ADD PUSH1 0x0 SWAP1 JUMPDEST DUP3 DUP3 LT ISZERO PUSH2 0x3926 JUMPI DUP4 DUP3 SWAP1 PUSH1 0x0 MSTORE PUSH1 0x20 PUSH1 0x0 KECCAK256 SWAP1 PUSH1 0x2 MUL ADD PUSH1 0x40 MLOAD DUP1 PUSH1 0x40 ADD PUSH1 0x40 MSTORE SWAP1 DUP2 PUSH1 0x0 DUP3 ADD SLOAD DUP2 MSTORE PUSH1 0x20 ADD PUSH1 0x1 DUP3 ADD DUP1 SLOAD DUP1 PUSH1 0x20 MUL PUSH1 0x20 ADD PUSH1 0x40 MLOAD SWAP1 DUP2 ADD PUSH1 0x40 MSTORE DUP1 SWAP3 SWAP2 SWAP1 DUP2 DUP2 MSTORE PUSH1 0x20 ADD PUSH1 0x0 SWAP1 JUMPDEST DUP3 DUP3 LT ISZERO PUSH2 0x390F JUMPI PUSH1 0x0 DUP5 DUP2 MSTORE PUSH1 0x20 SWAP1 KECCAK256 PUSH1 0x40 DUP1 MLOAD DUP1 DUP3 ADD SWAP1 SWAP2 MSTORE PUSH1 0x4 DUP5 MUL SWAP1 SWAP2 ADD DUP1 SLOAD DUP3 SWAP1 PUSH1 0xFF AND PUSH1 0x5 DUP2 GT ISZERO PUSH2 0x3872 JUMPI PUSH2 0x3872 PUSH2 0x4B6B JUMP JUMPDEST PUSH1 0x5 DUP2 GT ISZERO PUSH2 0x3883 JUMPI PUSH2 0x3883 PUSH2 0x4B6B JUMP JUMPDEST DUP2 MSTORE PUSH1 0x40 DUP1 MLOAD PUSH1 0x80 DUP2 ADD SWAP1 SWAP2 MSTORE PUSH1 0x1 DUP4 ADD DUP1 SLOAD PUSH1 0x20 SWAP1 SWAP4 ADD SWAP3 DUP3 SWAP1 PUSH1 0xFF AND PUSH1 0x5 DUP2 GT ISZERO PUSH2 0x38B2 JUMPI PUSH2 0x38B2 PUSH2 0x4B6B JUMP JUMPDEST PUSH1 0x5 DUP2 GT ISZERO PUSH2 0x38C3 JUMPI PUSH2 0x38C3 PUSH2 0x4B6B JUMP JUMPDEST DUP2 MSTORE PUSH1 0x1 DUP3 DUP2 ADD SLOAD PUSH1 0x20 DUP1 DUP5 ADD SWAP2 SWAP1 SWAP2 MSTORE PUSH1 0x2 SWAP1 SWAP4 ADD SLOAD PUSH1 0xFF DUP1 DUP3 AND ISZERO ISZERO PUSH1 0x40 DUP6 ADD MSTORE PUSH2 0x100 SWAP1 SWAP2 DIV AND ISZERO ISZERO PUSH1 0x60 SWAP1 SWAP3 ADD SWAP2 SWAP1 SWAP2 MSTORE SWAP2 SWAP1 SWAP3 MSTORE SWAP3 DUP5 MSTORE SWAP4 SWAP1 SWAP2 ADD SWAP3 SWAP2 SWAP1 SWAP2 ADD SWAP1 POP PUSH2 0x3838 JUMP JUMPDEST POP POP POP POP DUP2 MSTORE POP POP DUP2 MSTORE PUSH1 0x20 ADD SWAP1 PUSH1 0x1 ADD SWAP1 PUSH2 0x37E6 JUMP JUMPDEST POP POP POP POP DUP2 MSTORE PUSH1 0x20 ADD PUSH1 0x8 DUP3 ADD DUP1 SLOAD DUP1 PUSH1 0x20 MUL PUSH1 0x20 ADD PUSH1 0x40 MLOAD SWAP1 DUP2 ADD PUSH1 0x40 MSTORE DUP1 SWAP3 SWAP2 SWAP1 DUP2 DUP2 MSTORE PUSH1 0x20 ADD DUP3 DUP1 SLOAD DUP1 ISZERO PUSH2 0x397D JUMPI PUSH1 0x20 MUL DUP3 ADD SWAP2 SWAP1 PUSH1 0x0 MSTORE PUSH1 0x20 PUSH1 0x0 KECCAK256 SWAP1 JUMPDEST DUP2 SLOAD DUP2 MSTORE PUSH1 0x20 ADD SWAP1 PUSH1 0x1 ADD SWAP1 DUP1 DUP4 GT PUSH2 0x3969 JUMPI JUMPDEST POP POP POP POP POP DUP2 MSTORE PUSH1 0x20 ADD PUSH1 0x9 DUP3 ADD DUP1 SLOAD DUP1 PUSH1 0x20 MUL PUSH1 0x20 ADD PUSH1 0x40 MLOAD SWAP1 DUP2 ADD PUSH1 0x40 MSTORE DUP1 SWAP3 SWAP2 SWAP1 DUP2 DUP2 MSTORE PUSH1 0x20 ADD DUP3 DUP1 SLOAD DUP1 ISZERO PUSH2 0x39D5 JUMPI PUSH1 0x20 MUL DUP3 ADD SWAP2 SWAP1 PUSH1 0x0 MSTORE PUSH1 0x20 PUSH1 0x0 KECCAK256 SWAP1 JUMPDEST DUP2 SLOAD DUP2 MSTORE PUSH1 0x20 ADD SWAP1 PUSH1 0x1 ADD SWAP1 DUP1 DUP4 GT PUSH2 0x39C1 JUMPI JUMPDEST POP POP POP POP POP DUP2 MSTORE POP POP DUP3 DUP3 DUP2 MLOAD DUP2 LT PUSH2 0x39F0 JUMPI PUSH2 0x39F0 PUSH2 0x556E JUMP JUMPDEST PUSH1 0x20 MUL PUSH1 0x20 ADD ADD DUP2 SWAP1 MSTORE POP JUMPDEST PUSH1 0x1 ADD PUSH2 0x31DE JUMP JUMPDEST POP PUSH2 0x3A10 DUP11 DUP3 DUP5 PUSH2 0xE80 JUMP JUMPDEST SWAP11 SWAP10 POP POP POP POP POP POP POP POP POP POP JUMP JUMPDEST PUSH2 0x3A26 PUSH2 0x41BC JUMP JUMPDEST PUSH1 0x0 DUP1 DUP4 PUSH1 0x20 ADD MLOAD MLOAD PUSH1 0x1 PUSH1 0x1 PUSH1 0x40 SHL SUB DUP2 GT ISZERO PUSH2 0x3A46 JUMPI PUSH2 0x3A46 PUSH2 0x42BD JUMP JUMPDEST PUSH1 0x40 MLOAD SWAP1 DUP1 DUP3 MSTORE DUP1 PUSH1 0x20 MUL PUSH1 0x20 ADD DUP3 ADD PUSH1 0x40 MSTORE DUP1 ISZERO PUSH2 0x3A6F JUMPI DUP2 PUSH1 0x20 ADD PUSH1 0x20 DUP3 MUL DUP1 CALLDATASIZE DUP4 CALLDATACOPY ADD SWAP1 POP JUMPDEST POP SWAP1 POP PUSH1 0x0 DUP5 PUSH1 0x20 ADD MLOAD MLOAD PUSH1 0x1 PUSH1 0x1 PUSH1 0x40 SHL SUB DUP2 GT ISZERO PUSH2 0x3A91 JUMPI PUSH2 0x3A91 PUSH2 0x42BD JUMP JUMPDEST PUSH1 0x40 MLOAD SWAP1 DUP1 DUP3 MSTORE DUP1 PUSH1 0x20 MUL PUSH1 0x20 ADD DUP3 ADD PUSH1 0x40 MSTORE DUP1 ISZERO PUSH2 0x3AC4 JUMPI DUP2 PUSH1 0x20 ADD JUMPDEST PUSH1 0x60 DUP2 MSTORE PUSH1 0x20 ADD SWAP1 PUSH1 0x1 SWAP1 SUB SWAP1 DUP2 PUSH2 0x3AAF JUMPI SWAP1 POP JUMPDEST POP SWAP1 POP PUSH1 0x0 DUP6 PUSH1 0x20 ADD MLOAD MLOAD PUSH1 0x1 PUSH1 0x1 PUSH1 0x40 SHL SUB DUP2 GT ISZERO PUSH2 0x3AE6 JUMPI PUSH2 0x3AE6 PUSH2 0x42BD JUMP JUMPDEST PUSH1 0x40 MLOAD SWAP1 DUP1 DUP3 MSTORE DUP1 PUSH1 0x20 MUL PUSH1 0x20 ADD DUP3 ADD PUSH1 0x40 MSTORE DUP1 ISZERO PUSH2 0x3B0F JUMPI DUP2 PUSH1 0x20 ADD PUSH1 0x20 DUP3 MUL DUP1 CALLDATASIZE DUP4 CALLDATACOPY ADD SWAP1 POP JUMPDEST POP SWAP1 POP PUSH1 0x0 JUMPDEST DUP8 MLOAD DUP2 LT ISZERO PUSH2 0x3CC7 JUMPI DUP9 PUSH1 0x20 ADD MLOAD DUP9 DUP3 DUP2 MLOAD DUP2 LT PUSH2 0x3B35 JUMPI PUSH2 0x3B35 PUSH2 0x556E JUMP JUMPDEST PUSH1 0x20 MUL PUSH1 0x20 ADD ADD MLOAD PUSH1 0x0 ADD MLOAD SUB PUSH2 0x3CBF JUMPI PUSH1 0x0 JUMPDEST DUP9 DUP3 DUP2 MLOAD DUP2 LT PUSH2 0x3B5B JUMPI PUSH2 0x3B5B PUSH2 0x556E JUMP JUMPDEST PUSH1 0x20 MUL PUSH1 0x20 ADD ADD MLOAD PUSH1 0x20 ADD MLOAD MLOAD DUP2 LT ISZERO PUSH2 0x3CBD JUMPI PUSH1 0x0 DUP10 DUP4 DUP2 MLOAD DUP2 LT PUSH2 0x3B83 JUMPI PUSH2 0x3B83 PUSH2 0x556E JUMP JUMPDEST PUSH1 0x20 MUL PUSH1 0x20 ADD ADD MLOAD PUSH1 0x20 ADD MLOAD DUP3 DUP2 MLOAD DUP2 LT PUSH2 0x3BA0 JUMPI PUSH2 0x3BA0 PUSH2 0x556E JUMP JUMPDEST PUSH1 0x20 MUL PUSH1 0x20 ADD ADD MLOAD PUSH1 0x0 ADD MLOAD SWAP1 POP PUSH1 0x0 DUP10 PUSH1 0x20 ADD MLOAD DUP12 DUP6 DUP2 MLOAD DUP2 LT PUSH2 0x3BC7 JUMPI PUSH2 0x3BC7 PUSH2 0x556E JUMP JUMPDEST PUSH1 0x20 MUL PUSH1 0x20 ADD ADD MLOAD PUSH1 0x20 ADD MLOAD DUP5 DUP2 MLOAD DUP2 LT PUSH2 0x3BE4 JUMPI PUSH2 0x3BE4 PUSH2 0x556E JUMP JUMPDEST PUSH1 0x20 MUL PUSH1 0x20 ADD ADD MLOAD PUSH1 0x20 ADD MLOAD PUSH1 0x20 ADD MLOAD DUP2 MLOAD DUP2 LT PUSH2 0x3C04 JUMPI PUSH2 0x3C04 PUSH2 0x556E JUMP JUMPDEST PUSH1 0x20 MUL PUSH1 0x20 ADD ADD MLOAD SWAP1 POP DUP2 DUP6 DUP5 DUP2 MLOAD DUP2 LT PUSH2 0x3C21 JUMPI PUSH2 0x3C21 PUSH2 0x556E JUMP JUMPDEST PUSH1 0x20 MUL PUSH1 0x20 ADD ADD SWAP1 PUSH1 0x5 DUP2 GT ISZERO PUSH2 0x3C3A JUMPI PUSH2 0x3C3A PUSH2 0x4B6B JUMP JUMPDEST SWAP1 DUP2 PUSH1 0x5 DUP2 GT ISZERO PUSH2 0x3C4D JUMPI PUSH2 0x3C4D PUSH2 0x4B6B JUMP JUMPDEST DUP2 MSTORE POP POP DUP1 DUP7 DUP5 DUP2 MLOAD DUP2 LT PUSH2 0x3C64 JUMPI PUSH2 0x3C64 PUSH2 0x556E JUMP JUMPDEST PUSH1 0x20 SWAP1 DUP2 MUL SWAP2 SWAP1 SWAP2 ADD ADD MSTORE PUSH1 0x1 DUP3 PUSH1 0x5 DUP2 GT ISZERO PUSH2 0x3C83 JUMPI PUSH2 0x3C83 PUSH2 0x4B6B JUMP JUMPDEST SUB PUSH2 0x3CB3 JUMPI DUP1 MLOAD DUP8 DUP10 DUP2 MLOAD DUP2 LT PUSH2 0x3C9C JUMPI PUSH2 0x3C9C PUSH2 0x556E JUMP JUMPDEST PUSH1 0x20 SWAP1 DUP2 MUL SWAP2 SWAP1 SWAP2 ADD ADD MSTORE PUSH2 0x3CB0 DUP9 PUSH2 0x559A JUMP JUMPDEST SWAP8 POP JUMPDEST POP POP PUSH1 0x1 ADD PUSH2 0x3B49 JUMP JUMPDEST POP JUMPDEST PUSH1 0x1 ADD PUSH2 0x3B15 JUMP JUMPDEST POP PUSH1 0x0 PUSH2 0x3CDA DUP3 DUP5 DUP12 PUSH1 0x40 ADD MLOAD DUP8 PUSH2 0x3E7F JUMP JUMPDEST SWAP1 POP PUSH1 0x0 DUP1 DUP11 PUSH1 0x0 ADD MLOAD PUSH1 0x1 PUSH1 0x1 PUSH1 0xA0 SHL SUB AND DUP4 PUSH1 0x40 MLOAD PUSH2 0x3CFB SWAP2 SWAP1 PUSH2 0x6790 JUMP JUMPDEST PUSH1 0x0 PUSH1 0x40 MLOAD DUP1 DUP4 SUB DUP2 PUSH1 0x0 DUP7 GAS CALL SWAP2 POP POP RETURNDATASIZE DUP1 PUSH1 0x0 DUP2 EQ PUSH2 0x3D38 JUMPI PUSH1 0x40 MLOAD SWAP2 POP PUSH1 0x1F NOT PUSH1 0x3F RETURNDATASIZE ADD AND DUP3 ADD PUSH1 0x40 MSTORE RETURNDATASIZE DUP3 MSTORE RETURNDATASIZE PUSH1 0x0 PUSH1 0x20 DUP5 ADD RETURNDATACOPY PUSH2 0x3D3D JUMP JUMPDEST PUSH1 0x60 SWAP2 POP JUMPDEST POP SWAP2 POP SWAP2 POP DUP2 ISZERO PUSH2 0x3E1D JUMPI PUSH1 0x3 DUP12 PUSH1 0x60 ADD MLOAD PUSH1 0x5 DUP2 GT ISZERO PUSH2 0x3D60 JUMPI PUSH2 0x3D60 PUSH2 0x4B6B JUMP JUMPDEST SUB PUSH2 0x3D84 JUMPI DUP8 PUSH1 0x3 JUMPDEST SWAP1 DUP2 PUSH1 0x5 DUP2 GT ISZERO PUSH2 0x3D7C JUMPI PUSH2 0x3D7C PUSH2 0x4B6B JUMP JUMPDEST SWAP1 MSTORE POP PUSH2 0x3E15 JUMP JUMPDEST PUSH1 0x2 DUP12 PUSH1 0x60 ADD MLOAD PUSH1 0x5 DUP2 GT ISZERO PUSH2 0x3D9C JUMPI PUSH2 0x3D9C PUSH2 0x4B6B JUMP JUMPDEST SUB PUSH2 0x3DA9 JUMPI DUP8 PUSH1 0x2 PUSH2 0x3D69 JUMP JUMPDEST PUSH1 0x1 DUP12 PUSH1 0x60 ADD MLOAD PUSH1 0x5 DUP2 GT ISZERO PUSH2 0x3DC1 JUMPI PUSH2 0x3DC1 PUSH2 0x4B6B JUMP JUMPDEST SUB PUSH2 0x3DCE JUMPI DUP8 PUSH1 0x1 PUSH2 0x3D69 JUMP JUMPDEST PUSH1 0x0 DUP12 PUSH1 0x60 ADD MLOAD PUSH1 0x5 DUP2 GT ISZERO PUSH2 0x3DE6 JUMPI PUSH2 0x3DE6 PUSH2 0x4B6B JUMP JUMPDEST SUB PUSH2 0x3DF3 JUMPI DUP8 PUSH1 0x0 PUSH2 0x3D69 JUMP JUMPDEST PUSH1 0x4 DUP12 PUSH1 0x60 ADD MLOAD PUSH1 0x5 DUP2 GT ISZERO PUSH2 0x3E0B JUMPI PUSH2 0x3E0B PUSH2 0x4B6B JUMP JUMPDEST SUB PUSH2 0x3E15 JUMPI PUSH1 0x4 DUP9 MSTORE JUMPDEST PUSH1 0x20 DUP9 ADD DUP2 SWAP1 MSTORE JUMPDEST POP POP POP POP POP POP POP SWAP4 SWAP3 POP POP POP JUMP JUMPDEST DUP1 PUSH1 0x40 MLOAD PUSH3 0x461BCD PUSH1 0xE5 SHL DUP2 MSTORE PUSH1 0x4 ADD PUSH2 0xBFF SWAP2 SWAP1 PUSH2 0x59E7 JUMP JUMPDEST PUSH32 0x52894DF7FE00B6FC7EFAC33CDC922CB2330FAE87180401745D00A7A53AD30DF9 DUP2 PUSH1 0x40 MLOAD PUSH2 0x3E74 SWAP2 SWAP1 PUSH2 0x59E7 JUMP JUMPDEST PUSH1 0x40 MLOAD DUP1 SWAP2 SUB SWAP1 LOG1 POP JUMP JUMPDEST PUSH1 0x60 DUP4 MLOAD DUP6 MLOAD EQ PUSH2 0x3E92 JUMPI PUSH2 0x3E92 PUSH2 0x67A2 JUMP JUMPDEST DUP5 MLOAD DUP3 MLOAD GT ISZERO PUSH2 0x3EA4 JUMPI PUSH2 0x3EA4 PUSH2 0x67A2 JUMP JUMPDEST PUSH1 0x0 DUP6 MLOAD PUSH1 0x20 PUSH2 0x3EB4 SWAP2 SWAP1 PUSH2 0x5B2C JUMP JUMPDEST SWAP1 POP PUSH1 0x0 DUP4 MLOAD PUSH1 0x20 PUSH2 0x3EC6 SWAP2 SWAP1 PUSH2 0x5B2C JUMP JUMPDEST SWAP1 POP PUSH1 0x0 JUMPDEST DUP5 MLOAD DUP2 LT ISZERO PUSH2 0x3F25 JUMPI PUSH1 0x20 DUP6 DUP3 DUP2 MLOAD DUP2 LT PUSH2 0x3EE8 JUMPI PUSH2 0x3EE8 PUSH2 0x556E JUMP JUMPDEST PUSH1 0x20 MUL PUSH1 0x20 ADD ADD MLOAD PUSH1 0x1F PUSH2 0x3EFC SWAP2 SWAP1 PUSH2 0x5966 JUMP JUMPDEST PUSH2 0x3F06 SWAP2 SWAP1 PUSH2 0x5B43 JUMP JUMPDEST PUSH2 0x3F11 SWAP1 PUSH1 0x20 PUSH2 0x5B2C JUMP JUMPDEST PUSH2 0x3F1B SWAP1 DUP4 PUSH2 0x5966 JUMP JUMPDEST SWAP2 POP PUSH1 0x1 ADD PUSH2 0x3ECB JUMP JUMPDEST POP DUP1 DUP3 ADD PUSH1 0x4 ADD PUSH1 0x40 MLOAD SWAP4 POP DUP1 DUP5 MSTORE DUP6 PUSH1 0x20 DUP6 ADD MSTORE DUP1 PUSH1 0x20 ADD DUP5 ADD PUSH1 0x40 MSTORE POP PUSH1 0x4 DUP1 DUP4 ADD PUSH1 0x0 DUP1 JUMPDEST DUP11 MLOAD DUP2 LT ISZERO PUSH2 0x4034 JUMPI PUSH1 0x20 DUP2 MUL PUSH1 0x20 DUP13 ADD ADD MLOAD PUSH1 0x20 DUP3 MUL PUSH1 0x20 DUP13 ADD ADD MLOAD DUP2 PUSH1 0x0 DUP2 EQ PUSH2 0x3F88 JUMPI PUSH1 0x1 DUP2 EQ PUSH2 0x3FA2 JUMPI PUSH1 0x2 DUP2 EQ PUSH2 0x4015 JUMPI PUSH2 0x4022 JUMP JUMPDEST PUSH1 0x1 PUSH1 0x1 PUSH1 0xA0 SHL SUB PUSH1 0x20 DUP4 ADD MLOAD AND DUP8 PUSH1 0x20 DUP13 ADD ADD MSTORE PUSH2 0x4022 JUMP JUMPDEST PUSH1 0x4 DUP7 SUB DUP8 PUSH1 0x20 DUP13 ADD ADD MSTORE PUSH1 0x20 DUP5 MUL PUSH1 0x20 DUP15 ADD ADD MLOAD PUSH1 0x40 DUP2 ADD MLOAD DUP1 DUP9 PUSH1 0x20 DUP15 ADD ADD MSTORE PUSH1 0x60 DUP3 ADD SWAP2 POP PUSH1 0x20 DUP9 ADD PUSH1 0x20 DUP14 ADD ADD PUSH1 0x20 PUSH1 0x1F DUP4 ADD DIV SWAP2 POP PUSH1 0x0 JUMPDEST DUP3 DUP2 LT ISZERO PUSH2 0x3FFB JUMPI PUSH1 0x20 DUP2 MUL DUP5 DUP2 ADD MLOAD SWAP1 DUP4 ADD MSTORE PUSH1 0x1 ADD PUSH2 0x3FDF JUMP JUMPDEST POP POP PUSH1 0x20 DUP2 MUL PUSH1 0x20 ADD DUP9 ADD SWAP8 POP POP POP PUSH1 0x1 DUP6 ADD SWAP5 POP PUSH2 0x4022 JUMP JUMPDEST PUSH1 0x20 DUP3 ADD MLOAD DUP8 PUSH1 0x20 DUP13 ADD ADD MSTORE JUMPDEST POP POP POP PUSH1 0x20 SWAP4 SWAP1 SWAP4 ADD SWAP3 PUSH1 0x1 ADD PUSH2 0x3F4D JUMP JUMPDEST POP POP POP POP POP POP SWAP5 SWAP4 POP POP POP POP JUMP JUMPDEST POP DUP1 SLOAD PUSH2 0x404E SWAP1 PUSH2 0x55B3 JUMP JUMPDEST PUSH1 0x0 DUP3 SSTORE DUP1 PUSH1 0x1F LT PUSH2 0x405E JUMPI POP POP JUMP JUMPDEST PUSH1 0x1F ADD PUSH1 0x20 SWAP1 DIV SWAP1 PUSH1 0x0 MSTORE PUSH1 0x20 PUSH1 0x0 KECCAK256 SWAP1 DUP2 ADD SWAP1 PUSH2 0x407C SWAP2 SWAP1 PUSH2 0x428F JUMP JUMPDEST POP JUMP JUMPDEST POP DUP1 SLOAD PUSH1 0x0 DUP3 SSTORE SWAP1 PUSH1 0x0 MSTORE PUSH1 0x20 PUSH1 0x0 KECCAK256 SWAP1 DUP2 ADD SWAP1 PUSH2 0x407C SWAP2 SWAP1 PUSH2 0x428F JUMP JUMPDEST PUSH1 0x40 DUP1 MLOAD PUSH1 0xA0 DUP2 ADD DUP3 MSTORE PUSH1 0x0 DUP1 DUP3 MSTORE PUSH1 0x20 DUP3 ADD DUP2 SWAP1 MSTORE SWAP2 DUP2 ADD DUP3 SWAP1 MSTORE SWAP1 PUSH1 0x60 DUP3 ADD SWAP1 JUMPDEST DUP2 MSTORE PUSH1 0x20 ADD PUSH1 0x60 DUP2 MSTORE POP SWAP1 JUMP JUMPDEST DUP3 DUP1 SLOAD DUP3 DUP3 SSTORE SWAP1 PUSH1 0x0 MSTORE PUSH1 0x20 PUSH1 0x0 KECCAK256 SWAP1 PUSH1 0x1F ADD PUSH1 0x20 SWAP1 DIV DUP2 ADD SWAP3 DUP3 ISZERO PUSH2 0x4171 JUMPI SWAP2 PUSH1 0x20 MUL DUP3 ADD PUSH1 0x0 JUMPDEST DUP4 DUP3 GT ISZERO PUSH2 0x4142 JUMPI DUP4 MLOAD DUP4 DUP3 PUSH2 0x100 EXP DUP2 SLOAD DUP2 PUSH1 0xFF MUL NOT AND SWAP1 DUP4 PUSH1 0x5 DUP2 GT ISZERO PUSH2 0x4121 JUMPI PUSH2 0x4121 PUSH2 0x4B6B JUMP JUMPDEST MUL OR SWAP1 SSTORE POP SWAP3 PUSH1 0x20 ADD SWAP3 PUSH1 0x1 ADD PUSH1 0x20 DUP2 PUSH1 0x0 ADD DIV SWAP3 DUP4 ADD SWAP3 PUSH1 0x1 SUB MUL PUSH2 0x40F6 JUMP JUMPDEST DUP1 ISZERO PUSH2 0x416F JUMPI DUP3 DUP2 PUSH2 0x100 EXP DUP2 SLOAD SWAP1 PUSH1 0xFF MUL NOT AND SWAP1 SSTORE PUSH1 0x1 ADD PUSH1 0x20 DUP2 PUSH1 0x0 ADD DIV SWAP3 DUP4 ADD SWAP3 PUSH1 0x1 SUB MUL PUSH2 0x4142 JUMP JUMPDEST POP JUMPDEST POP PUSH2 0x417D SWAP3 SWAP2 POP PUSH2 0x428F JUMP JUMPDEST POP SWAP1 JUMP JUMPDEST DUP3 DUP1 SLOAD DUP3 DUP3 SSTORE SWAP1 PUSH1 0x0 MSTORE PUSH1 0x20 PUSH1 0x0 KECCAK256 SWAP1 DUP2 ADD SWAP3 DUP3 ISZERO PUSH2 0x4171 JUMPI SWAP2 PUSH1 0x20 MUL DUP3 ADD JUMPDEST DUP3 DUP2 GT ISZERO PUSH2 0x4171 JUMPI DUP3 CALLDATALOAD DUP3 SSTORE SWAP2 PUSH1 0x20 ADD SWAP2 SWAP1 PUSH1 0x1 ADD SWAP1 PUSH2 0x41A1 JUMP JUMPDEST PUSH1 0x40 DUP1 MLOAD DUP1 DUP3 ADD SWAP1 SWAP2 MSTORE DUP1 PUSH1 0x0 PUSH2 0x40C0 JUMP JUMPDEST PUSH1 0x40 MLOAD DUP1 PUSH2 0x800 ADD PUSH1 0x40 MSTORE DUP1 PUSH1 0x40 SWAP1 PUSH1 0x20 DUP3 MUL DUP1 CALLDATASIZE DUP4 CALLDATACOPY POP SWAP2 SWAP3 SWAP2 POP POP JUMP JUMPDEST DUP3 DUP1 SLOAD DUP3 DUP3 SSTORE SWAP1 PUSH1 0x0 MSTORE PUSH1 0x20 PUSH1 0x0 KECCAK256 SWAP1 DUP2 ADD SWAP3 DUP3 ISZERO PUSH2 0x4171 JUMPI SWAP2 PUSH1 0x20 MUL DUP3 ADD JUMPDEST DUP3 DUP2 GT ISZERO PUSH2 0x4171 JUMPI DUP3 MLOAD DUP3 SSTORE SWAP2 PUSH1 0x20 ADD SWAP2 SWAP1 PUSH1 0x1 ADD SWAP1 PUSH2 0x420D JUMP JUMPDEST PUSH1 0x40 MLOAD DUP1 PUSH2 0x100 ADD PUSH1 0x40 MSTORE DUP1 PUSH1 0x60 DUP2 MSTORE PUSH1 0x20 ADD PUSH2 0x425F PUSH1 0x40 MLOAD DUP1 PUSH1 0x60 ADD PUSH1 0x40 MSTORE DUP1 PUSH1 0x60 DUP2 MSTORE PUSH1 0x20 ADD PUSH1 0x60 DUP2 MSTORE PUSH1 0x20 ADD PUSH1 0x60 DUP2 MSTORE POP SWAP1 JUMP JUMPDEST DUP2 MSTORE PUSH1 0x20 ADD PUSH1 0x60 DUP2 MSTORE PUSH1 0x20 ADD PUSH1 0x60 DUP2 MSTORE PUSH1 0x20 ADD PUSH1 0x60 DUP2 MSTORE PUSH1 0x20 ADD PUSH1 0x60 DUP2 MSTORE PUSH1 0x20 ADD PUSH1 0x60 DUP2 MSTORE PUSH1 0x20 ADD PUSH1 0x60 DUP2 MSTORE POP SWAP1 JUMP JUMPDEST JUMPDEST DUP1 DUP3 GT ISZERO PUSH2 0x417D JUMPI PUSH1 0x0 DUP2 SSTORE PUSH1 0x1 ADD PUSH2 0x4290 JUMP JUMPDEST PUSH1 0x0 PUSH1 0x20 DUP3 DUP5 SUB SLT ISZERO PUSH2 0x42B6 JUMPI PUSH1 0x0 DUP1 REVERT JUMPDEST POP CALLDATALOAD SWAP2 SWAP1 POP JUMP JUMPDEST PUSH4 0x4E487B71 PUSH1 0xE0 SHL PUSH1 0x0 MSTORE PUSH1 0x41 PUSH1 0x4 MSTORE PUSH1 0x24 PUSH1 0x0 REVERT JUMPDEST PUSH1 0x40 DUP1 MLOAD SWAP1 DUP2 ADD PUSH1 0x1 PUSH1 0x1 PUSH1 0x40 SHL SUB DUP2 GT DUP3 DUP3 LT OR ISZERO PUSH2 0x42F5 JUMPI PUSH2 0x42F5 PUSH2 0x42BD JUMP JUMPDEST PUSH1 0x40 MSTORE SWAP1 JUMP JUMPDEST PUSH1 0x40 MLOAD PUSH2 0x100 DUP2 ADD PUSH1 0x1 PUSH1 0x1 PUSH1 0x40 SHL SUB DUP2 GT DUP3 DUP3 LT OR ISZERO PUSH2 0x42F5 JUMPI PUSH2 0x42F5 PUSH2 0x42BD JUMP JUMPDEST PUSH1 0x40 MLOAD PUSH1 0x1F DUP3 ADD PUSH1 0x1F NOT AND DUP2 ADD PUSH1 0x1 PUSH1 0x1 PUSH1 0x40 SHL SUB DUP2 GT DUP3 DUP3 LT OR ISZERO PUSH2 0x4346 JUMPI PUSH2 0x4346 PUSH2 0x42BD JUMP JUMPDEST PUSH1 0x40 MSTORE SWAP2 SWAP1 POP JUMP JUMPDEST PUSH1 0x0 PUSH1 0x1 PUSH1 0x1 PUSH1 0x40 SHL SUB DUP3 GT ISZERO PUSH2 0x4367 JUMPI PUSH2 0x4367 PUSH2 0x42BD JUMP JUMPDEST POP PUSH1 0x5 SHL PUSH1 0x20 ADD SWAP1 JUMP JUMPDEST PUSH1 0x0 DUP3 PUSH1 0x1F DUP4 ADD SLT PUSH2 0x4382 JUMPI PUSH1 0x0 DUP1 REVERT JUMPDEST DUP2 CALLDATALOAD PUSH2 0x4395 PUSH2 0x4390 DUP3 PUSH2 0x434E JUMP JUMPDEST PUSH2 0x431E JUMP JUMPDEST DUP1 DUP3 DUP3 MSTORE PUSH1 0x20 DUP3 ADD SWAP2 POP PUSH1 0x20 DUP4 PUSH1 0x5 SHL DUP7 ADD ADD SWAP3 POP DUP6 DUP4 GT ISZERO PUSH2 0x43B7 JUMPI PUSH1 0x0 DUP1 REVERT JUMPDEST PUSH1 0x20 DUP6 ADD JUMPDEST DUP4 DUP2 LT ISZERO PUSH2 0x1C9A JUMPI DUP1 CALLDATALOAD DUP4 MSTORE PUSH1 0x20 SWAP3 DUP4 ADD SWAP3 ADD PUSH2 0x43BC JUMP JUMPDEST PUSH1 0x6 DUP2 LT PUSH2 0x407C JUMPI PUSH1 0x0 DUP1 REVERT JUMPDEST PUSH1 0x0 DUP3 PUSH1 0x1F DUP4 ADD SLT PUSH2 0x43F2 JUMPI PUSH1 0x0 DUP1 REVERT JUMPDEST DUP2 CALLDATALOAD PUSH2 0x4400 PUSH2 0x4390 DUP3 PUSH2 0x434E JUMP JUMPDEST DUP1 DUP3 DUP3 MSTORE PUSH1 0x20 DUP3 ADD SWAP2 POP PUSH1 0x20 DUP4 PUSH1 0x5 SHL DUP7 ADD ADD SWAP3 POP DUP6 DUP4 GT ISZERO PUSH2 0x4422 JUMPI PUSH1 0x0 DUP1 REVERT JUMPDEST PUSH1 0x20 DUP6 ADD JUMPDEST DUP4 DUP2 LT ISZERO PUSH2 0x1C9A JUMPI DUP1 CALLDATALOAD PUSH2 0x443A DUP2 PUSH2 0x43D4 JUMP JUMPDEST DUP4 MSTORE PUSH1 0x20 SWAP3 DUP4 ADD SWAP3 ADD PUSH2 0x4427 JUMP JUMPDEST PUSH1 0x0 PUSH1 0x1 PUSH1 0x1 PUSH1 0x40 SHL SUB DUP3 GT ISZERO PUSH2 0x4461 JUMPI PUSH2 0x4461 PUSH2 0x42BD JUMP JUMPDEST POP PUSH1 0x1F ADD PUSH1 0x1F NOT AND PUSH1 0x20 ADD SWAP1 JUMP JUMPDEST PUSH1 0x0 DUP3 PUSH1 0x1F DUP4 ADD SLT PUSH2 0x4480 JUMPI PUSH1 0x0 DUP1 REVERT JUMPDEST DUP2 CALLDATALOAD PUSH1 0x20 DUP4 ADD PUSH1 0x0 PUSH2 0x4494 PUSH2 0x4390 DUP5 PUSH2 0x4448 JUMP JUMPDEST SWAP1 POP DUP3 DUP2 MSTORE DUP6 DUP4 DUP4 ADD GT ISZERO PUSH2 0x44A8 JUMPI PUSH1 0x0 DUP1 REVERT JUMPDEST DUP3 DUP3 PUSH1 0x20 DUP4 ADD CALLDATACOPY PUSH1 0x0 SWAP3 DUP2 ADD PUSH1 0x20 ADD SWAP3 SWAP1 SWAP3 MSTORE POP SWAP4 SWAP3 POP POP POP JUMP JUMPDEST PUSH1 0x0 DUP3 PUSH1 0x1F DUP4 ADD SLT PUSH2 0x44D4 JUMPI PUSH1 0x0 DUP1 REVERT JUMPDEST DUP2 CALLDATALOAD PUSH2 0x44E2 PUSH2 0x4390 DUP3 PUSH2 0x434E JUMP JUMPDEST DUP1 DUP3 DUP3 MSTORE PUSH1 0x20 DUP3 ADD SWAP2 POP PUSH1 0x20 DUP4 PUSH1 0x5 SHL DUP7 ADD ADD SWAP3 POP DUP6 DUP4 GT ISZERO PUSH2 0x4504 JUMPI PUSH1 0x0 DUP1 REVERT JUMPDEST PUSH1 0x20 DUP6 ADD JUMPDEST DUP4 DUP2 LT ISZERO PUSH2 0x1C9A JUMPI DUP1 CALLDATALOAD PUSH1 0x1 PUSH1 0x1 PUSH1 0x40 SHL SUB DUP2 GT ISZERO PUSH2 0x4527 JUMPI PUSH1 0x0 DUP1 REVERT JUMPDEST PUSH2 0x4536 DUP9 PUSH1 0x20 DUP4 DUP11 ADD ADD PUSH2 0x446F JUMP JUMPDEST DUP5 MSTORE POP PUSH1 0x20 SWAP3 DUP4 ADD SWAP3 ADD PUSH2 0x4509 JUMP JUMPDEST PUSH1 0x0 PUSH1 0x60 DUP3 DUP5 SUB SLT ISZERO PUSH2 0x4557 JUMPI PUSH1 0x0 DUP1 REVERT JUMPDEST PUSH1 0x40 MLOAD PUSH1 0x60 DUP2 ADD PUSH1 0x1 PUSH1 0x1 PUSH1 0x40 SHL SUB DUP2 GT DUP3 DUP3 LT OR ISZERO PUSH2 0x4579 JUMPI PUSH2 0x4579 PUSH2 0x42BD JUMP JUMPDEST PUSH1 0x40 MSTORE SWAP1 POP DUP1 DUP3 CALLDATALOAD PUSH1 0x1 PUSH1 0x1 PUSH1 0x40 SHL SUB DUP2 GT ISZERO PUSH2 0x4595 JUMPI PUSH1 0x0 DUP1 REVERT JUMPDEST PUSH2 0x45A1 DUP6 DUP3 DUP7 ADD PUSH2 0x4371 JUMP JUMPDEST DUP3 MSTORE POP PUSH1 0x20 DUP4 ADD CALLDATALOAD PUSH1 0x1 PUSH1 0x1 PUSH1 0x40 SHL SUB DUP2 GT ISZERO PUSH2 0x45BD JUMPI PUSH1 0x0 DUP1 REVERT JUMPDEST PUSH2 0x45C9 DUP6 DUP3 DUP7 ADD PUSH2 0x43E1 JUMP JUMPDEST PUSH1 0x20 DUP4 ADD MSTORE POP PUSH1 0x40 DUP4 ADD CALLDATALOAD PUSH1 0x1 PUSH1 0x1 PUSH1 0x40 SHL SUB DUP2 GT ISZERO PUSH2 0x45E8 JUMPI PUSH1 0x0 DUP1 REVERT JUMPDEST PUSH2 0x45F4 DUP6 DUP3 DUP7 ADD PUSH2 0x44C3 JUMP JUMPDEST PUSH1 0x40 DUP4 ADD MSTORE POP POP SWAP3 SWAP2 POP POP JUMP JUMPDEST DUP1 ISZERO ISZERO DUP2 EQ PUSH2 0x407C JUMPI PUSH1 0x0 DUP1 REVERT JUMPDEST PUSH1 0x0 PUSH1 0x80 DUP3 DUP5 SUB SLT ISZERO PUSH2 0x4621 JUMPI PUSH1 0x0 DUP1 REVERT JUMPDEST PUSH1 0x40 MLOAD PUSH1 0x80 DUP2 ADD PUSH1 0x1 PUSH1 0x1 PUSH1 0x40 SHL SUB DUP2 GT DUP3 DUP3 LT OR ISZERO PUSH2 0x4643 JUMPI PUSH2 0x4643 PUSH2 0x42BD JUMP JUMPDEST PUSH1 0x40 MSTORE SWAP1 POP DUP1 DUP3 CALLDATALOAD PUSH2 0x4654 DUP2 PUSH2 0x43D4 JUMP JUMPDEST DUP2 MSTORE PUSH1 0x20 DUP4 DUP2 ADD CALLDATALOAD SWAP1 DUP3 ADD MSTORE PUSH1 0x40 DUP4 ADD CALLDATALOAD PUSH2 0x466E DUP2 PUSH2 0x4601 JUMP JUMPDEST PUSH1 0x40 DUP3 ADD MSTORE PUSH1 0x60 DUP4 ADD CALLDATALOAD PUSH2 0x4681 DUP2 PUSH2 0x4601 JUMP JUMPDEST PUSH1 0x60 SWAP2 SWAP1 SWAP2 ADD MSTORE SWAP3 SWAP2 POP POP JUMP JUMPDEST PUSH1 0x0 DUP3 PUSH1 0x1F DUP4 ADD SLT PUSH2 0x469F JUMPI PUSH1 0x0 DUP1 REVERT JUMPDEST DUP2 CALLDATALOAD PUSH2 0x46AD PUSH2 0x4390 DUP3 PUSH2 0x434E JUMP JUMPDEST DUP1 DUP3 DUP3 MSTORE PUSH1 0x20 DUP3 ADD SWAP2 POP PUSH1 0x20 DUP4 PUSH1 0x7 SHL DUP7 ADD ADD SWAP3 POP DUP6 DUP4 GT ISZERO PUSH2 0x46CF JUMPI PUSH1 0x0 DUP1 REVERT JUMPDEST PUSH1 0x20 DUP6 ADD JUMPDEST DUP4 DUP2 LT ISZERO PUSH2 0x1C9A JUMPI PUSH2 0x46E6 DUP8 DUP3 PUSH2 0x460F JUMP JUMPDEST DUP4 MSTORE PUSH1 0x20 SWAP1 SWAP3 ADD SWAP2 PUSH1 0x80 ADD PUSH2 0x46D4 JUMP JUMPDEST PUSH1 0x0 DUP3 PUSH1 0x1F DUP4 ADD SLT PUSH2 0x4707 JUMPI PUSH1 0x0 DUP1 REVERT JUMPDEST DUP2 CALLDATALOAD PUSH2 0x4715 PUSH2 0x4390 DUP3 PUSH2 0x434E JUMP JUMPDEST DUP1 DUP3 DUP3 MSTORE PUSH1 0x20 DUP3 ADD SWAP2 POP PUSH1 0x20 DUP4 PUSH1 0x5 SHL DUP7 ADD ADD SWAP3 POP DUP6 DUP4 GT ISZERO PUSH2 0x4737 JUMPI PUSH1 0x0 DUP1 REVERT JUMPDEST PUSH1 0x20 DUP6 ADD JUMPDEST DUP4 DUP2 LT ISZERO PUSH2 0x1C9A JUMPI DUP1 CALLDATALOAD PUSH1 0x1 PUSH1 0x1 PUSH1 0x40 SHL SUB DUP2 GT ISZERO PUSH2 0x475A JUMPI PUSH1 0x0 DUP1 REVERT JUMPDEST DUP7 ADD PUSH1 0x40 DUP2 DUP10 SUB PUSH1 0x1F NOT ADD SLT ISZERO PUSH2 0x4770 JUMPI PUSH1 0x0 DUP1 REVERT JUMPDEST PUSH2 0x4778 PUSH2 0x42D3 JUMP JUMPDEST PUSH1 0x20 DUP3 ADD CALLDATALOAD DUP2 MSTORE PUSH1 0x40 DUP3 ADD CALLDATALOAD PUSH1 0x1 PUSH1 0x1 PUSH1 0x40 SHL SUB DUP2 GT ISZERO PUSH2 0x4798 JUMPI PUSH1 0x0 DUP1 REVERT JUMPDEST PUSH1 0x20 DUP2 DUP5 ADD ADD SWAP3 POP POP DUP9 PUSH1 0x1F DUP4 ADD SLT PUSH2 0x47B0 JUMPI PUSH1 0x0 DUP1 REVERT JUMPDEST DUP2 CALLDATALOAD PUSH2 0x47BE PUSH2 0x4390 DUP3 PUSH2 0x434E JUMP JUMPDEST DUP1 DUP3 DUP3 MSTORE PUSH1 0x20 DUP3 ADD SWAP2 POP PUSH1 0x20 PUSH1 0xA0 DUP5 MUL DUP7 ADD ADD SWAP3 POP DUP12 DUP4 GT ISZERO PUSH2 0x47E0 JUMPI PUSH1 0x0 DUP1 REVERT JUMPDEST PUSH1 0x20 DUP6 ADD SWAP5 POP JUMPDEST DUP3 DUP6 LT ISZERO PUSH2 0x483B JUMPI PUSH1 0xA0 DUP6 DUP14 SUB SLT ISZERO PUSH2 0x47FF JUMPI PUSH1 0x0 DUP1 REVERT JUMPDEST PUSH2 0x4807 PUSH2 0x42D3 JUMP JUMPDEST DUP6 CALLDATALOAD PUSH2 0x4812 DUP2 PUSH2 0x43D4 JUMP JUMPDEST DUP2 MSTORE PUSH2 0x4821 DUP14 PUSH1 0x20 DUP9 ADD PUSH2 0x460F JUMP JUMPDEST PUSH1 0x20 DUP3 ADD MSTORE DUP1 DUP4 MSTORE POP PUSH1 0x20 DUP3 ADD SWAP2 POP PUSH1 0xA0 DUP6 ADD SWAP5 POP PUSH2 0x47E7 JUMP JUMPDEST DUP1 PUSH1 0x20 DUP6 ADD MSTORE POP POP POP DUP1 DUP6 MSTORE POP POP PUSH1 0x20 DUP4 ADD SWAP3 POP PUSH1 0x20 DUP2 ADD SWAP1 POP PUSH2 0x473C JUMP JUMPDEST PUSH1 0x0 PUSH2 0x100 DUP3 DUP5 SUB SLT ISZERO PUSH2 0x486D JUMPI PUSH1 0x0 DUP1 REVERT JUMPDEST PUSH2 0x4875 PUSH2 0x42FB JUMP JUMPDEST SWAP1 POP DUP2 CALLDATALOAD PUSH1 0x1 PUSH1 0x1 PUSH1 0x40 SHL SUB DUP2 GT ISZERO PUSH2 0x488D JUMPI PUSH1 0x0 DUP1 REVERT JUMPDEST PUSH2 0x4899 DUP5 DUP3 DUP6 ADD PUSH2 0x4371 JUMP JUMPDEST DUP3 MSTORE POP PUSH1 0x20 DUP3 ADD CALLDATALOAD PUSH1 0x1 PUSH1 0x1 PUSH1 0x40 SHL SUB DUP2 GT ISZERO PUSH2 0x48B5 JUMPI PUSH1 0x0 DUP1 REVERT JUMPDEST PUSH2 0x48C1 DUP5 DUP3 DUP6 ADD PUSH2 0x4545 JUMP JUMPDEST PUSH1 0x20 DUP4 ADD MSTORE POP PUSH1 0x40 DUP3 ADD CALLDATALOAD PUSH1 0x1 PUSH1 0x1 PUSH1 0x40 SHL SUB DUP2 GT ISZERO PUSH2 0x48E0 JUMPI PUSH1 0x0 DUP1 REVERT JUMPDEST PUSH2 0x48EC DUP5 DUP3 DUP6 ADD PUSH2 0x468E JUMP JUMPDEST PUSH1 0x40 DUP4 ADD MSTORE POP PUSH1 0x60 DUP3 ADD CALLDATALOAD PUSH1 0x1 PUSH1 0x1 PUSH1 0x40 SHL SUB DUP2 GT ISZERO PUSH2 0x490B JUMPI PUSH1 0x0 DUP1 REVERT JUMPDEST PUSH2 0x4917 DUP5 DUP3 DUP6 ADD PUSH2 0x468E JUMP JUMPDEST PUSH1 0x60 DUP4 ADD MSTORE POP PUSH1 0x80 DUP3 ADD CALLDATALOAD PUSH1 0x1 PUSH1 0x1 PUSH1 0x40 SHL SUB DUP2 GT ISZERO PUSH2 0x4936 JUMPI PUSH1 0x0 DUP1 REVERT JUMPDEST PUSH2 0x4942 DUP5 DUP3 DUP6 ADD PUSH2 0x46F6 JUMP JUMPDEST PUSH1 0x80 DUP4 ADD MSTORE POP PUSH1 0xA0 DUP3 ADD CALLDATALOAD PUSH1 0x1 PUSH1 0x1 PUSH1 0x40 SHL SUB DUP2 GT ISZERO PUSH2 0x4961 JUMPI PUSH1 0x0 DUP1 REVERT JUMPDEST PUSH2 0x496D DUP5 DUP3 DUP6 ADD PUSH2 0x46F6 JUMP JUMPDEST PUSH1 0xA0 DUP4 ADD MSTORE POP PUSH1 0xC0 DUP3 ADD CALLDATALOAD PUSH1 0x1 PUSH1 0x1 PUSH1 0x40 SHL SUB DUP2 GT ISZERO PUSH2 0x498C JUMPI PUSH1 0x0 DUP1 REVERT JUMPDEST PUSH2 0x4998 DUP5 DUP3 DUP6 ADD PUSH2 0x4371 JUMP JUMPDEST PUSH1 0xC0 DUP4 ADD MSTORE POP PUSH1 0xE0 DUP3 ADD CALLDATALOAD PUSH1 0x1 PUSH1 0x1 PUSH1 0x40 SHL SUB DUP2 GT ISZERO PUSH2 0x49B7 JUMPI PUSH1 0x0 DUP1 REVERT JUMPDEST PUSH2 0x49C3 DUP5 DUP3 DUP6 ADD PUSH2 0x4371 JUMP JUMPDEST PUSH1 0xE0 DUP4 ADD MSTORE POP SWAP3 SWAP2 POP POP JUMP JUMPDEST PUSH1 0x0 PUSH1 0x40 DUP3 DUP5 SUB SLT ISZERO PUSH2 0x49E1 JUMPI PUSH1 0x0 DUP1 REVERT JUMPDEST PUSH2 0x49E9 PUSH2 0x42D3 JUMP JUMPDEST SWAP1 POP DUP2 CALLDATALOAD PUSH1 0x1 PUSH1 0x1 PUSH1 0x40 SHL SUB DUP2 GT ISZERO PUSH2 0x4A01 JUMPI PUSH1 0x0 DUP1 REVERT JUMPDEST PUSH2 0x4A0D DUP5 DUP3 DUP6 ADD PUSH2 0x43E1 JUMP JUMPDEST DUP3 MSTORE POP PUSH1 0x20 DUP3 ADD CALLDATALOAD PUSH1 0x1 PUSH1 0x1 PUSH1 0x40 SHL SUB DUP2 GT ISZERO PUSH2 0x4A29 JUMPI PUSH1 0x0 DUP1 REVERT JUMPDEST PUSH2 0x4A35 DUP5 DUP3 DUP6 ADD PUSH2 0x44C3 JUMP JUMPDEST PUSH1 0x20 DUP4 ADD MSTORE POP SWAP3 SWAP2 POP POP JUMP JUMPDEST PUSH1 0x0 DUP1 PUSH1 0x0 DUP1 PUSH1 0x80 DUP6 DUP8 SUB SLT ISZERO PUSH2 0x4A57 JUMPI PUSH1 0x0 DUP1 REVERT JUMPDEST DUP5 CALLDATALOAD SWAP4 POP PUSH1 0x20 DUP6 ADD CALLDATALOAD PUSH1 0x1 PUSH1 0x1 PUSH1 0x40 SHL SUB DUP2 GT ISZERO PUSH2 0x4A74 JUMPI PUSH1 0x0 DUP1 REVERT JUMPDEST PUSH2 0x4A80 DUP8 DUP3 DUP9 ADD PUSH2 0x485A JUMP JUMPDEST SWAP4 POP POP PUSH1 0x40 DUP6 ADD CALLDATALOAD PUSH1 0x1 PUSH1 0x1 PUSH1 0x40 SHL SUB DUP2 GT ISZERO PUSH2 0x4A9C JUMPI PUSH1 0x0 DUP1 REVERT JUMPDEST PUSH2 0x4AA8 DUP8 DUP3 DUP9 ADD PUSH2 0x49CF JUMP JUMPDEST SWAP3 POP POP PUSH1 0x60 DUP6 ADD CALLDATALOAD PUSH1 0x1 PUSH1 0x1 PUSH1 0x40 SHL SUB DUP2 GT ISZERO PUSH2 0x4AC4 JUMPI PUSH1 0x0 DUP1 REVERT JUMPDEST PUSH2 0x4AD0 DUP8 DUP3 DUP9 ADD PUSH2 0x4371 JUMP JUMPDEST SWAP2 POP POP SWAP3 SWAP6 SWAP2 SWAP5 POP SWAP3 POP JUMP JUMPDEST PUSH1 0x0 DUP1 PUSH1 0x0 DUP1 PUSH1 0x80 DUP6 DUP8 SUB SLT ISZERO PUSH2 0x4AF2 JUMPI PUSH1 0x0 DUP1 REVERT JUMPDEST DUP5 CALLDATALOAD SWAP4 POP PUSH1 0x20 DUP6 ADD CALLDATALOAD PUSH1 0x1 PUSH1 0x1 PUSH1 0x40 SHL SUB DUP2 GT ISZERO PUSH2 0x4B0F JUMPI PUSH1 0x0 DUP1 REVERT JUMPDEST PUSH2 0x4B1B DUP8 DUP3 DUP9 ADD PUSH2 0x468E JUMP JUMPDEST SWAP4 POP POP PUSH1 0x40 DUP6 ADD CALLDATALOAD PUSH1 0x1 PUSH1 0x1 PUSH1 0x40 SHL SUB DUP2 GT ISZERO PUSH2 0x4B37 JUMPI PUSH1 0x0 DUP1 REVERT JUMPDEST PUSH2 0x4B43 DUP8 DUP3 DUP9 ADD PUSH2 0x46F6 JUMP JUMPDEST SWAP3 POP POP PUSH1 0x60 DUP6 ADD CALLDATALOAD PUSH1 0x1 PUSH1 0x1 PUSH1 0x40 SHL SUB DUP2 GT ISZERO PUSH2 0x4B5F JUMPI PUSH1 0x0 DUP1 REVERT JUMPDEST PUSH2 0x4AD0 DUP8 DUP3 DUP9 ADD PUSH2 0x49CF JUMP JUMPDEST PUSH4 0x4E487B71 PUSH1 0xE0 SHL PUSH1 0x0 MSTORE PUSH1 0x21 PUSH1 0x4 MSTORE PUSH1 0x24 PUSH1 0x0 REVERT JUMPDEST PUSH1 0x6 DUP2 LT PUSH2 0x4B91 JUMPI PUSH2 0x4B91 PUSH2 0x4B6B JUMP JUMPDEST SWAP1 MSTORE JUMP JUMPDEST PUSH1 0x0 DUP2 MLOAD DUP1 DUP5 MSTORE PUSH1 0x20 DUP5 ADD SWAP4 POP PUSH1 0x20 DUP4 ADD PUSH1 0x0 JUMPDEST DUP3 DUP2 LT ISZERO PUSH2 0x4BCF JUMPI PUSH2 0x4BBC DUP7 DUP4 MLOAD PUSH2 0x4B81 JUMP JUMPDEST PUSH1 0x20 SWAP6 DUP7 ADD SWAP6 SWAP2 SWAP1 SWAP2 ADD SWAP1 PUSH1 0x1 ADD PUSH2 0x4BA9 JUMP JUMPDEST POP SWAP4 SWAP5 SWAP4 POP POP POP POP JUMP JUMPDEST PUSH1 0x0 JUMPDEST DUP4 DUP2 LT ISZERO PUSH2 0x4BF4 JUMPI DUP2 DUP2 ADD MLOAD DUP4 DUP3 ADD MSTORE PUSH1 0x20 ADD PUSH2 0x4BDC JUMP JUMPDEST POP POP PUSH1 0x0 SWAP2 ADD MSTORE JUMP JUMPDEST PUSH1 0x0 DUP2 MLOAD DUP1 DUP5 MSTORE PUSH2 0x4C15 DUP2 PUSH1 0x20 DUP7 ADD PUSH1 0x20 DUP7 ADD PUSH2 0x4BD9 JUMP JUMPDEST PUSH1 0x1F ADD PUSH1 0x1F NOT AND SWAP3 SWAP1 SWAP3 ADD PUSH1 0x20 ADD SWAP3 SWAP2 POP POP JUMP JUMPDEST PUSH1 0x0 DUP3 DUP3 MLOAD DUP1 DUP6 MSTORE PUSH1 0x20 DUP6 ADD SWAP5 POP PUSH1 0x20 DUP2 PUSH1 0x5 SHL DUP4 ADD ADD PUSH1 0x20 DUP6 ADD PUSH1 0x0 JUMPDEST DUP4 DUP2 LT ISZERO PUSH2 0x916 JUMPI PUSH1 0x1F NOT DUP6 DUP5 SUB ADD DUP9 MSTORE PUSH2 0x4C63 DUP4 DUP4 MLOAD PUSH2 0x4BFD JUMP JUMPDEST PUSH1 0x20 SWAP9 DUP10 ADD SWAP9 SWAP1 SWAP4 POP SWAP2 SWAP1 SWAP2 ADD SWAP1 PUSH1 0x1 ADD PUSH2 0x4C47 JUMP JUMPDEST PUSH1 0x0 DUP2 MLOAD PUSH1 0x40 DUP5 MSTORE PUSH2 0x4C8E PUSH1 0x40 DUP6 ADD DUP3 PUSH2 0x4B95 JUMP JUMPDEST SWAP1 POP PUSH1 0x20 DUP4 ADD MLOAD DUP5 DUP3 SUB PUSH1 0x20 DUP7 ADD MSTORE PUSH2 0x2312 DUP3 DUP3 PUSH2 0x4C29 JUMP JUMPDEST PUSH1 0x20 DUP2 MSTORE PUSH1 0x0 PUSH2 0x4CBA PUSH1 0x20 DUP4 ADD DUP5 PUSH2 0x4C79 JUMP JUMPDEST SWAP4 SWAP3 POP POP POP JUMP JUMPDEST PUSH1 0x1 PUSH1 0x1 PUSH1 0xA0 SHL SUB DUP2 AND DUP2 EQ PUSH2 0x407C JUMPI PUSH1 0x0 DUP1 REVERT JUMPDEST PUSH1 0x0 DUP1 PUSH1 0x0 DUP1 PUSH1 0x0 PUSH1 0xA0 DUP7 DUP9 SUB SLT ISZERO PUSH2 0x4CEE JUMPI PUSH1 0x0 DUP1 REVERT JUMPDEST DUP6 CALLDATALOAD SWAP5 POP PUSH1 0x20 DUP7 ADD CALLDATALOAD PUSH2 0x4D00 DUP2 PUSH2 0x4CC1 JUMP JUMPDEST SWAP4 POP PUSH1 0x40 DUP7 ADD CALLDATALOAD PUSH1 0x1 PUSH1 0x1 PUSH1 0x40 SHL SUB DUP2 GT ISZERO PUSH2 0x4D1B JUMPI PUSH1 0x0 DUP1 REVERT JUMPDEST PUSH2 0x4D27 DUP9 DUP3 DUP10 ADD PUSH2 0x446F JUMP JUMPDEST SWAP4 POP POP PUSH1 0x60 DUP7 ADD CALLDATALOAD PUSH2 0x4D38 DUP2 PUSH2 0x43D4 JUMP JUMPDEST SWAP2 POP PUSH1 0x80 DUP7 ADD CALLDATALOAD PUSH1 0x1 PUSH1 0x1 PUSH1 0x40 SHL SUB DUP2 GT ISZERO PUSH2 0x4D53 JUMPI PUSH1 0x0 DUP1 REVERT JUMPDEST PUSH2 0x4D5F DUP9 DUP3 DUP10 ADD PUSH2 0x43E1 JUMP JUMPDEST SWAP2 POP POP SWAP3 SWAP6 POP SWAP3 SWAP6 SWAP1 SWAP4 POP JUMP JUMPDEST PUSH1 0x20 DUP2 MSTORE PUSH1 0x1 DUP1 PUSH1 0xA0 SHL SUB DUP3 MLOAD AND PUSH1 0x20 DUP3 ADD MSTORE PUSH1 0x20 DUP3 ADD MLOAD PUSH1 0x40 DUP3 ADD MSTORE PUSH4 0xFFFFFFFF PUSH1 0xE0 SHL PUSH1 0x40 DUP4 ADD MLOAD AND PUSH1 0x60 DUP3 ADD MSTORE PUSH1 0x0 PUSH1 0x60 DUP4 ADD MLOAD PUSH2 0x4DB0 PUSH1 0x80 DUP5 ADD DUP3 PUSH2 0x4B81 JUMP JUMPDEST POP PUSH1 0x80 DUP4 ADD MLOAD PUSH1 0xA0 DUP1 DUP5 ADD MSTORE PUSH2 0x4DC9 PUSH1 0xC0 DUP5 ADD DUP3 PUSH2 0x4B95 JUMP JUMPDEST SWAP5 SWAP4 POP POP POP POP JUMP JUMPDEST PUSH1 0x0 DUP1 PUSH1 0x40 DUP4 DUP6 SUB SLT ISZERO PUSH2 0x4DE4 JUMPI PUSH1 0x0 DUP1 REVERT JUMPDEST POP POP DUP1 CALLDATALOAD SWAP3 PUSH1 0x20 SWAP1 SWAP2 ADD CALLDATALOAD SWAP2 POP JUMP JUMPDEST PUSH1 0x20 DUP2 MSTORE DUP2 MLOAD PUSH1 0x20 DUP3 ADD MSTORE PUSH1 0x0 PUSH1 0x20 DUP4 ADD MLOAD PUSH1 0x40 DUP1 DUP5 ADD MSTORE PUSH2 0x4DC9 PUSH1 0x60 DUP5 ADD DUP3 PUSH2 0x4BFD JUMP JUMPDEST PUSH1 0x0 DUP1 DUP4 PUSH1 0x1F DUP5 ADD SLT PUSH2 0x4E2A JUMPI PUSH1 0x0 DUP1 REVERT JUMPDEST POP DUP2 CALLDATALOAD PUSH1 0x1 PUSH1 0x1 PUSH1 0x40 SHL SUB DUP2 GT ISZERO PUSH2 0x4E41 JUMPI PUSH1 0x0 DUP1 REVERT JUMPDEST PUSH1 0x20 DUP4 ADD SWAP2 POP DUP4 PUSH1 0x20 DUP3 PUSH1 0x5 SHL DUP6 ADD ADD GT ISZERO PUSH2 0x4E5C JUMPI PUSH1 0x0 DUP1 REVERT JUMPDEST SWAP3 POP SWAP3 SWAP1 POP JUMP JUMPDEST PUSH1 0x0 DUP1 PUSH1 0x0 DUP1 PUSH1 0x0 DUP1 PUSH1 0x0 PUSH1 0x80 DUP9 DUP11 SUB SLT ISZERO PUSH2 0x4E7E JUMPI PUSH1 0x0 DUP1 REVERT JUMPDEST DUP8 CALLDATALOAD SWAP7 POP PUSH1 0x20 DUP9 ADD CALLDATALOAD PUSH1 0x1 PUSH1 0x1 PUSH1 0x40 SHL SUB DUP2 GT ISZERO PUSH2 0x4E9B JUMPI PUSH1 0x0 DUP1 REVERT JUMPDEST PUSH2 0x4EA7 DUP11 DUP3 DUP12 ADD PUSH2 0x4E18 JUMP JUMPDEST SWAP1 SWAP8 POP SWAP6 POP POP PUSH1 0x40 DUP9 ADD CALLDATALOAD PUSH1 0x1 PUSH1 0x1 PUSH1 0x40 SHL SUB DUP2 GT ISZERO PUSH2 0x4EC6 JUMPI PUSH1 0x0 DUP1 REVERT JUMPDEST PUSH2 0x4ED2 DUP11 DUP3 DUP12 ADD PUSH2 0x4E18 JUMP JUMPDEST SWAP1 SWAP6 POP SWAP4 POP POP PUSH1 0x60 DUP9 ADD CALLDATALOAD PUSH1 0x1 PUSH1 0x1 PUSH1 0x40 SHL SUB DUP2 GT ISZERO PUSH2 0x4EF1 JUMPI PUSH1 0x0 DUP1 REVERT JUMPDEST PUSH2 0x4EFD DUP11 DUP3 DUP12 ADD PUSH2 0x4E18 JUMP JUMPDEST SWAP9 SWAP12 SWAP8 SWAP11 POP SWAP6 SWAP9 POP SWAP4 SWAP7 SWAP3 SWAP6 SWAP3 SWAP4 POP POP POP JUMP JUMPDEST PUSH1 0x0 DUP1 PUSH1 0x0 PUSH1 0x60 DUP5 DUP7 SUB SLT ISZERO PUSH2 0x4F25 JUMPI PUSH1 0x0 DUP1 REVERT JUMPDEST DUP4 CALLDATALOAD SWAP3 POP PUSH1 0x20 DUP5 ADD CALLDATALOAD PUSH1 0x1 PUSH1 0x1 PUSH1 0x40 SHL SUB DUP2 GT ISZERO PUSH2 0x4F42 JUMPI PUSH1 0x0 DUP1 REVERT JUMPDEST DUP5 ADD PUSH1 0x1F DUP2 ADD DUP7 SGT PUSH2 0x4F53 JUMPI PUSH1 0x0 DUP1 REVERT JUMPDEST DUP1 CALLDATALOAD PUSH2 0x4F61 PUSH2 0x4390 DUP3 PUSH2 0x434E JUMP JUMPDEST DUP1 DUP3 DUP3 MSTORE PUSH1 0x20 DUP3 ADD SWAP2 POP PUSH1 0x20 DUP4 PUSH1 0x5 SHL DUP6 ADD ADD SWAP3 POP DUP9 DUP4 GT ISZERO PUSH2 0x4F83 JUMPI PUSH1 0x0 DUP1 REVERT JUMPDEST PUSH1 0x20 DUP5 ADD JUMPDEST DUP4 DUP2 LT ISZERO PUSH2 0x4FC4 JUMPI DUP1 CALLDATALOAD PUSH1 0x1 PUSH1 0x1 PUSH1 0x40 SHL SUB DUP2 GT ISZERO PUSH2 0x4FA6 JUMPI PUSH1 0x0 DUP1 REVERT JUMPDEST PUSH2 0x4FB5 DUP12 PUSH1 0x20 DUP4 DUP10 ADD ADD PUSH2 0x485A JUMP JUMPDEST DUP5 MSTORE POP PUSH1 0x20 SWAP3 DUP4 ADD SWAP3 ADD PUSH2 0x4F88 JUMP JUMPDEST POP SWAP5 POP POP POP POP PUSH1 0x40 DUP5 ADD CALLDATALOAD PUSH1 0x1 PUSH1 0x1 PUSH1 0x40 SHL SUB DUP2 GT ISZERO PUSH2 0x4FE3 JUMPI PUSH1 0x0 DUP1 REVERT JUMPDEST PUSH2 0x4FEF DUP7 DUP3 DUP8 ADD PUSH2 0x49CF JUMP JUMPDEST SWAP2 POP POP SWAP3 POP SWAP3 POP SWAP3 JUMP JUMPDEST PUSH2 0x5004 DUP3 DUP3 MLOAD PUSH2 0x4B81 JUMP JUMPDEST PUSH1 0x0 PUSH1 0x20 DUP3 ADD MLOAD PUSH1 0x40 PUSH1 0x20 DUP6 ADD MSTORE PUSH2 0x4DC9 PUSH1 0x40 DUP6 ADD DUP3 PUSH2 0x4BFD JUMP JUMPDEST PUSH1 0x20 DUP2 MSTORE PUSH1 0x0 PUSH2 0x4CBA PUSH1 0x20 DUP4 ADD DUP5 PUSH2 0x4FF9 JUMP JUMPDEST PUSH1 0x0 PUSH1 0x40 DUP3 DUP5 SUB SLT ISZERO PUSH2 0x5044 JUMPI PUSH1 0x0 DUP1 REVERT JUMPDEST POP SWAP2 SWAP1 POP JUMP JUMPDEST PUSH1 0x0 DUP1 PUSH1 0x0 DUP1 PUSH1 0x60 DUP6 DUP8 SUB SLT ISZERO PUSH2 0x5060 JUMPI PUSH1 0x0 DUP1 REVERT JUMPDEST DUP5 CALLDATALOAD SWAP4 POP PUSH1 0x20 DUP6 ADD CALLDATALOAD PUSH1 0x1 PUSH1 0x1 PUSH1 0x40 SHL SUB DUP2 GT ISZERO PUSH2 0x507D JUMPI PUSH1 0x0 DUP1 REVERT JUMPDEST PUSH2 0x5089 DUP8 DUP3 DUP9 ADD PUSH2 0x4E18 JUMP JUMPDEST SWAP1 SWAP5 POP SWAP3 POP POP PUSH1 0x40 DUP6 ADD CALLDATALOAD PUSH1 0x1 PUSH1 0x1 PUSH1 0x40 SHL SUB DUP2 GT ISZERO PUSH2 0x50A8 JUMPI PUSH1 0x0 DUP1 REVERT JUMPDEST PUSH2 0x4AD0 DUP8 DUP3 DUP9 ADD PUSH2 0x5032 JUMP JUMPDEST PUSH1 0x0 PUSH1 0x20 DUP3 DUP5 SUB SLT ISZERO PUSH2 0x50C6 JUMPI PUSH1 0x0 DUP1 REVERT JUMPDEST DUP2 CALLDATALOAD PUSH2 0x4CBA DUP2 PUSH2 0x4601 JUMP JUMPDEST PUSH1 0x0 DUP1 DUP4 PUSH1 0x1F DUP5 ADD SLT PUSH2 0x50E3 JUMPI PUSH1 0x0 DUP1 REVERT JUMPDEST POP DUP2 CALLDATALOAD PUSH1 0x1 PUSH1 0x1 PUSH1 0x40 SHL SUB DUP2 GT ISZERO PUSH2 0x50FA JUMPI PUSH1 0x0 DUP1 REVERT JUMPDEST PUSH1 0x20 DUP4 ADD SWAP2 POP DUP4 PUSH1 0x20 DUP3 DUP6 ADD ADD GT ISZERO PUSH2 0x4E5C JUMPI PUSH1 0x0 DUP1 REVERT JUMPDEST PUSH1 0x0 DUP1 PUSH1 0x0 DUP1 PUSH1 0x0 PUSH1 0x60 DUP7 DUP9 SUB SLT ISZERO PUSH2 0x512A JUMPI PUSH1 0x0 DUP1 REVERT JUMPDEST DUP6 CALLDATALOAD PUSH2 0x5135 DUP2 PUSH2 0x4CC1 JUMP JUMPDEST SWAP5 POP PUSH1 0x20 DUP7 ADD CALLDATALOAD PUSH1 0x1 PUSH1 0x1 PUSH1 0x40 SHL SUB DUP2 GT ISZERO PUSH2 0x5150 JUMPI PUSH1 0x0 DUP1 REVERT JUMPDEST PUSH2 0x515C DUP9 DUP3 DUP10 ADD PUSH2 0x50D1 JUMP JUMPDEST SWAP1 SWAP6 POP SWAP4 POP POP PUSH1 0x40 DUP7 ADD CALLDATALOAD PUSH1 0x1 PUSH1 0x1 PUSH1 0x40 SHL SUB DUP2 GT ISZERO PUSH2 0x517B JUMPI PUSH1 0x0 DUP1 REVERT JUMPDEST PUSH2 0x5187 DUP9 DUP3 DUP10 ADD PUSH2 0x50D1 JUMP JUMPDEST SWAP7 SWAP10 SWAP6 SWAP9 POP SWAP4 SWAP7 POP SWAP3 SWAP5 SWAP4 SWAP3 POP POP POP JUMP JUMPDEST PUSH1 0x0 DUP1 PUSH1 0x0 PUSH1 0x40 DUP5 DUP7 SUB SLT ISZERO PUSH2 0x51AD JUMPI PUSH1 0x0 DUP1 REVERT JUMPDEST DUP4 CALLDATALOAD PUSH2 0x51B8 DUP2 PUSH2 0x4CC1 JUMP JUMPDEST SWAP3 POP PUSH1 0x20 DUP5 ADD CALLDATALOAD PUSH1 0x1 PUSH1 0x1 PUSH1 0x40 SHL SUB DUP2 GT ISZERO PUSH2 0x51D3 JUMPI PUSH1 0x0 DUP1 REVERT JUMPDEST PUSH2 0x51DF DUP7 DUP3 DUP8 ADD PUSH2 0x4E18 JUMP JUMPDEST SWAP5 SWAP8 SWAP1 SWAP7 POP SWAP4 SWAP5 POP POP POP POP JUMP JUMPDEST PUSH1 0x0 DUP1 PUSH1 0x0 DUP1 PUSH1 0x0 DUP1 PUSH1 0xC0 DUP8 DUP10 SUB SLT ISZERO PUSH2 0x5205 JUMPI PUSH1 0x0 DUP1 REVERT JUMPDEST DUP7 CALLDATALOAD SWAP6 POP PUSH1 0x20 DUP8 ADD CALLDATALOAD SWAP5 POP PUSH1 0x40 DUP8 ADD CALLDATALOAD PUSH2 0x521E DUP2 PUSH2 0x4CC1 JUMP JUMPDEST SWAP4 POP PUSH1 0x60 DUP8 ADD CALLDATALOAD PUSH1 0x1 PUSH1 0x1 PUSH1 0x40 SHL SUB DUP2 GT ISZERO PUSH2 0x5239 JUMPI PUSH1 0x0 DUP1 REVERT JUMPDEST PUSH2 0x5245 DUP10 DUP3 DUP11 ADD PUSH2 0x446F JUMP JUMPDEST SWAP4 POP POP PUSH1 0x80 DUP8 ADD CALLDATALOAD PUSH2 0x5256 DUP2 PUSH2 0x4601 JUMP JUMPDEST SWAP2 POP PUSH1 0xA0 DUP8 ADD CALLDATALOAD PUSH1 0x1 PUSH1 0x1 PUSH1 0x40 SHL SUB DUP2 GT ISZERO PUSH2 0x5271 JUMPI PUSH1 0x0 DUP1 REVERT JUMPDEST PUSH2 0x527D DUP10 DUP3 DUP11 ADD PUSH2 0x446F JUMP JUMPDEST SWAP2 POP POP SWAP3 SWAP6 POP SWAP3 SWAP6 POP SWAP3 SWAP6 JUMP JUMPDEST PUSH1 0x0 PUSH1 0x20 DUP3 DUP5 SUB SLT ISZERO PUSH2 0x529C JUMPI PUSH1 0x0 DUP1 REVERT JUMPDEST DUP2 CALLDATALOAD PUSH1 0x1 PUSH1 0x1 PUSH1 0x40 SHL SUB DUP2 GT ISZERO PUSH2 0x52B2 JUMPI PUSH1 0x0 DUP1 REVERT JUMPDEST DUP3 ADD PUSH1 0x80 DUP2 DUP6 SUB SLT ISZERO PUSH2 0x4CBA JUMPI PUSH1 0x0 DUP1 REVERT JUMPDEST PUSH1 0x0 DUP1 PUSH1 0x0 PUSH1 0x60 DUP5 DUP7 SUB SLT ISZERO PUSH2 0x52D9 JUMPI PUSH1 0x0 DUP1 REVERT JUMPDEST DUP4 CALLDATALOAD SWAP3 POP PUSH1 0x20 DUP5 ADD CALLDATALOAD PUSH1 0x1 PUSH1 0x1 PUSH1 0xE0 SHL SUB NOT DUP2 AND DUP2 EQ PUSH2 0x52F8 JUMPI PUSH1 0x0 DUP1 REVERT JUMPDEST SWAP2 POP PUSH1 0x40 DUP5 ADD CALLDATALOAD PUSH1 0x1 PUSH1 0x1 PUSH1 0x40 SHL SUB DUP2 GT ISZERO PUSH2 0x5313 JUMPI PUSH1 0x0 DUP1 REVERT JUMPDEST PUSH2 0x4FEF DUP7 DUP3 DUP8 ADD PUSH2 0x43E1 JUMP JUMPDEST PUSH1 0x0 DUP1 PUSH1 0x0 DUP1 PUSH1 0x0 PUSH1 0xA0 DUP7 DUP9 SUB SLT ISZERO PUSH2 0x5337 JUMPI PUSH1 0x0 DUP1 REVERT JUMPDEST DUP6 CALLDATALOAD SWAP5 POP PUSH1 0x20 DUP7 ADD CALLDATALOAD PUSH1 0x1 PUSH1 0x1 PUSH1 0x40 SHL SUB DUP2 GT ISZERO PUSH2 0x5354 JUMPI PUSH1 0x0 DUP1 REVERT JUMPDEST PUSH2 0x5360 DUP9 DUP3 DUP10 ADD PUSH2 0x468E JUMP JUMPDEST SWAP5 POP POP PUSH1 0x40 DUP7 ADD CALLDATALOAD PUSH1 0x1 PUSH1 0x1 PUSH1 0x40 SHL SUB DUP2 GT ISZERO PUSH2 0x537C JUMPI PUSH1 0x0 DUP1 REVERT JUMPDEST PUSH2 0x5388 DUP9 DUP3 DUP10 ADD PUSH2 0x46F6 JUMP JUMPDEST SWAP4 POP POP PUSH1 0x60 DUP7 ADD CALLDATALOAD PUSH1 0x1 PUSH1 0x1 PUSH1 0x40 SHL SUB DUP2 GT ISZERO PUSH2 0x53A4 JUMPI PUSH1 0x0 DUP1 REVERT JUMPDEST PUSH2 0x53B0 DUP9 DUP3 DUP10 ADD PUSH2 0x49CF JUMP JUMPDEST SWAP6 SWAP9 SWAP5 SWAP8 POP SWAP3 SWAP6 PUSH1 0x80 ADD CALLDATALOAD SWAP4 SWAP3 POP POP POP JUMP JUMPDEST PUSH1 0x0 DUP1 PUSH1 0x0 DUP1 PUSH1 0x0 PUSH1 0x80 DUP7 DUP9 SUB SLT ISZERO PUSH2 0x53DA JUMPI PUSH1 0x0 DUP1 REVERT JUMPDEST DUP6 CALLDATALOAD SWAP5 POP PUSH1 0x20 DUP7 ADD CALLDATALOAD PUSH1 0x1 PUSH1 0x1 PUSH1 0x40 SHL SUB DUP2 GT ISZERO PUSH2 0x53F7 JUMPI PUSH1 0x0 DUP1 REVERT JUMPDEST PUSH2 0x5403 DUP9 DUP3 DUP10 ADD PUSH2 0x4E18 JUMP JUMPDEST SWAP1 SWAP6 POP SWAP4 POP POP PUSH1 0x40 DUP7 ADD CALLDATALOAD PUSH1 0x1 PUSH1 0x1 PUSH1 0x40 SHL SUB DUP2 GT ISZERO PUSH2 0x5422 JUMPI PUSH1 0x0 DUP1 REVERT JUMPDEST PUSH2 0x542E DUP9 DUP3 DUP10 ADD PUSH2 0x485A JUMP JUMPDEST SWAP3 POP POP PUSH1 0x60 DUP7 ADD CALLDATALOAD PUSH1 0x1 PUSH1 0x1 PUSH1 0x40 SHL SUB DUP2 GT ISZERO PUSH2 0x544A JUMPI PUSH1 0x0 DUP1 REVERT JUMPDEST PUSH2 0x4D5F DUP9 DUP3 DUP10 ADD PUSH2 0x49CF JUMP JUMPDEST PUSH1 0x0 DUP1 PUSH1 0x40 DUP4 DUP6 SUB SLT ISZERO PUSH2 0x5469 JUMPI PUSH1 0x0 DUP1 REVERT JUMPDEST DUP3 CALLDATALOAD SWAP2 POP PUSH1 0x20 DUP4 ADD CALLDATALOAD PUSH1 0x1 PUSH1 0x1 PUSH1 0x40 SHL SUB DUP2 GT ISZERO PUSH2 0x5486 JUMPI PUSH1 0x0 DUP1 REVERT JUMPDEST DUP4 ADD PUSH2 0x100 DUP2 DUP7 SUB SLT ISZERO PUSH2 0x5499 JUMPI PUSH1 0x0 DUP1 REVERT JUMPDEST DUP1 SWAP2 POP POP SWAP3 POP SWAP3 SWAP1 POP JUMP JUMPDEST PUSH1 0x0 DUP1 PUSH1 0x40 DUP4 DUP6 SUB SLT ISZERO PUSH2 0x54B7 JUMPI PUSH1 0x0 DUP1 REVERT JUMPDEST DUP3 CALLDATALOAD SWAP2 POP PUSH1 0x20 DUP4 ADD CALLDATALOAD PUSH1 0x1 PUSH1 0x1 PUSH1 0x40 SHL SUB DUP2 GT ISZERO PUSH2 0x54D4 JUMPI PUSH1 0x0 DUP1 REVERT JUMPDEST PUSH2 0x54E0 DUP6 DUP3 DUP7 ADD PUSH2 0x5032 JUMP JUMPDEST SWAP2 POP POP SWAP3 POP SWAP3 SWAP1 POP JUMP JUMPDEST PUSH1 0x0 DUP2 MLOAD DUP1 DUP5 MSTORE PUSH1 0x20 DUP5 ADD SWAP4 POP PUSH1 0x20 DUP4 ADD PUSH1 0x0 JUMPDEST DUP3 DUP2 LT ISZERO PUSH2 0x4BCF JUMPI DUP2 MLOAD DUP7 MSTORE PUSH1 0x20 SWAP6 DUP7 ADD SWAP6 SWAP1 SWAP2 ADD SWAP1 PUSH1 0x1 ADD PUSH2 0x54FE JUMP JUMPDEST DUP4 DUP2 MSTORE PUSH1 0x60 PUSH1 0x20 DUP3 ADD MSTORE PUSH1 0x0 PUSH2 0x5535 PUSH1 0x60 DUP4 ADD DUP6 PUSH2 0x54EA JUMP JUMPDEST DUP3 DUP2 SUB PUSH1 0x40 DUP5 ADD MSTORE PUSH2 0x5547 DUP2 DUP6 PUSH2 0x4C79 JUMP JUMPDEST SWAP7 SWAP6 POP POP POP POP POP POP JUMP JUMPDEST PUSH1 0x0 PUSH1 0x20 DUP3 DUP5 SUB SLT ISZERO PUSH2 0x5563 JUMPI PUSH1 0x0 DUP1 REVERT JUMPDEST DUP2 MLOAD PUSH2 0x4CBA DUP2 PUSH2 0x4601 JUMP JUMPDEST PUSH4 0x4E487B71 PUSH1 0xE0 SHL PUSH1 0x0 MSTORE PUSH1 0x32 PUSH1 0x4 MSTORE PUSH1 0x24 PUSH1 0x0 REVERT JUMPDEST PUSH4 0x4E487B71 PUSH1 0xE0 SHL PUSH1 0x0 MSTORE PUSH1 0x11 PUSH1 0x4 MSTORE PUSH1 0x24 PUSH1 0x0 REVERT JUMPDEST PUSH1 0x0 PUSH1 0x1 DUP3 ADD PUSH2 0x55AC JUMPI PUSH2 0x55AC PUSH2 0x5584 JUMP JUMPDEST POP PUSH1 0x1 ADD SWAP1 JUMP JUMPDEST PUSH1 0x1 DUP2 DUP2 SHR SWAP1 DUP3 AND DUP1 PUSH2 0x55C7 JUMPI PUSH1 0x7F DUP3 AND SWAP2 POP JUMPDEST PUSH1 0x20 DUP3 LT DUP2 SUB PUSH2 0x5044 JUMPI PUSH4 0x4E487B71 PUSH1 0xE0 SHL PUSH1 0x0 MSTORE PUSH1 0x22 PUSH1 0x4 MSTORE PUSH1 0x24 PUSH1 0x0 REVERT JUMPDEST PUSH1 0x0 PUSH1 0x20 DUP3 DUP5 SUB SLT ISZERO PUSH2 0x55F9 JUMPI PUSH1 0x0 DUP1 REVERT JUMPDEST DUP2 MLOAD PUSH1 0x1 PUSH1 0x1 PUSH1 0x40 SHL SUB DUP2 GT ISZERO PUSH2 0x560F JUMPI PUSH1 0x0 DUP1 REVERT JUMPDEST DUP3 ADD PUSH1 0x1F DUP2 ADD DUP5 SGT PUSH2 0x5620 JUMPI PUSH1 0x0 DUP1 REVERT JUMPDEST DUP1 MLOAD PUSH2 0x562E PUSH2 0x4390 DUP3 PUSH2 0x4448 JUMP JUMPDEST DUP2 DUP2 MSTORE DUP6 PUSH1 0x20 DUP4 DUP6 ADD ADD GT ISZERO PUSH2 0x5643 JUMPI PUSH1 0x0 DUP1 REVERT JUMPDEST PUSH2 0x2312 DUP3 PUSH1 0x20 DUP4 ADD PUSH1 0x20 DUP7 ADD PUSH2 0x4BD9 JUMP JUMPDEST PUSH1 0x0 DUP1 DUP4 CALLDATALOAD PUSH1 0x1E NOT DUP5 CALLDATASIZE SUB ADD DUP2 SLT PUSH2 0x566B JUMPI PUSH1 0x0 DUP1 REVERT JUMPDEST DUP4 ADD DUP1 CALLDATALOAD SWAP2 POP PUSH1 0x1 PUSH1 0x1 PUSH1 0x40 SHL SUB DUP3 GT ISZERO PUSH2 0x5685 JUMPI PUSH1 0x0 DUP1 REVERT JUMPDEST PUSH1 0x20 ADD SWAP2 POP CALLDATASIZE DUP2 SWAP1 SUB DUP3 SGT ISZERO PUSH2 0x4E5C JUMPI PUSH1 0x0 DUP1 REVERT JUMPDEST DUP2 DUP4 DUP3 CALLDATACOPY PUSH1 0x0 SWAP2 ADD SWAP1 DUP2 MSTORE SWAP2 SWAP1 POP JUMP JUMPDEST PUSH1 0x0 DUP1 DUP4 CALLDATALOAD PUSH1 0x1E NOT DUP5 CALLDATASIZE SUB ADD DUP2 SLT PUSH2 0x56C1 JUMPI PUSH1 0x0 DUP1 REVERT JUMPDEST DUP4 ADD DUP1 CALLDATALOAD SWAP2 POP PUSH1 0x1 PUSH1 0x1 PUSH1 0x40 SHL SUB DUP3 GT ISZERO PUSH2 0x56DB JUMPI PUSH1 0x0 DUP1 REVERT JUMPDEST PUSH1 0x20 ADD SWAP2 POP PUSH1 0x5 DUP2 SWAP1 SHL CALLDATASIZE SUB DUP3 SGT ISZERO PUSH2 0x4E5C JUMPI PUSH1 0x0 DUP1 REVERT JUMPDEST PUSH1 0x0 DUP2 MLOAD PUSH1 0x60 DUP5 MSTORE PUSH2 0x5708 PUSH1 0x60 DUP6 ADD DUP3 PUSH2 0x54EA JUMP JUMPDEST SWAP1 POP PUSH1 0x20 DUP4 ADD MLOAD DUP5 DUP3 SUB PUSH1 0x20 DUP7 ADD MSTORE PUSH2 0x5721 DUP3 DUP3 PUSH2 0x4B95 JUMP JUMPDEST SWAP2 POP POP PUSH1 0x40 DUP4 ADD MLOAD DUP5 DUP3 SUB PUSH1 0x40 DUP7 ADD MSTORE PUSH2 0x2312 DUP3 DUP3 PUSH2 0x4C29 JUMP JUMPDEST PUSH2 0x5746 DUP3 DUP3 MLOAD PUSH2 0x4B81 JUMP JUMPDEST PUSH1 0x20 DUP2 ADD MLOAD PUSH1 0x20 DUP4 ADD MSTORE PUSH1 0x40 DUP2 ADD MLOAD ISZERO ISZERO PUSH1 0x40 DUP4 ADD MSTORE PUSH1 0x60 DUP2 ADD MLOAD ISZERO ISZERO PUSH1 0x60 DUP4 ADD MSTORE POP POP JUMP JUMPDEST PUSH1 0x0 DUP2 MLOAD DUP1 DUP5 MSTORE PUSH1 0x20 DUP5 ADD SWAP4 POP PUSH1 0x20 DUP4 ADD PUSH1 0x0 JUMPDEST DUP3 DUP2 LT ISZERO PUSH2 0x4BCF JUMPI PUSH2 0x5793 DUP7 DUP4 MLOAD PUSH2 0x573B JUMP JUMPDEST PUSH1 0x80 SWAP6 SWAP1 SWAP6 ADD SWAP5 PUSH1 0x20 SWAP2 SWAP1 SWAP2 ADD SWAP1 PUSH1 0x1 ADD PUSH2 0x5780 JUMP JUMPDEST PUSH1 0x0 DUP3 DUP3 MLOAD DUP1 DUP6 MSTORE PUSH1 0x20 DUP6 ADD SWAP5 POP PUSH1 0x20 DUP2 PUSH1 0x5 SHL DUP4 ADD ADD PUSH1 0x20 DUP6 ADD PUSH1 0x0 JUMPDEST DUP4 DUP2 LT ISZERO PUSH2 0x916 JUMPI DUP5 DUP4 SUB PUSH1 0x1F NOT ADD DUP9 MSTORE DUP2 MLOAD DUP1 MLOAD DUP5 MSTORE PUSH1 0x20 SWAP1 DUP2 ADD MLOAD PUSH1 0x40 DUP3 DUP7 ADD DUP2 SWAP1 MSTORE DUP2 MLOAD SWAP1 DUP7 ADD DUP2 SWAP1 MSTORE SWAP2 ADD SWAP1 PUSH1 0x0 SWAP1 PUSH1 0x60 DUP7 ADD SWAP1 JUMPDEST DUP1 DUP4 LT ISZERO PUSH2 0x5841 JUMPI DUP4 MLOAD PUSH2 0x5815 DUP4 DUP3 MLOAD PUSH2 0x4B81 JUMP JUMPDEST PUSH1 0x20 DUP2 ADD MLOAD SWAP1 POP PUSH2 0x5829 PUSH1 0x20 DUP5 ADD DUP3 PUSH2 0x573B JUMP JUMPDEST POP PUSH1 0xA0 DUP3 ADD SWAP2 POP PUSH1 0x20 DUP5 ADD SWAP4 POP PUSH1 0x1 DUP4 ADD SWAP3 POP PUSH2 0x5800 JUMP JUMPDEST POP PUSH1 0x20 SWAP11 DUP12 ADD SWAP11 SWAP1 SWAP6 POP SWAP4 SWAP1 SWAP4 ADD SWAP3 POP POP PUSH1 0x1 ADD PUSH2 0x57C7 JUMP JUMPDEST DUP5 DUP2 MSTORE PUSH1 0x80 PUSH1 0x20 DUP3 ADD MSTORE PUSH1 0x0 PUSH2 0x5873 PUSH1 0x80 DUP4 ADD DUP7 PUSH2 0x54EA JUMP JUMPDEST DUP3 DUP2 SUB PUSH1 0x40 DUP5 ADD MSTORE DUP5 MLOAD PUSH2 0x100 DUP3 MSTORE PUSH2 0x5890 PUSH2 0x100 DUP4 ADD DUP3 PUSH2 0x54EA JUMP JUMPDEST SWAP1 POP PUSH1 0x20 DUP7 ADD MLOAD DUP3 DUP3 SUB PUSH1 0x20 DUP5 ADD MSTORE PUSH2 0x58A9 DUP3 DUP3 PUSH2 0x56F3 JUMP JUMPDEST SWAP2 POP POP PUSH1 0x40 DUP7 ADD MLOAD DUP3 DUP3 SUB PUSH1 0x40 DUP5 ADD MSTORE PUSH2 0x58C3 DUP3 DUP3 PUSH2 0x576C JUMP JUMPDEST SWAP2 POP POP PUSH1 0x60 DUP7 ADD MLOAD DUP3 DUP3 SUB PUSH1 0x60 DUP5 ADD MSTORE PUSH2 0x58DD DUP3 DUP3 PUSH2 0x576C JUMP JUMPDEST SWAP2 POP POP PUSH1 0x80 DUP7 ADD MLOAD DUP3 DUP3 SUB PUSH1 0x80 DUP5 ADD MSTORE PUSH2 0x58F7 DUP3 DUP3 PUSH2 0x57A9 JUMP JUMPDEST SWAP2 POP POP PUSH1 0xA0 DUP7 ADD MLOAD DUP3 DUP3 SUB PUSH1 0xA0 DUP5 ADD MSTORE PUSH2 0x5911 DUP3 DUP3 PUSH2 0x57A9 JUMP JUMPDEST SWAP2 POP POP PUSH1 0xC0 DUP7 ADD MLOAD DUP3 DUP3 SUB PUSH1 0xC0 DUP5 ADD MSTORE PUSH2 0x592B DUP3 DUP3 PUSH2 0x54EA JUMP JUMPDEST SWAP2 POP POP PUSH1 0xE0 DUP7 ADD MLOAD DUP3 DUP3 SUB PUSH1 0xE0 DUP5 ADD MSTORE PUSH2 0x5945 DUP3 DUP3 PUSH2 0x54EA JUMP JUMPDEST SWAP3 POP POP POP DUP3 DUP2 SUB PUSH1 0x60 DUP5 ADD MSTORE PUSH2 0x595B DUP2 DUP6 PUSH2 0x4C79 JUMP JUMPDEST SWAP8 SWAP7 POP POP POP POP POP POP POP JUMP JUMPDEST DUP1 DUP3 ADD DUP1 DUP3 GT ISZERO PUSH2 0x1284 JUMPI PUSH2 0x1284 PUSH2 0x5584 JUMP JUMPDEST PUSH1 0x0 PUSH1 0x20 DUP3 DUP5 SUB SLT ISZERO PUSH2 0x598B JUMPI PUSH1 0x0 DUP1 REVERT JUMPDEST DUP2 CALLDATALOAD PUSH2 0x4CBA DUP2 PUSH2 0x43D4 JUMP JUMPDEST PUSH1 0x0 PUSH1 0x20 DUP3 DUP5 SUB SLT ISZERO PUSH2 0x59A8 JUMPI PUSH1 0x0 DUP1 REVERT JUMPDEST DUP2 CALLDATALOAD PUSH2 0x4CBA DUP2 PUSH2 0x4CC1 JUMP JUMPDEST PUSH1 0x0 PUSH1 0x20 DUP3 DUP5 SUB SLT ISZERO PUSH2 0x59C5 JUMPI PUSH1 0x0 DUP1 REVERT JUMPDEST DUP2 CALLDATALOAD PUSH1 0x1 PUSH1 0x1 PUSH1 0x40 SHL SUB DUP2 GT ISZERO PUSH2 0x59DB JUMPI PUSH1 0x0 DUP1 REVERT JUMPDEST PUSH2 0x4DC9 DUP5 DUP3 DUP6 ADD PUSH2 0x446F JUMP JUMPDEST PUSH1 0x20 DUP2 MSTORE PUSH1 0x0 PUSH2 0x4CBA PUSH1 0x20 DUP4 ADD DUP5 PUSH2 0x4BFD JUMP JUMPDEST JUMPDEST DUP2 DUP2 LT ISZERO PUSH2 0x5A0F JUMPI PUSH1 0x0 DUP2 SSTORE PUSH1 0x1 ADD PUSH2 0x59FB JUMP JUMPDEST POP POP JUMP JUMPDEST PUSH1 0x1F DUP3 GT ISZERO PUSH2 0x386 JUMPI DUP1 PUSH1 0x0 MSTORE PUSH1 0x20 PUSH1 0x0 KECCAK256 PUSH1 0x1F DUP5 ADD PUSH1 0x5 SHR DUP2 ADD PUSH1 0x20 DUP6 LT ISZERO PUSH2 0x5A3A JUMPI POP DUP1 JUMPDEST PUSH2 0x419 PUSH1 0x1F DUP6 ADD PUSH1 0x5 SHR DUP4 ADD DUP3 PUSH2 0x59FA JUMP JUMPDEST PUSH1 0x0 NOT PUSH1 0x3 DUP4 SWAP1 SHL SHR NOT AND PUSH1 0x1 SWAP2 SWAP1 SWAP2 SHL OR SWAP1 JUMP JUMPDEST DUP2 MLOAD PUSH1 0x1 PUSH1 0x1 PUSH1 0x40 SHL SUB DUP2 GT ISZERO PUSH2 0x5A7A JUMPI PUSH2 0x5A7A PUSH2 0x42BD JUMP JUMPDEST PUSH2 0x5A8E DUP2 PUSH2 0x5A88 DUP5 SLOAD PUSH2 0x55B3 JUMP JUMPDEST DUP5 PUSH2 0x5A13 JUMP JUMPDEST PUSH1 0x20 PUSH1 0x1F DUP3 GT PUSH1 0x1 DUP2 EQ PUSH2 0x5ABC JUMPI PUSH1 0x0 DUP4 ISZERO PUSH2 0x5AAA JUMPI POP DUP5 DUP3 ADD MLOAD JUMPDEST PUSH2 0x5AB4 DUP5 DUP3 PUSH2 0x5A4C JUMP JUMPDEST DUP6 SSTORE POP PUSH2 0x419 JUMP JUMPDEST PUSH1 0x0 DUP5 DUP2 MSTORE PUSH1 0x20 DUP2 KECCAK256 PUSH1 0x1F NOT DUP6 AND SWAP2 JUMPDEST DUP3 DUP2 LT ISZERO PUSH2 0x5AEC JUMPI DUP8 DUP6 ADD MLOAD DUP3 SSTORE PUSH1 0x20 SWAP5 DUP6 ADD SWAP5 PUSH1 0x1 SWAP1 SWAP3 ADD SWAP2 ADD PUSH2 0x5ACC JUMP JUMPDEST POP DUP5 DUP3 LT ISZERO PUSH2 0x5B0A JUMPI DUP7 DUP5 ADD MLOAD PUSH1 0x0 NOT PUSH1 0x3 DUP8 SWAP1 SHL PUSH1 0xF8 AND SHR NOT AND DUP2 SSTORE JUMPDEST POP POP POP POP PUSH1 0x1 SWAP1 DUP2 SHL ADD SWAP1 SSTORE POP JUMP JUMPDEST DUP2 DUP2 SUB DUP2 DUP2 GT ISZERO PUSH2 0x1284 JUMPI PUSH2 0x1284 PUSH2 0x5584 JUMP JUMPDEST DUP1 DUP3 MUL DUP2 ISZERO DUP3 DUP3 DIV DUP5 EQ OR PUSH2 0x1284 JUMPI PUSH2 0x1284 PUSH2 0x5584 JUMP JUMPDEST PUSH1 0x0 DUP3 PUSH2 0x5B60 JUMPI PUSH4 0x4E487B71 PUSH1 0xE0 SHL PUSH1 0x0 MSTORE PUSH1 0x12 PUSH1 0x4 MSTORE PUSH1 0x24 PUSH1 0x0 REVERT JUMPDEST POP DIV SWAP1 JUMP JUMPDEST PUSH1 0x1 PUSH1 0x1 PUSH1 0x40 SHL SUB DUP4 GT ISZERO PUSH2 0x5B7C JUMPI PUSH2 0x5B7C PUSH2 0x42BD JUMP JUMPDEST PUSH1 0x1 PUSH1 0x40 SHL DUP4 GT ISZERO PUSH2 0x5B90 JUMPI PUSH2 0x5B90 PUSH2 0x42BD JUMP JUMPDEST DUP1 SLOAD DUP4 DUP3 SSTORE DUP1 DUP5 LT ISZERO PUSH2 0x5BB6 JUMPI DUP2 PUSH1 0x0 MSTORE PUSH1 0x20 PUSH1 0x0 KECCAK256 PUSH2 0x5BB4 DUP3 DUP3 ADD DUP7 DUP4 ADD PUSH2 0x59FA JUMP JUMPDEST POP JUMPDEST POP DUP2 DUP2 PUSH1 0x0 MSTORE PUSH1 0x20 PUSH1 0x0 KECCAK256 PUSH1 0x0 JUMPDEST DUP6 DUP2 LT ISZERO PUSH2 0x417 JUMPI DUP3 CALLDATALOAD DUP3 DUP3 ADD SSTORE PUSH1 0x20 SWAP1 SWAP3 ADD SWAP2 PUSH1 0x1 ADD PUSH2 0x5BC4 JUMP JUMPDEST DUP2 CALLDATALOAD DUP2 SSTORE PUSH1 0x1 DUP2 ADD PUSH1 0x20 DUP4 ADD CALLDATALOAD PUSH1 0x3 DUP2 LT DUP1 ISZERO SWAP1 PUSH2 0x5BFD JUMPI PUSH1 0x0 DUP1 REVERT JUMPDEST POP DUP2 SLOAD PUSH1 0xFF NOT AND PUSH1 0xFF SWAP2 SWAP1 SWAP2 AND OR SWAP1 SSTORE PUSH1 0x2 DUP2 ADD PUSH2 0x5C1E PUSH1 0x40 DUP5 ADD DUP5 PUSH2 0x5654 JUMP JUMPDEST PUSH1 0x1 PUSH1 0x1 PUSH1 0x40 SHL SUB DUP2 GT ISZERO PUSH2 0x5C35 JUMPI PUSH2 0x5C35 PUSH2 0x42BD JUMP JUMPDEST PUSH2 0x5C49 DUP2 PUSH2 0x5C43 DUP6 SLOAD PUSH2 0x55B3 JUMP JUMPDEST DUP6 PUSH2 0x5A13 JUMP JUMPDEST PUSH1 0x0 PUSH1 0x1F DUP3 GT PUSH1 0x1 DUP2 EQ PUSH2 0x5C77 JUMPI PUSH1 0x0 DUP4 ISZERO PUSH2 0x5C65 JUMPI POP DUP4 DUP3 ADD CALLDATALOAD JUMPDEST PUSH2 0x5C6F DUP5 DUP3 PUSH2 0x5A4C JUMP JUMPDEST DUP7 SSTORE POP PUSH2 0x5CD0 JUMP JUMPDEST PUSH1 0x0 DUP6 DUP2 MSTORE PUSH1 0x20 DUP2 KECCAK256 PUSH1 0x1F NOT DUP6 AND SWAP2 JUMPDEST DUP3 DUP2 LT ISZERO PUSH2 0x5CA7 JUMPI DUP7 DUP6 ADD CALLDATALOAD DUP3 SSTORE PUSH1 0x20 SWAP5 DUP6 ADD SWAP5 PUSH1 0x1 SWAP1 SWAP3 ADD SWAP2 ADD PUSH2 0x5C87 JUMP JUMPDEST POP DUP5 DUP3 LT ISZERO PUSH2 0x5CC4 JUMPI PUSH1 0x0 NOT PUSH1 0xF8 DUP7 PUSH1 0x3 SHL AND SHR NOT DUP5 DUP8 ADD CALLDATALOAD AND DUP2 SSTORE JUMPDEST POP POP PUSH1 0x1 DUP4 PUSH1 0x1 SHL ADD DUP6 SSTORE JUMPDEST POP POP POP POP POP PUSH2 0x5CE2 PUSH1 0x60 DUP4 ADD DUP4 PUSH2 0x56AA JUMP JUMPDEST PUSH2 0x1D7F DUP2 DUP4 PUSH1 0x3 DUP7 ADD PUSH2 0x5B65 JUMP JUMPDEST PUSH1 0x0 PUSH1 0x20 DUP3 DUP5 SUB SLT ISZERO PUSH2 0x5D02 JUMPI PUSH1 0x0 DUP1 REVERT JUMPDEST DUP2 MLOAD PUSH2 0x4CBA DUP2 PUSH2 0x4CC1 JUMP JUMPDEST PUSH1 0x0 DUP3 CALLDATALOAD PUSH1 0x5E NOT DUP4 CALLDATASIZE SUB ADD DUP2 SLT PUSH2 0x5D23 JUMPI PUSH1 0x0 DUP1 REVERT JUMPDEST SWAP2 SWAP1 SWAP2 ADD SWAP3 SWAP2 POP POP JUMP JUMPDEST PUSH1 0x1 PUSH1 0x40 SHL DUP3 GT ISZERO PUSH2 0x5D41 JUMPI PUSH2 0x5D41 PUSH2 0x42BD JUMP JUMPDEST DUP1 SLOAD DUP3 DUP3 SSTORE DUP1 DUP4 LT ISZERO PUSH2 0x386 JUMPI DUP2 PUSH1 0x0 MSTORE PUSH1 0x20 PUSH1 0x0 KECCAK256 PUSH1 0x1F DUP5 ADD PUSH1 0x5 SHR DUP2 ADD PUSH1 0x1F DUP6 AND DUP1 ISZERO PUSH2 0x5D81 JUMPI PUSH1 0x0 NOT DUP3 ADD DUP1 SLOAD PUSH1 0x0 NOT DUP4 PUSH1 0x20 SUB PUSH1 0x3 SHL SHR AND DUP2 SSTORE POP JUMPDEST POP PUSH2 0x419 PUSH1 0x1F DUP5 ADD PUSH1 0x5 SHR DUP4 ADD DUP3 PUSH2 0x59FA JUMP JUMPDEST PUSH1 0x0 DUP2 CALLDATALOAD PUSH2 0x1284 DUP2 PUSH2 0x43D4 JUMP JUMPDEST PUSH1 0x1 PUSH1 0x1 PUSH1 0x40 SHL SUB DUP4 GT ISZERO PUSH2 0x5DB8 JUMPI PUSH2 0x5DB8 PUSH2 0x42BD JUMP JUMPDEST PUSH2 0x5DC2 DUP4 DUP3 PUSH2 0x5D2D JUMP JUMPDEST PUSH1 0x0 DUP2 DUP2 MSTORE PUSH1 0x20 SWAP1 KECCAK256 DUP3 SWAP1 DUP5 PUSH1 0x5 SHR PUSH1 0x0 JUMPDEST DUP2 DUP2 LT ISZERO PUSH2 0x5E2A JUMPI PUSH1 0x0 DUP1 JUMPDEST PUSH1 0x20 DUP2 LT ISZERO PUSH2 0x5E1D JUMPI PUSH2 0x5E0C PUSH2 0x5DF5 DUP8 PUSH2 0x5D94 JUMP JUMPDEST PUSH1 0xFF SWAP1 DUP2 AND PUSH1 0x3 DUP5 SWAP1 SHL SWAP1 DUP2 SHL SWAP2 SWAP1 SHL NOT DUP5 AND OR SWAP1 JUMP JUMPDEST PUSH1 0x20 SWAP7 SWAP1 SWAP7 ADD SWAP6 SWAP2 POP PUSH1 0x1 ADD PUSH2 0x5DE0 JUMP JUMPDEST POP DUP4 DUP3 ADD SSTORE PUSH1 0x1 ADD PUSH2 0x5DD4 JUMP JUMPDEST POP PUSH1 0x1F NOT DUP7 AND DUP1 DUP8 SUB DUP2 DUP9 EQ PUSH2 0x5E69 JUMPI PUSH1 0x0 DUP1 JUMPDEST DUP3 DUP2 LT ISZERO PUSH2 0x5E63 JUMPI PUSH2 0x5E52 PUSH2 0x5DF5 DUP9 PUSH2 0x5D94 JUMP JUMPDEST PUSH1 0x20 SWAP8 SWAP1 SWAP8 ADD SWAP7 SWAP2 POP PUSH1 0x1 ADD PUSH2 0x5E3E JUMP JUMPDEST POP DUP5 DUP5 ADD SSTORE JUMPDEST POP POP POP POP POP POP POP POP JUMP JUMPDEST PUSH1 0x1 PUSH1 0x1 PUSH1 0x40 SHL SUB DUP4 GT ISZERO PUSH2 0x5E8A JUMPI PUSH2 0x5E8A PUSH2 0x42BD JUMP JUMPDEST PUSH2 0x5E9E DUP4 PUSH2 0x5E98 DUP4 SLOAD PUSH2 0x55B3 JUMP JUMPDEST DUP4 PUSH2 0x5A13 JUMP JUMPDEST PUSH1 0x0 PUSH1 0x1F DUP5 GT PUSH1 0x1 DUP2 EQ PUSH2 0x5ECC JUMPI PUSH1 0x0 DUP6 ISZERO PUSH2 0x5EBA JUMPI POP DUP4 DUP3 ADD CALLDATALOAD JUMPDEST PUSH2 0x5EC4 DUP7 DUP3 PUSH2 0x5A4C JUMP JUMPDEST DUP5 SSTORE POP PUSH2 0x419 JUMP JUMPDEST PUSH1 0x0 DUP4 DUP2 MSTORE PUSH1 0x20 SWAP1 KECCAK256 PUSH1 0x1F NOT DUP7 AND SWAP1 DUP4 JUMPDEST DUP3 DUP2 LT ISZERO PUSH2 0x5EFD JUMPI DUP7 DUP6 ADD CALLDATALOAD DUP3 SSTORE PUSH1 0x20 SWAP5 DUP6 ADD SWAP5 PUSH1 0x1 SWAP1 SWAP3 ADD SWAP2 ADD PUSH2 0x5EDD JUMP JUMPDEST POP DUP7 DUP3 LT ISZERO PUSH2 0x5F1A JUMPI PUSH1 0x0 NOT PUSH1 0xF8 DUP9 PUSH1 0x3 SHL AND SHR NOT DUP5 DUP8 ADD CALLDATALOAD AND DUP2 SSTORE JUMPDEST POP POP PUSH1 0x1 DUP6 PUSH1 0x1 SHL ADD DUP4 SSTORE POP POP POP POP POP JUMP JUMPDEST PUSH1 0x1 PUSH1 0x40 SHL DUP4 GT ISZERO PUSH2 0x5F40 JUMPI PUSH2 0x5F40 PUSH2 0x42BD JUMP JUMPDEST DUP1 SLOAD DUP4 DUP3 SSTORE DUP1 DUP5 LT ISZERO PUSH2 0x5FC8 JUMPI PUSH1 0x0 DUP3 DUP2 MSTORE PUSH1 0x20 SWAP1 KECCAK256 DUP5 DUP2 ADD SWAP1 DUP3 ADD JUMPDEST DUP1 DUP3 LT ISZERO PUSH2 0x5FC5 JUMPI PUSH2 0x5F6F DUP3 SLOAD PUSH2 0x55B3 JUMP JUMPDEST DUP1 ISZERO PUSH2 0x5FB9 JUMPI PUSH1 0x1F DUP2 GT PUSH1 0x1 DUP2 EQ PUSH2 0x5F8A JUMPI PUSH1 0x0 DUP5 SSTORE PUSH2 0x5FB7 JUMP JUMPDEST PUSH1 0x0 DUP5 DUP2 MSTORE PUSH1 0x20 SWAP1 KECCAK256 PUSH2 0x5FA8 PUSH1 0x1F DUP5 ADD PUSH1 0x5 SHR DUP3 ADD PUSH1 0x1 DUP4 ADD PUSH2 0x59FA JUMP JUMPDEST POP PUSH1 0x0 DUP5 DUP2 MSTORE PUSH1 0x20 DUP2 KECCAK256 DUP2 DUP7 SSTORE SSTORE JUMPDEST POP JUMPDEST POP PUSH1 0x1 DUP3 ADD SWAP2 POP PUSH2 0x5F5D JUMP JUMPDEST POP POP JUMPDEST POP PUSH1 0x0 DUP2 DUP2 MSTORE PUSH1 0x20 DUP2 KECCAK256 DUP4 SWAP2 JUMPDEST DUP6 DUP2 LT ISZERO PUSH2 0x417 JUMPI PUSH2 0x5FE7 DUP4 DUP7 PUSH2 0x5654 JUMP JUMPDEST PUSH2 0x5FF2 DUP2 DUP4 DUP7 PUSH2 0x5E73 JUMP JUMPDEST POP POP PUSH1 0x20 SWAP3 SWAP1 SWAP3 ADD SWAP2 PUSH1 0x1 SWAP2 DUP3 ADD SWAP2 ADD PUSH2 0x5FD5 JUMP JUMPDEST PUSH2 0x6011 DUP3 DUP4 PUSH2 0x56AA JUMP JUMPDEST PUSH1 0x1 PUSH1 0x1 PUSH1 0x40 SHL SUB DUP2 GT ISZERO PUSH2 0x6028 JUMPI PUSH2 0x6028 PUSH2 0x42BD JUMP JUMPDEST PUSH1 0x1 PUSH1 0x40 SHL DUP2 GT ISZERO PUSH2 0x603C JUMPI PUSH2 0x603C PUSH2 0x42BD JUMP JUMPDEST DUP3 SLOAD DUP2 DUP5 SSTORE DUP1 DUP3 LT ISZERO PUSH2 0x6062 JUMPI DUP4 PUSH1 0x0 MSTORE PUSH1 0x20 PUSH1 0x0 KECCAK256 PUSH2 0x6060 DUP3 DUP3 ADD DUP5 DUP4 ADD PUSH2 0x59FA JUMP JUMPDEST POP JUMPDEST POP DUP3 PUSH1 0x0 MSTORE PUSH1 0x20 PUSH1 0x0 KECCAK256 PUSH1 0x0 JUMPDEST DUP3 DUP2 LT ISZERO PUSH2 0x608B JUMPI DUP4 CALLDATALOAD DUP3 DUP3 ADD SSTORE PUSH1 0x20 SWAP1 SWAP4 ADD SWAP3 PUSH1 0x1 ADD PUSH2 0x606F JUMP JUMPDEST POP POP POP POP PUSH2 0x609C PUSH1 0x20 DUP4 ADD DUP4 PUSH2 0x56AA JUMP JUMPDEST PUSH2 0x60AA DUP2 DUP4 PUSH1 0x1 DUP7 ADD PUSH2 0x5DA1 JUMP JUMPDEST POP POP PUSH2 0x60B9 PUSH1 0x40 DUP4 ADD DUP4 PUSH2 0x56AA JUMP JUMPDEST PUSH2 0x1D7F DUP2 DUP4 PUSH1 0x2 DUP7 ADD PUSH2 0x5F2C JUMP JUMPDEST PUSH1 0x0 DUP1 DUP4 CALLDATALOAD PUSH1 0x1E NOT DUP5 CALLDATASIZE SUB ADD DUP2 SLT PUSH2 0x60DE JUMPI PUSH1 0x0 DUP1 REVERT JUMPDEST DUP4 ADD DUP1 CALLDATALOAD SWAP2 POP PUSH1 0x1 PUSH1 0x1 PUSH1 0x40 SHL SUB DUP3 GT ISZERO PUSH2 0x60F8 JUMPI PUSH1 0x0 DUP1 REVERT JUMPDEST PUSH1 0x20 ADD SWAP2 POP PUSH1 0x7 DUP2 SWAP1 SHL CALLDATASIZE SUB DUP3 SGT ISZERO PUSH2 0x4E5C JUMPI PUSH1 0x0 DUP1 REVERT JUMPDEST PUSH1 0x6 DUP3 LT PUSH2 0x6120 JUMPI PUSH2 0x6120 PUSH2 0x4B6B JUMP JUMPDEST PUSH1 0xFF NOT DUP2 SLOAD AND PUSH1 0xFF DUP4 AND DUP2 OR DUP3 SSTORE POP POP POP JUMP JUMPDEST DUP2 CALLDATALOAD PUSH2 0x613E DUP2 PUSH2 0x43D4 JUMP JUMPDEST PUSH2 0x6148 DUP2 DUP4 PUSH2 0x6110 JUMP JUMPDEST POP PUSH1 0x20 DUP3 ADD CALLDATALOAD PUSH1 0x1 DUP3 ADD SSTORE PUSH1 0x2 DUP2 ADD PUSH1 0x40 DUP4 ADD CALLDATALOAD PUSH2 0x6165 DUP2 PUSH2 0x4601 JUMP JUMPDEST DUP2 SLOAD PUSH1 0x60 DUP6 ADD CALLDATALOAD PUSH2 0x6175 DUP2 PUSH2 0x4601 JUMP JUMPDEST PUSH2 0xFF00 DUP2 ISZERO ISZERO PUSH1 0x8 SHL AND PUSH1 0xFF DUP5 ISZERO ISZERO AND PUSH2 0xFFFF NOT DUP5 AND OR OR DUP5 SSTORE POP POP POP POP POP POP JUMP JUMPDEST PUSH1 0x1 PUSH1 0x40 SHL DUP4 GT ISZERO PUSH2 0x61AB JUMPI PUSH2 0x61AB PUSH2 0x42BD JUMP JUMPDEST DUP1 SLOAD DUP4 DUP3 SSTORE DUP1 DUP5 LT ISZERO PUSH2 0x6217 JUMPI DUP1 PUSH1 0x3 MUL PUSH1 0x3 DUP2 DIV DUP3 EQ PUSH2 0x61CE JUMPI PUSH2 0x61CE PUSH2 0x5584 JUMP JUMPDEST DUP5 PUSH1 0x3 MUL PUSH1 0x3 DUP2 DIV DUP7 EQ PUSH2 0x61E4 JUMPI PUSH2 0x61E4 PUSH2 0x5584 JUMP JUMPDEST PUSH1 0x0 DUP5 DUP2 MSTORE PUSH1 0x20 SWAP1 KECCAK256 SWAP2 DUP3 ADD SWAP2 ADD JUMPDEST DUP2 DUP2 LT ISZERO PUSH2 0x6214 JUMPI PUSH1 0x0 DUP1 DUP3 SSTORE PUSH1 0x1 DUP3 ADD DUP2 SWAP1 SSTORE PUSH1 0x2 DUP3 ADD SSTORE PUSH1 0x3 ADD PUSH2 0x61F3 JUMP JUMPDEST POP POP JUMPDEST POP PUSH1 0x0 DUP2 DUP2 MSTORE PUSH1 0x20 DUP2 KECCAK256 DUP4 SWAP2 JUMPDEST DUP6 DUP2 LT ISZERO PUSH2 0x417 JUMPI PUSH2 0x6236 DUP4 DUP4 PUSH2 0x6133 JUMP JUMPDEST PUSH1 0x80 SWAP3 SWAP1 SWAP3 ADD SWAP2 PUSH1 0x3 SWAP2 SWAP1 SWAP2 ADD SWAP1 PUSH1 0x1 ADD PUSH2 0x6224 JUMP JUMPDEST PUSH1 0x0 DUP3 CALLDATALOAD PUSH1 0x3E NOT DUP4 CALLDATASIZE SUB ADD DUP2 SLT PUSH2 0x5D23 JUMPI PUSH1 0x0 DUP1 REVERT JUMPDEST PUSH1 0x0 DUP2 SLOAD PUSH1 0x0 DUP4 SSTORE DUP1 ISZERO PUSH2 0x386 JUMPI PUSH1 0x1 PUSH1 0x1 PUSH1 0xFE SHL SUB DUP2 AND DUP2 EQ PUSH2 0x6288 JUMPI PUSH2 0x6288 PUSH2 0x5584 JUMP JUMPDEST PUSH1 0x0 SWAP2 POP DUP3 DUP3 MSTORE PUSH1 0x20 DUP3 KECCAK256 DUP2 PUSH1 0x2 SHL DUP2 ADD JUMPDEST DUP1 DUP3 LT ISZERO PUSH2 0x419 JUMPI DUP4 DUP3 SSTORE PUSH2 0x62C1 PUSH1 0x1 DUP4 ADD PUSH1 0x0 DUP2 SSTORE PUSH1 0x0 PUSH1 0x1 DUP3 ADD SSTORE PUSH1 0x0 PUSH1 0x2 DUP3 ADD SSTORE POP JUMP JUMPDEST PUSH1 0x4 DUP3 ADD SWAP2 POP PUSH2 0x629A JUMP JUMPDEST PUSH1 0x1 PUSH1 0x40 SHL DUP3 GT ISZERO PUSH2 0x62E0 JUMPI PUSH2 0x62E0 PUSH2 0x42BD JUMP JUMPDEST DUP1 SLOAD DUP3 DUP3 SSTORE DUP1 DUP4 LT ISZERO PUSH2 0x386 JUMPI PUSH1 0x1 PUSH1 0x1 PUSH1 0xFE SHL SUB DUP2 AND DUP2 EQ PUSH2 0x6305 JUMPI PUSH2 0x6305 PUSH2 0x5584 JUMP JUMPDEST PUSH1 0x1 PUSH1 0x1 PUSH1 0xFE SHL SUB DUP4 AND DUP4 EQ PUSH2 0x631D JUMPI PUSH2 0x631D PUSH2 0x5584 JUMP JUMPDEST DUP2 PUSH1 0x0 MSTORE PUSH1 0x20 PUSH1 0x0 KECCAK256 DUP2 PUSH1 0x2 SHL DUP2 ADD DUP5 PUSH1 0x2 SHL DUP3 ADD SWAP2 POP JUMPDEST DUP1 DUP3 LT ISZERO PUSH2 0x419 JUMPI PUSH1 0x0 DUP3 SSTORE PUSH2 0x635D PUSH1 0x1 DUP4 ADD PUSH1 0x0 DUP2 SSTORE PUSH1 0x0 PUSH1 0x1 DUP3 ADD SSTORE PUSH1 0x0 PUSH1 0x2 DUP3 ADD SSTORE POP JUMP JUMPDEST PUSH1 0x4 DUP3 ADD SWAP2 POP PUSH2 0x6335 JUMP JUMPDEST DUP2 CALLDATALOAD DUP2 SSTORE PUSH1 0x1 DUP2 ADD PUSH1 0x20 DUP4 ADD CALLDATALOAD CALLDATASIZE DUP5 SWAP1 SUB PUSH1 0x1E NOT ADD DUP2 SLT PUSH2 0x6388 JUMPI PUSH1 0x0 DUP1 REVERT JUMPDEST DUP4 ADD DUP1 CALLDATALOAD PUSH1 0x1 PUSH1 0x1 PUSH1 0x40 SHL SUB DUP2 GT ISZERO PUSH2 0x63A0 JUMPI PUSH1 0x0 DUP1 REVERT JUMPDEST PUSH1 0x20 DUP3 ADD SWAP2 POP PUSH1 0xA0 DUP2 MUL CALLDATASIZE SUB DUP3 SGT ISZERO PUSH2 0x63B8 JUMPI PUSH1 0x0 DUP1 REVERT JUMPDEST PUSH2 0x63C2 DUP2 DUP5 PUSH2 0x62CC JUMP JUMPDEST PUSH1 0x0 SWAP3 DUP4 MSTORE PUSH1 0x20 DUP4 KECCAK256 SWAP3 JUMPDEST DUP2 DUP2 LT ISZERO PUSH2 0x417 JUMPI DUP3 CALLDATALOAD PUSH2 0x63E0 DUP2 PUSH2 0x43D4 JUMP JUMPDEST PUSH2 0x63EA DUP2 DUP7 PUSH2 0x6110 JUMP JUMPDEST POP PUSH1 0x20 DUP4 ADD CALLDATALOAD PUSH2 0x63F9 DUP2 PUSH2 0x43D4 JUMP JUMPDEST PUSH2 0x6406 DUP2 PUSH1 0x1 DUP8 ADD PUSH2 0x6110 JUMP JUMPDEST POP PUSH1 0x40 DUP4 ADD CALLDATALOAD PUSH1 0x2 DUP6 ADD SSTORE PUSH1 0x3 DUP5 ADD PUSH1 0x60 DUP5 ADD CALLDATALOAD PUSH2 0x6423 DUP2 PUSH2 0x4601 JUMP JUMPDEST DUP2 SLOAD PUSH1 0x80 DUP7 ADD CALLDATALOAD PUSH2 0x6433 DUP2 PUSH2 0x4601 JUMP JUMPDEST PUSH2 0xFFFF NOT SWAP2 SWAP1 SWAP2 AND SWAP2 ISZERO ISZERO PUSH1 0xFF AND SWAP2 SWAP1 SWAP2 OR SWAP1 ISZERO ISZERO PUSH1 0x8 SHL PUSH2 0xFF00 AND OR SWAP1 SSTORE PUSH1 0x4 SWAP4 SWAP1 SWAP4 ADD SWAP3 PUSH1 0xA0 SWAP3 SWAP1 SWAP3 ADD SWAP2 PUSH1 0x1 ADD PUSH2 0x63CD JUMP JUMPDEST PUSH1 0x1 PUSH1 0x40 SHL DUP4 GT ISZERO PUSH2 0x647C JUMPI PUSH2 0x647C PUSH2 0x42BD JUMP JUMPDEST DUP1 SLOAD DUP4 DUP3 SSTORE DUP1 DUP5 LT ISZERO PUSH2 0x64F7 JUMPI PUSH1 0x1 PUSH1 0x1 PUSH1 0xFF SHL SUB DUP2 AND DUP2 EQ PUSH2 0x64A1 JUMPI PUSH2 0x64A1 PUSH2 0x5584 JUMP JUMPDEST PUSH1 0x1 PUSH1 0x1 PUSH1 0xFF SHL SUB DUP5 AND DUP5 EQ PUSH2 0x64B9 JUMPI PUSH2 0x64B9 PUSH2 0x5584 JUMP JUMPDEST DUP2 PUSH1 0x0 MSTORE PUSH1 0x20 PUSH1 0x0 KECCAK256 DUP2 PUSH1 0x1 SHL DUP2 ADD DUP6 PUSH1 0x1 SHL DUP3 ADD SWAP2 POP JUMPDEST DUP1 DUP3 LT ISZERO PUSH2 0x64F4 JUMPI PUSH1 0x0 DUP3 SSTORE PUSH2 0x64E9 PUSH1 0x1 DUP4 ADD PUSH2 0x6262 JUMP JUMPDEST PUSH1 0x2 DUP3 ADD SWAP2 POP PUSH2 0x64D1 JUMP JUMPDEST POP POP JUMPDEST POP PUSH1 0x0 DUP2 DUP2 MSTORE PUSH1 0x20 DUP2 KECCAK256 DUP4 SWAP2 JUMPDEST DUP6 DUP2 LT ISZERO PUSH2 0x417 JUMPI PUSH2 0x651F PUSH2 0x6519 DUP5 DUP8 PUSH2 0x624C JUMP JUMPDEST DUP4 PUSH2 0x6368 JUMP JUMPDEST PUSH1 0x20 SWAP3 SWAP1 SWAP3 ADD SWAP2 PUSH1 0x2 SWAP2 SWAP1 SWAP2 ADD SWAP1 PUSH1 0x1 ADD PUSH2 0x6504 JUMP JUMPDEST PUSH2 0x653F DUP3 DUP4 PUSH2 0x56AA JUMP JUMPDEST PUSH1 0x1 PUSH1 0x1 PUSH1 0x40 SHL SUB DUP2 GT ISZERO PUSH2 0x6556 JUMPI PUSH2 0x6556 PUSH2 0x42BD JUMP JUMPDEST PUSH1 0x1 PUSH1 0x40 SHL DUP2 GT ISZERO PUSH2 0x656A JUMPI PUSH2 0x656A PUSH2 0x42BD JUMP JUMPDEST DUP3 SLOAD DUP2 DUP5 SSTORE DUP1 DUP3 LT ISZERO PUSH2 0x6590 JUMPI DUP4 PUSH1 0x0 MSTORE PUSH1 0x20 PUSH1 0x0 KECCAK256 PUSH2 0x658E DUP3 DUP3 ADD DUP5 DUP4 ADD PUSH2 0x59FA JUMP JUMPDEST POP JUMPDEST POP DUP3 PUSH1 0x0 MSTORE PUSH1 0x20 PUSH1 0x0 KECCAK256 PUSH1 0x0 JUMPDEST DUP3 DUP2 LT ISZERO PUSH2 0x65B9 JUMPI DUP4 CALLDATALOAD DUP3 DUP3 ADD SSTORE PUSH1 0x20 SWAP1 SWAP4 ADD SWAP3 PUSH1 0x1 ADD PUSH2 0x659D JUMP JUMPDEST POP POP POP POP PUSH2 0x65D6 PUSH2 0x65CD PUSH1 0x20 DUP5 ADD DUP5 PUSH2 0x5D0D JUMP JUMPDEST PUSH1 0x1 DUP4 ADD PUSH2 0x6007 JUMP JUMPDEST PUSH2 0x65E3 PUSH1 0x40 DUP4 ADD DUP4 PUSH2 0x60C7 JUMP JUMPDEST PUSH2 0x65F1 DUP2 DUP4 PUSH1 0x4 DUP7 ADD PUSH2 0x6197 JUMP JUMPDEST POP POP PUSH2 0x6600 PUSH1 0x60 DUP4 ADD DUP4 PUSH2 0x60C7 JUMP JUMPDEST PUSH2 0x660E DUP2 DUP4 PUSH1 0x5 DUP7 ADD PUSH2 0x6197 JUMP JUMPDEST POP POP PUSH2 0x661D PUSH1 0x80 DUP4 ADD DUP4 PUSH2 0x56AA JUMP JUMPDEST PUSH2 0x662B DUP2 DUP4 PUSH1 0x6 DUP7 ADD PUSH2 0x6468 JUMP JUMPDEST POP POP PUSH2 0x663A PUSH1 0xA0 DUP4 ADD DUP4 PUSH2 0x56AA JUMP JUMPDEST PUSH2 0x6648 DUP2 DUP4 PUSH1 0x7 DUP7 ADD PUSH2 0x6468 JUMP JUMPDEST POP POP PUSH2 0x6657 PUSH1 0xC0 DUP4 ADD DUP4 PUSH2 0x56AA JUMP JUMPDEST PUSH2 0x6665 DUP2 DUP4 PUSH1 0x8 DUP7 ADD PUSH2 0x5B65 JUMP JUMPDEST POP POP PUSH2 0x6674 PUSH1 0xE0 DUP4 ADD DUP4 PUSH2 0x56AA JUMP JUMPDEST PUSH2 0x1D7F DUP2 DUP4 PUSH1 0x9 DUP7 ADD PUSH2 0x5B65 JUMP JUMPDEST DUP2 CALLDATALOAD PUSH2 0x668D DUP2 PUSH2 0x43D4 JUMP JUMPDEST PUSH2 0x6697 DUP2 DUP4 PUSH2 0x6110 JUMP JUMPDEST POP PUSH1 0x1 DUP2 ADD PUSH2 0x66A9 PUSH1 0x20 DUP5 ADD DUP5 PUSH2 0x5654 JUMP JUMPDEST PUSH1 0x1 PUSH1 0x1 PUSH1 0x40 SHL SUB DUP2 GT ISZERO PUSH2 0x66C0 JUMPI PUSH2 0x66C0 PUSH2 0x42BD JUMP JUMPDEST PUSH2 0x66CE DUP2 PUSH2 0x5C43 DUP6 SLOAD PUSH2 0x55B3 JUMP JUMPDEST PUSH1 0x0 PUSH1 0x1F DUP3 GT PUSH1 0x1 DUP2 EQ PUSH2 0x66FC JUMPI PUSH1 0x0 DUP4 ISZERO PUSH2 0x66EA JUMPI POP DUP4 DUP3 ADD CALLDATALOAD JUMPDEST PUSH2 0x66F4 DUP5 DUP3 PUSH2 0x5A4C JUMP JUMPDEST DUP7 SSTORE POP PUSH2 0x2045 JUMP JUMPDEST PUSH1 0x0 DUP6 DUP2 MSTORE PUSH1 0x20 SWAP1 KECCAK256 PUSH1 0x1F NOT DUP5 AND SWAP1 DUP4 JUMPDEST DUP3 DUP2 LT ISZERO PUSH2 0x672D JUMPI DUP7 DUP6 ADD CALLDATALOAD DUP3 SSTORE PUSH1 0x20 SWAP5 DUP6 ADD SWAP5 PUSH1 0x1 SWAP1 SWAP3 ADD SWAP2 ADD PUSH2 0x670D JUMP JUMPDEST POP DUP5 DUP3 LT ISZERO PUSH2 0x674A JUMPI PUSH1 0x0 NOT PUSH1 0xF8 DUP7 PUSH1 0x3 SHL AND SHR NOT DUP5 DUP8 ADD CALLDATALOAD AND DUP2 SSTORE JUMPDEST POP POP POP POP PUSH1 0x1 SWAP1 DUP2 SHL ADD SWAP1 SWAP2 SSTORE POP POP POP JUMP JUMPDEST PUSH1 0x0 PUSH1 0x20 DUP3 DUP5 SUB SLT ISZERO PUSH2 0x676E JUMPI PUSH1 0x0 DUP1 REVERT JUMPDEST DUP2 CALLDATALOAD PUSH1 0x1 PUSH1 0x1 PUSH1 0x40 SHL SUB DUP2 GT ISZERO PUSH2 0x6784 JUMPI PUSH1 0x0 DUP1 REVERT JUMPDEST PUSH2 0x4DC9 DUP5 DUP3 DUP6 ADD PUSH2 0x49CF JUMP JUMPDEST PUSH1 0x0 DUP3 MLOAD PUSH2 0x5D23 DUP2 DUP5 PUSH1 0x20 DUP8 ADD PUSH2 0x4BD9 JUMP JUMPDEST PUSH4 0x4E487B71 PUSH1 0xE0 SHL PUSH1 0x0 MSTORE PUSH1 0x1 PUSH1 0x4 MSTORE PUSH1 0x24 PUSH1 0x0 REVERT INVALID LOG2 PUSH5 0x6970667358 0x22 SLT KECCAK256 0xB0 SWAP12 0xEB DUP10 0xB6 SSTORE 0xAA MSTORE SSTORE 0xC2 SWAP14 0xB3 0xFB COINBASE 0x22 EXP 0xB0 0xC0 0xEA COINBASE STATICCALL PUSH15 0xAC4D84D00ABD24C8652F64736F6C63 NUMBER STOP ADDMOD SHL STOP CALLER "},"methodIdentifiers":{"addTracker(uint256,(uint8,bytes))":"f7a48117","applyPolicy(address,uint256[])":"9228303f","bool2ui(bool)":"8085367b","buildArguments(uint256,(uint8,uint256,bool,bool)[],(uint256,(uint8,(uint8,uint256,bool,bool))[])[],(uint8[],bytes[]))":"2f71833b","checkPolicies(address,bytes,bytes)":"86ff45ad","deleteEffect(uint256)":"0d6b001b","doEffects(uint256,uint256[],(uint256[],(uint256[],uint8[],bytes[]),(uint8,uint256,bool,bool)[],(uint8,uint256,bool,bool)[],(uint256,(uint8,(uint8,uint256,bool,bool))[])[],(uint256,(uint8,(uint8,uint256,bool,bool))[])[],uint256[],uint256[]),(uint8[],bytes[]))":"df11708c","evaluateExpression(uint256,(uint256[],(uint256[],uint8[],bytes[]),(uint8,uint256,bool,bool)[],(uint8,uint256,bool,bool)[],(uint256,(uint8,(uint8,uint256,bool,bool))[])[],(uint256,(uint8,(uint8,uint256,bool,bool))[])[],uint256[],uint256[]),(uint8[],bytes[]),uint256[])":"11ad2153","evaluateForeignCalls(uint256,(uint8,uint256,bool,bool)[],(uint256,(uint8,(uint8,uint256,bool,bool))[])[],(uint8[],bytes[]),uint256)":"a6e481d3","evaluateRulesAndExecuteEffects(uint256,(uint256[],(uint256[],uint8[],bytes[]),(uint8,uint256,bool,bool)[],(uint8,uint256,bool,bool)[],(uint256,(uint8,(uint8,uint256,bool,bool))[])[],(uint256,(uint8,(uint8,uint256,bool,bool))[])[],uint256[],uint256[])[],(uint8[],bytes[]))":"6ecfdf67","getTracker(uint256,uint256)":"72a340d7","retrieveRawAddressFromInstructionSet(uint256,uint256)":"c80388a2","retrieveRawStringFromInstructionSet(uint256,uint256)":"4e9f6125","run(uint256,uint256[],(uint8[],bytes[]))":"7e6382ac","ui2bool(uint256)":"5fcaa1c9","updateEffect((uint256,uint8,string,uint256[]))":"a16ca3d5","updateForeignCall(uint256,address,string,uint8,uint8[])":"3bbaa76c","updateFunctionSignature(uint256,bytes4,uint8[])":"a5bcf7f2","updatePolicy(uint256,bytes[],uint256[],uint256[][])":"6af870c6","updateRule(uint256,(uint256[],(uint256[],uint8[],bytes[]),(uint8,uint256,bool,bool)[],(uint8,uint256,bool,bool)[],(uint256,(uint8,(uint8,uint256,bool,bool))[])[],(uint256,(uint8,(uint8,uint256,bool,bool))[])[],uint256[],uint256[]))":"e21eaa18","updateTracker(uint256,uint256,address,string,bool,bytes)":"9c7a08e6"}}}}}