{"src/RuleEncodingLibrary.sol":{"RuleEncodingLibrary":{"abi":[{"inputs":[{"components":[{"internalType":"enum RulesStorageStructure.PT[]","name":"argumentTypes","type":"RulesStorageStructure.PT[]"},{"internalType":"bytes[]","name":"values","type":"bytes[]"}],"internalType":"struct RulesStorageStructure.Arguments","name":"arguments","type":"tuple"}],"name":"customEncoder","outputs":[{"internalType":"bytes","name":"retVal","type":"bytes"}],"stateMutability":"pure","type":"function"}],"evm":{"bytecode":{"linkReferences":{},"object":"61057b610039600b82828239805160001a607314602c57634e487b7160e01b600052600060045260246000fd5b30600052607381538281f3fe73000000000000000000000000000000000000000030146080604052600436106100355760003560e01c8063daac73c71461003a575b600080fd5b61004d61004836600461037d565b610063565b60405161005a91906104d0565b60405180910390f35b606060005b8251518110156101ef576000835180518390811061008857610088610500565b602002602001015160058111156100a1576100a16104ea565b036101095781836020015182815181106100bd576100bd610500565b60200260200101516040516020016100d591906104d0565b60408051601f19818403018152908290526100f39291602001610516565b60405160208183030381529060405291506101e7565b6002835180518390811061011f5761011f610500565b60200260200101516005811115610138576101386104ea565b036101545781836020015182815181106100bd576100bd610500565b6001835180518390811061016a5761016a610500565b60200260200101516005811115610183576101836104ea565b036101e757818360200151828151811061019f5761019f610500565b60200260200101516040516020016101b791906104d0565b60408051601f19818403018152908290526101d59291602001610516565b60405160208183030381529060405291505b600101610068565b50919050565b634e487b7160e01b600052604160045260246000fd5b6040805190810167ffffffffffffffff8111828210171561022e5761022e6101f5565b60405290565b604051601f8201601f1916810167ffffffffffffffff8111828210171561025d5761025d6101f5565b604052919050565b600067ffffffffffffffff82111561027f5761027f6101f5565b5060051b60200190565b600082601f83011261029a57600080fd5b81356102ad6102a882610265565b610234565b8082825260208201915060208360051b8601019250858311156102cf57600080fd5b602085015b8381101561037357803567ffffffffffffffff8111156102f357600080fd5b8601603f8101881361030457600080fd5b602081013567ffffffffffffffff811115610321576103216101f5565b610334601f8201601f1916602001610234565b8181526040838301018a101561034957600080fd5b816040840160208301376000602083830101528086525050506020830192506020810190506102d4565b5095945050505050565b60006020828403121561038f57600080fd5b813567ffffffffffffffff8111156103a657600080fd5b8201604081850312156103b857600080fd5b6103c061020b565b813567ffffffffffffffff8111156103d757600080fd5b8201601f810186136103e857600080fd5b80356103f66102a882610265565b8082825260208201915060208360051b85010192508883111561041857600080fd5b6020840193505b828410156104475783356006811061043657600080fd5b82526020938401939091019061041f565b8452505050602082013567ffffffffffffffff81111561046657600080fd5b61047286828501610289565b602083015250949350505050565b60005b8381101561049b578181015183820152602001610483565b50506000910152565b600081518084526104bc816020860160208601610480565b601f01601f19169290920160200192915050565b6020815260006104e360208301846104a4565b9392505050565b634e487b7160e01b600052602160045260246000fd5b634e487b7160e01b600052603260045260246000fd5b60008351610528818460208801610480565b83519083019061053c818360208801610480565b0194935050505056fea26469706673582212205aa88c9cedadaf04497d2f62a06d7e505fabe46b9a03098a45ee968033f6a4a664736f6c634300081b0033","opcodes":"PUSH2 0x57B PUSH2 0x39 PUSH1 0xB DUP3 DUP3 DUP3 CODECOPY DUP1 MLOAD PUSH1 0x0 BYTE PUSH1 0x73 EQ PUSH1 0x2C JUMPI PUSH4 0x4E487B71 PUSH1 0xE0 SHL PUSH1 0x0 MSTORE PUSH1 0x0 PUSH1 0x4 MSTORE PUSH1 0x24 PUSH1 0x0 REVERT JUMPDEST ADDRESS PUSH1 0x0 MSTORE PUSH1 0x73 DUP2 MSTORE8 DUP3 DUP2 RETURN INVALID PUSH20 0x0 ADDRESS EQ PUSH1 0x80 PUSH1 0x40 MSTORE PUSH1 0x4 CALLDATASIZE LT PUSH2 0x35 JUMPI PUSH1 0x0 CALLDATALOAD PUSH1 0xE0 SHR DUP1 PUSH4 0xDAAC73C7 EQ PUSH2 0x3A JUMPI JUMPDEST PUSH1 0x0 DUP1 REVERT JUMPDEST PUSH2 0x4D PUSH2 0x48 CALLDATASIZE PUSH1 0x4 PUSH2 0x37D JUMP JUMPDEST PUSH2 0x63 JUMP JUMPDEST PUSH1 0x40 MLOAD PUSH2 0x5A SWAP2 SWAP1 PUSH2 0x4D0 JUMP JUMPDEST PUSH1 0x40 MLOAD DUP1 SWAP2 SUB SWAP1 RETURN JUMPDEST PUSH1 0x60 PUSH1 0x0 JUMPDEST DUP3 MLOAD MLOAD DUP2 LT ISZERO PUSH2 0x1EF JUMPI PUSH1 0x0 DUP4 MLOAD DUP1 MLOAD DUP4 SWAP1 DUP2 LT PUSH2 0x88 JUMPI PUSH2 0x88 PUSH2 0x500 JUMP JUMPDEST PUSH1 0x20 MUL PUSH1 0x20 ADD ADD MLOAD PUSH1 0x5 DUP2 GT ISZERO PUSH2 0xA1 JUMPI PUSH2 0xA1 PUSH2 0x4EA JUMP JUMPDEST SUB PUSH2 0x109 JUMPI DUP2 DUP4 PUSH1 0x20 ADD MLOAD DUP3 DUP2 MLOAD DUP2 LT PUSH2 0xBD JUMPI PUSH2 0xBD PUSH2 0x500 JUMP JUMPDEST PUSH1 0x20 MUL PUSH1 0x20 ADD ADD MLOAD PUSH1 0x40 MLOAD PUSH1 0x20 ADD PUSH2 0xD5 SWAP2 SWAP1 PUSH2 0x4D0 JUMP JUMPDEST PUSH1 0x40 DUP1 MLOAD PUSH1 0x1F NOT DUP2 DUP5 SUB ADD DUP2 MSTORE SWAP1 DUP3 SWAP1 MSTORE PUSH2 0xF3 SWAP3 SWAP2 PUSH1 0x20 ADD PUSH2 0x516 JUMP JUMPDEST PUSH1 0x40 MLOAD PUSH1 0x20 DUP2 DUP4 SUB SUB DUP2 MSTORE SWAP1 PUSH1 0x40 MSTORE SWAP2 POP PUSH2 0x1E7 JUMP JUMPDEST PUSH1 0x2 DUP4 MLOAD DUP1 MLOAD DUP4 SWAP1 DUP2 LT PUSH2 0x11F JUMPI PUSH2 0x11F PUSH2 0x500 JUMP JUMPDEST PUSH1 0x20 MUL PUSH1 0x20 ADD ADD MLOAD PUSH1 0x5 DUP2 GT ISZERO PUSH2 0x138 JUMPI PUSH2 0x138 PUSH2 0x4EA JUMP JUMPDEST SUB PUSH2 0x154 JUMPI DUP2 DUP4 PUSH1 0x20 ADD MLOAD DUP3 DUP2 MLOAD DUP2 LT PUSH2 0xBD JUMPI PUSH2 0xBD PUSH2 0x500 JUMP JUMPDEST PUSH1 0x1 DUP4 MLOAD DUP1 MLOAD DUP4 SWAP1 DUP2 LT PUSH2 0x16A JUMPI PUSH2 0x16A PUSH2 0x500 JUMP JUMPDEST PUSH1 0x20 MUL PUSH1 0x20 ADD ADD MLOAD PUSH1 0x5 DUP2 GT ISZERO PUSH2 0x183 JUMPI PUSH2 0x183 PUSH2 0x4EA JUMP JUMPDEST SUB PUSH2 0x1E7 JUMPI DUP2 DUP4 PUSH1 0x20 ADD MLOAD DUP3 DUP2 MLOAD DUP2 LT PUSH2 0x19F JUMPI PUSH2 0x19F PUSH2 0x500 JUMP JUMPDEST PUSH1 0x20 MUL PUSH1 0x20 ADD ADD MLOAD PUSH1 0x40 MLOAD PUSH1 0x20 ADD PUSH2 0x1B7 SWAP2 SWAP1 PUSH2 0x4D0 JUMP JUMPDEST PUSH1 0x40 DUP1 MLOAD PUSH1 0x1F NOT DUP2 DUP5 SUB ADD DUP2 MSTORE SWAP1 DUP3 SWAP1 MSTORE PUSH2 0x1D5 SWAP3 SWAP2 PUSH1 0x20 ADD PUSH2 0x516 JUMP JUMPDEST PUSH1 0x40 MLOAD PUSH1 0x20 DUP2 DUP4 SUB SUB DUP2 MSTORE SWAP1 PUSH1 0x40 MSTORE SWAP2 POP JUMPDEST PUSH1 0x1 ADD PUSH2 0x68 JUMP JUMPDEST POP SWAP2 SWAP1 POP JUMP JUMPDEST PUSH4 0x4E487B71 PUSH1 0xE0 SHL PUSH1 0x0 MSTORE PUSH1 0x41 PUSH1 0x4 MSTORE PUSH1 0x24 PUSH1 0x0 REVERT JUMPDEST PUSH1 0x40 DUP1 MLOAD SWAP1 DUP2 ADD PUSH8 0xFFFFFFFFFFFFFFFF DUP2 GT DUP3 DUP3 LT OR ISZERO PUSH2 0x22E JUMPI PUSH2 0x22E PUSH2 0x1F5 JUMP JUMPDEST PUSH1 0x40 MSTORE SWAP1 JUMP JUMPDEST PUSH1 0x40 MLOAD PUSH1 0x1F DUP3 ADD PUSH1 0x1F NOT AND DUP2 ADD PUSH8 0xFFFFFFFFFFFFFFFF DUP2 GT DUP3 DUP3 LT OR ISZERO PUSH2 0x25D JUMPI PUSH2 0x25D PUSH2 0x1F5 JUMP JUMPDEST PUSH1 0x40 MSTORE SWAP2 SWAP1 POP JUMP JUMPDEST PUSH1 0x0 PUSH8 0xFFFFFFFFFFFFFFFF DUP3 GT ISZERO PUSH2 0x27F JUMPI PUSH2 0x27F PUSH2 0x1F5 JUMP JUMPDEST POP PUSH1 0x5 SHL PUSH1 0x20 ADD SWAP1 JUMP JUMPDEST PUSH1 0x0 DUP3 PUSH1 0x1F DUP4 ADD SLT PUSH2 0x29A JUMPI PUSH1 0x0 DUP1 REVERT JUMPDEST DUP2 CALLDATALOAD PUSH2 0x2AD PUSH2 0x2A8 DUP3 PUSH2 0x265 JUMP JUMPDEST PUSH2 0x234 JUMP JUMPDEST DUP1 DUP3 DUP3 MSTORE PUSH1 0x20 DUP3 ADD SWAP2 POP PUSH1 0x20 DUP4 PUSH1 0x5 SHL DUP7 ADD ADD SWAP3 POP DUP6 DUP4 GT ISZERO PUSH2 0x2CF JUMPI PUSH1 0x0 DUP1 REVERT JUMPDEST PUSH1 0x20 DUP6 ADD JUMPDEST DUP4 DUP2 LT ISZERO PUSH2 0x373 JUMPI DUP1 CALLDATALOAD PUSH8 0xFFFFFFFFFFFFFFFF DUP2 GT ISZERO PUSH2 0x2F3 JUMPI PUSH1 0x0 DUP1 REVERT JUMPDEST DUP7 ADD PUSH1 0x3F DUP2 ADD DUP9 SGT PUSH2 0x304 JUMPI PUSH1 0x0 DUP1 REVERT JUMPDEST PUSH1 0x20 DUP2 ADD CALLDATALOAD PUSH8 0xFFFFFFFFFFFFFFFF DUP2 GT ISZERO PUSH2 0x321 JUMPI PUSH2 0x321 PUSH2 0x1F5 JUMP JUMPDEST PUSH2 0x334 PUSH1 0x1F DUP3 ADD PUSH1 0x1F NOT AND PUSH1 0x20 ADD PUSH2 0x234 JUMP JUMPDEST DUP2 DUP2 MSTORE PUSH1 0x40 DUP4 DUP4 ADD ADD DUP11 LT ISZERO PUSH2 0x349 JUMPI PUSH1 0x0 DUP1 REVERT JUMPDEST DUP2 PUSH1 0x40 DUP5 ADD PUSH1 0x20 DUP4 ADD CALLDATACOPY PUSH1 0x0 PUSH1 0x20 DUP4 DUP4 ADD ADD MSTORE DUP1 DUP7 MSTORE POP POP POP PUSH1 0x20 DUP4 ADD SWAP3 POP PUSH1 0x20 DUP2 ADD SWAP1 POP PUSH2 0x2D4 JUMP JUMPDEST POP SWAP6 SWAP5 POP POP POP POP POP JUMP JUMPDEST PUSH1 0x0 PUSH1 0x20 DUP3 DUP5 SUB SLT ISZERO PUSH2 0x38F JUMPI PUSH1 0x0 DUP1 REVERT JUMPDEST DUP2 CALLDATALOAD PUSH8 0xFFFFFFFFFFFFFFFF DUP2 GT ISZERO PUSH2 0x3A6 JUMPI PUSH1 0x0 DUP1 REVERT JUMPDEST DUP3 ADD PUSH1 0x40 DUP2 DUP6 SUB SLT ISZERO PUSH2 0x3B8 JUMPI PUSH1 0x0 DUP1 REVERT JUMPDEST PUSH2 0x3C0 PUSH2 0x20B JUMP JUMPDEST DUP2 CALLDATALOAD PUSH8 0xFFFFFFFFFFFFFFFF DUP2 GT ISZERO PUSH2 0x3D7 JUMPI PUSH1 0x0 DUP1 REVERT JUMPDEST DUP3 ADD PUSH1 0x1F DUP2 ADD DUP7 SGT PUSH2 0x3E8 JUMPI PUSH1 0x0 DUP1 REVERT JUMPDEST DUP1 CALLDATALOAD PUSH2 0x3F6 PUSH2 0x2A8 DUP3 PUSH2 0x265 JUMP JUMPDEST DUP1 DUP3 DUP3 MSTORE PUSH1 0x20 DUP3 ADD SWAP2 POP PUSH1 0x20 DUP4 PUSH1 0x5 SHL DUP6 ADD ADD SWAP3 POP DUP9 DUP4 GT ISZERO PUSH2 0x418 JUMPI PUSH1 0x0 DUP1 REVERT JUMPDEST PUSH1 0x20 DUP5 ADD SWAP4 POP JUMPDEST DUP3 DUP5 LT ISZERO PUSH2 0x447 JUMPI DUP4 CALLDATALOAD PUSH1 0x6 DUP2 LT PUSH2 0x436 JUMPI PUSH1 0x0 DUP1 REVERT JUMPDEST DUP3 MSTORE PUSH1 0x20 SWAP4 DUP5 ADD SWAP4 SWAP1 SWAP2 ADD SWAP1 PUSH2 0x41F JUMP JUMPDEST DUP5 MSTORE POP POP POP PUSH1 0x20 DUP3 ADD CALLDATALOAD PUSH8 0xFFFFFFFFFFFFFFFF DUP2 GT ISZERO PUSH2 0x466 JUMPI PUSH1 0x0 DUP1 REVERT JUMPDEST PUSH2 0x472 DUP7 DUP3 DUP6 ADD PUSH2 0x289 JUMP JUMPDEST PUSH1 0x20 DUP4 ADD MSTORE POP SWAP5 SWAP4 POP POP POP POP JUMP JUMPDEST PUSH1 0x0 JUMPDEST DUP4 DUP2 LT ISZERO PUSH2 0x49B JUMPI DUP2 DUP2 ADD MLOAD DUP4 DUP3 ADD MSTORE PUSH1 0x20 ADD PUSH2 0x483 JUMP JUMPDEST POP POP PUSH1 0x0 SWAP2 ADD MSTORE JUMP JUMPDEST PUSH1 0x0 DUP2 MLOAD DUP1 DUP5 MSTORE PUSH2 0x4BC DUP2 PUSH1 0x20 DUP7 ADD PUSH1 0x20 DUP7 ADD PUSH2 0x480 JUMP JUMPDEST PUSH1 0x1F ADD PUSH1 0x1F NOT AND SWAP3 SWAP1 SWAP3 ADD PUSH1 0x20 ADD SWAP3 SWAP2 POP POP JUMP JUMPDEST PUSH1 0x20 DUP2 MSTORE PUSH1 0x0 PUSH2 0x4E3 PUSH1 0x20 DUP4 ADD DUP5 PUSH2 0x4A4 JUMP JUMPDEST SWAP4 SWAP3 POP POP POP JUMP JUMPDEST PUSH4 0x4E487B71 PUSH1 0xE0 SHL PUSH1 0x0 MSTORE PUSH1 0x21 PUSH1 0x4 MSTORE PUSH1 0x24 PUSH1 0x0 REVERT JUMPDEST PUSH4 0x4E487B71 PUSH1 0xE0 SHL PUSH1 0x0 MSTORE PUSH1 0x32 PUSH1 0x4 MSTORE PUSH1 0x24 PUSH1 0x0 REVERT JUMPDEST PUSH1 0x0 DUP4 MLOAD PUSH2 0x528 DUP2 DUP5 PUSH1 0x20 DUP9 ADD PUSH2 0x480 JUMP JUMPDEST DUP4 MLOAD SWAP1 DUP4 ADD SWAP1 PUSH2 0x53C DUP2 DUP4 PUSH1 0x20 DUP9 ADD PUSH2 0x480 JUMP JUMPDEST ADD SWAP5 SWAP4 POP POP POP POP JUMP INVALID LOG2 PUSH5 0x6970667358 0x22 SLT KECCAK256 GAS 0xA8 DUP13 SWAP13 0xED 0xAD 0xAF DIV BLOBHASH PUSH30 0x2F62A06D7E505FABE46B9A03098A45EE968033F6A4A664736F6C63430008 SHL STOP CALLER "},"methodIdentifiers":{"customEncoder(RulesStorageStructure.Arguments)":"daac73c7"}}}}}