{"abi":[{"type":"function","name":"applyPolicy","inputs":[{"name":"contractAddress","type":"address","internalType":"address"},{"name":"policyIds","type":"uint256[]","internalType":"uint256[]"}],"outputs":[],"stateMutability":"nonpayable"},{"type":"function","name":"cementPolicy","inputs":[{"name":"policyId","type":"uint256","internalType":"uint256"}],"outputs":[],"stateMutability":"nonpayable"},{"type":"function","name":"closePolicy","inputs":[{"name":"policyId","type":"uint256","internalType":"uint256"}],"outputs":[],"stateMutability":"nonpayable"},{"type":"function","name":"createPolicy","inputs":[{"name":"policyType","type":"uint8","internalType":"enum PolicyType"}],"outputs":[{"name":"","type":"uint256","internalType":"uint256"}],"stateMutability":"nonpayable"},{"type":"function","name":"deletePolicy","inputs":[{"name":"policyId","type":"uint256","internalType":"uint256"}],"outputs":[],"stateMutability":"nonpayable"},{"type":"function","name":"disablePolicy","inputs":[{"name":"policyId","type":"uint256","internalType":"uint256"}],"outputs":[],"stateMutability":"nonpayable"},{"type":"function","name":"getAppliedPolicyIds","inputs":[{"name":"contractAddress","type":"address","internalType":"address"}],"outputs":[{"name":"","type":"uint256[]","internalType":"uint256[]"}],"stateMutability":"view"},{"type":"function","name":"getPolicy","inputs":[{"name":"policyId","type":"uint256","internalType":"uint256"}],"outputs":[{"name":"callingFunctions","type":"bytes4[]","internalType":"bytes4[]"},{"name":"callingFunctionIds","type":"uint256[]","internalType":"uint256[]"},{"name":"ruleIds","type":"uint256[][]","internalType":"uint256[][]"}],"stateMutability":"view"},{"type":"function","name":"isCementedPolicy","inputs":[{"name":"_policyId","type":"uint256","internalType":"uint256"}],"outputs":[{"name":"","type":"bool","internalType":"bool"}],"stateMutability":"view"},{"type":"function","name":"isClosedPolicy","inputs":[{"name":"policyId","type":"uint256","internalType":"uint256"}],"outputs":[{"name":"","type":"bool","internalType":"bool"}],"stateMutability":"view"},{"type":"function","name":"isDisabledPolicy","inputs":[{"name":"policyId","type":"uint256","internalType":"uint256"}],"outputs":[{"name":"","type":"bool","internalType":"bool"}],"stateMutability":"view"},{"type":"function","name":"openPolicy","inputs":[{"name":"policyId","type":"uint256","internalType":"uint256"}],"outputs":[],"stateMutability":"nonpayable"},{"type":"function","name":"unapplyPolicy","inputs":[{"name":"_contractAddress","type":"address","internalType":"address"},{"name":"_policyIds","type":"uint256[]","internalType":"uint256[]"}],"outputs":[],"stateMutability":"nonpayable"},{"type":"function","name":"updatePolicy","inputs":[{"name":"policyId","type":"uint256","internalType":"uint256"},{"name":"callingFunctions","type":"bytes4[]","internalType":"bytes4[]"},{"name":"callingFunctionIds","type":"uint256[]","internalType":"uint256[]"},{"name":"ruleIds","type":"uint256[][]","internalType":"uint256[][]"},{"name":"policyType","type":"uint8","internalType":"enum PolicyType"}],"outputs":[{"name":"","type":"uint256","internalType":"uint256"}],"stateMutability":"nonpayable"},{"type":"event","name":"ForeignCallDeleted","inputs":[{"name":"policyId","type":"uint256","indexed":true,"internalType":"uint256"},{"name":"foreignCallId","type":"uint256","indexed":true,"internalType":"uint256"}],"anonymous":false},{"type":"event","name":"PolicyApplied","inputs":[{"name":"policyIds","type":"uint256[]","indexed":false,"internalType":"uint256[]"},{"name":"callingContract","type":"address","indexed":true,"internalType":"address"}],"anonymous":false},{"type":"event","name":"PolicyCemented","inputs":[{"name":"policyId","type":"uint256","indexed":true,"internalType":"uint256"}],"anonymous":false},{"type":"event","name":"PolicyClosed","inputs":[{"name":"policyId","type":"uint256","indexed":true,"internalType":"uint256"}],"anonymous":false},{"type":"event","name":"PolicyCreated","inputs":[{"name":"policyId","type":"uint256","indexed":true,"internalType":"uint256"}],"anonymous":false},{"type":"event","name":"PolicyDeleted","inputs":[{"name":"policyId","type":"uint256","indexed":true,"internalType":"uint256"}],"anonymous":false},{"type":"event","name":"PolicyDisabled","inputs":[{"name":"policyId","type":"uint256","indexed":true,"internalType":"uint256"}],"anonymous":false},{"type":"event","name":"PolicyOpened","inputs":[{"name":"policyId","type":"uint256","indexed":true,"internalType":"uint256"}],"anonymous":false},{"type":"event","name":"PolicyUnapplied","inputs":[{"name":"policyIds","type":"uint256[]","indexed":false,"internalType":"uint256[]"},{"name":"callingContract","type":"address","indexed":true,"internalType":"address"}],"anonymous":false},{"type":"event","name":"PolicyUpdated","inputs":[{"name":"policyId","type":"uint256","indexed":true,"internalType":"uint256"}],"anonymous":false},{"type":"event","name":"TrackerDeleted","inputs":[{"name":"policyId","type":"uint256","indexed":true,"internalType":"uint256"},{"name":"trackerId","type":"uint256","indexed":true,"internalType":"uint256"}],"anonymous":false}],"bytecode":{"object":"0x6080604052348015600e575f5ffd5b50613d128061001c5f395ff3fe608060405234801561000f575f5ffd5b50600436106100e5575f3560e01c8063798d6c7b11610088578063d46a37c411610063578063d46a37c4146101df578063e3749023146101f2578063f7b570f614610212578063fed27c8f14610225575f5ffd5b8063798d6c7b146101a65780639228303f146101b95780639ae6d2f1146101cc575f5ffd5b806330ab6a0a116100c357806330ab6a0a1461014a5780634f10689b1461015d5780635239f98c14610180578063696ef70314610193575f5ffd5b80632b07fce3146100e95780632b0e4440146101145780632fd205bd14610129575b5f5ffd5b6100fc6100f7366004613621565b610238565b60405161010b93929190613672565b60405180910390f35b610127610122366004613621565b6106f8565b005b61013c6101373660046137c1565b610888565b60405190815260200161010b565b610127610158366004613621565b610a4e565b61017061016b366004613621565b610b63565b604051901515815260200161010b565b61012761018e36600461389c565b610b9e565b6101706101a1366004613621565b61111f565b6101276101b4366004613621565b611127565b6101276101c736600461389c565b61123c565b61013c6101da3660046138eb565b6116fc565b6101276101ed366004613621565b611820565b61020561020036600461390b565b611971565b60405161010b9190613924565b610170610220366004613621565b6119f0565b610127610233366004613621565b611a17565b60608060605f61024661209d565b5f8681526001918201602052604090206003810154910191501561034c57600281015467ffffffffffffffff81111561028157610281613936565b6040519080825280602002602001820160405280156102aa578160200160208202803683370190505b50600282015490945067ffffffffffffffff8111156102cb576102cb613936565b6040519080825280602002602001820160405280156102f4578160200160208202803683370190505b50600282015490935067ffffffffffffffff81111561031557610315613936565b60405190808252806020026020018201604052801561034857816020015b60608152602001906001900390816103335790505b5091505b600281015467ffffffffffffffff81111561036957610369613936565b60405190808252806020026020018201604052801561039c57816020015b60608152602001906001900390816103875790505b5091505f5b60028201548110156106ef578160020181815481106103c2576103c2613963565b905f5260205f2090600891828204019190066004029054906101000a900460e01b8582815181106103f5576103f5613963565b7fffffffff000000000000000000000000000000000000000000000000000000009092166020928302919091019091015260028201805483915f918490811061044057610440613963565b905f5260205f2090600891828204019190066004029054906101000a900460e01b7bffffffffffffffffffffffffffffffffffffffffffffffffffffffff19167bffffffffffffffffffffffffffffffffffffffffffffffffffffffff191681526020019081526020015f20548482815181106104bf576104bf613963565b60209081029190910101525f5b826001015f8460020184815481106104e6576104e6613963565b5f918252602080832060088304015460079092166004026101000a90910460e01b7fffffffff000000000000000000000000000000000000000000000000000000001683528201929092526040019020548110156106e657826001015f84600201848154811061055857610558613963565b5f918252602080832060088304015460079092166004026101000a90910460e01b7fffffffff0000000000000000000000000000000000000000000000000000000016835282019290925260400190205467ffffffffffffffff8111156105c1576105c1613936565b6040519080825280602002602001820160405280156105ea578160200160208202803683370190505b508483815181106105fd576105fd613963565b6020026020010181905250826001015f84600201848154811061062257610622613963565b905f5260205f2090600891828204019190066004029054906101000a900460e01b7bffffffffffffffffffffffffffffffffffffffffffffffffffffffff19167bffffffffffffffffffffffffffffffffffffffffffffffffffffffff191681526020019081526020015f20818154811061069f5761069f613963565b905f5260205f2001548483815181106106ba576106ba613963565b602002602001015182815181106106d3576106d3613963565b60209081029190910101526001016104cc565b506001016103a1565b50509193909250565b60405160248101829052336044820181905282915f9081906107b5907f901cee1100000000000000000000000000000000000000000000000000000000906064015b604080517fffffffffffffffffffffffffffffffffffffffffffffffffffffffffffffffe08184030181529190526020810180517bffffffffffffffffffffffffffffffffffffffffffffffffffffffff167f901cee11000000000000000000000000000000000000000000000000000000001790526120d0565b915091505f82156108435760048251106107d4575060208101516107d7565b505f5b80610843576040517f08c379a000000000000000000000000000000000000000000000000000000000815260206004820152601860248201527f4e6f7420417574686f72697a656420546f20506f6c696379000000000000000060448201526064015b60405180910390fd5b61084c86612191565b610856865f612220565b60405186907f524fcc256039a8ee7fd3d614ec713bd4a9159d02d7261ae80028fc15b45c4848905f90a2505050505050565b5f88335f5f6108ca63901cee1160e01b858560405160240161073a92919091825273ffffffffffffffffffffffffffffffffffffffff16602082015260400190565b915091505f82156109535760048251106108e9575060208101516108ec565b505f5b80610953576040517f08c379a000000000000000000000000000000000000000000000000000000000815260206004820152601860248201527f4e6f7420417574686f72697a656420546f20506f6c6963790000000000000000604482015260640161083a565b61095c8e612191565b8b8a146109af576040518060600160405280602e8152602001613c76602e91396040517f08c379a000000000000000000000000000000000000000000000000000000000815260040161083a9190613990565b8d5f03610a0257604051806060016040528060348152602001613bf9603491396040517f08c379a000000000000000000000000000000000000000000000000000000000815260040161083a9190613990565b6040518e907f912ce63c438aca9d2f50d1d12de5b42efbcc84ce223b08122e8c2e3c000ca1f8905f90a2610a3c8e8e8e8e8e8e8e8e612343565b9e9d5050505050505050505050505050565b60405160248101829052336044820181905282915f908190610a94907f901cee11000000000000000000000000000000000000000000000000000000009060640161073a565b915091505f8215610b1d576004825110610ab357506020810151610ab6565b505f5b80610b1d576040517f08c379a000000000000000000000000000000000000000000000000000000000815260206004820152601860248201527f4e6f7420417574686f72697a656420546f20506f6c6963790000000000000000604482015260640161083a565b610b2686612191565b610b31866002612220565b60405186907faed86353bce2e7a37fbb57488f79d0a22f46359b908581f14d7106e2b67fd0e1905f90a2505050505050565b5f805b610b6e61209d565b5f848152600191909101602052604090206004015460ff166002811115610b9757610b976139e3565b1492915050565b60405173ffffffffffffffffffffffffffffffffffffffff84166024820152336044820181905284915f908190610c70907f70aca09200000000000000000000000000000000000000000000000000000000906064015b604080517fffffffffffffffffffffffffffffffffffffffffffffffffffffffffffffffe08184030181529190526020810180517bffffffffffffffffffffffffffffffffffffffffffffffffffffffff167f70aca092000000000000000000000000000000000000000000000000000000001790526120d0565b915091505f8215610cf9576004825110610c8f57506020810151610c92565b505f5b80610cf9576040517f08c379a000000000000000000000000000000000000000000000000000000000815260206004820152601460248201527f4e6f7420417574686f72697a65642041646d696e000000000000000000000000604482015260640161083a565b73ffffffffffffffffffffffffffffffffffffffff8816610d7957604080518082018252601c81527f5a65726f20416464726573732043616e6e6f742042652041646d696e00000000602082015290517f08c379a000000000000000000000000000000000000000000000000000000000815261083a9190600401613990565b5f610d8261338d565b73ffffffffffffffffffffffffffffffffffffffff8a165f9081526020828152604080832080548251818502810185019093528083529495509293909291830182828015610ded57602002820191905f5260205f20905b815481526020019060010190808311610dd9575b5050505073ffffffffffffffffffffffffffffffffffffffff8c165f908152602085905260408120929350610e239291506134d7565b5f805b8251811015610ee6575f9150815b8a811015610e81578b8b82818110610e4e57610e4e613963565b90506020020135848381518110610e6757610e67613963565b602002602001015103610e7957600192505b600101610e34565b5081610ede5773ffffffffffffffffffffffffffffffffffffffff8c165f9081526020859052604090208351849083908110610ebf57610ebf613963565b60209081029190910181015182546001810184555f9384529190922001555b600101610e26565b505f836001015f8c8c5f818110610eff57610eff613963565b9050602002013581526020019081526020015f20805480602002602001604051908101604052809291908181526020018280548015610f7257602002820191905f5260205f20905b815473ffffffffffffffffffffffffffffffffffffffff168152600190910190602001808311610f47575b509394505f93505050505b8a8110156110c057846001015f8d8d84818110610f9c57610f9c613963565b9050602002013581526020019081526020015f205f610fbb91906134d7565b5f5b82518110156110b7578d73ffffffffffffffffffffffffffffffffffffffff16838281518110610fef57610fef613963565b602002602001015173ffffffffffffffffffffffffffffffffffffffff16146110af57856001015f8e8e8581811061102957611029613963565b9050602002013581526020019081526020015f2083828151811061104f5761104f613963565b60209081029190910181015182546001810184555f938452919092200180547fffffffffffffffffffffffff00000000000000000000000000000000000000001673ffffffffffffffffffffffffffffffffffffffff9092169190911790555b600101610fbd565b50600101610f7d565b508b73ffffffffffffffffffffffffffffffffffffffff167fcca48239a70eb9b3cebd3ea981ec0ca547a1eac614fb9ef7c80422484582c10b8c8c604051611109929190613a10565b60405180910390a2505050505050505050505050565b5f6002610b66565b60405160248101829052336044820181905282915f90819061116d907f901cee11000000000000000000000000000000000000000000000000000000009060640161073a565b915091505f82156111f657600482511061118c5750602081015161118f565b505f5b806111f6576040517f08c379a000000000000000000000000000000000000000000000000000000000815260206004820152601860248201527f4e6f7420417574686f72697a656420546f20506f6c6963790000000000000000604482015260640161083a565b6111ff86612191565b61120a866001612220565b60405186907fe9a53e8109d105e8132e423c8a8489a6c054acbfff3373248be4938a857143d9905f90a2505050505050565b60405173ffffffffffffffffffffffffffffffffffffffff84166024820152336044820181905284915f908190611297907f70aca0920000000000000000000000000000000000000000000000000000000090606401610bf5565b915091505f82156113205760048251106112b6575060208101516112b9565b505f5b80611320576040517f08c379a000000000000000000000000000000000000000000000000000000000815260206004820152601460248201527f4e6f7420417574686f72697a65642041646d696e000000000000000000000000604482015260640161083a565b73ffffffffffffffffffffffffffffffffffffffff88166113a057604080518082018252601c81527f5a65726f20416464726573732043616e6e6f742042652041646d696e00000000602082015290517f08c379a000000000000000000000000000000000000000000000000000000000815261083a9190600401613990565b5f6113a961338d565b90505f5b8781101561151d575f6113be61209d565b6001015f8b8b858181106113d4576113d4613963565b9050602002013581526020019081526020015f209050805f015f9054906101000a900460ff166040518060400160405280601581526020017f506f6c69637920646f6573206e6f74206578697374000000000000000000000081525090611468576040517f08c379a000000000000000000000000000000000000000000000000000000000815260040161083a9190613990565b5061148a8a8a8481811061147e5761147e613963565b90506020020135612191565b5f600482015460ff1660028111156114a4576114a46139e3565b0361151457335f90815260058201602090815260409182902054825160608101909352603980845260ff9091169291613ca49083013990611512576040517f08c379a000000000000000000000000000000000000000000000000000000000815260040161083a9190613990565b505b506001016113ad565b508667ffffffffffffffff81111561153757611537613936565b604051908082528060200260200182016040528015611560578160200160208202803683370190505b5073ffffffffffffffffffffffffffffffffffffffff8a165f90815260208381526040909120825161159893919291909101906134f2565b505f5b878110156116a0578888828181106115b5576115b5613963565b90506020020135825f015f8c73ffffffffffffffffffffffffffffffffffffffff1673ffffffffffffffffffffffffffffffffffffffff1681526020019081526020015f20828154811061160b5761160b613963565b905f5260205f200181905550816001015f8a8a8481811061162e5761162e613963565b60209081029290920135835250818101929092526040015f9081208054600180820183559183529290912090910180547fffffffffffffffffffffffff00000000000000000000000000000000000000001673ffffffffffffffffffffffffffffffffffffffff8d161790550161159b565b508873ffffffffffffffffffffffffffffffffffffffff167f12152a04e6faa55f635c036c0cb901dff565d19cd5703f5076adda8206cdb7c689896040516116e9929190613a10565b60405180910390a2505050505050505050565b5f5f61170661209d565b805460019081018083555f8181528284016020526040902080547fffffffffffffffffffffffffffffffffffffffffffffffffffffffffffffff0090811684178255600490910180549495509193879391169083600281111561176b5761176b6139e3565b02179055506040517f1929cb64000000000000000000000000000000000000000000000000000000008152600481018290523360248201523090631929cb64906044016020604051808303815f875af11580156117ca573d5f5f3e3d5ffd5b505050506040513d601f19601f820116820180604052508101906117ee9190613a60565b5060405181907fde5ef345cecbaaffdfbe2454b7947aa14037bac2f45e4fc98976f8bffea38623905f90a29392505050565b60405160248101829052336044820181905282915f908190611866907f901cee11000000000000000000000000000000000000000000000000000000009060640161073a565b915091505f82156118ef57600482511061188557506020810151611888565b505f5b806118ef576040517f08c379a000000000000000000000000000000000000000000000000000000000815260206004820152601860248201527f4e6f7420417574686f72697a656420546f20506f6c6963790000000000000000604482015260640161083a565b60016118f961209d565b5f88815260019190910160205260408082206004018054931515610100027fffffffffffffffffffffffffffffffffffffffffffffffffffffffffffff00ff90941693909317909255905187917fbaf00585ebbdf781652a166975bf4579319799593ec61cfadd690ea9833c3fc891a2505050505050565b606061197b61338d565b73ffffffffffffffffffffffffffffffffffffffff83165f9081526020918252604090819020805482518185028101850190935280835291929091908301828280156119e457602002820191905f5260205f20905b8154815260200190600101908083116119d0575b50505050509050919050565b5f6119f961209d565b5f928352600101602052506040902060040154610100900460ff1690565b60405160248101829052336044820181905282915f908190611a5d907f901cee11000000000000000000000000000000000000000000000000000000009060640161073a565b915091505f8215611ae6576004825110611a7c57506020810151611a7f565b505f5b80611ae6576040517f08c379a000000000000000000000000000000000000000000000000000000000815260206004820152601860248201527f4e6f7420417574686f72697a656420546f20506f6c6963790000000000000000604482015260640161083a565b611aef86612191565b5f611af861209d565b5f88815260019182016020908152604080832080547fffffffffffffffffffffffffffffffffffffffffffffffffffffffffffffff00168155600381018054835181860281018601909452808452919650948601949192830182828015611bbd57602002820191905f5260205f20905f905b82829054906101000a900460e01b7bffffffffffffffffffffffffffffffffffffffffffffffffffffffff191681526020019060040190602082600301049283019260010382029150808411611b6a5790505b509394505f93505050505b8151811015611d67575f836001015f848481518110611be957611be9613963565b60200260200101517bffffffffffffffffffffffffffffffffffffffffffffffffffffffff19167bffffffffffffffffffffffffffffffffffffffffffffffffffffffff191681526020019081526020015f20805480602002602001604051908101604052809291908181526020018280548015611c8457602002820191905f5260205f20905b815481526020019060010190808311611c70575b509394505f93505050505b8151811015611d5d57611d5363a31c8ebb60e01b8d848481518110611cb657611cb6613963565b6020026020010151604051602401611cd8929190918252602082015260400190565b604080517fffffffffffffffffffffffffffffffffffffffffffffffffffffffffffffffe08184030181529190526020810180517bffffffffffffffffffffffffffffffffffffffffffffffffffffffff167fa31c8ebb000000000000000000000000000000000000000000000000000000001790526120d0565b5050600101611c8f565b5050600101611bc8565b505f611d716133ba565b5f8b8152602091909152604081205491505b818111611e6157611d926133ba565b5f8c81526001919091016020908152604080832084845290915290205460ff1615611e4f57611dbf6133ba565b5f8c8152600191820160209081526040808320858452909152812080547fffffffffffff0000000000000000000000000000000000000000000000000000168155918201819055611e13600283018261353b565b611e20600383015f61355d565b505060405181908c907f19d0bd0cc4d63f9108c93b0abfd7408498ecbc73713f6bb3a2862d9b9d1983d8905f90a35b80611e5981613aa4565b915050611d83565b505f611e6b6133e7565b5f8c81526020829052604090205490915060015b818111611f48575f8d8152600184016020908152604080832084845290915290205460ff1615611f3657611eb16133e7565b5f8e8152600191820160209081526040808320858452909152812080547fffffffffffffffffffffffffffffffffffffffffffffffffffffffff0000000016815591611eff9083018261357b565b600282015f90555050808d7ed9d817df2d853a886f2cbe7a671a676890264711abbb9d2c3ee79fb1bb653a60405160405180910390a35b80611f4081613aa4565b915050611e7f565b505f5b60038701548110156120645760038701805460018901915f9184908110611f7457611f74613963565b905f5260205f2090600891828204019190066004029054906101000a900460e01b7bffffffffffffffffffffffffffffffffffffffffffffffffffffffff19167bffffffffffffffffffffffffffffffffffffffffffffffffffffffff191681526020019081526020015f205f9055866001016001015f88600101600201838154811061200357612003613963565b5f918252602080832060088304015460079092166004026101000a90910460e01b7fffffffff00000000000000000000000000000000000000000000000000000000168352820192909252604001812061205c916134d7565b600101611f4b565b506040518c907f433ab09ab993382af577c4a70f77dcc7cf149b5b52eb40d19b869664bfb5496d905f90a2505050505050505050505050565b5f806120ca60017ff9dbd639dd2ea165d77dd4c51dec420100d51ceacf023b1c40faa045ba8f9a65613adb565b92915050565b5f60605f6120dc613414565b7fffffffff0000000000000000000000000000000000000000000000000000000086165f908152602082905260409081902054905191925073ffffffffffffffffffffffffffffffffffffffff16908190612138908790613aee565b5f60405180830381855af49150503d805f8114612170576040519150601f19603f3d011682016040523d82523d5f602084013e612175565b606091505b5090945092508361218857825160208401fd5b50509250929050565b61219961209d565b5f8281526001919091016020526040902060040154610100900460ff161561221d576040517f08c379a000000000000000000000000000000000000000000000000000000000815260206004820152601f60248201527f4e6f7420616c6c6f77656420666f722063656d656e74656420706f6c69637900604482015260640161083a565b50565b5f61222961209d565b5f8481526001918201602052604081209091019150826002811115612250576122506139e3565b036122fa575f61225e61338d565b90505f5b5f8581526001830160205260409020548110156122df575f85815260018301602052604081208054849291908490811061229e5761229e613963565b5f91825260208083209091015473ffffffffffffffffffffffffffffffffffffffff16835282019290925260400181206122d7916134d7565b600101612262565b505f84815260018201602052604081206122f8916134d7565b505b6003810180548391907fffffffffffffffffffffffffffffffffffffffffffffffffffffffffffffff00166001836002811115612339576123396139e3565b0217905550505050565b5f5f61234d61209d565b5f8b815260019182016020526040902001905061236a8a84612220565b612377600282015f6135b2565b831561320e575f5b88811015613208576123a98b89898481811061239d5761239d613963565b90506020020135613441565b61241257604080518082018252601181527f496e76616c6964205369676e6174757265000000000000000000000000000000602082015290517f08c379a000000000000000000000000000000000000000000000000000000000815261083a9190600401613990565b87878281811061242457612424613963565b90506020020135825f015f8c8c8581811061244157612441613963565b90506020020160208101906124569190613b04565b7fffffffff0000000000000000000000000000000000000000000000000000000016815260208101919091526040015f2055600282018a8a8381811061249e5761249e613963565b90506020020160208101906124b39190613b04565b81546001810183555f928352602083206008820401805463ffffffff60079093166004026101000a928302191660e09390931c919091029190911790555b86868381811061250357612503613963565b90506020028101906125159190613b43565b90508110156131ff575f61252761346b565b5f8e8152600191909101602052604081209089898681811061254b5761254b613963565b905060200281019061255d9190613b43565b8581811061256d5761256d613963565b602090810292909201358352508181019290925260409081015f2081518083018352815460ff1615158152825160018301805460e08188028401810190965260c0830181815293969495948701949293919284929184918401828280156125f157602002820191905f5260205f20905b8154815260200190600101908083116125dd575b50505050508152602001600182016040518060600160405290815f820180548060200260200160405190810160405280929190818152602001828054801561265657602002820191905f5260205f20905b815481526020019060010190808311612642575b50505050508152602001600182018054806020026020016040519081016040528092919081815260200182805480156126db57602002820191905f5260205f20905f905b82829054906101000a900460ff1660078111156126b9576126b96139e3565b81526020600192830181810494850194909303909202910180841161269a5790505b5050505050815260200160028201805480602002602001604051908101604052809291908181526020015f905b828210156127b0578382905f5260205f2001805461272590613ba7565b80601f016020809104026020016040519081016040528092919081815260200182805461275190613ba7565b801561279c5780601f106127735761010080835404028352916020019161279c565b820191905f5260205f20905b81548152906001019060200180831161277f57829003601f168201915b505050505081526020019060010190612708565b5050505081525050815260200160048201805480602002602001604051908101604052809291908181526020015f905b828210156128ff575f848152602090206040805160808101909152600384029091018054829060ff16600781111561281a5761281a6139e3565b600781111561282b5761282b6139e3565b8152815461010090046fffffffffffffffffffffffffffffffff16602082015260018201805460409092019161286090613ba7565b80601f016020809104026020016040519081016040528092919081815260200182805461288c90613ba7565b80156128d75780601f106128ae576101008083540402835291602001916128d7565b820191905f5260205f20905b8154815290600101906020018083116128ba57829003601f168201915b50505091835250506002919091015460ff1660209182015290825260019290920191016127e0565b50505050815260200160058201805480602002602001604051908101604052809291908181526020015f905b82821015612a4a575f848152602090206040805160808101909152600384029091018054829060ff166007811115612965576129656139e3565b6007811115612976576129766139e3565b8152815461010090046fffffffffffffffffffffffffffffffff1660208201526001820180546040909201916129ab90613ba7565b80601f01602080910402602001604051908101604052809291908181526020018280546129d790613ba7565b8015612a225780601f106129f957610100808354040283529160200191612a22565b820191905f5260205f20905b815481529060010190602001808311612a0557829003601f168201915b50505091835250506002919091015460ff16602091820152908252600192909201910161292b565b50505050815260200160068201805480602002602001604051908101604052809291908181526020015f905b82821015612caf575f84815260209081902060408051610100808201835260058702909301805460ff808216151584529481048516151595830195909552909390929184019162010000909104166002811115612ad557612ad56139e3565b6002811115612ae657612ae66139e3565b815281546020909101906301000000900460ff166007811115612b0b57612b0b6139e3565b6007811115612b1c57612b1c6139e3565b8152602001600182018054612b3090613ba7565b80601f0160208091040260200160405190810160405280929190818152602001828054612b5c90613ba7565b8015612ba75780601f10612b7e57610100808354040283529160200191612ba7565b820191905f5260205f20905b815481529060010190602001808311612b8a57829003601f168201915b5050505050815260200160028201548152602001600382018054612bca90613ba7565b80601f0160208091040260200160405190810160405280929190818152602001828054612bf690613ba7565b8015612c415780601f10612c1857610100808354040283529160200191612c41565b820191905f5260205f20905b815481529060010190602001808311612c2457829003601f168201915b5050505050815260200160048201805480602002602001604051908101604052809291908181526020018280548015612c9757602002820191905f5260205f20905b815481526020019060010190808311612c83575b50505050508152505081526020019060010190612a76565b50505050815260200160078201805480602002602001604051908101604052809291908181526020015f905b82821015612f14575f84815260209081902060408051610100808201835260058702909301805460ff808216151584529481048516151595830195909552909390929184019162010000909104166002811115612d3a57612d3a6139e3565b6002811115612d4b57612d4b6139e3565b815281546020909101906301000000900460ff166007811115612d7057612d706139e3565b6007811115612d8157612d816139e3565b8152602001600182018054612d9590613ba7565b80601f0160208091040260200160405190810160405280929190818152602001828054612dc190613ba7565b8015612e0c5780601f10612de357610100808354040283529160200191612e0c565b820191905f5260205f20905b815481529060010190602001808311612def57829003601f168201915b5050505050815260200160028201548152602001600382018054612e2f90613ba7565b80601f0160208091040260200160405190810160405280929190818152602001828054612e5b90613ba7565b8015612ea65780601f10612e7d57610100808354040283529160200191612ea6565b820191905f5260205f20905b815481529060010190602001808311612e8957829003601f168201915b5050505050815260200160048201805480602002602001604051908101604052809291908181526020018280548015612efc57602002820191905f5260205f20905b815481526020019060010190808311612ee8575b50505050508152505081526020019060010190612cdb565b505050915250509052508051909150612f8c57604080518082018252600c81527f496e76616c69642052756c650000000000000000000000000000000000000000602082015290517f08c379a000000000000000000000000000000000000000000000000000000000815261083a9190600401613990565b5f5b8160200151604001515181101561313f57612fd08260200151604001518281518110612fbc57612fbc613963565b602002602001015160600151600116151590565b1561306d576130168e8360200151604001518381518110612ff357612ff3613963565b6020026020010151602001516fffffffffffffffffffffffffffffffff16613498565b604051806060016040528060278152602001613c4f6027913990613067576040517f08c379a000000000000000000000000000000000000000000000000000000000815260040161083a9190613990565b50613137565b61309e826020015160400151828151811061308a5761308a613963565b602002602001015160600151600216151590565b15613137576130e48e83602001516040015183815181106130c1576130c1613963565b6020026020010151602001516fffffffffffffffffffffffffffffffff166134a1565b604051806060016040528060228152602001613c2d6022913990613135576040517f08c379a000000000000000000000000000000000000000000000000000000000815260040161083a9190613990565b505b600101612f8e565b50836001015f8d8d8681811061315757613157613963565b905060200201602081019061316c9190613b04565b7fffffffff0000000000000000000000000000000000000000000000000000000016815260208101919091526040015f208888858181106131af576131af613963565b90506020028101906131c19190613b43565b848181106131d1576131d1613963565b8354600180820186555f958652602095869020929095029390930135920191909155509190910190506124f1565b5060010161237f565b5061337f565b5f5b8881101561337d5761322e8b89898481811061239d5761239d613963565b61329757604080518082018252601181527f496e76616c6964205369676e6174757265000000000000000000000000000000602082015290517f08c379a000000000000000000000000000000000000000000000000000000000815261083a9190600401613990565b8787828181106132a9576132a9613963565b90506020020135825f015f8c8c858181106132c6576132c6613963565b90506020020160208101906132db9190613b04565b7fffffffff0000000000000000000000000000000000000000000000000000000016815260208101919091526040015f2055600282018a8a8381811061332357613323613963565b90506020020160208101906133389190613b04565b8154600180820184555f93845260209093206008820401805463ffffffff60079093166004026101000a928302191660e09390931c9190910291909117905501613210565b505b509798975050505050505050565b5f806120ca60017f1544053a94493269e0aa160e5aa5b54d19ee6492c78b8bd3af283b912c78cdeb613adb565b5f806120ca60017f1f3305601ed940efccf797d76856e5fe70659a8a6905d64c9f236321df91e718613adb565b5f806120ca60017f438102ff677bc3f21830c58117a05d6b953b31e3ea339da3f17957cd3941a690613adb565b5f806120ca60017fbe498a3b14fd79a48c3c9af86ff14271ed497d09071013334028d28e7791db20613adb565b5f61344a6134aa565b5f938452600101602090815260408085209385529290525090205460ff1690565b5f806120ca60017f5c91f63a4ffcbd372b8ec622fd1fcaaa601b66330afdb30e5c292dd9123f20b0613adb565b5f61344a6133ba565b5f61344a6133e7565b5f806120ca60017fdc82e9666de28bef254c770aa394fdb200d98373b70390c27adec32819f8f266613adb565b5080545f8255905f5260205f209081019061221d91906135d0565b828054828255905f5260205f2090810192821561352b579160200282015b8281111561352b578251825591602001919060010190613510565b506135379291506135d0565b5090565b5080545f8255601f0160209004905f5260205f209081019061221d91906135d0565b5080545f8255600202905f5260205f209081019061221d91906135e4565b50805461358790613ba7565b5f825580601f10613596575050565b601f0160209004905f5260205f209081019061221d91906135d0565b5080545f825560070160089004905f5260205f209081019061221d91905b5b80821115613537575f81556001016135d1565b5b808211156135375780547fffffffffffffffffffffffffffffffffffffffffffffffffffffffffffffff001681555f60018201556002016135e5565b5f60208284031215613631575f5ffd5b5035919050565b5f8151808452602084019350602083015f5b8281101561366857815186526020958601959091019060010161364a565b5093949350505050565b606080825284519082018190525f9060208601906080840190835b818110156136cd5783517fffffffff000000000000000000000000000000000000000000000000000000001683526020938401939092019160010161368d565b505083810360208501526136e18187613638565b915050828103604084015280845180835260208301915060208160051b840101602087015f5b83811015613757577fffffffffffffffffffffffffffffffffffffffffffffffffffffffffffffffe0868403018552613741838351613638565b6020958601959093509190910190600101613707565b50909998505050505050505050565b5f5f83601f840112613776575f5ffd5b50813567ffffffffffffffff81111561378d575f5ffd5b6020830191508360208260051b85010111156137a7575f5ffd5b9250929050565b8035600381106137bc575f5ffd5b919050565b5f5f5f5f5f5f5f5f60a0898b0312156137d8575f5ffd5b88359750602089013567ffffffffffffffff8111156137f5575f5ffd5b6138018b828c01613766565b909850965050604089013567ffffffffffffffff811115613820575f5ffd5b61382c8b828c01613766565b909650945050606089013567ffffffffffffffff81111561384b575f5ffd5b6138578b828c01613766565b909450925061386a905060808a016137ae565b90509295985092959890939650565b803573ffffffffffffffffffffffffffffffffffffffff811681146137bc575f5ffd5b5f5f5f604084860312156138ae575f5ffd5b6138b784613879565b9250602084013567ffffffffffffffff8111156138d2575f5ffd5b6138de86828701613766565b9497909650939450505050565b5f602082840312156138fb575f5ffd5b613904826137ae565b9392505050565b5f6020828403121561391b575f5ffd5b61390482613879565b602081525f6139046020830184613638565b7f4e487b71000000000000000000000000000000000000000000000000000000005f52604160045260245ffd5b7f4e487b71000000000000000000000000000000000000000000000000000000005f52603260045260245ffd5b602081525f82518060208401528060208501604085015e5f6040828501015260407fffffffffffffffffffffffffffffffffffffffffffffffffffffffffffffffe0601f83011684010191505092915050565b7f4e487b71000000000000000000000000000000000000000000000000000000005f52602160045260245ffd5b602081528160208201525f7f07ffffffffffffffffffffffffffffffffffffffffffffffffffffffffffffff831115613a47575f5ffd5b8260051b80856040850137919091016040019392505050565b5f60208284031215613a70575f5ffd5b5051919050565b7f4e487b71000000000000000000000000000000000000000000000000000000005f52601160045260245ffd5b5f7fffffffffffffffffffffffffffffffffffffffffffffffffffffffffffffffff8203613ad457613ad4613a77565b5060010190565b818103818111156120ca576120ca613a77565b5f82518060208501845e5f920191825250919050565b5f60208284031215613b14575f5ffd5b81357fffffffff0000000000000000000000000000000000000000000000000000000081168114613904575f5ffd5b5f5f83357fffffffffffffffffffffffffffffffffffffffffffffffffffffffffffffffe1843603018112613b76575f5ffd5b83018035915067ffffffffffffffff821115613b90575f5ffd5b6020019150600581901b36038213156137a7575f5ffd5b600181811c90821680613bbb57607f821691505b602082108103613bf2577f4e487b71000000000000000000000000000000000000000000000000000000005f52602260045260245ffd5b5091905056fe506f6c6963792049442063616e6e6f7420626520302e2043726561746520706f6c696379206265666f7265207570646174696e67547261636b6572207265666572656e63656420696e2072756c65206e6f7420736574466f726569676e2043616c6c207265666572656e63656420696e2072756c65206e6f74207365745369676e61747572657320616e64207369676e617475726520696427732061726520696e636f6e73697374656e744f6e6c7920766572696669656420706f6c69637920737562736372696265722063616e206170706c7920636c6f73656420706f6c6963696573a264697066735822122027fc4d331bf9969c25a3560897c3c5077e89584b9bd1416350266fcbba27292864736f6c634300081c0033","linkReferences":{}},"methodIdentifiers":{"applyPolicy(address,uint256[])":"9228303f","cementPolicy(uint256)":"d46a37c4","closePolicy(uint256)":"2b0e4440","createPolicy(uint8)":"9ae6d2f1","deletePolicy(uint256)":"fed27c8f","disablePolicy(uint256)":"30ab6a0a","getAppliedPolicyIds(address)":"e3749023","getPolicy(uint256)":"2b07fce3","isCementedPolicy(uint256)":"f7b570f6","isClosedPolicy(uint256)":"4f10689b","isDisabledPolicy(uint256)":"696ef703","openPolicy(uint256)":"798d6c7b","unapplyPolicy(address,uint256[])":"5239f98c","updatePolicy(uint256,bytes4[],uint256[],uint256[][],uint8)":"2fd205bd"},"id":86}