{"abi":[{"type":"function","name":"addClosedPolicySubscriber","inputs":[{"name":"policyId","type":"uint256","internalType":"uint256"},{"name":"subscriber","type":"address","internalType":"address"}],"outputs":[],"stateMutability":"nonpayable"},{"type":"function","name":"createCallingFunction","inputs":[{"name":"policyId","type":"uint256","internalType":"uint256"},{"name":"functionSignature","type":"bytes4","internalType":"bytes4"},{"name":"pTypes","type":"uint8[]","internalType":"enum ParamTypes[]"},{"name":"callingFunctionName","type":"string","internalType":"string"},{"name":"encodedValues","type":"string","internalType":"string"}],"outputs":[{"name":"","type":"uint256","internalType":"uint256"}],"stateMutability":"nonpayable"},{"type":"function","name":"createForeignCall","inputs":[{"name":"_policyId","type":"uint256","internalType":"uint256"},{"name":"_foreignCall","type":"tuple","internalType":"struct ForeignCall","components":[{"name":"set","type":"bool","internalType":"bool"},{"name":"foreignCallAddress","type":"address","internalType":"address"},{"name":"signature","type":"bytes4","internalType":"bytes4"},{"name":"returnType","type":"uint8","internalType":"enum ParamTypes"},{"name":"foreignCallIndex","type":"uint256","internalType":"uint256"},{"name":"parameterTypes","type":"uint8[]","internalType":"enum ParamTypes[]"},{"name":"encodedIndices","type":"tuple[]","internalType":"struct ForeignCallEncodedIndex[]","components":[{"name":"eType","type":"uint8","internalType":"enum EncodedIndexType"},{"name":"index","type":"uint256","internalType":"uint256"}]}]},{"name":"foreignCallName","type":"string","internalType":"string"}],"outputs":[{"name":"","type":"uint256","internalType":"uint256"}],"stateMutability":"nonpayable"},{"type":"function","name":"createTracker","inputs":[{"name":"policyId","type":"uint256","internalType":"uint256"},{"name":"tracker","type":"tuple","internalType":"struct Trackers","components":[{"name":"set","type":"bool","internalType":"bool"},{"name":"pType","type":"uint8","internalType":"enum ParamTypes"},{"name":"mapped","type":"bool","internalType":"bool"},{"name":"trackerKeyType","type":"uint8","internalType":"enum ParamTypes"},{"name":"trackerValue","type":"bytes","internalType":"bytes"},{"name":"trackerIndex","type":"uint256","internalType":"uint256"}]},{"name":"trackerName","type":"string","internalType":"string"},{"name":"trackerKeys","type":"bytes[]","internalType":"bytes[]"},{"name":"trackerValues","type":"bytes[]","internalType":"bytes[]"}],"outputs":[{"name":"","type":"uint256","internalType":"uint256"}],"stateMutability":"nonpayable"},{"type":"function","name":"createTracker","inputs":[{"name":"policyId","type":"uint256","internalType":"uint256"},{"name":"tracker","type":"tuple","internalType":"struct Trackers","components":[{"name":"set","type":"bool","internalType":"bool"},{"name":"pType","type":"uint8","internalType":"enum ParamTypes"},{"name":"mapped","type":"bool","internalType":"bool"},{"name":"trackerKeyType","type":"uint8","internalType":"enum ParamTypes"},{"name":"trackerValue","type":"bytes","internalType":"bytes"},{"name":"trackerIndex","type":"uint256","internalType":"uint256"}]},{"name":"trackerName","type":"string","internalType":"string"}],"outputs":[{"name":"","type":"uint256","internalType":"uint256"}],"stateMutability":"nonpayable"},{"type":"function","name":"deleteCallingFunction","inputs":[{"name":"policyId","type":"uint256","internalType":"uint256"},{"name":"callingFunctionId","type":"uint256","internalType":"uint256"}],"outputs":[],"stateMutability":"nonpayable"},{"type":"function","name":"deleteForeignCall","inputs":[{"name":"policyId","type":"uint256","internalType":"uint256"},{"name":"foreignCallId","type":"uint256","internalType":"uint256"}],"outputs":[],"stateMutability":"nonpayable"},{"type":"function","name":"deleteTracker","inputs":[{"name":"policyId","type":"uint256","internalType":"uint256"},{"name":"trackerIndex","type":"uint256","internalType":"uint256"}],"outputs":[],"stateMutability":"nonpayable"},{"type":"function","name":"getAllCallingFunctions","inputs":[{"name":"policyId","type":"uint256","internalType":"uint256"}],"outputs":[{"name":"","type":"tuple[]","internalType":"struct CallingFunctionStorageSet[]","components":[{"name":"set","type":"bool","internalType":"bool"},{"name":"signature","type":"bytes4","internalType":"bytes4"},{"name":"parameterTypes","type":"uint8[]","internalType":"enum ParamTypes[]"}]}],"stateMutability":"view"},{"type":"function","name":"getAllForeignCalls","inputs":[{"name":"policyId","type":"uint256","internalType":"uint256"}],"outputs":[{"name":"fc","type":"tuple[]","internalType":"struct ForeignCall[]","components":[{"name":"set","type":"bool","internalType":"bool"},{"name":"foreignCallAddress","type":"address","internalType":"address"},{"name":"signature","type":"bytes4","internalType":"bytes4"},{"name":"returnType","type":"uint8","internalType":"enum ParamTypes"},{"name":"foreignCallIndex","type":"uint256","internalType":"uint256"},{"name":"parameterTypes","type":"uint8[]","internalType":"enum ParamTypes[]"},{"name":"encodedIndices","type":"tuple[]","internalType":"struct ForeignCallEncodedIndex[]","components":[{"name":"eType","type":"uint8","internalType":"enum EncodedIndexType"},{"name":"index","type":"uint256","internalType":"uint256"}]}]}],"stateMutability":"view"},{"type":"function","name":"getAllTrackers","inputs":[{"name":"policyId","type":"uint256","internalType":"uint256"}],"outputs":[{"name":"","type":"tuple[]","internalType":"struct Trackers[]","components":[{"name":"set","type":"bool","internalType":"bool"},{"name":"pType","type":"uint8","internalType":"enum ParamTypes"},{"name":"mapped","type":"bool","internalType":"bool"},{"name":"trackerKeyType","type":"uint8","internalType":"enum ParamTypes"},{"name":"trackerValue","type":"bytes","internalType":"bytes"},{"name":"trackerIndex","type":"uint256","internalType":"uint256"}]}],"stateMutability":"view"},{"type":"function","name":"getCallingFunction","inputs":[{"name":"policyId","type":"uint256","internalType":"uint256"},{"name":"callingFunctionId","type":"uint256","internalType":"uint256"}],"outputs":[{"name":"","type":"tuple","internalType":"struct CallingFunctionStorageSet","components":[{"name":"set","type":"bool","internalType":"bool"},{"name":"signature","type":"bytes4","internalType":"bytes4"},{"name":"parameterTypes","type":"uint8[]","internalType":"enum ParamTypes[]"}]}],"stateMutability":"view"},{"type":"function","name":"getCallingFunctionMetadata","inputs":[{"name":"policyId","type":"uint256","internalType":"uint256"},{"name":"callingFunctionId","type":"uint256","internalType":"uint256"}],"outputs":[{"name":"","type":"tuple","internalType":"struct CallingFunctionHashMapping","components":[{"name":"callingFunction","type":"string","internalType":"string"},{"name":"signature","type":"bytes4","internalType":"bytes4"},{"name":"encodedValues","type":"string","internalType":"string"}]}],"stateMutability":"view"},{"type":"function","name":"getForeignCall","inputs":[{"name":"policyId","type":"uint256","internalType":"uint256"},{"name":"foreignCallId","type":"uint256","internalType":"uint256"}],"outputs":[{"name":"fc","type":"tuple","internalType":"struct ForeignCall","components":[{"name":"set","type":"bool","internalType":"bool"},{"name":"foreignCallAddress","type":"address","internalType":"address"},{"name":"signature","type":"bytes4","internalType":"bytes4"},{"name":"returnType","type":"uint8","internalType":"enum ParamTypes"},{"name":"foreignCallIndex","type":"uint256","internalType":"uint256"},{"name":"parameterTypes","type":"uint8[]","internalType":"enum ParamTypes[]"},{"name":"encodedIndices","type":"tuple[]","internalType":"struct ForeignCallEncodedIndex[]","components":[{"name":"eType","type":"uint8","internalType":"enum EncodedIndexType"},{"name":"index","type":"uint256","internalType":"uint256"}]}]}],"stateMutability":"view"},{"type":"function","name":"getForeignCallMetadata","inputs":[{"name":"policyId","type":"uint256","internalType":"uint256"},{"name":"foreignCallId","type":"uint256","internalType":"uint256"}],"outputs":[{"name":"fcMeta","type":"string","internalType":"string"}],"stateMutability":"view"},{"type":"function","name":"getMappedTrackerValue","inputs":[{"name":"policyId","type":"uint256","internalType":"uint256"},{"name":"index","type":"uint256","internalType":"uint256"},{"name":"trackerKey","type":"bytes","internalType":"bytes"}],"outputs":[{"name":"","type":"bytes","internalType":"bytes"}],"stateMutability":"view"},{"type":"function","name":"getTracker","inputs":[{"name":"policyId","type":"uint256","internalType":"uint256"},{"name":"index","type":"uint256","internalType":"uint256"}],"outputs":[{"name":"tracker","type":"tuple","internalType":"struct Trackers","components":[{"name":"set","type":"bool","internalType":"bool"},{"name":"pType","type":"uint8","internalType":"enum ParamTypes"},{"name":"mapped","type":"bool","internalType":"bool"},{"name":"trackerKeyType","type":"uint8","internalType":"enum ParamTypes"},{"name":"trackerValue","type":"bytes","internalType":"bytes"},{"name":"trackerIndex","type":"uint256","internalType":"uint256"}]}],"stateMutability":"view"},{"type":"function","name":"getTrackerMetadata","inputs":[{"name":"policyId","type":"uint256","internalType":"uint256"},{"name":"trackerId","type":"uint256","internalType":"uint256"}],"outputs":[{"name":"trMeta","type":"string","internalType":"string"}],"stateMutability":"view"},{"type":"function","name":"isClosedPolicySubscriber","inputs":[{"name":"policyId","type":"uint256","internalType":"uint256"},{"name":"subscriber","type":"address","internalType":"address"}],"outputs":[{"name":"","type":"bool","internalType":"bool"}],"stateMutability":"view"},{"type":"function","name":"removeClosedPolicySubscriber","inputs":[{"name":"policyId","type":"uint256","internalType":"uint256"},{"name":"subscriber","type":"address","internalType":"address"}],"outputs":[],"stateMutability":"nonpayable"},{"type":"function","name":"updateCallingFunction","inputs":[{"name":"policyId","type":"uint256","internalType":"uint256"},{"name":"callingFunctionID","type":"uint256","internalType":"uint256"},{"name":"functionSignature","type":"bytes4","internalType":"bytes4"},{"name":"pTypes","type":"uint8[]","internalType":"enum ParamTypes[]"}],"outputs":[{"name":"","type":"uint256","internalType":"uint256"}],"stateMutability":"nonpayable"},{"type":"function","name":"updateForeignCall","inputs":[{"name":"policyId","type":"uint256","internalType":"uint256"},{"name":"foreignCallId","type":"uint256","internalType":"uint256"},{"name":"foreignCall","type":"tuple","internalType":"struct ForeignCall","components":[{"name":"set","type":"bool","internalType":"bool"},{"name":"foreignCallAddress","type":"address","internalType":"address"},{"name":"signature","type":"bytes4","internalType":"bytes4"},{"name":"returnType","type":"uint8","internalType":"enum ParamTypes"},{"name":"foreignCallIndex","type":"uint256","internalType":"uint256"},{"name":"parameterTypes","type":"uint8[]","internalType":"enum ParamTypes[]"},{"name":"encodedIndices","type":"tuple[]","internalType":"struct ForeignCallEncodedIndex[]","components":[{"name":"eType","type":"uint8","internalType":"enum EncodedIndexType"},{"name":"index","type":"uint256","internalType":"uint256"}]}]}],"outputs":[{"name":"fc","type":"tuple","internalType":"struct ForeignCall","components":[{"name":"set","type":"bool","internalType":"bool"},{"name":"foreignCallAddress","type":"address","internalType":"address"},{"name":"signature","type":"bytes4","internalType":"bytes4"},{"name":"returnType","type":"uint8","internalType":"enum ParamTypes"},{"name":"foreignCallIndex","type":"uint256","internalType":"uint256"},{"name":"parameterTypes","type":"uint8[]","internalType":"enum ParamTypes[]"},{"name":"encodedIndices","type":"tuple[]","internalType":"struct ForeignCallEncodedIndex[]","components":[{"name":"eType","type":"uint8","internalType":"enum EncodedIndexType"},{"name":"index","type":"uint256","internalType":"uint256"}]}]}],"stateMutability":"nonpayable"},{"type":"function","name":"updateTracker","inputs":[{"name":"_policyId","type":"uint256","internalType":"uint256"},{"name":"_trackerIndex","type":"uint256","internalType":"uint256"},{"name":"_tracker","type":"tuple","internalType":"struct Trackers","components":[{"name":"set","type":"bool","internalType":"bool"},{"name":"pType","type":"uint8","internalType":"enum ParamTypes"},{"name":"mapped","type":"bool","internalType":"bool"},{"name":"trackerKeyType","type":"uint8","internalType":"enum ParamTypes"},{"name":"trackerValue","type":"bytes","internalType":"bytes"},{"name":"trackerIndex","type":"uint256","internalType":"uint256"}]},{"name":"_trackerKey","type":"bytes","internalType":"bytes"},{"name":"_trackerValue","type":"bytes","internalType":"bytes"}],"outputs":[],"stateMutability":"nonpayable"},{"type":"function","name":"updateTracker","inputs":[{"name":"policyId","type":"uint256","internalType":"uint256"},{"name":"trackerIndex","type":"uint256","internalType":"uint256"},{"name":"tracker","type":"tuple","internalType":"struct Trackers","components":[{"name":"set","type":"bool","internalType":"bool"},{"name":"pType","type":"uint8","internalType":"enum ParamTypes"},{"name":"mapped","type":"bool","internalType":"bool"},{"name":"trackerKeyType","type":"uint8","internalType":"enum ParamTypes"},{"name":"trackerValue","type":"bytes","internalType":"bytes"},{"name":"trackerIndex","type":"uint256","internalType":"uint256"}]}],"outputs":[],"stateMutability":"nonpayable"},{"type":"event","name":"AssociatedRuleDeleted","inputs":[{"name":"policyId","type":"uint256","indexed":true,"internalType":"uint256"},{"name":"foreignCallId","type":"uint256","indexed":true,"internalType":"uint256"}],"anonymous":false},{"type":"event","name":"CallingFunctionCreated","inputs":[{"name":"policyId","type":"uint256","indexed":true,"internalType":"uint256"},{"name":"callingFunctionId","type":"uint256","indexed":true,"internalType":"uint256"}],"anonymous":false},{"type":"event","name":"CallingFunctionDeleted","inputs":[{"name":"policyId","type":"uint256","indexed":true,"internalType":"uint256"},{"name":"callingFunctionId","type":"uint256","indexed":true,"internalType":"uint256"}],"anonymous":false},{"type":"event","name":"CallingFunctionUpdated","inputs":[{"name":"policyId","type":"uint256","indexed":true,"internalType":"uint256"},{"name":"callingFunctionId","type":"uint256","indexed":true,"internalType":"uint256"}],"anonymous":false},{"type":"event","name":"ForeignCallCreated","inputs":[{"name":"policyId","type":"uint256","indexed":true,"internalType":"uint256"},{"name":"foreignCallId","type":"uint256","indexed":true,"internalType":"uint256"}],"anonymous":false},{"type":"event","name":"ForeignCallDeleted","inputs":[{"name":"policyId","type":"uint256","indexed":true,"internalType":"uint256"},{"name":"foreignCallId","type":"uint256","indexed":true,"internalType":"uint256"}],"anonymous":false},{"type":"event","name":"ForeignCallUpdated","inputs":[{"name":"policyId","type":"uint256","indexed":true,"internalType":"uint256"},{"name":"foreignCallId","type":"uint256","indexed":true,"internalType":"uint256"}],"anonymous":false},{"type":"event","name":"PolicySubsciberAdded","inputs":[{"name":"policyId","type":"uint256","indexed":true,"internalType":"uint256"},{"name":"subscriber","type":"address","indexed":true,"internalType":"address"}],"anonymous":false},{"type":"event","name":"PolicySubsciberRemoved","inputs":[{"name":"policyId","type":"uint256","indexed":true,"internalType":"uint256"},{"name":"subscriber","type":"address","indexed":true,"internalType":"address"}],"anonymous":false},{"type":"event","name":"TrackerCreated","inputs":[{"name":"policyId","type":"uint256","indexed":true,"internalType":"uint256"},{"name":"trackerId","type":"uint256","indexed":true,"internalType":"uint256"}],"anonymous":false},{"type":"event","name":"TrackerDeleted","inputs":[{"name":"policyId","type":"uint256","indexed":true,"internalType":"uint256"},{"name":"trackerId","type":"uint256","indexed":true,"internalType":"uint256"}],"anonymous":false},{"type":"event","name":"TrackerUpdated","inputs":[{"name":"policyId","type":"uint256","indexed":true,"internalType":"uint256"},{"name":"trackerId","type":"uint256","indexed":true,"internalType":"uint256"}],"anonymous":false}],"bytecode":{"object":"0x6080604052348015600e575f5ffd5b50614c3d8061001c5f395ff3fe608060405234801561000f575f5ffd5b506004361061018f575f3560e01c80639f9fa719116100dd578063da7d5d2811610088578063f479c99411610063578063f479c994146103af578063f69187ee146103c2578063febf8f92146103d5575f5ffd5b8063da7d5d281461035c578063eeeb60471461036f578063f3e7dfc31461038f575f5ffd5b8063b0955878116100b8578063b095587814610316578063bfc8523614610329578063d82260c814610349575f5ffd5b80639f9fa719146102d0578063a3937e99146102e3578063a82c9e0714610303575f5ffd5b80634c957ad91161013d57806372a340d71161011857806372a340d71461028a57806372cb754c146102aa5780637374c994146102bd575f5ffd5b80634c957ad91461023457806356f39ae31461025757806356f3b05f1461026a575f5ffd5b806336f89f791161016d57806336f89f79146101ee5780633bf07314146102015780633fafdf6e14610221575f5ffd5b80630b5f5723146101935780631af4a8f9146101b95780632711fe6b146101d9575b5f5ffd5b6101a66101a136600461347d565b6103e8565b6040519081526020015b60405180910390f35b6101cc6101c736600461355f565b6105d5565b6040516101b09190613726565b6101ec6101e7366004613770565b6106fb565b005b6101a66101fc36600461379e565b61082a565b61021461020f36600461380e565b610927565b6040516101b0919061387a565b6101ec61022f36600461380e565b6109d6565b610247610242366004613770565b610d10565b60405190151581526020016101b0565b6101a6610265366004613a5c565b610d56565b61027d610278366004613abb565b6110df565b6040516101b09190613b38565b61029d61029836600461380e565b61134b565b6040516101b09190613bb9565b6101a66102b8366004613bcb565b6114d2565b6101ec6102cb366004613770565b611547565b6102146102de366004613c07565b61166e565b6102f66102f1366004613abb565b611748565b6040516101b09190613c3e565b6101ec61031136600461380e565b611a86565b6101a6610324366004613d43565b611b29565b61033c61033736600461380e565b611b98565b6040516101b09190613e41565b6101ec61035736600461380e565b611c9c565b6101cc61036a36600461380e565b611d4a565b61038261037d36600461380e565b611fa7565b6040516101b09190613e53565b6103a261039d366004613abb565b61213b565b6040516101b09190613ed5565b6101ec6103bd366004613f4a565b612307565b6102146103d036600461380e565b61236a565b6101ec6103e3366004613ff6565b612374565b5f6103f389336123cf565b6103fc8961252d565b610405886125bc565b831580610410575081155b156104a2576040517f08c379a000000000000000000000000000000000000000000000000000000000815260206004820152602760248201527f547261636b6572206b65797320616e642076616c7565732063616e6e6f74206260448201527f6520656d7074790000000000000000000000000000000000000000000000000060648201526084015b60405180910390fd5b838214610531576040517f08c379a000000000000000000000000000000000000000000000000000000000815260206004820152603160248201527f547261636b6572206b65797320616e642076616c756573206d7573742068617660448201527f65207468652073616d65206c656e6774680000000000000000000000000000006064820152608401610499565b5f61053a61283b565b5f8b8152602091909152604090205490506105548a612868565b90505f5b858110156105bb576105b38b838c8a8a8681811061057857610578614038565b905060200281019061058a9190614065565b8a8a8881811061059c5761059c614038565b90506020028101906105ae9190614065565b61289a565b600101610558565b506105c88a828a8a6128be565b9998505050505050505050565b6106136040805160e0810182525f8082526020820181905291810182905290606082019081526020015f815260200160608152602001606081525090565b61061d84336123cf565b6106268461252d565b61062f82614173565b602081015190915073ffffffffffffffffffffffffffffffffffffffff166106b657604080518082018252601c81527f5a65726f20416464726573732043616e6e6f742042652041646d696e00000000602082015290517f08c379a0000000000000000000000000000000000000000000000000000000008152610499919060040161387a565b608081018390526106c884838561291c565b604051839085907f82132283659aa079ae6d599fbbe109c1bfb961fc5bbbb0a98a343b4ea6dc3e00905f90a39392505050565b61070582336123cf565b61070e8261252d565b73ffffffffffffffffffffffffffffffffffffffff811661078e57604080518082018252601c81527f5a65726f20416464726573732043616e6e6f742042652041646d696e00000000602082015290517f08c379a0000000000000000000000000000000000000000000000000000000008152610499919060040161387a565b6001610798612945565b5f8481526001919091016020908152604080832073ffffffffffffffffffffffffffffffffffffffff8616808552600590910190925280832080547fffffffffffffffffffffffffffffffffffffffffffffffffffffffffffffff001694151594909417909355915184917f790a3138425334d31f4463869c596f58d51e891ecb665b5090fa0ae9ed8b6fd291a35050565b5f61083585336123cf565b61083e8561252d565b5f61084f604086016020870161422f565b73ffffffffffffffffffffffffffffffffffffffff16036108cf57604080518082018252601c81527f5a65726f20416464726573732043616e6e6f742042652041646d696e00000000602082015290517f08c379a0000000000000000000000000000000000000000000000000000000008152610499919060040161387a565b5f6108d986612972565b90506108e686868361291c565b6108f28682868661297c565b604051819087907f9006068daf408b7e36a22c789f04c4ba9c6c638a6cf8438c2250583384f2192f905f90a395945050505050565b60606109316129a7565b5f848152602091825260408082208583529092522080546109519061424a565b80601f016020809104026020016040519081016040528092919081815260200182805461097d9061424a565b80156109c85780601f1061099f576101008083540402835291602001916109c8565b820191905f5260205f20905b8154815290600101906020018083116109ab57829003601f168201915b505050505090505b92915050565b6109e082336123cf565b6109e98261252d565b5f6109f2612945565b5f848152600191909101602052604081209150610a0d6129d4565b5f85815260019190910160209081526040808320868452909152902054610100900460e01b9050610a3c6129d4565b5f858152600191820160209081526040808320878452909152812080547fffffffffffffffffffffffffffffffffffffffffffffffffffffff000000000016815591610a8a9083018261310d565b50610a9a9050600383015f61312f565b7fffffffff0000000000000000000000000000000000000000000000000000000081165f90815260018301602052604081208190555b7fffffffff0000000000000000000000000000000000000000000000000000000082165f908152600284016020526040902054811015610bf957610b12612a01565b5f868152600191820160209081526040808320858452909152812080547fffffffffffffffffffffffffffffffffffffffffffffffffffffffffffffff0016815591820181610b618282613151565b600182015f610b708282613151565b610b7d600183015f61310d565b610b8a600283015f61316c565b50610b9a9050600483015f613187565b610ba7600583015f613187565b610bb4600683015f6131a5565b610bc1600783015f6131a5565b50506040518692508791507fc2ebaca961b98bedef10bce18fc3c8bdcba15a62d52feb7f59578c9998e1d42a905f90a3600101610ad0565b507fffffffff0000000000000000000000000000000000000000000000000000000081165f9081526002830160205260408120610c3591613151565b5f610c3f8561213b565b90505f5b8151811015610cdc57818181518110610c5e57610c5e614038565b60200260200101515f015115610cd45783600101600201828281518110610c8757610c87614038565b60209081029190910181015181015182546001810184555f938452919092206008820401805463ffffffff60079093166004026101000a928302191660e09390931c919091029190911790555b600101610c43565b50604051849086907f5b5ef7f155302df6e9d2c1a0610671ea5b89849a316a1f75018ab14fdd5a8bb6905f90a35050505050565b5f610d19612945565b5f9384526001016020908152604080852073ffffffffffffffffffffffffffffffffffffffff949094168552600590930190525090205460ff1690565b5f610d6185336123cf565b610d6a8561252d565b5f610d736129d4565b5f878152600182016020908152604080832089845290915290208054919250907fffffffff0000000000000000000000000000000000000000000000000000000086811661010090920460e01b1614610e4e576040517f08c379a000000000000000000000000000000000000000000000000000000000815260206004820152603460248201527f44656c6574652063616c6c696e672066756e6374696f6e206265666f7265207560448201527f70646174696e6720746f2061206e6577206f6e650000000000000000000000006064820152608401610499565b835160018201541115610f09576040517f08c379a000000000000000000000000000000000000000000000000000000000815260206004820152604660248201527f4e657720706172616d65746572207479706573206d757374206265206f66206760448201527f726561746572206f7220657175616c206c656e67746820746f20746865206f7260648201527f6967696e616c0000000000000000000000000000000000000000000000000000608482015260a401610499565b5f5b600182015481101561101b57816001018181548110610f2c57610f2c614038565b905f5260205f2090602091828204019190069054906101000a900460ff166007811115610f5b57610f5b6135ab565b858281518110610f6d57610f6d614038565b60200260200101516007811115610f8657610f866135ab565b14611013576040517f08c379a000000000000000000000000000000000000000000000000000000000815260206004820152603c60248201527f4e657720706172616d65746572207479706573206d757374206265206f66207460448201527f68652073616d65207479706520617320746865206f726967696e616c000000006064820152608401610499565b600101610f0b565b508351600182015410156110a85760018101545b84518110156110a6578160010185828151811061104e5761104e614038565b60209081029190910181015182546001810184555f9384529282902091830490910180549192909160ff601f9092166101000a918202191690836007811115611099576110996135ab565b021790555060010161102f565b505b604051869088907f2b77470866bba4d7ed745d96afff93047d8aad605c3a97a181658f934bda526f905f90a3509395945050505050565b60605f6110ea61283b565b5f848152602082905260408120549192508167ffffffffffffffff811115611114576111146138c4565b60405190808252806020026020018201604052801561119057816020015b6040805160c0810182525f80825260208083018290529282018190526060808301829052608083015260a082015282527fffffffffffffffffffffffffffffffffffffffffffffffffffffffffffffffff9092019101816111325790505b5090505f60015b838111611340575f878152600186016020908152604080832084845290915290205460ff161561132e575f8781526001860160209081526040808320848452825291829020825160c08101909352805460ff80821615158552919284019161010090910416600781111561120d5761120d6135ab565b600781111561121e5761121e6135ab565b8152815460ff6201000082048116151560208401526040909201916301000000909104166007811115611253576112536135ab565b6007811115611264576112646135ab565b81526020016001820180546112789061424a565b80601f01602080910402602001604051908101604052809291908181526020018280546112a49061424a565b80156112ef5780601f106112c6576101008083540402835291602001916112ef565b820191905f5260205f20905b8154815290600101906020018083116112d257829003601f168201915b5050505050815260200160028201548152505083838151811061131457611314614038565b6020026020010181905250818061132a906142c2565b9250505b80611338816142c2565b915050611197565b509095945050505050565b6040805160c0810182525f808252602082018190529181018290526060808201839052608082015260a081018290529061138361283b565b5f8581526001820160209081526040808320878452825291829020825160c08101909352805460ff80821615158552949550929390929184019161010090041660078111156113d4576113d46135ab565b60078111156113e5576113e56135ab565b8152815460ff620100008204811615156020840152604090920191630100000090910416600781111561141a5761141a6135ab565b600781111561142b5761142b6135ab565b815260200160018201805461143f9061424a565b80601f016020809104026020016040519081016040528092919081815260200182805461146b9061424a565b80156114b65780601f1061148d576101008083540402835291602001916114b6565b820191905f5260205f20905b81548152906001019060200180831161149957829003601f168201915b5050505050815260200160028201548152505091505092915050565b5f6114dd85336123cf565b6114e68561252d565b6114ef846125bc565b5f6114f986612868565b9050611506868287612a2e565b611512868286866128be565b604051819087907f1ea0bdfd9680c9b8e4038e41083d7800dca81e6f55a15ce48d858ebb70693d2a905f90a395945050505050565b61155182336123cf565b61155a8261252d565b73ffffffffffffffffffffffffffffffffffffffff81166115da57604080518082018252601c81527f5a65726f20416464726573732043616e6e6f742042652041646d696e00000000602082015290517f08c379a0000000000000000000000000000000000000000000000000000000008152610499919060040161387a565b6115e2612945565b5f8381526001919091016020908152604080832073ffffffffffffffffffffffffffffffffffffffff8516808552600590910190925280832080547fffffffffffffffffffffffffffffffffffffffffffffffffffffffffffffff0016905551909184917febc594f3b2a99e6227cfcc8bd404d054b6cc3dad7f287e1944cb88681a05c14c9190a35050565b60605f61167961283b565b5f8781526002820160209081526040808320898452909152908190209051919250906116a890869086906142f9565b908152602001604051809103902080546116c19061424a565b80601f01602080910402602001604051908101604052809291908181526020018280546116ed9061424a565b80156117385780601f1061170f57610100808354040283529160200191611738565b820191905f5260205f20905b81548152906001019060200180831161171b57829003601f168201915b5050505050915050949350505050565b60605f611753612a4e565b5f848152602091909152604081205491508167ffffffffffffffff81111561177d5761177d6138c4565b6040519080825280602002602001820160405280156117ec57816020015b6117d96040805160e0810182525f8082526020820181905291810182905290606082019081526020015f815260200160608152602001606081525090565b81526020019060019003908161179b5790505b5090505f805b838111611a7c57611801612a4e565b5f8781526001919091016020908152604080832084845290915290205460ff1615611a6a5761182e612a4e565b5f87815260019190910160209081526040808320848452825291829020825160e08082018552825460ff80821615158452610100820473ffffffffffffffffffffffffffffffffffffffff16958401959095527501000000000000000000000000000000000000000000810490911b7fffffffff000000000000000000000000000000000000000000000000000000001694820194909452929091606084019179010000000000000000000000000000000000000000000000000090041660078111156118fd576118fd6135ab565b600781111561190e5761190e6135ab565b8152602001600182015481526020016002820180548060200260200160405190810160405280929190818152602001828054801561199857602002820191905f5260205f20905f905b82829054906101000a900460ff166007811115611976576119766135ab565b8152602060019283018181049485019490930390920291018084116119575790505b5050505050815260200160038201805480602002602001604051908101604052809291908181526020015f905b82821015611a36578382905f5260205f2090600202016040518060400160405290815f82015f9054906101000a900460ff166002811115611a0857611a086135ab565b6002811115611a1957611a196135ab565b8152602001600182015481525050815260200190600101906119c5565b5050505081525050838381518110611a5057611a50614038565b60200260200101819052508180611a66906142c2565b9250505b80611a74816142c2565b9150506117f2565b5090949350505050565b611a9082336123cf565b611a998261252d565b611aa161283b565b5f838152600191820160209081526040808320858452909152812080547fffffffffffffffffffffffffffffffffffffffffffffffffffffffff0000000016815591611aef908301826131c3565b600282015f9055505080827ed9d817df2d853a886f2cbe7a671a676890264711abbb9d2c3ee79fb1bb653a60405160405180910390a35050565b5f611b3486336123cf565b611b3d8661252d565b5f611b4787612a7b565b9050611b5587828888612a85565b611b628782888787612af7565b604051819088907f24103d2c348f3e3042849986bfdaee686941377c8a32bbe5b6cc13ad09c8af83905f90a39695505050505050565b60408051606080820183525f808352602083015291810191909152611bbb6129d4565b5f8481526001918201602090815260408083208684528252918290208251606081018452815460ff811615158252610100900460e01b7fffffffff000000000000000000000000000000000000000000000000000000001681840152938101805484518185028101850186528181529294860193830182828015611c8b57602002820191905f5260205f20905f905b82829054906101000a900460ff166007811115611c6957611c696135ab565b815260206001928301818104948501949093039092029101808411611c4a5790505b505050505081525050905092915050565b611ca682336123cf565b611caf8261252d565b611cb7612a4e565b5f838152600191820160209081526040808320858452909152812080547fffffffffffff0000000000000000000000000000000000000000000000000000168155918201819055611d0b600283018261310d565b611d18600383015f6131fa565b5050604051819083907f19d0bd0cc4d63f9108c93b0abfd7408498ecbc73713f6bb3a2862d9b9d1983d8905f90a35050565b611d886040805160e0810182525f8082526020820181905291810182905290606082019081526020015f815260200160608152602001606081525090565b611d90612a4e565b5f84815260019190910160209081526040808320858452825291829020825160e08082018552825460ff80821615158452610100820473ffffffffffffffffffffffffffffffffffffffff16958401959095527501000000000000000000000000000000000000000000810490911b7fffffffff00000000000000000000000000000000000000000000000000000000169482019490945292909160608401917901000000000000000000000000000000000000000000000000009004166007811115611e5f57611e5f6135ab565b6007811115611e7057611e706135ab565b81526020016001820154815260200160028201805480602002602001604051908101604052809291908181526020018280548015611efa57602002820191905f5260205f20905f905b82829054906101000a900460ff166007811115611ed857611ed86135ab565b815260206001928301818104948501949093039092029101808411611eb95790505b5050505050815260200160038201805480602002602001604051908101604052809291908181526020015f905b82821015611f98578382905f5260205f2090600202016040518060400160405290815f82015f9054906101000a900460ff166002811115611f6a57611f6a6135ab565b6002811115611f7b57611f7b6135ab565b815260200160018201548152505081526020019060010190611f27565b50505091525090949350505050565b60408051606080820183528082525f602083015291810191909152611fca612b80565b5f84815260209182526040808220858352909252819020815160608101909252805482908290611ff99061424a565b80601f01602080910402602001604051908101604052809291908181526020018280546120259061424a565b80156120705780601f1061204757610100808354040283529160200191612070565b820191905f5260205f20905b81548152906001019060200180831161205357829003601f168201915b5050509183525050600182015460e01b7fffffffff000000000000000000000000000000000000000000000000000000001660208201526002820180546040909201916120bc9061424a565b80601f01602080910402602001604051908101604052809291908181526020018280546120e89061424a565b8015611c8b5780601f1061210a57610100808354040283529160200191611c8b565b820191905f5260205f20905b8154815290600101906020018083116121165750505091909252509195945050505050565b60605f6121466129d4565b5f848152602082905260408120549192508167ffffffffffffffff811115612170576121706138c4565b6040519080825280602002602001820160405280156121bc57816020015b60408051606080820183525f80835260208301529181019190915281526020019060019003908161218e5790505b5090505f60015b838111611340575f878152600186016020908152604080832084845290915290205460ff16156122f5575f8781526001868101602090815260408084208585528252928390208351606081018552815460ff811615158252610100900460e01b7fffffffff0000000000000000000000000000000000000000000000000000000016818401529281018054855181850281018501875281815294959294928601938301828280156122c057602002820191905f5260205f20905f905b82829054906101000a900460ff16600781111561229e5761229e6135ab565b81526020600192830181810494850194909303909202910180841161227f5790505b5050505050815250508383815181106122db576122db614038565b602002602001018190525081806122f1906142c2565b9250505b806122ff816142c2565b9150506121c3565b61231187336123cf565b5f61231a61283b565b905061233481898961232b8a614308565b89898989612bad565b604051879089907f7d0cd6a27b5d0487bca14f5b3852217db2c9951f3ad91646fe09e0c19abcef50905f90a35050505050505050565b6060610931612d87565b61237e83336123cf565b5f61238761283b565b905061239d81858561239886614308565b612db4565b604051839085907f7d0cd6a27b5d0487bca14f5b3852217db2c9951f3ad91646fe09e0c19abcef50905f90a350505050565b6040516024810183905273ffffffffffffffffffffffffffffffffffffffff821660448201525f90819061249d907f901cee110000000000000000000000000000000000000000000000000000000090606401604080517fffffffffffffffffffffffffffffffffffffffffffffffffffffffffffffffe08184030181529190526020810180517bffffffffffffffffffffffffffffffffffffffffffffffffffffffff167f901cee1100000000000000000000000000000000000000000000000000000000179052612f41565b915091505f82156125265760048251106124bc575060208101516124bf565b505f5b80612526576040517f08c379a000000000000000000000000000000000000000000000000000000000815260206004820152601860248201527f4e6f7420417574686f72697a656420546f20506f6c69637900000000000000006044820152606401610499565b5050505050565b612535612945565b5f8281526001919091016020526040902060040154610100900460ff16156125b9576040517f08c379a000000000000000000000000000000000000000000000000000000000815260206004820152601f60248201527f4e6f7420616c6c6f77656420666f722063656d656e74656420706f6c696379006044820152606401610499565b50565b60016125ce60408301602084016143a0565b60078111156125df576125df6135ab565b148061260b575060026125f860408301602084016143a0565b6007811115612609576126096135ab565b145b806126365750600361262360408301602084016143a0565b6007811115612634576126346135ab565b145b806126615750600561264e60408301602084016143a0565b600781111561265f5761265f6135ab565b145b8061268b57505f61267860408301602084016143a0565b6007811115612689576126896135ab565b145b6126f1576040517f08c379a000000000000000000000000000000000000000000000000000000000815260206004820152601460248201527f496e76616c696420747261636b657220747970650000000000000000000000006044820152606401610499565b61270160608201604083016143bb565b156125b957600161271860808301606084016143a0565b6007811115612729576127296135ab565b14806127555750600261274260808301606084016143a0565b6007811115612753576127536135ab565b145b806127805750600361276d60808301606084016143a0565b600781111561277e5761277e6135ab565b145b806127ab5750600561279860808301606084016143a0565b60078111156127a9576127a96135ab565b145b806127d557505f6127c260808301606084016143a0565b60078111156127d3576127d36135ab565b145b6125b9576040517f08c379a000000000000000000000000000000000000000000000000000000000815260206004820152601860248201527f496e76616c696420747261636b6572206b6579207479706500000000000000006044820152606401610499565b5f806109d060017f438102ff677bc3f21830c58117a05d6b953b31e3ea339da3f17957cd3941a6906143d6565b5f5f61287261283b565b5f84815260208290526040812080549293509161288e906142c2565b91829055509392505050565b5f6128a361283b565b90506128b481898961232b8a614308565b5050505050505050565b81816128c86129a7565b5f8781526020918252604080822088835290925220916128e991908361443d565b50604051839085907f1ea0bdfd9680c9b8e4038e41083d7800dca81e6f55a15ce48d858ebb70693d2a905f90a350505050565b5f612925612a4e565b9050612932848484613002565b5f93845260205260409092209190915550565b5f806109d060017ff9dbd639dd2ea165d77dd4c51dec420100d51ceacf023b1c40faa045ba8f9a656143d6565b5f5f612872612a4e565b8181612986612d87565b5f87815260209182526040808220888352909252209161252691908361443d565b5f806109d060017fc6d0732f7ed4c7ec3d1a6580f5e91e95dcc3d159872b5f4e9d9b8e65d3b720f26143d6565b5f806109d060017fdc82e9666de28bef254c770aa394fdb200d98373b70390c27adec32819f8f2666143d6565b5f806109d060017f5c91f63a4ffcbd372b8ec622fd1fcaaa601b66330afdb30e5c292dd9123f20b06143d6565b5f612a3761283b565b9050612a4881858561239886614308565b50505050565b5f806109d060017f1f3305601ed940efccf797d76856e5fe70659a8a6905d64c9f236321df91e7186143d6565b5f5f6128726129d4565b5f612a8e6129d4565b5f868152600182810160209081526040808420898552825290922080547fffffffffffffffffffffffffffffffffffffffffffffffffffffff00000000001661010060e089901c0217821781558551939450612aef93910191850190613218565b505050505050565b5f612b00612b80565b5f878152602082815260408083208984529091529020909150612b238482614553565b505f8681526020828152604080832088845290915290206001810180547fffffffffffffffffffffffffffffffffffffffffffffffffffffffff000000001660e087901c179055600201612b778382614553565b50505050505050565b5f806109d060017fb88f46389dea4b934f6c24412aa4a67e6afeeee9cd7e06827b5b8f09c0e7d7ea6143d6565b6001604080870182905281875260a087018890525f898152918a01602090815281832089845281529120865181549015157fffffffffffffffffffffffffffffffffffffffffffffffffffffffffffffff00821681178355928801518893909183917fffffffffffffffffffffffffffffffffffffffffffffffffffffffffffff00ff167fffffffffffffffffffffffffffffffffffffffffffffffffffffffffffff000090911617610100836007811115612c6b57612c6b6135ab565b02179055506040820151815490151562010000027fffffffffffffffffffffffffffffffffffffffffffffffffffffffffff00ffff82168117835560608401519183917fffffffffffffffffffffffffffffffffffffffffffffffffffffffff00ffffff167fffffffffffffffffffffffffffffffffffffffffffffffffffffffff0000ffff909116176301000000836007811115612d0c57612d0c6135ab565b021790555060808201516001820190612d259082614553565b5060a091909101516002918201555f8881529089016020908152604080832089845290915290819020905183918391612d6190889088906142f9565b90815260200160405180910390209182612d7c92919061443d565b505050505050505050565b5f806109d060017f680281604e63223dcddb1c0e3af179db8bd5c81752348dc75dc7ed88d927353c6143d6565b60018082525f604080840182905260a0840185905285825291860160209081528282208583528152919020825181549015157fffffffffffffffffffffffffffffffffffffffffffffffffffffffffffffff00821681178355928401518493909183917fffffffffffffffffffffffffffffffffffffffffffffffffffffffffffff00ff167fffffffffffffffffffffffffffffffffffffffffffffffffffffffffffff000090911617610100836007811115612e7357612e736135ab565b02179055506040820151815490151562010000027fffffffffffffffffffffffffffffffffffffffffffffffffffffffffff00ffff82168117835560608401519183917fffffffffffffffffffffffffffffffffffffffffffffffffffffffff00ffffff167fffffffffffffffffffffffffffffffffffffffffffffffffffffffff0000ffff909116176301000000836007811115612f1457612f146135ab565b021790555060808201516001820190612f2d9082614553565b5060a0820151816002015590505050505050565b5f60605f612f4d6130e0565b7fffffffff0000000000000000000000000000000000000000000000000000000086165f908152602082905260409081902054905191925073ffffffffffffffffffffffffffffffffffffffff16908190612fa990879061466a565b5f60405180830381855af49150503d805f8114612fe1576040519150601f19603f3d011682016040523d82523d5f602084013e612fe6565b606091505b50909450925083612ff957825160208401fd5b50509250929050565b61300f60c0830183614680565b905061301e60a08401846146e4565b90501461302d5761302d614748565b81613036612a4e565b5f85815260019190910160209081526040808320858452909152902061305c8282614ac4565b9050506001613069612a4e565b5f85815260019190910160209081526040808320858452909152902080547fffffffffffffffffffffffffffffffffffffffffffffffffffffffffffffff0016911515919091179055806130bb612a4e565b5f94855260019081016020908152604080872094875293905291909320019190915550565b5f806109d060017fbe498a3b14fd79a48c3c9af86ff14271ed497d09071013334028d28e7791db206143d6565b5080545f8255601f0160209004905f5260205f20908101906125b991906132c7565b5080545f825560070160089004905f5260205f20908101906125b991906132c7565b5080545f8255905f5260205f20908101906125b991906132c7565b5080545f8255905f5260205f20908101906125b991906132db565b5080545f8255600202905f5260205f20908101906125b991906132f7565b5080545f8255600502905f5260205f20908101906125b9919061333c565b5080546131cf9061424a565b5f825580601f106131de575050565b601f0160209004905f5260205f20908101906125b991906132c7565b5080545f8255600202905f5260205f20908101906125b991906133a4565b828054828255905f5260205f2090601f016020900481019282156132b7579160200282015f5b8382111561328957835183826101000a81548160ff02191690836007811115613269576132696135ab565b021790555092602001926001016020815f0104928301926001030261323e565b80156132b55782816101000a81549060ff02191690556001016020815f01049283019260010302613289565b505b506132c39291506132c7565b5090565b5b808211156132c3575f81556001016132c8565b808211156132c3575f6132ee82826131c3565b506001016132db565b808211156132c35780547fffffffffffffffffffffffffff000000000000000000000000000000000000001681555f61333360018301826131c3565b506002016132f7565b808211156132c35780547fffffffffffffffffffffffffffffffffffffffffffffffffffffffff000000001681555f61337860018301826131c3565b600282015f9055600382015f61338e91906131c3565b61339b600483015f613151565b5060050161333c565b5b808211156132c35780547fffffffffffffffffffffffffffffffffffffffffffffffffffffffffffffff001681555f60018201556002016133a5565b5f60c082840312156133f1575f5ffd5b50919050565b5f5f83601f840112613407575f5ffd5b50813567ffffffffffffffff81111561341e575f5ffd5b602083019150836020828501011115613435575f5ffd5b9250929050565b5f5f83601f84011261344c575f5ffd5b50813567ffffffffffffffff811115613463575f5ffd5b6020830191508360208260051b8501011115613435575f5ffd5b5f5f5f5f5f5f5f5f60a0898b031215613494575f5ffd5b88359750602089013567ffffffffffffffff8111156134b1575f5ffd5b6134bd8b828c016133e1565b975050604089013567ffffffffffffffff8111156134d9575f5ffd5b6134e58b828c016133f7565b909750955050606089013567ffffffffffffffff811115613504575f5ffd5b6135108b828c0161343c565b909550935050608089013567ffffffffffffffff81111561352f575f5ffd5b61353b8b828c0161343c565b999c989b5096995094979396929594505050565b5f60e082840312156133f1575f5ffd5b5f5f5f60608486031215613571575f5ffd5b8335925060208401359150604084013567ffffffffffffffff811115613595575f5ffd5b6135a18682870161354f565b9150509250925092565b7f4e487b71000000000000000000000000000000000000000000000000000000005f52602160045260245ffd5b600881106135e8576135e86135ab565b9052565b5f8151808452602084019350602083015f5b82811015613624576136118683516135d8565b60209586019591909101906001016135fe565b5093949350505050565b5f8151808452602084019350602083015f5b8281101561362457815180516003811061365c5761365c6135ab565b8752602090810151818801526040909601959190910190600101613640565b80511515825273ffffffffffffffffffffffffffffffffffffffff60208201511660208301527fffffffff0000000000000000000000000000000000000000000000000000000060408201511660408301525f60608201516136e060608501826135d8565b506080820151608084015260a082015160e060a085015261370460e08501826135ec565b905060c083015184820360c086015261371d828261362e565b95945050505050565b602081525f613738602083018461367b565b9392505050565b73ffffffffffffffffffffffffffffffffffffffff811681146125b9575f5ffd5b803561376b8161373f565b919050565b5f5f60408385031215613781575f5ffd5b8235915060208301356137938161373f565b809150509250929050565b5f5f5f5f606085870312156137b1575f5ffd5b84359350602085013567ffffffffffffffff8111156137ce575f5ffd5b6137da8782880161354f565b935050604085013567ffffffffffffffff8111156137f6575f5ffd5b613802878288016133f7565b95989497509550505050565b5f5f6040838503121561381f575f5ffd5b50508035926020909101359150565b5f81518084528060208401602086015e5f6020828601015260207fffffffffffffffffffffffffffffffffffffffffffffffffffffffffffffffe0601f83011685010191505092915050565b602081525f613738602083018461382e565b7fffffffff00000000000000000000000000000000000000000000000000000000811681146125b9575f5ffd5b803561376b8161388c565b7f4e487b71000000000000000000000000000000000000000000000000000000005f52604160045260245ffd5b6040805190810167ffffffffffffffff81118282101715613914576139146138c4565b60405290565b60405160e0810167ffffffffffffffff81118282101715613914576139146138c4565b60405160c0810167ffffffffffffffff81118282101715613914576139146138c4565b604051601f82017fffffffffffffffffffffffffffffffffffffffffffffffffffffffffffffffe016810167ffffffffffffffff811182821017156139a7576139a76138c4565b604052919050565b5f67ffffffffffffffff8211156139c8576139c86138c4565b5060051b60200190565b600881106125b9575f5ffd5b803561376b816139d2565b5f82601f8301126139f8575f5ffd5b8135613a0b613a06826139af565b613960565b8082825260208201915060208360051b860101925085831115613a2c575f5ffd5b602085015b83811015613a52578035613a44816139d2565b835260209283019201613a31565b5095945050505050565b5f5f5f5f60808587031215613a6f575f5ffd5b84359350602085013592506040850135613a888161388c565b9150606085013567ffffffffffffffff811115613aa3575f5ffd5b613aaf878288016139e9565b91505092959194509250565b5f60208284031215613acb575f5ffd5b5035919050565b8051151582525f6020820151613aeb60208501826135d8565b506040820151151560408401526060820151613b0a60608501826135d8565b50608082015160c06080850152613b2460c085018261382e565b60a093840151949093019390935250919050565b5f602082016020835280845180835260408501915060408160051b8601019250602086015f5b82811015613bad577fffffffffffffffffffffffffffffffffffffffffffffffffffffffffffffffc0878603018452613b98858351613ad2565b94506020938401939190910190600101613b5e565b50929695505050505050565b602081525f6137386020830184613ad2565b5f5f5f5f60608587031215613bde575f5ffd5b84359350602085013567ffffffffffffffff811115613bfb575f5ffd5b6137da878288016133e1565b5f5f5f5f60608587031215613c1a575f5ffd5b8435935060208501359250604085013567ffffffffffffffff8111156137f6575f5ffd5b5f602082016020835280845180835260408501915060408160051b8601019250602086015f5b82811015613bad577fffffffffffffffffffffffffffffffffffffffffffffffffffffffffffffffc0878603018452613c9e85835161367b565b94506020938401939190910190600101613c64565b5f82601f830112613cc2575f5ffd5b8135602083015f5f67ffffffffffffffff841115613ce257613ce26138c4565b50601f83017fffffffffffffffffffffffffffffffffffffffffffffffffffffffffffffffe016602001613d1581613960565b915050828152858383011115613d29575f5ffd5b828260208301375f92810160200192909252509392505050565b5f5f5f5f5f60a08688031215613d57575f5ffd5b853594506020860135613d698161388c565b9350604086013567ffffffffffffffff811115613d84575f5ffd5b613d90888289016139e9565b935050606086013567ffffffffffffffff811115613dac575f5ffd5b613db888828901613cb3565b925050608086013567ffffffffffffffff811115613dd4575f5ffd5b613de088828901613cb3565b9150509295509295909350565b8051151582527fffffffff0000000000000000000000000000000000000000000000000000000060208201511660208301525f604082015160606040850152613e3960608501826135ec565b949350505050565b602081525f6137386020830184613ded565b602081525f825160606020840152613e6e608084018261382e565b90507fffffffff00000000000000000000000000000000000000000000000000000000602085015116604084015260408401517fffffffffffffffffffffffffffffffffffffffffffffffffffffffffffffffe084830301606085015261371d828261382e565b5f602082016020835280845180835260408501915060408160051b8601019250602086015f5b82811015613bad577fffffffffffffffffffffffffffffffffffffffffffffffffffffffffffffffc0878603018452613f35858351613ded565b94506020938401939190910190600101613efb565b5f5f5f5f5f5f5f60a0888a031215613f60575f5ffd5b8735965060208801359550604088013567ffffffffffffffff811115613f84575f5ffd5b613f908a828b016133e1565b955050606088013567ffffffffffffffff811115613fac575f5ffd5b613fb88a828b016133f7565b909550935050608088013567ffffffffffffffff811115613fd7575f5ffd5b613fe38a828b016133f7565b989b979a50959850939692959293505050565b5f5f5f60608486031215614008575f5ffd5b8335925060208401359150604084013567ffffffffffffffff81111561402c575f5ffd5b6135a1868287016133e1565b7f4e487b71000000000000000000000000000000000000000000000000000000005f52603260045260245ffd5b5f5f83357fffffffffffffffffffffffffffffffffffffffffffffffffffffffffffffffe1843603018112614098575f5ffd5b83018035915067ffffffffffffffff8211156140b2575f5ffd5b602001915036819003821315613435575f5ffd5b80151581146125b9575f5ffd5b803561376b816140c6565b600381106125b9575f5ffd5b5f82601f8301126140f9575f5ffd5b8135614107613a06826139af565b8082825260208201915060208360061b860101925085831115614128575f5ffd5b602085015b83811015613a525760408188031215614144575f5ffd5b61414c6138f1565b8135614157816140de565b815260208281013581830152908452929092019160400161412d565b5f60e08236031215614183575f5ffd5b61418b61391a565b614194836140d3565b81526141a260208401613760565b60208201526141b3604084016138b9565b60408201526141c4606084016139de565b60608201526080838101359082015260a083013567ffffffffffffffff8111156141ec575f5ffd5b6141f8368286016139e9565b60a08301525060c083013567ffffffffffffffff811115614217575f5ffd5b614223368286016140ea565b60c08301525092915050565b5f6020828403121561423f575f5ffd5b81356137388161373f565b600181811c9082168061425e57607f821691505b6020821081036133f1577f4e487b71000000000000000000000000000000000000000000000000000000005f52602260045260245ffd5b7f4e487b71000000000000000000000000000000000000000000000000000000005f52601160045260245ffd5b5f7fffffffffffffffffffffffffffffffffffffffffffffffffffffffffffffffff82036142f2576142f2614295565b5060010190565b818382375f9101908152919050565b5f60c08236031215614318575f5ffd5b61432061393d565b823561432b816140c6565b8152602083013561433b816139d2565b6020820152604083013561434e816140c6565b604082015261435f606084016139de565b6060820152608083013567ffffffffffffffff81111561437d575f5ffd5b61438936828601613cb3565b60808301525060a092830135928101929092525090565b5f602082840312156143b0575f5ffd5b8135613738816139d2565b5f602082840312156143cb575f5ffd5b8135613738816140c6565b818103818111156109d0576109d0614295565b5b818110156143fd575f81556001016143ea565b5050565b601f82111561443857805f5260205f20601f840160051c810160208510156144265750805b612526601f850160051c8301826143e9565b505050565b67ffffffffffffffff831115614455576144556138c4565b61446983614463835461424a565b83614401565b5f601f8411600181146144b9575f85156144835750838201355b7fffffffffffffffffffffffffffffffffffffffffffffffffffffffffffffffff600387901b1c1916600186901b178355612526565b5f838152602081207fffffffffffffffffffffffffffffffffffffffffffffffffffffffffffffffe08716915b8281101561450657868501358255602094850194600190920191016144e6565b5086821015614541577fffffffffffffffffffffffffffffffffffffffffffffffffffffffffffffffff60f88860031b161c19848701351681555b505060018560011b0183555050505050565b815167ffffffffffffffff81111561456d5761456d6138c4565b6145818161457b845461424a565b84614401565b6020601f8211600181146145d2575f831561459c5750848201515b7fffffffffffffffffffffffffffffffffffffffffffffffffffffffffffffffff600385901b1c1916600184901b178455612526565b5f848152602081207fffffffffffffffffffffffffffffffffffffffffffffffffffffffffffffffe08516915b8281101561461f57878501518255602094850194600190920191016145ff565b508482101561465b57868401517fffffffffffffffffffffffffffffffffffffffffffffffffffffffffffffffff600387901b60f8161c191681555b50505050600190811b01905550565b5f82518060208501845e5f920191825250919050565b5f5f83357fffffffffffffffffffffffffffffffffffffffffffffffffffffffffffffffe18436030181126146b3575f5ffd5b83018035915067ffffffffffffffff8211156146cd575f5ffd5b6020019150600681901b3603821315613435575f5ffd5b5f5f83357fffffffffffffffffffffffffffffffffffffffffffffffffffffffffffffffe1843603018112614717575f5ffd5b83018035915067ffffffffffffffff821115614731575f5ffd5b6020019150600581901b3603821315613435575f5ffd5b7f4e487b71000000000000000000000000000000000000000000000000000000005f52600160045260245ffd5b5f81356109d08161388c565b5f81356109d0816139d2565b6008821061479d5761479d6135ab565b805479ff000000000000000000000000000000000000000000000000008360c81b167fffffffffffff00ffffffffffffffffffffffffffffffffffffffffffffffffff8216178255505050565b68010000000000000000821115614803576148036138c4565b80548282558083101561443857815f5260205f20601f840160051c8101601f8516801561487d577fffffffffffffffffffffffffffffffffffffffffffffffffffffffffffffffff820180547fffffffffffffffffffffffffffffffffffffffffffffffffffffffffffffffff8360200360031b1c168155505b50612526601f840160051c8301826143e9565b67ffffffffffffffff8311156148a8576148a86138c4565b6148b283826147ea565b5f8181526020902082908460051c5f5b81811015614917575f5f5b602081101561490a576148f96148e287614781565b60ff908116600384901b90811b91901b1984161790565b6020969096019591506001016148cd565b50838201556001016148c2565b507fffffffffffffffffffffffffffffffffffffffffffffffffffffffffffffffe086168087038188146128b4575f5f5b8281101561496d5761495c6148e288614781565b602097909701969150600101614948565b50848401555050505050505050565b8135614987816140de565b60038110614997576149976135ab565b81547fffffffffffffffffffffffffffffffffffffffffffffffffffffffffffffff001660ff9190911617815560209190910135600190910155565b680100000000000000008311156149ec576149ec6138c4565b805483825580841015614a90577f7fffffffffffffffffffffffffffffffffffffffffffffffffffffffffffffff81168114614a2a57614a2a614295565b7f7fffffffffffffffffffffffffffffffffffffffffffffffffffffffffffffff84168414614a5b57614a5b614295565b815f5260205f208160011b81018560011b820191505b80821015614a8d575f82555f6001830155600282019150614a71565b50505b505f8181526020812083915b85811015612aef57614aae838361497c565b6040929092019160029190910190600101614a9c565b8135614acf816140c6565b81547fffffffffffffffffffffffffffffffffffffffffffffffffffffffffffffff00811691151560ff1691821783556020840135614b0d8161373f565b74ffffffffffffffffffffffffffffffffffffffff008160081b16837fffffffffffffffffffffff000000000000000000000000000000000000000000841617178455505050614bb0614b6260408401614775565b8280547fffffffffffffff00000000ffffffffffffffffffffffffffffffffffffffffff1660389290921c78ffffffff00000000000000000000000000000000000000000016919091179055565b614bc5614bbf60608401614781565b8261478d565b60808201356001820155614bdc60a08301836146e4565b614bea818360028601614890565b5050614bf960c0830183614680565b612a488183600386016149d356fea26469706673582212208cad517a0d7d7e9f800139c3157c22a94674bd6462cef89eaba333eea9a484e864736f6c634300081c0033","linkReferences":{}},"methodIdentifiers":{"addClosedPolicySubscriber(uint256,address)":"2711fe6b","createCallingFunction(uint256,bytes4,uint8[],string,string)":"b0955878","createForeignCall(uint256,(bool,address,bytes4,uint8,uint256,uint8[],(uint8,uint256)[]),string)":"36f89f79","createTracker(uint256,(bool,uint8,bool,uint8,bytes,uint256),string)":"72cb754c","createTracker(uint256,(bool,uint8,bool,uint8,bytes,uint256),string,bytes[],bytes[])":"0b5f5723","deleteCallingFunction(uint256,uint256)":"3fafdf6e","deleteForeignCall(uint256,uint256)":"d82260c8","deleteTracker(uint256,uint256)":"a82c9e07","getAllCallingFunctions(uint256)":"f3e7dfc3","getAllForeignCalls(uint256)":"a3937e99","getAllTrackers(uint256)":"56f3b05f","getCallingFunction(uint256,uint256)":"bfc85236","getCallingFunctionMetadata(uint256,uint256)":"eeeb6047","getForeignCall(uint256,uint256)":"da7d5d28","getForeignCallMetadata(uint256,uint256)":"f69187ee","getMappedTrackerValue(uint256,uint256,bytes)":"9f9fa719","getTracker(uint256,uint256)":"72a340d7","getTrackerMetadata(uint256,uint256)":"3bf07314","isClosedPolicySubscriber(uint256,address)":"4c957ad9","removeClosedPolicySubscriber(uint256,address)":"7374c994","updateCallingFunction(uint256,uint256,bytes4,uint8[])":"56f39ae3","updateForeignCall(uint256,uint256,(bool,address,bytes4,uint8,uint256,uint8[],(uint8,uint256)[]))":"1af4a8f9","updateTracker(uint256,uint256,(bool,uint8,bool,uint8,bytes,uint256))":"febf8f92","updateTracker(uint256,uint256,(bool,uint8,bool,uint8,bytes,uint256),bytes,bytes)":"f479c994"},"id":9}