{"abi":[{"type":"function","name":"createRule","inputs":[{"name":"policyId","type":"uint256","internalType":"uint256"},{"name":"rule","type":"tuple","internalType":"struct Rule","components":[{"name":"instructionSet","type":"uint256[]","internalType":"uint256[]"},{"name":"rawData","type":"tuple","internalType":"struct RawData","components":[{"name":"instructionSetIndex","type":"uint256[]","internalType":"uint256[]"},{"name":"argumentTypes","type":"uint8[]","internalType":"enum ParamTypes[]"},{"name":"dataValues","type":"bytes[]","internalType":"bytes[]"}]},{"name":"placeHolders","type":"tuple[]","internalType":"struct Placeholder[]","components":[{"name":"pType","type":"uint8","internalType":"enum ParamTypes"},{"name":"typeSpecificIndex","type":"uint128","internalType":"uint128"},{"name":"trackerValue","type":"bool","internalType":"bool"},{"name":"foreignCall","type":"bool","internalType":"bool"},{"name":"mappedTrackerKey","type":"bytes","internalType":"bytes"}]},{"name":"effectPlaceHolders","type":"tuple[]","internalType":"struct Placeholder[]","components":[{"name":"pType","type":"uint8","internalType":"enum ParamTypes"},{"name":"typeSpecificIndex","type":"uint128","internalType":"uint128"},{"name":"trackerValue","type":"bool","internalType":"bool"},{"name":"foreignCall","type":"bool","internalType":"bool"},{"name":"mappedTrackerKey","type":"bytes","internalType":"bytes"}]},{"name":"posEffects","type":"tuple[]","internalType":"struct Effect[]","components":[{"name":"valid","type":"bool","internalType":"bool"},{"name":"dynamicParam","type":"bool","internalType":"bool"},{"name":"effectType","type":"uint8","internalType":"enum EffectTypes"},{"name":"pType","type":"uint8","internalType":"enum ParamTypes"},{"name":"param","type":"bytes","internalType":"bytes"},{"name":"text","type":"bytes32","internalType":"bytes32"},{"name":"errorMessage","type":"string","internalType":"string"},{"name":"instructionSet","type":"uint256[]","internalType":"uint256[]"}]},{"name":"negEffects","type":"tuple[]","internalType":"struct Effect[]","components":[{"name":"valid","type":"bool","internalType":"bool"},{"name":"dynamicParam","type":"bool","internalType":"bool"},{"name":"effectType","type":"uint8","internalType":"enum EffectTypes"},{"name":"pType","type":"uint8","internalType":"enum ParamTypes"},{"name":"param","type":"bytes","internalType":"bytes"},{"name":"text","type":"bytes32","internalType":"bytes32"},{"name":"errorMessage","type":"string","internalType":"string"},{"name":"instructionSet","type":"uint256[]","internalType":"uint256[]"}]}]}],"outputs":[{"name":"","type":"uint256","internalType":"uint256"}],"stateMutability":"nonpayable"},{"type":"function","name":"deleteRule","inputs":[{"name":"policyId","type":"uint256","internalType":"uint256"},{"name":"ruleId","type":"uint256","internalType":"uint256"}],"outputs":[],"stateMutability":"nonpayable"},{"type":"function","name":"getAllRules","inputs":[{"name":"policyId","type":"uint256","internalType":"uint256"}],"outputs":[{"name":"","type":"tuple[][]","internalType":"struct Rule[][]","components":[{"name":"instructionSet","type":"uint256[]","internalType":"uint256[]"},{"name":"rawData","type":"tuple","internalType":"struct RawData","components":[{"name":"instructionSetIndex","type":"uint256[]","internalType":"uint256[]"},{"name":"argumentTypes","type":"uint8[]","internalType":"enum ParamTypes[]"},{"name":"dataValues","type":"bytes[]","internalType":"bytes[]"}]},{"name":"placeHolders","type":"tuple[]","internalType":"struct Placeholder[]","components":[{"name":"pType","type":"uint8","internalType":"enum ParamTypes"},{"name":"typeSpecificIndex","type":"uint128","internalType":"uint128"},{"name":"trackerValue","type":"bool","internalType":"bool"},{"name":"foreignCall","type":"bool","internalType":"bool"},{"name":"mappedTrackerKey","type":"bytes","internalType":"bytes"}]},{"name":"effectPlaceHolders","type":"tuple[]","internalType":"struct Placeholder[]","components":[{"name":"pType","type":"uint8","internalType":"enum ParamTypes"},{"name":"typeSpecificIndex","type":"uint128","internalType":"uint128"},{"name":"trackerValue","type":"bool","internalType":"bool"},{"name":"foreignCall","type":"bool","internalType":"bool"},{"name":"mappedTrackerKey","type":"bytes","internalType":"bytes"}]},{"name":"posEffects","type":"tuple[]","internalType":"struct Effect[]","components":[{"name":"valid","type":"bool","internalType":"bool"},{"name":"dynamicParam","type":"bool","internalType":"bool"},{"name":"effectType","type":"uint8","internalType":"enum EffectTypes"},{"name":"pType","type":"uint8","internalType":"enum ParamTypes"},{"name":"param","type":"bytes","internalType":"bytes"},{"name":"text","type":"bytes32","internalType":"bytes32"},{"name":"errorMessage","type":"string","internalType":"string"},{"name":"instructionSet","type":"uint256[]","internalType":"uint256[]"}]},{"name":"negEffects","type":"tuple[]","internalType":"struct Effect[]","components":[{"name":"valid","type":"bool","internalType":"bool"},{"name":"dynamicParam","type":"bool","internalType":"bool"},{"name":"effectType","type":"uint8","internalType":"enum EffectTypes"},{"name":"pType","type":"uint8","internalType":"enum ParamTypes"},{"name":"param","type":"bytes","internalType":"bytes"},{"name":"text","type":"bytes32","internalType":"bytes32"},{"name":"errorMessage","type":"string","internalType":"string"},{"name":"instructionSet","type":"uint256[]","internalType":"uint256[]"}]}]}],"stateMutability":"view"},{"type":"function","name":"getRule","inputs":[{"name":"policyId","type":"uint256","internalType":"uint256"},{"name":"ruleId","type":"uint256","internalType":"uint256"}],"outputs":[{"name":"","type":"tuple","internalType":"struct RuleStorageSet","components":[{"name":"set","type":"bool","internalType":"bool"},{"name":"rule","type":"tuple","internalType":"struct Rule","components":[{"name":"instructionSet","type":"uint256[]","internalType":"uint256[]"},{"name":"rawData","type":"tuple","internalType":"struct RawData","components":[{"name":"instructionSetIndex","type":"uint256[]","internalType":"uint256[]"},{"name":"argumentTypes","type":"uint8[]","internalType":"enum ParamTypes[]"},{"name":"dataValues","type":"bytes[]","internalType":"bytes[]"}]},{"name":"placeHolders","type":"tuple[]","internalType":"struct Placeholder[]","components":[{"name":"pType","type":"uint8","internalType":"enum ParamTypes"},{"name":"typeSpecificIndex","type":"uint128","internalType":"uint128"},{"name":"trackerValue","type":"bool","internalType":"bool"},{"name":"foreignCall","type":"bool","internalType":"bool"},{"name":"mappedTrackerKey","type":"bytes","internalType":"bytes"}]},{"name":"effectPlaceHolders","type":"tuple[]","internalType":"struct Placeholder[]","components":[{"name":"pType","type":"uint8","internalType":"enum ParamTypes"},{"name":"typeSpecificIndex","type":"uint128","internalType":"uint128"},{"name":"trackerValue","type":"bool","internalType":"bool"},{"name":"foreignCall","type":"bool","internalType":"bool"},{"name":"mappedTrackerKey","type":"bytes","internalType":"bytes"}]},{"name":"posEffects","type":"tuple[]","internalType":"struct Effect[]","components":[{"name":"valid","type":"bool","internalType":"bool"},{"name":"dynamicParam","type":"bool","internalType":"bool"},{"name":"effectType","type":"uint8","internalType":"enum EffectTypes"},{"name":"pType","type":"uint8","internalType":"enum ParamTypes"},{"name":"param","type":"bytes","internalType":"bytes"},{"name":"text","type":"bytes32","internalType":"bytes32"},{"name":"errorMessage","type":"string","internalType":"string"},{"name":"instructionSet","type":"uint256[]","internalType":"uint256[]"}]},{"name":"negEffects","type":"tuple[]","internalType":"struct Effect[]","components":[{"name":"valid","type":"bool","internalType":"bool"},{"name":"dynamicParam","type":"bool","internalType":"bool"},{"name":"effectType","type":"uint8","internalType":"enum EffectTypes"},{"name":"pType","type":"uint8","internalType":"enum ParamTypes"},{"name":"param","type":"bytes","internalType":"bytes"},{"name":"text","type":"bytes32","internalType":"bytes32"},{"name":"errorMessage","type":"string","internalType":"string"},{"name":"instructionSet","type":"uint256[]","internalType":"uint256[]"}]}]}]}],"stateMutability":"view"},{"type":"function","name":"updateRule","inputs":[{"name":"policyId","type":"uint256","internalType":"uint256"},{"name":"ruleId","type":"uint256","internalType":"uint256"},{"name":"rule","type":"tuple","internalType":"struct Rule","components":[{"name":"instructionSet","type":"uint256[]","internalType":"uint256[]"},{"name":"rawData","type":"tuple","internalType":"struct RawData","components":[{"name":"instructionSetIndex","type":"uint256[]","internalType":"uint256[]"},{"name":"argumentTypes","type":"uint8[]","internalType":"enum ParamTypes[]"},{"name":"dataValues","type":"bytes[]","internalType":"bytes[]"}]},{"name":"placeHolders","type":"tuple[]","internalType":"struct Placeholder[]","components":[{"name":"pType","type":"uint8","internalType":"enum ParamTypes"},{"name":"typeSpecificIndex","type":"uint128","internalType":"uint128"},{"name":"trackerValue","type":"bool","internalType":"bool"},{"name":"foreignCall","type":"bool","internalType":"bool"},{"name":"mappedTrackerKey","type":"bytes","internalType":"bytes"}]},{"name":"effectPlaceHolders","type":"tuple[]","internalType":"struct Placeholder[]","components":[{"name":"pType","type":"uint8","internalType":"enum ParamTypes"},{"name":"typeSpecificIndex","type":"uint128","internalType":"uint128"},{"name":"trackerValue","type":"bool","internalType":"bool"},{"name":"foreignCall","type":"bool","internalType":"bool"},{"name":"mappedTrackerKey","type":"bytes","internalType":"bytes"}]},{"name":"posEffects","type":"tuple[]","internalType":"struct Effect[]","components":[{"name":"valid","type":"bool","internalType":"bool"},{"name":"dynamicParam","type":"bool","internalType":"bool"},{"name":"effectType","type":"uint8","internalType":"enum EffectTypes"},{"name":"pType","type":"uint8","internalType":"enum ParamTypes"},{"name":"param","type":"bytes","internalType":"bytes"},{"name":"text","type":"bytes32","internalType":"bytes32"},{"name":"errorMessage","type":"string","internalType":"string"},{"name":"instructionSet","type":"uint256[]","internalType":"uint256[]"}]},{"name":"negEffects","type":"tuple[]","internalType":"struct Effect[]","components":[{"name":"valid","type":"bool","internalType":"bool"},{"name":"dynamicParam","type":"bool","internalType":"bool"},{"name":"effectType","type":"uint8","internalType":"enum EffectTypes"},{"name":"pType","type":"uint8","internalType":"enum ParamTypes"},{"name":"param","type":"bytes","internalType":"bytes"},{"name":"text","type":"bytes32","internalType":"bytes32"},{"name":"errorMessage","type":"string","internalType":"string"},{"name":"instructionSet","type":"uint256[]","internalType":"uint256[]"}]}]}],"outputs":[{"name":"","type":"uint256","internalType":"uint256"}],"stateMutability":"nonpayable"},{"type":"event","name":"RuleCreated","inputs":[{"name":"policyId","type":"uint256","indexed":true,"internalType":"uint256"},{"name":"ruleId","type":"uint256","indexed":true,"internalType":"uint256"}],"anonymous":false},{"type":"event","name":"RuleDeleted","inputs":[{"name":"policyId","type":"uint256","indexed":true,"internalType":"uint256"},{"name":"ruleId","type":"uint256","indexed":true,"internalType":"uint256"}],"anonymous":false},{"type":"event","name":"RuleUpdated","inputs":[{"name":"policyId","type":"uint256","indexed":true,"internalType":"uint256"},{"name":"ruleId","type":"uint256","indexed":true,"internalType":"uint256"}],"anonymous":false}],"bytecode":{"object":"0x6080604052348015600e575f5ffd5b506135f58061001c5f395ff3fe608060405234801561000f575f5ffd5b5060043610610064575f3560e01c8063350250501161004d57806335025050146100ae5780636d279ef8146100c1578063a31c8ebb146100e1575f5ffd5b80630660af2114610068578063266fc8a51461008e575b5f5ffd5b61007b6100763660046121e2565b6100f6565b6040519081526020015b60405180910390f35b6100a161009c366004612226565b6102cd565b6040516100859190612651565b61007b6100bc366004612736565b610fdc565b6100d46100cf366004612782565b611102565b60405161008591906127a2565b6100f46100ef366004612782565b611b29565b005b5f82335f5f6101b363901cee1160e01b858560405160240161013892919091825273ffffffffffffffffffffffffffffffffffffffff16602082015260400190565b604080517fffffffffffffffffffffffffffffffffffffffffffffffffffffffffffffffe08184030181529190526020810180517bffffffffffffffffffffffffffffffffffffffffffffffffffffffff167f901cee1100000000000000000000000000000000000000000000000000000000179052611cf1565b915091505f82156102415760048251106101d2575060208101516101d5565b505f5b80610241576040517f08c379a000000000000000000000000000000000000000000000000000000000815260206004820152601860248201527f4e6f7420417574686f72697a656420546f20506f6c696379000000000000000060448201526064015b60405180910390fd5b61024a88611db2565b5f610253611e41565b5f8a8152602082905260408120805492935090918290610272906127fd565b91829055509050610285828b838c611e6e565b505f8a8152602083905260408082208390555182918c917fcadd4461b462556a5a12f6e182d719fd2bbfaaa0a6fcf6a16cf7ecf6480769219190a39998505050505050505050565b60605f6102d8611f4e565b6001015f8481526020019081526020015f2060010190505f8160020180548060200260200160405190810160405280929190818152602001828054801561037d57602002820191905f5260205f20905f905b82829054906101000a900460e01b7bffffffffffffffffffffffffffffffffffffffffffffffffffffffff19168152602001906004019060208260030104928301926001038202915080841161032a5790505b505050505090505f815167ffffffffffffffff81111561039f5761039f612834565b6040519080825280602002602001820160405280156103d257816020015b60608152602001906001900390816103bd5790505b5090505f5b8251811015610fd3575f846001015f8584815181106103f8576103f8612861565b60200260200101517bffffffffffffffffffffffffffffffffffffffffffffffffffffffff19167bffffffffffffffffffffffffffffffffffffffffffffffffffffffff191681526020019081526020015f2080548060200260200160405190810160405280929190818152602001828054801561049357602002820191905f5260205f20905b81548152602001906001019080831161047f575b50505050509050805167ffffffffffffffff8111156104b4576104b4612834565b6040519080825280602002602001820160405280156104ed57816020015b6104da611fa8565b8152602001906001900390816104d25790505b5083838151811061050057610500612861565b60209081029190910101525f5b8151811015610fc95761051e611e41565b6001015f8981526020019081526020015f205f83838151811061054357610543612861565b60209081029190910181015182528101919091526040015f205460ff1615610fc15761056d611e41565b6001015f8981526020019081526020015f205f83838151811061059257610592612861565b602002602001015181526020019081526020015f206001016040518060c00160405290815f820180548060200260200160405190810160405280929190818152602001828054801561060157602002820191905f5260205f20905b8154815260200190600101908083116105ed575b50505050508152602001600182016040518060600160405290815f820180548060200260200160405190810160405280929190818152602001828054801561066657602002820191905f5260205f20905b815481526020019060010190808311610652575b50505050508152602001600182018054806020026020016040519081016040528092919081815260200182805480156106eb57602002820191905f5260205f20905f905b82829054906101000a900460ff1660078111156106c9576106c9612277565b8152602060019283018181049485019490930390920291018084116106aa5790505b5050505050815260200160028201805480602002602001604051908101604052809291908181526020015f905b828210156107c0578382905f5260205f200180546107359061288e565b80601f01602080910402602001604051908101604052809291908181526020018280546107619061288e565b80156107ac5780601f10610783576101008083540402835291602001916107ac565b820191905f5260205f20905b81548152906001019060200180831161078f57829003601f168201915b505050505081526020019060010190610718565b5050505081525050815260200160048201805480602002602001604051908101604052809291908181526020015f905b8282101561093e575f848152602090206040805160a08101909152600284029091018054829060ff16600781111561082a5761082a612277565b600781111561083b5761083b612277565b815281546fffffffffffffffffffffffffffffffff610100820416602083015260ff710100000000000000000000000000000000008204811615156040840152720100000000000000000000000000000000000090910416151560608201526001820180546080909201916108af9061288e565b80601f01602080910402602001604051908101604052809291908181526020018280546108db9061288e565b80156109265780601f106108fd57610100808354040283529160200191610926565b820191905f5260205f20905b81548152906001019060200180831161090957829003601f168201915b505050505081525050815260200190600101906107f0565b50505050815260200160058201805480602002602001604051908101604052809291908181526020015f905b82821015610ab8575f848152602090206040805160a08101909152600284029091018054829060ff1660078111156109a4576109a4612277565b60078111156109b5576109b5612277565b815281546fffffffffffffffffffffffffffffffff610100820416602083015260ff71010000000000000000000000000000000000820481161515604084015272010000000000000000000000000000000000009091041615156060820152600182018054608090920191610a299061288e565b80601f0160208091040260200160405190810160405280929190818152602001828054610a559061288e565b8015610aa05780601f10610a7757610100808354040283529160200191610aa0565b820191905f5260205f20905b815481529060010190602001808311610a8357829003601f168201915b5050505050815250508152602001906001019061096a565b50505050815260200160068201805480602002602001604051908101604052809291908181526020015f905b82821015610d1d575f84815260209081902060408051610100808201835260058702909301805460ff808216151584529481048516151595830195909552909390929184019162010000909104166002811115610b4357610b43612277565b6002811115610b5457610b54612277565b815281546020909101906301000000900460ff166007811115610b7957610b79612277565b6007811115610b8a57610b8a612277565b8152602001600182018054610b9e9061288e565b80601f0160208091040260200160405190810160405280929190818152602001828054610bca9061288e565b8015610c155780601f10610bec57610100808354040283529160200191610c15565b820191905f5260205f20905b815481529060010190602001808311610bf857829003601f168201915b5050505050815260200160028201548152602001600382018054610c389061288e565b80601f0160208091040260200160405190810160405280929190818152602001828054610c649061288e565b8015610caf5780601f10610c8657610100808354040283529160200191610caf565b820191905f5260205f20905b815481529060010190602001808311610c9257829003601f168201915b5050505050815260200160048201805480602002602001604051908101604052809291908181526020018280548015610d0557602002820191905f5260205f20905b815481526020019060010190808311610cf1575b50505050508152505081526020019060010190610ae4565b50505050815260200160078201805480602002602001604051908101604052809291908181526020015f905b82821015610f82575f84815260209081902060408051610100808201835260058702909301805460ff808216151584529481048516151595830195909552909390929184019162010000909104166002811115610da857610da8612277565b6002811115610db957610db9612277565b815281546020909101906301000000900460ff166007811115610dde57610dde612277565b6007811115610def57610def612277565b8152602001600182018054610e039061288e565b80601f0160208091040260200160405190810160405280929190818152602001828054610e2f9061288e565b8015610e7a5780601f10610e5157610100808354040283529160200191610e7a565b820191905f5260205f20905b815481529060010190602001808311610e5d57829003601f168201915b5050505050815260200160028201548152602001600382018054610e9d9061288e565b80601f0160208091040260200160405190810160405280929190818152602001828054610ec99061288e565b8015610f145780601f10610eeb57610100808354040283529160200191610f14565b820191905f5260205f20905b815481529060010190602001808311610ef757829003601f168201915b5050505050815260200160048201805480602002602001604051908101604052809291908181526020018280548015610f6a57602002820191905f5260205f20905b815481526020019060010190808311610f56575b50505050508152505081526020019060010190610d49565b5050505081525050848481518110610f9c57610f9c612861565b60200260200101518281518110610fb557610fb5612861565b60200260200101819052505b60010161050d565b50506001016103d7565b50949350505050565b5f83335f5f61101e63901cee1160e01b858560405160240161013892919091825273ffffffffffffffffffffffffffffffffffffffff16602082015260400190565b915091505f82156110a757600482511061103d57506020810151611040565b505f5b806110a7576040517f08c379a000000000000000000000000000000000000000000000000000000000815260206004820152601860248201527f4e6f7420417574686f72697a656420546f20506f6c69637900000000000000006044820152606401610238565b6110b089611db2565b5f6110b9611e41565b90506110c7818b8b8b611e6e565b5060405189908b907fe91f86fd53c89629ca0bc01d0f219a6cd6730e5252f179944d1f3c9b5def1b07905f90a3509698975050505050505050565b61110a612000565b611112611e41565b5f84815260019182016020908152604080832086845282529182902082518084018452815460ff16151581528351948201805460e08186028801810190965260c087018181529296939594870194919284929091849184018282801561119557602002820191905f5260205f20905b815481526020019060010190808311611181575b50505050508152602001600182016040518060600160405290815f82018054806020026020016040519081016040528092919081815260200182805480156111fa57602002820191905f5260205f20905b8154815260200190600101908083116111e6575b505050505081526020016001820180548060200260200160405190810160405280929190818152602001828054801561127f57602002820191905f5260205f20905f905b82829054906101000a900460ff16600781111561125d5761125d612277565b81526020600192830181810494850194909303909202910180841161123e5790505b5050505050815260200160028201805480602002602001604051908101604052809291908181526020015f905b82821015611354578382905f5260205f200180546112c99061288e565b80601f01602080910402602001604051908101604052809291908181526020018280546112f59061288e565b80156113405780601f1061131757610100808354040283529160200191611340565b820191905f5260205f20905b81548152906001019060200180831161132357829003601f168201915b5050505050815260200190600101906112ac565b5050505081525050815260200160048201805480602002602001604051908101604052809291908181526020015f905b828210156114d2575f848152602090206040805160a08101909152600284029091018054829060ff1660078111156113be576113be612277565b60078111156113cf576113cf612277565b815281546fffffffffffffffffffffffffffffffff610100820416602083015260ff710100000000000000000000000000000000008204811615156040840152720100000000000000000000000000000000000090910416151560608201526001820180546080909201916114439061288e565b80601f016020809104026020016040519081016040528092919081815260200182805461146f9061288e565b80156114ba5780601f10611491576101008083540402835291602001916114ba565b820191905f5260205f20905b81548152906001019060200180831161149d57829003601f168201915b50505050508152505081526020019060010190611384565b50505050815260200160058201805480602002602001604051908101604052809291908181526020015f905b8282101561164c575f848152602090206040805160a08101909152600284029091018054829060ff16600781111561153857611538612277565b600781111561154957611549612277565b815281546fffffffffffffffffffffffffffffffff610100820416602083015260ff710100000000000000000000000000000000008204811615156040840152720100000000000000000000000000000000000090910416151560608201526001820180546080909201916115bd9061288e565b80601f01602080910402602001604051908101604052809291908181526020018280546115e99061288e565b80156116345780601f1061160b57610100808354040283529160200191611634565b820191905f5260205f20905b81548152906001019060200180831161161757829003601f168201915b505050505081525050815260200190600101906114fe565b50505050815260200160068201805480602002602001604051908101604052809291908181526020015f905b828210156118b1575f84815260209081902060408051610100808201835260058702909301805460ff8082161515845294810485161515958301959095529093909291840191620100009091041660028111156116d7576116d7612277565b60028111156116e8576116e8612277565b815281546020909101906301000000900460ff16600781111561170d5761170d612277565b600781111561171e5761171e612277565b81526020016001820180546117329061288e565b80601f016020809104026020016040519081016040528092919081815260200182805461175e9061288e565b80156117a95780601f10611780576101008083540402835291602001916117a9565b820191905f5260205f20905b81548152906001019060200180831161178c57829003601f168201915b50505050508152602001600282015481526020016003820180546117cc9061288e565b80601f01602080910402602001604051908101604052809291908181526020018280546117f89061288e565b80156118435780601f1061181a57610100808354040283529160200191611843565b820191905f5260205f20905b81548152906001019060200180831161182657829003601f168201915b505050505081526020016004820180548060200260200160405190810160405280929190818152602001828054801561189957602002820191905f5260205f20905b815481526020019060010190808311611885575b50505050508152505081526020019060010190611678565b50505050815260200160078201805480602002602001604051908101604052809291908181526020015f905b82821015611b16575f84815260209081902060408051610100808201835260058702909301805460ff80821615158452948104851615159583019590955290939092918401916201000090910416600281111561193c5761193c612277565b600281111561194d5761194d612277565b815281546020909101906301000000900460ff16600781111561197257611972612277565b600781111561198357611983612277565b81526020016001820180546119979061288e565b80601f01602080910402602001604051908101604052809291908181526020018280546119c39061288e565b8015611a0e5780601f106119e557610100808354040283529160200191611a0e565b820191905f5260205f20905b8154815290600101906020018083116119f157829003601f168201915b5050505050815260200160028201548152602001600382018054611a319061288e565b80601f0160208091040260200160405190810160405280929190818152602001828054611a5d9061288e565b8015611aa85780601f10611a7f57610100808354040283529160200191611aa8565b820191905f5260205f20905b815481529060010190602001808311611a8b57829003601f168201915b5050505050815260200160048201805480602002602001604051908101604052809291908181526020018280548015611afe57602002820191905f5260205f20905b815481526020019060010190808311611aea575b505050505081525050815260200190600101906118dd565b5050509152505090525090505b92915050565b60405160248101839052336044820181905283915f908190611b6f907f901cee110000000000000000000000000000000000000000000000000000000090606401610138565b915091505f8215611bf8576004825110611b8e57506020810151611b91565b505f5b80611bf8576040517f08c379a000000000000000000000000000000000000000000000000000000000815260206004820152601860248201527f4e6f7420417574686f72697a656420546f20506f6c69637900000000000000006044820152606401610238565b611c0187611db2565b611c09611e41565b5f8881526001918201602090815260408083208a8452909152812080547fffffffffffffffffffffffffffffffffffffffffffffffffffffffffffffff0016815591820181611c588282612020565b600182015f611c678282612020565b611c74600183015f61203b565b611c81600283015f61205d565b50611c919050600483015f612078565b611c9e600583015f612078565b611cab600683015f612096565b611cb8600783015f612096565b50506040518892508991507f371b8107ab385e638477ce677851ddf910d57c3afc1bab409674a9e251cfb020905f90a350505050505050565b5f60605f611cfd611f7b565b7fffffffff0000000000000000000000000000000000000000000000000000000086165f908152602082905260409081902054905191925073ffffffffffffffffffffffffffffffffffffffff16908190611d599087906128d9565b5f60405180830381855af49150503d805f8114611d91576040519150601f19603f3d011682016040523d82523d5f602084013e611d96565b606091505b50909450925083611da957825160208401fd5b50509250929050565b611dba611f4e565b5f8281526001919091016020526040902060040154610100900460ff1615611e3e576040517f08c379a000000000000000000000000000000000000000000000000000000000815260206004820152601f60248201527f4e6f7420616c6c6f77656420666f722063656d656e74656420706f6c696379006044820152606401610238565b50565b5f80611b2360017f5c91f63a4ffcbd372b8ec622fd1fcaaa601b66330afdb30e5c292dd9123f20b06128ef565b5f611e77611f4e565b5f858152600191909101602052604090205460ff16611ef2576040517f08c379a000000000000000000000000000000000000000000000000000000000815260206004820152601060248201527f496e76616c696420506f6c6963794964000000000000000000000000000000006044820152606401610238565b5f84815260018681016020908152604080842087855290915290912080547fffffffffffffffffffffffffffffffffffffffffffffffffffffffffffffff001682178155839101611f4382826134df565b509295945050505050565b5f80611b2360017ff9dbd639dd2ea165d77dd4c51dec420100d51ceacf023b1c40faa045ba8f9a656128ef565b5f80611b2360017fbe498a3b14fd79a48c3c9af86ff14271ed497d09071013334028d28e7791db206128ef565b6040518060c0016040528060608152602001611fde60405180606001604052806060815260200160608152602001606081525090565b8152602001606081526020016060815260200160608152602001606081525090565b60405180604001604052805f1515815260200161201b611fa8565b905290565b5080545f8255905f5260205f2090810190611e3e91906120b4565b5080545f8255601f0160209004905f5260205f2090810190611e3e91906120b4565b5080545f8255905f5260205f2090810190611e3e91906120cc565b5080545f8255600202905f5260205f2090810190611e3e91906120e8565b5080545f8255600502905f5260205f2090810190611e3e919061212d565b5b808211156120c8575f81556001016120b5565b5090565b808211156120c8575f6120df8282612195565b506001016120cc565b808211156120c85780547fffffffffffffffffffffffffff000000000000000000000000000000000000001681555f6121246001830182612195565b506002016120e8565b808211156120c85780547fffffffffffffffffffffffffffffffffffffffffffffffffffffffff000000001681555f6121696001830182612195565b600282015f9055600382015f61217f9190612195565b61218c600483015f612020565b5060050161212d565b5080546121a19061288e565b5f825580601f106121b0575050565b601f0160209004905f5260205f2090810190611e3e91906120b4565b5f60c082840312156121dc575f5ffd5b50919050565b5f5f604083850312156121f3575f5ffd5b82359150602083013567ffffffffffffffff811115612210575f5ffd5b61221c858286016121cc565b9150509250929050565b5f60208284031215612236575f5ffd5b5035919050565b5f8151808452602084019350602083015f5b8281101561226d57815186526020958601959091019060010161224f565b5093949350505050565b7f4e487b71000000000000000000000000000000000000000000000000000000005f52602160045260245ffd5b600881106122b4576122b4612277565b9052565b5f81518084528060208401602086015e5f6020828601015260207fffffffffffffffffffffffffffffffffffffffffffffffffffffffffffffffe0601f83011685010191505092915050565b5f82825180855260208501945060208160051b830101602085015f5b838110156123c2577fffffffffffffffffffffffffffffffffffffffffffffffffffffffffffffffe0858403018852815161235c8482516122a4565b6fffffffffffffffffffffffffffffffff60208201511660208501526040810151151560408501526060810151151560608501526080810151905060a060808501526123ab60a08501826122b8565b6020998a0199909450929092019150600101612320565b50909695505050505050565b600381106122b4576122b4612277565b5f82825180855260208501945060208160051b830101602085015f5b838110156123c2578483037fffffffffffffffffffffffffffffffffffffffffffffffffffffffffffffffe001885281518051151584526020810151612444602086018215159052565b50604081015161245760408601826123ce565b50606081015161246a60608601826122a4565b50608081015161010060808601526124866101008601826122b8565b905060a082015160a086015260c082015185820360c08701526124a982826122b8565b91505060e0820151915084810360e08601526124c5818361223d565b60209a8b019a909550939093019250506001016123fa565b5f815160c084526124f160c085018261223d565b905060208301518482036020860152805160608352612513606084018261223d565b60208381015185830386830152805180845290820193505f92909101905b8083101561255b576125448285516122a4565b602082019150602084019350600183019250612531565b506040840151935084810360408601528094508351925082815260208101945060208360051b82010191506020840193505f5b838110156125dd577fffffffffffffffffffffffffffffffffffffffffffffffffffffffffffffffe08284030186526125c88386516122b8565b6020968701969590950194925060010161258e565b50506040860151935086810360408801526125f88185612304565b9350505050606083015184820360608601526126148282612304565b9150506080830151848203608086015261262e82826123de565b91505060a083015184820360a086015261264882826123de565b95945050505050565b5f602082016020835280845180835260408501915060408160051b8601019250602086015f5b8281101561272a578685037fffffffffffffffffffffffffffffffffffffffffffffffffffffffffffffffc0018452815180518087526020918201918088019190600582901b8901015f5b82811015612711577fffffffffffffffffffffffffffffffffffffffffffffffffffffffffffffffe08a83030184526126fc8286516124dd565b602095860195949094019391506001016126c2565b5097505050602094850194929092019150600101612677565b50929695505050505050565b5f5f5f60608486031215612748575f5ffd5b8335925060208401359150604084013567ffffffffffffffff81111561276c575f5ffd5b612778868287016121cc565b9150509250925092565b5f5f60408385031215612793575f5ffd5b50508035926020909101359150565b602081528151151560208201525f60208301516040808401526127c860608401826124dd565b949350505050565b7f4e487b71000000000000000000000000000000000000000000000000000000005f52601160045260245ffd5b5f7fffffffffffffffffffffffffffffffffffffffffffffffffffffffffffffffff820361282d5761282d6127d0565b5060010190565b7f4e487b71000000000000000000000000000000000000000000000000000000005f52604160045260245ffd5b7f4e487b71000000000000000000000000000000000000000000000000000000005f52603260045260245ffd5b600181811c908216806128a257607f821691505b6020821081036121dc577f4e487b71000000000000000000000000000000000000000000000000000000005f52602260045260245ffd5b5f82518060208501845e5f920191825250919050565b81810381811115611b2357611b236127d0565b5f5f83357fffffffffffffffffffffffffffffffffffffffffffffffffffffffffffffffe1843603018112612935575f5ffd5b83018035915067ffffffffffffffff82111561294f575f5ffd5b6020019150600581901b3603821315612966575f5ffd5b9250929050565b5b81811015612981575f815560010161296e565b5050565b6801000000000000000082111561299e5761299e612834565b8054828255808310156129c257815f5260205f206129c082820185830161296d565b505b505050565b67ffffffffffffffff8311156129df576129df612834565b6129e98382612985565b81815f5260205f205f5b85811015612a0f578235828201556020909201916001016129f3565b505050505050565b5f82357fffffffffffffffffffffffffffffffffffffffffffffffffffffffffffffffa1833603018112612a49575f5ffd5b9190910192915050565b68010000000000000000821115612a6c57612a6c612834565b8054828255808310156129c257815f5260205f20601f840160051c8101601f85168015612ae6577fffffffffffffffffffffffffffffffffffffffffffffffffffffffffffffffff820180547fffffffffffffffffffffffffffffffffffffffffffffffffffffffffffffffff8360200360031b1c168155505b50612af9601f840160051c83018261296d565b5050505050565b5f813560088110611b23575f5ffd5b5f5f83357fffffffffffffffffffffffffffffffffffffffffffffffffffffffffffffffe1843603018112612b42575f5ffd5b83018035915067ffffffffffffffff821115612b5c575f5ffd5b602001915036819003821315612966575f5ffd5b8054612b7b9061288e565b801561298157601f811160018114612b945750505f9055565b5f83815260209020612bb1601f840160051c82016001830161296d565b505f8381526020812081855555505050565b601f8211156129c257805f5260205f20601f840160051c81016020851015612be85750805b612af9601f850160051c83018261296d565b67ffffffffffffffff831115612c1257612c12612834565b612c2683612c20835461288e565b83612bc3565b5f601f841160018114612c76575f8515612c405750838201355b7fffffffffffffffffffffffffffffffffffffffffffffffffffffffffffffffff600387901b1c1916600186901b178355612af9565b5f838152602081207fffffffffffffffffffffffffffffffffffffffffffffffffffffffffffffffe08716915b82811015612cc35786850135825560209485019460019092019101612ca3565b5086821015612cfe577fffffffffffffffffffffffffffffffffffffffffffffffffffffffffffffffff60f88860031b161c19848701351681555b505060018560011b0183555050505050565b68010000000000000000831115612d2957612d29612834565b805483825580841015612d64575f828152602090208481019082015b80821015612d6157612d5682612b70565b600182019150612d45565b50505b505f8181526020812083915b85811015612a0f57612d828386612b0f565b612d8d818386612bfa565b50506020929092019160019182019101612d70565b612dac8283612902565b67ffffffffffffffff811115612dc457612dc4612834565b612dce8184612985565b825f5260205f205f5b82811015612df357833582820155602090930192600101612dd7565b5050505060018101612e086020840184612902565b67ffffffffffffffff811115612e2057612e20612834565b612e2a8184612a53565b5f8381526020902092508060051c5f5b81811015612e8f575f5f5b6020811015612e8257612e71612e5a87612b00565b60ff908116600384901b90811b91901b1984161790565b602096909601959150600101612e45565b5085820155600101612e3a565b507fffffffffffffffffffffffffffffffffffffffffffffffffffffffffffffffe08216808303818414612eeb575f5f5b82811015612ee557612ed4612e5a88612b00565b602097909701969150600101612ec0565b50868401555b505050505050612efe6040830183612902565b6129c0818360028601612d10565b5f82357fffffffffffffffffffffffffffffffffffffffffffffffffffffffffffffff61833603018112612a49575f5ffd5b5f81358015158114611b23575f5ffd5b612f5782612b00565b60088110612f6757612f67612277565b815460ff82169150817fffffffffffffffffffffffffffffffffffffffffffffffffffffffffffffff00821617835560208401356fffffffffffffffffffffffffffffffff81168114612fb8575f5ffd5b70ffffffffffffffffffffffffffffffff008160081b16837fffffffffffffffffffffffffffffff000000000000000000000000000000000084161717845550505061305061300960408401612f3e565b8280547fffffffffffffffffffffffffffff00ffffffffffffffffffffffffffffffffff1691151560881b71ff000000000000000000000000000000000016919091179055565b6130a761305f60608401612f3e565b8280547fffffffffffffffffffffffffff00ffffffffffffffffffffffffffffffffffff1691151560901b72ff00000000000000000000000000000000000016919091179055565b6130b46080830183612b0f565b6129c0818360018601612bfa565b680100000000000000008311156130db576130db612834565b805483825580841015613185577f7fffffffffffffffffffffffffffffffffffffffffffffffffffffffffffffff81168114613119576131196127d0565b7f7fffffffffffffffffffffffffffffffffffffffffffffffffffffffffffffff8416841461314a5761314a6127d0565b815f5260205f208160011b81018560011b820191505b80821015613182575f825561317760018301612b70565b600282019150613160565b50505b505f8181526020812083915b85811015612a0f576131ac6131a68487612f0c565b83612f4e565b6020929092019160029190910190600101613191565b5f82357fffffffffffffffffffffffffffffffffffffffffffffffffffffffffffffff01833603018112612a49575f5ffd5b80545f8255801561298157815f5260205f206129c28282018261296d565b5f813560038110611b23575f5ffd5b6003821061323157613231612277565b805462ff00008360101b167fffffffffffffffffffffffffffffffffffffffffffffffffffffffffff00ffff8216178255505050565b6008821061327757613277612277565b805463ff0000008360181b167fffffffffffffffffffffffffffffffffffffffffffffffffffffffff00ffffff8216178255505050565b6132b782612f3e565b15157fffffffffffffffffffffffffffffffffffffffffffffffffffffffffffffff0082541660ff821681178355505061332d6132f660208401612f3e565b8280547fffffffffffffffffffffffffffffffffffffffffffffffffffffffffffff00ff1691151560081b61ff0016919091179055565b61334261333c60408401613212565b82613221565b61335761335160608401612b00565b82613267565b6133646080830183612b0f565b613372818360018601612bfa565b505060a0820135600282015561338b60c0830183612b0f565b613399818360038601612bfa565b50506133a860e0830183612902565b6129c08183600486016129c7565b680100000000000000008311156133cf576133cf612834565b8054838255808410156134a257806005026005810482146133f2576133f26127d0565b84600502600581048614613408576134086127d0565b5f8481526020902091820191015b8181101561349f575f815561342d60018201612b70565b5f60028201556003810180546134429061288e565b801561348957601f81116001811461345c575f8355613487565b5f83815260209020613479601f840160051c82016001830161296d565b505f83815260208120818555555b505b5050613497600482016131f4565b600501613416565b50505b505f8181526020812083915b85811015612a0f576134c96134c384876131c2565b836132ae565b60209290920191600591909101906001016134ae565b6134e98283612902565b67ffffffffffffffff81111561350157613501612834565b61350b8184612985565b825f5260205f205f5b8281101561353057833582820155602090930192600101613514565b5050505061354d6135446020840184612a17565b60018301612da2565b61355a6040830183612902565b6135688183600486016130c2565b50506135776060830183612902565b6135858183600586016130c2565b50506135946080830183612902565b6135a28183600686016133b6565b50506135b160a0830183612902565b6129c08183600786016133b656fea2646970667358221220f09f1bd9c8152827640b3e9826ef9f12a1064bae843aa180a1abedd1eb96d93064736f6c634300081c0033","linkReferences":{}},"methodIdentifiers":{"createRule(uint256,(uint256[],(uint256[],uint8[],bytes[]),(uint8,uint128,bool,bool,bytes)[],(uint8,uint128,bool,bool,bytes)[],(bool,bool,uint8,uint8,bytes,bytes32,string,uint256[])[],(bool,bool,uint8,uint8,bytes,bytes32,string,uint256[])[]))":"0660af21","deleteRule(uint256,uint256)":"a31c8ebb","getAllRules(uint256)":"266fc8a5","getRule(uint256,uint256)":"6d279ef8","updateRule(uint256,uint256,(uint256[],(uint256[],uint8[],bytes[]),(uint8,uint128,bool,bool,bytes)[],(uint8,uint128,bool,bool,bytes)[],(bool,bool,uint8,uint8,bytes,bytes32,string,uint256[])[],(bool,bool,uint8,uint8,bytes,bytes32,string,uint256[])[]))":"35025050"},"id":29}