{"abi":[{"type":"function","name":"addClosedPolicySubscriber","inputs":[{"name":"policyId","type":"uint256","internalType":"uint256"},{"name":"subscriber","type":"address","internalType":"address"}],"outputs":[],"stateMutability":"nonpayable"},{"type":"function","name":"createCallingFunction","inputs":[{"name":"policyId","type":"uint256","internalType":"uint256"},{"name":"functionSignature","type":"bytes4","internalType":"bytes4"},{"name":"pTypes","type":"uint8[]","internalType":"enum ParamTypes[]"},{"name":"callingFunctionName","type":"string","internalType":"string"},{"name":"encodedValues","type":"string","internalType":"string"}],"outputs":[{"name":"","type":"uint256","internalType":"uint256"}],"stateMutability":"nonpayable"},{"type":"function","name":"createForeignCall","inputs":[{"name":"_policyId","type":"uint256","internalType":"uint256"},{"name":"_foreignCall","type":"tuple","internalType":"struct ForeignCall","components":[{"name":"set","type":"bool","internalType":"bool"},{"name":"foreignCallAddress","type":"address","internalType":"address"},{"name":"signature","type":"bytes4","internalType":"bytes4"},{"name":"returnType","type":"uint8","internalType":"enum ParamTypes"},{"name":"foreignCallIndex","type":"uint256","internalType":"uint256"},{"name":"parameterTypes","type":"uint8[]","internalType":"enum ParamTypes[]"},{"name":"typeSpecificIndices","type":"int8[]","internalType":"int8[]"}]},{"name":"foreignCallName","type":"string","internalType":"string"}],"outputs":[{"name":"","type":"uint256","internalType":"uint256"}],"stateMutability":"nonpayable"},{"type":"function","name":"createTracker","inputs":[{"name":"policyId","type":"uint256","internalType":"uint256"},{"name":"tracker","type":"tuple","internalType":"struct Trackers","components":[{"name":"set","type":"bool","internalType":"bool"},{"name":"pType","type":"uint8","internalType":"enum ParamTypes"},{"name":"trackerValue","type":"bytes","internalType":"bytes"},{"name":"trackerIndex","type":"uint256","internalType":"uint256"}]},{"name":"trackerName","type":"string","internalType":"string"}],"outputs":[{"name":"","type":"uint256","internalType":"uint256"}],"stateMutability":"nonpayable"},{"type":"function","name":"deleteCallingFunction","inputs":[{"name":"policyId","type":"uint256","internalType":"uint256"},{"name":"callingFunctionId","type":"uint256","internalType":"uint256"}],"outputs":[],"stateMutability":"nonpayable"},{"type":"function","name":"deleteForeignCall","inputs":[{"name":"policyId","type":"uint256","internalType":"uint256"},{"name":"foreignCallId","type":"uint256","internalType":"uint256"}],"outputs":[],"stateMutability":"nonpayable"},{"type":"function","name":"deleteTracker","inputs":[{"name":"policyId","type":"uint256","internalType":"uint256"},{"name":"trackerIndex","type":"uint256","internalType":"uint256"}],"outputs":[],"stateMutability":"nonpayable"},{"type":"function","name":"getAllCallingFunctions","inputs":[{"name":"policyId","type":"uint256","internalType":"uint256"}],"outputs":[{"name":"","type":"tuple[]","internalType":"struct CallingFunctionStorageSet[]","components":[{"name":"set","type":"bool","internalType":"bool"},{"name":"signature","type":"bytes4","internalType":"bytes4"},{"name":"parameterTypes","type":"uint8[]","internalType":"enum ParamTypes[]"}]}],"stateMutability":"view"},{"type":"function","name":"getAllForeignCalls","inputs":[{"name":"policyId","type":"uint256","internalType":"uint256"}],"outputs":[{"name":"fc","type":"tuple[]","internalType":"struct ForeignCall[]","components":[{"name":"set","type":"bool","internalType":"bool"},{"name":"foreignCallAddress","type":"address","internalType":"address"},{"name":"signature","type":"bytes4","internalType":"bytes4"},{"name":"returnType","type":"uint8","internalType":"enum ParamTypes"},{"name":"foreignCallIndex","type":"uint256","internalType":"uint256"},{"name":"parameterTypes","type":"uint8[]","internalType":"enum ParamTypes[]"},{"name":"typeSpecificIndices","type":"int8[]","internalType":"int8[]"}]}],"stateMutability":"view"},{"type":"function","name":"getAllTrackers","inputs":[{"name":"policyId","type":"uint256","internalType":"uint256"}],"outputs":[{"name":"","type":"tuple[]","internalType":"struct Trackers[]","components":[{"name":"set","type":"bool","internalType":"bool"},{"name":"pType","type":"uint8","internalType":"enum ParamTypes"},{"name":"trackerValue","type":"bytes","internalType":"bytes"},{"name":"trackerIndex","type":"uint256","internalType":"uint256"}]}],"stateMutability":"view"},{"type":"function","name":"getCallingFunction","inputs":[{"name":"policyId","type":"uint256","internalType":"uint256"},{"name":"callingFunctionId","type":"uint256","internalType":"uint256"}],"outputs":[{"name":"","type":"tuple","internalType":"struct CallingFunctionStorageSet","components":[{"name":"set","type":"bool","internalType":"bool"},{"name":"signature","type":"bytes4","internalType":"bytes4"},{"name":"parameterTypes","type":"uint8[]","internalType":"enum ParamTypes[]"}]}],"stateMutability":"view"},{"type":"function","name":"getCallingFunctionMetadata","inputs":[{"name":"policyId","type":"uint256","internalType":"uint256"},{"name":"callingFunctionId","type":"uint256","internalType":"uint256"}],"outputs":[{"name":"","type":"tuple","internalType":"struct CallingFunctionHashMapping","components":[{"name":"callingFunction","type":"string","internalType":"string"},{"name":"signature","type":"bytes4","internalType":"bytes4"},{"name":"encodedValues","type":"string","internalType":"string"}]}],"stateMutability":"view"},{"type":"function","name":"getForeignCall","inputs":[{"name":"policyId","type":"uint256","internalType":"uint256"},{"name":"foreignCallId","type":"uint256","internalType":"uint256"}],"outputs":[{"name":"fc","type":"tuple","internalType":"struct ForeignCall","components":[{"name":"set","type":"bool","internalType":"bool"},{"name":"foreignCallAddress","type":"address","internalType":"address"},{"name":"signature","type":"bytes4","internalType":"bytes4"},{"name":"returnType","type":"uint8","internalType":"enum ParamTypes"},{"name":"foreignCallIndex","type":"uint256","internalType":"uint256"},{"name":"parameterTypes","type":"uint8[]","internalType":"enum ParamTypes[]"},{"name":"typeSpecificIndices","type":"int8[]","internalType":"int8[]"}]}],"stateMutability":"view"},{"type":"function","name":"getForeignCallMetadata","inputs":[{"name":"policyId","type":"uint256","internalType":"uint256"},{"name":"foreignCallId","type":"uint256","internalType":"uint256"}],"outputs":[{"name":"fcMeta","type":"string","internalType":"string"}],"stateMutability":"view"},{"type":"function","name":"getTracker","inputs":[{"name":"policyId","type":"uint256","internalType":"uint256"},{"name":"index","type":"uint256","internalType":"uint256"}],"outputs":[{"name":"tracker","type":"tuple","internalType":"struct Trackers","components":[{"name":"set","type":"bool","internalType":"bool"},{"name":"pType","type":"uint8","internalType":"enum ParamTypes"},{"name":"trackerValue","type":"bytes","internalType":"bytes"},{"name":"trackerIndex","type":"uint256","internalType":"uint256"}]}],"stateMutability":"view"},{"type":"function","name":"getTrackerMetadata","inputs":[{"name":"policyId","type":"uint256","internalType":"uint256"},{"name":"trackerId","type":"uint256","internalType":"uint256"}],"outputs":[{"name":"trMeta","type":"string","internalType":"string"}],"stateMutability":"view"},{"type":"function","name":"isClosedPolicySubscriber","inputs":[{"name":"policyId","type":"uint256","internalType":"uint256"},{"name":"subscriber","type":"address","internalType":"address"}],"outputs":[{"name":"","type":"bool","internalType":"bool"}],"stateMutability":"view"},{"type":"function","name":"removeClosedPolicySubscriber","inputs":[{"name":"policyId","type":"uint256","internalType":"uint256"},{"name":"subscriber","type":"address","internalType":"address"}],"outputs":[],"stateMutability":"nonpayable"},{"type":"function","name":"updateCallingFunction","inputs":[{"name":"policyId","type":"uint256","internalType":"uint256"},{"name":"callingFunctionID","type":"uint256","internalType":"uint256"},{"name":"functionSignature","type":"bytes4","internalType":"bytes4"},{"name":"pTypes","type":"uint8[]","internalType":"enum ParamTypes[]"}],"outputs":[{"name":"","type":"uint256","internalType":"uint256"}],"stateMutability":"nonpayable"},{"type":"function","name":"updateForeignCall","inputs":[{"name":"policyId","type":"uint256","internalType":"uint256"},{"name":"foreignCallId","type":"uint256","internalType":"uint256"},{"name":"foreignCall","type":"tuple","internalType":"struct ForeignCall","components":[{"name":"set","type":"bool","internalType":"bool"},{"name":"foreignCallAddress","type":"address","internalType":"address"},{"name":"signature","type":"bytes4","internalType":"bytes4"},{"name":"returnType","type":"uint8","internalType":"enum ParamTypes"},{"name":"foreignCallIndex","type":"uint256","internalType":"uint256"},{"name":"parameterTypes","type":"uint8[]","internalType":"enum ParamTypes[]"},{"name":"typeSpecificIndices","type":"int8[]","internalType":"int8[]"}]}],"outputs":[{"name":"fc","type":"tuple","internalType":"struct ForeignCall","components":[{"name":"set","type":"bool","internalType":"bool"},{"name":"foreignCallAddress","type":"address","internalType":"address"},{"name":"signature","type":"bytes4","internalType":"bytes4"},{"name":"returnType","type":"uint8","internalType":"enum ParamTypes"},{"name":"foreignCallIndex","type":"uint256","internalType":"uint256"},{"name":"parameterTypes","type":"uint8[]","internalType":"enum ParamTypes[]"},{"name":"typeSpecificIndices","type":"int8[]","internalType":"int8[]"}]}],"stateMutability":"nonpayable"},{"type":"function","name":"updateTracker","inputs":[{"name":"policyId","type":"uint256","internalType":"uint256"},{"name":"trackerIndex","type":"uint256","internalType":"uint256"},{"name":"tracker","type":"tuple","internalType":"struct Trackers","components":[{"name":"set","type":"bool","internalType":"bool"},{"name":"pType","type":"uint8","internalType":"enum ParamTypes"},{"name":"trackerValue","type":"bytes","internalType":"bytes"},{"name":"trackerIndex","type":"uint256","internalType":"uint256"}]}],"outputs":[],"stateMutability":"nonpayable"},{"type":"event","name":"AssociatedRuleDeleted","inputs":[{"name":"policyId","type":"uint256","indexed":true,"internalType":"uint256"},{"name":"foreignCallId","type":"uint256","indexed":true,"internalType":"uint256"}],"anonymous":false},{"type":"event","name":"CallingFunctionCreated","inputs":[{"name":"policyId","type":"uint256","indexed":true,"internalType":"uint256"},{"name":"callingFunctionId","type":"uint256","indexed":true,"internalType":"uint256"}],"anonymous":false},{"type":"event","name":"CallingFunctionDeleted","inputs":[{"name":"policyId","type":"uint256","indexed":true,"internalType":"uint256"},{"name":"callingFunctionId","type":"uint256","indexed":true,"internalType":"uint256"}],"anonymous":false},{"type":"event","name":"CallingFunctionUpdated","inputs":[{"name":"policyId","type":"uint256","indexed":true,"internalType":"uint256"},{"name":"callingFunctionId","type":"uint256","indexed":true,"internalType":"uint256"}],"anonymous":false},{"type":"event","name":"ForeignCallCreated","inputs":[{"name":"policyId","type":"uint256","indexed":true,"internalType":"uint256"},{"name":"foreignCallId","type":"uint256","indexed":true,"internalType":"uint256"}],"anonymous":false},{"type":"event","name":"ForeignCallDeleted","inputs":[{"name":"policyId","type":"uint256","indexed":true,"internalType":"uint256"},{"name":"foreignCallId","type":"uint256","indexed":true,"internalType":"uint256"}],"anonymous":false},{"type":"event","name":"ForeignCallUpdated","inputs":[{"name":"policyId","type":"uint256","indexed":true,"internalType":"uint256"},{"name":"foreignCallId","type":"uint256","indexed":true,"internalType":"uint256"}],"anonymous":false},{"type":"event","name":"PolicySubsciberAdded","inputs":[{"name":"policyId","type":"uint256","indexed":true,"internalType":"uint256"},{"name":"subscriber","type":"address","indexed":true,"internalType":"address"}],"anonymous":false},{"type":"event","name":"PolicySubsciberRemoved","inputs":[{"name":"policyId","type":"uint256","indexed":true,"internalType":"uint256"},{"name":"subscriber","type":"address","indexed":true,"internalType":"address"}],"anonymous":false},{"type":"event","name":"TrackerCreated","inputs":[{"name":"policyId","type":"uint256","indexed":true,"internalType":"uint256"},{"name":"trackerId","type":"uint256","indexed":true,"internalType":"uint256"}],"anonymous":false},{"type":"event","name":"TrackerDeleted","inputs":[{"name":"policyId","type":"uint256","indexed":true,"internalType":"uint256"},{"name":"trackerId","type":"uint256","indexed":true,"internalType":"uint256"}],"anonymous":false},{"type":"event","name":"TrackerUpdated","inputs":[{"name":"policyId","type":"uint256","indexed":true,"internalType":"uint256"},{"name":"trackerId","type":"uint256","indexed":true,"internalType":"uint256"}],"anonymous":false}],"bytecode":{"object":"0x6080604052348015600e575f5ffd5b506142408061001c5f395ff3fe608060405234801561000f575f5ffd5b506004361061016e575f3560e01c80637374c994116100d2578063d82260c811610088578063f3e7dfc311610063578063f3e7dfc31461034c578063f5c9a5a61461036c578063f69187ee1461037f575f5ffd5b8063d82260c8146102f9578063da7d5d281461030c578063eeeb60471461032c575f5ffd5b8063a82c9e07116100b8578063a82c9e07146102b3578063b0955878146102c6578063bfc85236146102d9575f5ffd5b80637374c99414610280578063a3937e9914610293575f5ffd5b806354ba0f371161012757806356f3b05f1161010d57806356f3b05f1461022d5780636edc18081461024d57806372a340d714610260575f5ffd5b806354ba0f37146101f957806356f39ae31461021a575f5ffd5b80633bf07314116101575780633bf073141461019a5780633fafdf6e146101c35780634c957ad9146101d6575f5ffd5b80632711fe6b146101725780632dc2ac0d14610187575b5f5ffd5b6101856101803660046132b7565b610392565b005b6101856101953660046132f7565b610607565b6101ad6101a8366004613343565b61072c565b6040516101ba91906133af565b60405180910390f35b6101856101d1366004613343565b6107db565b6101e96101e43660046132b7565b610bdf565b60405190151581526020016101ba565b61020c61020736600461341d565b610c25565b6040519081526020016101ba565b61020c610228366004613603565b610de7565b61024061023b366004613660565b611235565b6040516101ba9190613724565b61020c61025b3660046137a5565b61143a565b61027361026e366004613343565b61156b565b6040516101ba91906137e1565b61018561028e3660046132b7565b6116a7565b6102a66102a1366004613660565b611898565b6040516101ba9190613912565b6101856102c1366004613343565b611bab565b61020c6102d4366004613a1c565b611d18565b6102ec6102e7366004613343565b611e4c565b6040516101ba9190613b18565b610185610307366004613343565b611f50565b61031f61031a366004613343565b6120c8565b6040516101ba9190613b2a565b61033f61033a366004613343565b6122fa565b6040516101ba9190613b3c565b61035f61035a366004613660565b61248e565b6040516101ba9190613bbe565b61031f61037a366004613c33565b61265a565b6101ad61038d366004613343565b61284a565b60405160248101839052336044820181905283915f90819061044f907f901cee1100000000000000000000000000000000000000000000000000000000906064015b604080517fffffffffffffffffffffffffffffffffffffffffffffffffffffffffffffffe08184030181529190526020810180517bffffffffffffffffffffffffffffffffffffffffffffffffffffffff167f901cee1100000000000000000000000000000000000000000000000000000000179052612854565b915091505f82156104dd57600482511061046e57506020810151610471565b505f5b806104dd576040517f08c379a000000000000000000000000000000000000000000000000000000000815260206004820152601860248201527f4e6f7420417574686f72697a656420546f20506f6c696379000000000000000060448201526064015b60405180910390fd5b6104e687612915565b73ffffffffffffffffffffffffffffffffffffffff861661056657604080518082018252601c81527f5a65726f20416464726573732043616e6e6f742042652041646d696e00000000602082015290517f08c379a00000000000000000000000000000000000000000000000000000000081526104d491906004016133af565b60016105706129a4565b5f8981526001919091016020908152604080832073ffffffffffffffffffffffffffffffffffffffff8b16808552600590910190925280832080547fffffffffffffffffffffffffffffffffffffffffffffffffffffffffffffff001694151594909417909355915189917f790a3138425334d31f4463869c596f58d51e891ecb665b5090fa0ae9ed8b6fd291a350505050505050565b60405160248101849052336044820181905284915f90819061064d907f901cee1100000000000000000000000000000000000000000000000000000000906064016103d4565b915091505f82156106d657600482511061066c5750602081015161066f565b505f5b806106d6576040517f08c379a000000000000000000000000000000000000000000000000000000000815260206004820152601860248201527f4e6f7420417574686f72697a656420546f20506f6c696379000000000000000060448201526064016104d4565b5f6106df6129d1565b90506106f5818a8a6106f08b613c84565b6129fe565b60405188908a907f7d0cd6a27b5d0487bca14f5b3852217db2c9951f3ad91646fe09e0c19abcef50905f90a3505050505050505050565b6060610736612ae4565b5f8481526020918252604080822085835290925220805461075690613d25565b80601f016020809104026020016040519081016040528092919081815260200182805461078290613d25565b80156107cd5780601f106107a4576101008083540402835291602001916107cd565b820191905f5260205f20905b8154815290600101906020018083116107b057829003601f168201915b505050505090505b92915050565b60405160248101839052336044820181905283915f908190610821907f901cee1100000000000000000000000000000000000000000000000000000000906064016103d4565b915091505f82156108aa57600482511061084057506020810151610843565b505f5b806108aa576040517f08c379a000000000000000000000000000000000000000000000000000000000815260206004820152601860248201527f4e6f7420417574686f72697a656420546f20506f6c696379000000000000000060448201526064016104d4565b6108b387612915565b5f6108bc6129a4565b5f8981526001919091016020526040812091506108d7612b11565b5f8a8152600191909101602090815260408083208b8452909152902054610100900460e01b9050610906612b11565b5f8a81526001918201602090815260408083208c8452909152812080547fffffffffffffffffffffffffffffffffffffffffffffffffffffff00000000001681559161095490830182612fc2565b506109649050600383015f612fe4565b7fffffffff0000000000000000000000000000000000000000000000000000000081165f90815260018301602052604081208190555b7fffffffff0000000000000000000000000000000000000000000000000000000082165f908152600284016020526040902054811015610ac3576109dc612b3e565b5f8b8152600191820160209081526040808320858452909152812080547fffffffffffffffffffffffffffffffffffffffffffffffffffffffffffffff0016815591820181610a2b8282613006565b600182015f610a3a8282613006565b610a47600183015f612fc2565b610a54600283015f613021565b50610a649050600483015f61303c565b610a71600583015f61303c565b610a7e600683015f613057565b610a8b600783015f613057565b50506040518b92508c91507fc2ebaca961b98bedef10bce18fc3c8bdcba15a62d52feb7f59578c9998e1d42a905f90a360010161099a565b507fffffffff0000000000000000000000000000000000000000000000000000000081165f9081526002830160205260408120610aff91613006565b5f610b098a61248e565b90505f5b8151811015610ba657818181518110610b2857610b28613d70565b60200260200101515f015115610b9e5783600101600201828281518110610b5157610b51613d70565b60209081029190910181015181015182546001810184555f938452919092206008820401805463ffffffff60079093166004026101000a928302191660e09390931c919091029190911790555b600101610b0d565b5060405189908b907f5b5ef7f155302df6e9d2c1a0610671ea5b89849a316a1f75018ab14fdd5a8bb6905f90a350505050505050505050565b5f610be86129a4565b5f9384526001016020908152604080852073ffffffffffffffffffffffffffffffffffffffff949094168552600590930190525090205460ff1690565b5f84335f5f610c6763901cee1160e01b85856040516024016103d492919091825273ffffffffffffffffffffffffffffffffffffffff16602082015260400190565b915091505f8215610cf0576004825110610c8657506020810151610c89565b505f5b80610cf0576040517f08c379a000000000000000000000000000000000000000000000000000000000815260206004820152601860248201527f4e6f7420417574686f72697a656420546f20506f6c696379000000000000000060448201526064016104d4565b610cf98a612915565b5f610d0a60408b0160208c01613d9d565b73ffffffffffffffffffffffffffffffffffffffff1603610d8a57604080518082018252601c81527f5a65726f20416464726573732043616e6e6f742042652041646d696e00000000602082015290517f08c379a00000000000000000000000000000000000000000000000000000000081526104d491906004016133af565b5f610d948b612b6b565b9050610da18b8b83612b9d565b610dad8b828b8b612bd9565b60405181908c907f9006068daf408b7e36a22c789f04c4ba9c6c638a6cf8438c2250583384f2192f905f90a39a9950505050505050505050565b5f84335f5f610e2963901cee1160e01b85856040516024016103d492919091825273ffffffffffffffffffffffffffffffffffffffff16602082015260400190565b915091505f8215610eb2576004825110610e4857506020810151610e4b565b505f5b80610eb2576040517f08c379a000000000000000000000000000000000000000000000000000000000815260206004820152601860248201527f4e6f7420417574686f72697a656420546f20506f6c696379000000000000000060448201526064016104d4565b610ebb8a612915565b5f610ec4612b11565b5f8c815260018201602090815260408083208e845290915290208054919250907fffffffff000000000000000000000000000000000000000000000000000000008b811661010090920460e01b1614610f9f576040517f08c379a000000000000000000000000000000000000000000000000000000000815260206004820152603460248201527f44656c6574652063616c6c696e672066756e6374696f6e206265666f7265207560448201527f70646174696e6720746f2061206e6577206f6e6500000000000000000000000060648201526084016104d4565b88516001820154111561105a576040517f08c379a000000000000000000000000000000000000000000000000000000000815260206004820152604660248201527f4e657720706172616d65746572207479706573206d757374206265206f66206760448201527f726561746572206f7220657175616c206c656e67746820746f20746865206f7260648201527f6967696e616c0000000000000000000000000000000000000000000000000000608482015260a4016104d4565b5f5b600182015481101561116c5781600101818154811061107d5761107d613d70565b905f5260205f2090602091828204019190069054906101000a900460ff1660078111156110ac576110ac613677565b8a82815181106110be576110be613d70565b602002602001015160078111156110d7576110d7613677565b14611164576040517f08c379a000000000000000000000000000000000000000000000000000000000815260206004820152603c60248201527f4e657720706172616d65746572207479706573206d757374206265206f66207460448201527f68652073616d65207479706520617320746865206f726967696e616c0000000060648201526084016104d4565b60010161105c565b508851600182015410156111f95760018101545b89518110156111f757816001018a828151811061119f5761119f613d70565b60209081029190910181015182546001810184555f9384529282902091830490910180549192909160ff601f9092166101000a9182021916908360078111156111ea576111ea613677565b0217905550600101611180565b505b6040518b908d907f2b77470866bba4d7ed745d96afff93047d8aad605c3a97a181658f934bda526f905f90a350989a9950505050505050505050565b60605f6112406129d1565b5f848152602082905260408120549192508167ffffffffffffffff81111561126a5761126a6134bc565b6040519080825280602002602001820160405280156112c557816020015b6112b260408051608081019091525f80825260208201908152602001606081526020015f81525090565b8152602001906001900390816112885790505b5090505f60015b83811161142f575f878152600186016020908152604080832084845290915290205460ff161561141d575f8781526001860160209081526040808320848452825291829020825160808101909352805460ff80821615158552919284019161010090910416600781111561134257611342613677565b600781111561135357611353613677565b815260200160018201805461136790613d25565b80601f016020809104026020016040519081016040528092919081815260200182805461139390613d25565b80156113de5780601f106113b5576101008083540402835291602001916113de565b820191905f5260205f20905b8154815290600101906020018083116113c157829003601f168201915b5050505050815260200160028201548152505083838151811061140357611403613d70565b6020026020010181905250818061141990613de3565b9250505b8061142781613de3565b9150506112cc565b509095945050505050565b5f84335f5f61147c63901cee1160e01b85856040516024016103d492919091825273ffffffffffffffffffffffffffffffffffffffff16602082015260400190565b915091505f821561150557600482511061149b5750602081015161149e565b505f5b80611505576040517f08c379a000000000000000000000000000000000000000000000000000000000815260206004820152601860248201527f4e6f7420417574686f72697a656420546f20506f6c696379000000000000000060448201526064016104d4565b61150e8a612915565b5f6115188b612c0b565b90506115258b828c612c15565b6115318b828b8b612c35565b60405181908c907f1ea0bdfd9680c9b8e4038e41083d7800dca81e6f55a15ce48d858ebb70693d2a905f90a39a9950505050505050505050565b61159560408051608081019091525f80825260208201908152602001606081526020015f81525090565b5f61159e6129d1565b5f8581526001820160209081526040808320878452825291829020825160808101909352805460ff80821615158552949550929390929184019161010090041660078111156115ef576115ef613677565b600781111561160057611600613677565b815260200160018201805461161490613d25565b80601f016020809104026020016040519081016040528092919081815260200182805461164090613d25565b801561168b5780601f106116625761010080835404028352916020019161168b565b820191905f5260205f20905b81548152906001019060200180831161166e57829003601f168201915b5050505050815260200160028201548152505091505092915050565b60405160248101839052336044820181905283915f9081906116ed907f901cee1100000000000000000000000000000000000000000000000000000000906064016103d4565b915091505f821561177657600482511061170c5750602081015161170f565b505f5b80611776576040517f08c379a000000000000000000000000000000000000000000000000000000000815260206004820152601860248201527f4e6f7420417574686f72697a656420546f20506f6c696379000000000000000060448201526064016104d4565b61177f87612915565b73ffffffffffffffffffffffffffffffffffffffff86166117ff57604080518082018252601c81527f5a65726f20416464726573732043616e6e6f742042652041646d696e00000000602082015290517f08c379a00000000000000000000000000000000000000000000000000000000081526104d491906004016133af565b6118076129a4565b5f8881526001919091016020908152604080832073ffffffffffffffffffffffffffffffffffffffff8a16808552600590910190925280832080547fffffffffffffffffffffffffffffffffffffffffffffffffffffffffffffff0016905551909189917febc594f3b2a99e6227cfcc8bd404d054b6cc3dad7f287e1944cb88681a05c14c9190a350505050505050565b60605f6118a3612c3f565b5f848152602091909152604081205491508167ffffffffffffffff8111156118cd576118cd6134bc565b60405190808252806020026020018201604052801561193c57816020015b6119296040805160e0810182525f8082526020820181905291810182905290606082019081526020015f815260200160608152602001606081525090565b8152602001906001900390816118eb5790505b5090505f805b838111611ba157611951612c3f565b5f8781526001919091016020908152604080832084845290915290205460ff1615611b8f5761197e612c3f565b5f87815260019190910160209081526040808320848452825291829020825160e08082018552825460ff80821615158452610100820473ffffffffffffffffffffffffffffffffffffffff16958401959095527501000000000000000000000000000000000000000000810490911b7fffffffff00000000000000000000000000000000000000000000000000000000169482019490945292909160608401917901000000000000000000000000000000000000000000000000009004166007811115611a4d57611a4d613677565b6007811115611a5e57611a5e613677565b81526020016001820154815260200160028201805480602002602001604051908101604052809291908181526020018280548015611ae857602002820191905f5260205f20905f905b82829054906101000a900460ff166007811115611ac657611ac6613677565b815260206001928301818104948501949093039092029101808411611aa75790505b5050505050815260200160038201805480602002602001604051908101604052809291908181526020018280548015611b5a57602002820191905f5260205f20905f905b825461010083900a90045f0b815260206001928301818104948501949093039092029101808411611b2c5790505b505050505081525050838381518110611b7557611b75613d70565b60200260200101819052508180611b8b90613de3565b9250505b80611b9981613de3565b915050611942565b5090949350505050565b60405160248101839052336044820181905283915f908190611bf1907f901cee1100000000000000000000000000000000000000000000000000000000906064016103d4565b915091505f8215611c7a576004825110611c1057506020810151611c13565b505f5b80611c7a576040517f08c379a000000000000000000000000000000000000000000000000000000000815260206004820152601860248201527f4e6f7420417574686f72697a656420546f20506f6c696379000000000000000060448201526064016104d4565b611c8387612915565b611c8b6129d1565b5f8881526001918201602090815260408083208a8452909152812080547fffffffffffffffffffffffffffffffffffffffffffffffffffffffffffff000016815591611cd990830182613075565b600282015f9055505085877ed9d817df2d853a886f2cbe7a671a676890264711abbb9d2c3ee79fb1bb653a60405160405180910390a350505050505050565b5f85335f5f611d5a63901cee1160e01b85856040516024016103d492919091825273ffffffffffffffffffffffffffffffffffffffff16602082015260400190565b915091505f8215611de3576004825110611d7957506020810151611d7c565b505f5b80611de3576040517f08c379a000000000000000000000000000000000000000000000000000000000815260206004820152601860248201527f4e6f7420417574686f72697a656420546f20506f6c696379000000000000000060448201526064016104d4565b611dec8b612915565b5f611df68c612c6c565b9050611e048c828d8d612c76565b611e118c828d8c8c612ce8565b60405181908d907f24103d2c348f3e3042849986bfdaee686941377c8a32bbe5b6cc13ad09c8af83905f90a39b9a5050505050505050505050565b60408051606080820183525f808352602083015291810191909152611e6f612b11565b5f8481526001918201602090815260408083208684528252918290208251606081018452815460ff811615158252610100900460e01b7fffffffff000000000000000000000000000000000000000000000000000000001681840152938101805484518185028101850186528181529294860193830182828015611f3f57602002820191905f5260205f20905f905b82829054906101000a900460ff166007811115611f1d57611f1d613677565b815260206001928301818104948501949093039092029101808411611efe5790505b505050505081525050905092915050565b60405160248101839052336044820181905283915f908190611f96907f901cee1100000000000000000000000000000000000000000000000000000000906064016103d4565b915091505f821561201f576004825110611fb557506020810151611fb8565b505f5b8061201f576040517f08c379a000000000000000000000000000000000000000000000000000000000815260206004820152601860248201527f4e6f7420417574686f72697a656420546f20506f6c696379000000000000000060448201526064016104d4565b61202887612915565b612030612c3f565b5f8881526001918201602090815260408083208a8452909152812080547fffffffffffff00000000000000000000000000000000000000000000000000001681559182018190556120846002830182612fc2565b612091600383015f612fc2565b5050604051869088907f19d0bd0cc4d63f9108c93b0abfd7408498ecbc73713f6bb3a2862d9b9d1983d8905f90a350505050505050565b6121066040805160e0810182525f8082526020820181905291810182905290606082019081526020015f815260200160608152602001606081525090565b61210e612c3f565b5f84815260019190910160209081526040808320858452825291829020825160e08082018552825460ff80821615158452610100820473ffffffffffffffffffffffffffffffffffffffff16958401959095527501000000000000000000000000000000000000000000810490911b7fffffffff000000000000000000000000000000000000000000000000000000001694820194909452929091606084019179010000000000000000000000000000000000000000000000000090041660078111156121dd576121dd613677565b60078111156121ee576121ee613677565b8152602001600182015481526020016002820180548060200260200160405190810160405280929190818152602001828054801561227857602002820191905f5260205f20905f905b82829054906101000a900460ff16600781111561225657612256613677565b8152602060019283018181049485019490930390920291018084116122375790505b5050505050815260200160038201805480602002602001604051908101604052809291908181526020018280548015611f3f57602002820191905f5260205f20905f905b825461010083900a90045f0b8152602060019283018181049485019490930390920291018084116122bc579050505050505081525050905092915050565b60408051606080820183528082525f60208301529181019190915261231d612d71565b5f8481526020918252604080822085835290925281902081516060810190925280548290829061234c90613d25565b80601f016020809104026020016040519081016040528092919081815260200182805461237890613d25565b80156123c35780601f1061239a576101008083540402835291602001916123c3565b820191905f5260205f20905b8154815290600101906020018083116123a657829003601f168201915b5050509183525050600182015460e01b7fffffffff0000000000000000000000000000000000000000000000000000000016602082015260028201805460409092019161240f90613d25565b80601f016020809104026020016040519081016040528092919081815260200182805461243b90613d25565b8015611f3f5780601f1061245d57610100808354040283529160200191611f3f565b820191905f5260205f20905b8154815290600101906020018083116124695750505091909252509195945050505050565b60605f612499612b11565b5f848152602082905260408120549192508167ffffffffffffffff8111156124c3576124c36134bc565b60405190808252806020026020018201604052801561250f57816020015b60408051606080820183525f8083526020830152918101919091528152602001906001900390816124e15790505b5090505f60015b83811161142f575f878152600186016020908152604080832084845290915290205460ff1615612648575f8781526001868101602090815260408084208585528252928390208351606081018552815460ff811615158252610100900460e01b7fffffffff00000000000000000000000000000000000000000000000000000000168184015292810180548551818502810185018752818152949592949286019383018282801561261357602002820191905f5260205f20905f905b82829054906101000a900460ff1660078111156125f1576125f1613677565b8152602060019283018181049485019490930390920291018084116125d25790505b50505050508152505083838151811061262e5761262e613d70565b6020026020010181905250818061264490613de3565b9250505b8061265281613de3565b915050612516565b6126986040805160e0810182525f8082526020820181905291810182905290606082019081526020015f815260200160608152602001606081525090565b60405160248101859052336044820181905285915f9081906126de907f901cee1100000000000000000000000000000000000000000000000000000000906064016103d4565b915091505f82156127675760048251106126fd57506020810151612700565b505f5b80612767576040517f08c379a000000000000000000000000000000000000000000000000000000000815260206004820152601860248201527f4e6f7420417574686f72697a656420546f20506f6c696379000000000000000060448201526064016104d4565b61277089612915565b61277987613e82565b602081015190965073ffffffffffffffffffffffffffffffffffffffff1661280057604080518082018252601c81527f5a65726f20416464726573732043616e6e6f742042652041646d696e00000000602082015290517f08c379a00000000000000000000000000000000000000000000000000000000081526104d491906004016133af565b6080860188905261281289888a612b9d565b60405188908a907f82132283659aa079ae6d599fbbe109c1bfb961fc5bbbb0a98a343b4ea6dc3e00905f90a350505050509392505050565b6060610736612d9e565b5f60605f612860612dcb565b7fffffffff0000000000000000000000000000000000000000000000000000000086165f908152602082905260409081902054905191925073ffffffffffffffffffffffffffffffffffffffff169081906128bc908790613f3e565b5f60405180830381855af49150503d805f81146128f4576040519150601f19603f3d011682016040523d82523d5f602084013e6128f9565b606091505b5090945092508361290c57825160208401fd5b50509250929050565b61291d6129a4565b5f8281526001919091016020526040902060040154610100900460ff16156129a1576040517f08c379a000000000000000000000000000000000000000000000000000000000815260206004820152601f60248201527f4e6f7420616c6c6f77656420666f722063656d656e74656420706f6c6963790060448201526064016104d4565b50565b5f806107d560017ff9dbd639dd2ea165d77dd4c51dec420100d51ceacf023b1c40faa045ba8f9a65613f54565b5f806107d560017f438102ff677bc3f21830c58117a05d6b953b31e3ea339da3f17957cd3941a690613f54565b6001808252606082018390525f848152908501602090815260408083208584528252909120825181549015157fffffffffffffffffffffffffffffffffffffffffffffffffffffffffffffff00821681178355928401518493909183917fffffffffffffffffffffffffffffffffffffffffffffffffffffffffffff00ff167fffffffffffffffffffffffffffffffffffffffffffffffffffffffffffff000090911617610100836007811115612ab757612ab7613677565b021790555060408201516001820190612ad09082613fb0565b506060820151816002015590505050505050565b5f806107d560017fc6d0732f7ed4c7ec3d1a6580f5e91e95dcc3d159872b5f4e9d9b8e65d3b720f2613f54565b5f806107d560017fdc82e9666de28bef254c770aa394fdb200d98373b70390c27adec32819f8f266613f54565b5f806107d560017f5c91f63a4ffcbd372b8ec622fd1fcaaa601b66330afdb30e5c292dd9123f20b0613f54565b5f5f612b75612c3f565b5f848152602082905260408120805492935091612b9190613de3565b91829055509392505050565b5f612ba6612c3f565b90505f612bb284613e82565b608081018490529050612bc58582612df8565b505f93845260205260409092209190915550565b8181612be3612d9e565b5f878152602091825260408082208883529092522091612c049190836140c7565b5050505050565b5f5f612b756129d1565b5f612c1e6129d1565b9050612c2f8185856106f086613c84565b50505050565b8181612be3612ae4565b5f806107d560017f1f3305601ed940efccf797d76856e5fe70659a8a6905d64c9f236321df91e718613f54565b5f5f612b75612b11565b5f612c7f612b11565b5f868152600182810160209081526040808420898552825290922080547fffffffffffffffffffffffffffffffffffffffffffffffffffffff00000000001661010060e089901c0217821781558551939450612ce0939101918501906130ac565b505050505050565b5f612cf1612d71565b5f878152602082815260408083208984529091529020909150612d148482613fb0565b505f8681526020828152604080832088845290915290206001810180547fffffffffffffffffffffffffffffffffffffffffffffffffffffffff000000001660e087901c179055600201612d688382613fb0565b50505050505050565b5f806107d560017fb88f46389dea4b934f6c24412aa4a67e6afeeee9cd7e06827b5b8f09c0e7d7ea613f54565b5f806107d560017f680281604e63223dcddb1c0e3af179db8bd5c81752348dc75dc7ed88d927353c613f54565b5f806107d560017fbe498a3b14fd79a48c3c9af86ff14271ed497d09071013334028d28e7791db20613f54565b8060c00151518160a001515114612e1157612e116141dd565b6001815280612e1e612c3f565b5f848152600191909101602090815260408083206080860151845282529182902083518154928501519385015160e01c7501000000000000000000000000000000000000000000027fffffffffffffff00000000ffffffffffffffffffffffffffffffffffffffffff73ffffffffffffffffffffffffffffffffffffffff909516610100027fffffffffffffffffffffff0000000000000000000000000000000000000000ff921515929092167fffffffffffffffffffffff00000000000000000000000000000000000000000090941693909317179283168217815560608401519092909183917fffffffffffff00ffffffffffffffffffffffffffffffffffffffffffffffffff9091167fffffffffffff0000000000ffffffffffffffffffffffffffffffffffffffffff90911617790100000000000000000000000000000000000000000000000000836007811115612f7c57612f7c613677565b02179055506080820151600182015560a08201518051612fa69160028401916020909101906130ac565b5060c08201518051612c0491600384019160209091019061315b565b5080545f8255601f0160209004905f5260205f20908101906129a191906131c0565b5080545f825560070160089004905f5260205f20908101906129a191906131c0565b5080545f8255905f5260205f20908101906129a191906131c0565b5080545f8255905f5260205f20908101906129a191906131d4565b5080545f8255905f5260205f20908101906129a191906131f0565b5080545f8255600502905f5260205f20908101906129a19190613227565b50805461308190613d25565b5f825580601f10613090575050565b601f0160209004905f5260205f20908101906129a191906131c0565b828054828255905f5260205f2090601f0160209004810192821561314b579160200282015f5b8382111561311d57835183826101000a81548160ff021916908360078111156130fd576130fd613677565b021790555092602001926001016020815f010492830192600103026130d2565b80156131495782816101000a81549060ff02191690556001016020815f0104928301926001030261311d565b505b506131579291506131c0565b5090565b828054828255905f5260205f2090601f0160209004810192821561314b579160200282015f5b8382111561311d57835183826101000a81548160ff02191690835f0b60ff16021790555092602001926001016020815f01049283019260010302613181565b5b80821115613157575f81556001016131c1565b80821115613157575f6131e78282613075565b506001016131d4565b5b808211156131575780547fffffffffffffffffffffffffff000000000000000000000000000000000000001681556001016131f1565b808211156131575780547fffffffffffffffffffffffffffffffffffffffffffffffffffffffff000000001681555f6132636001830182613075565b600282015f9055600382015f6132799190613075565b613286600483015f613006565b50600501613227565b803573ffffffffffffffffffffffffffffffffffffffff811681146132b2575f5ffd5b919050565b5f5f604083850312156132c8575f5ffd5b823591506132d86020840161328f565b90509250929050565b5f608082840312156132f1575f5ffd5b50919050565b5f5f5f60608486031215613309575f5ffd5b8335925060208401359150604084013567ffffffffffffffff81111561332d575f5ffd5b613339868287016132e1565b9150509250925092565b5f5f60408385031215613354575f5ffd5b50508035926020909101359150565b5f81518084528060208401602086015e5f6020828601015260207fffffffffffffffffffffffffffffffffffffffffffffffffffffffffffffffe0601f83011685010191505092915050565b602081525f6133c16020830184613363565b9392505050565b5f60e082840312156132f1575f5ffd5b5f5f83601f8401126133e8575f5ffd5b50813567ffffffffffffffff8111156133ff575f5ffd5b602083019150836020828501011115613416575f5ffd5b9250929050565b5f5f5f5f60608587031215613430575f5ffd5b84359350602085013567ffffffffffffffff81111561344d575f5ffd5b613459878288016133c8565b935050604085013567ffffffffffffffff811115613475575f5ffd5b613481878288016133d8565b95989497509550505050565b80357fffffffff00000000000000000000000000000000000000000000000000000000811681146132b2575f5ffd5b7f4e487b71000000000000000000000000000000000000000000000000000000005f52604160045260245ffd5b60405160e0810167ffffffffffffffff8111828210171561350c5761350c6134bc565b60405290565b604051601f82017fffffffffffffffffffffffffffffffffffffffffffffffffffffffffffffffe016810167ffffffffffffffff81118282101715613559576135596134bc565b604052919050565b5f67ffffffffffffffff82111561357a5761357a6134bc565b5060051b60200190565b8035600881106132b2575f5ffd5b5f82601f8301126135a1575f5ffd5b81356135b46135af82613561565b613512565b8082825260208201915060208360051b8601019250858311156135d5575f5ffd5b602085015b838110156135f9576135eb81613584565b8352602092830192016135da565b5095945050505050565b5f5f5f5f60808587031215613616575f5ffd5b843593506020850135925061362d6040860161348d565b9150606085013567ffffffffffffffff811115613648575f5ffd5b61365487828801613592565b91505092959194509250565b5f60208284031215613670575f5ffd5b5035919050565b7f4e487b71000000000000000000000000000000000000000000000000000000005f52602160045260245ffd5b600881106136d9577f4e487b71000000000000000000000000000000000000000000000000000000005f52602160045260245ffd5b9052565b8051151582525f60208201516136f660208501826136a4565b506040820151608060408501526137106080850182613363565b606093840151949093019390935250919050565b5f602082016020835280845180835260408501915060408160051b8601019250602086015f5b82811015613799577fffffffffffffffffffffffffffffffffffffffffffffffffffffffffffffffc08786030184526137848583516136dd565b9450602093840193919091019060010161374a565b50929695505050505050565b5f5f5f5f606085870312156137b8575f5ffd5b84359350602085013567ffffffffffffffff8111156137d5575f5ffd5b613459878288016132e1565b602081525f6133c160208301846136dd565b5f8151808452602084019350602083015f5b8281101561382b576138188683516136a4565b6020958601959190910190600101613805565b5093949350505050565b5f8151808452602084019350602083015f5b8281101561382b5781515f0b865260209586019590910190600101613847565b80511515825273ffffffffffffffffffffffffffffffffffffffff60208201511660208301527fffffffff0000000000000000000000000000000000000000000000000000000060408201511660408301525f60608201516138cc60608501826136a4565b506080820151608084015260a082015160e060a08501526138f060e08501826137f3565b905060c083015184820360c08601526139098282613835565b95945050505050565b5f602082016020835280845180835260408501915060408160051b8601019250602086015f5b82811015613799577fffffffffffffffffffffffffffffffffffffffffffffffffffffffffffffffc0878603018452613972858351613867565b94506020938401939190910190600101613938565b5f5f67ffffffffffffffff8411156139a1576139a16134bc565b50601f83017fffffffffffffffffffffffffffffffffffffffffffffffffffffffffffffffe0166020016139d481613512565b9150508281528383830111156139e8575f5ffd5b828260208301375f602084830101529392505050565b5f82601f830112613a0d575f5ffd5b6133c183833560208501613987565b5f5f5f5f5f60a08688031215613a30575f5ffd5b85359450613a406020870161348d565b9350604086013567ffffffffffffffff811115613a5b575f5ffd5b613a6788828901613592565b935050606086013567ffffffffffffffff811115613a83575f5ffd5b613a8f888289016139fe565b925050608086013567ffffffffffffffff811115613aab575f5ffd5b613ab7888289016139fe565b9150509295509295909350565b8051151582527fffffffff0000000000000000000000000000000000000000000000000000000060208201511660208301525f604082015160606040850152613b1060608501826137f3565b949350505050565b602081525f6133c16020830184613ac4565b602081525f6133c16020830184613867565b602081525f825160606020840152613b576080840182613363565b90507fffffffff00000000000000000000000000000000000000000000000000000000602085015116604084015260408401517fffffffffffffffffffffffffffffffffffffffffffffffffffffffffffffffe08483030160608501526139098282613363565b5f602082016020835280845180835260408501915060408160051b8601019250602086015f5b82811015613799577fffffffffffffffffffffffffffffffffffffffffffffffffffffffffffffffc0878603018452613c1e858351613ac4565b94506020938401939190910190600101613be4565b5f5f5f60608486031215613c45575f5ffd5b8335925060208401359150604084013567ffffffffffffffff811115613c69575f5ffd5b613339868287016133c8565b803580151581146132b2575f5ffd5b5f60808236031215613c94575f5ffd5b6040516080810167ffffffffffffffff81118282101715613cb757613cb76134bc565b604052613cc383613c75565b8152613cd160208401613584565b6020820152604083013567ffffffffffffffff811115613cef575f5ffd5b830136601f820112613cff575f5ffd5b613d0e36823560208401613987565b604083015250606092830135928101929092525090565b600181811c90821680613d3957607f821691505b6020821081036132f1577f4e487b71000000000000000000000000000000000000000000000000000000005f52602260045260245ffd5b7f4e487b71000000000000000000000000000000000000000000000000000000005f52603260045260245ffd5b5f60208284031215613dad575f5ffd5b6133c18261328f565b7f4e487b71000000000000000000000000000000000000000000000000000000005f52601160045260245ffd5b5f7fffffffffffffffffffffffffffffffffffffffffffffffffffffffffffffffff8203613e1357613e13613db6565b5060010190565b5f82601f830112613e29575f5ffd5b8135613e376135af82613561565b8082825260208201915060208360051b860101925085831115613e58575f5ffd5b602085015b838110156135f9578035805f0b8114613e74575f5ffd5b835260209283019201613e5d565b5f60e08236031215613e92575f5ffd5b613e9a6134e9565b613ea383613c75565b8152613eb16020840161328f565b6020820152613ec26040840161348d565b6040820152613ed360608401613584565b60608201526080838101359082015260a083013567ffffffffffffffff811115613efb575f5ffd5b613f0736828601613592565b60a08301525060c083013567ffffffffffffffff811115613f26575f5ffd5b613f3236828601613e1a565b60c08301525092915050565b5f82518060208501845e5f920191825250919050565b818103818111156107d5576107d5613db6565b601f821115613fab57805f5260205f20601f840160051c81016020851015613f8c5750805b601f840160051c820191505b81811015612c04575f8155600101613f98565b505050565b815167ffffffffffffffff811115613fca57613fca6134bc565b613fde81613fd88454613d25565b84613f67565b6020601f82116001811461402f575f8315613ff95750848201515b7fffffffffffffffffffffffffffffffffffffffffffffffffffffffffffffffff600385901b1c1916600184901b178455612c04565b5f848152602081207fffffffffffffffffffffffffffffffffffffffffffffffffffffffffffffffe08516915b8281101561407c578785015182556020948501946001909201910161405c565b50848210156140b857868401517fffffffffffffffffffffffffffffffffffffffffffffffffffffffffffffffff600387901b60f8161c191681555b50505050600190811b01905550565b67ffffffffffffffff8311156140df576140df6134bc565b6140f3836140ed8354613d25565b83613f67565b5f601f841160018114614143575f851561410d5750838201355b7fffffffffffffffffffffffffffffffffffffffffffffffffffffffffffffffff600387901b1c1916600186901b178355612c04565b5f838152602081207fffffffffffffffffffffffffffffffffffffffffffffffffffffffffffffffe08716915b828110156141905786850135825560209485019460019092019101614170565b50868210156141cb577fffffffffffffffffffffffffffffffffffffffffffffffffffffffffffffffff60f88860031b161c19848701351681555b505060018560011b0183555050505050565b7f4e487b71000000000000000000000000000000000000000000000000000000005f52600160045260245ffdfea2646970667358221220a609fd78e906503b561352dab7f9e5d0b4613afce68d53a40116a19effcd0b0564736f6c634300081c0033","linkReferences":{}},"methodIdentifiers":{"addClosedPolicySubscriber(uint256,address)":"2711fe6b","createCallingFunction(uint256,bytes4,uint8[],string,string)":"b0955878","createForeignCall(uint256,(bool,address,bytes4,uint8,uint256,uint8[],int8[]),string)":"54ba0f37","createTracker(uint256,(bool,uint8,bytes,uint256),string)":"6edc1808","deleteCallingFunction(uint256,uint256)":"3fafdf6e","deleteForeignCall(uint256,uint256)":"d82260c8","deleteTracker(uint256,uint256)":"a82c9e07","getAllCallingFunctions(uint256)":"f3e7dfc3","getAllForeignCalls(uint256)":"a3937e99","getAllTrackers(uint256)":"56f3b05f","getCallingFunction(uint256,uint256)":"bfc85236","getCallingFunctionMetadata(uint256,uint256)":"eeeb6047","getForeignCall(uint256,uint256)":"da7d5d28","getForeignCallMetadata(uint256,uint256)":"f69187ee","getTracker(uint256,uint256)":"72a340d7","getTrackerMetadata(uint256,uint256)":"3bf07314","isClosedPolicySubscriber(uint256,address)":"4c957ad9","removeClosedPolicySubscriber(uint256,address)":"7374c994","updateCallingFunction(uint256,uint256,bytes4,uint8[])":"56f39ae3","updateForeignCall(uint256,uint256,(bool,address,bytes4,uint8,uint256,uint8[],int8[]))":"f5c9a5a6","updateTracker(uint256,uint256,(bool,uint8,bytes,uint256))":"2dc2ac0d"},"id":91}