{"abi":[{"type":"function","name":"addTracker","inputs":[{"name":"_policyId","type":"uint256","internalType":"uint256"},{"name":"tracker","type":"tuple","internalType":"struct Trackers","components":[{"name":"pType","type":"uint8","internalType":"enum PT"},{"name":"trackerValue","type":"bytes","internalType":"bytes"}]}],"outputs":[{"name":"","type":"uint256","internalType":"uint256"}],"stateMutability":"nonpayable"},{"type":"function","name":"applyPolicy","inputs":[{"name":"_contractAddress","type":"address","internalType":"address"},{"name":"_policyId","type":"uint256[]","internalType":"uint256[]"}],"outputs":[],"stateMutability":"nonpayable"},{"type":"function","name":"createPolicy","inputs":[{"name":"_policyId","type":"uint256","internalType":"uint256"},{"name":"_signatures","type":"bytes4[]","internalType":"bytes4[]"},{"name":"functionSignatureIds","type":"uint256[]","internalType":"uint256[]"},{"name":"ruleIds","type":"uint256[][]","internalType":"uint256[][]"}],"outputs":[{"name":"","type":"uint256","internalType":"uint256"}],"stateMutability":"nonpayable"},{"type":"function","name":"getAppliedPolicyIds","inputs":[{"name":"_contractAddress","type":"address","internalType":"address"}],"outputs":[{"name":"","type":"uint256[]","internalType":"uint256[]"}],"stateMutability":"view"},{"type":"function","name":"getForeignCall","inputs":[{"name":"_policyId","type":"uint256","internalType":"uint256"}],"outputs":[{"name":"fc","type":"tuple","internalType":"struct ForeignCallSet","components":[{"name":"set","type":"bool","internalType":"bool"},{"name":"foreignCalls","type":"tuple[]","internalType":"struct ForeignCall[]","components":[{"name":"foreignCallAddress","type":"address","internalType":"address"},{"name":"foreignCallIndex","type":"uint256","internalType":"uint256"},{"name":"signature","type":"bytes4","internalType":"bytes4"},{"name":"returnType","type":"uint8","internalType":"enum PT"},{"name":"parameterTypes","type":"uint8[]","internalType":"enum PT[]"}]}]}],"stateMutability":"view"},{"type":"function","name":"getForeignCall","inputs":[{"name":"_policyId","type":"uint256","internalType":"uint256"},{"name":"_foreignCallId","type":"uint256","internalType":"uint256"}],"outputs":[{"name":"fc","type":"tuple","internalType":"struct ForeignCall","components":[{"name":"foreignCallAddress","type":"address","internalType":"address"},{"name":"foreignCallIndex","type":"uint256","internalType":"uint256"},{"name":"signature","type":"bytes4","internalType":"bytes4"},{"name":"returnType","type":"uint8","internalType":"enum PT"},{"name":"parameterTypes","type":"uint8[]","internalType":"enum PT[]"}]}],"stateMutability":"view"},{"type":"function","name":"getFunctionSignature","inputs":[{"name":"_functionSignatureId","type":"uint256","internalType":"uint256"}],"outputs":[{"name":"","type":"tuple","internalType":"struct FunctionSignatureStorageSet","components":[{"name":"set","type":"bool","internalType":"bool"},{"name":"signature","type":"bytes4","internalType":"bytes4"},{"name":"parameterTypes","type":"uint8[]","internalType":"enum PT[]"}]}],"stateMutability":"view"},{"type":"function","name":"getPolicy","inputs":[{"name":"_policyId","type":"uint256","internalType":"uint256"}],"outputs":[{"name":"functionSigs","type":"bytes4[]","internalType":"bytes4[]"},{"name":"functionSigIds","type":"uint256[]","internalType":"uint256[]"},{"name":"ruleIds","type":"uint256[][]","internalType":"uint256[][]"}],"stateMutability":"view"},{"type":"function","name":"getRule","inputs":[{"name":"_ruleId","type":"uint256","internalType":"uint256"}],"outputs":[{"name":"","type":"tuple","internalType":"struct RuleStorageSet","components":[{"name":"set","type":"bool","internalType":"bool"},{"name":"rule","type":"tuple","internalType":"struct Rule","components":[{"name":"instructionSet","type":"uint256[]","internalType":"uint256[]"},{"name":"rawData","type":"tuple","internalType":"struct RawData","components":[{"name":"instructionSetIndex","type":"uint256[]","internalType":"uint256[]"},{"name":"argumentTypes","type":"uint8[]","internalType":"enum PT[]"},{"name":"dataValues","type":"bytes[]","internalType":"bytes[]"}]},{"name":"placeHolders","type":"tuple[]","internalType":"struct Placeholder[]","components":[{"name":"pType","type":"uint8","internalType":"enum PT"},{"name":"typeSpecificIndex","type":"uint256","internalType":"uint256"},{"name":"trackerValue","type":"bool","internalType":"bool"},{"name":"foreignCall","type":"bool","internalType":"bool"}]},{"name":"effectPlaceHolders","type":"tuple[]","internalType":"struct Placeholder[]","components":[{"name":"pType","type":"uint8","internalType":"enum PT"},{"name":"typeSpecificIndex","type":"uint256","internalType":"uint256"},{"name":"trackerValue","type":"bool","internalType":"bool"},{"name":"foreignCall","type":"bool","internalType":"bool"}]},{"name":"fcArgumentMappingsConditions","type":"tuple[]","internalType":"struct ForeignCallArgumentMappings[]","components":[{"name":"foreignCallIndex","type":"uint256","internalType":"uint256"},{"name":"mappings","type":"tuple[]","internalType":"struct IndividualArgumentMapping[]","components":[{"name":"functionCallArgumentType","type":"uint8","internalType":"enum PT"},{"name":"functionSignatureArg","type":"tuple","internalType":"struct Placeholder","components":[{"name":"pType","type":"uint8","internalType":"enum PT"},{"name":"typeSpecificIndex","type":"uint256","internalType":"uint256"},{"name":"trackerValue","type":"bool","internalType":"bool"},{"name":"foreignCall","type":"bool","internalType":"bool"}]}]}]},{"name":"fcArgumentMappingsEffects","type":"tuple[]","internalType":"struct ForeignCallArgumentMappings[]","components":[{"name":"foreignCallIndex","type":"uint256","internalType":"uint256"},{"name":"mappings","type":"tuple[]","internalType":"struct IndividualArgumentMapping[]","components":[{"name":"functionCallArgumentType","type":"uint8","internalType":"enum PT"},{"name":"functionSignatureArg","type":"tuple","internalType":"struct Placeholder","components":[{"name":"pType","type":"uint8","internalType":"enum PT"},{"name":"typeSpecificIndex","type":"uint256","internalType":"uint256"},{"name":"trackerValue","type":"bool","internalType":"bool"},{"name":"foreignCall","type":"bool","internalType":"bool"}]}]}]},{"name":"posEffects","type":"tuple[]","internalType":"struct Effect[]","components":[{"name":"valid","type":"bool","internalType":"bool"},{"name":"effectType","type":"uint8","internalType":"enum ET"},{"name":"text","type":"string","internalType":"string"},{"name":"instructionSet","type":"uint256[]","internalType":"uint256[]"}]},{"name":"negEffects","type":"tuple[]","internalType":"struct Effect[]","components":[{"name":"valid","type":"bool","internalType":"bool"},{"name":"effectType","type":"uint8","internalType":"enum ET"},{"name":"text","type":"string","internalType":"string"},{"name":"instructionSet","type":"uint256[]","internalType":"uint256[]"}]}]}]}],"stateMutability":"view"},{"type":"function","name":"getTracker","inputs":[{"name":"_policyId","type":"uint256","internalType":"uint256"},{"name":"index","type":"uint256","internalType":"uint256"}],"outputs":[{"name":"trackers","type":"tuple","internalType":"struct Trackers","components":[{"name":"pType","type":"uint8","internalType":"enum PT"},{"name":"trackerValue","type":"bytes","internalType":"bytes"}]}],"stateMutability":"nonpayable"},{"type":"function","name":"getTracker","inputs":[{"name":"_policyId","type":"uint256","internalType":"uint256"}],"outputs":[{"name":"trackerValuesSet","type":"tuple","internalType":"struct TrackerValuesSet","components":[{"name":"set","type":"bool","internalType":"bool"},{"name":"trackers","type":"tuple[]","internalType":"struct Trackers[]","components":[{"name":"pType","type":"uint8","internalType":"enum PT"},{"name":"trackerValue","type":"bytes","internalType":"bytes"}]}]}],"stateMutability":"view"},{"type":"function","name":"updateForeignCall","inputs":[{"name":"_policyId","type":"uint256","internalType":"uint256"},{"name":"foreignContractAddress","type":"address","internalType":"address"},{"name":"functionSignature","type":"string","internalType":"string"},{"name":"returnType","type":"uint8","internalType":"enum PT"},{"name":"arguments","type":"uint8[]","internalType":"enum PT[]"}],"outputs":[{"name":"fc","type":"tuple","internalType":"struct ForeignCall","components":[{"name":"foreignCallAddress","type":"address","internalType":"address"},{"name":"foreignCallIndex","type":"uint256","internalType":"uint256"},{"name":"signature","type":"bytes4","internalType":"bytes4"},{"name":"returnType","type":"uint8","internalType":"enum PT"},{"name":"parameterTypes","type":"uint8[]","internalType":"enum PT[]"}]}],"stateMutability":"nonpayable"},{"type":"function","name":"updateFunctionSignature","inputs":[{"name":"_functionSignatureId","type":"uint256","internalType":"uint256"},{"name":"functionSignature","type":"bytes4","internalType":"bytes4"},{"name":"pTypes","type":"uint8[]","internalType":"enum PT[]"}],"outputs":[{"name":"","type":"uint256","internalType":"uint256"}],"stateMutability":"nonpayable"},{"type":"function","name":"updatePolicy","inputs":[{"name":"_policyId","type":"uint256","internalType":"uint256"},{"name":"_signatures","type":"bytes4[]","internalType":"bytes4[]"},{"name":"functionSignatureIds","type":"uint256[]","internalType":"uint256[]"},{"name":"ruleIds","type":"uint256[][]","internalType":"uint256[][]"}],"outputs":[{"name":"","type":"uint256","internalType":"uint256"}],"stateMutability":"nonpayable"},{"type":"function","name":"updateRule","inputs":[{"name":"_ruleId","type":"uint256","internalType":"uint256"},{"name":"rule","type":"tuple","internalType":"struct Rule","components":[{"name":"instructionSet","type":"uint256[]","internalType":"uint256[]"},{"name":"rawData","type":"tuple","internalType":"struct RawData","components":[{"name":"instructionSetIndex","type":"uint256[]","internalType":"uint256[]"},{"name":"argumentTypes","type":"uint8[]","internalType":"enum PT[]"},{"name":"dataValues","type":"bytes[]","internalType":"bytes[]"}]},{"name":"placeHolders","type":"tuple[]","internalType":"struct Placeholder[]","components":[{"name":"pType","type":"uint8","internalType":"enum PT"},{"name":"typeSpecificIndex","type":"uint256","internalType":"uint256"},{"name":"trackerValue","type":"bool","internalType":"bool"},{"name":"foreignCall","type":"bool","internalType":"bool"}]},{"name":"effectPlaceHolders","type":"tuple[]","internalType":"struct Placeholder[]","components":[{"name":"pType","type":"uint8","internalType":"enum PT"},{"name":"typeSpecificIndex","type":"uint256","internalType":"uint256"},{"name":"trackerValue","type":"bool","internalType":"bool"},{"name":"foreignCall","type":"bool","internalType":"bool"}]},{"name":"fcArgumentMappingsConditions","type":"tuple[]","internalType":"struct ForeignCallArgumentMappings[]","components":[{"name":"foreignCallIndex","type":"uint256","internalType":"uint256"},{"name":"mappings","type":"tuple[]","internalType":"struct IndividualArgumentMapping[]","components":[{"name":"functionCallArgumentType","type":"uint8","internalType":"enum PT"},{"name":"functionSignatureArg","type":"tuple","internalType":"struct Placeholder","components":[{"name":"pType","type":"uint8","internalType":"enum PT"},{"name":"typeSpecificIndex","type":"uint256","internalType":"uint256"},{"name":"trackerValue","type":"bool","internalType":"bool"},{"name":"foreignCall","type":"bool","internalType":"bool"}]}]}]},{"name":"fcArgumentMappingsEffects","type":"tuple[]","internalType":"struct ForeignCallArgumentMappings[]","components":[{"name":"foreignCallIndex","type":"uint256","internalType":"uint256"},{"name":"mappings","type":"tuple[]","internalType":"struct IndividualArgumentMapping[]","components":[{"name":"functionCallArgumentType","type":"uint8","internalType":"enum PT"},{"name":"functionSignatureArg","type":"tuple","internalType":"struct Placeholder","components":[{"name":"pType","type":"uint8","internalType":"enum PT"},{"name":"typeSpecificIndex","type":"uint256","internalType":"uint256"},{"name":"trackerValue","type":"bool","internalType":"bool"},{"name":"foreignCall","type":"bool","internalType":"bool"}]}]}]},{"name":"posEffects","type":"tuple[]","internalType":"struct Effect[]","components":[{"name":"valid","type":"bool","internalType":"bool"},{"name":"effectType","type":"uint8","internalType":"enum ET"},{"name":"text","type":"string","internalType":"string"},{"name":"instructionSet","type":"uint256[]","internalType":"uint256[]"}]},{"name":"negEffects","type":"tuple[]","internalType":"struct Effect[]","components":[{"name":"valid","type":"bool","internalType":"bool"},{"name":"effectType","type":"uint8","internalType":"enum ET"},{"name":"text","type":"string","internalType":"string"},{"name":"instructionSet","type":"uint256[]","internalType":"uint256[]"}]}]}],"outputs":[{"name":"","type":"uint256","internalType":"uint256"}],"stateMutability":"nonpayable"},{"type":"function","name":"updateTracker","inputs":[{"name":"_policyId","type":"uint256","internalType":"uint256"},{"name":"updatedUintTracker","type":"uint256","internalType":"uint256"},{"name":"updatedAddressTracker","type":"address","internalType":"address"},{"name":"updatedStringTracker","type":"string","internalType":"string"},{"name":"updatedBoolTracker","type":"bool","internalType":"bool"},{"name":"updatedBytesTracker","type":"bytes","internalType":"bytes"}],"outputs":[],"stateMutability":"nonpayable"}],"bytecode":{"object":"0x6080604052348015600f57600080fd5b506145d38061001f6000396000f3fe608060405234801561001057600080fd5b50600436106101005760003560e01c8063a5bcf7f211610097578063d57a72cd11610066578063d57a72cd1461024e578063da7d5d281461026e578063e374902314610281578063f7a48117146102a157600080fd5b8063a5bcf7f2146101e8578063a78049c8146101fb578063c3a833441461021b578063d19f5db41461023b57600080fd5b806350a9f0d4116100d357806350a9f0d41461018d57806372a340d7146101a05780639228303f146101c05780639c7a08e6146101d557600080fd5b806305e4eff3146101055780632b07fce31461012b5780633bbaa76c1461014d578063484620371461016d575b600080fd5b6101186101133660046129c3565b6102b4565b6040519081526020015b60405180910390f35b61013e610139366004612a11565b61030a565b60405161012293929190612a5c565b61016061015b366004612c98565b6107d2565b6040516101229190612df2565b61018061017b366004612a11565b6109f4565b60405161012291906130ae565b61011861019b36600461320a565b6113c6565b6101b36101ae3660046132b7565b6119ef565b60405161012291906132ff565b6101d36101ce366004613312565b611b20565b005b6101d36101e3366004613372565b611c11565b6101186101f636600461343a565b611efc565b61020e610209366004612a11565b611f66565b6040516101229190613490565b61022e610229366004612a11565b6120fd565b604051610122919061350b565b61011861024936600461320a565b61224e565b61026161025c366004612a11565b6122d8565b604051610122919061357a565b61016061027c3660046132b7565b6123c0565b61029461028f3660046135b4565b6125a1565b60405161012291906135cf565b6101186102af3660046135e2565b612616565b6000806102bf61267e565b9050836000036102d457805460010180825593505b600084815260018281016020526040909120805460ff1916821781558491016102fd8282614263565b5084925050505b92915050565b606080606060006103196126ac565b60008681526001918201602052604090206003810154910191501561041d5760028101546001600160401b0381111561035457610354612b38565b60405190808252806020026020018201604052801561037d578160200160208202803683370190505b5060028201549094506001600160401b0381111561039d5761039d612b38565b6040519080825280602002602001820160405280156103c6578160200160208202803683370190505b5060028201549093506001600160401b038111156103e6576103e6612b38565b60405190808252806020026020018201604052801561041957816020015b60608152602001906001900390816104045790505b5091505b60005b60028201548110156107c9578160020181815481106104415761044161437f565b90600052602060002090600891828204019190066004029054906101000a900460e01b8582815181106104765761047661437f565b6001600160e01b0319909216602092830291909101909101526002820180548391600091849081106104aa576104aa61437f565b90600052602060002090600891828204019190066004029054906101000a900460e01b6001600160e01b0319166001600160e01b0319168152602001908152602001600020548482815181106105025761050261437f565b602002602001018181525050600082600101600084600201848154811061052b5761052b61437f565b6000918252602080832060088304015460079092166004026101000a90910460e01b6001600160e01b03191683528201929092526040019020541180156105ee5750600082600101600084600201848154811061058a5761058a61437f565b90600052602060002090600891828204019190066004029054906101000a900460e01b6001600160e01b0319166001600160e01b03191681526020019081526020016000206000815481106105e1576105e161437f565b9060005260206000200154115b156106a75781600101600083600201838154811061060e5761060e61437f565b6000918252602080832060088304015460079092166004026101000a90910460e01b6001600160e01b03191683528201929092526040019020546001600160401b0381111561065f5761065f612b38565b604051908082528060200260200182016040528015610688578160200160208202803683370190505b5083828151811061069b5761069b61437f565b60200260200101819052505b60005b8260010160008460020184815481106106c5576106c561437f565b6000918252602080832060088304015460079092166004026101000a90910460e01b6001600160e01b03191683528201929092526040019020548110156107c0578260010160008460020184815481106107215761072161437f565b90600052602060002090600891828204019190066004029054906101000a900460e01b6001600160e01b0319166001600160e01b031916815260200190815260200160002081815481106107775761077761437f565b90600052602060002001548483815181106107945761079461437f565b602002602001015182815181106107ad576107ad61437f565b60209081029190910101526001016106aa565b50600101610420565b50509193909250565b6107da612792565b60006107e46126da565b6001600160a01b038716835285516020808801919091206001600160e01b0319166040850152815490840181905290915081600061082183614395565b90915550506060820184600581111561083c5761083c612d2c565b9081600581111561084f5761084f612d2c565b90525082516001600160401b0381111561086b5761086b612b38565b604051908082528060200260200182016040528015610894578160200160208202803683370190505b50608083015260005b835181101561090d578381815181106108b8576108b861437f565b6020026020010151836080015182815181106108d6576108d661437f565b602002602001019060058111156108ef576108ef612d2c565b9081600581111561090257610902612d2c565b90525060010161089d565b50600087815260018281016020908152604080842083018054808501825590855293829020865160049095020180546001600160a01b0319166001600160a01b03909516949094178455908501519183019190915583015160028201805463ffffffff19811660e09390931c9283178255606086015186949390929164ffffffffff1916176401000000008360058111156109aa576109aa612d2c565b0217905550608082015180516109ca9160038401916020909101906127c2565b505050600096875260019081016020526040909620805460ff191690961790955550929392505050565b6109fc612876565b610a0461267e565b60008381526001918201602090815260409182902082518084018452815460ff16151581528351948201805461012081860288018101909652610100870181815292969395948701949192849290918491840182828015610a8457602002820191906000526020600020905b815481526020019060010190808311610a70575b505050505081526020016001820160405180606001604052908160008201805480602002602001604051908101604052809291908181526020018280548015610aec57602002820191906000526020600020905b815481526020019060010190808311610ad8575b5050505050815260200160018201805480602002602001604051908101604052809291908181526020018280548015610b7457602002820191906000526020600020906000905b82829054906101000a900460ff166005811115610b5257610b52612d2c565b815260206001928301818104948501949093039092029101808411610b335790505b5050505050815260200160028201805480602002602001604051908101604052809291908181526020016000905b82821015610c4e578382906000526020600020018054610bc190613807565b80601f0160208091040260200160405190810160405280929190818152602001828054610bed90613807565b8015610c3a5780601f10610c0f57610100808354040283529160200191610c3a565b820191906000526020600020905b815481529060010190602001808311610c1d57829003601f168201915b505050505081526020019060010190610ba2565b5050505081525050815260200160048201805480602002602001604051908101604052809291908181526020016000905b82821015610d0c576000848152602090206040805160808101909152600384029091018054829060ff166005811115610cba57610cba612d2c565b6005811115610ccb57610ccb612d2c565b815260018281015460208084019190915260029093015460ff8082161515604085015261010090910416151560609092019190915291835292019101610c7f565b50505050815260200160058201805480602002602001604051908101604052809291908181526020016000905b82821015610dc6576000848152602090206040805160808101909152600384029091018054829060ff166005811115610d7457610d74612d2c565b6005811115610d8557610d85612d2c565b815260018281015460208084019190915260029093015460ff8082161515604085015261010090910416151560609092019190915291835292019101610d39565b50505050815260200160068201805480602002602001604051908101604052809291908181526020016000905b82821015610f3357838290600052602060002090600202016040518060400160405290816000820154815260200160018201805480602002602001604051908101604052809291908181526020016000905b82821015610f1c5760008481526020902060408051808201909152600484029091018054829060ff166005811115610e7f57610e7f612d2c565b6005811115610e9057610e90612d2c565b81526040805160808101909152600183018054602090930192829060ff166005811115610ebf57610ebf612d2c565b6005811115610ed057610ed0612d2c565b815260018281015460208084019190915260029093015460ff80821615156040850152610100909104161515606090920191909152919092529284529390910192919091019050610e45565b505050508152505081526020019060010190610df3565b50505050815260200160078201805480602002602001604051908101604052809291908181526020016000905b828210156110a057838290600052602060002090600202016040518060400160405290816000820154815260200160018201805480602002602001604051908101604052809291908181526020016000905b828210156110895760008481526020902060408051808201909152600484029091018054829060ff166005811115610fec57610fec612d2c565b6005811115610ffd57610ffd612d2c565b81526040805160808101909152600183018054602090930192829060ff16600581111561102c5761102c612d2c565b600581111561103d5761103d612d2c565b815260018281015460208084019190915260029093015460ff80821615156040850152610100909104161515606090920191909152919092529284529390910192919091019050610fb2565b505050508152505081526020019060010190610f60565b50505050815260200160088201805480602002602001604051908101604052809291908181526020016000905b8282101561122b576000848152602090819020604080516080810190915260038502909101805460ff80821615158452929391929184019161010090910416600281111561111d5761111d612d2c565b600281111561112e5761112e612d2c565b815260200160018201805461114290613807565b80601f016020809104026020016040519081016040528092919081815260200182805461116e90613807565b80156111bb5780601f10611190576101008083540402835291602001916111bb565b820191906000526020600020905b81548152906001019060200180831161119e57829003601f168201915b505050505081526020016002820180548060200260200160405190810160405280929190818152602001828054801561121357602002820191906000526020600020905b8154815260200190600101908083116111ff575b505050505081525050815260200190600101906110cd565b50505050815260200160098201805480602002602001604051908101604052809291908181526020016000905b828210156113b6576000848152602090819020604080516080810190915260038502909101805460ff8082161515845292939192918401916101009091041660028111156112a8576112a8612d2c565b60028111156112b9576112b9612d2c565b81526020016001820180546112cd90613807565b80601f01602080910402602001604051908101604052809291908181526020018280546112f990613807565b80156113465780601f1061131b57610100808354040283529160200191611346565b820191906000526020600020905b81548152906001019060200180831161132957829003601f168201915b505050505081526020016002820180548060200260200160405190810160405280929190818152602001828054801561139e57602002820191906000526020600020905b81548152602001906001019080831161138a575b50505050508152505081526020019060010190611258565b5050509152505090525092915050565b6000806113d16126ac565b905086851461143e5760405162461bcd60e51b815260206004820152602e60248201527f5369676e61747572657320616e64207369676e6174757265206964277320617260448201526d19481a5b98dbdb9cda5cdd195b9d60921b60648201526084015b60405180910390fd5b8860000361146e5780546001908101808355600081815282840160205260409020805460ff191690921790915598505b6000898152600182016020526040812061148d91600390910190612897565b82156118835760005b8781101561187d576114bf8787838181106114b3576114b361437f565b905060200201356122d8565b516115005760405162461bcd60e51b8152602060048201526011602482015270496e76616c6964205369676e617475726560781b6044820152606401611435565b8686828181106115125761151261437f565b905060200201358260010160008c815260200190815260200160002060010160000160008b8b858181106115485761154861437f565b905060200201602081019061155d91906143ae565b6001600160e01b031916815260208082019290925260409081016000908120939093558c83526001850190915290206003018989838181106115a1576115a161437f565b90506020020160208101906115b691906143ae565b81546001810183556000928352602083206008820401805463ffffffff60079093166004026101000a928302191660e09390931c919091029190911790555b8585838181106116075761160761437f565b90506020028101906116199190613624565b90508110156117ef5760006116678787858181106116395761163961437f565b905060200281019061164b9190613624565b8481811061165b5761165b61437f565b905060200201356109f4565b80519091506116a75760405162461bcd60e51b815260206004820152600c60248201526b496e76616c69642052756c6560a01b6044820152606401611435565b60005b816020015160400151518110156117e55781602001516040015181815181106116d5576116d561437f565b60200260200101516060015115611751576116ef8d611f66565b5161174c5760405162461bcd60e51b815260206004820152602760248201527f466f726569676e2043616c6c207265666572656e63656420696e2072756c65206044820152661b9bdd081cd95d60ca1b6064820152608401611435565b6117dd565b816020015160400151818151811061176b5761176b61437f565b602002602001015160400151156117dd576117858d6120fd565b516117dd5760405162461bcd60e51b815260206004820152602260248201527f547261636b6572207265666572656e63656420696e2072756c65206e6f742073604482015261195d60f21b6064820152608401611435565b6001016116aa565b50506001016115f5565b508484828181106118025761180261437f565b90506020028101906118149190613624565b60008c81526001850160205260408120600201908c8c8681811061183a5761183a61437f565b905060200201602081019061184f91906143ae565b6001600160e01b031916815260208101919091526040016000206118749290916128bf565b50600101611496565b506119e2565b60005b878110156119e0576118a38787838181106114b3576114b361437f565b516118e45760405162461bcd60e51b8152602060048201526011602482015270496e76616c6964205369676e617475726560781b6044820152606401611435565b8686828181106118f6576118f661437f565b905060200201358260010160008c815260200190815260200160002060010160000160008b8b8581811061192c5761192c61437f565b905060200201602081019061194191906143ae565b6001600160e01b031916815260208082019290925260409081016000908120939093558c83526001850190915290206003018989838181106119855761198561437f565b905060200201602081019061199a91906143ae565b815460018082018455600093845260209093206008820401805463ffffffff60079093166004026101000a928302191660e09390931c9190910291909117905501611886565b505b5096979650505050505050565b6119f76128fa565b6000611a01612708565b600085815260018083016020526040909120805460ff19168217815591925090810190611a2e90856143c9565b81548110611a3e57611a3e61437f565b60009182526020909120604080518082019091526002909202018054829060ff166005811115611a7057611a70612d2c565b6005811115611a8157611a81612d2c565b8152602001600182018054611a9590613807565b80601f0160208091040260200160405190810160405280929190818152602001828054611ac190613807565b8015611b0e5780601f10611ae357610100808354040283529160200191611b0e565b820191906000526020600020905b815481529060010190602001808311611af157829003601f168201915b50505050508152505091505092915050565b6000611b2a612736565b9050816001600160401b03811115611b4457611b44612b38565b604051908082528060200260200182016040528015611b6d578160200160208202803683370190505b506001600160a01b0385166000908152602083815260409091208251611b99939192919091019061290c565b5060005b82811015611c0a57838382818110611bb757611bb761437f565b90506020020135826000016000876001600160a01b03166001600160a01b031681526020019081526020016000208281548110611bf657611bf661437f565b600091825260209091200155600101611b9d565b5050505050565b6000611c1b612708565b6000888152600180830160205260408220805460ff191690911790559091505b6000888152600180840160205260409091200154811015611ef257600260008981526001808501602052604090912001805483908110611c7d57611c7d61437f565b600091825260209091206002909102015460ff166005811115611ca257611ca2612d2c565b03611d0a576040805160208101899052015b60408051601f1981840301815291815260008a8152600180860160205291902001805483908110611ce757611ce761437f565b90600052602060002090600202016001019081611d0491906143dc565b50611eea565b600088815260018381016020526040822001805483908110611d2e57611d2e61437f565b600091825260209091206002909102015460ff166005811115611d5357611d53612d2c565b03611d7157604080516001600160a01b038816602082015201611cb4565b600160008981526001808501602052604090912001805483908110611d9857611d9861437f565b600091825260209091206002909102015460ff166005811115611dbd57611dbd612d2c565b03611dd35784604051602001611cb49190614494565b600360008981526001808501602052604090912001805483908110611dfa57611dfa61437f565b600091825260209091206002909102015460ff166005811115611e1f57611e1f612d2c565b03611e365760408051851515602082015201611cb4565b600560008981526001808501602052604090912001805483908110611e5d57611e5d61437f565b600091825260209091206002909102015460ff166005811115611e8257611e82612d2c565b03611eea5782604051602001611e989190614494565b60408051601f1981840301815291815260008a8152600180860160205291902001805483908110611ecb57611ecb61437f565b90600052602060002090600202016001019081611ee891906143dc565b505b600101611c3b565b5050505050505050565b600080611f07612764565b905084600003611f1c57805460010180825594505b6000858152600182810160209081526040909220805464ffffffffff191661010060e089901c0217821781558551611f5c939190920191908601906127c2565b5093949350505050565b604080518082019091526000815260606020820152611f836126da565b600083815260019182016020908152604080832081518083018352815460ff1615158152948101805483518186028101860190945280845291948685019491929184015b828210156120ef5760008481526020908190206040805160a0810182526004860290920180546001600160a01b03168352600181015493830193909352600283015460e081901b6001600160e01b031916918301919091529091906060830190640100000000900460ff16600581111561204357612043612d2c565b600581111561205457612054612d2c565b8152602001600382018054806020026020016040519081016040528092919081815260200182805480156120d757602002820191906000526020600020906000905b82829054906101000a900460ff1660058111156120b5576120b5612d2c565b8152602060019283018181049485019490930390920291018084116120965790505b50505050508152505081526020019060010190611fc7565b505050915250909392505050565b60408051808201909152600081526060602082015261211a612708565b600083815260019182016020908152604080832081518083018352815460ff1615158152948101805483518186028101860190945280845291948685019491929184015b828210156120ef5760008481526020902060408051808201909152600284029091018054829060ff16600581111561219857612198612d2c565b60058111156121a9576121a9612d2c565b81526020016001820180546121bd90613807565b80601f01602080910402602001604051908101604052809291908181526020018280546121e990613807565b80156122365780601f1061220b57610100808354040283529160200191612236565b820191906000526020600020905b81548152906001019060200180831161221957829003601f168201915b5050505050815250508152602001906001019061215e565b600080612260898989898989896113c6565b60405163064a72d960e21b8152600481018290523360248201529091503090631929cb64906044016020604051808303816000875af11580156122a7573d6000803e3d6000fd5b505050506040513d601f19601f820116820180604052508101906122cb91906144a7565b5098975050505050505050565b604080516060808201835260008083526020830152918101919091526122fc612764565b6000838152600191820160209081526040918290208251606081018452815460ff811615158252610100900460e01b6001600160e01b031916818401529381018054845181850281018501865281815292948601938301828280156123b057602002820191906000526020600020906000905b82829054906101000a900460ff16600581111561238e5761238e612d2c565b81526020600192830181810494850194909303909202910180841161236f5790505b5050505050815250509050919050565b6123c8612792565b60006123d26126da565b90506000816001016000868152602001908152602001600020600101805480602002602001604051908101604052809291908181526020016000905b828210156125365760008481526020908190206040805160a0810182526004860290920180546001600160a01b03168352600181015493830193909352600283015460e081901b6001600160e01b031916918301919091529091906060830190640100000000900460ff16600581111561248a5761248a612d2c565b600581111561249b5761249b612d2c565b81526020016003820180548060200260200160405190810160405280929190818152602001828054801561251e57602002820191906000526020600020906000905b82829054906101000a900460ff1660058111156124fc576124fc612d2c565b8152602060019283018181049485019490930390920291018084116124dd5790505b5050505050815250508152602001906001019061240e565b50505050905060005b8151811015612598578482828151811061255b5761255b61437f565b602002602001015160200151036125905781818151811061257e5761257e61437f565b60200260200101519350505050610304565b60010161253f565b50505092915050565b60606125ab612736565b6001600160a01b038316600090815260209182526040908190208054825181850281018501909352808352919290919083018282801561260a57602002820191906000526020600020905b8154815260200190600101908083116125f6575b50505050509050919050565b600080612621612708565b60008581526001808301602090815260408320805460ff1916831781558201805492830181558352909120919250849160029091020161266182826144c0565b505060008481526001918201602052604090200154905092915050565b60008061030460017f5c91f63a4ffcbd372b8ec622fd1fcaaa601b66330afdb30e5c292dd9123f20b06143c9565b60008061030460017ff9dbd639dd2ea165d77dd4c51dec420100d51ceacf023b1c40faa045ba8f9a656143c9565b60008061030460017f1f3305601ed940efccf797d76856e5fe70659a8a6905d64c9f236321df91e7186143c9565b60008061030460017f438102ff677bc3f21830c58117a05d6b953b31e3ea339da3f17957cd3941a6906143c9565b60008061030460017f1544053a94493269e0aa160e5aa5b54d19ee6492c78b8bd3af283b912c78cdeb6143c9565b60008061030460017f8b87534450a5488e76eda19b94ce784ed5d5fd327ac126c78047b6b2a04cf2f66143c9565b6040805160a0810182526000808252602082018190529181018290529060608201905b8152602001606081525090565b82805482825590600052602060002090601f016020900481019282156128665791602002820160005b8382111561283757835183826101000a81548160ff0219169083600581111561281657612816612d2c565b021790555092602001926001016020816000010492830192600103026127eb565b80156128645782816101000a81549060ff0219169055600101602081600001049283019260010302612837565b505b50612872929150612947565b5090565b604051806040016040528060001515815260200161289261295c565b905290565b5080546000825560070160089004906000526020600020908101906128bc9190612947565b50565b828054828255906000526020600020908101928215612866579160200282015b828111156128665782358255916020019190600101906128df565b604080518082019091528060006127b5565b828054828255906000526020600020908101928215612866579160200282015b8281111561286657825182559160200191906001019061292c565b5b808211156128725760008155600101612948565b6040518061010001604052806060815260200161299360405180606001604052806060815260200160608152602001606081525090565b81526020016060815260200160608152602001606081526020016060815260200160608152602001606081525090565b600080604083850312156129d657600080fd5b8235915060208301356001600160401b038111156129f357600080fd5b83016101008186031215612a0657600080fd5b809150509250929050565b600060208284031215612a2357600080fd5b5035919050565b600081518084526020840193506020830160005b82811015611f5c578151865260209586019590910190600101612a3e565b6060808252845190820181905260009060208601906080840190835b81811015612aa05783516001600160e01b031916835260209384019390920191600101612a78565b50508381036020850152612ab48187612a2a565b915050828103604084015280845180835260208301915060208160051b8401016020870160005b83811015612b0d57601f19868403018552612af7838351612a2a565b6020958601959093509190910190600101612adb565b50909998505050505050505050565b80356001600160a01b0381168114612b3357600080fd5b919050565b634e487b7160e01b600052604160045260246000fd5b604051601f8201601f191681016001600160401b0381118282101715612b7657612b76612b38565b604052919050565b6000806001600160401b03841115612b9857612b98612b38565b50601f8301601f1916602001612bad81612b4e565b915050828152838383011115612bc257600080fd5b828260208301376000602084830101529392505050565b600082601f830112612bea57600080fd5b612bf983833560208501612b7e565b9392505050565b600681106128bc57600080fd5b600082601f830112612c1e57600080fd5b81356001600160401b03811115612c3757612c37612b38565b8060051b612c4760208201612b4e565b91825260208185018101929081019086841115612c6357600080fd5b6020860192505b83831015612c8e578235612c7d81612c00565b825260209283019290910190612c6a565b9695505050505050565b600080600080600060a08688031215612cb057600080fd5b85359450612cc060208701612b1c565b935060408601356001600160401b03811115612cdb57600080fd5b612ce788828901612bd9565b9350506060860135612cf881612c00565b915060808601356001600160401b03811115612d1357600080fd5b612d1f88828901612c0d565b9150509295509295909350565b634e487b7160e01b600052602160045260246000fd5b60068110612d5257612d52612d2c565b9052565b600081518084526020840193506020830160005b82811015611f5c57612d7d868351612d42565b6020958601959190910190600101612d6a565b80516001600160a01b03168252602080820151908301526040808201516001600160e01b03191690830152606080820151600091612dd090850182612d42565b50608082015160a06080850152612dea60a0850182612d56565b949350505050565b602081526000612bf96020830184612d90565b6000815180845260005b81811015612e2b57602081850181015186830182015201612e0f565b506000602082860101526020601f19601f83011685010191505092915050565b6000815160608452612e606060850182612a2a565b905060208301518482036020860152612e798282612d56565b9150506040830151848203604086015281815180845260208401915060208160051b85010160208401935060005b82811015612ed857601f19868303018452612ec3828651612e05565b60209586019594909401939150600101612ea7565b50979650505050505050565b612eef828251612d42565b602081015160208301526040810151151560408301526060810151151560608301525050565b600081518084526020840193506020830160005b82811015611f5c57612f3c868351612ee4565b6080959095019460209190910190600101612f29565b600082825180855260208501945060208160051b8301016020850160005b8381101561300357848303601f190188528151805184526020908101516040828601819052815190860181905291019060009060608601905b80831015612fea578351612fbe838251612d42565b60208101519050612fd26020840182612ee4565b5060a082019150602084019350600183019250612fa9565b5060209a8b019a90955093909301925050600101612f70565b50909695505050505050565b600082825180855260208501945060208160051b8301016020850160005b8381101561300357848303601f19018852815180511515845260208101516003811061305b5761305b612d2c565b8060208601525060408101516080604086015261307b6080860182612e05565b90506060820151915084810360608601526130968183612a2a565b60209a8b019a9095509390930192505060010161302d565b6020815281511515602082015260006020830151604080840152805161010060608501526130e0610160850182612a2a565b90506020820151605f198583030160808601526130fd8282612e4b565b9150506040820151605f198583030160a086015261311b8282612f15565b9150506060820151605f198583030160c08601526131398282612f15565b9150506080820151605f198583030160e08601526131578282612f52565b91505060a0820151605f19858303016101008601526131768282612f52565b91505060c0820151605f1985830301610120860152613195828261300f565b91505060e08201519150605f19848203016101408501526131b6818361300f565b95945050505050565b60008083601f8401126131d157600080fd5b5081356001600160401b038111156131e857600080fd5b6020830191508360208260051b850101111561320357600080fd5b9250929050565b60008060008060008060006080888a03121561322557600080fd5b8735965060208801356001600160401b0381111561324257600080fd5b61324e8a828b016131bf565b90975095505060408801356001600160401b0381111561326d57600080fd5b6132798a828b016131bf565b90955093505060608801356001600160401b0381111561329857600080fd5b6132a48a828b016131bf565b989b979a50959850939692959293505050565b600080604083850312156132ca57600080fd5b50508035926020909101359150565b6132e4828251612d42565b6000602082015160406020850152612dea6040850182612e05565b602081526000612bf960208301846132d9565b60008060006040848603121561332757600080fd5b61333084612b1c565b925060208401356001600160401b0381111561334b57600080fd5b613357868287016131bf565b9497909650939450505050565b80151581146128bc57600080fd5b60008060008060008060c0878903121561338b57600080fd5b86359550602087013594506133a260408801612b1c565b935060608701356001600160401b038111156133bd57600080fd5b6133c989828a01612bd9565b93505060808701356133da81613364565b915060a08701356001600160401b038111156133f557600080fd5b8701601f8101891361340657600080fd5b61341589823560208401612b7e565b9150509295509295509295565b80356001600160e01b031981168114612b3357600080fd5b60008060006060848603121561344f57600080fd5b8335925061345f60208501613422565b915060408401356001600160401b0381111561347a57600080fd5b61348686828701612c0d565b9150509250925092565b60208152600060608201835115156020840152602084015160408085015281815180845260808601915060808160051b870101935060208301925060005b818110156134ff57607f198786030183526134ea858551612d90565b945060209384019392909201916001016134ce565b50929695505050505050565b60208152600060608201835115156020840152602084015160408085015281815180845260808601915060808160051b870101935060208301925060005b818110156134ff57607f198786030183526135658585516132d9565b94506020938401939290920191600101613549565b6020815281511515602082015263ffffffff60e01b602083015116604082015260006040830151606080840152612dea6080840182612d56565b6000602082840312156135c657600080fd5b612bf982612b1c565b602081526000612bf96020830184612a2a565b600080604083850312156135f557600080fd5b8235915060208301356001600160401b0381111561361257600080fd5b830160408186031215612a0657600080fd5b6000808335601e1984360301811261363b57600080fd5b8301803591506001600160401b0382111561365557600080fd5b6020019150600581901b360382131561320357600080fd5b634e487b7160e01b600052601160045260246000fd5b5b818110156136985760008155600101613684565b5050565b600160401b8211156136b0576136b0612b38565b8054828255808310156136d6578160005260206000206136d4828201858301613683565b505b505050565b6001600160401b038311156136f2576136f2612b38565b6136fc838261369c565b8181600052602060002060005b8581101561372557823582820155602090920191600101613709565b505050505050565b60008235605e1983360301811261374357600080fd5b9190910192915050565b600160401b82111561376157613761612b38565b8054828255808310156136d657816000526020600020601f840160051c8101601f851680156137a157600019820180546000198360200360031b1c168155505b50611c0a601f840160051c830182613683565b6000813561030481612c00565b6000808335601e198436030181126137d857600080fd5b8301803591506001600160401b038211156137f257600080fd5b60200191503681900382131561320357600080fd5b600181811c9082168061381b57607f821691505b60208210810361383b57634e487b7160e01b600052602260045260246000fd5b50919050565b600019600383901b1c191660019190911b1790565b601f8211156136d657806000526020600020601f840160051c8101602085101561387d5750805b611c0a601f850160051c830182613683565b6001600160401b038311156138a6576138a6612b38565b6138ba836138b48354613807565b83613856565b6000601f8411600181146138e857600085156138d65750838201355b6138e08682613841565b845550611c0a565b600083815260209020601f19861690835b8281101561391957868501358255602094850194600190920191016138f9565b50868210156139365760001960f88860031b161c19848701351681555b505060018560011b0183555050505050565b600160401b83111561395c5761395c612b38565b8054838255808410156139e4576000828152602090208481019082015b808210156139e15761398b8254613807565b80156139d557601f8111600181146139a657600084556139d3565b6000848152602090206139c4601f840160051c820160018301613683565b50600084815260208120818655555b505b50600182019150613979565b50505b5060008181526020812083915b8581101561372557613a0383866137c1565b613a0e81838661388f565b505060209290920191600191820191016139f1565b613a2d8283613624565b6001600160401b03811115613a4457613a44612b38565b613a4e818461369c565b82600052602060002060005b82811015613a7657833582820155602090930192600101613a5a565b5050505060018101613a8b6020840184613624565b6001600160401b03811115613aa257613aa2612b38565b613aac818461374d565b60008381526020902092508060051c60005b81811015613b14576000805b6020811015613b0757613af6613adf876137b4565b60ff908116600384901b90811b91901b1984161790565b602096909601959150600101613aca565b5085820155600101613abe565b50601f198216808303818414613b53576000805b82811015613b4d57613b3c613adf886137b4565b602097909701969150600101613b28565b50868401555b505050505050613b666040830183613624565b6136d4818360028601613948565b6000808335601e19843603018112613b8b57600080fd5b8301803591506001600160401b03821115613ba557600080fd5b6020019150600781901b360382131561320357600080fd5b60068210613bcd57613bcd612d2c565b60ff1981541660ff831681178255505050565b8135613beb81612c00565b613bf58183613bbd565b5060208201356001820155600281016040830135613c1281613364565b815460ff191660ff82151516178255506060830135613c3081613364565b815461ff00191681151560081b61ff001617825550505050565b600160401b831115613c5e57613c5e612b38565b805483825580841015613cca5780600302600381048214613c8157613c8161366d565b84600302600381048614613c9757613c9761366d565b60008481526020902091820191015b81811015613cc7576000808255600182018190556002820155600301613ca6565b50505b5060008181526020812083915b8581101561372557613ce98383613be0565b6080929092019160039190910190600101613cd7565b60008235603e1983360301811261374357600080fd5b600081546000835580156136d6576001600160fe1b0381168114613d3b57613d3b61366d565b60009150828252602082208160021b81015b80821015611c0a57838255613d746001830160008155600060018201556000600282015550565b600482019150613d4d565b600160401b821115613d9357613d93612b38565b8054828255808310156136d6576001600160fe1b0381168114613db857613db861366d565b6001600160fe1b0383168314613dd057613dd061366d565b8160005260206000208160021b81018460021b820191505b80821015611c0a5760008255613e106001830160008155600060018201556000600282015550565b600482019150613de8565b8135815560018101602083013536849003601e19018112613e3b57600080fd5b830180356001600160401b03811115613e5357600080fd5b60208201915060a081023603821315613e6b57600080fd5b613e758184613d7f565b600092835260208320925b81811015613725578235613e9381612c00565b613e9d8186613bbd565b506020830135613eac81612c00565b613eb98160018701613bbd565b5060408301356002850155600384016060840135613ed681613364565b815460ff191660ff82151516178255506080840135613ef481613364565b815461ff00191681151560081b61ff001617909155506004939093019260a09290920191600101613e80565b600160401b831115613f3457613f34612b38565b805483825580841015613faf576001600160ff1b0381168114613f5957613f5961366d565b6001600160ff1b0384168414613f7157613f7161366d565b8160005260206000208160011b81018560011b820191505b80821015613fac5760008255613fa160018301613d15565b600282019150613f89565b50505b5060008181526020812083915b8581101561372557613fd7613fd18487613cff565b83613e1b565b6020929092019160029190910190600101613fbc565b60008235607e1983360301811261374357600080fd5b8054600082558015613698578160005260206000206136d682820182613683565b813561402f81613364565b815460ff191660ff821515161782555060208201356003811015801561405457600080fd5b50815461ff001916600882901b61ff0016178255506001810161407a60408401846137c1565b6001600160401b0381111561409157614091612b38565b6140a58161409f8554613807565b85613856565b6000601f8211600181146140d357600083156140c15750838201355b6140cb8482613841565b86555061412c565b600085815260208120601f198516915b8281101561410357868501358255602094850194600190920191016140e3565b50848210156141205760001960f88660031b161c19848701351681555b505060018360011b0185555b505050505061413e6060830183613624565b6136d48183600286016136db565b600160401b83111561416057614160612b38565b80548382558084101561422557806003026003810482146141835761418361366d565b846003026003810486146141995761419961366d565b60008481526020902091820191015b818110156142225760008155600181016141c28154613807565b801561420c57601f8111600181146141dd576000835561420a565b6000838152602090206141fb601f840160051c820160018301613683565b50600083815260208120818555555b505b505061421a60028201614003565b6003016141a8565b50505b5060008181526020812083915b858110156137255761424d6142478487613fed565b83614024565b6020929092019160039190910190600101614232565b61426d8283613624565b6001600160401b0381111561428457614284612b38565b61428e818461369c565b82600052602060002060005b828110156142b65783358282015560209093019260010161429a565b505050506142d36142ca602084018461372d565b60018301613a23565b6142e06040830183613b74565b6142ee818360048601613c4a565b50506142fd6060830183613b74565b61430b818360058601613c4a565b505061431a6080830183613624565b614328818360068601613f20565b505061433760a0830183613624565b614345818360078601613f20565b505061435460c0830183613624565b61436281836008860161414c565b505061437160e0830183613624565b6136d481836009860161414c565b634e487b7160e01b600052603260045260246000fd5b6000600182016143a7576143a761366d565b5060010190565b6000602082840312156143c057600080fd5b612bf982613422565b818103818111156103045761030461366d565b81516001600160401b038111156143f5576143f5612b38565b614409816144038454613807565b84613856565b6020601f82116001811461443757600083156144255750848201515b61442f8482613841565b855550611c0a565b600084815260208120601f198516915b828110156144675787850151825560209485019460019092019101614447565b50848210156144855786840151600019600387901b60f8161c191681555b50505050600190811b01905550565b602081526000612bf96020830184612e05565b6000602082840312156144b957600080fd5b5051919050565b81356144cb81612c00565b6144d58183613bbd565b50600181016144e760208401846137c1565b6001600160401b038111156144fe576144fe612b38565b61450c8161409f8554613807565b6000601f82116001811461453a57600083156145285750838201355b6145328482613841565b865550614594565b600085815260209020601f19841690835b8281101561456b578685013582556020948501946001909201910161454b565b50848210156145885760001960f88660031b161c19848701351681555b505060018360011b0185555b5050505050505056fea264697066735822122033e1e6da86b219f2e9292e117bbf550642ba7dc4db1c66b2418031ae7d4beda464736f6c634300081c0033","linkReferences":{}},"methodIdentifiers":{"addTracker(uint256,(uint8,bytes))":"f7a48117","applyPolicy(address,uint256[])":"9228303f","createPolicy(uint256,bytes4[],uint256[],uint256[][])":"d19f5db4","getAppliedPolicyIds(address)":"e3749023","getForeignCall(uint256)":"a78049c8","getForeignCall(uint256,uint256)":"da7d5d28","getFunctionSignature(uint256)":"d57a72cd","getPolicy(uint256)":"2b07fce3","getRule(uint256)":"48462037","getTracker(uint256)":"c3a83344","getTracker(uint256,uint256)":"72a340d7","updateForeignCall(uint256,address,string,uint8,uint8[])":"3bbaa76c","updateFunctionSignature(uint256,bytes4,uint8[])":"a5bcf7f2","updatePolicy(uint256,bytes4[],uint256[],uint256[][])":"50a9f0d4","updateRule(uint256,(uint256[],(uint256[],uint8[],bytes[]),(uint8,uint256,bool,bool)[],(uint8,uint256,bool,bool)[],(uint256,(uint8,(uint8,uint256,bool,bool))[])[],(uint256,(uint8,(uint8,uint256,bool,bool))[])[],(bool,uint8,string,uint256[])[],(bool,uint8,string,uint256[])[]))":"05e4eff3","updateTracker(uint256,uint256,address,string,bool,bytes)":"9c7a08e6"},"id":60}