{"abi":[{"type":"function","name":"_isTrackerSet","inputs":[{"name":"_policyId","type":"uint256","internalType":"uint256"},{"name":"_index","type":"uint256","internalType":"uint256"}],"outputs":[{"name":"","type":"bool","internalType":"bool"}],"stateMutability":"view"},{"type":"function","name":"applyPolicy","inputs":[{"name":"_contractAddress","type":"address","internalType":"address"},{"name":"_policyIds","type":"uint256[]","internalType":"uint256[]"}],"outputs":[],"stateMutability":"nonpayable"},{"type":"function","name":"cementPolicy","inputs":[{"name":"_policyId","type":"uint256","internalType":"uint256"}],"outputs":[],"stateMutability":"nonpayable"},{"type":"function","name":"closePolicy","inputs":[{"name":"_policyId","type":"uint256","internalType":"uint256"}],"outputs":[],"stateMutability":"nonpayable"},{"type":"function","name":"createPolicy","inputs":[{"name":"_functionSignatures","type":"tuple[]","internalType":"struct FunctionSignatureStorageSet[]","components":[{"name":"set","type":"bool","internalType":"bool"},{"name":"signature","type":"bytes4","internalType":"bytes4"},{"name":"parameterTypes","type":"uint8[]","internalType":"enum PT[]"}]},{"name":"_rules","type":"tuple[]","internalType":"struct Rule[]","components":[{"name":"instructionSet","type":"uint256[]","internalType":"uint256[]"},{"name":"rawData","type":"tuple","internalType":"struct RawData","components":[{"name":"instructionSetIndex","type":"uint256[]","internalType":"uint256[]"},{"name":"argumentTypes","type":"uint8[]","internalType":"enum PT[]"},{"name":"dataValues","type":"bytes[]","internalType":"bytes[]"}]},{"name":"placeHolders","type":"tuple[]","internalType":"struct Placeholder[]","components":[{"name":"pType","type":"uint8","internalType":"enum PT"},{"name":"typeSpecificIndex","type":"uint128","internalType":"uint128"},{"name":"trackerValue","type":"bool","internalType":"bool"},{"name":"foreignCall","type":"bool","internalType":"bool"}]},{"name":"effectPlaceHolders","type":"tuple[]","internalType":"struct Placeholder[]","components":[{"name":"pType","type":"uint8","internalType":"enum PT"},{"name":"typeSpecificIndex","type":"uint128","internalType":"uint128"},{"name":"trackerValue","type":"bool","internalType":"bool"},{"name":"foreignCall","type":"bool","internalType":"bool"}]},{"name":"posEffects","type":"tuple[]","internalType":"struct Effect[]","components":[{"name":"valid","type":"bool","internalType":"bool"},{"name":"dynamicParam","type":"bool","internalType":"bool"},{"name":"effectType","type":"uint8","internalType":"enum ET"},{"name":"pType","type":"uint8","internalType":"enum PT"},{"name":"param","type":"bytes","internalType":"bytes"},{"name":"text","type":"bytes32","internalType":"bytes32"},{"name":"errorMessage","type":"string","internalType":"string"},{"name":"instructionSet","type":"uint256[]","internalType":"uint256[]"}]},{"name":"negEffects","type":"tuple[]","internalType":"struct Effect[]","components":[{"name":"valid","type":"bool","internalType":"bool"},{"name":"dynamicParam","type":"bool","internalType":"bool"},{"name":"effectType","type":"uint8","internalType":"enum ET"},{"name":"pType","type":"uint8","internalType":"enum PT"},{"name":"param","type":"bytes","internalType":"bytes"},{"name":"text","type":"bytes32","internalType":"bytes32"},{"name":"errorMessage","type":"string","internalType":"string"},{"name":"instructionSet","type":"uint256[]","internalType":"uint256[]"}]}]},{"name":"_policyType","type":"uint8","internalType":"enum PolicyType"}],"outputs":[{"name":"","type":"uint256","internalType":"uint256"}],"stateMutability":"nonpayable"},{"type":"function","name":"createRule","inputs":[{"name":"_policyId","type":"uint256","internalType":"uint256"},{"name":"_rule","type":"tuple","internalType":"struct Rule","components":[{"name":"instructionSet","type":"uint256[]","internalType":"uint256[]"},{"name":"rawData","type":"tuple","internalType":"struct RawData","components":[{"name":"instructionSetIndex","type":"uint256[]","internalType":"uint256[]"},{"name":"argumentTypes","type":"uint8[]","internalType":"enum PT[]"},{"name":"dataValues","type":"bytes[]","internalType":"bytes[]"}]},{"name":"placeHolders","type":"tuple[]","internalType":"struct Placeholder[]","components":[{"name":"pType","type":"uint8","internalType":"enum PT"},{"name":"typeSpecificIndex","type":"uint128","internalType":"uint128"},{"name":"trackerValue","type":"bool","internalType":"bool"},{"name":"foreignCall","type":"bool","internalType":"bool"}]},{"name":"effectPlaceHolders","type":"tuple[]","internalType":"struct Placeholder[]","components":[{"name":"pType","type":"uint8","internalType":"enum PT"},{"name":"typeSpecificIndex","type":"uint128","internalType":"uint128"},{"name":"trackerValue","type":"bool","internalType":"bool"},{"name":"foreignCall","type":"bool","internalType":"bool"}]},{"name":"posEffects","type":"tuple[]","internalType":"struct Effect[]","components":[{"name":"valid","type":"bool","internalType":"bool"},{"name":"dynamicParam","type":"bool","internalType":"bool"},{"name":"effectType","type":"uint8","internalType":"enum ET"},{"name":"pType","type":"uint8","internalType":"enum PT"},{"name":"param","type":"bytes","internalType":"bytes"},{"name":"text","type":"bytes32","internalType":"bytes32"},{"name":"errorMessage","type":"string","internalType":"string"},{"name":"instructionSet","type":"uint256[]","internalType":"uint256[]"}]},{"name":"negEffects","type":"tuple[]","internalType":"struct Effect[]","components":[{"name":"valid","type":"bool","internalType":"bool"},{"name":"dynamicParam","type":"bool","internalType":"bool"},{"name":"effectType","type":"uint8","internalType":"enum ET"},{"name":"pType","type":"uint8","internalType":"enum PT"},{"name":"param","type":"bytes","internalType":"bytes"},{"name":"text","type":"bytes32","internalType":"bytes32"},{"name":"errorMessage","type":"string","internalType":"string"},{"name":"instructionSet","type":"uint256[]","internalType":"uint256[]"}]}]}],"outputs":[{"name":"","type":"uint256","internalType":"uint256"}],"stateMutability":"nonpayable"},{"type":"function","name":"deletePolicy","inputs":[{"name":"_policyId","type":"uint256","internalType":"uint256"}],"outputs":[],"stateMutability":"nonpayable"},{"type":"function","name":"getAllRules","inputs":[{"name":"_policyId","type":"uint256","internalType":"uint256"}],"outputs":[{"name":"","type":"tuple[][]","internalType":"struct Rule[][]","components":[{"name":"instructionSet","type":"uint256[]","internalType":"uint256[]"},{"name":"rawData","type":"tuple","internalType":"struct RawData","components":[{"name":"instructionSetIndex","type":"uint256[]","internalType":"uint256[]"},{"name":"argumentTypes","type":"uint8[]","internalType":"enum PT[]"},{"name":"dataValues","type":"bytes[]","internalType":"bytes[]"}]},{"name":"placeHolders","type":"tuple[]","internalType":"struct Placeholder[]","components":[{"name":"pType","type":"uint8","internalType":"enum PT"},{"name":"typeSpecificIndex","type":"uint128","internalType":"uint128"},{"name":"trackerValue","type":"bool","internalType":"bool"},{"name":"foreignCall","type":"bool","internalType":"bool"}]},{"name":"effectPlaceHolders","type":"tuple[]","internalType":"struct Placeholder[]","components":[{"name":"pType","type":"uint8","internalType":"enum PT"},{"name":"typeSpecificIndex","type":"uint128","internalType":"uint128"},{"name":"trackerValue","type":"bool","internalType":"bool"},{"name":"foreignCall","type":"bool","internalType":"bool"}]},{"name":"posEffects","type":"tuple[]","internalType":"struct Effect[]","components":[{"name":"valid","type":"bool","internalType":"bool"},{"name":"dynamicParam","type":"bool","internalType":"bool"},{"name":"effectType","type":"uint8","internalType":"enum ET"},{"name":"pType","type":"uint8","internalType":"enum PT"},{"name":"param","type":"bytes","internalType":"bytes"},{"name":"text","type":"bytes32","internalType":"bytes32"},{"name":"errorMessage","type":"string","internalType":"string"},{"name":"instructionSet","type":"uint256[]","internalType":"uint256[]"}]},{"name":"negEffects","type":"tuple[]","internalType":"struct Effect[]","components":[{"name":"valid","type":"bool","internalType":"bool"},{"name":"dynamicParam","type":"bool","internalType":"bool"},{"name":"effectType","type":"uint8","internalType":"enum ET"},{"name":"pType","type":"uint8","internalType":"enum PT"},{"name":"param","type":"bytes","internalType":"bytes"},{"name":"text","type":"bytes32","internalType":"bytes32"},{"name":"errorMessage","type":"string","internalType":"string"},{"name":"instructionSet","type":"uint256[]","internalType":"uint256[]"}]}]}],"stateMutability":"view"},{"type":"function","name":"getAppliedPolicyIds","inputs":[{"name":"_contractAddress","type":"address","internalType":"address"}],"outputs":[{"name":"","type":"uint256[]","internalType":"uint256[]"}],"stateMutability":"view"},{"type":"function","name":"getPolicy","inputs":[{"name":"_policyId","type":"uint256","internalType":"uint256"}],"outputs":[{"name":"functionSigs","type":"bytes4[]","internalType":"bytes4[]"},{"name":"functionSigIds","type":"uint256[]","internalType":"uint256[]"},{"name":"ruleIds","type":"uint256[][]","internalType":"uint256[][]"}],"stateMutability":"view"},{"type":"function","name":"getRule","inputs":[{"name":"_policyId","type":"uint256","internalType":"uint256"},{"name":"_ruleId","type":"uint256","internalType":"uint256"}],"outputs":[{"name":"","type":"tuple","internalType":"struct RuleStorageSet","components":[{"name":"set","type":"bool","internalType":"bool"},{"name":"rule","type":"tuple","internalType":"struct Rule","components":[{"name":"instructionSet","type":"uint256[]","internalType":"uint256[]"},{"name":"rawData","type":"tuple","internalType":"struct RawData","components":[{"name":"instructionSetIndex","type":"uint256[]","internalType":"uint256[]"},{"name":"argumentTypes","type":"uint8[]","internalType":"enum PT[]"},{"name":"dataValues","type":"bytes[]","internalType":"bytes[]"}]},{"name":"placeHolders","type":"tuple[]","internalType":"struct Placeholder[]","components":[{"name":"pType","type":"uint8","internalType":"enum PT"},{"name":"typeSpecificIndex","type":"uint128","internalType":"uint128"},{"name":"trackerValue","type":"bool","internalType":"bool"},{"name":"foreignCall","type":"bool","internalType":"bool"}]},{"name":"effectPlaceHolders","type":"tuple[]","internalType":"struct Placeholder[]","components":[{"name":"pType","type":"uint8","internalType":"enum PT"},{"name":"typeSpecificIndex","type":"uint128","internalType":"uint128"},{"name":"trackerValue","type":"bool","internalType":"bool"},{"name":"foreignCall","type":"bool","internalType":"bool"}]},{"name":"posEffects","type":"tuple[]","internalType":"struct Effect[]","components":[{"name":"valid","type":"bool","internalType":"bool"},{"name":"dynamicParam","type":"bool","internalType":"bool"},{"name":"effectType","type":"uint8","internalType":"enum ET"},{"name":"pType","type":"uint8","internalType":"enum PT"},{"name":"param","type":"bytes","internalType":"bytes"},{"name":"text","type":"bytes32","internalType":"bytes32"},{"name":"errorMessage","type":"string","internalType":"string"},{"name":"instructionSet","type":"uint256[]","internalType":"uint256[]"}]},{"name":"negEffects","type":"tuple[]","internalType":"struct Effect[]","components":[{"name":"valid","type":"bool","internalType":"bool"},{"name":"dynamicParam","type":"bool","internalType":"bool"},{"name":"effectType","type":"uint8","internalType":"enum ET"},{"name":"pType","type":"uint8","internalType":"enum PT"},{"name":"param","type":"bytes","internalType":"bytes"},{"name":"text","type":"bytes32","internalType":"bytes32"},{"name":"errorMessage","type":"string","internalType":"string"},{"name":"instructionSet","type":"uint256[]","internalType":"uint256[]"}]}]}]}],"stateMutability":"view"},{"type":"function","name":"isClosedPolicy","inputs":[{"name":"_policyId","type":"uint256","internalType":"uint256"}],"outputs":[{"name":"","type":"bool","internalType":"bool"}],"stateMutability":"view"},{"type":"function","name":"openPolicy","inputs":[{"name":"_policyId","type":"uint256","internalType":"uint256"}],"outputs":[],"stateMutability":"nonpayable"},{"type":"function","name":"updatePolicy","inputs":[{"name":"_policyId","type":"uint256","internalType":"uint256"},{"name":"_signatures","type":"bytes4[]","internalType":"bytes4[]"},{"name":"_functionSignatureIds","type":"uint256[]","internalType":"uint256[]"},{"name":"_ruleIds","type":"uint256[][]","internalType":"uint256[][]"},{"name":"_policyType","type":"uint8","internalType":"enum PolicyType"}],"outputs":[{"name":"","type":"uint256","internalType":"uint256"}],"stateMutability":"nonpayable"},{"type":"function","name":"updateRule","inputs":[{"name":"_policyId","type":"uint256","internalType":"uint256"},{"name":"_ruleId","type":"uint256","internalType":"uint256"},{"name":"_rule","type":"tuple","internalType":"struct Rule","components":[{"name":"instructionSet","type":"uint256[]","internalType":"uint256[]"},{"name":"rawData","type":"tuple","internalType":"struct RawData","components":[{"name":"instructionSetIndex","type":"uint256[]","internalType":"uint256[]"},{"name":"argumentTypes","type":"uint8[]","internalType":"enum PT[]"},{"name":"dataValues","type":"bytes[]","internalType":"bytes[]"}]},{"name":"placeHolders","type":"tuple[]","internalType":"struct Placeholder[]","components":[{"name":"pType","type":"uint8","internalType":"enum PT"},{"name":"typeSpecificIndex","type":"uint128","internalType":"uint128"},{"name":"trackerValue","type":"bool","internalType":"bool"},{"name":"foreignCall","type":"bool","internalType":"bool"}]},{"name":"effectPlaceHolders","type":"tuple[]","internalType":"struct Placeholder[]","components":[{"name":"pType","type":"uint8","internalType":"enum PT"},{"name":"typeSpecificIndex","type":"uint128","internalType":"uint128"},{"name":"trackerValue","type":"bool","internalType":"bool"},{"name":"foreignCall","type":"bool","internalType":"bool"}]},{"name":"posEffects","type":"tuple[]","internalType":"struct Effect[]","components":[{"name":"valid","type":"bool","internalType":"bool"},{"name":"dynamicParam","type":"bool","internalType":"bool"},{"name":"effectType","type":"uint8","internalType":"enum ET"},{"name":"pType","type":"uint8","internalType":"enum PT"},{"name":"param","type":"bytes","internalType":"bytes"},{"name":"text","type":"bytes32","internalType":"bytes32"},{"name":"errorMessage","type":"string","internalType":"string"},{"name":"instructionSet","type":"uint256[]","internalType":"uint256[]"}]},{"name":"negEffects","type":"tuple[]","internalType":"struct Effect[]","components":[{"name":"valid","type":"bool","internalType":"bool"},{"name":"dynamicParam","type":"bool","internalType":"bool"},{"name":"effectType","type":"uint8","internalType":"enum ET"},{"name":"pType","type":"uint8","internalType":"enum PT"},{"name":"param","type":"bytes","internalType":"bytes"},{"name":"text","type":"bytes32","internalType":"bytes32"},{"name":"errorMessage","type":"string","internalType":"string"},{"name":"instructionSet","type":"uint256[]","internalType":"uint256[]"}]}]}],"outputs":[{"name":"","type":"uint256","internalType":"uint256"}],"stateMutability":"nonpayable"},{"type":"event","name":"PolicyApplied","inputs":[{"name":"policyIds","type":"uint256[]","indexed":false,"internalType":"uint256[]"},{"name":"callingContract","type":"address","indexed":true,"internalType":"address"}],"anonymous":false},{"type":"event","name":"PolicyCemented","inputs":[{"name":"policyId","type":"uint256","indexed":true,"internalType":"uint256"}],"anonymous":false},{"type":"event","name":"PolicyClosed","inputs":[{"name":"policyId","type":"uint256","indexed":true,"internalType":"uint256"}],"anonymous":false},{"type":"event","name":"PolicyCreated","inputs":[{"name":"policyId","type":"uint256","indexed":true,"internalType":"uint256"}],"anonymous":false},{"type":"event","name":"PolicyDeleted","inputs":[{"name":"policyId","type":"uint256","indexed":true,"internalType":"uint256"}],"anonymous":false},{"type":"event","name":"PolicyOpened","inputs":[{"name":"policyId","type":"uint256","indexed":true,"internalType":"uint256"}],"anonymous":false},{"type":"event","name":"PolicyUpdated","inputs":[{"name":"policyId","type":"uint256","indexed":true,"internalType":"uint256"}],"anonymous":false},{"type":"event","name":"RuleCreated","inputs":[{"name":"policyId","type":"uint256","indexed":true,"internalType":"uint256"},{"name":"ruleId","type":"uint256","indexed":true,"internalType":"uint256"}],"anonymous":false},{"type":"event","name":"RuleUpdated","inputs":[{"name":"policyId","type":"uint256","indexed":true,"internalType":"uint256"},{"name":"ruleId","type":"uint256","indexed":true,"internalType":"uint256"}],"anonymous":false}],"bytecode":{"object":"0x6080604052348015600f57600080fd5b5061560b8061001f6000396000f3fe608060405234801561001057600080fd5b50600436106100f55760003560e01c80636d279ef811610097578063bc9b94eb11610066578063bc9b94eb14610219578063d46a37c41461022c578063e37490231461023f578063fed27c8f1461025f57600080fd5b80636d279ef8146101c0578063798d6c7b146101e057806380624b6f146101f35780639228303f1461020657600080fd5b80632b0e4440116100d35780632b0e4440146101625780632fd205bd1461017757806337794b071461018a5780634f10689b1461019d57600080fd5b80631ff76a7b146100fa578063266fc8a5146101205780632b07fce314610140575b600080fd5b61010d610108366004613d99565b610272565b6040519081526020015b60405180910390f35b61013361012e366004613e1f565b61039f565b604051610117919061422e565b61015361014e366004613e1f565b610fcb565b60405161011793929190614316565b610175610170366004613e1f565b6114a0565b005b61010d61018536600461440c565b6116a1565b61010d6101983660046144e4565b6118d9565b6101b06101ab366004613e1f565b611a71565b6040519015158152602001610117565b6101d36101ce366004614534565b611aab565b6040516101179190614556565b6101756101ee366004613e1f565b6123d8565b6101b0610201366004614534565b61255d565b6101756102143660046145a9565b612589565b61010d6102273660046145fc565b612abe565b61017561023a366004613e1f565b612c88565b61025261024d366004614643565b612ddd565b6040516101179190614665565b61017561026d366004613e1f565b612e5f565b60008061027d613140565b8054600190810180835560008181528284016020526040902080547fffffffffffffffffffffffffffffffffffffffffffffffffffffffffffffff0090811684178255600490910180549495509193879391169083818111156102e2576102e2613e74565b02179055506040517f1929cb64000000000000000000000000000000000000000000000000000000008152600481018290523360248201523090631929cb64906044016020604051808303816000875af1158015610344573d6000803e3d6000fd5b505050506040513d601f19601f820116820180604052508101906103689190614678565b5060405181907fde5ef345cecbaaffdfbe2454b7947aa14037bac2f45e4fc98976f8bffea3862390600090a2979650505050505050565b606060006103ab613140565b6001016000848152602001908152602001600020600101905060008160020180548060200260200160405190810160405280929190818152602001828054801561045657602002820191906000526020600020906000905b82829054906101000a900460e01b7bffffffffffffffffffffffffffffffffffffffffffffffffffffffff1916815260200190600401906020826003010492830192600103820291508084116104035790505b505050505090506000815167ffffffffffffffff81111561047957610479614691565b6040519080825280602002602001820160405280156104ac57816020015b60608152602001906001900390816104975790505b50905060005b8251811015610fc25760008460010160008584815181106104d5576104d56146c0565b60200260200101517bffffffffffffffffffffffffffffffffffffffffffffffffffffffff19167bffffffffffffffffffffffffffffffffffffffffffffffffffffffff1916815260200190815260200160002080548060200260200160405190810160405280929190818152602001828054801561057357602002820191906000526020600020905b81548152602001906001019080831161055f575b50505050509050805167ffffffffffffffff81111561059457610594614691565b6040519080825280602002602001820160405280156105cd57816020015b6105ba613c1e565b8152602001906001900390816105b25790505b508383815181106105e0576105e06146c0565b602002602001018190525060005b8151811015610fb8576105ff61316e565b60010160008981526020019081526020016000206000838381518110610627576106276146c0565b60209081029190910181015182528101919091526040016000205460ff1615610fb05761065261316e565b6001016000898152602001908152602001600020600083838151811061067a5761067a6146c0565b602002602001015181526020019081526020016000206001016040518060c0016040529081600082018054806020026020016040519081016040528092919081815260200182805480156106ed57602002820191906000526020600020905b8154815260200190600101908083116106d9575b50505050508152602001600182016040518060600160405290816000820180548060200260200160405190810160405280929190818152602001828054801561075557602002820191906000526020600020905b815481526020019060010190808311610741575b50505050508152602001600182018054806020026020016040519081016040528092919081815260200182805480156107dd57602002820191906000526020600020906000905b82829054906101000a900460ff1660078111156107bb576107bb613e74565b81526020600192830181810494850194909303909202910180841161079c5790505b5050505050815260200160028201805480602002602001604051908101604052809291908181526020016000905b828210156108b757838290600052602060002001805461082a906146ef565b80601f0160208091040260200160405190810160405280929190818152602001828054610856906146ef565b80156108a35780601f10610878576101008083540402835291602001916108a3565b820191906000526020600020905b81548152906001019060200180831161088657829003601f168201915b50505050508152602001906001019061080b565b5050505081525050815260200160048201805480602002602001604051908101604052809291908181526020016000905b828210156109a95760008481526020902060408051608081019091529083018054829060ff16600781111561091f5761091f613e74565b600781111561093057610930613e74565b815290546fffffffffffffffffffffffffffffffff61010082041660208084019190915260ff7101000000000000000000000000000000000083048116151560408501527201000000000000000000000000000000000000909204909116151560609092019190915290825260019290920191016108e8565b50505050815260200160058201805480602002602001604051908101604052809291908181526020016000905b82821015610a975760008481526020902060408051608081019091529083018054829060ff166007811115610a0d57610a0d613e74565b6007811115610a1e57610a1e613e74565b815290546fffffffffffffffffffffffffffffffff61010082041660208084019190915260ff7101000000000000000000000000000000000083048116151560408501527201000000000000000000000000000000000000909204909116151560609092019190915290825260019290920191016109d6565b50505050815260200160068201805480602002602001604051908101604052809291908181526020016000905b82821015610d0457600084815260209081902060408051610100808201835260058702909301805460ff808216151584529481048516151595830195909552909390929184019162010000909104166002811115610b2457610b24613e74565b6002811115610b3557610b35613e74565b815281546020909101906301000000900460ff166007811115610b5a57610b5a613e74565b6007811115610b6b57610b6b613e74565b8152602001600182018054610b7f906146ef565b80601f0160208091040260200160405190810160405280929190818152602001828054610bab906146ef565b8015610bf85780601f10610bcd57610100808354040283529160200191610bf8565b820191906000526020600020905b815481529060010190602001808311610bdb57829003601f168201915b5050505050815260200160028201548152602001600382018054610c1b906146ef565b80601f0160208091040260200160405190810160405280929190818152602001828054610c47906146ef565b8015610c945780601f10610c6957610100808354040283529160200191610c94565b820191906000526020600020905b815481529060010190602001808311610c7757829003601f168201915b5050505050815260200160048201805480602002602001604051908101604052809291908181526020018280548015610cec57602002820191906000526020600020905b815481526020019060010190808311610cd8575b50505050508152505081526020019060010190610ac4565b50505050815260200160078201805480602002602001604051908101604052809291908181526020016000905b82821015610f7157600084815260209081902060408051610100808201835260058702909301805460ff808216151584529481048516151595830195909552909390929184019162010000909104166002811115610d9157610d91613e74565b6002811115610da257610da2613e74565b815281546020909101906301000000900460ff166007811115610dc757610dc7613e74565b6007811115610dd857610dd8613e74565b8152602001600182018054610dec906146ef565b80601f0160208091040260200160405190810160405280929190818152602001828054610e18906146ef565b8015610e655780601f10610e3a57610100808354040283529160200191610e65565b820191906000526020600020905b815481529060010190602001808311610e4857829003601f168201915b5050505050815260200160028201548152602001600382018054610e88906146ef565b80601f0160208091040260200160405190810160405280929190818152602001828054610eb4906146ef565b8015610f015780601f10610ed657610100808354040283529160200191610f01565b820191906000526020600020905b815481529060010190602001808311610ee457829003601f168201915b5050505050815260200160048201805480602002602001604051908101604052809291908181526020018280548015610f5957602002820191906000526020600020905b815481526020019060010190808311610f45575b50505050508152505081526020019060010190610d31565b5050505081525050848481518110610f8b57610f8b6146c0565b60200260200101518281518110610fa457610fa46146c0565b60200260200101819052505b6001016105ee565b50506001016104b2565b50949350505050565b60608060606000610fda613140565b6000868152600191820160205260409020600381015491019150156110e157600281015467ffffffffffffffff81111561101657611016614691565b60405190808252806020026020018201604052801561103f578160200160208202803683370190505b50600282015490945067ffffffffffffffff81111561106057611060614691565b604051908082528060200260200182016040528015611089578160200160208202803683370190505b50600282015490935067ffffffffffffffff8111156110aa576110aa614691565b6040519080825280602002602001820160405280156110dd57816020015b60608152602001906001900390816110c85790505b5091505b600281015467ffffffffffffffff8111156110fe576110fe614691565b60405190808252806020026020018201604052801561113157816020015b606081526020019060019003908161111c5790505b50915060005b600282015481101561149757816002018181548110611158576111586146c0565b90600052602060002090600891828204019190066004029054906101000a900460e01b85828151811061118d5761118d6146c0565b7fffffffff00000000000000000000000000000000000000000000000000000000909216602092830291909101909101526002820180548391600091849081106111d9576111d96146c0565b90600052602060002090600891828204019190066004029054906101000a900460e01b7bffffffffffffffffffffffffffffffffffffffffffffffffffffffff19167bffffffffffffffffffffffffffffffffffffffffffffffffffffffff191681526020019081526020016000205484828151811061125b5761125b6146c0565b60200260200101818152505060005b826001016000846002018481548110611285576112856146c0565b6000918252602080832060088304015460079092166004026101000a90910460e01b7fffffffff0000000000000000000000000000000000000000000000000000000016835282019290925260400190205481101561148e578260010160008460020184815481106112f9576112f96146c0565b6000918252602080832060088304015460079092166004026101000a90910460e01b7fffffffff0000000000000000000000000000000000000000000000000000000016835282019290925260400190205467ffffffffffffffff81111561136357611363614691565b60405190808252806020026020018201604052801561138c578160200160208202803683370190505b5084838151811061139f5761139f6146c0565b60200260200101819052508260010160008460020184815481106113c5576113c56146c0565b90600052602060002090600891828204019190066004029054906101000a900460e01b7bffffffffffffffffffffffffffffffffffffffffffffffffffffffff19167bffffffffffffffffffffffffffffffffffffffffffffffffffffffff191681526020019081526020016000208181548110611445576114456146c0565b9060005260206000200154848381518110611462576114626146c0565b6020026020010151828151811061147b5761147b6146c0565b602090810291909101015260010161126a565b50600101611137565b50509193909250565b6040516024810182905233604482018190528291600090819061155e907f901cee1100000000000000000000000000000000000000000000000000000000906064015b604080517fffffffffffffffffffffffffffffffffffffffffffffffffffffffffffffffe08184030181529190526020810180517bffffffffffffffffffffffffffffffffffffffffffffffffffffffff167f901cee110000000000000000000000000000000000000000000000000000000017905261319c565b91509150600082156115ee57600482511061157e57506020810151611582565b5060005b806115ee576040517f08c379a000000000000000000000000000000000000000000000000000000000815260206004820152601860248201527f4e6f7420417574686f72697a656420546f20506f6c696379000000000000000060448201526064015b60405180910390fd5b856115f881613263565b1561166257604080518082018252601f81527f4e6f7420616c6c6f77656420666f722063656d656e74656420706f6c69637900602082015290517f08c379a00000000000000000000000000000000000000000000000000000000081526115e5919060040161473c565b61166d87600061328c565b60405187907f524fcc256039a8ee7fd3d614ec713bd4a9159d02d7261ae80028fc15b45c484890600090a250505050505050565b600088336000806116e563901cee1160e01b85856040516024016114e392919091825273ffffffffffffffffffffffffffffffffffffffff16602082015260400190565b915091506000821561177057600482511061170557506020810151611709565b5060005b80611770576040517f08c379a000000000000000000000000000000000000000000000000000000000815260206004820152601860248201527f4e6f7420417574686f72697a656420546f20506f6c696379000000000000000060448201526064016115e5565b8d61177a81613263565b156117e457604080518082018252601f81527f4e6f7420616c6c6f77656420666f722063656d656e74656420706f6c69637900602082015290517f08c379a00000000000000000000000000000000000000000000000000000000081526115e5919060040161473c565b8c8b14611837576040518060600160405280602e815260200161556f602e91396040517f08c379a00000000000000000000000000000000000000000000000000000000081526004016115e5919061473c565b8e60000361188b576040518060600160405280603481526020016154f2603491396040517f08c379a00000000000000000000000000000000000000000000000000000000081526004016115e5919061473c565b6040518f907f912ce63c438aca9d2f50d1d12de5b42efbcc84ce223b08122e8c2e3c000ca1f890600090a26118c68f8f8f8f8f8f8f8f6133b6565b9f9e505050505050505050505050505050565b6000833360008061191d63901cee1160e01b85856040516024016114e392919091825273ffffffffffffffffffffffffffffffffffffffff16602082015260400190565b91509150600082156119a857600482511061193d57506020810151611941565b5060005b806119a8576040517f08c379a000000000000000000000000000000000000000000000000000000000815260206004820152601860248201527f4e6f7420417574686f72697a656420546f20506f6c696379000000000000000060448201526064016115e5565b886119b281613263565b15611a1c57604080518082018252601f81527f4e6f7420616c6c6f77656420666f722063656d656e74656420706f6c69637900602082015290517f08c379a00000000000000000000000000000000000000000000000000000000081526115e5919060040161473c565b6000611a2661316e565b9050611a34818c8c8c613a41565b506040518a908c907fe91f86fd53c89629ca0bc01d0f219a6cd6730e5252f179944d1f3c9b5def1b0790600090a350979998505050505050505050565b600080611a7c613140565b60008481526001918201602052604090206004015460ff1690811115611aa457611aa4613e74565b1492915050565b611ab3613c76565b611abb61316e565b600084815260019182016020908152604080832086845282529182902082518084018452815460ff16151581528351948201805460e08186028801810190965260c0870181815292969395948701949192849290918491840182828015611b4157602002820191906000526020600020905b815481526020019060010190808311611b2d575b505050505081526020016001820160405180606001604052908160008201805480602002602001604051908101604052809291908181526020018280548015611ba957602002820191906000526020600020905b815481526020019060010190808311611b95575b5050505050815260200160018201805480602002602001604051908101604052809291908181526020018280548015611c3157602002820191906000526020600020906000905b82829054906101000a900460ff166007811115611c0f57611c0f613e74565b815260206001928301818104948501949093039092029101808411611bf05790505b5050505050815260200160028201805480602002602001604051908101604052809291908181526020016000905b82821015611d0b578382906000526020600020018054611c7e906146ef565b80601f0160208091040260200160405190810160405280929190818152602001828054611caa906146ef565b8015611cf75780601f10611ccc57610100808354040283529160200191611cf7565b820191906000526020600020905b815481529060010190602001808311611cda57829003601f168201915b505050505081526020019060010190611c5f565b5050505081525050815260200160048201805480602002602001604051908101604052809291908181526020016000905b82821015611dfd5760008481526020902060408051608081019091529083018054829060ff166007811115611d7357611d73613e74565b6007811115611d8457611d84613e74565b815290546fffffffffffffffffffffffffffffffff61010082041660208084019190915260ff710100000000000000000000000000000000008304811615156040850152720100000000000000000000000000000000000090920490911615156060909201919091529082526001929092019101611d3c565b50505050815260200160058201805480602002602001604051908101604052809291908181526020016000905b82821015611eeb5760008481526020902060408051608081019091529083018054829060ff166007811115611e6157611e61613e74565b6007811115611e7257611e72613e74565b815290546fffffffffffffffffffffffffffffffff61010082041660208084019190915260ff710100000000000000000000000000000000008304811615156040850152720100000000000000000000000000000000000090920490911615156060909201919091529082526001929092019101611e2a565b50505050815260200160068201805480602002602001604051908101604052809291908181526020016000905b8282101561215857600084815260209081902060408051610100808201835260058702909301805460ff808216151584529481048516151595830195909552909390929184019162010000909104166002811115611f7857611f78613e74565b6002811115611f8957611f89613e74565b815281546020909101906301000000900460ff166007811115611fae57611fae613e74565b6007811115611fbf57611fbf613e74565b8152602001600182018054611fd3906146ef565b80601f0160208091040260200160405190810160405280929190818152602001828054611fff906146ef565b801561204c5780601f106120215761010080835404028352916020019161204c565b820191906000526020600020905b81548152906001019060200180831161202f57829003601f168201915b505050505081526020016002820154815260200160038201805461206f906146ef565b80601f016020809104026020016040519081016040528092919081815260200182805461209b906146ef565b80156120e85780601f106120bd576101008083540402835291602001916120e8565b820191906000526020600020905b8154815290600101906020018083116120cb57829003601f168201915b505050505081526020016004820180548060200260200160405190810160405280929190818152602001828054801561214057602002820191906000526020600020905b81548152602001906001019080831161212c575b50505050508152505081526020019060010190611f18565b50505050815260200160078201805480602002602001604051908101604052809291908181526020016000905b828210156123c557600084815260209081902060408051610100808201835260058702909301805460ff8082161515845294810485161515958301959095529093909291840191620100009091041660028111156121e5576121e5613e74565b60028111156121f6576121f6613e74565b815281546020909101906301000000900460ff16600781111561221b5761221b613e74565b600781111561222c5761222c613e74565b8152602001600182018054612240906146ef565b80601f016020809104026020016040519081016040528092919081815260200182805461226c906146ef565b80156122b95780601f1061228e576101008083540402835291602001916122b9565b820191906000526020600020905b81548152906001019060200180831161229c57829003601f168201915b50505050508152602001600282015481526020016003820180546122dc906146ef565b80601f0160208091040260200160405190810160405280929190818152602001828054612308906146ef565b80156123555780601f1061232a57610100808354040283529160200191612355565b820191906000526020600020905b81548152906001019060200180831161233857829003601f168201915b50505050508152602001600482018054806020026020016040519081016040528092919081815260200182805480156123ad57602002820191906000526020600020905b815481526020019060010190808311612399575b50505050508152505081526020019060010190612185565b5050509152505090525090505b92915050565b6040516024810182905233604482018190528291600090819061241f907f901cee1100000000000000000000000000000000000000000000000000000000906064016114e3565b91509150600082156124aa57600482511061243f57506020810151612443565b5060005b806124aa576040517f08c379a000000000000000000000000000000000000000000000000000000000815260206004820152601860248201527f4e6f7420417574686f72697a656420546f20506f6c696379000000000000000060448201526064016115e5565b856124b481613263565b1561251e57604080518082018252601f81527f4e6f7420616c6c6f77656420666f722063656d656e74656420706f6c69637900602082015290517f08c379a00000000000000000000000000000000000000000000000000000000081526115e5919060040161473c565b61252987600161328c565b60405187907fe9a53e8109d105e8132e423c8a8489a6c054acbfff3373248be4938a857143d990600090a250505050505050565b6000612567613b24565b6000938452600101602090815260408085209385529290525090205460ff1690565b60405173ffffffffffffffffffffffffffffffffffffffff8416602482015233604482018190528491600090819061265b907f70aca0920000000000000000000000000000000000000000000000000000000090606401604080517fffffffffffffffffffffffffffffffffffffffffffffffffffffffffffffffe08184030181529190526020810180517bffffffffffffffffffffffffffffffffffffffffffffffffffffffff167f70aca0920000000000000000000000000000000000000000000000000000000017905261319c565b91509150600082156126e657600482511061267b5750602081015161267f565b5060005b806126e6576040517f08c379a000000000000000000000000000000000000000000000000000000000815260206004820152601460248201527f4e6f7420417574686f72697a65642041646d696e00000000000000000000000060448201526064016115e5565b60006126f0613b52565b905060005b878110156128d6576000612707613140565b60010160008b8b8581811061271e5761271e6146c0565b90506020020135815260200190815260200160002090508060000160009054906101000a900460ff166040518060400160405280601581526020017f506f6c69637920646f6573206e6f742065786973740000000000000000000000815250906127b5576040517f08c379a00000000000000000000000000000000000000000000000000000000081526004016115e5919061473c565b506127d78a8a848181106127cb576127cb6146c0565b90506020020135613263565b1561284157604080518082018252601f81527f4e6f7420616c6c6f77656420666f722063656d656e74656420706f6c69637900602082015290517f08c379a00000000000000000000000000000000000000000000000000000000081526115e5919060040161473c565b6000600482015460ff16600181111561285c5761285c613e74565b036128cd5733600090815260058201602090815260409182902054825160608101909352603980845260ff909116929161559d90830139906128cb576040517f08c379a00000000000000000000000000000000000000000000000000000000081526004016115e5919061473c565b505b506001016126f5565b508667ffffffffffffffff8111156128f0576128f0614691565b604051908082528060200260200182016040528015612919578160200160208202803683370190505b5073ffffffffffffffffffffffffffffffffffffffff8a1660009081526020838152604090912082516129529391929190910190613c97565b5060005b87811015612a6257888882818110612970576129706146c0565b905060200201358260000160008c73ffffffffffffffffffffffffffffffffffffffff1673ffffffffffffffffffffffffffffffffffffffff16815260200190815260200160002082815481106129c9576129c96146c0565b90600052602060002001819055508160010160008a8a848181106129ef576129ef6146c0565b602090810292909201358352508181019290925260400160009081208054600180820183559183529290912090910180547fffffffffffffffffffffffff00000000000000000000000000000000000000001673ffffffffffffffffffffffffffffffffffffffff8d1617905501612956565b508873ffffffffffffffffffffffffffffffffffffffff167f12152a04e6faa55f635c036c0cb901dff565d19cd5703f5076adda8206cdb7c68989604051612aab92919061474f565b60405180910390a2505050505050505050565b60008233600080612b0263901cee1160e01b85856040516024016114e392919091825273ffffffffffffffffffffffffffffffffffffffff16602082015260400190565b9150915060008215612b8d576004825110612b2257506020810151612b26565b5060005b80612b8d576040517f08c379a000000000000000000000000000000000000000000000000000000000815260206004820152601860248201527f4e6f7420417574686f72697a656420546f20506f6c696379000000000000000060448201526064016115e5565b87612b9781613263565b15612c0157604080518082018252601f81527f4e6f7420616c6c6f77656420666f722063656d656e74656420706f6c69637900602082015290517f08c379a00000000000000000000000000000000000000000000000000000000081526115e5919060040161473c565b6000612c0b61316e565b60008b8152602082905260408120805492935090918290612c2b906147d0565b91829055509050612c3e828c838d613a41565b5060008b8152602083905260408082208390555182918d917fcadd4461b462556a5a12f6e182d719fd2bbfaaa0a6fcf6a16cf7ecf6480769219190a39a9950505050505050505050565b60405160248101829052336044820181905282916000908190612ccf907f901cee1100000000000000000000000000000000000000000000000000000000906064016114e3565b9150915060008215612d5a576004825110612cef57506020810151612cf3565b5060005b80612d5a576040517f08c379a000000000000000000000000000000000000000000000000000000000815260206004820152601860248201527f4e6f7420417574686f72697a656420546f20506f6c696379000000000000000060448201526064016115e5565b6001612d64613140565b600088815260019190910160205260408082206004018054931515610100027fffffffffffffffffffffffffffffffffffffffffffffffffffffffffffff00ff90941693909317909255905187917fbaf00585ebbdf781652a166975bf4579319799593ec61cfadd690ea9833c3fc891a2505050505050565b6060612de7613b52565b73ffffffffffffffffffffffffffffffffffffffff83166000908152602091825260409081902080548251818502810185019093528083529192909190830182828015612e5357602002820191906000526020600020905b815481526020019060010190808311612e3f575b50505050509050919050565b60405160248101829052336044820181905282916000908190612ea6907f901cee1100000000000000000000000000000000000000000000000000000000906064016114e3565b9150915060008215612f31576004825110612ec657506020810151612eca565b5060005b80612f31576040517f08c379a000000000000000000000000000000000000000000000000000000000815260206004820152601860248201527f4e6f7420417574686f72697a656420546f20506f6c696379000000000000000060448201526064016115e5565b85612f3b81613263565b15612fa557604080518082018252601f81527f4e6f7420616c6c6f77656420666f722063656d656e74656420706f6c69637900602082015290517f08c379a00000000000000000000000000000000000000000000000000000000081526115e5919060040161473c565b6000612faf613140565b60008981526001919091016020526040812080547fffffffffffffffffffffffffffffffffffffffffffffffffffffffffffffff0016815591505b600382015481101561310a57600382018054600184019160009184908110613014576130146146c0565b90600052602060002090600891828204019190066004029054906101000a900460e01b7bffffffffffffffffffffffffffffffffffffffffffffffffffffffff19167bffffffffffffffffffffffffffffffffffffffffffffffffffffffff19168152602001908152602001600020600090558160010160010160008360010160020183815481106130a8576130a86146c0565b6000918252602080832060088304015460079092166004026101000a90910460e01b7fffffffff00000000000000000000000000000000000000000000000000000000168352820192909252604001812061310291613ce2565b600101612fea565b5060405188907f433ab09ab993382af577c4a70f77dcc7cf149b5b52eb40d19b869664bfb5496d90600090a25050505050505050565b6000806123d260017ff9dbd639dd2ea165d77dd4c51dec420100d51ceacf023b1c40faa045ba8f9a65614808565b6000806123d260017f5c91f63a4ffcbd372b8ec622fd1fcaaa601b66330afdb30e5c292dd9123f20b0614808565b6000606060006131aa613b80565b7fffffffff0000000000000000000000000000000000000000000000000000000086166000908152602082905260409081902054905191925073ffffffffffffffffffffffffffffffffffffffff1690819061320790879061481b565b600060405180830381855af49150503d8060008114613242576040519150601f19603f3d011682016040523d82523d6000602084013e613247565b606091505b5090945092508361325a57825160208401fd5b50509250929050565b600061326d613140565b6000928352600101602052506040902060040154610100900460ff1690565b6000613296613140565b600084815260019182016020526040812090910191508260018111156132be576132be613e74565b0361336e5760006132cd613b52565b905060005b6000858152600183016020526040902054811015613352576000858152600183016020526040812080548492919084908110613310576133106146c0565b600091825260208083209091015473ffffffffffffffffffffffffffffffffffffffff168352820192909252604001812061334a91613ce2565b6001016132d2565b506000848152600182016020526040812061336c91613ce2565b505b6003810180548391907fffffffffffffffffffffffffffffffffffffffffffffffffffffffffffffff0016600183818111156133ac576133ac613e74565b0217905550505050565b6000806133c1613140565b60008b81526001918201602052604090200190506133df8a8461328c565b6133ed600282016000613d03565b83156138bd5760005b888110156138b7576134208b898984818110613414576134146146c0565b90506020020135613bae565b61348957604080518082018252601181527f496e76616c6964205369676e6174757265000000000000000000000000000000602082015290517f08c379a00000000000000000000000000000000000000000000000000000000081526115e5919060040161473c565b87878281811061349b5761349b6146c0565b905060200201358260000160008c8c858181106134ba576134ba6146c0565b90506020020160208101906134cf9190614837565b7fffffffff00000000000000000000000000000000000000000000000000000000168152602081019190915260400160002055600282018a8a83818110613518576135186146c0565b905060200201602081019061352d9190614837565b81546001810183556000928352602083206008820401805463ffffffff60079093166004026101000a928302191660e09390931c919091029190911790555b86868381811061357e5761357e6146c0565b90506020028101906135909190614879565b90508110156138ae5760006135df8d8989868181106135b1576135b16146c0565b90506020028101906135c39190614879565b858181106135d3576135d36146c0565b90506020020135611aab565b805190915061364d57604080518082018252600c81527f496e76616c69642052756c650000000000000000000000000000000000000000602082015290517f08c379a00000000000000000000000000000000000000000000000000000000081526115e5919060040161473c565b60005b816020015160400151518110156137eb57816020015160400151818151811061367b5761367b6146c0565b60200260200101516060015115613724576136cd8e83602001516040015183815181106136aa576136aa6146c0565b6020026020010151602001516fffffffffffffffffffffffffffffffff16613bb8565b604051806060016040528060278152602001615548602791399061371e576040517f08c379a00000000000000000000000000000000000000000000000000000000081526004016115e5919061473c565b506137e3565b816020015160400151818151811061373e5761373e6146c0565b602002602001015160400151156137e3576137908e836020015160400151838151811061376d5761376d6146c0565b6020026020010151602001516fffffffffffffffffffffffffffffffff1661255d565b60405180606001604052806022815260200161552660229139906137e1576040517f08c379a00000000000000000000000000000000000000000000000000000000081526004016115e5919061473c565b505b600101613650565b508360010160008d8d86818110613804576138046146c0565b90506020020160208101906138199190614837565b7fffffffff00000000000000000000000000000000000000000000000000000000168152602081019190915260400160002088888581811061385d5761385d6146c0565b905060200281019061386f9190614879565b8481811061387f5761387f6146c0565b83546001808201865560009586526020958690209290950293909301359201919091555091909101905061356c565b506001016133f6565b50613a33565b60005b88811015613a31576138de8b898984818110613414576134146146c0565b61394757604080518082018252601181527f496e76616c6964205369676e6174757265000000000000000000000000000000602082015290517f08c379a00000000000000000000000000000000000000000000000000000000081526115e5919060040161473c565b878782818110613959576139596146c0565b905060200201358260000160008c8c85818110613978576139786146c0565b905060200201602081019061398d9190614837565b7fffffffff00000000000000000000000000000000000000000000000000000000168152602081019190915260400160002055600282018a8a838181106139d6576139d66146c0565b90506020020160208101906139eb9190614837565b815460018082018455600093845260209093206008820401805463ffffffff60079093166004026101000a928302191660e09390931c91909102919091179055016138c0565b505b509798975050505050505050565b6000613a4b613140565b6000858152600191909101602052604090205460ff16613ac7576040517f08c379a000000000000000000000000000000000000000000000000000000000815260206004820152601060248201527f496e76616c696420506f6c69637949640000000000000000000000000000000060448201526064016115e5565b600084815260018681016020908152604080842087855290915290912080547fffffffffffffffffffffffffffffffffffffffffffffffffffffffffffffff001682178155839101613b19828261540e565b509295945050505050565b6000806123d260017f438102ff677bc3f21830c58117a05d6b953b31e3ea339da3f17957cd3941a690614808565b6000806123d260017f1544053a94493269e0aa160e5aa5b54d19ee6492c78b8bd3af283b912c78cdeb614808565b6000806123d260017fbe498a3b14fd79a48c3c9af86ff14271ed497d09071013334028d28e7791db20614808565b6000612567613bc2565b6000612567613bf0565b6000806123d260017f8b87534450a5488e76eda19b94ce784ed5d5fd327ac126c78047b6b2a04cf2f6614808565b6000806123d260017f1f3305601ed940efccf797d76856e5fe70659a8a6905d64c9f236321df91e718614808565b6040518060c0016040528060608152602001613c5460405180606001604052806060815260200160608152602001606081525090565b8152602001606081526020016060815260200160608152602001606081525090565b6040518060400160405280600015158152602001613c92613c1e565b905290565b828054828255906000526020600020908101928215613cd2579160200282015b82811115613cd2578251825591602001919060010190613cb7565b50613cde929150613d24565b5090565b5080546000825590600052602060002090810190613d009190613d24565b50565b508054600082556007016008900490600052602060002090810190613d0091905b5b80821115613cde5760008155600101613d25565b60008083601f840112613d4b57600080fd5b50813567ffffffffffffffff811115613d6357600080fd5b6020830191508360208260051b8501011115613d7e57600080fd5b9250929050565b803560028110613d9457600080fd5b919050565b600080600080600060608688031215613db157600080fd5b853567ffffffffffffffff811115613dc857600080fd5b613dd488828901613d39565b909650945050602086013567ffffffffffffffff811115613df457600080fd5b613e0088828901613d39565b9094509250613e13905060408701613d85565b90509295509295909350565b600060208284031215613e3157600080fd5b5035919050565b600081518084526020840193506020830160005b82811015613e6a578151865260209586019590910190600101613e4c565b5093949350505050565b7f4e487b7100000000000000000000000000000000000000000000000000000000600052602160045260246000fd5b60088110613eb357613eb3613e74565b9052565b60005b83811015613ed2578181015183820152602001613eba565b50506000910152565b60008151808452613ef3816020860160208601613eb7565b601f017fffffffffffffffffffffffffffffffffffffffffffffffffffffffffffffffe0169290920160200192915050565b600081518084526020840193506020830160005b82811015613e6a578151613f4e878251613ea3565b6fffffffffffffffffffffffffffffffff602082015116602088015260408101511515604088015260608101511515606088015250608086019550602082019150600181019050613f39565b60038110613eb357613eb3613e74565b600082825180855260208501945060208160051b8301016020850160005b838110156140ab578483037fffffffffffffffffffffffffffffffffffffffffffffffffffffffffffffffe001885281518051151584526020810151614012602086018215159052565b5060408101516140256040860182613f9a565b5060608101516140386060860182613ea3565b5060808101516101006080860152614054610100860182613edb565b905060a082015160a086015260c082015185820360c08701526140778282613edb565b91505060e0820151915084810360e08601526140938183613e38565b60209a8b019a90955093909301925050600101613fc8565b50909695505050505050565b6000815160c084526140cc60c0850182613e38565b9050602083015184820360208601528051606083526140ee6060840182613e38565b6020838101518583038683015280518084529082019350600092909101905b8083101561413757614120828551613ea3565b60208201915060208401935060018301925061410d565b506040840151935084810360408601528094508351925082815260208101945060208360051b820101915060208401935060005b838110156141ba577fffffffffffffffffffffffffffffffffffffffffffffffffffffffffffffffe08284030186526141a5838651613edb565b6020968701969590950194925060010161416b565b50506040860151935086810360408801526141d58185613f25565b9350505050606083015184820360608601526141f18282613f25565b9150506080830151848203608086015261420b8282613faa565b91505060a083015184820360a08601526142258282613faa565b95945050505050565b6000602082016020835280845180835260408501915060408160051b86010192506020860160005b8281101561430a578685037fffffffffffffffffffffffffffffffffffffffffffffffffffffffffffffffc0018452815180518087526020918201918088019190600582901b89010160005b828110156142f1577fffffffffffffffffffffffffffffffffffffffffffffffffffffffffffffffe08a83030184526142dc8286516140b7565b602095860195949094019391506001016142a2565b5097505050602094850194929092019150600101614256565b50929695505050505050565b6060808252845190820181905260009060208601906080840190835b818110156143725783517fffffffff0000000000000000000000000000000000000000000000000000000016835260209384019390920191600101614332565b505083810360208501526143868187613e38565b915050828103604084015280845180835260208301915060208160051b8401016020870160005b838110156143fd577fffffffffffffffffffffffffffffffffffffffffffffffffffffffffffffffe08684030185526143e7838351613e38565b60209586019590935091909101906001016143ad565b50909998505050505050505050565b60008060008060008060008060a0898b03121561442857600080fd5b88359750602089013567ffffffffffffffff81111561444657600080fd5b6144528b828c01613d39565b909850965050604089013567ffffffffffffffff81111561447257600080fd5b61447e8b828c01613d39565b909650945050606089013567ffffffffffffffff81111561449e57600080fd5b6144aa8b828c01613d39565b90945092506144bd905060808a01613d85565b90509295985092959890939650565b600060c082840312156144de57600080fd5b50919050565b6000806000606084860312156144f957600080fd5b8335925060208401359150604084013567ffffffffffffffff81111561451e57600080fd5b61452a868287016144cc565b9150509250925092565b6000806040838503121561454757600080fd5b50508035926020909101359150565b602081528151151560208201526000602083015160408084015261457d60608401826140b7565b949350505050565b803573ffffffffffffffffffffffffffffffffffffffff81168114613d9457600080fd5b6000806000604084860312156145be57600080fd5b6145c784614585565b9250602084013567ffffffffffffffff8111156145e357600080fd5b6145ef86828701613d39565b9497909650939450505050565b6000806040838503121561460f57600080fd5b82359150602083013567ffffffffffffffff81111561462d57600080fd5b614639858286016144cc565b9150509250929050565b60006020828403121561465557600080fd5b61465e82614585565b9392505050565b60208152600061465e6020830184613e38565b60006020828403121561468a57600080fd5b5051919050565b7f4e487b7100000000000000000000000000000000000000000000000000000000600052604160045260246000fd5b7f4e487b7100000000000000000000000000000000000000000000000000000000600052603260045260246000fd5b600181811c9082168061470357607f821691505b6020821081036144de577f4e487b7100000000000000000000000000000000000000000000000000000000600052602260045260246000fd5b60208152600061465e6020830184613edb565b6020815281602082015260007f07ffffffffffffffffffffffffffffffffffffffffffffffffffffffffffffff83111561478857600080fd5b8260051b80856040850137919091016040019392505050565b7f4e487b7100000000000000000000000000000000000000000000000000000000600052601160045260246000fd5b60007fffffffffffffffffffffffffffffffffffffffffffffffffffffffffffffffff8203614801576148016147a1565b5060010190565b818103818111156123d2576123d26147a1565b6000825161482d818460208701613eb7565b9190910192915050565b60006020828403121561484957600080fd5b81357fffffffff000000000000000000000000000000000000000000000000000000008116811461465e57600080fd5b60008083357fffffffffffffffffffffffffffffffffffffffffffffffffffffffffffffffe18436030181126148ae57600080fd5b83018035915067ffffffffffffffff8211156148c957600080fd5b6020019150600581901b3603821315613d7e57600080fd5b5b818110156148f657600081556001016148e2565b5050565b6801000000000000000082111561491357614913614691565b805482825580831015614939578160005260206000206149378282018583016148e1565b505b505050565b67ffffffffffffffff83111561495657614956614691565b61496083826148fa565b8181600052602060002060005b858110156149895782358282015560209092019160010161496d565b505050505050565b600082357fffffffffffffffffffffffffffffffffffffffffffffffffffffffffffffffa183360301811261482d57600080fd5b680100000000000000008211156149de576149de614691565b80548282558083101561493957816000526020600020601f840160051c8101601f85168015614a5a577fffffffffffffffffffffffffffffffffffffffffffffffffffffffffffffffff820180547fffffffffffffffffffffffffffffffffffffffffffffffffffffffffffffffff8360200360031b1c168155505b50614a6d601f840160051c8301826148e1565b5050505050565b60008135600881106123d257600080fd5b60008083357fffffffffffffffffffffffffffffffffffffffffffffffffffffffffffffffe1843603018112614aba57600080fd5b83018035915067ffffffffffffffff821115614ad557600080fd5b602001915036819003821315613d7e57600080fd5b614af481546146ef565b80156148f657601f811160018114614b0e57505060009055565b600083815260209020614b2c601f840160051c8201600183016148e1565b5060008381526020812081855555505050565b601f82111561493957806000526020600020601f840160051c81016020851015614b665750805b614a6d601f850160051c8301826148e1565b67ffffffffffffffff831115614b9057614b90614691565b614ba483614b9e83546146ef565b83614b3f565b6000601f841160018114614bf65760008515614bc05750838201355b7fffffffffffffffffffffffffffffffffffffffffffffffffffffffffffffffff600387901b1c1916600186901b178355614a6d565b6000838152602090207fffffffffffffffffffffffffffffffffffffffffffffffffffffffffffffffe0861690835b82811015614c455786850135825560209485019460019092019101614c25565b5086821015614c80577fffffffffffffffffffffffffffffffffffffffffffffffffffffffffffffffff60f88860031b161c19848701351681555b505060018560011b0183555050505050565b68010000000000000000831115614cab57614cab614691565b805483825580841015614ce7576000828152602090208481019082015b80821015614ce457614cd982614aea565b600182019150614cc8565b50505b5060008181526020812083915b8581101561498957614d068386614a85565b614d11818386614b78565b50506020929092019160019182019101614cf4565b614d308283614879565b67ffffffffffffffff811115614d4857614d48614691565b614d5281846148fa565b82600052602060002060005b82811015614d7a57833582820155602090930192600101614d5e565b5050505060018101614d8f6020840184614879565b67ffffffffffffffff811115614da757614da7614691565b614db181846149c5565b60008381526020902092508060051c60005b81811015614e19576000805b6020811015614e0c57614dfb614de487614a74565b60ff908116600384901b90811b91901b1984161790565b602096909601959150600101614dcf565b5085820155600101614dc3565b507fffffffffffffffffffffffffffffffffffffffffffffffffffffffffffffffe08216808303818414614e76576000805b82811015614e7057614e5f614de488614a74565b602097909701969150600101614e4b565b50868401555b505050505050614e896040830183614879565b614937818360028601614c92565b60008083357fffffffffffffffffffffffffffffffffffffffffffffffffffffffffffffffe1843603018112614ecc57600080fd5b83018035915067ffffffffffffffff821115614ee757600080fd5b6020019150600781901b3603821315613d7e57600080fd5b6000813580151581146123d257600080fd5b614f1a82614a74565b60088110614f2a57614f2a613e74565b815460ff82169150817fffffffffffffffffffffffffffffffffffffffffffffffffffffffffffffff00821617835560208401356fffffffffffffffffffffffffffffffff81168114614f7c57600080fd5b70ffffffffffffffffffffffffffffffff008160081b16837fffffffffffffffffffffffffffffff0000000000000000000000000000000000841617178455505050614fca60408301614eff565b81547fffffffffffffffffffffffffffff00ffffffffffffffffffffffffffffffffff1690151560881b71ff0000000000000000000000000000000000161781556148f661501a60608401614eff565b8280547fffffffffffffffffffffffffff00ffffffffffffffffffffffffffffffffffff1691151560901b72ff00000000000000000000000000000000000016919091179055565b6801000000000000000083111561507b5761507b614691565b8054838255808410156150b2576000828152602090208481019082015b808210156150af5760008255600182019150615098565b50505b5060008181526020812083915b85811015614989576150d18383614f11565b60809290920191600191820191016150bf565b600082357fffffffffffffffffffffffffffffffffffffffffffffffffffffffffffffff0183360301811261482d57600080fd5b80546000825580156148f657816000526020600020614939828201826148e1565b60008135600381106123d257600080fd5b6003821061515a5761515a613e74565b805462ff00008360101b167fffffffffffffffffffffffffffffffffffffffffffffffffffffffffff00ffff8216178255505050565b600882106151a0576151a0613e74565b805463ff0000008360181b167fffffffffffffffffffffffffffffffffffffffffffffffffffffffff00ffffff8216178255505050565b6151e082614eff565b15157fffffffffffffffffffffffffffffffffffffffffffffffffffffffffffffff0082541660ff821681178355505061525661521f60208401614eff565b8280547fffffffffffffffffffffffffffffffffffffffffffffffffffffffffffff00ff1691151560081b61ff0016919091179055565b61526b61526560408401615139565b8261514a565b61528061527a60608401614a74565b82615190565b61528d6080830183614a85565b61529b818360018601614b78565b505060a082013560028201556152b460c0830183614a85565b6152c2818360038601614b78565b50506152d160e0830183614879565b61493781836004860161493e565b680100000000000000008311156152f8576152f8614691565b8054838255808410156153d0578060050260058104821461531b5761531b6147a1565b84600502600581048614615331576153316147a1565b60008481526020902091820191015b818110156153cd576000815561535860018201614aea565b600060028201556003810161536d81546146ef565b80156153b757601f81116001811461538857600083556153b5565b6000838152602090206153a6601f840160051c8201600183016148e1565b50600083815260208120818555555b505b50506153c560048201615118565b600501615340565b50505b5060008181526020812083915b85811015614989576153f86153f284876150e4565b836151d7565b60209290920191600591909101906001016153dd565b6154188283614879565b67ffffffffffffffff81111561543057615430614691565b61543a81846148fa565b82600052602060002060005b8281101561546257833582820155602090930192600101615446565b5050505061547f6154766020840184614991565b60018301614d26565b61548c6040830183614e97565b61549a818360048601615062565b50506154a96060830183614e97565b6154b7818360058601615062565b50506154c66080830183614879565b6154d48183600686016152df565b50506154e360a0830183614879565b6149378183600786016152df56fe506f6c6963792049442063616e6e6f7420626520302e2043726561746520706f6c696379206265666f7265207570646174696e67547261636b6572207265666572656e63656420696e2072756c65206e6f7420736574466f726569676e2043616c6c207265666572656e63656420696e2072756c65206e6f74207365745369676e61747572657320616e64207369676e617475726520696427732061726520696e636f6e73697374656e744f6e6c7920766572696669656420706f6c69637920737562736372696265722063616e206170706c7920636c6f73656420706f6c6963696573a2646970667358221220a362556aaa733272272c0e8ba31fc7bee039dfa90ae4edf4c7e43c26df510e1564736f6c634300081c0033","linkReferences":{}},"methodIdentifiers":{"_isTrackerSet(uint256,uint256)":"80624b6f","applyPolicy(address,uint256[])":"9228303f","cementPolicy(uint256)":"d46a37c4","closePolicy(uint256)":"2b0e4440","createPolicy((bool,bytes4,uint8[])[],(uint256[],(uint256[],uint8[],bytes[]),(uint8,uint128,bool,bool)[],(uint8,uint128,bool,bool)[],(bool,bool,uint8,uint8,bytes,bytes32,string,uint256[])[],(bool,bool,uint8,uint8,bytes,bytes32,string,uint256[])[])[],uint8)":"1ff76a7b","createRule(uint256,(uint256[],(uint256[],uint8[],bytes[]),(uint8,uint128,bool,bool)[],(uint8,uint128,bool,bool)[],(bool,bool,uint8,uint8,bytes,bytes32,string,uint256[])[],(bool,bool,uint8,uint8,bytes,bytes32,string,uint256[])[]))":"bc9b94eb","deletePolicy(uint256)":"fed27c8f","getAllRules(uint256)":"266fc8a5","getAppliedPolicyIds(address)":"e3749023","getPolicy(uint256)":"2b07fce3","getRule(uint256,uint256)":"6d279ef8","isClosedPolicy(uint256)":"4f10689b","openPolicy(uint256)":"798d6c7b","updatePolicy(uint256,bytes4[],uint256[],uint256[][],uint8)":"2fd205bd","updateRule(uint256,uint256,(uint256[],(uint256[],uint8[],bytes[]),(uint8,uint128,bool,bool)[],(uint8,uint128,bool,bool)[],(bool,bool,uint8,uint8,bytes,bytes32,string,uint256[])[],(bool,bool,uint8,uint8,bytes,bytes32,string,uint256[])[]))":"37794b07"},"id":82}