{"abi":[{"type":"function","name":"addClosedPolicySubscriber","inputs":[{"name":"_policyId","type":"uint256","internalType":"uint256"},{"name":"_subscriber","type":"address","internalType":"address"}],"outputs":[],"stateMutability":"nonpayable"},{"type":"function","name":"createForeignCall","inputs":[{"name":"_policyId","type":"uint256","internalType":"uint256"},{"name":"_foreignCall","type":"tuple","internalType":"struct ForeignCall","components":[{"name":"set","type":"bool","internalType":"bool"},{"name":"foreignCallAddress","type":"address","internalType":"address"},{"name":"signature","type":"bytes4","internalType":"bytes4"},{"name":"returnType","type":"uint8","internalType":"enum PT"},{"name":"foreignCallIndex","type":"uint256","internalType":"uint256"},{"name":"parameterTypes","type":"uint8[]","internalType":"enum PT[]"},{"name":"typeSpecificIndices","type":"uint8[]","internalType":"uint8[]"}]}],"outputs":[{"name":"","type":"uint256","internalType":"uint256"}],"stateMutability":"nonpayable"},{"type":"function","name":"createFunctionSignature","inputs":[{"name":"_policyId","type":"uint256","internalType":"uint256"},{"name":"_functionSignature","type":"bytes4","internalType":"bytes4"},{"name":"_pTypes","type":"uint8[]","internalType":"enum PT[]"}],"outputs":[{"name":"","type":"uint256","internalType":"uint256"}],"stateMutability":"nonpayable"},{"type":"function","name":"createTracker","inputs":[{"name":"_policyId","type":"uint256","internalType":"uint256"},{"name":"_tracker","type":"tuple","internalType":"struct Trackers","components":[{"name":"set","type":"bool","internalType":"bool"},{"name":"pType","type":"uint8","internalType":"enum PT"},{"name":"trackerValue","type":"bytes","internalType":"bytes"}]}],"outputs":[{"name":"","type":"uint256","internalType":"uint256"}],"stateMutability":"nonpayable"},{"type":"function","name":"deleteForeignCall","inputs":[{"name":"_policyId","type":"uint256","internalType":"uint256"},{"name":"_foreignCallId","type":"uint256","internalType":"uint256"}],"outputs":[],"stateMutability":"nonpayable"},{"type":"function","name":"deleteFunctionSignature","inputs":[{"name":"_policyId","type":"uint256","internalType":"uint256"},{"name":"_functionSignatureId","type":"uint256","internalType":"uint256"}],"outputs":[],"stateMutability":"nonpayable"},{"type":"function","name":"deleteTracker","inputs":[{"name":"_policyId","type":"uint256","internalType":"uint256"},{"name":"_trackerIndex","type":"uint256","internalType":"uint256"}],"outputs":[],"stateMutability":"nonpayable"},{"type":"function","name":"getAllForeignCalls","inputs":[{"name":"_policyId","type":"uint256","internalType":"uint256"}],"outputs":[{"name":"fc","type":"tuple[]","internalType":"struct ForeignCall[]","components":[{"name":"set","type":"bool","internalType":"bool"},{"name":"foreignCallAddress","type":"address","internalType":"address"},{"name":"signature","type":"bytes4","internalType":"bytes4"},{"name":"returnType","type":"uint8","internalType":"enum PT"},{"name":"foreignCallIndex","type":"uint256","internalType":"uint256"},{"name":"parameterTypes","type":"uint8[]","internalType":"enum PT[]"},{"name":"typeSpecificIndices","type":"uint8[]","internalType":"uint8[]"}]}],"stateMutability":"view"},{"type":"function","name":"getAllFunctionSignatures","inputs":[{"name":"_policyId","type":"uint256","internalType":"uint256"}],"outputs":[{"name":"","type":"tuple[]","internalType":"struct FunctionSignatureStorageSet[]","components":[{"name":"set","type":"bool","internalType":"bool"},{"name":"signature","type":"bytes4","internalType":"bytes4"},{"name":"parameterTypes","type":"uint8[]","internalType":"enum PT[]"}]}],"stateMutability":"view"},{"type":"function","name":"getAllTrackers","inputs":[{"name":"_policyId","type":"uint256","internalType":"uint256"}],"outputs":[{"name":"","type":"tuple[]","internalType":"struct Trackers[]","components":[{"name":"set","type":"bool","internalType":"bool"},{"name":"pType","type":"uint8","internalType":"enum PT"},{"name":"trackerValue","type":"bytes","internalType":"bytes"}]}],"stateMutability":"view"},{"type":"function","name":"getForeignCall","inputs":[{"name":"_policyId","type":"uint256","internalType":"uint256"},{"name":"_foreignCallId","type":"uint256","internalType":"uint256"}],"outputs":[{"name":"fc","type":"tuple","internalType":"struct ForeignCall","components":[{"name":"set","type":"bool","internalType":"bool"},{"name":"foreignCallAddress","type":"address","internalType":"address"},{"name":"signature","type":"bytes4","internalType":"bytes4"},{"name":"returnType","type":"uint8","internalType":"enum PT"},{"name":"foreignCallIndex","type":"uint256","internalType":"uint256"},{"name":"parameterTypes","type":"uint8[]","internalType":"enum PT[]"},{"name":"typeSpecificIndices","type":"uint8[]","internalType":"uint8[]"}]}],"stateMutability":"view"},{"type":"function","name":"getFunctionSignature","inputs":[{"name":"_policyId","type":"uint256","internalType":"uint256"},{"name":"_functionSignatureId","type":"uint256","internalType":"uint256"}],"outputs":[{"name":"","type":"tuple","internalType":"struct FunctionSignatureStorageSet","components":[{"name":"set","type":"bool","internalType":"bool"},{"name":"signature","type":"bytes4","internalType":"bytes4"},{"name":"parameterTypes","type":"uint8[]","internalType":"enum PT[]"}]}],"stateMutability":"view"},{"type":"function","name":"getTracker","inputs":[{"name":"_policyId","type":"uint256","internalType":"uint256"},{"name":"_index","type":"uint256","internalType":"uint256"}],"outputs":[{"name":"tracker","type":"tuple","internalType":"struct Trackers","components":[{"name":"set","type":"bool","internalType":"bool"},{"name":"pType","type":"uint8","internalType":"enum PT"},{"name":"trackerValue","type":"bytes","internalType":"bytes"}]}],"stateMutability":"view"},{"type":"function","name":"isCemented","inputs":[{"name":"_policyId","type":"uint256","internalType":"uint256"}],"outputs":[{"name":"_cemented","type":"bool","internalType":"bool"}],"stateMutability":"view"},{"type":"function","name":"isClosedPolicySubscriber","inputs":[{"name":"_policyId","type":"uint256","internalType":"uint256"},{"name":"_subscriber","type":"address","internalType":"address"}],"outputs":[{"name":"","type":"bool","internalType":"bool"}],"stateMutability":"view"},{"type":"function","name":"removeClosedPolicySubscriber","inputs":[{"name":"_policyId","type":"uint256","internalType":"uint256"},{"name":"_subscriber","type":"address","internalType":"address"}],"outputs":[],"stateMutability":"nonpayable"},{"type":"function","name":"updateForeignCall","inputs":[{"name":"_policyId","type":"uint256","internalType":"uint256"},{"name":"_foreignCallId","type":"uint256","internalType":"uint256"},{"name":"_foreignCall","type":"tuple","internalType":"struct ForeignCall","components":[{"name":"set","type":"bool","internalType":"bool"},{"name":"foreignCallAddress","type":"address","internalType":"address"},{"name":"signature","type":"bytes4","internalType":"bytes4"},{"name":"returnType","type":"uint8","internalType":"enum PT"},{"name":"foreignCallIndex","type":"uint256","internalType":"uint256"},{"name":"parameterTypes","type":"uint8[]","internalType":"enum PT[]"},{"name":"typeSpecificIndices","type":"uint8[]","internalType":"uint8[]"}]}],"outputs":[{"name":"fc","type":"tuple","internalType":"struct ForeignCall","components":[{"name":"set","type":"bool","internalType":"bool"},{"name":"foreignCallAddress","type":"address","internalType":"address"},{"name":"signature","type":"bytes4","internalType":"bytes4"},{"name":"returnType","type":"uint8","internalType":"enum PT"},{"name":"foreignCallIndex","type":"uint256","internalType":"uint256"},{"name":"parameterTypes","type":"uint8[]","internalType":"enum PT[]"},{"name":"typeSpecificIndices","type":"uint8[]","internalType":"uint8[]"}]}],"stateMutability":"nonpayable"},{"type":"function","name":"updateFunctionSignature","inputs":[{"name":"_policyId","type":"uint256","internalType":"uint256"},{"name":"_functionSignatureId","type":"uint256","internalType":"uint256"},{"name":"_functionSignature","type":"bytes4","internalType":"bytes4"},{"name":"_pTypes","type":"uint8[]","internalType":"enum PT[]"}],"outputs":[{"name":"","type":"uint256","internalType":"uint256"}],"stateMutability":"nonpayable"},{"type":"function","name":"updateTracker","inputs":[{"name":"_policyId","type":"uint256","internalType":"uint256"},{"name":"_trackerIndex","type":"uint256","internalType":"uint256"},{"name":"_tracker","type":"tuple","internalType":"struct Trackers","components":[{"name":"set","type":"bool","internalType":"bool"},{"name":"pType","type":"uint8","internalType":"enum PT"},{"name":"trackerValue","type":"bytes","internalType":"bytes"}]}],"outputs":[],"stateMutability":"nonpayable"},{"type":"event","name":"AssociatedRuleDeleted","inputs":[{"name":"policyId","type":"uint256","indexed":true,"internalType":"uint256"},{"name":"foreignCallId","type":"uint256","indexed":true,"internalType":"uint256"}],"anonymous":false},{"type":"event","name":"ForeignCallCreated","inputs":[{"name":"policyId","type":"uint256","indexed":true,"internalType":"uint256"},{"name":"foreignCallId","type":"uint256","indexed":true,"internalType":"uint256"}],"anonymous":false},{"type":"event","name":"ForeignCallDeleted","inputs":[{"name":"policyId","type":"uint256","indexed":true,"internalType":"uint256"},{"name":"foreignCallId","type":"uint256","indexed":true,"internalType":"uint256"}],"anonymous":false},{"type":"event","name":"ForeignCallUpdated","inputs":[{"name":"policyId","type":"uint256","indexed":true,"internalType":"uint256"},{"name":"foreignCallId","type":"uint256","indexed":true,"internalType":"uint256"}],"anonymous":false},{"type":"event","name":"FunctionSignatureCreated","inputs":[{"name":"policyId","type":"uint256","indexed":true,"internalType":"uint256"},{"name":"functionSignatureId","type":"uint256","indexed":true,"internalType":"uint256"}],"anonymous":false},{"type":"event","name":"FunctionSignatureDeleted","inputs":[{"name":"policyId","type":"uint256","indexed":true,"internalType":"uint256"},{"name":"functionSignatureId","type":"uint256","indexed":true,"internalType":"uint256"}],"anonymous":false},{"type":"event","name":"FunctionSignatureUpdated","inputs":[{"name":"policyId","type":"uint256","indexed":true,"internalType":"uint256"},{"name":"functionSignatureId","type":"uint256","indexed":true,"internalType":"uint256"}],"anonymous":false},{"type":"event","name":"PolicySubsciberAdded","inputs":[{"name":"policyId","type":"uint256","indexed":true,"internalType":"uint256"},{"name":"subscriber","type":"address","indexed":true,"internalType":"address"}],"anonymous":false},{"type":"event","name":"PolicySubsciberRemoved","inputs":[{"name":"policyId","type":"uint256","indexed":true,"internalType":"uint256"},{"name":"subscriber","type":"address","indexed":true,"internalType":"address"}],"anonymous":false},{"type":"event","name":"TrackerCreated","inputs":[{"name":"policyId","type":"uint256","indexed":true,"internalType":"uint256"},{"name":"trackerId","type":"uint256","indexed":true,"internalType":"uint256"}],"anonymous":false},{"type":"event","name":"TrackerDeleted","inputs":[{"name":"policyId","type":"uint256","indexed":true,"internalType":"uint256"},{"name":"trackerId","type":"uint256","indexed":true,"internalType":"uint256"}],"anonymous":false},{"type":"event","name":"TrackerUpdated","inputs":[{"name":"policyId","type":"uint256","indexed":true,"internalType":"uint256"},{"name":"trackerId","type":"uint256","indexed":true,"internalType":"uint256"}],"anonymous":false}],"bytecode":{"object":"0x6080604052348015600f57600080fd5b50613e238061001f6000396000f3fe608060405234801561001057600080fd5b50600436106101515760003560e01c8063a3937e99116100cd578063cd42bcf811610081578063d82260c811610066578063d82260c8146102ec578063da7d5d28146102ff578063e7e31b311461031257600080fd5b8063cd42bcf8146102c6578063cf7c6728146102d957600080fd5b8063a82c9e07116100b2578063a82c9e0714610280578063bcb01c2214610293578063c017d300146102a657600080fd5b8063a3937e991461024d578063a626bb8d1461026d57600080fd5b806356f3b05f1161012457806372a340d71161010957806372a340d7146102075780637374c994146102275780639fe9c9b81461023a57600080fd5b806356f3b05f146101c7578063660dac4d146101e757600080fd5b80632711fe6b146101565780632e4c803b1461016b578063348ec401146101915780634c957ad9146101b4575b600080fd5b610169610164366004613101565b610332565b005b61017e610179366004613145565b610594565b6040519081526020015b60405180910390f35b6101a461019f36600461318c565b61076d565b6040519015158152602001610188565b6101a46101c2366004613101565b610796565b6101da6101d536600461318c565b6107e3565b60405161018891906132a6565b6101fa6101f5366004613329565b6109d7565b60405161018891906133e4565b61021a610215366004613329565b610ae0565b60405161018891906133fe565b610169610235366004613101565b610c06565b61017e6102483660046135b2565b610de4565b61026061025b36600461318c565b611065565b60405161018891906136ea565b61016961027b366004613329565b611386565b61016961028e366004613329565b61180c565b61017e6102a1366004613761565b6119de565b6102b96102b43660046137c2565b611ea0565b6040516101889190613808565b61017e6102d436600461382d565b612079565b6101696102e736600461386a565b612247565b6101696102fa366004613329565b61236c565b6102b961030d366004613329565b612553565b61032561032036600461318c565b61278f565b60405161018891906138b0565b604051602481018390523360448201819052839160009081906103f0907f901cee1100000000000000000000000000000000000000000000000000000000906064015b604080517fffffffffffffffffffffffffffffffffffffffffffffffffffffffffffffffe08184030181529190526020810180517bffffffffffffffffffffffffffffffffffffffffffffffffffffffff167f901cee1100000000000000000000000000000000000000000000000000000000179052612964565b915091506000821561048057600482511061041057506020810151610414565b5060005b80610480576040517f08c379a000000000000000000000000000000000000000000000000000000000815260206004820152601860248201527f4e6f7420417574686f72697a656420546f20506f6c696379000000000000000060448201526064015b60405180910390fd5b8661048a8161076d565b156104f1576040517f08c379a000000000000000000000000000000000000000000000000000000000815260206004820152601f60248201527f4e6f7420616c6c6f77656420666f722063656d656e74656420706f6c696379006044820152606401610477565b60016104fb612a2b565b60008a81526001919091016020908152604080832073ffffffffffffffffffffffffffffffffffffffff8c16808552600590910190925280832080547fffffffffffffffffffffffffffffffffffffffffffffffffffffffffffffff00169415159490941790935591518a917f790a3138425334d31f4463869c596f58d51e891ecb665b5090fa0ae9ed8b6fd291a35050505050505050565b600082336000806105d863901cee1160e01b858560405160240161037592919091825273ffffffffffffffffffffffffffffffffffffffff16602082015260400190565b91509150600082156106635760048251106105f8575060208101516105fc565b5060005b80610663576040517f08c379a000000000000000000000000000000000000000000000000000000000815260206004820152601860248201527f4e6f7420417574686f72697a656420546f20506f6c69637900000000000000006044820152606401610477565b8761066d8161076d565b156106d4576040517f08c379a000000000000000000000000000000000000000000000000000000000815260206004820152601f60248201527f4e6f7420616c6c6f77656420666f722063656d656e74656420706f6c696379006044820152606401610477565b60006106de612a59565b60008b81526020829052604081208054929350909182906106fe90613956565b9182905550905060006107108b613a0b565b6080810183905290506107238c82612a87565b60008c8152602084905260408082208490555183918e917f9006068daf408b7e36a22c789f04c4ba9c6c638a6cf8438c2250583384f2192f9190a3509a9950505050505050505050565b6000610777612a2b565b6000928352600101602052506040902060040154610100900460ff1690565b60006107a0612a2b565b60008481526001919091016020908152604080832073ffffffffffffffffffffffffffffffffffffffff8616845260050190915290205460ff1690505b92915050565b606060006107ef612c59565b6000848152602082905260408120549192508167ffffffffffffffff81111561081a5761081a613441565b60405190808252806020026020018201604052801561086757816020015b604080516060808201835260008083526020830152918101919091528152602001906001900390816108385790505b509050600060015b8381116109cc576000878152600186016020908152604080832084845290915290205460ff16156109ba5760008781526001860160209081526040808320848452825291829020825160608101909352805460ff8082161515855291928401916101009091041660078111156108e7576108e76131a5565b60078111156108f8576108f86131a5565b815260200160018201805461090c90613acb565b80601f016020809104026020016040519081016040528092919081815260200182805461093890613acb565b80156109855780601f1061095a57610100808354040283529160200191610985565b820191906000526020600020905b81548152906001019060200180831161096857829003601f168201915b5050505050815250508383815181106109a0576109a0613b18565b602002602001018190525081806109b690613956565b9250505b806109c481613956565b91505061086f565b509095945050505050565b604080516060808201835260008083526020830152918101919091526109fb612c87565b60008481526001918201602090815260408083208684528252918290208251606081018452815460ff811615158252610100900460e01b7fffffffff000000000000000000000000000000000000000000000000000000001681840152938101805484518185028101850186528181529294860193830182828015610acf57602002820191906000526020600020906000905b82829054906101000a900460ff166007811115610aad57610aad6131a5565b815260206001928301818104948501949093039092029101808411610a8e5790505b505050505081525050905092915050565b60408051606080820183526000808352602083018190529282015290610b04612c59565b60008581526001820160209081526040808320878452825291829020825160608101909352805460ff8082161515855294955092939092918401916101009004166007811115610b5657610b566131a5565b6007811115610b6757610b676131a5565b8152602001600182018054610b7b90613acb565b80601f0160208091040260200160405190810160405280929190818152602001828054610ba790613acb565b8015610bf45780601f10610bc957610100808354040283529160200191610bf4565b820191906000526020600020905b815481529060010190602001808311610bd757829003601f168201915b50505050508152505091505092915050565b60405160248101839052336044820181905283916000908190610c4d907f901cee110000000000000000000000000000000000000000000000000000000090606401610375565b9150915060008215610cd8576004825110610c6d57506020810151610c71565b5060005b80610cd8576040517f08c379a000000000000000000000000000000000000000000000000000000000815260206004820152601860248201527f4e6f7420417574686f72697a656420546f20506f6c69637900000000000000006044820152606401610477565b86610ce28161076d565b15610d49576040517f08c379a000000000000000000000000000000000000000000000000000000000815260206004820152601f60248201527f4e6f7420616c6c6f77656420666f722063656d656e74656420706f6c696379006044820152606401610477565b610d51612a2b565b60008981526001919091016020908152604080832073ffffffffffffffffffffffffffffffffffffffff8b16808552600590910190925280832080547fffffffffffffffffffffffffffffffffffffffffffffffffffffffffffffff001690555190918a917febc594f3b2a99e6227cfcc8bd404d054b6cc3dad7f287e1944cb88681a05c14c9190a35050505050505050565b60008333600080610e2863901cee1160e01b858560405160240161037592919091825273ffffffffffffffffffffffffffffffffffffffff16602082015260400190565b9150915060008215610eb3576004825110610e4857506020810151610e4c565b5060005b80610eb3576040517f08c379a000000000000000000000000000000000000000000000000000000000815260206004820152601860248201527f4e6f7420417574686f72697a656420546f20506f6c69637900000000000000006044820152606401610477565b88610ebd8161076d565b15610f24576040517f08c379a000000000000000000000000000000000000000000000000000000000815260206004820152601f60248201527f4e6f7420616c6c6f77656420666f722063656d656e74656420706f6c696379006044820152606401610477565b6000610f2e612c87565b60008c8152602082905260408120805492935090918290610f4e90613956565b919050819055905060018260010160008e8152602001908152602001600020600083815260200190815260200160002060000160006101000a81548160ff0219169083151502179055508a8260010160008e8152602001908152602001600020600083815260200190815260200160002060000160016101000a81548163ffffffff021916908360e01c0217905550898260010160008e81526020019081526020016000206000838152602001908152602001600020600101908051906020019061101a929190612de6565b5060008c8152602083905260408082208390555182918e917f198f288cfe3cc08e322e6cb04557ce15e347ed91478a566c5b8950ce69ef305a9190a39b9a5050505050505050505050565b60606000611071612a59565b6000848152602091909152604081205491508167ffffffffffffffff81111561109c5761109c613441565b60405190808252806020026020018201604052801561110d57816020015b6110fa6040805160e08101825260008082526020820181905291810182905290606082019081526020016000815260200160608152602001606081525090565b8152602001906001900390816110ba5790505b5090506000805b83811161137c57611123612a59565b60008781526001919091016020908152604080832084845290915290205460ff161561136a57611151612a59565b600087815260019190910160209081526040808320848452825291829020825160e08082018552825460ff80821615158452610100820473ffffffffffffffffffffffffffffffffffffffff16958401959095527501000000000000000000000000000000000000000000810490911b7fffffffff00000000000000000000000000000000000000000000000000000000169482019490945292909160608401917901000000000000000000000000000000000000000000000000009004166007811115611221576112216131a5565b6007811115611232576112326131a5565b815260200160018201548152602001600282018054806020026020016040519081016040528092919081815260200182805480156112bf57602002820191906000526020600020906000905b82829054906101000a900460ff16600781111561129d5761129d6131a5565b81526020600192830181810494850194909303909202910180841161127e5790505b505050505081526020016003820180548060200260200160405190810160405280929190818152602001828054801561133557602002820191906000526020600020906000905b825461010083900a900460ff168152602060019283018181049485019490930390920291018084116113065790505b50505050508152505083838151811061135057611350613b18565b6020026020010181905250818061136690613956565b9250505b8061137481613956565b915050611114565b5090949350505050565b604051602481018390523360448201819052839160009081906113cd907f901cee110000000000000000000000000000000000000000000000000000000090606401610375565b91509150600082156114585760048251106113ed575060208101516113f1565b5060005b80611458576040517f08c379a000000000000000000000000000000000000000000000000000000000815260206004820152601860248201527f4e6f7420417574686f72697a656420546f20506f6c69637900000000000000006044820152606401610477565b866114628161076d565b156114c9576040517f08c379a000000000000000000000000000000000000000000000000000000000815260206004820152601f60248201527f4e6f7420616c6c6f77656420666f722063656d656e74656420706f6c696379006044820152606401610477565b60006114d3612a2b565b60008a81526001919091016020526040812091506114ef612c87565b60008b8152600191909101602090815260408083208c8452909152902054610100900460e01b905061151f612c87565b60008b81526001918201602090815260408083208d8452909152812080547fffffffffffffffffffffffffffffffffffffffffffffffffffffff00000000001681559161156e90830182612e9a565b5061157f9050600383016000612ec2565b7fffffffff000000000000000000000000000000000000000000000000000000008116600090815260018301602052604081208190555b7fffffffff00000000000000000000000000000000000000000000000000000000821660009081526002840160205260409020548110156116e9576115f9612cb5565b60008c8152600191820160209081526040808320858452909152812080547fffffffffffffffffffffffffffffffffffffffffffffffffffffffffffffff00168155918201816116498282612ee7565b6001820160006116598282612ee7565b611667600183016000612e9a565b611675600283016000612f05565b506116869050600483016000612f23565b611694600583016000612f23565b6116a2600683016000612f41565b6116b0600783016000612f41565b50506040518c92508d91507fc2ebaca961b98bedef10bce18fc3c8bdcba15a62d52feb7f59578c9998e1d42a90600090a36001016115b6565b507fffffffff0000000000000000000000000000000000000000000000000000000081166000908152600283016020526040812061172691612ee7565b60006117318b61278f565b905060005b81518110156117d15781818151811061175157611751613b18565b602002602001015160000151156117c9578360010160020182828151811061177b5761177b613b18565b60209081029190910181015181015182546001810184556000938452919092206008820401805463ffffffff60079093166004026101000a928302191660e09390931c919091029190911790555b600101611736565b506040518a908c907f6d08ac46410096cd5c65404c072fa6ce1dd663de93bf00c02d214f1babf6894f90600090a35050505050505050505050565b60405160248101839052336044820181905283916000908190611853907f901cee110000000000000000000000000000000000000000000000000000000090606401610375565b91509150600082156118de57600482511061187357506020810151611877565b5060005b806118de576040517f08c379a000000000000000000000000000000000000000000000000000000000815260206004820152601860248201527f4e6f7420417574686f72697a656420546f20506f6c69637900000000000000006044820152606401610477565b866118e88161076d565b1561194f576040517f08c379a000000000000000000000000000000000000000000000000000000000815260206004820152601f60248201527f4e6f7420616c6c6f77656420666f722063656d656e74656420706f6c696379006044820152606401610477565b611957612c59565b60008981526001918201602090815260408083208b8452909152812080547fffffffffffffffffffffffffffffffffffffffffffffffffffffffffffff0000168155916119a690830182612f62565b5050604051879089907ed9d817df2d853a886f2cbe7a671a676890264711abbb9d2c3ee79fb1bb653a90600090a35050505050505050565b60008433600080611a2263901cee1160e01b858560405160240161037592919091825273ffffffffffffffffffffffffffffffffffffffff16602082015260400190565b9150915060008215611aad576004825110611a4257506020810151611a46565b5060005b80611aad576040517f08c379a000000000000000000000000000000000000000000000000000000000815260206004820152601860248201527f4e6f7420417574686f72697a656420546f20506f6c69637900000000000000006044820152606401610477565b89611ab78161076d565b15611b1e576040517f08c379a000000000000000000000000000000000000000000000000000000000815260206004820152601f60248201527f4e6f7420616c6c6f77656420666f722063656d656e74656420706f6c696379006044820152606401610477565b6000611b28612c87565b60008d815260018201602090815260408083208f845290915290208054919250907fffffffff000000000000000000000000000000000000000000000000000000008c811661010090920460e01b1614611c04576040517f08c379a000000000000000000000000000000000000000000000000000000000815260206004820152603660248201527f44656c6574652066756e6374696f6e207369676e6174757265206265666f726560448201527f207570646174696e6720746f2061206e6577206f6e65000000000000000000006064820152608401610477565b895160018201541115611cbf576040517f08c379a000000000000000000000000000000000000000000000000000000000815260206004820152604660248201527f4e657720706172616d65746572207479706573206d757374206265206f66206760448201527f726561746572206f7220657175616c206c656e67746820746f20746865206f7260648201527f6967696e616c0000000000000000000000000000000000000000000000000000608482015260a401610477565b60005b6001820154811015611dd457816001018181548110611ce357611ce3613b18565b90600052602060002090602091828204019190069054906101000a900460ff166007811115611d1457611d146131a5565b8b8281518110611d2657611d26613b18565b60200260200101516007811115611d3f57611d3f6131a5565b14611dcc576040517f08c379a000000000000000000000000000000000000000000000000000000000815260206004820152603c60248201527f4e657720706172616d65746572207479706573206d757374206265206f66207460448201527f68652073616d65207479706520617320746865206f726967696e616c000000006064820152608401610477565b600101611cc2565b50895160018201541015611e625760018101545b8a51811015611e6057816001018b8281518110611e0757611e07613b18565b602090810291909101810151825460018101845560009384529282902091830490910180549192909160ff601f9092166101000a918202191690836007811115611e5357611e536131a5565b0217905550600101611de8565b505b6040518c908e907fdd0db90814c3f4a8b95a5df9551e0078cde6fe0f831200384762b48ea9acebed90600090a350999b9a5050505050505050505050565b611ee06040805160e08101825260008082526020820181905291810182905290606082019081526020016000815260200160608152602001606081525090565b60405160248101859052336044820181905285916000908190611f27907f901cee110000000000000000000000000000000000000000000000000000000090606401610375565b9150915060008215611fb2576004825110611f4757506020810151611f4b565b5060005b80611fb2576040517f08c379a000000000000000000000000000000000000000000000000000000000815260206004820152601860248201527f4e6f7420417574686f72697a656420546f20506f6c69637900000000000000006044820152606401610477565b88611fbc8161076d565b15612023576040517f08c379a000000000000000000000000000000000000000000000000000000000815260206004820152601f60248201527f4e6f7420616c6c6f77656420666f722063656d656e74656420706f6c696379006044820152606401610477565b61202c88613a0b565b608081018a9052965061203f8a88612a87565b60405189908b907f82132283659aa079ae6d599fbbe109c1bfb961fc5bbbb0a98a343b4ea6dc3e0090600090a35050505050509392505050565b600082336000806120bd63901cee1160e01b858560405160240161037592919091825273ffffffffffffffffffffffffffffffffffffffff16602082015260400190565b91509150600082156121485760048251106120dd575060208101516120e1565b5060005b80612148576040517f08c379a000000000000000000000000000000000000000000000000000000000815260206004820152601860248201527f4e6f7420417574686f72697a656420546f20506f6c69637900000000000000006044820152606401610477565b876121528161076d565b156121b9576040517f08c379a000000000000000000000000000000000000000000000000000000000815260206004820152601f60248201527f4e6f7420616c6c6f77656420666f722063656d656e74656420706f6c696379006044820152606401610477565b60006121c3612c59565b60008b81526020829052604081208054929350909182906121e390613956565b918290555090506121fe828c836121f98e613b47565b612ce3565b60008b8152602083905260408082208390555182918d917f1ea0bdfd9680c9b8e4038e41083d7800dca81e6f55a15ce48d858ebb70693d2a9190a39a9950505050505050505050565b6040516024810184905233604482018190528491600090819061228e907f901cee110000000000000000000000000000000000000000000000000000000090606401610375565b91509150600082156123195760048251106122ae575060208101516122b2565b5060005b80612319576040517f08c379a000000000000000000000000000000000000000000000000000000000815260206004820152601860248201527f4e6f7420417574686f72697a656420546f20506f6c69637900000000000000006044820152606401610477565b6000612323612c59565b9050612334818a8a6121f98b613b47565b60405188908a907f7d0cd6a27b5d0487bca14f5b3852217db2c9951f3ad91646fe09e0c19abcef5090600090a3505050505050505050565b604051602481018390523360448201819052839160009081906123b3907f901cee110000000000000000000000000000000000000000000000000000000090606401610375565b915091506000821561243e5760048251106123d3575060208101516123d7565b5060005b8061243e576040517f08c379a000000000000000000000000000000000000000000000000000000000815260206004820152601860248201527f4e6f7420417574686f72697a656420546f20506f6c69637900000000000000006044820152606401610477565b866124488161076d565b156124af576040517f08c379a000000000000000000000000000000000000000000000000000000000815260206004820152601f60248201527f4e6f7420616c6c6f77656420666f722063656d656e74656420706f6c696379006044820152606401610477565b6124b7612a59565b60008981526001918201602090815260408083208b8452909152812080547fffffffffffff000000000000000000000000000000000000000000000000000016815591820181905561250c6002830182612e9a565b61251a600383016000612e9a565b5050604051879089907f19d0bd0cc4d63f9108c93b0abfd7408498ecbc73713f6bb3a2862d9b9d1983d890600090a35050505050505050565b6125936040805160e08101825260008082526020820181905291810182905290606082019081526020016000815260200160608152602001606081525090565b61259b612a59565b600084815260019190910160209081526040808320858452825291829020825160e08082018552825460ff80821615158452610100820473ffffffffffffffffffffffffffffffffffffffff16958401959095527501000000000000000000000000000000000000000000810490911b7fffffffff0000000000000000000000000000000000000000000000000000000016948201949094529290916060840191790100000000000000000000000000000000000000000000000000900416600781111561266b5761266b6131a5565b600781111561267c5761267c6131a5565b8152602001600182015481526020016002820180548060200260200160405190810160405280929190818152602001828054801561270957602002820191906000526020600020906000905b82829054906101000a900460ff1660078111156126e7576126e76131a5565b8152602060019283018181049485019490930390920291018084116126c85790505b5050505050815260200160038201805480602002602001604051908101604052809291908181526020018280548015610acf57602002820191906000526020600020906000905b825461010083900a900460ff16815260206001928301818104948501949093039092029101808411612750579050505050505081525050905092915050565b6060600061279b612c87565b6000848152602082905260408120549192508167ffffffffffffffff8111156127c6576127c6613441565b60405190808252806020026020018201604052801561281357816020015b604080516060808201835260008083526020830152918101919091528152602001906001900390816127e45790505b509050600060015b8381116109cc576000878152600186016020908152604080832084845290915290205460ff16156129525760008781526001868101602090815260408084208585528252928390208351606081018552815460ff811615158252610100900460e01b7fffffffff00000000000000000000000000000000000000000000000000000000168184015292810180548551818502810185018752818152949592949286019383018282801561291d57602002820191906000526020600020906000905b82829054906101000a900460ff1660078111156128fb576128fb6131a5565b8152602060019283018181049485019490930390920291018084116128dc5790505b50505050508152505083838151811061293857612938613b18565b6020026020010181905250818061294e90613956565b9250505b8061295c81613956565b91505061281b565b600060606000612972612db8565b7fffffffff0000000000000000000000000000000000000000000000000000000086166000908152602082905260409081902054905191925073ffffffffffffffffffffffffffffffffffffffff169081906129cf908790613c2a565b600060405180830381855af49150503d8060008114612a0a576040519150601f19603f3d011682016040523d82523d6000602084013e612a0f565b606091505b50909450925083612a2257825160208401fd5b50509250929050565b6000806107dd60017ff9dbd639dd2ea165d77dd4c51dec420100d51ceacf023b1c40faa045ba8f9a65613c46565b6000806107dd60017f1f3305601ed940efccf797d76856e5fe70659a8a6905d64c9f236321df91e718613c46565b8060c00151518160a001515114612aa057612aa0613c59565b6001815280612aad612a59565b6000848152600191909101602090815260408083206080860151845282529182902083518154928501519385015160e01c7501000000000000000000000000000000000000000000027fffffffffffffff00000000ffffffffffffffffffffffffffffffffffffffffff73ffffffffffffffffffffffffffffffffffffffff909516610100027fffffffffffffffffffffff0000000000000000000000000000000000000000ff921515929092167fffffffffffffffffffffff00000000000000000000000000000000000000000090941693909317179283168217815560608401519092909183917fffffffffffff00ffffffffffffffffffffffffffffffffffffffffffffffffff9091167fffffffffffff0000000000ffffffffffffffffffffffffffffffffffffffffff90911617790100000000000000000000000000000000000000000000000000836007811115612c0c57612c0c6131a5565b02179055506080820151600182015560a08201518051612c36916002840191602090910190612de6565b5060c08201518051612c52916003840191602090910190612f9c565b5050505050565b6000806107dd60017f438102ff677bc3f21830c58117a05d6b953b31e3ea339da3f17957cd3941a690613c46565b6000806107dd60017f8b87534450a5488e76eda19b94ce784ed5d5fd327ac126c78047b6b2a04cf2f6613c46565b6000806107dd60017f5c91f63a4ffcbd372b8ec622fd1fcaaa601b66330afdb30e5c292dd9123f20b0613c46565b60018082526000848152908501602090815260408083208584528252909120825181549015157fffffffffffffffffffffffffffffffffffffffffffffffffffffffffffffff00821681178355928401518493909183917fffffffffffffffffffffffffffffffffffffffffffffffffffffffffffff00ff167fffffffffffffffffffffffffffffffffffffffffffffffffffffffffffff000090911617610100836007811115612d9657612d966131a5565b021790555060408201516001820190612daf9082613cd4565b50505050505050565b6000806107dd60017fbe498a3b14fd79a48c3c9af86ff14271ed497d09071013334028d28e7791db20613c46565b82805482825590600052602060002090601f01602090048101928215612e8a5791602002820160005b83821115612e5b57835183826101000a81548160ff02191690836007811115612e3a57612e3a6131a5565b02179055509260200192600101602081600001049283019260010302612e0f565b8015612e885782816101000a81549060ff0219169055600101602081600001049283019260010302612e5b565b505b50612e96929150613003565b5090565b50805460008255601f016020900490600052602060002090810190612ebf9190613003565b50565b508054600082556007016008900490600052602060002090810190612ebf9190613003565b5080546000825590600052602060002090810190612ebf9190613003565b5080546000825590600052602060002090810190612ebf9190613018565b5080546000825590600052602060002090810190612ebf9190613035565b5080546000825560050290600052602060002090810190612ebf919061306c565b508054612f6e90613acb565b6000825580601f10612f7e575050565b601f016020900490600052602060002090810190612ebf9190613003565b82805482825590600052602060002090601f01602090048101928215612e8a5791602002820160005b83821115612e5b57835183826101000a81548160ff021916908360ff1602179055509260200192600101602081600001049283019260010302612fc5565b5b80821115612e965760008155600101613004565b80821115612e9657600061302c8282612f62565b50600101613018565b5b80821115612e965780547fffffffffffffffffffffffffff00000000000000000000000000000000000000168155600101613036565b80821115612e965780547fffffffffffffffffffffffffffffffffffffffffffffffffffffffff0000000016815560006130a96001830182612f62565b60028201600090556003820160006130c19190612f62565b6130cf600483016000612ee7565b5060050161306c565b803573ffffffffffffffffffffffffffffffffffffffff811681146130fc57600080fd5b919050565b6000806040838503121561311457600080fd5b82359150613124602084016130d8565b90509250929050565b600060e0828403121561313f57600080fd5b50919050565b6000806040838503121561315857600080fd5b82359150602083013567ffffffffffffffff81111561317657600080fd5b6131828582860161312d565b9150509250929050565b60006020828403121561319e57600080fd5b5035919050565b7f4e487b7100000000000000000000000000000000000000000000000000000000600052602160045260246000fd5b6008811061320b577f4e487b7100000000000000000000000000000000000000000000000000000000600052602160045260246000fd5b9052565b60005b8381101561322a578181015183820152602001613212565b50506000910152565b8051151582526000602082015161324d60208501826131d4565b50604082015160606040850152805180606086015261327381608087016020850161320f565b601f017fffffffffffffffffffffffffffffffffffffffffffffffffffffffffffffffe016939093016080019392505050565b6000602082016020835280845180835260408501915060408160051b86010192506020860160005b8281101561331d577fffffffffffffffffffffffffffffffffffffffffffffffffffffffffffffffc0878603018452613308858351613233565b945060209384019391909101906001016132ce565b50929695505050505050565b6000806040838503121561333c57600080fd5b50508035926020909101359150565b600081518084526020840193506020830160005b82811015613385576133728683516131d4565b602095860195919091019060010161335f565b5093949350505050565b8051151582527fffffffff00000000000000000000000000000000000000000000000000000000602082015116602083015260006040820151606060408501526133dc606085018261334b565b949350505050565b6020815260006133f7602083018461338f565b9392505050565b6020815260006133f76020830184613233565b80357fffffffff00000000000000000000000000000000000000000000000000000000811681146130fc57600080fd5b7f4e487b7100000000000000000000000000000000000000000000000000000000600052604160045260246000fd5b60405160e0810167ffffffffffffffff8111828210171561349357613493613441565b60405290565b6040516060810167ffffffffffffffff8111828210171561349357613493613441565b604051601f82017fffffffffffffffffffffffffffffffffffffffffffffffffffffffffffffffe016810167ffffffffffffffff8111828210171561350357613503613441565b604052919050565b600067ffffffffffffffff82111561352557613525613441565b5060051b60200190565b8035600881106130fc57600080fd5b600082601f83011261354f57600080fd5b813561356261355d8261350b565b6134bc565b8082825260208201915060208360051b86010192508583111561358457600080fd5b602085015b838110156135a85761359a8161352f565b835260209283019201613589565b5095945050505050565b6000806000606084860312156135c757600080fd5b833592506135d760208501613411565b9150604084013567ffffffffffffffff8111156135f357600080fd5b6135ff8682870161353e565b9150509250925092565b600081518084526020840193506020830160005b8281101561338557815160ff1686526020958601959091019060010161361d565b80511515825273ffffffffffffffffffffffffffffffffffffffff60208201511660208301527fffffffff000000000000000000000000000000000000000000000000000000006040820151166040830152600060608201516136a460608501826131d4565b506080820151608084015260a082015160e060a08501526136c860e085018261334b565b905060c083015184820360c08601526136e18282613609565b95945050505050565b6000602082016020835280845180835260408501915060408160051b86010192506020860160005b8281101561331d577fffffffffffffffffffffffffffffffffffffffffffffffffffffffffffffffc087860301845261374c85835161363e565b94506020938401939190910190600101613712565b6000806000806080858703121561377757600080fd5b843593506020850135925061378e60408601613411565b9150606085013567ffffffffffffffff8111156137aa57600080fd5b6137b68782880161353e565b91505092959194509250565b6000806000606084860312156137d757600080fd5b8335925060208401359150604084013567ffffffffffffffff8111156137fc57600080fd5b6135ff8682870161312d565b6020815260006133f7602083018461363e565b60006060828403121561313f57600080fd5b6000806040838503121561384057600080fd5b82359150602083013567ffffffffffffffff81111561385e57600080fd5b6131828582860161381b565b60008060006060848603121561387f57600080fd5b8335925060208401359150604084013567ffffffffffffffff8111156138a457600080fd5b6135ff8682870161381b565b6000602082016020835280845180835260408501915060408160051b86010192506020860160005b8281101561331d577fffffffffffffffffffffffffffffffffffffffffffffffffffffffffffffffc087860301845261391285835161338f565b945060209384019391909101906001016138d8565b7f4e487b7100000000000000000000000000000000000000000000000000000000600052601160045260246000fd5b60007fffffffffffffffffffffffffffffffffffffffffffffffffffffffffffffffff820361398757613987613927565b5060010190565b803580151581146130fc57600080fd5b600082601f8301126139af57600080fd5b81356139bd61355d8261350b565b8082825260208201915060208360051b8601019250858311156139df57600080fd5b602085015b838110156135a857803560ff811681146139fd57600080fd5b8352602092830192016139e4565b600060e08236031215613a1d57600080fd5b613a25613470565b613a2e8361398e565b8152613a3c602084016130d8565b6020820152613a4d60408401613411565b6040820152613a5e6060840161352f565b60608201526080838101359082015260a083013567ffffffffffffffff811115613a8757600080fd5b613a933682860161353e565b60a08301525060c083013567ffffffffffffffff811115613ab357600080fd5b613abf3682860161399e565b60c08301525092915050565b600181811c90821680613adf57607f821691505b60208210810361313f577f4e487b7100000000000000000000000000000000000000000000000000000000600052602260045260246000fd5b7f4e487b7100000000000000000000000000000000000000000000000000000000600052603260045260246000fd5b600060608236031215613b5957600080fd5b613b61613499565b613b6a8361398e565b8152613b786020840161352f565b6020820152604083013567ffffffffffffffff811115613b9757600080fd5b830136601f820112613ba857600080fd5b803567ffffffffffffffff811115613bc257613bc2613441565b613bf360207fffffffffffffffffffffffffffffffffffffffffffffffffffffffffffffffe0601f840116016134bc565b818152366020838501011115613c0857600080fd5b8160208401602083013760009181016020019190915260408301525092915050565b60008251613c3c81846020870161320f565b9190910192915050565b818103818111156107dd576107dd613927565b7f4e487b7100000000000000000000000000000000000000000000000000000000600052600160045260246000fd5b601f821115613ccf57806000526020600020601f840160051c81016020851015613caf5750805b601f840160051c820191505b81811015612c525760008155600101613cbb565b505050565b815167ffffffffffffffff811115613cee57613cee613441565b613d0281613cfc8454613acb565b84613c88565b6020601f821160018114613d545760008315613d1e5750848201515b7fffffffffffffffffffffffffffffffffffffffffffffffffffffffffffffffff600385901b1c1916600184901b178455612c52565b6000848152602081207fffffffffffffffffffffffffffffffffffffffffffffffffffffffffffffffe08516915b82811015613da25787850151825560209485019460019092019101613d82565b5084821015613dde57868401517fffffffffffffffffffffffffffffffffffffffffffffffffffffffffffffffff600387901b60f8161c191681555b50505050600190811b0190555056fea2646970667358221220fb9cbb747644ab4c6a42b9a50a58a5dcf6107e483674835a66c0745c30bf182564736f6c634300081c0033","linkReferences":{}},"methodIdentifiers":{"addClosedPolicySubscriber(uint256,address)":"2711fe6b","createForeignCall(uint256,(bool,address,bytes4,uint8,uint256,uint8[],uint8[]))":"2e4c803b","createFunctionSignature(uint256,bytes4,uint8[])":"9fe9c9b8","createTracker(uint256,(bool,uint8,bytes))":"cd42bcf8","deleteForeignCall(uint256,uint256)":"d82260c8","deleteFunctionSignature(uint256,uint256)":"a626bb8d","deleteTracker(uint256,uint256)":"a82c9e07","getAllForeignCalls(uint256)":"a3937e99","getAllFunctionSignatures(uint256)":"e7e31b31","getAllTrackers(uint256)":"56f3b05f","getForeignCall(uint256,uint256)":"da7d5d28","getFunctionSignature(uint256,uint256)":"660dac4d","getTracker(uint256,uint256)":"72a340d7","isCemented(uint256)":"348ec401","isClosedPolicySubscriber(uint256,address)":"4c957ad9","removeClosedPolicySubscriber(uint256,address)":"7374c994","updateForeignCall(uint256,uint256,(bool,address,bytes4,uint8,uint256,uint8[],uint8[]))":"c017d300","updateFunctionSignature(uint256,uint256,bytes4,uint8[])":"bcb01c22","updateTracker(uint256,uint256,(bool,uint8,bytes))":"cf7c6728"},"id":81}