{"abi":[{"type":"function","name":"applyPolicy","inputs":[{"name":"contractAddress","type":"address","internalType":"address"},{"name":"policyIds","type":"uint256[]","internalType":"uint256[]"}],"outputs":[],"stateMutability":"nonpayable"},{"type":"function","name":"cementPolicy","inputs":[{"name":"policyId","type":"uint256","internalType":"uint256"}],"outputs":[],"stateMutability":"nonpayable"},{"type":"function","name":"closePolicy","inputs":[{"name":"policyId","type":"uint256","internalType":"uint256"}],"outputs":[],"stateMutability":"nonpayable"},{"type":"function","name":"createPolicy","inputs":[{"name":"callingFunctions","type":"tuple[]","internalType":"struct CallingFunctionStorageSet[]","components":[{"name":"set","type":"bool","internalType":"bool"},{"name":"signature","type":"bytes4","internalType":"bytes4"},{"name":"parameterTypes","type":"uint8[]","internalType":"enum ParamTypes[]"}]},{"name":"rules","type":"tuple[]","internalType":"struct Rule[]","components":[{"name":"instructionSet","type":"uint256[]","internalType":"uint256[]"},{"name":"rawData","type":"tuple","internalType":"struct RawData","components":[{"name":"instructionSetIndex","type":"uint256[]","internalType":"uint256[]"},{"name":"argumentTypes","type":"uint8[]","internalType":"enum ParamTypes[]"},{"name":"dataValues","type":"bytes[]","internalType":"bytes[]"}]},{"name":"placeHolders","type":"tuple[]","internalType":"struct Placeholder[]","components":[{"name":"pType","type":"uint8","internalType":"enum ParamTypes"},{"name":"typeSpecificIndex","type":"uint128","internalType":"uint128"},{"name":"trackerValue","type":"bool","internalType":"bool"},{"name":"foreignCall","type":"bool","internalType":"bool"}]},{"name":"effectPlaceHolders","type":"tuple[]","internalType":"struct Placeholder[]","components":[{"name":"pType","type":"uint8","internalType":"enum ParamTypes"},{"name":"typeSpecificIndex","type":"uint128","internalType":"uint128"},{"name":"trackerValue","type":"bool","internalType":"bool"},{"name":"foreignCall","type":"bool","internalType":"bool"}]},{"name":"posEffects","type":"tuple[]","internalType":"struct Effect[]","components":[{"name":"valid","type":"bool","internalType":"bool"},{"name":"dynamicParam","type":"bool","internalType":"bool"},{"name":"effectType","type":"uint8","internalType":"enum EffectTypes"},{"name":"pType","type":"uint8","internalType":"enum ParamTypes"},{"name":"param","type":"bytes","internalType":"bytes"},{"name":"text","type":"bytes32","internalType":"bytes32"},{"name":"errorMessage","type":"string","internalType":"string"},{"name":"instructionSet","type":"uint256[]","internalType":"uint256[]"}]},{"name":"negEffects","type":"tuple[]","internalType":"struct Effect[]","components":[{"name":"valid","type":"bool","internalType":"bool"},{"name":"dynamicParam","type":"bool","internalType":"bool"},{"name":"effectType","type":"uint8","internalType":"enum EffectTypes"},{"name":"pType","type":"uint8","internalType":"enum ParamTypes"},{"name":"param","type":"bytes","internalType":"bytes"},{"name":"text","type":"bytes32","internalType":"bytes32"},{"name":"errorMessage","type":"string","internalType":"string"},{"name":"instructionSet","type":"uint256[]","internalType":"uint256[]"}]}]},{"name":"policyType","type":"uint8","internalType":"enum PolicyType"}],"outputs":[{"name":"","type":"uint256","internalType":"uint256"}],"stateMutability":"nonpayable"},{"type":"function","name":"deletePolicy","inputs":[{"name":"policyId","type":"uint256","internalType":"uint256"}],"outputs":[],"stateMutability":"nonpayable"},{"type":"function","name":"getAppliedPolicyIds","inputs":[{"name":"contractAddress","type":"address","internalType":"address"}],"outputs":[{"name":"","type":"uint256[]","internalType":"uint256[]"}],"stateMutability":"view"},{"type":"function","name":"getPolicy","inputs":[{"name":"policyId","type":"uint256","internalType":"uint256"}],"outputs":[{"name":"callingFunctions","type":"bytes4[]","internalType":"bytes4[]"},{"name":"callingFunctionIds","type":"uint256[]","internalType":"uint256[]"},{"name":"ruleIds","type":"uint256[][]","internalType":"uint256[][]"}],"stateMutability":"view"},{"type":"function","name":"isCementedPolicy","inputs":[{"name":"_policyId","type":"uint256","internalType":"uint256"}],"outputs":[{"name":"","type":"bool","internalType":"bool"}],"stateMutability":"view"},{"type":"function","name":"isClosedPolicy","inputs":[{"name":"policyId","type":"uint256","internalType":"uint256"}],"outputs":[{"name":"","type":"bool","internalType":"bool"}],"stateMutability":"view"},{"type":"function","name":"openPolicy","inputs":[{"name":"policyId","type":"uint256","internalType":"uint256"}],"outputs":[],"stateMutability":"nonpayable"},{"type":"function","name":"unapplyPolicy","inputs":[{"name":"_contractAddress","type":"address","internalType":"address"},{"name":"_policyIds","type":"uint256[]","internalType":"uint256[]"}],"outputs":[],"stateMutability":"nonpayable"},{"type":"function","name":"updatePolicy","inputs":[{"name":"policyId","type":"uint256","internalType":"uint256"},{"name":"callingFunctions","type":"bytes4[]","internalType":"bytes4[]"},{"name":"callingFunctionIds","type":"uint256[]","internalType":"uint256[]"},{"name":"ruleIds","type":"uint256[][]","internalType":"uint256[][]"},{"name":"policyType","type":"uint8","internalType":"enum PolicyType"}],"outputs":[{"name":"","type":"uint256","internalType":"uint256"}],"stateMutability":"nonpayable"},{"type":"event","name":"ForeignCallDeleted","inputs":[{"name":"policyId","type":"uint256","indexed":true,"internalType":"uint256"},{"name":"foreignCallId","type":"uint256","indexed":true,"internalType":"uint256"}],"anonymous":false},{"type":"event","name":"PolicyApplied","inputs":[{"name":"policyIds","type":"uint256[]","indexed":false,"internalType":"uint256[]"},{"name":"callingContract","type":"address","indexed":true,"internalType":"address"}],"anonymous":false},{"type":"event","name":"PolicyCemented","inputs":[{"name":"policyId","type":"uint256","indexed":true,"internalType":"uint256"}],"anonymous":false},{"type":"event","name":"PolicyClosed","inputs":[{"name":"policyId","type":"uint256","indexed":true,"internalType":"uint256"}],"anonymous":false},{"type":"event","name":"PolicyCreated","inputs":[{"name":"policyId","type":"uint256","indexed":true,"internalType":"uint256"}],"anonymous":false},{"type":"event","name":"PolicyDeleted","inputs":[{"name":"policyId","type":"uint256","indexed":true,"internalType":"uint256"}],"anonymous":false},{"type":"event","name":"PolicyOpened","inputs":[{"name":"policyId","type":"uint256","indexed":true,"internalType":"uint256"}],"anonymous":false},{"type":"event","name":"PolicyUnapplied","inputs":[{"name":"policyIds","type":"uint256[]","indexed":false,"internalType":"uint256[]"},{"name":"callingContract","type":"address","indexed":true,"internalType":"address"}],"anonymous":false},{"type":"event","name":"PolicyUpdated","inputs":[{"name":"policyId","type":"uint256","indexed":true,"internalType":"uint256"}],"anonymous":false},{"type":"event","name":"TrackerDeleted","inputs":[{"name":"policyId","type":"uint256","indexed":true,"internalType":"uint256"},{"name":"trackerId","type":"uint256","indexed":true,"internalType":"uint256"}],"anonymous":false}],"bytecode":{"object":"0x6080604052348015600e575f5ffd5b50613aec8061001c5f395ff3fe608060405234801561000f575f5ffd5b50600436106100cf575f3560e01c8063798d6c7b1161007d578063e374902311610058578063e3749023146101b2578063f7b570f6146101d2578063fed27c8f146101e5575f5ffd5b8063798d6c7b146101795780639228303f1461018c578063d46a37c41461019f575f5ffd5b80632fd205bd116100ad5780632fd205bd146101305780634f10689b146101435780635239f98c14610166575f5ffd5b80631ff76a7b146100d35780632b07fce3146100f95780632b0e44401461011b575b5f5ffd5b6100e66100e13660046133ef565b6101f8565b6040519081526020015b60405180910390f35b61010c61010736600461346f565b61031f565b6040516100f0939291906134c0565b61012e61012936600461346f565b6107df565b005b6100e661013e3660046135b4565b61096f565b61015661015136600461346f565b610b35565b60405190151581526020016100f0565b61012e61017436600461368f565b610b6d565b61012e61018736600461346f565b6110ee565b61012e61019a36600461368f565b611203565b61012e6101ad36600461346f565b6116c3565b6101c56101c03660046136de565b611814565b6040516100f091906136fe565b6101566101e036600461346f565b611893565b61012e6101f336600461346f565b6118ba565b5f5f610202611f40565b805460019081018083555f8181528284016020526040902080547fffffffffffffffffffffffffffffffffffffffffffffffffffffffffffffff00908116841782556004909101805494955091938793911690838181111561026657610266613710565b02179055506040517f1929cb64000000000000000000000000000000000000000000000000000000008152600481018290523360248201523090631929cb64906044016020604051808303815f875af11580156102c5573d5f5f3e3d5ffd5b505050506040513d601f19601f820116820180604052508101906102e9919061373d565b5060405181907fde5ef345cecbaaffdfbe2454b7947aa14037bac2f45e4fc98976f8bffea38623905f90a2979650505050505050565b60608060605f61032d611f40565b5f8681526001918201602052604090206003810154910191501561043357600281015467ffffffffffffffff81111561036857610368613754565b604051908082528060200260200182016040528015610391578160200160208202803683370190505b50600282015490945067ffffffffffffffff8111156103b2576103b2613754565b6040519080825280602002602001820160405280156103db578160200160208202803683370190505b50600282015490935067ffffffffffffffff8111156103fc576103fc613754565b60405190808252806020026020018201604052801561042f57816020015b606081526020019060019003908161041a5790505b5091505b600281015467ffffffffffffffff81111561045057610450613754565b60405190808252806020026020018201604052801561048357816020015b606081526020019060019003908161046e5790505b5091505f5b60028201548110156107d6578160020181815481106104a9576104a9613781565b905f5260205f2090600891828204019190066004029054906101000a900460e01b8582815181106104dc576104dc613781565b7fffffffff000000000000000000000000000000000000000000000000000000009092166020928302919091019091015260028201805483915f918490811061052757610527613781565b905f5260205f2090600891828204019190066004029054906101000a900460e01b7bffffffffffffffffffffffffffffffffffffffffffffffffffffffff19167bffffffffffffffffffffffffffffffffffffffffffffffffffffffff191681526020019081526020015f20548482815181106105a6576105a6613781565b60209081029190910101525f5b826001015f8460020184815481106105cd576105cd613781565b5f918252602080832060088304015460079092166004026101000a90910460e01b7fffffffff000000000000000000000000000000000000000000000000000000001683528201929092526040019020548110156107cd57826001015f84600201848154811061063f5761063f613781565b5f918252602080832060088304015460079092166004026101000a90910460e01b7fffffffff0000000000000000000000000000000000000000000000000000000016835282019290925260400190205467ffffffffffffffff8111156106a8576106a8613754565b6040519080825280602002602001820160405280156106d1578160200160208202803683370190505b508483815181106106e4576106e4613781565b6020026020010181905250826001015f84600201848154811061070957610709613781565b905f5260205f2090600891828204019190066004029054906101000a900460e01b7bffffffffffffffffffffffffffffffffffffffffffffffffffffffff19167bffffffffffffffffffffffffffffffffffffffffffffffffffffffff191681526020019081526020015f20818154811061078657610786613781565b905f5260205f2001548483815181106107a1576107a1613781565b602002602001015182815181106107ba576107ba613781565b60209081029190910101526001016105b3565b50600101610488565b50509193909250565b60405160248101829052336044820181905282915f90819061089c907f901cee1100000000000000000000000000000000000000000000000000000000906064015b604080517fffffffffffffffffffffffffffffffffffffffffffffffffffffffffffffffe08184030181529190526020810180517bffffffffffffffffffffffffffffffffffffffffffffffffffffffff167f901cee1100000000000000000000000000000000000000000000000000000000179052611f73565b915091505f821561092a5760048251106108bb575060208101516108be565b505f5b8061092a576040517f08c379a000000000000000000000000000000000000000000000000000000000815260206004820152601860248201527f4e6f7420417574686f72697a656420546f20506f6c696379000000000000000060448201526064015b60405180910390fd5b61093386612034565b61093d865f6120c3565b60405186907f524fcc256039a8ee7fd3d614ec713bd4a9159d02d7261ae80028fc15b45c4848905f90a2505050505050565b5f88335f5f6109b163901cee1160e01b858560405160240161082192919091825273ffffffffffffffffffffffffffffffffffffffff16602082015260400190565b915091505f8215610a3a5760048251106109d0575060208101516109d3565b505f5b80610a3a576040517f08c379a000000000000000000000000000000000000000000000000000000000815260206004820152601860248201527f4e6f7420417574686f72697a656420546f20506f6c69637900000000000000006044820152606401610921565b610a438e612034565b8b8a14610a96576040518060600160405280602e8152602001613a50602e91396040517f08c379a000000000000000000000000000000000000000000000000000000000815260040161092191906137ae565b8d5f03610ae9576040518060600160405280603481526020016139d3603491396040517f08c379a000000000000000000000000000000000000000000000000000000000815260040161092191906137ae565b6040518e907f912ce63c438aca9d2f50d1d12de5b42efbcc84ce223b08122e8c2e3c000ca1f8905f90a2610b238e8e8e8e8e8e8e8e6121e5565b9e9d5050505050505050505050505050565b5f80610b3f611f40565b5f8481526001918201602052604090206004015460ff1690811115610b6657610b66613710565b1492915050565b60405173ffffffffffffffffffffffffffffffffffffffff84166024820152336044820181905284915f908190610c3f907f70aca09200000000000000000000000000000000000000000000000000000000906064015b604080517fffffffffffffffffffffffffffffffffffffffffffffffffffffffffffffffe08184030181529190526020810180517bffffffffffffffffffffffffffffffffffffffffffffffffffffffff167f70aca09200000000000000000000000000000000000000000000000000000000179052611f73565b915091505f8215610cc8576004825110610c5e57506020810151610c61565b505f5b80610cc8576040517f08c379a000000000000000000000000000000000000000000000000000000000815260206004820152601460248201527f4e6f7420417574686f72697a65642041646d696e0000000000000000000000006044820152606401610921565b73ffffffffffffffffffffffffffffffffffffffff8816610d4857604080518082018252601c81527f5a65726f20416464726573732043616e6e6f742042652041646d696e00000000602082015290517f08c379a000000000000000000000000000000000000000000000000000000000815261092191906004016137ae565b5f610d5161315b565b73ffffffffffffffffffffffffffffffffffffffff8a165f9081526020828152604080832080548251818502810185019093528083529495509293909291830182828015610dbc57602002820191905f5260205f20905b815481526020019060010190808311610da8575b5050505073ffffffffffffffffffffffffffffffffffffffff8c165f908152602085905260408120929350610df29291506132a5565b5f805b8251811015610eb5575f9150815b8a811015610e50578b8b82818110610e1d57610e1d613781565b90506020020135848381518110610e3657610e36613781565b602002602001015103610e4857600192505b600101610e03565b5081610ead5773ffffffffffffffffffffffffffffffffffffffff8c165f9081526020859052604090208351849083908110610e8e57610e8e613781565b60209081029190910181015182546001810184555f9384529190922001555b600101610df5565b505f836001015f8c8c5f818110610ece57610ece613781565b9050602002013581526020019081526020015f20805480602002602001604051908101604052809291908181526020018280548015610f4157602002820191905f5260205f20905b815473ffffffffffffffffffffffffffffffffffffffff168152600190910190602001808311610f16575b509394505f93505050505b8a81101561108f57846001015f8d8d84818110610f6b57610f6b613781565b9050602002013581526020019081526020015f205f610f8a91906132a5565b5f5b8251811015611086578d73ffffffffffffffffffffffffffffffffffffffff16838281518110610fbe57610fbe613781565b602002602001015173ffffffffffffffffffffffffffffffffffffffff161461107e57856001015f8e8e85818110610ff857610ff8613781565b9050602002013581526020019081526020015f2083828151811061101e5761101e613781565b60209081029190910181015182546001810184555f938452919092200180547fffffffffffffffffffffffff00000000000000000000000000000000000000001673ffffffffffffffffffffffffffffffffffffffff9092169190911790555b600101610f8c565b50600101610f4c565b508b73ffffffffffffffffffffffffffffffffffffffff167fcca48239a70eb9b3cebd3ea981ec0ca547a1eac614fb9ef7c80422484582c10b8c8c6040516110d8929190613801565b60405180910390a2505050505050505050505050565b60405160248101829052336044820181905282915f908190611134907f901cee110000000000000000000000000000000000000000000000000000000090606401610821565b915091505f82156111bd57600482511061115357506020810151611156565b505f5b806111bd576040517f08c379a000000000000000000000000000000000000000000000000000000000815260206004820152601860248201527f4e6f7420417574686f72697a656420546f20506f6c69637900000000000000006044820152606401610921565b6111c686612034565b6111d18660016120c3565b60405186907fe9a53e8109d105e8132e423c8a8489a6c054acbfff3373248be4938a857143d9905f90a2505050505050565b60405173ffffffffffffffffffffffffffffffffffffffff84166024820152336044820181905284915f90819061125e907f70aca0920000000000000000000000000000000000000000000000000000000090606401610bc4565b915091505f82156112e757600482511061127d57506020810151611280565b505f5b806112e7576040517f08c379a000000000000000000000000000000000000000000000000000000000815260206004820152601460248201527f4e6f7420417574686f72697a65642041646d696e0000000000000000000000006044820152606401610921565b73ffffffffffffffffffffffffffffffffffffffff881661136757604080518082018252601c81527f5a65726f20416464726573732043616e6e6f742042652041646d696e00000000602082015290517f08c379a000000000000000000000000000000000000000000000000000000000815261092191906004016137ae565b5f61137061315b565b90505f5b878110156114e4575f611385611f40565b6001015f8b8b8581811061139b5761139b613781565b9050602002013581526020019081526020015f209050805f015f9054906101000a900460ff166040518060400160405280601581526020017f506f6c69637920646f6573206e6f7420657869737400000000000000000000008152509061142f576040517f08c379a000000000000000000000000000000000000000000000000000000000815260040161092191906137ae565b506114518a8a8481811061144557611445613781565b90506020020135612034565b5f600482015460ff16600181111561146b5761146b613710565b036114db57335f90815260058201602090815260409182902054825160608101909352603980845260ff9091169291613a7e90830139906114d9576040517f08c379a000000000000000000000000000000000000000000000000000000000815260040161092191906137ae565b505b50600101611374565b508667ffffffffffffffff8111156114fe576114fe613754565b604051908082528060200260200182016040528015611527578160200160208202803683370190505b5073ffffffffffffffffffffffffffffffffffffffff8a165f90815260208381526040909120825161155f93919291909101906132c0565b505f5b878110156116675788888281811061157c5761157c613781565b90506020020135825f015f8c73ffffffffffffffffffffffffffffffffffffffff1673ffffffffffffffffffffffffffffffffffffffff1681526020019081526020015f2082815481106115d2576115d2613781565b905f5260205f200181905550816001015f8a8a848181106115f5576115f5613781565b60209081029290920135835250818101929092526040015f9081208054600180820183559183529290912090910180547fffffffffffffffffffffffff00000000000000000000000000000000000000001673ffffffffffffffffffffffffffffffffffffffff8d1617905501611562565b508873ffffffffffffffffffffffffffffffffffffffff167f12152a04e6faa55f635c036c0cb901dff565d19cd5703f5076adda8206cdb7c689896040516116b0929190613801565b60405180910390a2505050505050505050565b60405160248101829052336044820181905282915f908190611709907f901cee110000000000000000000000000000000000000000000000000000000090606401610821565b915091505f82156117925760048251106117285750602081015161172b565b505f5b80611792576040517f08c379a000000000000000000000000000000000000000000000000000000000815260206004820152601860248201527f4e6f7420417574686f72697a656420546f20506f6c69637900000000000000006044820152606401610921565b600161179c611f40565b5f88815260019190910160205260408082206004018054931515610100027fffffffffffffffffffffffffffffffffffffffffffffffffffffffffffff00ff90941693909317909255905187917fbaf00585ebbdf781652a166975bf4579319799593ec61cfadd690ea9833c3fc891a2505050505050565b606061181e61315b565b73ffffffffffffffffffffffffffffffffffffffff83165f90815260209182526040908190208054825181850281018501909352808352919290919083018282801561188757602002820191905f5260205f20905b815481526020019060010190808311611873575b50505050509050919050565b5f61189c611f40565b5f928352600101602052506040902060040154610100900460ff1690565b60405160248101829052336044820181905282915f908190611900907f901cee110000000000000000000000000000000000000000000000000000000090606401610821565b915091505f821561198957600482511061191f57506020810151611922565b505f5b80611989576040517f08c379a000000000000000000000000000000000000000000000000000000000815260206004820152601860248201527f4e6f7420417574686f72697a656420546f20506f6c69637900000000000000006044820152606401610921565b61199286612034565b5f61199b611f40565b5f88815260019182016020908152604080832080547fffffffffffffffffffffffffffffffffffffffffffffffffffffffffffffff00168155600381018054835181860281018601909452808452919650948601949192830182828015611a6057602002820191905f5260205f20905f905b82829054906101000a900460e01b7bffffffffffffffffffffffffffffffffffffffffffffffffffffffff191681526020019060040190602082600301049283019260010382029150808411611a0d5790505b509394505f93505050505b8151811015611c0a575f836001015f848481518110611a8c57611a8c613781565b60200260200101517bffffffffffffffffffffffffffffffffffffffffffffffffffffffff19167bffffffffffffffffffffffffffffffffffffffffffffffffffffffff191681526020019081526020015f20805480602002602001604051908101604052809291908181526020018280548015611b2757602002820191905f5260205f20905b815481526020019060010190808311611b13575b509394505f93505050505b8151811015611c0057611bf663a31c8ebb60e01b8d848481518110611b5957611b59613781565b6020026020010151604051602401611b7b929190918252602082015260400190565b604080517fffffffffffffffffffffffffffffffffffffffffffffffffffffffffffffffe08184030181529190526020810180517bffffffffffffffffffffffffffffffffffffffffffffffffffffffff167fa31c8ebb00000000000000000000000000000000000000000000000000000000179052611f73565b5050600101611b32565b5050600101611a6b565b505f611c14613188565b5f8b8152602091909152604081205491505b818111611d0457611c35613188565b5f8c81526001919091016020908152604080832084845290915290205460ff1615611cf257611c62613188565b5f8c8152600191820160209081526040808320858452909152812080547fffffffffffff0000000000000000000000000000000000000000000000000000168155918201819055611cb66002830182613309565b611cc3600383015f613309565b505060405181908c907f19d0bd0cc4d63f9108c93b0abfd7408498ecbc73713f6bb3a2862d9b9d1983d8905f90a35b80611cfc8161387e565b915050611c26565b505f611d0e6131b5565b5f8c81526020829052604090205490915060015b818111611deb575f8d8152600184016020908152604080832084845290915290205460ff1615611dd957611d546131b5565b5f8e8152600191820160209081526040808320858452909152812080547fffffffffffffffffffffffffffffffffffffffffffffffffffffffffffff000016815591611da29083018261332b565b600282015f90555050808d7ed9d817df2d853a886f2cbe7a671a676890264711abbb9d2c3ee79fb1bb653a60405160405180910390a35b80611de38161387e565b915050611d22565b505f5b6003870154811015611f075760038701805460018901915f9184908110611e1757611e17613781565b905f5260205f2090600891828204019190066004029054906101000a900460e01b7bffffffffffffffffffffffffffffffffffffffffffffffffffffffff19167bffffffffffffffffffffffffffffffffffffffffffffffffffffffff191681526020019081526020015f205f9055866001016001015f886001016002018381548110611ea657611ea6613781565b5f918252602080832060088304015460079092166004026101000a90910460e01b7fffffffff000000000000000000000000000000000000000000000000000000001683528201929092526040018120611eff916132a5565b600101611dee565b506040518c907f433ab09ab993382af577c4a70f77dcc7cf149b5b52eb40d19b869664bfb5496d905f90a2505050505050505050505050565b5f80611f6d60017ff9dbd639dd2ea165d77dd4c51dec420100d51ceacf023b1c40faa045ba8f9a656138b5565b92915050565b5f60605f611f7f6131e2565b7fffffffff0000000000000000000000000000000000000000000000000000000086165f908152602082905260409081902054905191925073ffffffffffffffffffffffffffffffffffffffff16908190611fdb9087906138c8565b5f60405180830381855af49150503d805f8114612013576040519150601f19603f3d011682016040523d82523d5f602084013e612018565b606091505b5090945092508361202b57825160208401fd5b50509250929050565b61203c611f40565b5f8281526001919091016020526040902060040154610100900460ff16156120c0576040517f08c379a000000000000000000000000000000000000000000000000000000000815260206004820152601f60248201527f4e6f7420616c6c6f77656420666f722063656d656e74656420706f6c696379006044820152606401610921565b50565b5f6120cc611f40565b5f84815260019182016020526040812090910191508260018111156120f3576120f3613710565b0361219d575f61210161315b565b90505f5b5f858152600183016020526040902054811015612182575f85815260018301602052604081208054849291908490811061214157612141613781565b5f91825260208083209091015473ffffffffffffffffffffffffffffffffffffffff168352820192909252604001812061217a916132a5565b600101612105565b505f848152600182016020526040812061219b916132a5565b505b6003810180548391907fffffffffffffffffffffffffffffffffffffffffffffffffffffffffffffff0016600183818111156121db576121db613710565b0217905550505050565b5f5f6121ef611f40565b5f8b815260019182016020526040902001905061220c8a846120c3565b612219600282015f613362565b8315612fdc575f5b88811015612fd65761224b8b89898481811061223f5761223f613781565b9050602002013561320f565b6122b457604080518082018252601181527f496e76616c6964205369676e6174757265000000000000000000000000000000602082015290517f08c379a000000000000000000000000000000000000000000000000000000000815261092191906004016137ae565b8787828181106122c6576122c6613781565b90506020020135825f015f8c8c858181106122e3576122e3613781565b90506020020160208101906122f891906138de565b7fffffffff0000000000000000000000000000000000000000000000000000000016815260208101919091526040015f2055600282018a8a8381811061234057612340613781565b905060200201602081019061235591906138de565b81546001810183555f928352602083206008820401805463ffffffff60079093166004026101000a928302191660e09390931c919091029190911790555b8686838181106123a5576123a5613781565b90506020028101906123b7919061391d565b9050811015612fcd575f6123c9613239565b5f8e815260019190910160205260408120908989868181106123ed576123ed613781565b90506020028101906123ff919061391d565b8581811061240f5761240f613781565b602090810292909201358352508181019290925260409081015f2081518083018352815460ff1615158152825160018301805460e08188028401810190965260c08301818152939694959487019492939192849291849184018282801561249357602002820191905f5260205f20905b81548152602001906001019080831161247f575b50505050508152602001600182016040518060600160405290815f82018054806020026020016040519081016040528092919081815260200182805480156124f857602002820191905f5260205f20905b8154815260200190600101908083116124e4575b505050505081526020016001820180548060200260200160405190810160405280929190818152602001828054801561257d57602002820191905f5260205f20905f905b82829054906101000a900460ff16600781111561255b5761255b613710565b81526020600192830181810494850194909303909202910180841161253c5790505b5050505050815260200160028201805480602002602001604051908101604052809291908181526020015f905b82821015612652578382905f5260205f200180546125c790613981565b80601f01602080910402602001604051908101604052809291908181526020018280546125f390613981565b801561263e5780601f106126155761010080835404028352916020019161263e565b820191905f5260205f20905b81548152906001019060200180831161262157829003601f168201915b5050505050815260200190600101906125aa565b5050505081525050815260200160048201805480602002602001604051908101604052809291908181526020015f905b82821015612742575f8481526020902060408051608081019091529083018054829060ff1660078111156126b8576126b8613710565b60078111156126c9576126c9613710565b815290546fffffffffffffffffffffffffffffffff61010082041660208084019190915260ff710100000000000000000000000000000000008304811615156040850152720100000000000000000000000000000000000090920490911615156060909201919091529082526001929092019101612682565b50505050815260200160058201805480602002602001604051908101604052809291908181526020015f905b8282101561282e575f8481526020902060408051608081019091529083018054829060ff1660078111156127a4576127a4613710565b60078111156127b5576127b5613710565b815290546fffffffffffffffffffffffffffffffff61010082041660208084019190915260ff71010000000000000000000000000000000000830481161515604085015272010000000000000000000000000000000000009092049091161515606090920191909152908252600192909201910161276e565b50505050815260200160068201805480602002602001604051908101604052809291908181526020015f905b82821015612a93575f84815260209081902060408051610100808201835260058702909301805460ff8082161515845294810485161515958301959095529093909291840191620100009091041660028111156128b9576128b9613710565b60028111156128ca576128ca613710565b815281546020909101906301000000900460ff1660078111156128ef576128ef613710565b600781111561290057612900613710565b815260200160018201805461291490613981565b80601f016020809104026020016040519081016040528092919081815260200182805461294090613981565b801561298b5780601f106129625761010080835404028352916020019161298b565b820191905f5260205f20905b81548152906001019060200180831161296e57829003601f168201915b50505050508152602001600282015481526020016003820180546129ae90613981565b80601f01602080910402602001604051908101604052809291908181526020018280546129da90613981565b8015612a255780601f106129fc57610100808354040283529160200191612a25565b820191905f5260205f20905b815481529060010190602001808311612a0857829003601f168201915b5050505050815260200160048201805480602002602001604051908101604052809291908181526020018280548015612a7b57602002820191905f5260205f20905b815481526020019060010190808311612a67575b5050505050815250508152602001906001019061285a565b50505050815260200160078201805480602002602001604051908101604052809291908181526020015f905b82821015612cf8575f84815260209081902060408051610100808201835260058702909301805460ff808216151584529481048516151595830195909552909390929184019162010000909104166002811115612b1e57612b1e613710565b6002811115612b2f57612b2f613710565b815281546020909101906301000000900460ff166007811115612b5457612b54613710565b6007811115612b6557612b65613710565b8152602001600182018054612b7990613981565b80601f0160208091040260200160405190810160405280929190818152602001828054612ba590613981565b8015612bf05780601f10612bc757610100808354040283529160200191612bf0565b820191905f5260205f20905b815481529060010190602001808311612bd357829003601f168201915b5050505050815260200160028201548152602001600382018054612c1390613981565b80601f0160208091040260200160405190810160405280929190818152602001828054612c3f90613981565b8015612c8a5780601f10612c6157610100808354040283529160200191612c8a565b820191905f5260205f20905b815481529060010190602001808311612c6d57829003601f168201915b5050505050815260200160048201805480602002602001604051908101604052809291908181526020018280548015612ce057602002820191905f5260205f20905b815481526020019060010190808311612ccc575b50505050508152505081526020019060010190612abf565b505050915250509052508051909150612d7057604080518082018252600c81527f496e76616c69642052756c650000000000000000000000000000000000000000602082015290517f08c379a000000000000000000000000000000000000000000000000000000000815261092191906004016137ae565b5f5b81602001516040015151811015612f0d578160200151604001518181518110612d9d57612d9d613781565b60200260200101516060015115612e4657612def8e8360200151604001518381518110612dcc57612dcc613781565b6020026020010151602001516fffffffffffffffffffffffffffffffff16613266565b604051806060016040528060278152602001613a296027913990612e40576040517f08c379a000000000000000000000000000000000000000000000000000000000815260040161092191906137ae565b50612f05565b8160200151604001518181518110612e6057612e60613781565b60200260200101516040015115612f0557612eb28e8360200151604001518381518110612e8f57612e8f613781565b6020026020010151602001516fffffffffffffffffffffffffffffffff1661326f565b604051806060016040528060228152602001613a076022913990612f03576040517f08c379a000000000000000000000000000000000000000000000000000000000815260040161092191906137ae565b505b600101612d72565b50836001015f8d8d86818110612f2557612f25613781565b9050602002016020810190612f3a91906138de565b7fffffffff0000000000000000000000000000000000000000000000000000000016815260208101919091526040015f20888885818110612f7d57612f7d613781565b9050602002810190612f8f919061391d565b84818110612f9f57612f9f613781565b8354600180820186555f95865260209586902092909502939093013592019190915550919091019050612393565b50600101612221565b5061314d565b5f5b8881101561314b57612ffc8b89898481811061223f5761223f613781565b61306557604080518082018252601181527f496e76616c6964205369676e6174757265000000000000000000000000000000602082015290517f08c379a000000000000000000000000000000000000000000000000000000000815261092191906004016137ae565b87878281811061307757613077613781565b90506020020135825f015f8c8c8581811061309457613094613781565b90506020020160208101906130a991906138de565b7fffffffff0000000000000000000000000000000000000000000000000000000016815260208101919091526040015f2055600282018a8a838181106130f1576130f1613781565b905060200201602081019061310691906138de565b8154600180820184555f93845260209093206008820401805463ffffffff60079093166004026101000a928302191660e09390931c9190910291909117905501612fde565b505b509798975050505050505050565b5f80611f6d60017f1544053a94493269e0aa160e5aa5b54d19ee6492c78b8bd3af283b912c78cdeb6138b5565b5f80611f6d60017f1f3305601ed940efccf797d76856e5fe70659a8a6905d64c9f236321df91e7186138b5565b5f80611f6d60017f438102ff677bc3f21830c58117a05d6b953b31e3ea339da3f17957cd3941a6906138b5565b5f80611f6d60017fbe498a3b14fd79a48c3c9af86ff14271ed497d09071013334028d28e7791db206138b5565b5f613218613278565b5f938452600101602090815260408085209385529290525090205460ff1690565b5f80611f6d60017f5c91f63a4ffcbd372b8ec622fd1fcaaa601b66330afdb30e5c292dd9123f20b06138b5565b5f613218613188565b5f6132186131b5565b5f80611f6d60017fdc82e9666de28bef254c770aa394fdb200d98373b70390c27adec32819f8f2666138b5565b5080545f8255905f5260205f20908101906120c09190613380565b828054828255905f5260205f209081019282156132f9579160200282015b828111156132f95782518255916020019190600101906132de565b50613305929150613380565b5090565b5080545f8255601f0160209004905f5260205f20908101906120c09190613380565b50805461333790613981565b5f825580601f10613346575050565b601f0160209004905f5260205f20908101906120c09190613380565b5080545f825560070160089004905f5260205f20908101906120c091905b5b80821115613305575f8155600101613381565b5f5f83601f8401126133a4575f5ffd5b50813567ffffffffffffffff8111156133bb575f5ffd5b6020830191508360208260051b85010111156133d5575f5ffd5b9250929050565b8035600281106133ea575f5ffd5b919050565b5f5f5f5f5f60608688031215613403575f5ffd5b853567ffffffffffffffff811115613419575f5ffd5b61342588828901613394565b909650945050602086013567ffffffffffffffff811115613444575f5ffd5b61345088828901613394565b90945092506134639050604087016133dc565b90509295509295909350565b5f6020828403121561347f575f5ffd5b5035919050565b5f8151808452602084019350602083015f5b828110156134b6578151865260209586019590910190600101613498565b5093949350505050565b606080825284519082018190525f9060208601906080840190835b8181101561351b5783517fffffffff00000000000000000000000000000000000000000000000000000000168352602093840193909201916001016134db565b5050838103602085015261352f8187613486565b915050828103604084015280845180835260208301915060208160051b840101602087015f5b838110156135a5577fffffffffffffffffffffffffffffffffffffffffffffffffffffffffffffffe086840301855261358f838351613486565b6020958601959093509190910190600101613555565b50909998505050505050505050565b5f5f5f5f5f5f5f5f60a0898b0312156135cb575f5ffd5b88359750602089013567ffffffffffffffff8111156135e8575f5ffd5b6135f48b828c01613394565b909850965050604089013567ffffffffffffffff811115613613575f5ffd5b61361f8b828c01613394565b909650945050606089013567ffffffffffffffff81111561363e575f5ffd5b61364a8b828c01613394565b909450925061365d905060808a016133dc565b90509295985092959890939650565b803573ffffffffffffffffffffffffffffffffffffffff811681146133ea575f5ffd5b5f5f5f604084860312156136a1575f5ffd5b6136aa8461366c565b9250602084013567ffffffffffffffff8111156136c5575f5ffd5b6136d186828701613394565b9497909650939450505050565b5f602082840312156136ee575f5ffd5b6136f78261366c565b9392505050565b602081525f6136f76020830184613486565b7f4e487b71000000000000000000000000000000000000000000000000000000005f52602160045260245ffd5b5f6020828403121561374d575f5ffd5b5051919050565b7f4e487b71000000000000000000000000000000000000000000000000000000005f52604160045260245ffd5b7f4e487b71000000000000000000000000000000000000000000000000000000005f52603260045260245ffd5b602081525f82518060208401528060208501604085015e5f6040828501015260407fffffffffffffffffffffffffffffffffffffffffffffffffffffffffffffffe0601f83011684010191505092915050565b602081528160208201525f7f07ffffffffffffffffffffffffffffffffffffffffffffffffffffffffffffff831115613838575f5ffd5b8260051b80856040850137919091016040019392505050565b7f4e487b71000000000000000000000000000000000000000000000000000000005f52601160045260245ffd5b5f7fffffffffffffffffffffffffffffffffffffffffffffffffffffffffffffffff82036138ae576138ae613851565b5060010190565b81810381811115611f6d57611f6d613851565b5f82518060208501845e5f920191825250919050565b5f602082840312156138ee575f5ffd5b81357fffffffff00000000000000000000000000000000000000000000000000000000811681146136f7575f5ffd5b5f5f83357fffffffffffffffffffffffffffffffffffffffffffffffffffffffffffffffe1843603018112613950575f5ffd5b83018035915067ffffffffffffffff82111561396a575f5ffd5b6020019150600581901b36038213156133d5575f5ffd5b600181811c9082168061399557607f821691505b6020821081036139cc577f4e487b71000000000000000000000000000000000000000000000000000000005f52602260045260245ffd5b5091905056fe506f6c6963792049442063616e6e6f7420626520302e2043726561746520706f6c696379206265666f7265207570646174696e67547261636b6572207265666572656e63656420696e2072756c65206e6f7420736574466f726569676e2043616c6c207265666572656e63656420696e2072756c65206e6f74207365745369676e61747572657320616e64207369676e617475726520696427732061726520696e636f6e73697374656e744f6e6c7920766572696669656420706f6c69637920737562736372696265722063616e206170706c7920636c6f73656420706f6c6963696573a2646970667358221220b515f9637112b4f48ca9082fb27bf235465ad68cc957cf77a5412154b41a3d4164736f6c634300081c0033","linkReferences":{}},"methodIdentifiers":{"applyPolicy(address,uint256[])":"9228303f","cementPolicy(uint256)":"d46a37c4","closePolicy(uint256)":"2b0e4440","createPolicy((bool,bytes4,uint8[])[],(uint256[],(uint256[],uint8[],bytes[]),(uint8,uint128,bool,bool)[],(uint8,uint128,bool,bool)[],(bool,bool,uint8,uint8,bytes,bytes32,string,uint256[])[],(bool,bool,uint8,uint8,bytes,bytes32,string,uint256[])[])[],uint8)":"1ff76a7b","deletePolicy(uint256)":"fed27c8f","getAppliedPolicyIds(address)":"e3749023","getPolicy(uint256)":"2b07fce3","isCementedPolicy(uint256)":"f7b570f6","isClosedPolicy(uint256)":"4f10689b","openPolicy(uint256)":"798d6c7b","unapplyPolicy(address,uint256[])":"5239f98c","updatePolicy(uint256,bytes4[],uint256[],uint256[][],uint8)":"2fd205bd"},"id":63}