{"abi":[{"type":"function","name":"applyPolicy","inputs":[{"name":"contractAddress","type":"address","internalType":"address"},{"name":"policyIds","type":"uint256[]","internalType":"uint256[]"}],"outputs":[],"stateMutability":"nonpayable"},{"type":"function","name":"cementPolicy","inputs":[{"name":"policyId","type":"uint256","internalType":"uint256"}],"outputs":[],"stateMutability":"nonpayable"},{"type":"function","name":"closePolicy","inputs":[{"name":"policyId","type":"uint256","internalType":"uint256"}],"outputs":[],"stateMutability":"nonpayable"},{"type":"function","name":"createPolicy","inputs":[{"name":"policyType","type":"uint8","internalType":"enum PolicyType"}],"outputs":[{"name":"","type":"uint256","internalType":"uint256"}],"stateMutability":"nonpayable"},{"type":"function","name":"deletePolicy","inputs":[{"name":"policyId","type":"uint256","internalType":"uint256"}],"outputs":[],"stateMutability":"nonpayable"},{"type":"function","name":"getAppliedPolicyIds","inputs":[{"name":"contractAddress","type":"address","internalType":"address"}],"outputs":[{"name":"","type":"uint256[]","internalType":"uint256[]"}],"stateMutability":"view"},{"type":"function","name":"getPolicy","inputs":[{"name":"policyId","type":"uint256","internalType":"uint256"}],"outputs":[{"name":"callingFunctions","type":"bytes4[]","internalType":"bytes4[]"},{"name":"callingFunctionIds","type":"uint256[]","internalType":"uint256[]"},{"name":"ruleIds","type":"uint256[][]","internalType":"uint256[][]"}],"stateMutability":"view"},{"type":"function","name":"isCementedPolicy","inputs":[{"name":"_policyId","type":"uint256","internalType":"uint256"}],"outputs":[{"name":"","type":"bool","internalType":"bool"}],"stateMutability":"view"},{"type":"function","name":"isClosedPolicy","inputs":[{"name":"policyId","type":"uint256","internalType":"uint256"}],"outputs":[{"name":"","type":"bool","internalType":"bool"}],"stateMutability":"view"},{"type":"function","name":"openPolicy","inputs":[{"name":"policyId","type":"uint256","internalType":"uint256"}],"outputs":[],"stateMutability":"nonpayable"},{"type":"function","name":"unapplyPolicy","inputs":[{"name":"_contractAddress","type":"address","internalType":"address"},{"name":"_policyIds","type":"uint256[]","internalType":"uint256[]"}],"outputs":[],"stateMutability":"nonpayable"},{"type":"function","name":"updatePolicy","inputs":[{"name":"policyId","type":"uint256","internalType":"uint256"},{"name":"callingFunctions","type":"bytes4[]","internalType":"bytes4[]"},{"name":"callingFunctionIds","type":"uint256[]","internalType":"uint256[]"},{"name":"ruleIds","type":"uint256[][]","internalType":"uint256[][]"},{"name":"policyType","type":"uint8","internalType":"enum PolicyType"}],"outputs":[{"name":"","type":"uint256","internalType":"uint256"}],"stateMutability":"nonpayable"},{"type":"event","name":"ForeignCallDeleted","inputs":[{"name":"policyId","type":"uint256","indexed":true,"internalType":"uint256"},{"name":"foreignCallId","type":"uint256","indexed":true,"internalType":"uint256"}],"anonymous":false},{"type":"event","name":"PolicyApplied","inputs":[{"name":"policyIds","type":"uint256[]","indexed":false,"internalType":"uint256[]"},{"name":"callingContract","type":"address","indexed":true,"internalType":"address"}],"anonymous":false},{"type":"event","name":"PolicyCemented","inputs":[{"name":"policyId","type":"uint256","indexed":true,"internalType":"uint256"}],"anonymous":false},{"type":"event","name":"PolicyClosed","inputs":[{"name":"policyId","type":"uint256","indexed":true,"internalType":"uint256"}],"anonymous":false},{"type":"event","name":"PolicyCreated","inputs":[{"name":"policyId","type":"uint256","indexed":true,"internalType":"uint256"}],"anonymous":false},{"type":"event","name":"PolicyDeleted","inputs":[{"name":"policyId","type":"uint256","indexed":true,"internalType":"uint256"}],"anonymous":false},{"type":"event","name":"PolicyOpened","inputs":[{"name":"policyId","type":"uint256","indexed":true,"internalType":"uint256"}],"anonymous":false},{"type":"event","name":"PolicyUnapplied","inputs":[{"name":"policyIds","type":"uint256[]","indexed":false,"internalType":"uint256[]"},{"name":"callingContract","type":"address","indexed":true,"internalType":"address"}],"anonymous":false},{"type":"event","name":"PolicyUpdated","inputs":[{"name":"policyId","type":"uint256","indexed":true,"internalType":"uint256"}],"anonymous":false},{"type":"event","name":"TrackerDeleted","inputs":[{"name":"policyId","type":"uint256","indexed":true,"internalType":"uint256"},{"name":"trackerId","type":"uint256","indexed":true,"internalType":"uint256"}],"anonymous":false}],"bytecode":{"object":"0x6080604052348015600e575f5ffd5b50613bfc8061001c5f395ff3fe608060405234801561000f575f5ffd5b50600436106100cf575f3560e01c80639228303f1161007d578063e374902311610058578063e3749023146101b6578063f7b570f6146101d6578063fed27c8f146101e9575f5ffd5b80639228303f1461017d5780639ae6d2f114610190578063d46a37c4146101a3575f5ffd5b80634f10689b116100ad5780634f10689b146101345780635239f98c14610157578063798d6c7b1461016a575f5ffd5b80632b07fce3146100d35780632b0e4440146100fe5780632fd205bd14610113575b5f5ffd5b6100e66100e136600461350b565b6101fc565b6040516100f59392919061355c565b60405180910390f35b61011161010c36600461350b565b6106bc565b005b6101266101213660046136ab565b61084c565b6040519081526020016100f5565b61014761014236600461350b565b610a12565b60405190151581526020016100f5565b610111610165366004613786565b610a4a565b61011161017836600461350b565b610fcb565b61011161018b366004613786565b6110e0565b61012661019e3660046137d5565b6115a0565b6101116101b136600461350b565b6116c3565b6101c96101c43660046137f5565b611814565b6040516100f5919061380e565b6101476101e436600461350b565b611893565b6101116101f736600461350b565b6118ba565b60608060605f61020a611f40565b5f8681526001918201602052604090206003810154910191501561031057600281015467ffffffffffffffff81111561024557610245613820565b60405190808252806020026020018201604052801561026e578160200160208202803683370190505b50600282015490945067ffffffffffffffff81111561028f5761028f613820565b6040519080825280602002602001820160405280156102b8578160200160208202803683370190505b50600282015490935067ffffffffffffffff8111156102d9576102d9613820565b60405190808252806020026020018201604052801561030c57816020015b60608152602001906001900390816102f75790505b5091505b600281015467ffffffffffffffff81111561032d5761032d613820565b60405190808252806020026020018201604052801561036057816020015b606081526020019060019003908161034b5790505b5091505f5b60028201548110156106b3578160020181815481106103865761038661384d565b905f5260205f2090600891828204019190066004029054906101000a900460e01b8582815181106103b9576103b961384d565b7fffffffff000000000000000000000000000000000000000000000000000000009092166020928302919091019091015260028201805483915f91849081106104045761040461384d565b905f5260205f2090600891828204019190066004029054906101000a900460e01b7bffffffffffffffffffffffffffffffffffffffffffffffffffffffff19167bffffffffffffffffffffffffffffffffffffffffffffffffffffffff191681526020019081526020015f20548482815181106104835761048361384d565b60209081029190910101525f5b826001015f8460020184815481106104aa576104aa61384d565b5f918252602080832060088304015460079092166004026101000a90910460e01b7fffffffff000000000000000000000000000000000000000000000000000000001683528201929092526040019020548110156106aa57826001015f84600201848154811061051c5761051c61384d565b5f918252602080832060088304015460079092166004026101000a90910460e01b7fffffffff0000000000000000000000000000000000000000000000000000000016835282019290925260400190205467ffffffffffffffff81111561058557610585613820565b6040519080825280602002602001820160405280156105ae578160200160208202803683370190505b508483815181106105c1576105c161384d565b6020026020010181905250826001015f8460020184815481106105e6576105e661384d565b905f5260205f2090600891828204019190066004029054906101000a900460e01b7bffffffffffffffffffffffffffffffffffffffffffffffffffffffff19167bffffffffffffffffffffffffffffffffffffffffffffffffffffffff191681526020019081526020015f2081815481106106635761066361384d565b905f5260205f20015484838151811061067e5761067e61384d565b602002602001015182815181106106975761069761384d565b6020908102919091010152600101610490565b50600101610365565b50509193909250565b60405160248101829052336044820181905282915f908190610779907f901cee1100000000000000000000000000000000000000000000000000000000906064015b604080517fffffffffffffffffffffffffffffffffffffffffffffffffffffffffffffffe08184030181529190526020810180517bffffffffffffffffffffffffffffffffffffffffffffffffffffffff167f901cee1100000000000000000000000000000000000000000000000000000000179052611f73565b915091505f82156108075760048251106107985750602081015161079b565b505f5b80610807576040517f08c379a000000000000000000000000000000000000000000000000000000000815260206004820152601860248201527f4e6f7420417574686f72697a656420546f20506f6c696379000000000000000060448201526064015b60405180910390fd5b61081086612034565b61081a865f6120c3565b60405186907f524fcc256039a8ee7fd3d614ec713bd4a9159d02d7261ae80028fc15b45c4848905f90a2505050505050565b5f88335f5f61088e63901cee1160e01b85856040516024016106fe92919091825273ffffffffffffffffffffffffffffffffffffffff16602082015260400190565b915091505f82156109175760048251106108ad575060208101516108b0565b505f5b80610917576040517f08c379a000000000000000000000000000000000000000000000000000000000815260206004820152601860248201527f4e6f7420417574686f72697a656420546f20506f6c696379000000000000000060448201526064016107fe565b6109208e612034565b8b8a14610973576040518060600160405280602e8152602001613b60602e91396040517f08c379a00000000000000000000000000000000000000000000000000000000081526004016107fe919061387a565b8d5f036109c657604051806060016040528060348152602001613ae3603491396040517f08c379a00000000000000000000000000000000000000000000000000000000081526004016107fe919061387a565b6040518e907f912ce63c438aca9d2f50d1d12de5b42efbcc84ce223b08122e8c2e3c000ca1f8905f90a2610a008e8e8e8e8e8e8e8e6121e5565b9e9d5050505050505050505050505050565b5f80610a1c611f40565b5f8481526001918201602052604090206004015460ff1690811115610a4357610a436138cd565b1492915050565b60405173ffffffffffffffffffffffffffffffffffffffff84166024820152336044820181905284915f908190610b1c907f70aca09200000000000000000000000000000000000000000000000000000000906064015b604080517fffffffffffffffffffffffffffffffffffffffffffffffffffffffffffffffe08184030181529190526020810180517bffffffffffffffffffffffffffffffffffffffffffffffffffffffff167f70aca09200000000000000000000000000000000000000000000000000000000179052611f73565b915091505f8215610ba5576004825110610b3b57506020810151610b3e565b505f5b80610ba5576040517f08c379a000000000000000000000000000000000000000000000000000000000815260206004820152601460248201527f4e6f7420417574686f72697a65642041646d696e00000000000000000000000060448201526064016107fe565b73ffffffffffffffffffffffffffffffffffffffff8816610c2557604080518082018252601c81527f5a65726f20416464726573732043616e6e6f742042652041646d696e00000000602082015290517f08c379a00000000000000000000000000000000000000000000000000000000081526107fe919060040161387a565b5f610c2e613277565b73ffffffffffffffffffffffffffffffffffffffff8a165f9081526020828152604080832080548251818502810185019093528083529495509293909291830182828015610c9957602002820191905f5260205f20905b815481526020019060010190808311610c85575b5050505073ffffffffffffffffffffffffffffffffffffffff8c165f908152602085905260408120929350610ccf9291506133c1565b5f805b8251811015610d92575f9150815b8a811015610d2d578b8b82818110610cfa57610cfa61384d565b90506020020135848381518110610d1357610d1361384d565b602002602001015103610d2557600192505b600101610ce0565b5081610d8a5773ffffffffffffffffffffffffffffffffffffffff8c165f9081526020859052604090208351849083908110610d6b57610d6b61384d565b60209081029190910181015182546001810184555f9384529190922001555b600101610cd2565b505f836001015f8c8c5f818110610dab57610dab61384d565b9050602002013581526020019081526020015f20805480602002602001604051908101604052809291908181526020018280548015610e1e57602002820191905f5260205f20905b815473ffffffffffffffffffffffffffffffffffffffff168152600190910190602001808311610df3575b509394505f93505050505b8a811015610f6c57846001015f8d8d84818110610e4857610e4861384d565b9050602002013581526020019081526020015f205f610e6791906133c1565b5f5b8251811015610f63578d73ffffffffffffffffffffffffffffffffffffffff16838281518110610e9b57610e9b61384d565b602002602001015173ffffffffffffffffffffffffffffffffffffffff1614610f5b57856001015f8e8e85818110610ed557610ed561384d565b9050602002013581526020019081526020015f20838281518110610efb57610efb61384d565b60209081029190910181015182546001810184555f938452919092200180547fffffffffffffffffffffffff00000000000000000000000000000000000000001673ffffffffffffffffffffffffffffffffffffffff9092169190911790555b600101610e69565b50600101610e29565b508b73ffffffffffffffffffffffffffffffffffffffff167fcca48239a70eb9b3cebd3ea981ec0ca547a1eac614fb9ef7c80422484582c10b8c8c604051610fb59291906138fa565b60405180910390a2505050505050505050505050565b60405160248101829052336044820181905282915f908190611011907f901cee1100000000000000000000000000000000000000000000000000000000906064016106fe565b915091505f821561109a57600482511061103057506020810151611033565b505f5b8061109a576040517f08c379a000000000000000000000000000000000000000000000000000000000815260206004820152601860248201527f4e6f7420417574686f72697a656420546f20506f6c696379000000000000000060448201526064016107fe565b6110a386612034565b6110ae8660016120c3565b60405186907fe9a53e8109d105e8132e423c8a8489a6c054acbfff3373248be4938a857143d9905f90a2505050505050565b60405173ffffffffffffffffffffffffffffffffffffffff84166024820152336044820181905284915f90819061113b907f70aca0920000000000000000000000000000000000000000000000000000000090606401610aa1565b915091505f82156111c457600482511061115a5750602081015161115d565b505f5b806111c4576040517f08c379a000000000000000000000000000000000000000000000000000000000815260206004820152601460248201527f4e6f7420417574686f72697a65642041646d696e00000000000000000000000060448201526064016107fe565b73ffffffffffffffffffffffffffffffffffffffff881661124457604080518082018252601c81527f5a65726f20416464726573732043616e6e6f742042652041646d696e00000000602082015290517f08c379a00000000000000000000000000000000000000000000000000000000081526107fe919060040161387a565b5f61124d613277565b90505f5b878110156113c1575f611262611f40565b6001015f8b8b858181106112785761127861384d565b9050602002013581526020019081526020015f209050805f015f9054906101000a900460ff166040518060400160405280601581526020017f506f6c69637920646f6573206e6f7420657869737400000000000000000000008152509061130c576040517f08c379a00000000000000000000000000000000000000000000000000000000081526004016107fe919061387a565b5061132e8a8a848181106113225761132261384d565b90506020020135612034565b5f600482015460ff166001811115611348576113486138cd565b036113b857335f90815260058201602090815260409182902054825160608101909352603980845260ff9091169291613b8e90830139906113b6576040517f08c379a00000000000000000000000000000000000000000000000000000000081526004016107fe919061387a565b505b50600101611251565b508667ffffffffffffffff8111156113db576113db613820565b604051908082528060200260200182016040528015611404578160200160208202803683370190505b5073ffffffffffffffffffffffffffffffffffffffff8a165f90815260208381526040909120825161143c93919291909101906133dc565b505f5b87811015611544578888828181106114595761145961384d565b90506020020135825f015f8c73ffffffffffffffffffffffffffffffffffffffff1673ffffffffffffffffffffffffffffffffffffffff1681526020019081526020015f2082815481106114af576114af61384d565b905f5260205f200181905550816001015f8a8a848181106114d2576114d261384d565b60209081029290920135835250818101929092526040015f9081208054600180820183559183529290912090910180547fffffffffffffffffffffffff00000000000000000000000000000000000000001673ffffffffffffffffffffffffffffffffffffffff8d161790550161143f565b508873ffffffffffffffffffffffffffffffffffffffff167f12152a04e6faa55f635c036c0cb901dff565d19cd5703f5076adda8206cdb7c6898960405161158d9291906138fa565b60405180910390a2505050505050505050565b5f5f6115aa611f40565b805460019081018083555f8181528284016020526040902080547fffffffffffffffffffffffffffffffffffffffffffffffffffffffffffffff00908116841782556004909101805494955091938793911690838181111561160e5761160e6138cd565b02179055506040517f1929cb64000000000000000000000000000000000000000000000000000000008152600481018290523360248201523090631929cb64906044016020604051808303815f875af115801561166d573d5f5f3e3d5ffd5b505050506040513d601f19601f82011682018060405250810190611691919061394a565b5060405181907fde5ef345cecbaaffdfbe2454b7947aa14037bac2f45e4fc98976f8bffea38623905f90a29392505050565b60405160248101829052336044820181905282915f908190611709907f901cee1100000000000000000000000000000000000000000000000000000000906064016106fe565b915091505f82156117925760048251106117285750602081015161172b565b505f5b80611792576040517f08c379a000000000000000000000000000000000000000000000000000000000815260206004820152601860248201527f4e6f7420417574686f72697a656420546f20506f6c696379000000000000000060448201526064016107fe565b600161179c611f40565b5f88815260019190910160205260408082206004018054931515610100027fffffffffffffffffffffffffffffffffffffffffffffffffffffffffffff00ff90941693909317909255905187917fbaf00585ebbdf781652a166975bf4579319799593ec61cfadd690ea9833c3fc891a2505050505050565b606061181e613277565b73ffffffffffffffffffffffffffffffffffffffff83165f90815260209182526040908190208054825181850281018501909352808352919290919083018282801561188757602002820191905f5260205f20905b815481526020019060010190808311611873575b50505050509050919050565b5f61189c611f40565b5f928352600101602052506040902060040154610100900460ff1690565b60405160248101829052336044820181905282915f908190611900907f901cee1100000000000000000000000000000000000000000000000000000000906064016106fe565b915091505f821561198957600482511061191f57506020810151611922565b505f5b80611989576040517f08c379a000000000000000000000000000000000000000000000000000000000815260206004820152601860248201527f4e6f7420417574686f72697a656420546f20506f6c696379000000000000000060448201526064016107fe565b61199286612034565b5f61199b611f40565b5f88815260019182016020908152604080832080547fffffffffffffffffffffffffffffffffffffffffffffffffffffffffffffff00168155600381018054835181860281018601909452808452919650948601949192830182828015611a6057602002820191905f5260205f20905f905b82829054906101000a900460e01b7bffffffffffffffffffffffffffffffffffffffffffffffffffffffff191681526020019060040190602082600301049283019260010382029150808411611a0d5790505b509394505f93505050505b8151811015611c0a575f836001015f848481518110611a8c57611a8c61384d565b60200260200101517bffffffffffffffffffffffffffffffffffffffffffffffffffffffff19167bffffffffffffffffffffffffffffffffffffffffffffffffffffffff191681526020019081526020015f20805480602002602001604051908101604052809291908181526020018280548015611b2757602002820191905f5260205f20905b815481526020019060010190808311611b13575b509394505f93505050505b8151811015611c0057611bf663a31c8ebb60e01b8d848481518110611b5957611b5961384d565b6020026020010151604051602401611b7b929190918252602082015260400190565b604080517fffffffffffffffffffffffffffffffffffffffffffffffffffffffffffffffe08184030181529190526020810180517bffffffffffffffffffffffffffffffffffffffffffffffffffffffff167fa31c8ebb00000000000000000000000000000000000000000000000000000000179052611f73565b5050600101611b32565b5050600101611a6b565b505f611c146132a4565b5f8b8152602091909152604081205491505b818111611d0457611c356132a4565b5f8c81526001919091016020908152604080832084845290915290205460ff1615611cf257611c626132a4565b5f8c8152600191820160209081526040808320858452909152812080547fffffffffffff0000000000000000000000000000000000000000000000000000168155918201819055611cb66002830182613425565b611cc3600383015f613447565b505060405181908c907f19d0bd0cc4d63f9108c93b0abfd7408498ecbc73713f6bb3a2862d9b9d1983d8905f90a35b80611cfc8161398e565b915050611c26565b505f611d0e6132d1565b5f8c81526020829052604090205490915060015b818111611deb575f8d8152600184016020908152604080832084845290915290205460ff1615611dd957611d546132d1565b5f8e8152600191820160209081526040808320858452909152812080547fffffffffffffffffffffffffffffffffffffffffffffffffffffffff0000000016815591611da290830182613465565b600282015f90555050808d7ed9d817df2d853a886f2cbe7a671a676890264711abbb9d2c3ee79fb1bb653a60405160405180910390a35b80611de38161398e565b915050611d22565b505f5b6003870154811015611f075760038701805460018901915f9184908110611e1757611e1761384d565b905f5260205f2090600891828204019190066004029054906101000a900460e01b7bffffffffffffffffffffffffffffffffffffffffffffffffffffffff19167bffffffffffffffffffffffffffffffffffffffffffffffffffffffff191681526020019081526020015f205f9055866001016001015f886001016002018381548110611ea657611ea661384d565b5f918252602080832060088304015460079092166004026101000a90910460e01b7fffffffff000000000000000000000000000000000000000000000000000000001683528201929092526040018120611eff916133c1565b600101611dee565b506040518c907f433ab09ab993382af577c4a70f77dcc7cf149b5b52eb40d19b869664bfb5496d905f90a2505050505050505050505050565b5f80611f6d60017ff9dbd639dd2ea165d77dd4c51dec420100d51ceacf023b1c40faa045ba8f9a656139c5565b92915050565b5f60605f611f7f6132fe565b7fffffffff0000000000000000000000000000000000000000000000000000000086165f908152602082905260409081902054905191925073ffffffffffffffffffffffffffffffffffffffff16908190611fdb9087906139d8565b5f60405180830381855af49150503d805f8114612013576040519150601f19603f3d011682016040523d82523d5f602084013e612018565b606091505b5090945092508361202b57825160208401fd5b50509250929050565b61203c611f40565b5f8281526001919091016020526040902060040154610100900460ff16156120c0576040517f08c379a000000000000000000000000000000000000000000000000000000000815260206004820152601f60248201527f4e6f7420616c6c6f77656420666f722063656d656e74656420706f6c6963790060448201526064016107fe565b50565b5f6120cc611f40565b5f84815260019182016020526040812090910191508260018111156120f3576120f36138cd565b0361219d575f612101613277565b90505f5b5f858152600183016020526040902054811015612182575f8581526001830160205260408120805484929190849081106121415761214161384d565b5f91825260208083209091015473ffffffffffffffffffffffffffffffffffffffff168352820192909252604001812061217a916133c1565b600101612105565b505f848152600182016020526040812061219b916133c1565b505b6003810180548391907fffffffffffffffffffffffffffffffffffffffffffffffffffffffffffffff0016600183818111156121db576121db6138cd565b0217905550505050565b5f5f6121ef611f40565b5f8b815260019182016020526040902001905061220c8a846120c3565b612219600282015f61349c565b83156130f8575f5b888110156130f25761224b8b89898481811061223f5761223f61384d565b9050602002013561332b565b6122b457604080518082018252601181527f496e76616c6964205369676e6174757265000000000000000000000000000000602082015290517f08c379a00000000000000000000000000000000000000000000000000000000081526107fe919060040161387a565b8787828181106122c6576122c661384d565b90506020020135825f015f8c8c858181106122e3576122e361384d565b90506020020160208101906122f891906139ee565b7fffffffff0000000000000000000000000000000000000000000000000000000016815260208101919091526040015f2055600282018a8a838181106123405761234061384d565b905060200201602081019061235591906139ee565b81546001810183555f928352602083206008820401805463ffffffff60079093166004026101000a928302191660e09390931c919091029190911790555b8686838181106123a5576123a561384d565b90506020028101906123b79190613a2d565b90508110156130e9575f6123c9613355565b5f8e815260019190910160205260408120908989868181106123ed576123ed61384d565b90506020028101906123ff9190613a2d565b8581811061240f5761240f61384d565b602090810292909201358352508181019290925260409081015f2081518083018352815460ff1615158152825160018301805460e08188028401810190965260c08301818152939694959487019492939192849291849184018282801561249357602002820191905f5260205f20905b81548152602001906001019080831161247f575b50505050508152602001600182016040518060600160405290815f82018054806020026020016040519081016040528092919081815260200182805480156124f857602002820191905f5260205f20905b8154815260200190600101908083116124e4575b505050505081526020016001820180548060200260200160405190810160405280929190818152602001828054801561257d57602002820191905f5260205f20905f905b82829054906101000a900460ff16600781111561255b5761255b6138cd565b81526020600192830181810494850194909303909202910180841161253c5790505b5050505050815260200160028201805480602002602001604051908101604052809291908181526020015f905b82821015612652578382905f5260205f200180546125c790613a91565b80601f01602080910402602001604051908101604052809291908181526020018280546125f390613a91565b801561263e5780601f106126155761010080835404028352916020019161263e565b820191905f5260205f20905b81548152906001019060200180831161262157829003601f168201915b5050505050815260200190600101906125aa565b5050505081525050815260200160048201805480602002602001604051908101604052809291908181526020015f905b828210156127d0575f848152602090206040805160a08101909152600284029091018054829060ff1660078111156126bc576126bc6138cd565b60078111156126cd576126cd6138cd565b815281546fffffffffffffffffffffffffffffffff610100820416602083015260ff7101000000000000000000000000000000000082048116151560408401527201000000000000000000000000000000000000909104161515606082015260018201805460809092019161274190613a91565b80601f016020809104026020016040519081016040528092919081815260200182805461276d90613a91565b80156127b85780601f1061278f576101008083540402835291602001916127b8565b820191905f5260205f20905b81548152906001019060200180831161279b57829003601f168201915b50505050508152505081526020019060010190612682565b50505050815260200160058201805480602002602001604051908101604052809291908181526020015f905b8282101561294a575f848152602090206040805160a08101909152600284029091018054829060ff166007811115612836576128366138cd565b6007811115612847576128476138cd565b815281546fffffffffffffffffffffffffffffffff610100820416602083015260ff710100000000000000000000000000000000008204811615156040840152720100000000000000000000000000000000000090910416151560608201526001820180546080909201916128bb90613a91565b80601f01602080910402602001604051908101604052809291908181526020018280546128e790613a91565b80156129325780601f1061290957610100808354040283529160200191612932565b820191905f5260205f20905b81548152906001019060200180831161291557829003601f168201915b505050505081525050815260200190600101906127fc565b50505050815260200160068201805480602002602001604051908101604052809291908181526020015f905b82821015612baf575f84815260209081902060408051610100808201835260058702909301805460ff8082161515845294810485161515958301959095529093909291840191620100009091041660028111156129d5576129d56138cd565b60028111156129e6576129e66138cd565b815281546020909101906301000000900460ff166007811115612a0b57612a0b6138cd565b6007811115612a1c57612a1c6138cd565b8152602001600182018054612a3090613a91565b80601f0160208091040260200160405190810160405280929190818152602001828054612a5c90613a91565b8015612aa75780601f10612a7e57610100808354040283529160200191612aa7565b820191905f5260205f20905b815481529060010190602001808311612a8a57829003601f168201915b5050505050815260200160028201548152602001600382018054612aca90613a91565b80601f0160208091040260200160405190810160405280929190818152602001828054612af690613a91565b8015612b415780601f10612b1857610100808354040283529160200191612b41565b820191905f5260205f20905b815481529060010190602001808311612b2457829003601f168201915b5050505050815260200160048201805480602002602001604051908101604052809291908181526020018280548015612b9757602002820191905f5260205f20905b815481526020019060010190808311612b83575b50505050508152505081526020019060010190612976565b50505050815260200160078201805480602002602001604051908101604052809291908181526020015f905b82821015612e14575f84815260209081902060408051610100808201835260058702909301805460ff808216151584529481048516151595830195909552909390929184019162010000909104166002811115612c3a57612c3a6138cd565b6002811115612c4b57612c4b6138cd565b815281546020909101906301000000900460ff166007811115612c7057612c706138cd565b6007811115612c8157612c816138cd565b8152602001600182018054612c9590613a91565b80601f0160208091040260200160405190810160405280929190818152602001828054612cc190613a91565b8015612d0c5780601f10612ce357610100808354040283529160200191612d0c565b820191905f5260205f20905b815481529060010190602001808311612cef57829003601f168201915b5050505050815260200160028201548152602001600382018054612d2f90613a91565b80601f0160208091040260200160405190810160405280929190818152602001828054612d5b90613a91565b8015612da65780601f10612d7d57610100808354040283529160200191612da6565b820191905f5260205f20905b815481529060010190602001808311612d8957829003601f168201915b5050505050815260200160048201805480602002602001604051908101604052809291908181526020018280548015612dfc57602002820191905f5260205f20905b815481526020019060010190808311612de8575b50505050508152505081526020019060010190612bdb565b505050915250509052508051909150612e8c57604080518082018252600c81527f496e76616c69642052756c650000000000000000000000000000000000000000602082015290517f08c379a00000000000000000000000000000000000000000000000000000000081526107fe919060040161387a565b5f5b81602001516040015151811015613029578160200151604001518181518110612eb957612eb961384d565b60200260200101516060015115612f6257612f0b8e8360200151604001518381518110612ee857612ee861384d565b6020026020010151602001516fffffffffffffffffffffffffffffffff16613382565b604051806060016040528060278152602001613b396027913990612f5c576040517f08c379a00000000000000000000000000000000000000000000000000000000081526004016107fe919061387a565b50613021565b8160200151604001518181518110612f7c57612f7c61384d565b6020026020010151604001511561302157612fce8e8360200151604001518381518110612fab57612fab61384d565b6020026020010151602001516fffffffffffffffffffffffffffffffff1661338b565b604051806060016040528060228152602001613b17602291399061301f576040517f08c379a00000000000000000000000000000000000000000000000000000000081526004016107fe919061387a565b505b600101612e8e565b50836001015f8d8d868181106130415761304161384d565b905060200201602081019061305691906139ee565b7fffffffff0000000000000000000000000000000000000000000000000000000016815260208101919091526040015f208888858181106130995761309961384d565b90506020028101906130ab9190613a2d565b848181106130bb576130bb61384d565b8354600180820186555f95865260209586902092909502939093013592019190915550919091019050612393565b50600101612221565b50613269565b5f5b88811015613267576131188b89898481811061223f5761223f61384d565b61318157604080518082018252601181527f496e76616c6964205369676e6174757265000000000000000000000000000000602082015290517f08c379a00000000000000000000000000000000000000000000000000000000081526107fe919060040161387a565b8787828181106131935761319361384d565b90506020020135825f015f8c8c858181106131b0576131b061384d565b90506020020160208101906131c591906139ee565b7fffffffff0000000000000000000000000000000000000000000000000000000016815260208101919091526040015f2055600282018a8a8381811061320d5761320d61384d565b905060200201602081019061322291906139ee565b8154600180820184555f93845260209093206008820401805463ffffffff60079093166004026101000a928302191660e09390931c91909102919091179055016130fa565b505b509798975050505050505050565b5f80611f6d60017f1544053a94493269e0aa160e5aa5b54d19ee6492c78b8bd3af283b912c78cdeb6139c5565b5f80611f6d60017f1f3305601ed940efccf797d76856e5fe70659a8a6905d64c9f236321df91e7186139c5565b5f80611f6d60017f438102ff677bc3f21830c58117a05d6b953b31e3ea339da3f17957cd3941a6906139c5565b5f80611f6d60017fbe498a3b14fd79a48c3c9af86ff14271ed497d09071013334028d28e7791db206139c5565b5f613334613394565b5f938452600101602090815260408085209385529290525090205460ff1690565b5f80611f6d60017f5c91f63a4ffcbd372b8ec622fd1fcaaa601b66330afdb30e5c292dd9123f20b06139c5565b5f6133346132a4565b5f6133346132d1565b5f80611f6d60017fdc82e9666de28bef254c770aa394fdb200d98373b70390c27adec32819f8f2666139c5565b5080545f8255905f5260205f20908101906120c091906134ba565b828054828255905f5260205f20908101928215613415579160200282015b828111156134155782518255916020019190600101906133fa565b506134219291506134ba565b5090565b5080545f8255601f0160209004905f5260205f20908101906120c091906134ba565b5080545f8255600202905f5260205f20908101906120c091906134ce565b50805461347190613a91565b5f825580601f10613480575050565b601f0160209004905f5260205f20908101906120c091906134ba565b5080545f825560070160089004905f5260205f20908101906120c091905b5b80821115613421575f81556001016134bb565b5b808211156134215780547fffffffffffffffffffffffffffffffffffffffffffffffffffffffffffffff001681555f60018201556002016134cf565b5f6020828403121561351b575f5ffd5b5035919050565b5f8151808452602084019350602083015f5b82811015613552578151865260209586019590910190600101613534565b5093949350505050565b606080825284519082018190525f9060208601906080840190835b818110156135b75783517fffffffff0000000000000000000000000000000000000000000000000000000016835260209384019390920191600101613577565b505083810360208501526135cb8187613522565b915050828103604084015280845180835260208301915060208160051b840101602087015f5b83811015613641577fffffffffffffffffffffffffffffffffffffffffffffffffffffffffffffffe086840301855261362b838351613522565b60209586019590935091909101906001016135f1565b50909998505050505050505050565b5f5f83601f840112613660575f5ffd5b50813567ffffffffffffffff811115613677575f5ffd5b6020830191508360208260051b8501011115613691575f5ffd5b9250929050565b8035600281106136a6575f5ffd5b919050565b5f5f5f5f5f5f5f5f60a0898b0312156136c2575f5ffd5b88359750602089013567ffffffffffffffff8111156136df575f5ffd5b6136eb8b828c01613650565b909850965050604089013567ffffffffffffffff81111561370a575f5ffd5b6137168b828c01613650565b909650945050606089013567ffffffffffffffff811115613735575f5ffd5b6137418b828c01613650565b9094509250613754905060808a01613698565b90509295985092959890939650565b803573ffffffffffffffffffffffffffffffffffffffff811681146136a6575f5ffd5b5f5f5f60408486031215613798575f5ffd5b6137a184613763565b9250602084013567ffffffffffffffff8111156137bc575f5ffd5b6137c886828701613650565b9497909650939450505050565b5f602082840312156137e5575f5ffd5b6137ee82613698565b9392505050565b5f60208284031215613805575f5ffd5b6137ee82613763565b602081525f6137ee6020830184613522565b7f4e487b71000000000000000000000000000000000000000000000000000000005f52604160045260245ffd5b7f4e487b71000000000000000000000000000000000000000000000000000000005f52603260045260245ffd5b602081525f82518060208401528060208501604085015e5f6040828501015260407fffffffffffffffffffffffffffffffffffffffffffffffffffffffffffffffe0601f83011684010191505092915050565b7f4e487b71000000000000000000000000000000000000000000000000000000005f52602160045260245ffd5b602081528160208201525f7f07ffffffffffffffffffffffffffffffffffffffffffffffffffffffffffffff831115613931575f5ffd5b8260051b80856040850137919091016040019392505050565b5f6020828403121561395a575f5ffd5b5051919050565b7f4e487b71000000000000000000000000000000000000000000000000000000005f52601160045260245ffd5b5f7fffffffffffffffffffffffffffffffffffffffffffffffffffffffffffffffff82036139be576139be613961565b5060010190565b81810381811115611f6d57611f6d613961565b5f82518060208501845e5f920191825250919050565b5f602082840312156139fe575f5ffd5b81357fffffffff00000000000000000000000000000000000000000000000000000000811681146137ee575f5ffd5b5f5f83357fffffffffffffffffffffffffffffffffffffffffffffffffffffffffffffffe1843603018112613a60575f5ffd5b83018035915067ffffffffffffffff821115613a7a575f5ffd5b6020019150600581901b3603821315613691575f5ffd5b600181811c90821680613aa557607f821691505b602082108103613adc577f4e487b71000000000000000000000000000000000000000000000000000000005f52602260045260245ffd5b5091905056fe506f6c6963792049442063616e6e6f7420626520302e2043726561746520706f6c696379206265666f7265207570646174696e67547261636b6572207265666572656e63656420696e2072756c65206e6f7420736574466f726569676e2043616c6c207265666572656e63656420696e2072756c65206e6f74207365745369676e61747572657320616e64207369676e617475726520696427732061726520696e636f6e73697374656e744f6e6c7920766572696669656420706f6c69637920737562736372696265722063616e206170706c7920636c6f73656420706f6c6963696573a264697066735822122055e30ef4b1f1c38905e8599e094608a700c60535ae87b99c07a80347cf1827b664736f6c634300081c0033","linkReferences":{}},"methodIdentifiers":{"applyPolicy(address,uint256[])":"9228303f","cementPolicy(uint256)":"d46a37c4","closePolicy(uint256)":"2b0e4440","createPolicy(uint8)":"9ae6d2f1","deletePolicy(uint256)":"fed27c8f","getAppliedPolicyIds(address)":"e3749023","getPolicy(uint256)":"2b07fce3","isCementedPolicy(uint256)":"f7b570f6","isClosedPolicy(uint256)":"4f10689b","openPolicy(uint256)":"798d6c7b","unapplyPolicy(address,uint256[])":"5239f98c","updatePolicy(uint256,bytes4[],uint256[],uint256[][],uint8)":"2fd205bd"},"id":93}