{"abi":[{"type":"function","name":"addClosedPolicySubscriber","inputs":[{"name":"_policyId","type":"uint256","internalType":"uint256"},{"name":"_subscriber","type":"address","internalType":"address"}],"outputs":[],"stateMutability":"nonpayable"},{"type":"function","name":"createCallingFunction","inputs":[{"name":"_policyId","type":"uint256","internalType":"uint256"},{"name":"_functionSignature","type":"bytes4","internalType":"bytes4"},{"name":"_pTypes","type":"uint8[]","internalType":"enum PT[]"},{"name":"_callingFunctionName","type":"string","internalType":"string"},{"name":"_encodedValues","type":"string","internalType":"string"}],"outputs":[{"name":"","type":"uint256","internalType":"uint256"}],"stateMutability":"nonpayable"},{"type":"function","name":"createForeignCall","inputs":[{"name":"_policyId","type":"uint256","internalType":"uint256"},{"name":"_foreignCall","type":"tuple","internalType":"struct ForeignCall","components":[{"name":"set","type":"bool","internalType":"bool"},{"name":"foreignCallAddress","type":"address","internalType":"address"},{"name":"signature","type":"bytes4","internalType":"bytes4"},{"name":"returnType","type":"uint8","internalType":"enum PT"},{"name":"foreignCallIndex","type":"uint256","internalType":"uint256"},{"name":"parameterTypes","type":"uint8[]","internalType":"enum PT[]"},{"name":"typeSpecificIndices","type":"uint8[]","internalType":"uint8[]"}]},{"name":"foreignCallName","type":"string","internalType":"string"}],"outputs":[{"name":"","type":"uint256","internalType":"uint256"}],"stateMutability":"nonpayable"},{"type":"function","name":"createTracker","inputs":[{"name":"_policyId","type":"uint256","internalType":"uint256"},{"name":"_tracker","type":"tuple","internalType":"struct Trackers","components":[{"name":"set","type":"bool","internalType":"bool"},{"name":"pType","type":"uint8","internalType":"enum PT"},{"name":"trackerValue","type":"bytes","internalType":"bytes"},{"name":"trackerIndex","type":"uint256","internalType":"uint256"}]},{"name":"trackerName","type":"string","internalType":"string"}],"outputs":[{"name":"","type":"uint256","internalType":"uint256"}],"stateMutability":"nonpayable"},{"type":"function","name":"deleteCallingFunction","inputs":[{"name":"_policyId","type":"uint256","internalType":"uint256"},{"name":"_callingFunctionId","type":"uint256","internalType":"uint256"}],"outputs":[],"stateMutability":"nonpayable"},{"type":"function","name":"deleteForeignCall","inputs":[{"name":"_policyId","type":"uint256","internalType":"uint256"},{"name":"_foreignCallId","type":"uint256","internalType":"uint256"}],"outputs":[],"stateMutability":"nonpayable"},{"type":"function","name":"deleteTracker","inputs":[{"name":"_policyId","type":"uint256","internalType":"uint256"},{"name":"_trackerIndex","type":"uint256","internalType":"uint256"}],"outputs":[],"stateMutability":"nonpayable"},{"type":"function","name":"getAllCallingFunctions","inputs":[{"name":"_policyId","type":"uint256","internalType":"uint256"}],"outputs":[{"name":"","type":"tuple[]","internalType":"struct CallingFunctionStorageSet[]","components":[{"name":"set","type":"bool","internalType":"bool"},{"name":"signature","type":"bytes4","internalType":"bytes4"},{"name":"parameterTypes","type":"uint8[]","internalType":"enum PT[]"}]}],"stateMutability":"view"},{"type":"function","name":"getAllForeignCalls","inputs":[{"name":"_policyId","type":"uint256","internalType":"uint256"}],"outputs":[{"name":"fc","type":"tuple[]","internalType":"struct ForeignCall[]","components":[{"name":"set","type":"bool","internalType":"bool"},{"name":"foreignCallAddress","type":"address","internalType":"address"},{"name":"signature","type":"bytes4","internalType":"bytes4"},{"name":"returnType","type":"uint8","internalType":"enum PT"},{"name":"foreignCallIndex","type":"uint256","internalType":"uint256"},{"name":"parameterTypes","type":"uint8[]","internalType":"enum PT[]"},{"name":"typeSpecificIndices","type":"uint8[]","internalType":"uint8[]"}]}],"stateMutability":"view"},{"type":"function","name":"getAllTrackers","inputs":[{"name":"_policyId","type":"uint256","internalType":"uint256"}],"outputs":[{"name":"","type":"tuple[]","internalType":"struct Trackers[]","components":[{"name":"set","type":"bool","internalType":"bool"},{"name":"pType","type":"uint8","internalType":"enum PT"},{"name":"trackerValue","type":"bytes","internalType":"bytes"},{"name":"trackerIndex","type":"uint256","internalType":"uint256"}]}],"stateMutability":"view"},{"type":"function","name":"getCallingFunction","inputs":[{"name":"_policyId","type":"uint256","internalType":"uint256"},{"name":"_callingFunctionId","type":"uint256","internalType":"uint256"}],"outputs":[{"name":"","type":"tuple","internalType":"struct CallingFunctionStorageSet","components":[{"name":"set","type":"bool","internalType":"bool"},{"name":"signature","type":"bytes4","internalType":"bytes4"},{"name":"parameterTypes","type":"uint8[]","internalType":"enum PT[]"}]}],"stateMutability":"view"},{"type":"function","name":"getCallingFunctionMetadata","inputs":[{"name":"_policyId","type":"uint256","internalType":"uint256"},{"name":"_callingFunctionId","type":"uint256","internalType":"uint256"}],"outputs":[{"name":"","type":"tuple","internalType":"struct CallingFunctionHashMapping","components":[{"name":"callingFunction","type":"string","internalType":"string"},{"name":"signature","type":"bytes4","internalType":"bytes4"},{"name":"encodedValues","type":"string","internalType":"string"}]}],"stateMutability":"view"},{"type":"function","name":"getForeignCall","inputs":[{"name":"_policyId","type":"uint256","internalType":"uint256"},{"name":"_foreignCallId","type":"uint256","internalType":"uint256"}],"outputs":[{"name":"fc","type":"tuple","internalType":"struct ForeignCall","components":[{"name":"set","type":"bool","internalType":"bool"},{"name":"foreignCallAddress","type":"address","internalType":"address"},{"name":"signature","type":"bytes4","internalType":"bytes4"},{"name":"returnType","type":"uint8","internalType":"enum PT"},{"name":"foreignCallIndex","type":"uint256","internalType":"uint256"},{"name":"parameterTypes","type":"uint8[]","internalType":"enum PT[]"},{"name":"typeSpecificIndices","type":"uint8[]","internalType":"uint8[]"}]}],"stateMutability":"view"},{"type":"function","name":"getForeignCallMetadata","inputs":[{"name":"_policyId","type":"uint256","internalType":"uint256"},{"name":"_foreignCallId","type":"uint256","internalType":"uint256"}],"outputs":[{"name":"fcMeta","type":"string","internalType":"string"}],"stateMutability":"view"},{"type":"function","name":"getTracker","inputs":[{"name":"_policyId","type":"uint256","internalType":"uint256"},{"name":"_index","type":"uint256","internalType":"uint256"}],"outputs":[{"name":"tracker","type":"tuple","internalType":"struct Trackers","components":[{"name":"set","type":"bool","internalType":"bool"},{"name":"pType","type":"uint8","internalType":"enum PT"},{"name":"trackerValue","type":"bytes","internalType":"bytes"},{"name":"trackerIndex","type":"uint256","internalType":"uint256"}]}],"stateMutability":"view"},{"type":"function","name":"getTrackerMetadata","inputs":[{"name":"_policyId","type":"uint256","internalType":"uint256"},{"name":"_trackerId","type":"uint256","internalType":"uint256"}],"outputs":[{"name":"trMeta","type":"string","internalType":"string"}],"stateMutability":"view"},{"type":"function","name":"isClosedPolicySubscriber","inputs":[{"name":"_policyId","type":"uint256","internalType":"uint256"},{"name":"_subscriber","type":"address","internalType":"address"}],"outputs":[{"name":"","type":"bool","internalType":"bool"}],"stateMutability":"view"},{"type":"function","name":"removeClosedPolicySubscriber","inputs":[{"name":"_policyId","type":"uint256","internalType":"uint256"},{"name":"_subscriber","type":"address","internalType":"address"}],"outputs":[],"stateMutability":"nonpayable"},{"type":"function","name":"updateCallingFunction","inputs":[{"name":"_policyId","type":"uint256","internalType":"uint256"},{"name":"_callingFunctionID","type":"uint256","internalType":"uint256"},{"name":"_functionSignature","type":"bytes4","internalType":"bytes4"},{"name":"_pTypes","type":"uint8[]","internalType":"enum PT[]"}],"outputs":[{"name":"","type":"uint256","internalType":"uint256"}],"stateMutability":"nonpayable"},{"type":"function","name":"updateForeignCall","inputs":[{"name":"_policyId","type":"uint256","internalType":"uint256"},{"name":"_foreignCallId","type":"uint256","internalType":"uint256"},{"name":"_foreignCall","type":"tuple","internalType":"struct ForeignCall","components":[{"name":"set","type":"bool","internalType":"bool"},{"name":"foreignCallAddress","type":"address","internalType":"address"},{"name":"signature","type":"bytes4","internalType":"bytes4"},{"name":"returnType","type":"uint8","internalType":"enum PT"},{"name":"foreignCallIndex","type":"uint256","internalType":"uint256"},{"name":"parameterTypes","type":"uint8[]","internalType":"enum PT[]"},{"name":"typeSpecificIndices","type":"uint8[]","internalType":"uint8[]"}]}],"outputs":[{"name":"fc","type":"tuple","internalType":"struct ForeignCall","components":[{"name":"set","type":"bool","internalType":"bool"},{"name":"foreignCallAddress","type":"address","internalType":"address"},{"name":"signature","type":"bytes4","internalType":"bytes4"},{"name":"returnType","type":"uint8","internalType":"enum PT"},{"name":"foreignCallIndex","type":"uint256","internalType":"uint256"},{"name":"parameterTypes","type":"uint8[]","internalType":"enum PT[]"},{"name":"typeSpecificIndices","type":"uint8[]","internalType":"uint8[]"}]}],"stateMutability":"nonpayable"},{"type":"function","name":"updateTracker","inputs":[{"name":"_policyId","type":"uint256","internalType":"uint256"},{"name":"_trackerIndex","type":"uint256","internalType":"uint256"},{"name":"_tracker","type":"tuple","internalType":"struct Trackers","components":[{"name":"set","type":"bool","internalType":"bool"},{"name":"pType","type":"uint8","internalType":"enum PT"},{"name":"trackerValue","type":"bytes","internalType":"bytes"},{"name":"trackerIndex","type":"uint256","internalType":"uint256"}]}],"outputs":[],"stateMutability":"nonpayable"},{"type":"event","name":"AssociatedRuleDeleted","inputs":[{"name":"policyId","type":"uint256","indexed":true,"internalType":"uint256"},{"name":"foreignCallId","type":"uint256","indexed":true,"internalType":"uint256"}],"anonymous":false},{"type":"event","name":"CallingFunctionCreated","inputs":[{"name":"policyId","type":"uint256","indexed":true,"internalType":"uint256"},{"name":"callingFunctionId","type":"uint256","indexed":true,"internalType":"uint256"}],"anonymous":false},{"type":"event","name":"CallingFunctionDeleted","inputs":[{"name":"policyId","type":"uint256","indexed":true,"internalType":"uint256"},{"name":"callingFunctionId","type":"uint256","indexed":true,"internalType":"uint256"}],"anonymous":false},{"type":"event","name":"CallingFunctionUpdated","inputs":[{"name":"policyId","type":"uint256","indexed":true,"internalType":"uint256"},{"name":"callingFunctionId","type":"uint256","indexed":true,"internalType":"uint256"}],"anonymous":false},{"type":"event","name":"ForeignCallCreated","inputs":[{"name":"policyId","type":"uint256","indexed":true,"internalType":"uint256"},{"name":"foreignCallId","type":"uint256","indexed":true,"internalType":"uint256"}],"anonymous":false},{"type":"event","name":"ForeignCallDeleted","inputs":[{"name":"policyId","type":"uint256","indexed":true,"internalType":"uint256"},{"name":"foreignCallId","type":"uint256","indexed":true,"internalType":"uint256"}],"anonymous":false},{"type":"event","name":"ForeignCallUpdated","inputs":[{"name":"policyId","type":"uint256","indexed":true,"internalType":"uint256"},{"name":"foreignCallId","type":"uint256","indexed":true,"internalType":"uint256"}],"anonymous":false},{"type":"event","name":"PolicySubsciberAdded","inputs":[{"name":"policyId","type":"uint256","indexed":true,"internalType":"uint256"},{"name":"subscriber","type":"address","indexed":true,"internalType":"address"}],"anonymous":false},{"type":"event","name":"PolicySubsciberRemoved","inputs":[{"name":"policyId","type":"uint256","indexed":true,"internalType":"uint256"},{"name":"subscriber","type":"address","indexed":true,"internalType":"address"}],"anonymous":false},{"type":"event","name":"TrackerCreated","inputs":[{"name":"policyId","type":"uint256","indexed":true,"internalType":"uint256"},{"name":"trackerId","type":"uint256","indexed":true,"internalType":"uint256"}],"anonymous":false},{"type":"event","name":"TrackerDeleted","inputs":[{"name":"policyId","type":"uint256","indexed":true,"internalType":"uint256"},{"name":"trackerId","type":"uint256","indexed":true,"internalType":"uint256"}],"anonymous":false},{"type":"event","name":"TrackerUpdated","inputs":[{"name":"policyId","type":"uint256","indexed":true,"internalType":"uint256"},{"name":"trackerId","type":"uint256","indexed":true,"internalType":"uint256"}],"anonymous":false}],"bytecode":{"object":"0x6080604052348015600e575f5ffd5b506142428061001c5f395ff3fe608060405234801561000f575f5ffd5b506004361061016e575f3560e01c80637374c994116100d2578063c017d30011610088578063eeeb604711610063578063eeeb60471461033b578063f3e7dfc31461035b578063f69187ee1461037b575f5ffd5b8063c017d300146102f5578063d82260c814610315578063da7d5d2814610328575f5ffd5b8063a82c9e07116100b8578063a82c9e07146102af578063b0955878146102c2578063bfc85236146102d5575f5ffd5b80637374c9941461027c578063a3937e991461028f575f5ffd5b80634c957ad91161012757806356f3b05f1161010d57806356f3b05f146102295780636edc18081461024957806372a340d71461025c575f5ffd5b80634c957ad9146101f357806356f39ae314610216575f5ffd5b80632dc2ac0d116101575780632dc2ac0d146101ad5780633bf07314146101c05780633fafdf6e146101e0575f5ffd5b806318f4b33f146101725780632711fe6b14610198575b5f5ffd5b6101856101803660046132ea565b61038e565b6040519081526020015b60405180910390f35b6101ab6101a6366004613382565b6105d0565b005b6101ab6101bb3660046133bc565b6107c9565b6101d36101ce366004613408565b6108ee565b60405161018f9190613474565b6101ab6101ee366004613408565b61099d565b610206610201366004613382565b610da1565b604051901515815260200161018f565b610185610224366004613603565b610de7565b61023c610237366004613660565b611235565b60405161018f9190613724565b6101856102573660046137a5565b61143a565b61026f61026a366004613408565b61156b565b60405161018f91906137e1565b6101ab61028a366004613382565b6116a7565b6102a261029d366004613660565b611898565b60405161018f9190613913565b6101ab6102bd366004613408565b611bac565b6101856102d0366004613a1d565b611d19565b6102e86102e3366004613408565b611e4d565b60405161018f9190613b19565b610308610303366004613b2b565b611f51565b60405161018f9190613b6d565b6101ab610323366004613408565b612141565b610308610336366004613408565b6122b9565b61034e610349366004613408565b6124ec565b60405161018f9190613b7f565b61036e610369366004613660565b612680565b60405161018f9190613c01565b6101d3610389366004613408565b61284c565b5f84335f5f61044b63901cee1160e01b85856040516024016103d092919091825273ffffffffffffffffffffffffffffffffffffffff16602082015260400190565b604080517fffffffffffffffffffffffffffffffffffffffffffffffffffffffffffffffe08184030181529190526020810180517bffffffffffffffffffffffffffffffffffffffffffffffffffffffff167f901cee1100000000000000000000000000000000000000000000000000000000179052612856565b915091505f82156104d957600482511061046a5750602081015161046d565b505f5b806104d9576040517f08c379a000000000000000000000000000000000000000000000000000000000815260206004820152601860248201527f4e6f7420417574686f72697a656420546f20506f6c696379000000000000000060448201526064015b60405180910390fd5b6104e28a612917565b5f6104f360408b0160208c01613c76565b73ffffffffffffffffffffffffffffffffffffffff160361057357604080518082018252601c81527f5a65726f20416464726573732043616e6e6f742042652041646d696e00000000602082015290517f08c379a00000000000000000000000000000000000000000000000000000000081526104d09190600401613474565b5f61057d8b6129a6565b905061058a8b8b836129d8565b6105968b828b8b612a14565b60405181908c907f9006068daf408b7e36a22c789f04c4ba9c6c638a6cf8438c2250583384f2192f905f90a39a9950505050505050505050565b60405160248101839052336044820181905283915f908190610616907f901cee1100000000000000000000000000000000000000000000000000000000906064016103d0565b915091505f821561069f57600482511061063557506020810151610638565b505f5b8061069f576040517f08c379a000000000000000000000000000000000000000000000000000000000815260206004820152601860248201527f4e6f7420417574686f72697a656420546f20506f6c696379000000000000000060448201526064016104d0565b6106a887612917565b73ffffffffffffffffffffffffffffffffffffffff861661072857604080518082018252601c81527f5a65726f20416464726573732043616e6e6f742042652041646d696e00000000602082015290517f08c379a00000000000000000000000000000000000000000000000000000000081526104d09190600401613474565b6001610732612a46565b5f8981526001919091016020908152604080832073ffffffffffffffffffffffffffffffffffffffff8b16808552600590910190925280832080547fffffffffffffffffffffffffffffffffffffffffffffffffffffffffffffff001694151594909417909355915189917f790a3138425334d31f4463869c596f58d51e891ecb665b5090fa0ae9ed8b6fd291a350505050505050565b60405160248101849052336044820181905284915f90819061080f907f901cee1100000000000000000000000000000000000000000000000000000000906064016103d0565b915091505f821561089857600482511061082e57506020810151610831565b505f5b80610898576040517f08c379a000000000000000000000000000000000000000000000000000000000815260206004820152601860248201527f4e6f7420417574686f72697a656420546f20506f6c696379000000000000000060448201526064016104d0565b5f6108a1612a73565b90506108b7818a8a6108b28b613c9e565b612aa0565b60405188908a907f7d0cd6a27b5d0487bca14f5b3852217db2c9951f3ad91646fe09e0c19abcef50905f90a3505050505050505050565b60606108f8612b86565b5f8481526020918252604080822085835290925220805461091890613d3f565b80601f016020809104026020016040519081016040528092919081815260200182805461094490613d3f565b801561098f5780601f106109665761010080835404028352916020019161098f565b820191905f5260205f20905b81548152906001019060200180831161097257829003601f168201915b505050505090505b92915050565b60405160248101839052336044820181905283915f9081906109e3907f901cee1100000000000000000000000000000000000000000000000000000000906064016103d0565b915091505f8215610a6c576004825110610a0257506020810151610a05565b505f5b80610a6c576040517f08c379a000000000000000000000000000000000000000000000000000000000815260206004820152601860248201527f4e6f7420417574686f72697a656420546f20506f6c696379000000000000000060448201526064016104d0565b610a7587612917565b5f610a7e612a46565b5f898152600191909101602052604081209150610a99612bb3565b5f8a8152600191909101602090815260408083208b8452909152902054610100900460e01b9050610ac8612bb3565b5f8a81526001918201602090815260408083208c8452909152812080547fffffffffffffffffffffffffffffffffffffffffffffffffffffff000000000016815591610b1690830182612fc4565b50610b269050600383015f612fe6565b7fffffffff0000000000000000000000000000000000000000000000000000000081165f90815260018301602052604081208190555b7fffffffff0000000000000000000000000000000000000000000000000000000082165f908152600284016020526040902054811015610c8557610b9e612be0565b5f8b8152600191820160209081526040808320858452909152812080547fffffffffffffffffffffffffffffffffffffffffffffffffffffffffffffff0016815591820181610bed8282613008565b600182015f610bfc8282613008565b610c09600183015f612fc4565b610c16600283015f613023565b50610c269050600483015f61303e565b610c33600583015f61303e565b610c40600683015f613059565b610c4d600783015f613059565b50506040518b92508c91507fc2ebaca961b98bedef10bce18fc3c8bdcba15a62d52feb7f59578c9998e1d42a905f90a3600101610b5c565b507fffffffff0000000000000000000000000000000000000000000000000000000081165f9081526002830160205260408120610cc191613008565b5f610ccb8a612680565b90505f5b8151811015610d6857818181518110610cea57610cea613d8a565b60200260200101515f015115610d605783600101600201828281518110610d1357610d13613d8a565b60209081029190910181015181015182546001810184555f938452919092206008820401805463ffffffff60079093166004026101000a928302191660e09390931c919091029190911790555b600101610ccf565b5060405189908b907f5b5ef7f155302df6e9d2c1a0610671ea5b89849a316a1f75018ab14fdd5a8bb6905f90a350505050505050505050565b5f610daa612a46565b5f9384526001016020908152604080852073ffffffffffffffffffffffffffffffffffffffff949094168552600590930190525090205460ff1690565b5f84335f5f610e2963901cee1160e01b85856040516024016103d092919091825273ffffffffffffffffffffffffffffffffffffffff16602082015260400190565b915091505f8215610eb2576004825110610e4857506020810151610e4b565b505f5b80610eb2576040517f08c379a000000000000000000000000000000000000000000000000000000000815260206004820152601860248201527f4e6f7420417574686f72697a656420546f20506f6c696379000000000000000060448201526064016104d0565b610ebb8a612917565b5f610ec4612bb3565b5f8c815260018201602090815260408083208e845290915290208054919250907fffffffff000000000000000000000000000000000000000000000000000000008b811661010090920460e01b1614610f9f576040517f08c379a000000000000000000000000000000000000000000000000000000000815260206004820152603460248201527f44656c6574652063616c6c696e672066756e6374696f6e206265666f7265207560448201527f70646174696e6720746f2061206e6577206f6e6500000000000000000000000060648201526084016104d0565b88516001820154111561105a576040517f08c379a000000000000000000000000000000000000000000000000000000000815260206004820152604660248201527f4e657720706172616d65746572207479706573206d757374206265206f66206760448201527f726561746572206f7220657175616c206c656e67746820746f20746865206f7260648201527f6967696e616c0000000000000000000000000000000000000000000000000000608482015260a4016104d0565b5f5b600182015481101561116c5781600101818154811061107d5761107d613d8a565b905f5260205f2090602091828204019190069054906101000a900460ff1660078111156110ac576110ac613677565b8a82815181106110be576110be613d8a565b602002602001015160078111156110d7576110d7613677565b14611164576040517f08c379a000000000000000000000000000000000000000000000000000000000815260206004820152603c60248201527f4e657720706172616d65746572207479706573206d757374206265206f66207460448201527f68652073616d65207479706520617320746865206f726967696e616c0000000060648201526084016104d0565b60010161105c565b508851600182015410156111f95760018101545b89518110156111f757816001018a828151811061119f5761119f613d8a565b60209081029190910181015182546001810184555f9384529282902091830490910180549192909160ff601f9092166101000a9182021916908360078111156111ea576111ea613677565b0217905550600101611180565b505b6040518b908d907f2b77470866bba4d7ed745d96afff93047d8aad605c3a97a181658f934bda526f905f90a350989a9950505050505050505050565b60605f611240612a73565b5f848152602082905260408120549192508167ffffffffffffffff81111561126a5761126a6134bc565b6040519080825280602002602001820160405280156112c557816020015b6112b260408051608081019091525f80825260208201908152602001606081526020015f81525090565b8152602001906001900390816112885790505b5090505f60015b83811161142f575f878152600186016020908152604080832084845290915290205460ff161561141d575f8781526001860160209081526040808320848452825291829020825160808101909352805460ff80821615158552919284019161010090910416600781111561134257611342613677565b600781111561135357611353613677565b815260200160018201805461136790613d3f565b80601f016020809104026020016040519081016040528092919081815260200182805461139390613d3f565b80156113de5780601f106113b5576101008083540402835291602001916113de565b820191905f5260205f20905b8154815290600101906020018083116113c157829003601f168201915b5050505050815260200160028201548152505083838151811061140357611403613d8a565b6020026020010181905250818061141990613de4565b9250505b8061142781613de4565b9150506112cc565b509095945050505050565b5f84335f5f61147c63901cee1160e01b85856040516024016103d092919091825273ffffffffffffffffffffffffffffffffffffffff16602082015260400190565b915091505f821561150557600482511061149b5750602081015161149e565b505f5b80611505576040517f08c379a000000000000000000000000000000000000000000000000000000000815260206004820152601860248201527f4e6f7420417574686f72697a656420546f20506f6c696379000000000000000060448201526064016104d0565b61150e8a612917565b5f6115188b612c0d565b90506115258b828c612c17565b6115318b828b8b612c37565b60405181908c907f1ea0bdfd9680c9b8e4038e41083d7800dca81e6f55a15ce48d858ebb70693d2a905f90a39a9950505050505050505050565b61159560408051608081019091525f80825260208201908152602001606081526020015f81525090565b5f61159e612a73565b5f8581526001820160209081526040808320878452825291829020825160808101909352805460ff80821615158552949550929390929184019161010090041660078111156115ef576115ef613677565b600781111561160057611600613677565b815260200160018201805461161490613d3f565b80601f016020809104026020016040519081016040528092919081815260200182805461164090613d3f565b801561168b5780601f106116625761010080835404028352916020019161168b565b820191905f5260205f20905b81548152906001019060200180831161166e57829003601f168201915b5050505050815260200160028201548152505091505092915050565b60405160248101839052336044820181905283915f9081906116ed907f901cee1100000000000000000000000000000000000000000000000000000000906064016103d0565b915091505f821561177657600482511061170c5750602081015161170f565b505f5b80611776576040517f08c379a000000000000000000000000000000000000000000000000000000000815260206004820152601860248201527f4e6f7420417574686f72697a656420546f20506f6c696379000000000000000060448201526064016104d0565b61177f87612917565b73ffffffffffffffffffffffffffffffffffffffff86166117ff57604080518082018252601c81527f5a65726f20416464726573732043616e6e6f742042652041646d696e00000000602082015290517f08c379a00000000000000000000000000000000000000000000000000000000081526104d09190600401613474565b611807612a46565b5f8881526001919091016020908152604080832073ffffffffffffffffffffffffffffffffffffffff8a16808552600590910190925280832080547fffffffffffffffffffffffffffffffffffffffffffffffffffffffffffffff0016905551909189917febc594f3b2a99e6227cfcc8bd404d054b6cc3dad7f287e1944cb88681a05c14c9190a350505050505050565b60605f6118a3612c41565b5f848152602091909152604081205491508167ffffffffffffffff8111156118cd576118cd6134bc565b60405190808252806020026020018201604052801561193c57816020015b6119296040805160e0810182525f8082526020820181905291810182905290606082019081526020015f815260200160608152602001606081525090565b8152602001906001900390816118eb5790505b5090505f805b838111611ba257611951612c41565b5f8781526001919091016020908152604080832084845290915290205460ff1615611b905761197e612c41565b5f87815260019190910160209081526040808320848452825291829020825160e08082018552825460ff80821615158452610100820473ffffffffffffffffffffffffffffffffffffffff16958401959095527501000000000000000000000000000000000000000000810490911b7fffffffff00000000000000000000000000000000000000000000000000000000169482019490945292909160608401917901000000000000000000000000000000000000000000000000009004166007811115611a4d57611a4d613677565b6007811115611a5e57611a5e613677565b81526020016001820154815260200160028201805480602002602001604051908101604052809291908181526020018280548015611ae857602002820191905f5260205f20905f905b82829054906101000a900460ff166007811115611ac657611ac6613677565b815260206001928301818104948501949093039092029101808411611aa75790505b5050505050815260200160038201805480602002602001604051908101604052809291908181526020018280548015611b5b57602002820191905f5260205f20905f905b825461010083900a900460ff16815260206001928301818104948501949093039092029101808411611b2c5790505b505050505081525050838381518110611b7657611b76613d8a565b60200260200101819052508180611b8c90613de4565b9250505b80611b9a81613de4565b915050611942565b5090949350505050565b60405160248101839052336044820181905283915f908190611bf2907f901cee1100000000000000000000000000000000000000000000000000000000906064016103d0565b915091505f8215611c7b576004825110611c1157506020810151611c14565b505f5b80611c7b576040517f08c379a000000000000000000000000000000000000000000000000000000000815260206004820152601860248201527f4e6f7420417574686f72697a656420546f20506f6c696379000000000000000060448201526064016104d0565b611c8487612917565b611c8c612a73565b5f8881526001918201602090815260408083208a8452909152812080547fffffffffffffffffffffffffffffffffffffffffffffffffffffffffffff000016815591611cda90830182613077565b600282015f9055505085877ed9d817df2d853a886f2cbe7a671a676890264711abbb9d2c3ee79fb1bb653a60405160405180910390a350505050505050565b5f85335f5f611d5b63901cee1160e01b85856040516024016103d092919091825273ffffffffffffffffffffffffffffffffffffffff16602082015260400190565b915091505f8215611de4576004825110611d7a57506020810151611d7d565b505f5b80611de4576040517f08c379a000000000000000000000000000000000000000000000000000000000815260206004820152601860248201527f4e6f7420417574686f72697a656420546f20506f6c696379000000000000000060448201526064016104d0565b611ded8b612917565b5f611df78c612c6e565b9050611e058c828d8d612c78565b611e128c828d8c8c612cea565b60405181908d907f24103d2c348f3e3042849986bfdaee686941377c8a32bbe5b6cc13ad09c8af83905f90a39b9a5050505050505050505050565b60408051606080820183525f808352602083015291810191909152611e70612bb3565b5f8481526001918201602090815260408083208684528252918290208251606081018452815460ff811615158252610100900460e01b7fffffffff000000000000000000000000000000000000000000000000000000001681840152938101805484518185028101850186528181529294860193830182828015611f4057602002820191905f5260205f20905f905b82829054906101000a900460ff166007811115611f1e57611f1e613677565b815260206001928301818104948501949093039092029101808411611eff5790505b505050505081525050905092915050565b611f8f6040805160e0810182525f8082526020820181905291810182905290606082019081526020015f815260200160608152602001606081525090565b60405160248101859052336044820181905285915f908190611fd5907f901cee1100000000000000000000000000000000000000000000000000000000906064016103d0565b915091505f821561205e576004825110611ff457506020810151611ff7565b505f5b8061205e576040517f08c379a000000000000000000000000000000000000000000000000000000000815260206004820152601860248201527f4e6f7420417574686f72697a656420546f20506f6c696379000000000000000060448201526064016104d0565b61206789612917565b61207087613e84565b602081015190965073ffffffffffffffffffffffffffffffffffffffff166120f757604080518082018252601c81527f5a65726f20416464726573732043616e6e6f742042652041646d696e00000000602082015290517f08c379a00000000000000000000000000000000000000000000000000000000081526104d09190600401613474565b6080860188905261210989888a6129d8565b60405188908a907f82132283659aa079ae6d599fbbe109c1bfb961fc5bbbb0a98a343b4ea6dc3e00905f90a350505050509392505050565b60405160248101839052336044820181905283915f908190612187907f901cee1100000000000000000000000000000000000000000000000000000000906064016103d0565b915091505f82156122105760048251106121a6575060208101516121a9565b505f5b80612210576040517f08c379a000000000000000000000000000000000000000000000000000000000815260206004820152601860248201527f4e6f7420417574686f72697a656420546f20506f6c696379000000000000000060448201526064016104d0565b61221987612917565b612221612c41565b5f8881526001918201602090815260408083208a8452909152812080547fffffffffffff00000000000000000000000000000000000000000000000000001681559182018190556122756002830182612fc4565b612282600383015f612fc4565b5050604051869088907f19d0bd0cc4d63f9108c93b0abfd7408498ecbc73713f6bb3a2862d9b9d1983d8905f90a350505050505050565b6122f76040805160e0810182525f8082526020820181905291810182905290606082019081526020015f815260200160608152602001606081525090565b6122ff612c41565b5f84815260019190910160209081526040808320858452825291829020825160e08082018552825460ff80821615158452610100820473ffffffffffffffffffffffffffffffffffffffff16958401959095527501000000000000000000000000000000000000000000810490911b7fffffffff000000000000000000000000000000000000000000000000000000001694820194909452929091606084019179010000000000000000000000000000000000000000000000000090041660078111156123ce576123ce613677565b60078111156123df576123df613677565b8152602001600182015481526020016002820180548060200260200160405190810160405280929190818152602001828054801561246957602002820191905f5260205f20905f905b82829054906101000a900460ff16600781111561244757612447613677565b8152602060019283018181049485019490930390920291018084116124285790505b5050505050815260200160038201805480602002602001604051908101604052809291908181526020018280548015611f4057602002820191905f5260205f20905f905b825461010083900a900460ff168152602060019283018181049485019490930390920291018084116124ad579050505050505081525050905092915050565b60408051606080820183528082525f60208301529181019190915261250f612d73565b5f8481526020918252604080822085835290925281902081516060810190925280548290829061253e90613d3f565b80601f016020809104026020016040519081016040528092919081815260200182805461256a90613d3f565b80156125b55780601f1061258c576101008083540402835291602001916125b5565b820191905f5260205f20905b81548152906001019060200180831161259857829003601f168201915b5050509183525050600182015460e01b7fffffffff0000000000000000000000000000000000000000000000000000000016602082015260028201805460409092019161260190613d3f565b80601f016020809104026020016040519081016040528092919081815260200182805461262d90613d3f565b8015611f405780601f1061264f57610100808354040283529160200191611f40565b820191905f5260205f20905b81548152906001019060200180831161265b5750505091909252509195945050505050565b60605f61268b612bb3565b5f848152602082905260408120549192508167ffffffffffffffff8111156126b5576126b56134bc565b60405190808252806020026020018201604052801561270157816020015b60408051606080820183525f8083526020830152918101919091528152602001906001900390816126d35790505b5090505f60015b83811161142f575f878152600186016020908152604080832084845290915290205460ff161561283a575f8781526001868101602090815260408084208585528252928390208351606081018552815460ff811615158252610100900460e01b7fffffffff00000000000000000000000000000000000000000000000000000000168184015292810180548551818502810185018752818152949592949286019383018282801561280557602002820191905f5260205f20905f905b82829054906101000a900460ff1660078111156127e3576127e3613677565b8152602060019283018181049485019490930390920291018084116127c45790505b50505050508152505083838151811061282057612820613d8a565b6020026020010181905250818061283690613de4565b9250505b8061284481613de4565b915050612708565b60606108f8612da0565b5f60605f612862612dcd565b7fffffffff0000000000000000000000000000000000000000000000000000000086165f908152602082905260409081902054905191925073ffffffffffffffffffffffffffffffffffffffff169081906128be908790613f40565b5f60405180830381855af49150503d805f81146128f6576040519150601f19603f3d011682016040523d82523d5f602084013e6128fb565b606091505b5090945092508361290e57825160208401fd5b50509250929050565b61291f612a46565b5f8281526001919091016020526040902060040154610100900460ff16156129a3576040517f08c379a000000000000000000000000000000000000000000000000000000000815260206004820152601f60248201527f4e6f7420616c6c6f77656420666f722063656d656e74656420706f6c6963790060448201526064016104d0565b50565b5f5f6129b0612c41565b5f8481526020829052604081208054929350916129cc90613de4565b91829055509392505050565b5f6129e1612c41565b90505f6129ed84613e84565b608081018490529050612a008582612dfa565b505f93845260205260409092209190915550565b8181612a1e612da0565b5f878152602091825260408082208883529092522091612a3f919083613f9f565b5050505050565b5f8061099760017ff9dbd639dd2ea165d77dd4c51dec420100d51ceacf023b1c40faa045ba8f9a656140b5565b5f8061099760017f438102ff677bc3f21830c58117a05d6b953b31e3ea339da3f17957cd3941a6906140b5565b6001808252606082018390525f848152908501602090815260408083208584528252909120825181549015157fffffffffffffffffffffffffffffffffffffffffffffffffffffffffffffff00821681178355928401518493909183917fffffffffffffffffffffffffffffffffffffffffffffffffffffffffffff00ff167fffffffffffffffffffffffffffffffffffffffffffffffffffffffffffff000090911617610100836007811115612b5957612b59613677565b021790555060408201516001820190612b7290826140c8565b506060820151816002015590505050505050565b5f8061099760017fc6d0732f7ed4c7ec3d1a6580f5e91e95dcc3d159872b5f4e9d9b8e65d3b720f26140b5565b5f8061099760017fdc82e9666de28bef254c770aa394fdb200d98373b70390c27adec32819f8f2666140b5565b5f8061099760017f5c91f63a4ffcbd372b8ec622fd1fcaaa601b66330afdb30e5c292dd9123f20b06140b5565b5f5f6129b0612a73565b5f612c20612a73565b9050612c318185856108b286613c9e565b50505050565b8181612a1e612b86565b5f8061099760017f1f3305601ed940efccf797d76856e5fe70659a8a6905d64c9f236321df91e7186140b5565b5f5f6129b0612bb3565b5f612c81612bb3565b5f868152600182810160209081526040808420898552825290922080547fffffffffffffffffffffffffffffffffffffffffffffffffffffff00000000001661010060e089901c0217821781558551939450612ce2939101918501906130ae565b505050505050565b5f612cf3612d73565b5f878152602082815260408083208984529091529020909150612d1684826140c8565b505f8681526020828152604080832088845290915290206001810180547fffffffffffffffffffffffffffffffffffffffffffffffffffffffff000000001660e087901c179055600201612d6a83826140c8565b50505050505050565b5f8061099760017fb88f46389dea4b934f6c24412aa4a67e6afeeee9cd7e06827b5b8f09c0e7d7ea6140b5565b5f8061099760017f680281604e63223dcddb1c0e3af179db8bd5c81752348dc75dc7ed88d927353c6140b5565b5f8061099760017fbe498a3b14fd79a48c3c9af86ff14271ed497d09071013334028d28e7791db206140b5565b8060c00151518160a001515114612e1357612e136141df565b6001815280612e20612c41565b5f848152600191909101602090815260408083206080860151845282529182902083518154928501519385015160e01c7501000000000000000000000000000000000000000000027fffffffffffffff00000000ffffffffffffffffffffffffffffffffffffffffff73ffffffffffffffffffffffffffffffffffffffff909516610100027fffffffffffffffffffffff0000000000000000000000000000000000000000ff921515929092167fffffffffffffffffffffff00000000000000000000000000000000000000000090941693909317179283168217815560608401519092909183917fffffffffffff00ffffffffffffffffffffffffffffffffffffffffffffffffff9091167fffffffffffff0000000000ffffffffffffffffffffffffffffffffffffffffff90911617790100000000000000000000000000000000000000000000000000836007811115612f7e57612f7e613677565b02179055506080820151600182015560a08201518051612fa89160028401916020909101906130ae565b5060c08201518051612a3f91600384019160209091019061315d565b5080545f8255601f0160209004905f5260205f20908101906129a391906131c0565b5080545f825560070160089004905f5260205f20908101906129a391906131c0565b5080545f8255905f5260205f20908101906129a391906131c0565b5080545f8255905f5260205f20908101906129a391906131d4565b5080545f8255905f5260205f20908101906129a391906131f0565b5080545f8255600502905f5260205f20908101906129a39190613227565b50805461308390613d3f565b5f825580601f10613092575050565b601f0160209004905f5260205f20908101906129a391906131c0565b828054828255905f5260205f2090601f0160209004810192821561314d579160200282015f5b8382111561311f57835183826101000a81548160ff021916908360078111156130ff576130ff613677565b021790555092602001926001016020815f010492830192600103026130d4565b801561314b5782816101000a81549060ff02191690556001016020815f0104928301926001030261311f565b505b506131599291506131c0565b5090565b828054828255905f5260205f2090601f0160209004810192821561314d579160200282015f5b8382111561311f57835183826101000a81548160ff021916908360ff16021790555092602001926001016020815f01049283019260010302613183565b5b80821115613159575f81556001016131c1565b80821115613159575f6131e78282613077565b506001016131d4565b5b808211156131595780547fffffffffffffffffffffffffff000000000000000000000000000000000000001681556001016131f1565b808211156131595780547fffffffffffffffffffffffffffffffffffffffffffffffffffffffff000000001681555f6132636001830182613077565b600282015f9055600382015f6132799190613077565b613286600483015f613008565b50600501613227565b5f60e0828403121561329f575f5ffd5b50919050565b5f5f83601f8401126132b5575f5ffd5b50813567ffffffffffffffff8111156132cc575f5ffd5b6020830191508360208285010111156132e3575f5ffd5b9250929050565b5f5f5f5f606085870312156132fd575f5ffd5b84359350602085013567ffffffffffffffff81111561331a575f5ffd5b6133268782880161328f565b935050604085013567ffffffffffffffff811115613342575f5ffd5b61334e878288016132a5565b95989497509550505050565b803573ffffffffffffffffffffffffffffffffffffffff8116811461337d575f5ffd5b919050565b5f5f60408385031215613393575f5ffd5b823591506133a36020840161335a565b90509250929050565b5f6080828403121561329f575f5ffd5b5f5f5f606084860312156133ce575f5ffd5b8335925060208401359150604084013567ffffffffffffffff8111156133f2575f5ffd5b6133fe868287016133ac565b9150509250925092565b5f5f60408385031215613419575f5ffd5b50508035926020909101359150565b5f81518084528060208401602086015e5f6020828601015260207fffffffffffffffffffffffffffffffffffffffffffffffffffffffffffffffe0601f83011685010191505092915050565b602081525f6134866020830184613428565b9392505050565b80357fffffffff000000000000000000000000000000000000000000000000000000008116811461337d575f5ffd5b7f4e487b71000000000000000000000000000000000000000000000000000000005f52604160045260245ffd5b60405160e0810167ffffffffffffffff8111828210171561350c5761350c6134bc565b60405290565b604051601f82017fffffffffffffffffffffffffffffffffffffffffffffffffffffffffffffffe016810167ffffffffffffffff81118282101715613559576135596134bc565b604052919050565b5f67ffffffffffffffff82111561357a5761357a6134bc565b5060051b60200190565b80356008811061337d575f5ffd5b5f82601f8301126135a1575f5ffd5b81356135b46135af82613561565b613512565b8082825260208201915060208360051b8601019250858311156135d5575f5ffd5b602085015b838110156135f9576135eb81613584565b8352602092830192016135da565b5095945050505050565b5f5f5f5f60808587031215613616575f5ffd5b843593506020850135925061362d6040860161348d565b9150606085013567ffffffffffffffff811115613648575f5ffd5b61365487828801613592565b91505092959194509250565b5f60208284031215613670575f5ffd5b5035919050565b7f4e487b71000000000000000000000000000000000000000000000000000000005f52602160045260245ffd5b600881106136d9577f4e487b71000000000000000000000000000000000000000000000000000000005f52602160045260245ffd5b9052565b8051151582525f60208201516136f660208501826136a4565b506040820151608060408501526137106080850182613428565b606093840151949093019390935250919050565b5f602082016020835280845180835260408501915060408160051b8601019250602086015f5b82811015613799577fffffffffffffffffffffffffffffffffffffffffffffffffffffffffffffffc08786030184526137848583516136dd565b9450602093840193919091019060010161374a565b50929695505050505050565b5f5f5f5f606085870312156137b8575f5ffd5b84359350602085013567ffffffffffffffff8111156137d5575f5ffd5b613326878288016133ac565b602081525f61348660208301846136dd565b5f8151808452602084019350602083015f5b8281101561382b576138188683516136a4565b6020958601959190910190600101613805565b5093949350505050565b5f8151808452602084019350602083015f5b8281101561382b57815160ff16865260209586019590910190600101613847565b80511515825273ffffffffffffffffffffffffffffffffffffffff60208201511660208301527fffffffff0000000000000000000000000000000000000000000000000000000060408201511660408301525f60608201516138cd60608501826136a4565b506080820151608084015260a082015160e060a08501526138f160e08501826137f3565b905060c083015184820360c086015261390a8282613835565b95945050505050565b5f602082016020835280845180835260408501915060408160051b8601019250602086015f5b82811015613799577fffffffffffffffffffffffffffffffffffffffffffffffffffffffffffffffc0878603018452613973858351613868565b94506020938401939190910190600101613939565b5f5f67ffffffffffffffff8411156139a2576139a26134bc565b50601f83017fffffffffffffffffffffffffffffffffffffffffffffffffffffffffffffffe0166020016139d581613512565b9150508281528383830111156139e9575f5ffd5b828260208301375f602084830101529392505050565b5f82601f830112613a0e575f5ffd5b61348683833560208501613988565b5f5f5f5f5f60a08688031215613a31575f5ffd5b85359450613a416020870161348d565b9350604086013567ffffffffffffffff811115613a5c575f5ffd5b613a6888828901613592565b935050606086013567ffffffffffffffff811115613a84575f5ffd5b613a90888289016139ff565b925050608086013567ffffffffffffffff811115613aac575f5ffd5b613ab8888289016139ff565b9150509295509295909350565b8051151582527fffffffff0000000000000000000000000000000000000000000000000000000060208201511660208301525f604082015160606040850152613b1160608501826137f3565b949350505050565b602081525f6134866020830184613ac5565b5f5f5f60608486031215613b3d575f5ffd5b8335925060208401359150604084013567ffffffffffffffff811115613b61575f5ffd5b6133fe8682870161328f565b602081525f6134866020830184613868565b602081525f825160606020840152613b9a6080840182613428565b90507fffffffff00000000000000000000000000000000000000000000000000000000602085015116604084015260408401517fffffffffffffffffffffffffffffffffffffffffffffffffffffffffffffffe084830301606085015261390a8282613428565b5f602082016020835280845180835260408501915060408160051b8601019250602086015f5b82811015613799577fffffffffffffffffffffffffffffffffffffffffffffffffffffffffffffffc0878603018452613c61858351613ac5565b94506020938401939190910190600101613c27565b5f60208284031215613c86575f5ffd5b6134868261335a565b8035801515811461337d575f5ffd5b5f60808236031215613cae575f5ffd5b6040516080810167ffffffffffffffff81118282101715613cd157613cd16134bc565b604052613cdd83613c8f565b8152613ceb60208401613584565b6020820152604083013567ffffffffffffffff811115613d09575f5ffd5b830136601f820112613d19575f5ffd5b613d2836823560208401613988565b604083015250606092830135928101929092525090565b600181811c90821680613d5357607f821691505b60208210810361329f577f4e487b71000000000000000000000000000000000000000000000000000000005f52602260045260245ffd5b7f4e487b71000000000000000000000000000000000000000000000000000000005f52603260045260245ffd5b7f4e487b71000000000000000000000000000000000000000000000000000000005f52601160045260245ffd5b5f7fffffffffffffffffffffffffffffffffffffffffffffffffffffffffffffffff8203613e1457613e14613db7565b5060010190565b5f82601f830112613e2a575f5ffd5b8135613e386135af82613561565b8082825260208201915060208360051b860101925085831115613e59575f5ffd5b602085015b838110156135f957803560ff81168114613e76575f5ffd5b835260209283019201613e5e565b5f60e08236031215613e94575f5ffd5b613e9c6134e9565b613ea583613c8f565b8152613eb36020840161335a565b6020820152613ec46040840161348d565b6040820152613ed560608401613584565b60608201526080838101359082015260a083013567ffffffffffffffff811115613efd575f5ffd5b613f0936828601613592565b60a08301525060c083013567ffffffffffffffff811115613f28575f5ffd5b613f3436828601613e1b565b60c08301525092915050565b5f82518060208501845e5f920191825250919050565b601f821115613f9a57805f5260205f20601f840160051c81016020851015613f7b5750805b601f840160051c820191505b81811015612a3f575f8155600101613f87565b505050565b67ffffffffffffffff831115613fb757613fb76134bc565b613fcb83613fc58354613d3f565b83613f56565b5f601f84116001811461401b575f8515613fe55750838201355b7fffffffffffffffffffffffffffffffffffffffffffffffffffffffffffffffff600387901b1c1916600186901b178355612a3f565b5f838152602081207fffffffffffffffffffffffffffffffffffffffffffffffffffffffffffffffe08716915b828110156140685786850135825560209485019460019092019101614048565b50868210156140a3577fffffffffffffffffffffffffffffffffffffffffffffffffffffffffffffffff60f88860031b161c19848701351681555b505060018560011b0183555050505050565b8181038181111561099757610997613db7565b815167ffffffffffffffff8111156140e2576140e26134bc565b6140f6816140f08454613d3f565b84613f56565b6020601f821160018114614147575f83156141115750848201515b7fffffffffffffffffffffffffffffffffffffffffffffffffffffffffffffffff600385901b1c1916600184901b178455612a3f565b5f848152602081207fffffffffffffffffffffffffffffffffffffffffffffffffffffffffffffffe08516915b828110156141945787850151825560209485019460019092019101614174565b50848210156141d057868401517fffffffffffffffffffffffffffffffffffffffffffffffffffffffffffffffff600387901b60f8161c191681555b50505050600190811b01905550565b7f4e487b71000000000000000000000000000000000000000000000000000000005f52600160045260245ffdfea26469706673582212207a03b14d76517f9d1de42159548f837e4338abbea6e3965f15f72800e1214d6764736f6c634300081c0033","linkReferences":{}},"methodIdentifiers":{"addClosedPolicySubscriber(uint256,address)":"2711fe6b","createCallingFunction(uint256,bytes4,uint8[],string,string)":"b0955878","createForeignCall(uint256,(bool,address,bytes4,uint8,uint256,uint8[],uint8[]),string)":"18f4b33f","createTracker(uint256,(bool,uint8,bytes,uint256),string)":"6edc1808","deleteCallingFunction(uint256,uint256)":"3fafdf6e","deleteForeignCall(uint256,uint256)":"d82260c8","deleteTracker(uint256,uint256)":"a82c9e07","getAllCallingFunctions(uint256)":"f3e7dfc3","getAllForeignCalls(uint256)":"a3937e99","getAllTrackers(uint256)":"56f3b05f","getCallingFunction(uint256,uint256)":"bfc85236","getCallingFunctionMetadata(uint256,uint256)":"eeeb6047","getForeignCall(uint256,uint256)":"da7d5d28","getForeignCallMetadata(uint256,uint256)":"f69187ee","getTracker(uint256,uint256)":"72a340d7","getTrackerMetadata(uint256,uint256)":"3bf07314","isClosedPolicySubscriber(uint256,address)":"4c957ad9","removeClosedPolicySubscriber(uint256,address)":"7374c994","updateCallingFunction(uint256,uint256,bytes4,uint8[])":"56f39ae3","updateForeignCall(uint256,uint256,(bool,address,bytes4,uint8,uint256,uint8[],uint8[]))":"c017d300","updateTracker(uint256,uint256,(bool,uint8,bytes,uint256))":"2dc2ac0d"},"id":83}