{"abi":[{"type":"function","name":"addTracker","inputs":[{"name":"_policyId","type":"uint256","internalType":"uint256"},{"name":"tracker","type":"tuple","internalType":"struct Trackers","components":[{"name":"pType","type":"uint8","internalType":"enum PT"},{"name":"trackerValue","type":"bytes","internalType":"bytes"}]}],"outputs":[{"name":"","type":"uint256","internalType":"uint256"}],"stateMutability":"nonpayable"},{"type":"function","name":"applyPolicy","inputs":[{"name":"_contractAddress","type":"address","internalType":"address"},{"name":"_policyId","type":"uint256[]","internalType":"uint256[]"}],"outputs":[],"stateMutability":"nonpayable"},{"type":"function","name":"deleteEffect","inputs":[{"name":"_effectId","type":"uint256","internalType":"uint256"}],"outputs":[],"stateMutability":"nonpayable"},{"type":"function","name":"getAppliedPolicyIds","inputs":[{"name":"_contractAddress","type":"address","internalType":"address"}],"outputs":[{"name":"","type":"uint256[]","internalType":"uint256[]"}],"stateMutability":"view"},{"type":"function","name":"getEffect","inputs":[{"name":"_effectId","type":"uint256","internalType":"uint256"}],"outputs":[{"name":"_effect","type":"tuple","internalType":"struct Effect","components":[{"name":"effectId","type":"uint256","internalType":"uint256"},{"name":"effectType","type":"uint8","internalType":"enum ET"},{"name":"text","type":"string","internalType":"string"},{"name":"instructionSet","type":"uint256[]","internalType":"uint256[]"}]}],"stateMutability":"view"},{"type":"function","name":"getForeignCall","inputs":[{"name":"_policyId","type":"uint256","internalType":"uint256"}],"outputs":[{"name":"fc","type":"tuple","internalType":"struct ForeignCallSet","components":[{"name":"set","type":"bool","internalType":"bool"},{"name":"foreignCalls","type":"tuple[]","internalType":"struct ForeignCall[]","components":[{"name":"foreignCallAddress","type":"address","internalType":"address"},{"name":"foreignCallIndex","type":"uint256","internalType":"uint256"},{"name":"signature","type":"bytes4","internalType":"bytes4"},{"name":"returnType","type":"uint8","internalType":"enum PT"},{"name":"parameterTypes","type":"uint8[]","internalType":"enum PT[]"}]}]}],"stateMutability":"view"},{"type":"function","name":"getForeignCall","inputs":[{"name":"_policyId","type":"uint256","internalType":"uint256"},{"name":"_foreignCallId","type":"uint256","internalType":"uint256"}],"outputs":[{"name":"fc","type":"tuple","internalType":"struct ForeignCall","components":[{"name":"foreignCallAddress","type":"address","internalType":"address"},{"name":"foreignCallIndex","type":"uint256","internalType":"uint256"},{"name":"signature","type":"bytes4","internalType":"bytes4"},{"name":"returnType","type":"uint8","internalType":"enum PT"},{"name":"parameterTypes","type":"uint8[]","internalType":"enum PT[]"}]}],"stateMutability":"view"},{"type":"function","name":"getFunctionSignature","inputs":[{"name":"_functionSignatureId","type":"uint256","internalType":"uint256"}],"outputs":[{"name":"","type":"tuple","internalType":"struct FunctionSignatureStorageSet","components":[{"name":"set","type":"bool","internalType":"bool"},{"name":"signature","type":"bytes4","internalType":"bytes4"},{"name":"parameterTypes","type":"uint8[]","internalType":"enum PT[]"}]}],"stateMutability":"view"},{"type":"function","name":"getRule","inputs":[{"name":"_ruleId","type":"uint256","internalType":"uint256"}],"outputs":[{"name":"","type":"tuple","internalType":"struct RuleStorageSet","components":[{"name":"set","type":"bool","internalType":"bool"},{"name":"rule","type":"tuple","internalType":"struct Rule","components":[{"name":"instructionSet","type":"uint256[]","internalType":"uint256[]"},{"name":"rawData","type":"tuple","internalType":"struct RawData","components":[{"name":"instructionSetIndex","type":"uint256[]","internalType":"uint256[]"},{"name":"argumentTypes","type":"uint8[]","internalType":"enum PT[]"},{"name":"dataValues","type":"bytes[]","internalType":"bytes[]"}]},{"name":"placeHolders","type":"tuple[]","internalType":"struct Placeholder[]","components":[{"name":"pType","type":"uint8","internalType":"enum PT"},{"name":"typeSpecificIndex","type":"uint256","internalType":"uint256"},{"name":"trackerValue","type":"bool","internalType":"bool"},{"name":"foreignCall","type":"bool","internalType":"bool"}]},{"name":"effectPlaceHolders","type":"tuple[]","internalType":"struct Placeholder[]","components":[{"name":"pType","type":"uint8","internalType":"enum PT"},{"name":"typeSpecificIndex","type":"uint256","internalType":"uint256"},{"name":"trackerValue","type":"bool","internalType":"bool"},{"name":"foreignCall","type":"bool","internalType":"bool"}]},{"name":"fcArgumentMappingsConditions","type":"tuple[]","internalType":"struct ForeignCallArgumentMappings[]","components":[{"name":"foreignCallIndex","type":"uint256","internalType":"uint256"},{"name":"mappings","type":"tuple[]","internalType":"struct IndividualArgumentMapping[]","components":[{"name":"functionCallArgumentType","type":"uint8","internalType":"enum PT"},{"name":"functionSignatureArg","type":"tuple","internalType":"struct Placeholder","components":[{"name":"pType","type":"uint8","internalType":"enum PT"},{"name":"typeSpecificIndex","type":"uint256","internalType":"uint256"},{"name":"trackerValue","type":"bool","internalType":"bool"},{"name":"foreignCall","type":"bool","internalType":"bool"}]}]}]},{"name":"fcArgumentMappingsEffects","type":"tuple[]","internalType":"struct ForeignCallArgumentMappings[]","components":[{"name":"foreignCallIndex","type":"uint256","internalType":"uint256"},{"name":"mappings","type":"tuple[]","internalType":"struct IndividualArgumentMapping[]","components":[{"name":"functionCallArgumentType","type":"uint8","internalType":"enum PT"},{"name":"functionSignatureArg","type":"tuple","internalType":"struct Placeholder","components":[{"name":"pType","type":"uint8","internalType":"enum PT"},{"name":"typeSpecificIndex","type":"uint256","internalType":"uint256"},{"name":"trackerValue","type":"bool","internalType":"bool"},{"name":"foreignCall","type":"bool","internalType":"bool"}]}]}]},{"name":"posEffects","type":"uint256[]","internalType":"uint256[]"},{"name":"negEffects","type":"uint256[]","internalType":"uint256[]"}]}]}],"stateMutability":"view"},{"type":"function","name":"getTracker","inputs":[{"name":"_policyId","type":"uint256","internalType":"uint256"},{"name":"index","type":"uint256","internalType":"uint256"}],"outputs":[{"name":"trackers","type":"tuple","internalType":"struct Trackers","components":[{"name":"pType","type":"uint8","internalType":"enum PT"},{"name":"trackerValue","type":"bytes","internalType":"bytes"}]}],"stateMutability":"nonpayable"},{"type":"function","name":"getTracker","inputs":[{"name":"_policyId","type":"uint256","internalType":"uint256"}],"outputs":[{"name":"trackerValuesSet","type":"tuple","internalType":"struct TrackerValuesSet","components":[{"name":"set","type":"bool","internalType":"bool"},{"name":"trackers","type":"tuple[]","internalType":"struct Trackers[]","components":[{"name":"pType","type":"uint8","internalType":"enum PT"},{"name":"trackerValue","type":"bytes","internalType":"bytes"}]}]}],"stateMutability":"view"},{"type":"function","name":"updateEffect","inputs":[{"name":"_effect","type":"tuple","internalType":"struct Effect","components":[{"name":"effectId","type":"uint256","internalType":"uint256"},{"name":"effectType","type":"uint8","internalType":"enum ET"},{"name":"text","type":"string","internalType":"string"},{"name":"instructionSet","type":"uint256[]","internalType":"uint256[]"}]}],"outputs":[{"name":"_effectId","type":"uint256","internalType":"uint256"}],"stateMutability":"nonpayable"},{"type":"function","name":"updateForeignCall","inputs":[{"name":"_policyId","type":"uint256","internalType":"uint256"},{"name":"foreignContractAddress","type":"address","internalType":"address"},{"name":"functionSignature","type":"string","internalType":"string"},{"name":"returnType","type":"uint8","internalType":"enum PT"},{"name":"arguments","type":"uint8[]","internalType":"enum PT[]"}],"outputs":[{"name":"fc","type":"tuple","internalType":"struct ForeignCall","components":[{"name":"foreignCallAddress","type":"address","internalType":"address"},{"name":"foreignCallIndex","type":"uint256","internalType":"uint256"},{"name":"signature","type":"bytes4","internalType":"bytes4"},{"name":"returnType","type":"uint8","internalType":"enum PT"},{"name":"parameterTypes","type":"uint8[]","internalType":"enum PT[]"}]}],"stateMutability":"nonpayable"},{"type":"function","name":"updateFunctionSignature","inputs":[{"name":"_functionSignatureId","type":"uint256","internalType":"uint256"},{"name":"functionSignature","type":"bytes4","internalType":"bytes4"},{"name":"pTypes","type":"uint8[]","internalType":"enum PT[]"}],"outputs":[{"name":"","type":"uint256","internalType":"uint256"}],"stateMutability":"nonpayable"},{"type":"function","name":"updatePolicy","inputs":[{"name":"_policyId","type":"uint256","internalType":"uint256"},{"name":"_signatures","type":"bytes[]","internalType":"bytes[]"},{"name":"functionSignatureIds","type":"uint256[]","internalType":"uint256[]"},{"name":"ruleIds","type":"uint256[][]","internalType":"uint256[][]"}],"outputs":[{"name":"","type":"uint256","internalType":"uint256"}],"stateMutability":"nonpayable"},{"type":"function","name":"updateRule","inputs":[{"name":"_ruleId","type":"uint256","internalType":"uint256"},{"name":"rule","type":"tuple","internalType":"struct Rule","components":[{"name":"instructionSet","type":"uint256[]","internalType":"uint256[]"},{"name":"rawData","type":"tuple","internalType":"struct RawData","components":[{"name":"instructionSetIndex","type":"uint256[]","internalType":"uint256[]"},{"name":"argumentTypes","type":"uint8[]","internalType":"enum PT[]"},{"name":"dataValues","type":"bytes[]","internalType":"bytes[]"}]},{"name":"placeHolders","type":"tuple[]","internalType":"struct Placeholder[]","components":[{"name":"pType","type":"uint8","internalType":"enum PT"},{"name":"typeSpecificIndex","type":"uint256","internalType":"uint256"},{"name":"trackerValue","type":"bool","internalType":"bool"},{"name":"foreignCall","type":"bool","internalType":"bool"}]},{"name":"effectPlaceHolders","type":"tuple[]","internalType":"struct Placeholder[]","components":[{"name":"pType","type":"uint8","internalType":"enum PT"},{"name":"typeSpecificIndex","type":"uint256","internalType":"uint256"},{"name":"trackerValue","type":"bool","internalType":"bool"},{"name":"foreignCall","type":"bool","internalType":"bool"}]},{"name":"fcArgumentMappingsConditions","type":"tuple[]","internalType":"struct ForeignCallArgumentMappings[]","components":[{"name":"foreignCallIndex","type":"uint256","internalType":"uint256"},{"name":"mappings","type":"tuple[]","internalType":"struct IndividualArgumentMapping[]","components":[{"name":"functionCallArgumentType","type":"uint8","internalType":"enum PT"},{"name":"functionSignatureArg","type":"tuple","internalType":"struct Placeholder","components":[{"name":"pType","type":"uint8","internalType":"enum PT"},{"name":"typeSpecificIndex","type":"uint256","internalType":"uint256"},{"name":"trackerValue","type":"bool","internalType":"bool"},{"name":"foreignCall","type":"bool","internalType":"bool"}]}]}]},{"name":"fcArgumentMappingsEffects","type":"tuple[]","internalType":"struct ForeignCallArgumentMappings[]","components":[{"name":"foreignCallIndex","type":"uint256","internalType":"uint256"},{"name":"mappings","type":"tuple[]","internalType":"struct IndividualArgumentMapping[]","components":[{"name":"functionCallArgumentType","type":"uint8","internalType":"enum PT"},{"name":"functionSignatureArg","type":"tuple","internalType":"struct Placeholder","components":[{"name":"pType","type":"uint8","internalType":"enum PT"},{"name":"typeSpecificIndex","type":"uint256","internalType":"uint256"},{"name":"trackerValue","type":"bool","internalType":"bool"},{"name":"foreignCall","type":"bool","internalType":"bool"}]}]}]},{"name":"posEffects","type":"uint256[]","internalType":"uint256[]"},{"name":"negEffects","type":"uint256[]","internalType":"uint256[]"}]}],"outputs":[{"name":"","type":"uint256","internalType":"uint256"}],"stateMutability":"nonpayable"},{"type":"function","name":"updateTracker","inputs":[{"name":"_policyId","type":"uint256","internalType":"uint256"},{"name":"updatedUintTracker","type":"uint256","internalType":"uint256"},{"name":"updatedAddressTracker","type":"address","internalType":"address"},{"name":"updatedStringTracker","type":"string","internalType":"string"},{"name":"updatedBoolTracker","type":"bool","internalType":"bool"},{"name":"updatedBytesTracker","type":"bytes","internalType":"bytes"}],"outputs":[],"stateMutability":"nonpayable"}],"bytecode":{"object":"0x6080604052348015600f57600080fd5b50613db18061001f6000396000f3fe608060405234801561001057600080fd5b506004361061010b5760003560e01c8063a5bcf7f2116100a2578063d57a72cd11610071578063d57a72cd1461025b578063da7d5d281461027b578063e21eaa181461028e578063e3749023146102a1578063f7a48117146102c157600080fd5b8063a5bcf7f2146101e8578063a78049c8146101fb578063ab897a491461021b578063c3a833441461023b57600080fd5b806372a340d7116100de57806372a340d71461018f5780639228303f146101af5780639c7a08e6146101c2578063a16ca3d5146101d557600080fd5b80630d6b001b146101105780633bbaa76c14610125578063484620371461014e5780636af870c61461016e575b600080fd5b61012361011e3660046123a2565b6102d4565b005b610138610133366004612537565b61031b565b6040516101459190612691565b60405180910390f35b61016161015c3660046123a2565b61053d565b60405161014591906128e0565b61018161017c366004612a3c565b610cab565b604051908152602001610145565b6101a261019d366004612ae9565b6111ba565b6040516101459190612b31565b6101236101bd366004612b44565b6112ec565b6101236101d0366004612ba4565b6113dd565b6101816101e3366004612c54565b6116c8565b6101816101f6366004612c8e565b611743565b61020e6102093660046123a2565b6117ad565b6040516101459190612cf3565b61022e6102293660046123a2565b611944565b6040516101459190612d6e565b61024e6102493660046123a2565b611abc565b6040516101459190612dcd565b61026e6102693660046123a2565b611c0d565b6040516101459190612e3c565b610138610289366004612ae9565b611cf5565b61018161029c366004612e76565b611ed6565b6102b46102af366004612ec4565b611f1f565b6040516101459190612edf565b6101816102cf366004612ef2565b611f94565b6102dc611ffc565b6000828152600191820160205260408120818155918201805460ff19169055610308600283018261213e565b61031660038301600061217b565b505050565b610323612199565b600061032d61202a565b6001600160a01b038716835285516020808801919091206001600160e01b0319166040850152815490840181905290915081600061036a83612f4a565b909155505060608201846005811115610385576103856125cb565b90816005811115610398576103986125cb565b90525082516001600160401b038111156103b4576103b46123d7565b6040519080825280602002602001820160405280156103dd578160200160208202803683370190505b50608083015260005b83518110156104565783818151811061040157610401612f63565b60200260200101518360800151828151811061041f5761041f612f63565b60200260200101906005811115610438576104386125cb565b9081600581111561044b5761044b6125cb565b9052506001016103e6565b50600087815260018281016020908152604080842083018054808501825590855293829020865160049095020180546001600160a01b0319166001600160a01b03909516949094178455908501519183019190915583015160028201805463ffffffff19811660e09390931c9283178255606086015186949390929164ffffffffff1916176401000000008360058111156104f3576104f36125cb565b0217905550608082015180516105139160038401916020909101906121c9565b505050600096875260019081016020526040909620805460ff191690961790955550929392505050565b61054561227d565b61054d612058565b60008381526001918201602090815260409182902082518084018452815460ff161515815283519482018054610120818602880181019096526101008701818152929693959487019491928492909184918401828280156105cd57602002820191906000526020600020905b8154815260200190600101908083116105b9575b50505050508152602001600182016040518060600160405290816000820180548060200260200160405190810160405280929190818152602001828054801561063557602002820191906000526020600020905b815481526020019060010190808311610621575b50505050508152602001600182018054806020026020016040519081016040528092919081815260200182805480156106bd57602002820191906000526020600020906000905b82829054906101000a900460ff16600581111561069b5761069b6125cb565b81526020600192830181810494850194909303909202910180841161067c5790505b5050505050815260200160028201805480602002602001604051908101604052809291908181526020016000905b8282101561079757838290600052602060002001805461070a90612f79565b80601f016020809104026020016040519081016040528092919081815260200182805461073690612f79565b80156107835780601f1061075857610100808354040283529160200191610783565b820191906000526020600020905b81548152906001019060200180831161076657829003601f168201915b5050505050815260200190600101906106eb565b5050505081525050815260200160048201805480602002602001604051908101604052809291908181526020016000905b82821015610855576000848152602090206040805160808101909152600384029091018054829060ff166005811115610803576108036125cb565b6005811115610814576108146125cb565b815260018281015460208084019190915260029093015460ff80821615156040850152610100909104161515606090920191909152918352920191016107c8565b50505050815260200160058201805480602002602001604051908101604052809291908181526020016000905b8282101561090f576000848152602090206040805160808101909152600384029091018054829060ff1660058111156108bd576108bd6125cb565b60058111156108ce576108ce6125cb565b815260018281015460208084019190915260029093015460ff8082161515604085015261010090910416151560609092019190915291835292019101610882565b50505050815260200160068201805480602002602001604051908101604052809291908181526020016000905b82821015610a7c57838290600052602060002090600202016040518060400160405290816000820154815260200160018201805480602002602001604051908101604052809291908181526020016000905b82821015610a655760008481526020902060408051808201909152600484029091018054829060ff1660058111156109c8576109c86125cb565b60058111156109d9576109d96125cb565b81526040805160808101909152600183018054602090930192829060ff166005811115610a0857610a086125cb565b6005811115610a1957610a196125cb565b815260018281015460208084019190915260029093015460ff8082161515604085015261010090910416151560609092019190915291909252928452939091019291909101905061098e565b50505050815250508152602001906001019061093c565b50505050815260200160078201805480602002602001604051908101604052809291908181526020016000905b82821015610be957838290600052602060002090600202016040518060400160405290816000820154815260200160018201805480602002602001604051908101604052809291908181526020016000905b82821015610bd25760008481526020902060408051808201909152600484029091018054829060ff166005811115610b3557610b356125cb565b6005811115610b4657610b466125cb565b81526040805160808101909152600183018054602090930192829060ff166005811115610b7557610b756125cb565b6005811115610b8657610b866125cb565b815260018281015460208084019190915260029093015460ff80821615156040850152610100909104161515606090920191909152919092529284529390910192919091019050610afb565b505050508152505081526020019060010190610aa9565b50505050815260200160088201805480602002602001604051908101604052809291908181526020018280548015610c4057602002820191906000526020600020905b815481526020019060010190808311610c2c575b5050505050815260200160098201805480602002602001604051908101604052809291908181526020018280548015610c9857602002820191906000526020600020905b815481526020019060010190808311610c84575b5050509190925250505090525092915050565b600080610cb6612086565b9050868514610d235760405162461bcd60e51b815260206004820152602e60248201527f5369676e61747572657320616e64207369676e6174757265206964277320617260448201526d19481a5b98dbdb9cda5cdd195b9d60921b60648201526084015b60405180910390fd5b88600003610d535780546001908101808355600081815282840160205260409020805460ff191690921790915598505b82156110cc5760005b878110156110c657610d85878783818110610d7957610d79612f63565b90506020020135611c0d565b51610dc65760405162461bcd60e51b8152602060048201526011602482015270496e76616c6964205369676e617475726560781b6044820152606401610d1a565b868682818110610dd857610dd8612f63565b905060200201358260010160008c81526020019081526020016000206001016000018a8a84818110610e0c57610e0c612f63565b9050602002810190610e1e9190612fad565b604051610e2c929190612ff3565b9081526040519081900360200190205560005b858583818110610e5157610e51612f63565b9050602002810190610e639190613003565b9050811015611039576000610eb1878785818110610e8357610e83612f63565b9050602002810190610e959190613003565b84818110610ea557610ea5612f63565b9050602002013561053d565b8051909150610ef15760405162461bcd60e51b815260206004820152600c60248201526b496e76616c69642052756c6560a01b6044820152606401610d1a565b60005b8160200151604001515181101561102f578160200151604001518181518110610f1f57610f1f612f63565b60200260200101516060015115610f9b57610f398d6117ad565b51610f965760405162461bcd60e51b815260206004820152602760248201527f466f726569676e2043616c6c207265666572656e63656420696e2072756c65206044820152661b9bdd081cd95d60ca1b6064820152608401610d1a565b611027565b8160200151604001518181518110610fb557610fb5612f63565b6020026020010151604001511561102757610fcf8d611abc565b516110275760405162461bcd60e51b815260206004820152602260248201527f547261636b6572207265666572656e63656420696e2072756c65206e6f742073604482015261195d60f21b6064820152608401610d1a565b600101610ef4565b5050600101610e3f565b5084848281811061104c5761104c612f63565b905060200281019061105e9190613003565b60008c815260018501602052604090206002018b8b8581811061108357611083612f63565b90506020028101906110959190612fad565b6040516110a3929190612ff3565b9081526040519081900360200190206110bd92909161229e565b50600101610d5c565b506111ad565b60005b878110156111ab576110ec878783818110610d7957610d79612f63565b5161112d5760405162461bcd60e51b8152602060048201526011602482015270496e76616c6964205369676e617475726560781b6044820152606401610d1a565b86868281811061113f5761113f612f63565b905060200201358260010160008c81526020019081526020016000206001016000018a8a8481811061117357611173612f63565b90506020028101906111859190612fad565b604051611193929190612ff3565b908152604051908190036020019020556001016110cf565b505b5096979650505050505050565b6111c26122d9565b60006111cc6120b4565b600085815260018083016020526040909120805460ff191682178155919250908101906111f9908561304c565b8154811061120957611209612f63565b60009182526020909120604080518082019091526002909202018054829060ff16600581111561123b5761123b6125cb565b600581111561124c5761124c6125cb565b815260200160018201805461126090612f79565b80601f016020809104026020016040519081016040528092919081815260200182805461128c90612f79565b80156112d95780601f106112ae576101008083540402835291602001916112d9565b820191906000526020600020905b8154815290600101906020018083116112bc57829003601f168201915b5050505050815250509150505b92915050565b60006112f66120e2565b9050816001600160401b03811115611310576113106123d7565b604051908082528060200260200182016040528015611339578160200160208202803683370190505b506001600160a01b038516600090815260208381526040909120825161136593919291909101906122eb565b5060005b828110156113d65783838281811061138357611383612f63565b90506020020135826000016000876001600160a01b03166001600160a01b0316815260200190815260200160002082815481106113c2576113c2612f63565b600091825260209091200155600101611369565b5050505050565b60006113e76120b4565b6000888152600180830160205260408220805460ff191690911790559091505b60008881526001808401602052604090912001548110156116be5760026000898152600180850160205260409091200180548390811061144957611449612f63565b600091825260209091206002909102015460ff16600581111561146e5761146e6125cb565b036114d6576040805160208101899052015b60408051601f1981840301815291815260008a81526001808601602052919020018054839081106114b3576114b3612f63565b906000526020600020906002020160010190816114d091906130c6565b506116b6565b6000888152600183810160205260408220018054839081106114fa576114fa612f63565b600091825260209091206002909102015460ff16600581111561151f5761151f6125cb565b0361153d57604080516001600160a01b038816602082015201611480565b60016000898152600180850160205260409091200180548390811061156457611564612f63565b600091825260209091206002909102015460ff166005811115611589576115896125cb565b0361159f5784604051602001611480919061317e565b6003600089815260018085016020526040909120018054839081106115c6576115c6612f63565b600091825260209091206002909102015460ff1660058111156115eb576115eb6125cb565b036116025760408051851515602082015201611480565b60056000898152600180850160205260409091200180548390811061162957611629612f63565b600091825260209091206002909102015460ff16600581111561164e5761164e6125cb565b036116b65782604051602001611664919061317e565b60408051601f1981840301815291815260008a815260018086016020529190200180548390811061169757611697612f63565b906000526020600020906002020160010190816116b491906130c6565b505b600101611407565b5050505050505050565b6000806116d3611ffc565b90508235156117055782356000908152600182016020526040902083906116fa8282613214565b50508235915061173d565b805481600061171383612f4a565b909155505080546000908152600182016020526040902083906117368282613214565b5050805491505b50919050565b60008061174e612110565b90508460000361176357805460010180825594505b6000858152600182810160209081526040909220805464ffffffffff191661010060e089901c02178217815585516117a3939190920191908601906121c9565b5093949350505050565b6040805180820190915260008152606060208201526117ca61202a565b600083815260019182016020908152604080832081518083018352815460ff1615158152948101805483518186028101860190945280845291948685019491929184015b828210156119365760008481526020908190206040805160a0810182526004860290920180546001600160a01b03168352600181015493830193909352600283015460e081901b6001600160e01b031916918301919091529091906060830190640100000000900460ff16600581111561188a5761188a6125cb565b600581111561189b5761189b6125cb565b81526020016003820180548060200260200160405190810160405280929190818152602001828054801561191e57602002820191906000526020600020906000905b82829054906101000a900460ff1660058111156118fc576118fc6125cb565b8152602060019283018181049485019490930390920291018084116118dd5790505b5050505050815250508152602001906001019061180e565b505050915250909392505050565b60408051608081018252600080825260208201526060918101829052818101919091526000611971611ffc565b60008481526001808301602090815260409283902083516080810190945280548452918201549394509192909183019060ff1660028111156119b5576119b56125cb565b60028111156119c6576119c66125cb565b81526020016002820180546119da90612f79565b80601f0160208091040260200160405190810160405280929190818152602001828054611a0690612f79565b8015611a535780601f10611a2857610100808354040283529160200191611a53565b820191906000526020600020905b815481529060010190602001808311611a3657829003601f168201915b5050505050815260200160038201805480602002602001604051908101604052809291908181526020018280548015611aab57602002820191906000526020600020905b815481526020019060010190808311611a97575b505050505081525050915050919050565b604080518082019091526000815260606020820152611ad96120b4565b600083815260019182016020908152604080832081518083018352815460ff1615158152948101805483518186028101860190945280845291948685019491929184015b828210156119365760008481526020902060408051808201909152600284029091018054829060ff166005811115611b5757611b576125cb565b6005811115611b6857611b686125cb565b8152602001600182018054611b7c90612f79565b80601f0160208091040260200160405190810160405280929190818152602001828054611ba890612f79565b8015611bf55780601f10611bca57610100808354040283529160200191611bf5565b820191906000526020600020905b815481529060010190602001808311611bd857829003601f168201915b50505050508152505081526020019060010190611b1d565b60408051606080820183526000808352602083015291810191909152611c31612110565b6000838152600191820160209081526040918290208251606081018452815460ff811615158252610100900460e01b6001600160e01b03191681840152938101805484518185028101850186528181529294860193830182828015611ce557602002820191906000526020600020906000905b82829054906101000a900460ff166005811115611cc357611cc36125cb565b815260206001928301818104948501949093039092029101808411611ca45790505b5050505050815250509050919050565b611cfd612199565b6000611d0761202a565b90506000816001016000868152602001908152602001600020600101805480602002602001604051908101604052809291908181526020016000905b82821015611e6b5760008481526020908190206040805160a0810182526004860290920180546001600160a01b03168352600181015493830193909352600283015460e081901b6001600160e01b031916918301919091529091906060830190640100000000900460ff166005811115611dbf57611dbf6125cb565b6005811115611dd057611dd06125cb565b815260200160038201805480602002602001604051908101604052809291908181526020018280548015611e5357602002820191906000526020600020906000905b82829054906101000a900460ff166005811115611e3157611e316125cb565b815260206001928301818104948501949093039092029101808411611e125790505b50505050508152505081526020019060010190611d43565b50505050905060005b8151811015611ecd5784828281518110611e9057611e90612f63565b60200260200101516020015103611ec557818181518110611eb357611eb3612f63565b602002602001015193505050506112e6565b600101611e74565b50505092915050565b600080611ee1612058565b905083600003611ef657805460010180825593505b600084815260018281016020526040909120805460ff1916821781558491016117a38282613b51565b6060611f296120e2565b6001600160a01b0383166000908152602091825260409081902080548251818502810185019093528083529192909190830182828015611f8857602002820191906000526020600020905b815481526020019060010190808311611f74575b50505050509050919050565b600080611f9f6120b4565b60008581526001808301602090815260408320805460ff19168317815582018054928301815583529091209192508491600290910201611fdf8282613c9e565b505060008481526001918201602052604090200154905092915050565b6000806112e660017fa20ccc0f361172c64aee455725565388ac48042f76faa22118b1aef04800fafc61304c565b6000806112e660017f1f3305601ed940efccf797d76856e5fe70659a8a6905d64c9f236321df91e71861304c565b6000806112e660017f5c91f63a4ffcbd372b8ec622fd1fcaaa601b66330afdb30e5c292dd9123f20b061304c565b6000806112e660017ff9dbd639dd2ea165d77dd4c51dec420100d51ceacf023b1c40faa045ba8f9a6561304c565b6000806112e660017f438102ff677bc3f21830c58117a05d6b953b31e3ea339da3f17957cd3941a69061304c565b6000806112e660017f1544053a94493269e0aa160e5aa5b54d19ee6492c78b8bd3af283b912c78cdeb61304c565b6000806112e660017f8b87534450a5488e76eda19b94ce784ed5d5fd327ac126c78047b6b2a04cf2f661304c565b50805461214a90612f79565b6000825580601f1061215a575050565b601f0160209004906000526020600020908101906121789190612326565b50565b50805460008255906000526020600020908101906121789190612326565b6040805160a0810182526000808252602082018190529181018290529060608201905b8152602001606081525090565b82805482825590600052602060002090601f0160209004810192821561226d5791602002820160005b8382111561223e57835183826101000a81548160ff0219169083600581111561221d5761221d6125cb565b021790555092602001926001016020816000010492830192600103026121f2565b801561226b5782816101000a81549060ff021916905560010160208160000104928301926001030261223e565b505b50612279929150612326565b5090565b604051806040016040528060001515815260200161229961233b565b905290565b82805482825590600052602060002090810192821561226d579160200282015b8281111561226d5782358255916020019190600101906122be565b604080518082019091528060006121bc565b82805482825590600052602060002090810192821561226d579160200282015b8281111561226d57825182559160200191906001019061230b565b5b808211156122795760008155600101612327565b6040518061010001604052806060815260200161237260405180606001604052806060815260200160608152602001606081525090565b81526020016060815260200160608152602001606081526020016060815260200160608152602001606081525090565b6000602082840312156123b457600080fd5b5035919050565b80356001600160a01b03811681146123d257600080fd5b919050565b634e487b7160e01b600052604160045260246000fd5b604051601f8201601f191681016001600160401b0381118282101715612415576124156123d7565b604052919050565b6000806001600160401b03841115612437576124376123d7565b50601f8301601f191660200161244c816123ed565b91505082815283838301111561246157600080fd5b828260208301376000602084830101529392505050565b600082601f83011261248957600080fd5b6124988383356020850161241d565b9392505050565b6006811061217857600080fd5b600082601f8301126124bd57600080fd5b81356001600160401b038111156124d6576124d66123d7565b8060051b6124e6602082016123ed565b9182526020818501810192908101908684111561250257600080fd5b6020860192505b8383101561252d57823561251c8161249f565b825260209283019290910190612509565b9695505050505050565b600080600080600060a0868803121561254f57600080fd5b8535945061255f602087016123bb565b935060408601356001600160401b0381111561257a57600080fd5b61258688828901612478565b93505060608601356125978161249f565b915060808601356001600160401b038111156125b257600080fd5b6125be888289016124ac565b9150509295509295909350565b634e487b7160e01b600052602160045260246000fd5b600681106125f1576125f16125cb565b9052565b600081518084526020840193506020830160005b828110156117a35761261c8683516125e1565b6020958601959190910190600101612609565b80516001600160a01b03168252602080820151908301526040808201516001600160e01b0319169083015260608082015160009161266f908501826125e1565b50608082015160a0608085015261268960a08501826125f5565b949350505050565b602081526000612498602083018461262f565b600081518084526020840193506020830160005b828110156117a35781518652602095860195909101906001016126b8565b6000815180845260005b818110156126fc576020818501810151868301820152016126e0565b506000602082860101526020601f19601f83011685010191505092915050565b600081516060845261273160608501826126a4565b90506020830151848203602086015261274a82826125f5565b9150506040830151848203604086015281815180845260208401915060208160051b85010160208401935060005b828110156127a957601f198683030184526127948286516126d6565b60209586019594909401939150600101612778565b50979650505050505050565b6127c08282516125e1565b602081015160208301526040810151151560408301526060810151151560608301525050565b600081518084526020840193506020830160005b828110156117a35761280d8683516127b5565b60809590950194602091909101906001016127fa565b600082825180855260208501945060208160051b8301016020850160005b838110156128d457848303601f190188528151805184526020908101516040828601819052815190860181905291019060009060608601905b808310156128bb57835161288f8382516125e1565b602081015190506128a360208401826127b5565b5060a08201915060208401935060018301925061287a565b5060209a8b019a90955093909301925050600101612841565b50909695505050505050565b6020815281511515602082015260006020830151604080840152805161010060608501526129126101608501826126a4565b90506020820151605f1985830301608086015261292f828261271c565b9150506040820151605f198583030160a086015261294d82826127e6565b9150506060820151605f198583030160c086015261296b82826127e6565b9150506080820151605f198583030160e08601526129898282612823565b91505060a0820151605f19858303016101008601526129a88282612823565b91505060c0820151605f19858303016101208601526129c782826126a4565b91505060e08201519150605f19848203016101408501526129e881836126a4565b95945050505050565b60008083601f840112612a0357600080fd5b5081356001600160401b03811115612a1a57600080fd5b6020830191508360208260051b8501011115612a3557600080fd5b9250929050565b60008060008060008060006080888a031215612a5757600080fd5b8735965060208801356001600160401b03811115612a7457600080fd5b612a808a828b016129f1565b90975095505060408801356001600160401b03811115612a9f57600080fd5b612aab8a828b016129f1565b90955093505060608801356001600160401b03811115612aca57600080fd5b612ad68a828b016129f1565b989b979a50959850939692959293505050565b60008060408385031215612afc57600080fd5b50508035926020909101359150565b612b168282516125e1565b600060208201516040602085015261268960408501826126d6565b6020815260006124986020830184612b0b565b600080600060408486031215612b5957600080fd5b612b62846123bb565b925060208401356001600160401b03811115612b7d57600080fd5b612b89868287016129f1565b9497909650939450505050565b801515811461217857600080fd5b60008060008060008060c08789031215612bbd57600080fd5b8635955060208701359450612bd4604088016123bb565b935060608701356001600160401b03811115612bef57600080fd5b612bfb89828a01612478565b9350506080870135612c0c81612b96565b915060a08701356001600160401b03811115612c2757600080fd5b8701601f81018913612c3857600080fd5b612c478982356020840161241d565b9150509295509295509295565b600060208284031215612c6657600080fd5b81356001600160401b03811115612c7c57600080fd5b82016080818503121561249857600080fd5b600080600060608486031215612ca357600080fd5b8335925060208401356001600160e01b031981168114612cc257600080fd5b915060408401356001600160401b03811115612cdd57600080fd5b612ce9868287016124ac565b9150509250925092565b60208152600060608201835115156020840152602084015160408085015281815180845260808601915060808160051b870101935060208301925060005b81811015612d6257607f19878603018352612d4d85855161262f565b94506020938401939290920191600101612d31565b50929695505050505050565b60208152815160208201526000602083015160038110612d9057612d906125cb565b80604084015250604083015160806060840152612db060a08401826126d6565b90506060840151601f198483030160808501526129e882826126a4565b60208152600060608201835115156020840152602084015160408085015281815180845260808601915060808160051b870101935060208301925060005b81811015612d6257607f19878603018352612e27858551612b0b565b94506020938401939290920191600101612e0b565b6020815281511515602082015263ffffffff60e01b60208301511660408201526000604083015160608084015261268960808401826125f5565b60008060408385031215612e8957600080fd5b8235915060208301356001600160401b03811115612ea657600080fd5b83016101008186031215612eb957600080fd5b809150509250929050565b600060208284031215612ed657600080fd5b612498826123bb565b60208152600061249860208301846126a4565b60008060408385031215612f0557600080fd5b8235915060208301356001600160401b03811115612f2257600080fd5b830160408186031215612eb957600080fd5b634e487b7160e01b600052601160045260246000fd5b600060018201612f5c57612f5c612f34565b5060010190565b634e487b7160e01b600052603260045260246000fd5b600181811c90821680612f8d57607f821691505b60208210810361173d57634e487b7160e01b600052602260045260246000fd5b6000808335601e19843603018112612fc457600080fd5b8301803591506001600160401b03821115612fde57600080fd5b602001915036819003821315612a3557600080fd5b8183823760009101908152919050565b6000808335601e1984360301811261301a57600080fd5b8301803591506001600160401b0382111561303457600080fd5b6020019150600581901b3603821315612a3557600080fd5b818103818111156112e6576112e6612f34565b5b818110156130745760008155600101613060565b5050565b601f82111561031657806000526020600020601f840160051c8101602085101561309f5750805b6113d6601f850160051c83018261305f565b600019600383901b1c191660019190911b1790565b81516001600160401b038111156130df576130df6123d7565b6130f3816130ed8454612f79565b84613078565b6020601f821160018114613121576000831561310f5750848201515b61311984826130b1565b8555506113d6565b600084815260208120601f198516915b828110156131515787850151825560209485019460019092019101613131565b508482101561316f5786840151600019600387901b60f8161c191681555b50505050600190811b01905550565b60208152600061249860208301846126d6565b6001600160401b038311156131a8576131a86123d7565b600160401b8311156131bc576131bc6123d7565b8054838255808410156131e2578160005260206000206131e082820186830161305f565b505b508181600052602060002060005b8581101561320c578235828201556020909201916001016131f0565b505050505050565b813581556001810160208301356003811080159061323157600080fd5b50815460ff191660ff91909116179055600281016132526040840184612fad565b6001600160401b03811115613269576132696123d7565b61327d816132778554612f79565b85613078565b6000601f8211600181146132ab57600083156132995750838201355b6132a384826130b1565b865550613304565b600085815260208120601f198516915b828110156132db57868501358255602094850194600190920191016132bb565b50848210156132f85760001960f88660031b161c19848701351681555b505060018360011b0185555b50505050506133166060830183613003565b613324818360038601613191565b50505050565b60008235605e1983360301811261334057600080fd5b9190910192915050565b600160401b82111561335e5761335e6123d7565b80548282558083101561031657816000526020600020601f840160051c8101601f8516801561339e57600019820180546000198360200360031b1c168155505b506113d6601f840160051c83018261305f565b600081356112e68161249f565b6001600160401b038311156133d5576133d56123d7565b6133df838261334a565b60008181526020902082908460051c60005b81811015613447576000805b602081101561343a57613429613412876133b1565b60ff908116600384901b90811b91901b1984161790565b6020969096019591506001016133fd565b50838201556001016133f1565b50601f1986168087038188146116be576000805b828110156134805761346f613412886133b1565b60209790970196915060010161345b565b50848401555050505050505050565b6001600160401b038311156134a6576134a66123d7565b6134ba836134b48354612f79565b83613078565b6000601f8411600181146134e857600085156134d65750838201355b6134e086826130b1565b8455506113d6565b600083815260209020601f19861690835b8281101561351957868501358255602094850194600190920191016134f9565b50868210156135365760001960f88860031b161c19848701351681555b505060018560011b0183555050505050565b600160401b83111561355c5761355c6123d7565b8054838255808410156135e4576000828152602090208481019082015b808210156135e15761358b8254612f79565b80156135d557601f8111600181146135a657600084556135d3565b6000848152602090206135c4601f840160051c82016001830161305f565b50600084815260208120818655555b505b50600182019150613579565b50505b5060008181526020812083915b8581101561320c576136038386612fad565b61360e81838661348f565b505060209290920191600191820191016135f1565b61362d8283613003565b6001600160401b03811115613644576136446123d7565b600160401b811115613658576136586123d7565b82548184558082101561367e5783600052602060002061367c82820184830161305f565b505b5082600052602060002060005b828110156136a75783358282015560209093019260010161368b565b505050506136b86020830183613003565b6136c68183600186016133be565b50506136d56040830183613003565b613324818360028601613548565b6000808335601e198436030181126136fa57600080fd5b8301803591506001600160401b0382111561371457600080fd5b6020019150600781901b3603821315612a3557600080fd5b6006821061373c5761373c6125cb565b60ff1981541660ff831681178255505050565b813561375a8161249f565b613764818361372c565b506020820135600182015560028101604083013561378181612b96565b8154606085013561379181612b96565b61ff0081151560081b1660ff8415151661ffff19841617178455505050505050565b600160401b8311156137c7576137c76123d7565b80548382558084101561383357806003026003810482146137ea576137ea612f34565b8460030260038104861461380057613800612f34565b60008481526020902091820191015b8181101561383057600080825560018201819055600282015560030161380f565b50505b5060008181526020812083915b8581101561320c57613852838361374f565b6080929092019160039190910190600101613840565b60008235603e1983360301811261334057600080fd5b60008154600083558015610316576001600160fe1b03811681146138a4576138a4612f34565b60009150828252602082208160021b81015b808210156113d6578382556138dd6001830160008155600060018201556000600282015550565b6004820191506138b6565b600160401b8211156138fc576138fc6123d7565b805482825580831015610316576001600160fe1b038116811461392157613921612f34565b6001600160fe1b038316831461393957613939612f34565b8160005260206000208160021b81018460021b820191505b808210156113d657600082556139796001830160008155600060018201556000600282015550565b600482019150613951565b8135815560018101602083013536849003601e190181126139a457600080fd5b830180356001600160401b038111156139bc57600080fd5b60208201915060a0810236038213156139d457600080fd5b6139de81846138e8565b600092835260208320925b8181101561320c5782356139fc8161249f565b613a06818661372c565b506020830135613a158161249f565b613a22816001870161372c565b5060408301356002850155600384016060840135613a3f81612b96565b81546080860135613a4f81612b96565b61ffff199190911691151560ff169190911790151560081b61ff00161790556004939093019260a092909201916001016139e9565b600160401b831115613a9857613a986123d7565b805483825580841015613b13576001600160ff1b0381168114613abd57613abd612f34565b6001600160ff1b0384168414613ad557613ad5612f34565b8160005260206000208160011b81018560011b820191505b80821015613b105760008255613b056001830161387e565b600282019150613aed565b50505b5060008181526020812083915b8581101561320c57613b3b613b358487613868565b83613984565b6020929092019160029190910190600101613b20565b613b5b8283613003565b6001600160401b03811115613b7257613b726123d7565b600160401b811115613b8657613b866123d7565b825481845580821015613bac57836000526020600020613baa82820184830161305f565b505b5082600052602060002060005b82811015613bd557833582820155602090930192600101613bb9565b50505050613bf2613be9602084018461332a565b60018301613623565b613bff60408301836136e3565b613c0d8183600486016137b3565b5050613c1c60608301836136e3565b613c2a8183600586016137b3565b5050613c396080830183613003565b613c47818360068601613a84565b5050613c5660a0830183613003565b613c64818360078601613a84565b5050613c7360c0830183613003565b613c81818360088601613191565b5050613c9060e0830183613003565b613324818360098601613191565b8135613ca98161249f565b613cb3818361372c565b5060018101613cc56020840184612fad565b6001600160401b03811115613cdc57613cdc6123d7565b613cea816132778554612f79565b6000601f821160018114613d185760008315613d065750838201355b613d1084826130b1565b865550613d72565b600085815260209020601f19841690835b82811015613d495786850135825560209485019460019092019101613d29565b5084821015613d665760001960f88660031b161c19848701351681555b505060018360011b0185555b5050505050505056fea2646970667358221220293aa1b45268242137e38df05acb9824a72cc6ad174ad9b0538cb98bf3bde25f64736f6c634300081b0033","linkReferences":{}},"methodIdentifiers":{"addTracker(uint256,(uint8,bytes))":"f7a48117","applyPolicy(address,uint256[])":"9228303f","deleteEffect(uint256)":"0d6b001b","getAppliedPolicyIds(address)":"e3749023","getEffect(uint256)":"ab897a49","getForeignCall(uint256)":"a78049c8","getForeignCall(uint256,uint256)":"da7d5d28","getFunctionSignature(uint256)":"d57a72cd","getRule(uint256)":"48462037","getTracker(uint256)":"c3a83344","getTracker(uint256,uint256)":"72a340d7","updateEffect((uint256,uint8,string,uint256[]))":"a16ca3d5","updateForeignCall(uint256,address,string,uint8,uint8[])":"3bbaa76c","updateFunctionSignature(uint256,bytes4,uint8[])":"a5bcf7f2","updatePolicy(uint256,bytes[],uint256[],uint256[][])":"6af870c6","updateRule(uint256,(uint256[],(uint256[],uint8[],bytes[]),(uint8,uint256,bool,bool)[],(uint8,uint256,bool,bool)[],(uint256,(uint8,(uint8,uint256,bool,bool))[])[],(uint256,(uint8,(uint8,uint256,bool,bool))[])[],uint256[],uint256[]))":"e21eaa18","updateTracker(uint256,uint256,address,string,bool,bytes)":"9c7a08e6"},"id":44}