{"abi":[{"type":"function","name":"addTracker","inputs":[{"name":"_policyId","type":"uint256","internalType":"uint256"},{"name":"tracker","type":"tuple","internalType":"struct Trackers","components":[{"name":"pType","type":"uint8","internalType":"enum PT"},{"name":"trackerValue","type":"bytes","internalType":"bytes"}]}],"outputs":[{"name":"","type":"uint256","internalType":"uint256"}],"stateMutability":"nonpayable"},{"type":"function","name":"applyPolicy","inputs":[{"name":"_contractAddress","type":"address","internalType":"address"},{"name":"_policyId","type":"uint256[]","internalType":"uint256[]"}],"outputs":[],"stateMutability":"nonpayable"},{"type":"function","name":"getAppliedPolicyIds","inputs":[{"name":"_contractAddress","type":"address","internalType":"address"}],"outputs":[{"name":"","type":"uint256[]","internalType":"uint256[]"}],"stateMutability":"view"},{"type":"function","name":"getForeignCall","inputs":[{"name":"_policyId","type":"uint256","internalType":"uint256"}],"outputs":[{"name":"fc","type":"tuple","internalType":"struct ForeignCallSet","components":[{"name":"set","type":"bool","internalType":"bool"},{"name":"foreignCalls","type":"tuple[]","internalType":"struct ForeignCall[]","components":[{"name":"foreignCallAddress","type":"address","internalType":"address"},{"name":"foreignCallIndex","type":"uint256","internalType":"uint256"},{"name":"signature","type":"bytes4","internalType":"bytes4"},{"name":"returnType","type":"uint8","internalType":"enum PT"},{"name":"parameterTypes","type":"uint8[]","internalType":"enum PT[]"}]}]}],"stateMutability":"view"},{"type":"function","name":"getForeignCall","inputs":[{"name":"_policyId","type":"uint256","internalType":"uint256"},{"name":"_foreignCallId","type":"uint256","internalType":"uint256"}],"outputs":[{"name":"fc","type":"tuple","internalType":"struct ForeignCall","components":[{"name":"foreignCallAddress","type":"address","internalType":"address"},{"name":"foreignCallIndex","type":"uint256","internalType":"uint256"},{"name":"signature","type":"bytes4","internalType":"bytes4"},{"name":"returnType","type":"uint8","internalType":"enum PT"},{"name":"parameterTypes","type":"uint8[]","internalType":"enum PT[]"}]}],"stateMutability":"view"},{"type":"function","name":"getFunctionSignature","inputs":[{"name":"_functionSignatureId","type":"uint256","internalType":"uint256"}],"outputs":[{"name":"","type":"tuple","internalType":"struct FunctionSignatureStorageSet","components":[{"name":"set","type":"bool","internalType":"bool"},{"name":"signature","type":"bytes4","internalType":"bytes4"},{"name":"parameterTypes","type":"uint8[]","internalType":"enum PT[]"}]}],"stateMutability":"view"},{"type":"function","name":"getRule","inputs":[{"name":"_ruleId","type":"uint256","internalType":"uint256"}],"outputs":[{"name":"","type":"tuple","internalType":"struct RuleStorageSet","components":[{"name":"set","type":"bool","internalType":"bool"},{"name":"rule","type":"tuple","internalType":"struct Rule","components":[{"name":"instructionSet","type":"uint256[]","internalType":"uint256[]"},{"name":"rawData","type":"tuple","internalType":"struct RawData","components":[{"name":"instructionSetIndex","type":"uint256[]","internalType":"uint256[]"},{"name":"argumentTypes","type":"uint8[]","internalType":"enum PT[]"},{"name":"dataValues","type":"bytes[]","internalType":"bytes[]"}]},{"name":"placeHolders","type":"tuple[]","internalType":"struct Placeholder[]","components":[{"name":"pType","type":"uint8","internalType":"enum PT"},{"name":"typeSpecificIndex","type":"uint256","internalType":"uint256"},{"name":"trackerValue","type":"bool","internalType":"bool"},{"name":"foreignCall","type":"bool","internalType":"bool"}]},{"name":"effectPlaceHolders","type":"tuple[]","internalType":"struct Placeholder[]","components":[{"name":"pType","type":"uint8","internalType":"enum PT"},{"name":"typeSpecificIndex","type":"uint256","internalType":"uint256"},{"name":"trackerValue","type":"bool","internalType":"bool"},{"name":"foreignCall","type":"bool","internalType":"bool"}]},{"name":"fcArgumentMappingsConditions","type":"tuple[]","internalType":"struct ForeignCallArgumentMappings[]","components":[{"name":"foreignCallIndex","type":"uint256","internalType":"uint256"},{"name":"mappings","type":"tuple[]","internalType":"struct IndividualArgumentMapping[]","components":[{"name":"functionCallArgumentType","type":"uint8","internalType":"enum PT"},{"name":"functionSignatureArg","type":"tuple","internalType":"struct Placeholder","components":[{"name":"pType","type":"uint8","internalType":"enum PT"},{"name":"typeSpecificIndex","type":"uint256","internalType":"uint256"},{"name":"trackerValue","type":"bool","internalType":"bool"},{"name":"foreignCall","type":"bool","internalType":"bool"}]}]}]},{"name":"fcArgumentMappingsEffects","type":"tuple[]","internalType":"struct ForeignCallArgumentMappings[]","components":[{"name":"foreignCallIndex","type":"uint256","internalType":"uint256"},{"name":"mappings","type":"tuple[]","internalType":"struct IndividualArgumentMapping[]","components":[{"name":"functionCallArgumentType","type":"uint8","internalType":"enum PT"},{"name":"functionSignatureArg","type":"tuple","internalType":"struct Placeholder","components":[{"name":"pType","type":"uint8","internalType":"enum PT"},{"name":"typeSpecificIndex","type":"uint256","internalType":"uint256"},{"name":"trackerValue","type":"bool","internalType":"bool"},{"name":"foreignCall","type":"bool","internalType":"bool"}]}]}]},{"name":"posEffects","type":"tuple[]","internalType":"struct Effect[]","components":[{"name":"valid","type":"bool","internalType":"bool"},{"name":"effectType","type":"uint8","internalType":"enum ET"},{"name":"text","type":"string","internalType":"string"},{"name":"instructionSet","type":"uint256[]","internalType":"uint256[]"}]},{"name":"negEffects","type":"tuple[]","internalType":"struct Effect[]","components":[{"name":"valid","type":"bool","internalType":"bool"},{"name":"effectType","type":"uint8","internalType":"enum ET"},{"name":"text","type":"string","internalType":"string"},{"name":"instructionSet","type":"uint256[]","internalType":"uint256[]"}]}]}]}],"stateMutability":"view"},{"type":"function","name":"getTracker","inputs":[{"name":"_policyId","type":"uint256","internalType":"uint256"},{"name":"index","type":"uint256","internalType":"uint256"}],"outputs":[{"name":"trackers","type":"tuple","internalType":"struct Trackers","components":[{"name":"pType","type":"uint8","internalType":"enum PT"},{"name":"trackerValue","type":"bytes","internalType":"bytes"}]}],"stateMutability":"nonpayable"},{"type":"function","name":"getTracker","inputs":[{"name":"_policyId","type":"uint256","internalType":"uint256"}],"outputs":[{"name":"trackerValuesSet","type":"tuple","internalType":"struct TrackerValuesSet","components":[{"name":"set","type":"bool","internalType":"bool"},{"name":"trackers","type":"tuple[]","internalType":"struct Trackers[]","components":[{"name":"pType","type":"uint8","internalType":"enum PT"},{"name":"trackerValue","type":"bytes","internalType":"bytes"}]}]}],"stateMutability":"view"},{"type":"function","name":"updateForeignCall","inputs":[{"name":"_policyId","type":"uint256","internalType":"uint256"},{"name":"foreignContractAddress","type":"address","internalType":"address"},{"name":"functionSignature","type":"string","internalType":"string"},{"name":"returnType","type":"uint8","internalType":"enum PT"},{"name":"arguments","type":"uint8[]","internalType":"enum PT[]"}],"outputs":[{"name":"fc","type":"tuple","internalType":"struct ForeignCall","components":[{"name":"foreignCallAddress","type":"address","internalType":"address"},{"name":"foreignCallIndex","type":"uint256","internalType":"uint256"},{"name":"signature","type":"bytes4","internalType":"bytes4"},{"name":"returnType","type":"uint8","internalType":"enum PT"},{"name":"parameterTypes","type":"uint8[]","internalType":"enum PT[]"}]}],"stateMutability":"nonpayable"},{"type":"function","name":"updateFunctionSignature","inputs":[{"name":"_functionSignatureId","type":"uint256","internalType":"uint256"},{"name":"functionSignature","type":"bytes4","internalType":"bytes4"},{"name":"pTypes","type":"uint8[]","internalType":"enum PT[]"}],"outputs":[{"name":"","type":"uint256","internalType":"uint256"}],"stateMutability":"nonpayable"},{"type":"function","name":"updatePolicy","inputs":[{"name":"_policyId","type":"uint256","internalType":"uint256"},{"name":"_signatures","type":"bytes[]","internalType":"bytes[]"},{"name":"functionSignatureIds","type":"uint256[]","internalType":"uint256[]"},{"name":"ruleIds","type":"uint256[][]","internalType":"uint256[][]"}],"outputs":[{"name":"","type":"uint256","internalType":"uint256"}],"stateMutability":"nonpayable"},{"type":"function","name":"updateRule","inputs":[{"name":"_ruleId","type":"uint256","internalType":"uint256"},{"name":"rule","type":"tuple","internalType":"struct Rule","components":[{"name":"instructionSet","type":"uint256[]","internalType":"uint256[]"},{"name":"rawData","type":"tuple","internalType":"struct RawData","components":[{"name":"instructionSetIndex","type":"uint256[]","internalType":"uint256[]"},{"name":"argumentTypes","type":"uint8[]","internalType":"enum PT[]"},{"name":"dataValues","type":"bytes[]","internalType":"bytes[]"}]},{"name":"placeHolders","type":"tuple[]","internalType":"struct Placeholder[]","components":[{"name":"pType","type":"uint8","internalType":"enum PT"},{"name":"typeSpecificIndex","type":"uint256","internalType":"uint256"},{"name":"trackerValue","type":"bool","internalType":"bool"},{"name":"foreignCall","type":"bool","internalType":"bool"}]},{"name":"effectPlaceHolders","type":"tuple[]","internalType":"struct Placeholder[]","components":[{"name":"pType","type":"uint8","internalType":"enum PT"},{"name":"typeSpecificIndex","type":"uint256","internalType":"uint256"},{"name":"trackerValue","type":"bool","internalType":"bool"},{"name":"foreignCall","type":"bool","internalType":"bool"}]},{"name":"fcArgumentMappingsConditions","type":"tuple[]","internalType":"struct ForeignCallArgumentMappings[]","components":[{"name":"foreignCallIndex","type":"uint256","internalType":"uint256"},{"name":"mappings","type":"tuple[]","internalType":"struct IndividualArgumentMapping[]","components":[{"name":"functionCallArgumentType","type":"uint8","internalType":"enum PT"},{"name":"functionSignatureArg","type":"tuple","internalType":"struct Placeholder","components":[{"name":"pType","type":"uint8","internalType":"enum PT"},{"name":"typeSpecificIndex","type":"uint256","internalType":"uint256"},{"name":"trackerValue","type":"bool","internalType":"bool"},{"name":"foreignCall","type":"bool","internalType":"bool"}]}]}]},{"name":"fcArgumentMappingsEffects","type":"tuple[]","internalType":"struct ForeignCallArgumentMappings[]","components":[{"name":"foreignCallIndex","type":"uint256","internalType":"uint256"},{"name":"mappings","type":"tuple[]","internalType":"struct IndividualArgumentMapping[]","components":[{"name":"functionCallArgumentType","type":"uint8","internalType":"enum PT"},{"name":"functionSignatureArg","type":"tuple","internalType":"struct Placeholder","components":[{"name":"pType","type":"uint8","internalType":"enum PT"},{"name":"typeSpecificIndex","type":"uint256","internalType":"uint256"},{"name":"trackerValue","type":"bool","internalType":"bool"},{"name":"foreignCall","type":"bool","internalType":"bool"}]}]}]},{"name":"posEffects","type":"tuple[]","internalType":"struct Effect[]","components":[{"name":"valid","type":"bool","internalType":"bool"},{"name":"effectType","type":"uint8","internalType":"enum ET"},{"name":"text","type":"string","internalType":"string"},{"name":"instructionSet","type":"uint256[]","internalType":"uint256[]"}]},{"name":"negEffects","type":"tuple[]","internalType":"struct Effect[]","components":[{"name":"valid","type":"bool","internalType":"bool"},{"name":"effectType","type":"uint8","internalType":"enum ET"},{"name":"text","type":"string","internalType":"string"},{"name":"instructionSet","type":"uint256[]","internalType":"uint256[]"}]}]}],"outputs":[{"name":"","type":"uint256","internalType":"uint256"}],"stateMutability":"nonpayable"},{"type":"function","name":"updateTracker","inputs":[{"name":"_policyId","type":"uint256","internalType":"uint256"},{"name":"updatedUintTracker","type":"uint256","internalType":"uint256"},{"name":"updatedAddressTracker","type":"address","internalType":"address"},{"name":"updatedStringTracker","type":"string","internalType":"string"},{"name":"updatedBoolTracker","type":"bool","internalType":"bool"},{"name":"updatedBytesTracker","type":"bytes","internalType":"bytes"}],"outputs":[],"stateMutability":"nonpayable"}],"bytecode":{"object":"0x6080604052348015600f57600080fd5b50613e0a8061001f6000396000f3fe608060405234801561001057600080fd5b50600436106100ea5760003560e01c8063a5bcf7f21161008c578063d57a72cd11610066578063d57a72cd14610203578063da7d5d2814610223578063e374902314610236578063f7a481171461025657600080fd5b8063a5bcf7f2146101b0578063a78049c8146101c3578063c3a83344146101e357600080fd5b80636af870c6116100c85780636af870c61461015557806372a340d7146101685780639228303f146101885780639c7a08e61461019d57600080fd5b806305e4eff3146100ef5780633bbaa76c146101155780634846203714610135575b600080fd5b6101026100fd3660046122e4565b610269565b6040519081526020015b60405180910390f35b6101286101233660046124b1565b6102bf565b60405161010c919061260b565b61014861014336600461261e565b6104e1565b60405161010c9190612912565b610102610163366004612a6e565b610eb3565b61017b610176366004612b1b565b6113c2565b60405161010c9190612b63565b61019b610196366004612b76565b6114f3565b005b61019b6101ab366004612bd6565b6115e4565b6101026101be366004612c86565b6118cf565b6101d66101d136600461261e565b611939565b60405161010c9190612ceb565b6101f66101f136600461261e565b611ad0565b60405161010c9190612d66565b61021661021136600461261e565b611c21565b60405161010c9190612dd5565b610128610231366004612b1b565b611d09565b610249610244366004612e0f565b611eea565b60405161010c9190612e2a565b610102610264366004612e3d565b611f5f565b600080610274611fc7565b90508360000361028957805460010180825593505b600084815260018281016020526040909120805460ff1916821781558491016102b28282613abe565b5084925050505b92915050565b6102c76120db565b60006102d1611ff5565b6001600160a01b038716835285516020808801919091206001600160e01b0319166040850152815490840181905290915081600061030e83613bda565b90915550506060820184600581111561032957610329612545565b9081600581111561033c5761033c612545565b90525082516001600160401b038111156103585761035861234e565b604051908082528060200260200182016040528015610381578160200160208202803683370190505b50608083015260005b83518110156103fa578381815181106103a5576103a5613bf3565b6020026020010151836080015182815181106103c3576103c3613bf3565b602002602001019060058111156103dc576103dc612545565b908160058111156103ef576103ef612545565b90525060010161038a565b50600087815260018281016020908152604080842083018054808501825590855293829020865160049095020180546001600160a01b0319166001600160a01b03909516949094178455908501519183019190915583015160028201805463ffffffff19811660e09390931c9283178255606086015186949390929164ffffffffff19161764010000000083600581111561049757610497612545565b0217905550608082015180516104b791600384019160209091019061210b565b505050600096875260019081016020526040909620805460ff191690961790955550929392505050565b6104e96121bf565b6104f1611fc7565b60008381526001918201602090815260409182902082518084018452815460ff1615158152835194820180546101208186028801810190965261010087018181529296939594870194919284929091849184018282801561057157602002820191906000526020600020905b81548152602001906001019080831161055d575b5050505050815260200160018201604051806060016040529081600082018054806020026020016040519081016040528092919081815260200182805480156105d957602002820191906000526020600020905b8154815260200190600101908083116105c5575b505050505081526020016001820180548060200260200160405190810160405280929190818152602001828054801561066157602002820191906000526020600020906000905b82829054906101000a900460ff16600581111561063f5761063f612545565b8152602060019283018181049485019490930390920291018084116106205790505b5050505050815260200160028201805480602002602001604051908101604052809291908181526020016000905b8282101561073b5783829060005260206000200180546106ae90613062565b80601f01602080910402602001604051908101604052809291908181526020018280546106da90613062565b80156107275780601f106106fc57610100808354040283529160200191610727565b820191906000526020600020905b81548152906001019060200180831161070a57829003601f168201915b50505050508152602001906001019061068f565b5050505081525050815260200160048201805480602002602001604051908101604052809291908181526020016000905b828210156107f9576000848152602090206040805160808101909152600384029091018054829060ff1660058111156107a7576107a7612545565b60058111156107b8576107b8612545565b815260018281015460208084019190915260029093015460ff808216151560408501526101009091041615156060909201919091529183529201910161076c565b50505050815260200160058201805480602002602001604051908101604052809291908181526020016000905b828210156108b3576000848152602090206040805160808101909152600384029091018054829060ff16600581111561086157610861612545565b600581111561087257610872612545565b815260018281015460208084019190915260029093015460ff8082161515604085015261010090910416151560609092019190915291835292019101610826565b50505050815260200160068201805480602002602001604051908101604052809291908181526020016000905b82821015610a2057838290600052602060002090600202016040518060400160405290816000820154815260200160018201805480602002602001604051908101604052809291908181526020016000905b82821015610a095760008481526020902060408051808201909152600484029091018054829060ff16600581111561096c5761096c612545565b600581111561097d5761097d612545565b81526040805160808101909152600183018054602090930192829060ff1660058111156109ac576109ac612545565b60058111156109bd576109bd612545565b815260018281015460208084019190915260029093015460ff80821615156040850152610100909104161515606090920191909152919092529284529390910192919091019050610932565b5050505081525050815260200190600101906108e0565b50505050815260200160078201805480602002602001604051908101604052809291908181526020016000905b82821015610b8d57838290600052602060002090600202016040518060400160405290816000820154815260200160018201805480602002602001604051908101604052809291908181526020016000905b82821015610b765760008481526020902060408051808201909152600484029091018054829060ff166005811115610ad957610ad9612545565b6005811115610aea57610aea612545565b81526040805160808101909152600183018054602090930192829060ff166005811115610b1957610b19612545565b6005811115610b2a57610b2a612545565b815260018281015460208084019190915260029093015460ff80821615156040850152610100909104161515606090920191909152919092529284529390910192919091019050610a9f565b505050508152505081526020019060010190610a4d565b50505050815260200160088201805480602002602001604051908101604052809291908181526020016000905b82821015610d18576000848152602090819020604080516080810190915260038502909101805460ff808216151584529293919291840191610100909104166002811115610c0a57610c0a612545565b6002811115610c1b57610c1b612545565b8152602001600182018054610c2f90613062565b80601f0160208091040260200160405190810160405280929190818152602001828054610c5b90613062565b8015610ca85780601f10610c7d57610100808354040283529160200191610ca8565b820191906000526020600020905b815481529060010190602001808311610c8b57829003601f168201915b5050505050815260200160028201805480602002602001604051908101604052809291908181526020018280548015610d0057602002820191906000526020600020905b815481526020019060010190808311610cec575b50505050508152505081526020019060010190610bba565b50505050815260200160098201805480602002602001604051908101604052809291908181526020016000905b82821015610ea3576000848152602090819020604080516080810190915260038502909101805460ff808216151584529293919291840191610100909104166002811115610d9557610d95612545565b6002811115610da657610da6612545565b8152602001600182018054610dba90613062565b80601f0160208091040260200160405190810160405280929190818152602001828054610de690613062565b8015610e335780601f10610e0857610100808354040283529160200191610e33565b820191906000526020600020905b815481529060010190602001808311610e1657829003601f168201915b5050505050815260200160028201805480602002602001604051908101604052809291908181526020018280548015610e8b57602002820191906000526020600020905b815481526020019060010190808311610e77575b50505050508152505081526020019060010190610d45565b5050509152505090525092915050565b600080610ebe612023565b9050868514610f2b5760405162461bcd60e51b815260206004820152602e60248201527f5369676e61747572657320616e64207369676e6174757265206964277320617260448201526d19481a5b98dbdb9cda5cdd195b9d60921b60648201526084015b60405180910390fd5b88600003610f5b5780546001908101808355600081815282840160205260409020805460ff191690921790915598505b82156112d45760005b878110156112ce57610f8d878783818110610f8157610f81613bf3565b90506020020135611c21565b51610fce5760405162461bcd60e51b8152602060048201526011602482015270496e76616c6964205369676e617475726560781b6044820152606401610f22565b868682818110610fe057610fe0613bf3565b905060200201358260010160008c81526020019081526020016000206001016000018a8a8481811061101457611014613bf3565b9050602002810190611026919061301c565b604051611034929190613c09565b9081526040519081900360200190205560005b85858381811061105957611059613bf3565b905060200281019061106b9190612e7f565b90508110156112415760006110b987878581811061108b5761108b613bf3565b905060200281019061109d9190612e7f565b848181106110ad576110ad613bf3565b905060200201356104e1565b80519091506110f95760405162461bcd60e51b815260206004820152600c60248201526b496e76616c69642052756c6560a01b6044820152606401610f22565b60005b8160200151604001515181101561123757816020015160400151818151811061112757611127613bf3565b602002602001015160600151156111a3576111418d611939565b5161119e5760405162461bcd60e51b815260206004820152602760248201527f466f726569676e2043616c6c207265666572656e63656420696e2072756c65206044820152661b9bdd081cd95d60ca1b6064820152608401610f22565b61122f565b81602001516040015181815181106111bd576111bd613bf3565b6020026020010151604001511561122f576111d78d611ad0565b5161122f5760405162461bcd60e51b815260206004820152602260248201527f547261636b6572207265666572656e63656420696e2072756c65206e6f742073604482015261195d60f21b6064820152608401610f22565b6001016110fc565b5050600101611047565b5084848281811061125457611254613bf3565b90506020028101906112669190612e7f565b60008c815260018501602052604090206002018b8b8581811061128b5761128b613bf3565b905060200281019061129d919061301c565b6040516112ab929190613c09565b9081526040519081900360200190206112c59290916121e0565b50600101610f64565b506113b5565b60005b878110156113b3576112f4878783818110610f8157610f81613bf3565b516113355760405162461bcd60e51b8152602060048201526011602482015270496e76616c6964205369676e617475726560781b6044820152606401610f22565b86868281811061134757611347613bf3565b905060200201358260010160008c81526020019081526020016000206001016000018a8a8481811061137b5761137b613bf3565b905060200281019061138d919061301c565b60405161139b929190613c09565b908152604051908190036020019020556001016112d7565b505b5096979650505050505050565b6113ca61221b565b60006113d4612051565b600085815260018083016020526040909120805460ff191682178155919250908101906114019085613c19565b8154811061141157611411613bf3565b60009182526020909120604080518082019091526002909202018054829060ff16600581111561144357611443612545565b600581111561145457611454612545565b815260200160018201805461146890613062565b80601f016020809104026020016040519081016040528092919081815260200182805461149490613062565b80156114e15780601f106114b6576101008083540402835291602001916114e1565b820191906000526020600020905b8154815290600101906020018083116114c457829003601f168201915b50505050508152505091505092915050565b60006114fd61207f565b9050816001600160401b038111156115175761151761234e565b604051908082528060200260200182016040528015611540578160200160208202803683370190505b506001600160a01b038516600090815260208381526040909120825161156c939192919091019061222d565b5060005b828110156115dd5783838281811061158a5761158a613bf3565b90506020020135826000016000876001600160a01b03166001600160a01b0316815260200190815260200160002082815481106115c9576115c9613bf3565b600091825260209091200155600101611570565b5050505050565b60006115ee612051565b6000888152600180830160205260408220805460ff191690911790559091505b60008881526001808401602052604090912001548110156118c55760026000898152600180850160205260409091200180548390811061165057611650613bf3565b600091825260209091206002909102015460ff16600581111561167557611675612545565b036116dd576040805160208101899052015b60408051601f1981840301815291815260008a81526001808601602052919020018054839081106116ba576116ba613bf3565b906000526020600020906002020160010190816116d79190613c2c565b506118bd565b60008881526001838101602052604082200180548390811061170157611701613bf3565b600091825260209091206002909102015460ff16600581111561172657611726612545565b0361174457604080516001600160a01b038816602082015201611687565b60016000898152600180850160205260409091200180548390811061176b5761176b613bf3565b600091825260209091206002909102015460ff16600581111561179057611790612545565b036117a657846040516020016116879190613ce4565b6003600089815260018085016020526040909120018054839081106117cd576117cd613bf3565b600091825260209091206002909102015460ff1660058111156117f2576117f2612545565b036118095760408051851515602082015201611687565b60056000898152600180850160205260409091200180548390811061183057611830613bf3565b600091825260209091206002909102015460ff16600581111561185557611855612545565b036118bd578260405160200161186b9190613ce4565b60408051601f1981840301815291815260008a815260018086016020529190200180548390811061189e5761189e613bf3565b906000526020600020906002020160010190816118bb9190613c2c565b505b60010161160e565b5050505050505050565b6000806118da6120ad565b9050846000036118ef57805460010180825594505b6000858152600182810160209081526040909220805464ffffffffff191661010060e089901c021782178155855161192f9391909201919086019061210b565b5093949350505050565b604080518082019091526000815260606020820152611956611ff5565b600083815260019182016020908152604080832081518083018352815460ff1615158152948101805483518186028101860190945280845291948685019491929184015b82821015611ac25760008481526020908190206040805160a0810182526004860290920180546001600160a01b03168352600181015493830193909352600283015460e081901b6001600160e01b031916918301919091529091906060830190640100000000900460ff166005811115611a1657611a16612545565b6005811115611a2757611a27612545565b815260200160038201805480602002602001604051908101604052809291908181526020018280548015611aaa57602002820191906000526020600020906000905b82829054906101000a900460ff166005811115611a8857611a88612545565b815260206001928301818104948501949093039092029101808411611a695790505b5050505050815250508152602001906001019061199a565b505050915250909392505050565b604080518082019091526000815260606020820152611aed612051565b600083815260019182016020908152604080832081518083018352815460ff1615158152948101805483518186028101860190945280845291948685019491929184015b82821015611ac25760008481526020902060408051808201909152600284029091018054829060ff166005811115611b6b57611b6b612545565b6005811115611b7c57611b7c612545565b8152602001600182018054611b9090613062565b80601f0160208091040260200160405190810160405280929190818152602001828054611bbc90613062565b8015611c095780601f10611bde57610100808354040283529160200191611c09565b820191906000526020600020905b815481529060010190602001808311611bec57829003601f168201915b50505050508152505081526020019060010190611b31565b60408051606080820183526000808352602083015291810191909152611c456120ad565b6000838152600191820160209081526040918290208251606081018452815460ff811615158252610100900460e01b6001600160e01b03191681840152938101805484518185028101850186528181529294860193830182828015611cf957602002820191906000526020600020906000905b82829054906101000a900460ff166005811115611cd757611cd7612545565b815260206001928301818104948501949093039092029101808411611cb85790505b5050505050815250509050919050565b611d116120db565b6000611d1b611ff5565b90506000816001016000868152602001908152602001600020600101805480602002602001604051908101604052809291908181526020016000905b82821015611e7f5760008481526020908190206040805160a0810182526004860290920180546001600160a01b03168352600181015493830193909352600283015460e081901b6001600160e01b031916918301919091529091906060830190640100000000900460ff166005811115611dd357611dd3612545565b6005811115611de457611de4612545565b815260200160038201805480602002602001604051908101604052809291908181526020018280548015611e6757602002820191906000526020600020906000905b82829054906101000a900460ff166005811115611e4557611e45612545565b815260206001928301818104948501949093039092029101808411611e265790505b50505050508152505081526020019060010190611d57565b50505050905060005b8151811015611ee15784828281518110611ea457611ea4613bf3565b60200260200101516020015103611ed957818181518110611ec757611ec7613bf3565b602002602001015193505050506102b9565b600101611e88565b50505092915050565b6060611ef461207f565b6001600160a01b0383166000908152602091825260409081902080548251818502810185019093528083529192909190830182828015611f5357602002820191906000526020600020905b815481526020019060010190808311611f3f575b50505050509050919050565b600080611f6a612051565b60008581526001808301602090815260408320805460ff19168317815582018054928301815583529091209192508491600290910201611faa8282613cf7565b505060008481526001918201602052604090200154905092915050565b6000806102b960017f5c91f63a4ffcbd372b8ec622fd1fcaaa601b66330afdb30e5c292dd9123f20b0613c19565b6000806102b960017f1f3305601ed940efccf797d76856e5fe70659a8a6905d64c9f236321df91e718613c19565b6000806102b960017ff9dbd639dd2ea165d77dd4c51dec420100d51ceacf023b1c40faa045ba8f9a65613c19565b6000806102b960017f438102ff677bc3f21830c58117a05d6b953b31e3ea339da3f17957cd3941a690613c19565b6000806102b960017f1544053a94493269e0aa160e5aa5b54d19ee6492c78b8bd3af283b912c78cdeb613c19565b6000806102b960017f8b87534450a5488e76eda19b94ce784ed5d5fd327ac126c78047b6b2a04cf2f6613c19565b6040805160a0810182526000808252602082018190529181018290529060608201905b8152602001606081525090565b82805482825590600052602060002090601f016020900481019282156121af5791602002820160005b8382111561218057835183826101000a81548160ff0219169083600581111561215f5761215f612545565b02179055509260200192600101602081600001049283019260010302612134565b80156121ad5782816101000a81549060ff0219169055600101602081600001049283019260010302612180565b505b506121bb929150612268565b5090565b60405180604001604052806000151581526020016121db61227d565b905290565b8280548282559060005260206000209081019282156121af579160200282015b828111156121af578235825591602001919060010190612200565b604080518082019091528060006120fe565b8280548282559060005260206000209081019282156121af579160200282015b828111156121af57825182559160200191906001019061224d565b5b808211156121bb5760008155600101612269565b604051806101000160405280606081526020016122b460405180606001604052806060815260200160608152602001606081525090565b81526020016060815260200160608152602001606081526020016060815260200160608152602001606081525090565b600080604083850312156122f757600080fd5b8235915060208301356001600160401b0381111561231457600080fd5b8301610100818603121561232757600080fd5b809150509250929050565b80356001600160a01b038116811461234957600080fd5b919050565b634e487b7160e01b600052604160045260246000fd5b604051601f8201601f191681016001600160401b038111828210171561238c5761238c61234e565b604052919050565b6000806001600160401b038411156123ae576123ae61234e565b50601f8301601f19166020016123c381612364565b9150508281528383830111156123d857600080fd5b828260208301376000602084830101529392505050565b600082601f83011261240057600080fd5b61240f83833560208501612394565b9392505050565b6006811061242357600080fd5b50565b600082601f83011261243757600080fd5b81356001600160401b038111156124505761245061234e565b8060051b61246060208201612364565b9182526020818501810192908101908684111561247c57600080fd5b6020860192505b838310156124a757823561249681612416565b825260209283019290910190612483565b9695505050505050565b600080600080600060a086880312156124c957600080fd5b853594506124d960208701612332565b935060408601356001600160401b038111156124f457600080fd5b612500888289016123ef565b935050606086013561251181612416565b915060808601356001600160401b0381111561252c57600080fd5b61253888828901612426565b9150509295509295909350565b634e487b7160e01b600052602160045260246000fd5b6006811061256b5761256b612545565b9052565b600081518084526020840193506020830160005b8281101561192f5761259686835161255b565b6020958601959190910190600101612583565b80516001600160a01b03168252602080820151908301526040808201516001600160e01b031916908301526060808201516000916125e99085018261255b565b50608082015160a0608085015261260360a085018261256f565b949350505050565b60208152600061240f60208301846125a9565b60006020828403121561263057600080fd5b5035919050565b600081518084526020840193506020830160005b8281101561192f57815186526020958601959091019060010161264b565b6000815180845260005b8181101561268f57602081850181015186830182015201612673565b506000602082860101526020601f19601f83011685010191505092915050565b60008151606084526126c46060850182612637565b9050602083015184820360208601526126dd828261256f565b9150506040830151848203604086015281815180845260208401915060208160051b85010160208401935060005b8281101561273c57601f19868303018452612727828651612669565b6020958601959490940193915060010161270b565b50979650505050505050565b61275382825161255b565b602081015160208301526040810151151560408301526060810151151560608301525050565b600081518084526020840193506020830160005b8281101561192f576127a0868351612748565b608095909501946020919091019060010161278d565b600082825180855260208501945060208160051b8301016020850160005b8381101561286757848303601f190188528151805184526020908101516040828601819052815190860181905291019060009060608601905b8083101561284e57835161282283825161255b565b602081015190506128366020840182612748565b5060a08201915060208401935060018301925061280d565b5060209a8b019a909550939093019250506001016127d4565b50909695505050505050565b600082825180855260208501945060208160051b8301016020850160005b8381101561286757848303601f1901885281518051151584526020810151600381106128bf576128bf612545565b806020860152506040810151608060408601526128df6080860182612669565b90506060820151915084810360608601526128fa8183612637565b60209a8b019a90955093909301925050600101612891565b602081528151151560208201526000602083015160408084015280516101006060850152612944610160850182612637565b90506020820151605f1985830301608086015261296182826126af565b9150506040820151605f198583030160a086015261297f8282612779565b9150506060820151605f198583030160c086015261299d8282612779565b9150506080820151605f198583030160e08601526129bb82826127b6565b91505060a0820151605f19858303016101008601526129da82826127b6565b91505060c0820151605f19858303016101208601526129f98282612873565b91505060e08201519150605f1984820301610140850152612a1a8183612873565b95945050505050565b60008083601f840112612a3557600080fd5b5081356001600160401b03811115612a4c57600080fd5b6020830191508360208260051b8501011115612a6757600080fd5b9250929050565b60008060008060008060006080888a031215612a8957600080fd5b8735965060208801356001600160401b03811115612aa657600080fd5b612ab28a828b01612a23565b90975095505060408801356001600160401b03811115612ad157600080fd5b612add8a828b01612a23565b90955093505060608801356001600160401b03811115612afc57600080fd5b612b088a828b01612a23565b989b979a50959850939692959293505050565b60008060408385031215612b2e57600080fd5b50508035926020909101359150565b612b4882825161255b565b60006020820151604060208501526126036040850182612669565b60208152600061240f6020830184612b3d565b600080600060408486031215612b8b57600080fd5b612b9484612332565b925060208401356001600160401b03811115612baf57600080fd5b612bbb86828701612a23565b9497909650939450505050565b801515811461242357600080fd5b60008060008060008060c08789031215612bef57600080fd5b8635955060208701359450612c0660408801612332565b935060608701356001600160401b03811115612c2157600080fd5b612c2d89828a016123ef565b9350506080870135612c3e81612bc8565b915060a08701356001600160401b03811115612c5957600080fd5b8701601f81018913612c6a57600080fd5b612c7989823560208401612394565b9150509295509295509295565b600080600060608486031215612c9b57600080fd5b8335925060208401356001600160e01b031981168114612cba57600080fd5b915060408401356001600160401b03811115612cd557600080fd5b612ce186828701612426565b9150509250925092565b60208152600060608201835115156020840152602084015160408085015281815180845260808601915060808160051b870101935060208301925060005b81811015612d5a57607f19878603018352612d458585516125a9565b94506020938401939290920191600101612d29565b50929695505050505050565b60208152600060608201835115156020840152602084015160408085015281815180845260808601915060808160051b870101935060208301925060005b81811015612d5a57607f19878603018352612dc0858551612b3d565b94506020938401939290920191600101612da4565b6020815281511515602082015263ffffffff60e01b602083015116604082015260006040830151606080840152612603608084018261256f565b600060208284031215612e2157600080fd5b61240f82612332565b60208152600061240f6020830184612637565b60008060408385031215612e5057600080fd5b8235915060208301356001600160401b03811115612e6d57600080fd5b83016040818603121561232757600080fd5b6000808335601e19843603018112612e9657600080fd5b8301803591506001600160401b03821115612eb057600080fd5b6020019150600581901b3603821315612a6757600080fd5b634e487b7160e01b600052601160045260246000fd5b5b81811015612ef35760008155600101612edf565b5050565b600160401b821115612f0b57612f0b61234e565b805482825580831015612f3157816000526020600020612f2f828201858301612ede565b505b505050565b6001600160401b03831115612f4d57612f4d61234e565b612f578382612ef7565b8181600052602060002060005b85811015612f8057823582820155602090920191600101612f64565b505050505050565b60008235605e19833603018112612f9e57600080fd5b9190910192915050565b600160401b821115612fbc57612fbc61234e565b805482825580831015612f3157816000526020600020601f840160051c8101601f85168015612ffc57600019820180546000198360200360031b1c168155505b506115dd601f840160051c830182612ede565b600081356102b981612416565b6000808335601e1984360301811261303357600080fd5b8301803591506001600160401b0382111561304d57600080fd5b602001915036819003821315612a6757600080fd5b600181811c9082168061307657607f821691505b60208210810361309657634e487b7160e01b600052602260045260246000fd5b50919050565b600019600383901b1c191660019190911b1790565b601f821115612f3157806000526020600020601f840160051c810160208510156130d85750805b6115dd601f850160051c830182612ede565b6001600160401b038311156131015761310161234e565b6131158361310f8354613062565b836130b1565b6000601f84116001811461314357600085156131315750838201355b61313b868261309c565b8455506115dd565b600083815260209020601f19861690835b828110156131745786850135825560209485019460019092019101613154565b50868210156131915760001960f88860031b161c19848701351681555b505060018560011b0183555050505050565b600160401b8311156131b7576131b761234e565b80548382558084101561323f576000828152602090208481019082015b8082101561323c576131e68254613062565b801561323057601f811160018114613201576000845561322e565b60008481526020902061321f601f840160051c820160018301612ede565b50600084815260208120818655555b505b506001820191506131d4565b50505b5060008181526020812083915b85811015612f805761325e838661301c565b6132698183866130ea565b5050602092909201916001918201910161324c565b6132888283612e7f565b6001600160401b0381111561329f5761329f61234e565b6132a98184612ef7565b82600052602060002060005b828110156132d1578335828201556020909301926001016132b5565b50505050600181016132e66020840184612e7f565b6001600160401b038111156132fd576132fd61234e565b6133078184612fa8565b60008381526020902092508060051c60005b8181101561336f576000805b60208110156133625761335161333a8761300f565b60ff908116600384901b90811b91901b1984161790565b602096909601959150600101613325565b5085820155600101613319565b50601f1982168083038184146133ae576000805b828110156133a85761339761333a8861300f565b602097909701969150600101613383565b50868401555b5050505050506133c16040830183612e7f565b612f2f8183600286016131a3565b6000808335601e198436030181126133e657600080fd5b8301803591506001600160401b0382111561340057600080fd5b6020019150600781901b3603821315612a6757600080fd5b6006821061342857613428612545565b60ff1981541660ff831681178255505050565b813561344681612416565b6134508183613418565b506020820135600182015560028101604083013561346d81612bc8565b815460ff191660ff8215151617825550606083013561348b81612bc8565b815461ff00191681151560081b61ff001617825550505050565b600160401b8311156134b9576134b961234e565b80548382558084101561352557806003026003810482146134dc576134dc612ec8565b846003026003810486146134f2576134f2612ec8565b60008481526020902091820191015b81811015613522576000808255600182018190556002820155600301613501565b50505b5060008181526020812083915b85811015612f8057613544838361343b565b6080929092019160039190910190600101613532565b60008235603e19833603018112612f9e57600080fd5b60008154600083558015612f31576001600160fe1b038116811461359657613596612ec8565b60009150828252602082208160021b81015b808210156115dd578382556135cf6001830160008155600060018201556000600282015550565b6004820191506135a8565b600160401b8211156135ee576135ee61234e565b805482825580831015612f31576001600160fe1b038116811461361357613613612ec8565b6001600160fe1b038316831461362b5761362b612ec8565b8160005260206000208160021b81018460021b820191505b808210156115dd576000825561366b6001830160008155600060018201556000600282015550565b600482019150613643565b8135815560018101602083013536849003601e1901811261369657600080fd5b830180356001600160401b038111156136ae57600080fd5b60208201915060a0810236038213156136c657600080fd5b6136d081846135da565b600092835260208320925b81811015612f805782356136ee81612416565b6136f88186613418565b50602083013561370781612416565b6137148160018701613418565b506040830135600285015560038401606084013561373181612bc8565b815460ff191660ff8215151617825550608084013561374f81612bc8565b815461ff00191681151560081b61ff001617909155506004939093019260a092909201916001016136db565b600160401b83111561378f5761378f61234e565b80548382558084101561380a576001600160ff1b03811681146137b4576137b4612ec8565b6001600160ff1b03841684146137cc576137cc612ec8565b8160005260206000208160011b81018560011b820191505b8082101561380757600082556137fc60018301613570565b6002820191506137e4565b50505b5060008181526020812083915b85811015612f805761383261382c848761355a565b83613676565b6020929092019160029190910190600101613817565b60008235607e19833603018112612f9e57600080fd5b8054600082558015612ef357816000526020600020612f3182820182612ede565b813561388a81612bc8565b815460ff191660ff82151516178255506020820135600381101580156138af57600080fd5b50815461ff001916600882901b61ff001617825550600181016138d5604084018461301c565b6001600160401b038111156138ec576138ec61234e565b613900816138fa8554613062565b856130b1565b6000601f82116001811461392e576000831561391c5750838201355b613926848261309c565b865550613987565b600085815260208120601f198516915b8281101561395e578685013582556020948501946001909201910161393e565b508482101561397b5760001960f88660031b161c19848701351681555b505060018360011b0185555b50505050506139996060830183612e7f565b612f2f818360028601612f36565b600160401b8311156139bb576139bb61234e565b805483825580841015613a8057806003026003810482146139de576139de612ec8565b846003026003810486146139f4576139f4612ec8565b60008481526020902091820191015b81811015613a7d576000815560018101613a1d8154613062565b8015613a6757601f811160018114613a385760008355613a65565b600083815260209020613a56601f840160051c820160018301612ede565b50600083815260208120818555555b505b5050613a756002820161385e565b600301613a03565b50505b5060008181526020812083915b85811015612f8057613aa8613aa28487613848565b8361387f565b6020929092019160039190910190600101613a8d565b613ac88283612e7f565b6001600160401b03811115613adf57613adf61234e565b613ae98184612ef7565b82600052602060002060005b82811015613b1157833582820155602090930192600101613af5565b50505050613b2e613b256020840184612f88565b6001830161327e565b613b3b60408301836133cf565b613b498183600486016134a5565b5050613b5860608301836133cf565b613b668183600586016134a5565b5050613b756080830183612e7f565b613b8381836006860161377b565b5050613b9260a0830183612e7f565b613ba081836007860161377b565b5050613baf60c0830183612e7f565b613bbd8183600886016139a7565b5050613bcc60e0830183612e7f565b612f2f8183600986016139a7565b600060018201613bec57613bec612ec8565b5060010190565b634e487b7160e01b600052603260045260246000fd5b8183823760009101908152919050565b818103818111156102b9576102b9612ec8565b81516001600160401b03811115613c4557613c4561234e565b613c5981613c538454613062565b846130b1565b6020601f821160018114613c875760008315613c755750848201515b613c7f848261309c565b8555506115dd565b600084815260208120601f198516915b82811015613cb75787850151825560209485019460019092019101613c97565b5084821015613cd55786840151600019600387901b60f8161c191681555b50505050600190811b01905550565b60208152600061240f6020830184612669565b8135613d0281612416565b613d0c8183613418565b5060018101613d1e602084018461301c565b6001600160401b03811115613d3557613d3561234e565b613d43816138fa8554613062565b6000601f821160018114613d715760008315613d5f5750838201355b613d69848261309c565b865550613dcb565b600085815260209020601f19841690835b82811015613da25786850135825560209485019460019092019101613d82565b5084821015613dbf5760001960f88660031b161c19848701351681555b505060018360011b0185555b5050505050505056fea2646970667358221220b8f4368ca615568e74fd8b92192d79659dc3e0568cb6294c59c3732800e7f45464736f6c634300081c0033","linkReferences":{}},"methodIdentifiers":{"addTracker(uint256,(uint8,bytes))":"f7a48117","applyPolicy(address,uint256[])":"9228303f","getAppliedPolicyIds(address)":"e3749023","getForeignCall(uint256)":"a78049c8","getForeignCall(uint256,uint256)":"da7d5d28","getFunctionSignature(uint256)":"d57a72cd","getRule(uint256)":"48462037","getTracker(uint256)":"c3a83344","getTracker(uint256,uint256)":"72a340d7","updateForeignCall(uint256,address,string,uint8,uint8[])":"3bbaa76c","updateFunctionSignature(uint256,bytes4,uint8[])":"a5bcf7f2","updatePolicy(uint256,bytes[],uint256[],uint256[][])":"6af870c6","updateRule(uint256,(uint256[],(uint256[],uint8[],bytes[]),(uint8,uint256,bool,bool)[],(uint8,uint256,bool,bool)[],(uint256,(uint8,(uint8,uint256,bool,bool))[])[],(uint256,(uint8,(uint8,uint256,bool,bool))[])[],(bool,uint8,string,uint256[])[],(bool,uint8,string,uint256[])[]))":"05e4eff3","updateTracker(uint256,uint256,address,string,bool,bytes)":"9c7a08e6"},"id":49}