{"abi":[{"type":"function","name":"applyPolicy","inputs":[{"name":"_contractAddress","type":"address","internalType":"address"},{"name":"_policyId","type":"uint256[]","internalType":"uint256[]"}],"outputs":[],"stateMutability":"nonpayable"},{"type":"function","name":"createForeignCall","inputs":[{"name":"_policyId","type":"uint256","internalType":"uint256"},{"name":"_foreignCall","type":"tuple","internalType":"struct ForeignCall","components":[{"name":"set","type":"bool","internalType":"bool"},{"name":"foreignCallAddress","type":"address","internalType":"address"},{"name":"signature","type":"bytes4","internalType":"bytes4"},{"name":"returnType","type":"uint8","internalType":"enum PT"},{"name":"foreignCallIndex","type":"uint256","internalType":"uint256"},{"name":"parameterTypes","type":"uint8[]","internalType":"enum PT[]"},{"name":"typeSpecificIndices","type":"uint8[]","internalType":"uint8[]"}]}],"outputs":[{"name":"","type":"uint256","internalType":"uint256"}],"stateMutability":"nonpayable"},{"type":"function","name":"createFunctionSignature","inputs":[{"name":"_policyId","type":"uint256","internalType":"uint256"},{"name":"_functionSignature","type":"bytes4","internalType":"bytes4"},{"name":"_pTypes","type":"uint8[]","internalType":"enum PT[]"}],"outputs":[{"name":"","type":"uint256","internalType":"uint256"}],"stateMutability":"nonpayable"},{"type":"function","name":"createPolicy","inputs":[{"name":"_functionSignatures","type":"tuple[]","internalType":"struct FunctionSignatureStorageSet[]","components":[{"name":"set","type":"bool","internalType":"bool"},{"name":"signature","type":"bytes4","internalType":"bytes4"},{"name":"parameterTypes","type":"uint8[]","internalType":"enum PT[]"}]},{"name":"_rules","type":"tuple[]","internalType":"struct Rule[]","components":[{"name":"policyId","type":"uint256","internalType":"uint256"},{"name":"instructionSet","type":"uint256[]","internalType":"uint256[]"},{"name":"rawData","type":"tuple","internalType":"struct RawData","components":[{"name":"instructionSetIndex","type":"uint256[]","internalType":"uint256[]"},{"name":"argumentTypes","type":"uint8[]","internalType":"enum PT[]"},{"name":"dataValues","type":"bytes[]","internalType":"bytes[]"}]},{"name":"placeHolders","type":"tuple[]","internalType":"struct Placeholder[]","components":[{"name":"pType","type":"uint8","internalType":"enum PT"},{"name":"typeSpecificIndex","type":"uint128","internalType":"uint128"},{"name":"trackerValue","type":"bool","internalType":"bool"},{"name":"foreignCall","type":"bool","internalType":"bool"}]},{"name":"effectPlaceHolders","type":"tuple[]","internalType":"struct Placeholder[]","components":[{"name":"pType","type":"uint8","internalType":"enum PT"},{"name":"typeSpecificIndex","type":"uint128","internalType":"uint128"},{"name":"trackerValue","type":"bool","internalType":"bool"},{"name":"foreignCall","type":"bool","internalType":"bool"}]},{"name":"posEffects","type":"tuple[]","internalType":"struct Effect[]","components":[{"name":"valid","type":"bool","internalType":"bool"},{"name":"dynamicParam","type":"bool","internalType":"bool"},{"name":"effectType","type":"uint8","internalType":"enum ET"},{"name":"pType","type":"uint8","internalType":"enum PT"},{"name":"param","type":"bytes","internalType":"bytes"},{"name":"text","type":"bytes32","internalType":"bytes32"},{"name":"errorMessage","type":"string","internalType":"string"},{"name":"instructionSet","type":"uint256[]","internalType":"uint256[]"}]},{"name":"negEffects","type":"tuple[]","internalType":"struct Effect[]","components":[{"name":"valid","type":"bool","internalType":"bool"},{"name":"dynamicParam","type":"bool","internalType":"bool"},{"name":"effectType","type":"uint8","internalType":"enum ET"},{"name":"pType","type":"uint8","internalType":"enum PT"},{"name":"param","type":"bytes","internalType":"bytes"},{"name":"text","type":"bytes32","internalType":"bytes32"},{"name":"errorMessage","type":"string","internalType":"string"},{"name":"instructionSet","type":"uint256[]","internalType":"uint256[]"}]}]}],"outputs":[{"name":"","type":"uint256","internalType":"uint256"}],"stateMutability":"nonpayable"},{"type":"function","name":"createRule","inputs":[{"name":"_rule","type":"tuple","internalType":"struct Rule","components":[{"name":"policyId","type":"uint256","internalType":"uint256"},{"name":"instructionSet","type":"uint256[]","internalType":"uint256[]"},{"name":"rawData","type":"tuple","internalType":"struct RawData","components":[{"name":"instructionSetIndex","type":"uint256[]","internalType":"uint256[]"},{"name":"argumentTypes","type":"uint8[]","internalType":"enum PT[]"},{"name":"dataValues","type":"bytes[]","internalType":"bytes[]"}]},{"name":"placeHolders","type":"tuple[]","internalType":"struct Placeholder[]","components":[{"name":"pType","type":"uint8","internalType":"enum PT"},{"name":"typeSpecificIndex","type":"uint128","internalType":"uint128"},{"name":"trackerValue","type":"bool","internalType":"bool"},{"name":"foreignCall","type":"bool","internalType":"bool"}]},{"name":"effectPlaceHolders","type":"tuple[]","internalType":"struct Placeholder[]","components":[{"name":"pType","type":"uint8","internalType":"enum PT"},{"name":"typeSpecificIndex","type":"uint128","internalType":"uint128"},{"name":"trackerValue","type":"bool","internalType":"bool"},{"name":"foreignCall","type":"bool","internalType":"bool"}]},{"name":"posEffects","type":"tuple[]","internalType":"struct Effect[]","components":[{"name":"valid","type":"bool","internalType":"bool"},{"name":"dynamicParam","type":"bool","internalType":"bool"},{"name":"effectType","type":"uint8","internalType":"enum ET"},{"name":"pType","type":"uint8","internalType":"enum PT"},{"name":"param","type":"bytes","internalType":"bytes"},{"name":"text","type":"bytes32","internalType":"bytes32"},{"name":"errorMessage","type":"string","internalType":"string"},{"name":"instructionSet","type":"uint256[]","internalType":"uint256[]"}]},{"name":"negEffects","type":"tuple[]","internalType":"struct Effect[]","components":[{"name":"valid","type":"bool","internalType":"bool"},{"name":"dynamicParam","type":"bool","internalType":"bool"},{"name":"effectType","type":"uint8","internalType":"enum ET"},{"name":"pType","type":"uint8","internalType":"enum PT"},{"name":"param","type":"bytes","internalType":"bytes"},{"name":"text","type":"bytes32","internalType":"bytes32"},{"name":"errorMessage","type":"string","internalType":"string"},{"name":"instructionSet","type":"uint256[]","internalType":"uint256[]"}]}]}],"outputs":[{"name":"","type":"uint256","internalType":"uint256"}],"stateMutability":"nonpayable"},{"type":"function","name":"createTracker","inputs":[{"name":"_policyId","type":"uint256","internalType":"uint256"},{"name":"_tracker","type":"tuple","internalType":"struct Trackers","components":[{"name":"set","type":"bool","internalType":"bool"},{"name":"pType","type":"uint8","internalType":"enum PT"},{"name":"trackerValue","type":"bytes","internalType":"bytes"}]}],"outputs":[{"name":"","type":"uint256","internalType":"uint256"}],"stateMutability":"nonpayable"},{"type":"function","name":"deleteForeignCall","inputs":[{"name":"_policyId","type":"uint256","internalType":"uint256"},{"name":"_foreignCallId","type":"uint256","internalType":"uint256"}],"outputs":[],"stateMutability":"nonpayable"},{"type":"function","name":"deleteFunctionSignature","inputs":[{"name":"_policyId","type":"uint256","internalType":"uint256"},{"name":"_functionSignatureId","type":"uint256","internalType":"uint256"}],"outputs":[],"stateMutability":"nonpayable"},{"type":"function","name":"deletePolicy","inputs":[{"name":"_policyId","type":"uint256","internalType":"uint256"}],"outputs":[],"stateMutability":"nonpayable"},{"type":"function","name":"deleteRule","inputs":[{"name":"_ruleId","type":"uint256","internalType":"uint256"}],"outputs":[],"stateMutability":"nonpayable"},{"type":"function","name":"deleteTracker","inputs":[{"name":"_policyId","type":"uint256","internalType":"uint256"},{"name":"_trackerIndex","type":"uint256","internalType":"uint256"}],"outputs":[],"stateMutability":"nonpayable"},{"type":"function","name":"getAllForeignCalls","inputs":[{"name":"_policyId","type":"uint256","internalType":"uint256"}],"outputs":[{"name":"fc","type":"tuple[]","internalType":"struct ForeignCall[]","components":[{"name":"set","type":"bool","internalType":"bool"},{"name":"foreignCallAddress","type":"address","internalType":"address"},{"name":"signature","type":"bytes4","internalType":"bytes4"},{"name":"returnType","type":"uint8","internalType":"enum PT"},{"name":"foreignCallIndex","type":"uint256","internalType":"uint256"},{"name":"parameterTypes","type":"uint8[]","internalType":"enum PT[]"},{"name":"typeSpecificIndices","type":"uint8[]","internalType":"uint8[]"}]}],"stateMutability":"view"},{"type":"function","name":"getAllFunctionSignatures","inputs":[{"name":"_policyId","type":"uint256","internalType":"uint256"}],"outputs":[{"name":"","type":"tuple[]","internalType":"struct FunctionSignatureStorageSet[]","components":[{"name":"set","type":"bool","internalType":"bool"},{"name":"signature","type":"bytes4","internalType":"bytes4"},{"name":"parameterTypes","type":"uint8[]","internalType":"enum PT[]"}]}],"stateMutability":"view"},{"type":"function","name":"getAllTrackers","inputs":[{"name":"_policyId","type":"uint256","internalType":"uint256"}],"outputs":[{"name":"","type":"tuple[]","internalType":"struct Trackers[]","components":[{"name":"set","type":"bool","internalType":"bool"},{"name":"pType","type":"uint8","internalType":"enum PT"},{"name":"trackerValue","type":"bytes","internalType":"bytes"}]}],"stateMutability":"view"},{"type":"function","name":"getAppliedPolicyIds","inputs":[{"name":"_contractAddress","type":"address","internalType":"address"}],"outputs":[{"name":"","type":"uint256[]","internalType":"uint256[]"}],"stateMutability":"view"},{"type":"function","name":"getForeignCall","inputs":[{"name":"_policyId","type":"uint256","internalType":"uint256"},{"name":"_foreignCallId","type":"uint256","internalType":"uint256"}],"outputs":[{"name":"fc","type":"tuple","internalType":"struct ForeignCall","components":[{"name":"set","type":"bool","internalType":"bool"},{"name":"foreignCallAddress","type":"address","internalType":"address"},{"name":"signature","type":"bytes4","internalType":"bytes4"},{"name":"returnType","type":"uint8","internalType":"enum PT"},{"name":"foreignCallIndex","type":"uint256","internalType":"uint256"},{"name":"parameterTypes","type":"uint8[]","internalType":"enum PT[]"},{"name":"typeSpecificIndices","type":"uint8[]","internalType":"uint8[]"}]}],"stateMutability":"view"},{"type":"function","name":"getFunctionSignature","inputs":[{"name":"_policyId","type":"uint256","internalType":"uint256"},{"name":"_functionSignatureId","type":"uint256","internalType":"uint256"}],"outputs":[{"name":"","type":"tuple","internalType":"struct FunctionSignatureStorageSet","components":[{"name":"set","type":"bool","internalType":"bool"},{"name":"signature","type":"bytes4","internalType":"bytes4"},{"name":"parameterTypes","type":"uint8[]","internalType":"enum PT[]"}]}],"stateMutability":"view"},{"type":"function","name":"getPolicy","inputs":[{"name":"_policyId","type":"uint256","internalType":"uint256"}],"outputs":[{"name":"functionSigs","type":"bytes4[]","internalType":"bytes4[]"},{"name":"functionSigIds","type":"uint256[]","internalType":"uint256[]"},{"name":"ruleIds","type":"uint256[][]","internalType":"uint256[][]"}],"stateMutability":"view"},{"type":"function","name":"getRule","inputs":[{"name":"_ruleId","type":"uint256","internalType":"uint256"}],"outputs":[{"name":"","type":"tuple","internalType":"struct RuleStorageSet","components":[{"name":"set","type":"bool","internalType":"bool"},{"name":"rule","type":"tuple","internalType":"struct Rule","components":[{"name":"policyId","type":"uint256","internalType":"uint256"},{"name":"instructionSet","type":"uint256[]","internalType":"uint256[]"},{"name":"rawData","type":"tuple","internalType":"struct RawData","components":[{"name":"instructionSetIndex","type":"uint256[]","internalType":"uint256[]"},{"name":"argumentTypes","type":"uint8[]","internalType":"enum PT[]"},{"name":"dataValues","type":"bytes[]","internalType":"bytes[]"}]},{"name":"placeHolders","type":"tuple[]","internalType":"struct Placeholder[]","components":[{"name":"pType","type":"uint8","internalType":"enum PT"},{"name":"typeSpecificIndex","type":"uint128","internalType":"uint128"},{"name":"trackerValue","type":"bool","internalType":"bool"},{"name":"foreignCall","type":"bool","internalType":"bool"}]},{"name":"effectPlaceHolders","type":"tuple[]","internalType":"struct Placeholder[]","components":[{"name":"pType","type":"uint8","internalType":"enum PT"},{"name":"typeSpecificIndex","type":"uint128","internalType":"uint128"},{"name":"trackerValue","type":"bool","internalType":"bool"},{"name":"foreignCall","type":"bool","internalType":"bool"}]},{"name":"posEffects","type":"tuple[]","internalType":"struct Effect[]","components":[{"name":"valid","type":"bool","internalType":"bool"},{"name":"dynamicParam","type":"bool","internalType":"bool"},{"name":"effectType","type":"uint8","internalType":"enum ET"},{"name":"pType","type":"uint8","internalType":"enum PT"},{"name":"param","type":"bytes","internalType":"bytes"},{"name":"text","type":"bytes32","internalType":"bytes32"},{"name":"errorMessage","type":"string","internalType":"string"},{"name":"instructionSet","type":"uint256[]","internalType":"uint256[]"}]},{"name":"negEffects","type":"tuple[]","internalType":"struct Effect[]","components":[{"name":"valid","type":"bool","internalType":"bool"},{"name":"dynamicParam","type":"bool","internalType":"bool"},{"name":"effectType","type":"uint8","internalType":"enum ET"},{"name":"pType","type":"uint8","internalType":"enum PT"},{"name":"param","type":"bytes","internalType":"bytes"},{"name":"text","type":"bytes32","internalType":"bytes32"},{"name":"errorMessage","type":"string","internalType":"string"},{"name":"instructionSet","type":"uint256[]","internalType":"uint256[]"}]}]}]}],"stateMutability":"view"},{"type":"function","name":"getTracker","inputs":[{"name":"_policyId","type":"uint256","internalType":"uint256"},{"name":"_index","type":"uint256","internalType":"uint256"}],"outputs":[{"name":"tracker","type":"tuple","internalType":"struct Trackers","components":[{"name":"set","type":"bool","internalType":"bool"},{"name":"pType","type":"uint8","internalType":"enum PT"},{"name":"trackerValue","type":"bytes","internalType":"bytes"}]}],"stateMutability":"view"},{"type":"function","name":"updateForeignCall","inputs":[{"name":"_policyId","type":"uint256","internalType":"uint256"},{"name":"_foreignCallId","type":"uint256","internalType":"uint256"},{"name":"_foreignCall","type":"tuple","internalType":"struct ForeignCall","components":[{"name":"set","type":"bool","internalType":"bool"},{"name":"foreignCallAddress","type":"address","internalType":"address"},{"name":"signature","type":"bytes4","internalType":"bytes4"},{"name":"returnType","type":"uint8","internalType":"enum PT"},{"name":"foreignCallIndex","type":"uint256","internalType":"uint256"},{"name":"parameterTypes","type":"uint8[]","internalType":"enum PT[]"},{"name":"typeSpecificIndices","type":"uint8[]","internalType":"uint8[]"}]}],"outputs":[{"name":"fc","type":"tuple","internalType":"struct ForeignCall","components":[{"name":"set","type":"bool","internalType":"bool"},{"name":"foreignCallAddress","type":"address","internalType":"address"},{"name":"signature","type":"bytes4","internalType":"bytes4"},{"name":"returnType","type":"uint8","internalType":"enum PT"},{"name":"foreignCallIndex","type":"uint256","internalType":"uint256"},{"name":"parameterTypes","type":"uint8[]","internalType":"enum PT[]"},{"name":"typeSpecificIndices","type":"uint8[]","internalType":"uint8[]"}]}],"stateMutability":"nonpayable"},{"type":"function","name":"updateFunctionSignature","inputs":[{"name":"_policyId","type":"uint256","internalType":"uint256"},{"name":"_functionSignatureId","type":"uint256","internalType":"uint256"},{"name":"_functionSignature","type":"bytes4","internalType":"bytes4"},{"name":"_pTypes","type":"uint8[]","internalType":"enum PT[]"}],"outputs":[{"name":"","type":"uint256","internalType":"uint256"}],"stateMutability":"nonpayable"},{"type":"function","name":"updatePolicy","inputs":[{"name":"_policyId","type":"uint256","internalType":"uint256"},{"name":"_signatures","type":"bytes4[]","internalType":"bytes4[]"},{"name":"_functionSignatureIds","type":"uint256[]","internalType":"uint256[]"},{"name":"_ruleIds","type":"uint256[][]","internalType":"uint256[][]"}],"outputs":[{"name":"","type":"uint256","internalType":"uint256"}],"stateMutability":"nonpayable"},{"type":"function","name":"updateRule","inputs":[{"name":"_ruleId","type":"uint256","internalType":"uint256"},{"name":"_rule","type":"tuple","internalType":"struct Rule","components":[{"name":"policyId","type":"uint256","internalType":"uint256"},{"name":"instructionSet","type":"uint256[]","internalType":"uint256[]"},{"name":"rawData","type":"tuple","internalType":"struct RawData","components":[{"name":"instructionSetIndex","type":"uint256[]","internalType":"uint256[]"},{"name":"argumentTypes","type":"uint8[]","internalType":"enum PT[]"},{"name":"dataValues","type":"bytes[]","internalType":"bytes[]"}]},{"name":"placeHolders","type":"tuple[]","internalType":"struct Placeholder[]","components":[{"name":"pType","type":"uint8","internalType":"enum PT"},{"name":"typeSpecificIndex","type":"uint128","internalType":"uint128"},{"name":"trackerValue","type":"bool","internalType":"bool"},{"name":"foreignCall","type":"bool","internalType":"bool"}]},{"name":"effectPlaceHolders","type":"tuple[]","internalType":"struct Placeholder[]","components":[{"name":"pType","type":"uint8","internalType":"enum PT"},{"name":"typeSpecificIndex","type":"uint128","internalType":"uint128"},{"name":"trackerValue","type":"bool","internalType":"bool"},{"name":"foreignCall","type":"bool","internalType":"bool"}]},{"name":"posEffects","type":"tuple[]","internalType":"struct Effect[]","components":[{"name":"valid","type":"bool","internalType":"bool"},{"name":"dynamicParam","type":"bool","internalType":"bool"},{"name":"effectType","type":"uint8","internalType":"enum ET"},{"name":"pType","type":"uint8","internalType":"enum PT"},{"name":"param","type":"bytes","internalType":"bytes"},{"name":"text","type":"bytes32","internalType":"bytes32"},{"name":"errorMessage","type":"string","internalType":"string"},{"name":"instructionSet","type":"uint256[]","internalType":"uint256[]"}]},{"name":"negEffects","type":"tuple[]","internalType":"struct Effect[]","components":[{"name":"valid","type":"bool","internalType":"bool"},{"name":"dynamicParam","type":"bool","internalType":"bool"},{"name":"effectType","type":"uint8","internalType":"enum ET"},{"name":"pType","type":"uint8","internalType":"enum PT"},{"name":"param","type":"bytes","internalType":"bytes"},{"name":"text","type":"bytes32","internalType":"bytes32"},{"name":"errorMessage","type":"string","internalType":"string"},{"name":"instructionSet","type":"uint256[]","internalType":"uint256[]"}]}]}],"outputs":[{"name":"","type":"uint256","internalType":"uint256"}],"stateMutability":"nonpayable"},{"type":"function","name":"updateTracker","inputs":[{"name":"_policyId","type":"uint256","internalType":"uint256"},{"name":"_trackerIndex","type":"uint256","internalType":"uint256"},{"name":"_tracker","type":"tuple","internalType":"struct Trackers","components":[{"name":"set","type":"bool","internalType":"bool"},{"name":"pType","type":"uint8","internalType":"enum PT"},{"name":"trackerValue","type":"bytes","internalType":"bytes"}]}],"outputs":[],"stateMutability":"nonpayable"},{"type":"event","name":"ForeignCallCreated","inputs":[{"name":"policyId","type":"uint256","indexed":true,"internalType":"uint256"},{"name":"foreignCallId","type":"uint256","indexed":true,"internalType":"uint256"}],"anonymous":false},{"type":"event","name":"ForeignCallDeleted","inputs":[{"name":"policyId","type":"uint256","indexed":true,"internalType":"uint256"},{"name":"foreignCallId","type":"uint256","indexed":true,"internalType":"uint256"}],"anonymous":false},{"type":"event","name":"ForeignCallUpdated","inputs":[{"name":"policyId","type":"uint256","indexed":true,"internalType":"uint256"},{"name":"foreignCallId","type":"uint256","indexed":true,"internalType":"uint256"}],"anonymous":false},{"type":"error","name":"BelowMinAdminThreshold","inputs":[]},{"type":"error","name":"NewAdminAlreadyProposed","inputs":[]},{"type":"error","name":"NotPolicyAdmin","inputs":[]},{"type":"error","name":"NotProposedPolicyAdmin","inputs":[]},{"type":"error","name":"OnlyRulesEngineCanCreateAdminRoles","inputs":[]},{"type":"error","name":"PolicyAdminAlreadyCreated","inputs":[]},{"type":"error","name":"ZeroAddressCannotBeAdmin","inputs":[]}],"bytecode":{"object":"0x6080604052348015600f57600080fd5b50616b598061001f6000396000f3fe608060405234801561001057600080fd5b50600436106101a35760003560e01c8063a3937e99116100ee578063cd42bcf811610097578063da7d5d2811610071578063da7d5d28146103ad578063e3749023146103c0578063e7e31b31146103e0578063fed27c8f1461040057600080fd5b8063cd42bcf814610374578063cf7c672814610387578063d82260c81461039a57600080fd5b8063ae635b7c116100c8578063ae635b7c1461032e578063bcb01c2214610341578063c017d3001461035457600080fd5b8063a3937e99146102e8578063a626bb8d14610308578063a82c9e071461031b57600080fd5b806356f3b05f1161015057806372a340d71161012a57806372a340d7146102a25780639228303f146102c25780639fe9c9b8146102d557600080fd5b806356f3b05f1461024f57806359ad408d1461026f578063660dac4d1461028257600080fd5b806344564dc71161018157806344564dc714610209578063484620371461021c57806350a9f0d41461023c57600080fd5b80632b07fce3146101a85780632e4c803b146101d357806330626b5c146101f4575b600080fd5b6101bb6101b6366004614add565b610413565b6040516101ca93929190614b32565b60405180910390f35b6101e66101e1366004614c40565b6108e8565b6040519081526020016101ca565b610207610202366004614add565b610abc565b005b6101e6610217366004614c87565b610c6e565b61022f61022a366004614add565b610d6f565b6040516101ca9190614ff8565b6101e661024a3660046151b7565b61169c565b61026261025d366004614add565b6118aa565b6040516101ca919061529b565b6101e661027d36600461531e565b611a94565b61029561029036600461538f565b611b73565b6040516101ca91906153fe565b6102b56102b036600461538f565b611c7d565b6040516101ca9190615418565b6102076102d0366004615454565b611da3565b6101e66102e3366004615653565b611f9b565b6102fb6102f6366004614add565b612179565b6040516101ca9190615782565b61020761031636600461538f565b612491565b61020761032936600461538f565b61284a565b6101e661033c366004614c40565b61297e565b6101e661034f3660046157f9565b612a77565b61036761036236600461585a565b612e9a565b6040516101ca91906158a0565b6101e66103823660046158c5565b613001565b610207610395366004615902565b613123565b6102076103a836600461538f565b613210565b6103676103bb36600461538f565b613385565b6103d36103ce366004615948565b6135c1565b6040516101ca9190615963565b6103f36103ee366004614add565b613643565b6040516101ca9190615976565b61020761040e366004614add565b61380e565b60608060606000610422613a4f565b60008681526001918201602052604090206003810154910191501561052957600281015467ffffffffffffffff81111561045e5761045e6154d7565b604051908082528060200260200182016040528015610487578160200160208202803683370190505b50600282015490945067ffffffffffffffff8111156104a8576104a86154d7565b6040519080825280602002602001820160405280156104d1578160200160208202803683370190505b50600282015490935067ffffffffffffffff8111156104f2576104f26154d7565b60405190808252806020026020018201604052801561052557816020015b60608152602001906001900390816105105790505b5091505b600281015467ffffffffffffffff811115610546576105466154d7565b60405190808252806020026020018201604052801561057957816020015b60608152602001906001900390816105645790505b50915060005b60028201548110156108df578160020181815481106105a0576105a06159ed565b90600052602060002090600891828204019190066004029054906101000a900460e01b8582815181106105d5576105d56159ed565b7fffffffff0000000000000000000000000000000000000000000000000000000090921660209283029190910190910152600282018054839160009184908110610621576106216159ed565b90600052602060002090600891828204019190066004029054906101000a900460e01b7bffffffffffffffffffffffffffffffffffffffffffffffffffffffff19167bffffffffffffffffffffffffffffffffffffffffffffffffffffffff19168152602001908152602001600020548482815181106106a3576106a36159ed565b60200260200101818152505060005b8260010160008460020184815481106106cd576106cd6159ed565b6000918252602080832060088304015460079092166004026101000a90910460e01b7fffffffff000000000000000000000000000000000000000000000000000000001683528201929092526040019020548110156108d657826001016000846002018481548110610741576107416159ed565b6000918252602080832060088304015460079092166004026101000a90910460e01b7fffffffff0000000000000000000000000000000000000000000000000000000016835282019290925260400190205467ffffffffffffffff8111156107ab576107ab6154d7565b6040519080825280602002602001820160405280156107d4578160200160208202803683370190505b508483815181106107e7576107e76159ed565b602002602001018190525082600101600084600201848154811061080d5761080d6159ed565b90600052602060002090600891828204019190066004029054906101000a900460e01b7bffffffffffffffffffffffffffffffffffffffffffffffffffffffff19167bffffffffffffffffffffffffffffffffffffffffffffffffffffffff19168152602001908152602001600020818154811061088d5761088d6159ed565b90600052602060002001548483815181106108aa576108aa6159ed565b602002602001015182815181106108c3576108c36159ed565b60209081029190910101526001016106b2565b5060010161057f565b50509193909250565b600082336000806109a763901cee1160e01b858560405160240161092c92919091825273ffffffffffffffffffffffffffffffffffffffff16602082015260400190565b604080517fffffffffffffffffffffffffffffffffffffffffffffffffffffffffffffffe08184030181529190526020810180517bffffffffffffffffffffffffffffffffffffffffffffffffffffffff167f901cee1100000000000000000000000000000000000000000000000000000000179052613a7d565b9150915060008215610a375760048251106109c7575060208101516109cb565b5060005b80610a37576040517f08c379a000000000000000000000000000000000000000000000000000000000815260206004820152601860248201527f4e6f7420417574686f72697a656420546f20506f6c696379000000000000000060448201526064015b60405180910390fd5b6000610a41613b44565b60008a815260208290526040812054919250610a5c8a615aa2565b608081018390529050610a6f8b82613b72565b60008b815260208490526040808220805460010190555183918d917f9006068daf408b7e36a22c789f04c4ba9c6c638a6cf8438c2250583384f2192f9190a3509998505050505050505050565b610ac4613d44565b60008281526001918201602052604080822090920154915160248101839052336044820181905291908190610b1d907f901cee11000000000000000000000000000000000000000000000000000000009060640161092c565b9150915060008215610ba8576004825110610b3d57506020810151610b41565b5060005b80610ba8576040517f08c379a000000000000000000000000000000000000000000000000000000000815260206004820152601860248201527f4e6f7420417574686f72697a656420546f20506f6c69637900000000000000006044820152606401610a2e565b610bb0613d44565b600087815260019182016020526040812080547fffffffffffffffffffffffffffffffffffffffffffffffffffffffffffffff0016815591820181815581610bfb6002850182614725565b600282016000610c0b8282614725565b610c19600183016000614746565b610c2760028301600061476b565b50610c389050600583016000614789565b610c46600683016000614789565b610c546007830160006147a7565b610c626008830160006147a7565b50505050505050505050565b604051813560248201819052336044830181905260009283908190610cb7907f901cee11000000000000000000000000000000000000000000000000000000009060640161092c565b9150915060008215610d42576004825110610cd757506020810151610cdb565b5060005b80610d42576040517f08c379a000000000000000000000000000000000000000000000000000000000815260206004820152601860248201527f4e6f7420417574686f72697a656420546f20506f6c69637900000000000000006044820152606401610a2e565b6000610d4c613d44565b8054600101808255909150610d639082908a613d72565b98975050505050505050565b610d776147c8565b610d7f613d44565b60008381526001918201602090815260409182902082518084018452815460ff1615158152835160e081018552948201805486526002830180548651818702810187019097528087529296939587860195929385840193919291830182828015610e0857602002820191906000526020600020905b815481526020019060010190808311610df4575b505050505081526020016002820160405180606001604052908160008201805480602002602001604051908101604052809291908181526020018280548015610e7057602002820191906000526020600020905b815481526020019060010190808311610e5c575b5050505050815260200160018201805480602002602001604051908101604052809291908181526020018280548015610ef857602002820191906000526020600020906000905b82829054906101000a900460ff166007811115610ed657610ed6614cc4565b815260206001928301818104948501949093039092029101808411610eb75790505b5050505050815260200160028201805480602002602001604051908101604052809291908181526020016000905b82821015610fd2578382906000526020600020018054610f4590615b62565b80601f0160208091040260200160405190810160405280929190818152602001828054610f7190615b62565b8015610fbe5780601f10610f9357610100808354040283529160200191610fbe565b820191906000526020600020905b815481529060010190602001808311610fa157829003601f168201915b505050505081526020019060010190610f26565b5050505081525050815260200160058201805480602002602001604051908101604052809291908181526020016000905b828210156110c45760008481526020902060408051608081019091529083018054829060ff16600781111561103a5761103a614cc4565b600781111561104b5761104b614cc4565b815290546fffffffffffffffffffffffffffffffff61010082041660208084019190915260ff710100000000000000000000000000000000008304811615156040850152720100000000000000000000000000000000000090920490911615156060909201919091529082526001929092019101611003565b50505050815260200160068201805480602002602001604051908101604052809291908181526020016000905b828210156111b25760008481526020902060408051608081019091529083018054829060ff16600781111561112857611128614cc4565b600781111561113957611139614cc4565b815290546fffffffffffffffffffffffffffffffff61010082041660208084019190915260ff7101000000000000000000000000000000000083048116151560408501527201000000000000000000000000000000000000909204909116151560609092019190915290825260019290920191016110f1565b50505050815260200160078201805480602002602001604051908101604052809291908181526020016000905b8282101561141f57600084815260209081902060408051610100808201835260058702909301805460ff80821615158452948104851615159583019590955290939092918401916201000090910416600281111561123f5761123f614cc4565b600281111561125057611250614cc4565b815281546020909101906301000000900460ff16600781111561127557611275614cc4565b600781111561128657611286614cc4565b815260200160018201805461129a90615b62565b80601f01602080910402602001604051908101604052809291908181526020018280546112c690615b62565b80156113135780601f106112e857610100808354040283529160200191611313565b820191906000526020600020905b8154815290600101906020018083116112f657829003601f168201915b505050505081526020016002820154815260200160038201805461133690615b62565b80601f016020809104026020016040519081016040528092919081815260200182805461136290615b62565b80156113af5780601f10611384576101008083540402835291602001916113af565b820191906000526020600020905b81548152906001019060200180831161139257829003601f168201915b505050505081526020016004820180548060200260200160405190810160405280929190818152602001828054801561140757602002820191906000526020600020905b8154815260200190600101908083116113f3575b505050505081525050815260200190600101906111df565b50505050815260200160088201805480602002602001604051908101604052809291908181526020016000905b8282101561168c57600084815260209081902060408051610100808201835260058702909301805460ff8082161515845294810485161515958301959095529093909291840191620100009091041660028111156114ac576114ac614cc4565b60028111156114bd576114bd614cc4565b815281546020909101906301000000900460ff1660078111156114e2576114e2614cc4565b60078111156114f3576114f3614cc4565b815260200160018201805461150790615b62565b80601f016020809104026020016040519081016040528092919081815260200182805461153390615b62565b80156115805780601f1061155557610100808354040283529160200191611580565b820191906000526020600020905b81548152906001019060200180831161156357829003601f168201915b50505050508152602001600282015481526020016003820180546115a390615b62565b80601f01602080910402602001604051908101604052809291908181526020018280546115cf90615b62565b801561161c5780601f106115f15761010080835404028352916020019161161c565b820191906000526020600020905b8154815290600101906020018083116115ff57829003601f168201915b505050505081526020016004820180548060200260200160405190810160405280929190818152602001828054801561167457602002820191906000526020600020905b815481526020019060010190808311611660575b5050505050815250508152602001906001019061144c565b5050509152505090525092915050565b600087336000806116e063901cee1160e01b858560405160240161092c92919091825273ffffffffffffffffffffffffffffffffffffffff16602082015260400190565b915091506000821561176b57600482511061170057506020810151611704565b5060005b8061176b576040517f08c379a000000000000000000000000000000000000000000000000000000000815260206004820152601860248201527f4e6f7420417574686f72697a656420546f20506f6c69637900000000000000006044820152606401610a2e565b8a89146117fa576040517f08c379a000000000000000000000000000000000000000000000000000000000815260206004820152602e60248201527f5369676e61747572657320616e64207369676e6174757265206964277320617260448201527f6520696e636f6e73697374656e740000000000000000000000000000000000006064820152608401610a2e565b8c60000361188a576040517f08c379a000000000000000000000000000000000000000000000000000000000815260206004820152603460248201527f506f6c6963792049442063616e6e6f7420626520302e2043726561746520706f60448201527f6c696379206265666f7265207570646174696e670000000000000000000000006064820152608401610a2e565b6118998d8d8d8d8d8d8d613e4b565b9d9c50505050505050505050505050565b606060006118b6614598565b6000848152602082905260408120549192508167ffffffffffffffff8111156118e1576118e16154d7565b60405190808252806020026020018201604052801561192e57816020015b604080516060808201835260008083526020830152918101919091528152602001906001900390816118ff5790505b5090506000805b83811015611a89576000878152600186016020908152604080832084845290915290205460ff1615611a815760008781526001860160209081526040808320848452825291829020825160608101909352805460ff8082161515855291928401916101009091041660078111156119ae576119ae614cc4565b60078111156119bf576119bf614cc4565b81526020016001820180546119d390615b62565b80601f01602080910402602001604051908101604052809291908181526020018280546119ff90615b62565b8015611a4c5780601f10611a2157610100808354040283529160200191611a4c565b820191906000526020600020905b815481529060010190602001808311611a2f57829003601f168201915b505050505081525050838381518110611a6757611a676159ed565b60200260200101819052508180611a7d90615bde565b9250505b600101611935565b509095945050505050565b600080611a9f613a4f565b80546001908101808355600081815282840160205260409081902080547fffffffffffffffffffffffffffffffffffffffffffffffffffffffffffffff001690931790925590517f1929cb6400000000000000000000000000000000000000000000000000000000815260048101829052336024820152919250903090631929cb64906044016020604051808303816000875af1158015611b44573d6000803e3d6000fd5b505050506040513d601f19601f82011682018060405250810190611b689190615c16565b509695505050505050565b60408051606080820183526000808352602083015291810191909152611b976145c6565b60008481526001918201602090815260408083208684528252918290208251606081018452815460ff811615158252610100900460e01b7fffffffff000000000000000000000000000000000000000000000000000000001681840152938101805484518185028101850186528181529294860193830182828015611c6b57602002820191906000526020600020906000905b82829054906101000a900460ff166007811115611c4957611c49614cc4565b815260206001928301818104948501949093039092029101808411611c2a5790505b50505050508152505090505b92915050565b60408051606080820183526000808352602083018190529282015290611ca1614598565b60008581526001820160209081526040808320878452825291829020825160608101909352805460ff8082161515855294955092939092918401916101009004166007811115611cf357611cf3614cc4565b6007811115611d0457611d04614cc4565b8152602001600182018054611d1890615b62565b80601f0160208091040260200160405190810160405280929190818152602001828054611d4490615b62565b8015611d915780601f10611d6657610100808354040283529160200191611d91565b820191906000526020600020905b815481529060010190602001808311611d7457829003601f168201915b50505050508152505091505092915050565b81816000818110611db657611db66159ed565b9050602002013533600080611dfe63901cee1160e01b858560405160240161092c92919091825273ffffffffffffffffffffffffffffffffffffffff16602082015260400190565b9150915060008215611e89576004825110611e1e57506020810151611e22565b5060005b80611e89576040517f08c379a000000000000000000000000000000000000000000000000000000000815260206004820152601860248201527f4e6f7420417574686f72697a656420546f20506f6c69637900000000000000006044820152606401610a2e565b6000611e936145f4565b90508667ffffffffffffffff811115611eae57611eae6154d7565b604051908082528060200260200182016040528015611ed7578160200160208202803683370190505b5073ffffffffffffffffffffffffffffffffffffffff8a166000908152602083815260409091208251611f1093919291909101906147e9565b5060005b87811015610c6257888882818110611f2e57611f2e6159ed565b905060200201358260000160008c73ffffffffffffffffffffffffffffffffffffffff1673ffffffffffffffffffffffffffffffffffffffff1681526020019081526020016000208281548110611f8757611f876159ed565b600091825260209091200155600101611f14565b60008333600080611fdf63901cee1160e01b858560405160240161092c92919091825273ffffffffffffffffffffffffffffffffffffffff16602082015260400190565b915091506000821561206a576004825110611fff57506020810151612003565b5060005b8061206a576040517f08c379a000000000000000000000000000000000000000000000000000000000815260206004820152601860248201527f4e6f7420417574686f72697a656420546f20506f6c69637900000000000000006044820152606401610a2e565b60006120746145c6565b905060008160000160008c815260200190815260200160002054905060018260010160008d8152602001908152602001600020600083815260200190815260200160002060000160006101000a81548160ff021916908315150217905550898260010160008d8152602001908152602001600020600083815260200190815260200160002060000160016101000a81548163ffffffff021916908360e01c0217905550888260010160008d815260200190815260200160002060008381526020019081526020016000206001019080519060200190612154929190614834565b5060009a8b526020919091526040909920805460010190555096979650505050505050565b60606000612185613b44565b6000848152602091909152604081205491508167ffffffffffffffff8111156121b0576121b06154d7565b60405190808252806020026020018201604052801561222157816020015b61220e6040805160e08101825260008082526020820181905291810182905290606082019081526020016000815260200160608152602001606081525090565b8152602001906001900390816121ce5790505b5090506000805b8381101561248757612238613b44565b60008781526001919091016020908152604080832084845290915290205460ff161561247f57612266613b44565b600087815260019190910160209081526040808320848452825291829020825160e08082018552825460ff80821615158452610100820473ffffffffffffffffffffffffffffffffffffffff16958401959095527501000000000000000000000000000000000000000000810490911b7fffffffff0000000000000000000000000000000000000000000000000000000016948201949094529290916060840191790100000000000000000000000000000000000000000000000000900416600781111561233657612336614cc4565b600781111561234757612347614cc4565b815260200160018201548152602001600282018054806020026020016040519081016040528092919081815260200182805480156123d457602002820191906000526020600020906000905b82829054906101000a900460ff1660078111156123b2576123b2614cc4565b8152602060019283018181049485019490930390920291018084116123935790505b505050505081526020016003820180548060200260200160405190810160405280929190818152602001828054801561244a57602002820191906000526020600020906000905b825461010083900a900460ff1681526020600192830181810494850194909303909202910180841161241b5790505b505050505081525050838381518110612465576124656159ed565b6020026020010181905250818061247b90615bde565b9250505b600101612228565b5090949350505050565b604051602481018390523360448201819052839160009081906124d8907f901cee11000000000000000000000000000000000000000000000000000000009060640161092c565b91509150600082156125635760048251106124f8575060208101516124fc565b5060005b80612563576040517f08c379a000000000000000000000000000000000000000000000000000000000815260206004820152601860248201527f4e6f7420417574686f72697a656420546f20506f6c69637900000000000000006044820152606401610a2e565b600061256d613a4f565b60008981526001919091016020526040812091506125896145c6565b60008a8152600191909101602090815260408083208b8452909152902054610100900460e01b90506125b96145c6565b60008a81526001918201602090815260408083208c8452909152812080547fffffffffffffffffffffffffffffffffffffffffffffffffffffff00000000001681559161260890830182614746565b5061261990506003830160006148e3565b7fffffffff000000000000000000000000000000000000000000000000000000008116600090815260018301602052604081208190555b7fffffffff000000000000000000000000000000000000000000000000000000008216600090815260028401602052604090205481101561275557612693613d44565b600082815260019182016020526040812080547fffffffffffffffffffffffffffffffffffffffffffffffffffffffffffffff00168155918201818155816126de6002850182614725565b6002820160006126ee8282614725565b6126fc600183016000614746565b61270a60028301600061476b565b5061271b9050600583016000614789565b612729600683016000614789565b6127376007830160006147a7565b6127456008830160006147a7565b5050600190920191506126509050565b507fffffffff0000000000000000000000000000000000000000000000000000000081166000908152600283016020526040812061279291614725565b600061279d8a613643565b905060005b815181101561283d578181815181106127bd576127bd6159ed565b6020026020010151600001511561283557836001016002018282815181106127e7576127e76159ed565b60209081029190910181015181015182546001810184556000938452919092206008820401805463ffffffff60079093166004026101000a928302191660e09390931c919091029190911790555b6001016127a2565b5050505050505050505050565b60405160248101839052336044820181905283916000908190612891907f901cee11000000000000000000000000000000000000000000000000000000009060640161092c565b915091506000821561291c5760048251106128b1575060208101516128b5565b5060005b8061291c576040517f08c379a000000000000000000000000000000000000000000000000000000000815260206004820152601860248201527f4e6f7420417574686f72697a656420546f20506f6c69637900000000000000006044820152606401610a2e565b612924614598565b60008881526001918201602090815260408083208a8452909152812080547fffffffffffffffffffffffffffffffffffffffffffffffffffffffffffff00001681559161297390830182614908565b505050505050505050565b6040518135602482018190523360448301819052600092839081906129c7907f901cee11000000000000000000000000000000000000000000000000000000009060640161092c565b9150915060008215612a525760048251106129e7575060208101516129eb565b5060005b80612a52576040517f08c379a000000000000000000000000000000000000000000000000000000000815260206004820152601860248201527f4e6f7420417574686f72697a656420546f20506f6c69637900000000000000006044820152606401610a2e565b6000612a5c613d44565b9050612a69818a8a613d72565b509798975050505050505050565b60008433600080612abb63901cee1160e01b858560405160240161092c92919091825273ffffffffffffffffffffffffffffffffffffffff16602082015260400190565b9150915060008215612b46576004825110612adb57506020810151612adf565b5060005b80612b46576040517f08c379a000000000000000000000000000000000000000000000000000000000815260206004820152601860248201527f4e6f7420417574686f72697a656420546f20506f6c69637900000000000000006044820152606401610a2e565b6000612b506145c6565b60008c815260018201602090815260408083208e845290915290208054919250907fffffffff000000000000000000000000000000000000000000000000000000008b811661010090920460e01b1614612c2c576040517f08c379a000000000000000000000000000000000000000000000000000000000815260206004820152603660248201527f44656c6574652066756e6374696f6e207369676e6174757265206265666f726560448201527f207570646174696e6720746f2061206e6577206f6e65000000000000000000006064820152608401610a2e565b885160018201541115612ce7576040517f08c379a000000000000000000000000000000000000000000000000000000000815260206004820152604660248201527f4e657720706172616d65746572207479706573206d757374206265206f66206760448201527f726561746572206f7220657175616c206c656e67746820746f20746865206f7260648201527f6967696e616c0000000000000000000000000000000000000000000000000000608482015260a401610a2e565b60005b6001820154811015612dfc57816001018181548110612d0b57612d0b6159ed565b90600052602060002090602091828204019190069054906101000a900460ff166007811115612d3c57612d3c614cc4565b8a8281518110612d4e57612d4e6159ed565b60200260200101516007811115612d6757612d67614cc4565b14612df4576040517f08c379a000000000000000000000000000000000000000000000000000000000815260206004820152603c60248201527f4e657720706172616d65746572207479706573206d757374206265206f66207460448201527f68652073616d65207479706520617320746865206f726967696e616c000000006064820152608401610a2e565b600101612cea565b50885160018201541015612e8a5760018101545b8951811015612e8857816001018a8281518110612e2f57612e2f6159ed565b602090810291909101810151825460018101845560009384529282902091830490910180549192909160ff601f9092166101000a918202191690836007811115612e7b57612e7b614cc4565b0217905550600101612e10565b505b50989a9950505050505050505050565b612eda6040805160e08101825260008082526020820181905291810182905290606082019081526020016000815260200160608152602001606081525090565b60405160248101859052336044820181905285916000908190612f21907f901cee11000000000000000000000000000000000000000000000000000000009060640161092c565b9150915060008215612fac576004825110612f4157506020810151612f45565b5060005b80612fac576040517f08c379a000000000000000000000000000000000000000000000000000000000815260206004820152601860248201527f4e6f7420417574686f72697a656420546f20506f6c69637900000000000000006044820152606401610a2e565b612fb587615aa2565b608081018990529550612fc88987613b72565b60405188908a907f82132283659aa079ae6d599fbbe109c1bfb961fc5bbbb0a98a343b4ea6dc3e0090600090a350505050509392505050565b6000823360008061304563901cee1160e01b858560405160240161092c92919091825273ffffffffffffffffffffffffffffffffffffffff16602082015260400190565b91509150600082156130d057600482511061306557506020810151613069565b5060005b806130d0576040517f08c379a000000000000000000000000000000000000000000000000000000000815260206004820152601860248201527f4e6f7420417574686f72697a656420546f20506f6c69637900000000000000006044820152606401610a2e565b60006130da614598565b60008a815260208290526040902054909150613100828b836130fb8d615c2f565b614622565b6000998a5260209190915260409098208054600101905550959695505050505050565b6040516024810184905233604482018190528491600090819061316a907f901cee11000000000000000000000000000000000000000000000000000000009060640161092c565b91509150600082156131f557600482511061318a5750602081015161318e565b5060005b806131f5576040517f08c379a000000000000000000000000000000000000000000000000000000000815260206004820152601860248201527f4e6f7420417574686f72697a656420546f20506f6c69637900000000000000006044820152606401610a2e565b60006131ff614598565b9050612973818a8a6130fb8b615c2f565b60405160248101839052336044820181905283916000908190613257907f901cee11000000000000000000000000000000000000000000000000000000009060640161092c565b91509150600082156132e25760048251106132775750602081015161327b565b5060005b806132e2576040517f08c379a000000000000000000000000000000000000000000000000000000000815260206004820152601860248201527f4e6f7420417574686f72697a656420546f20506f6c69637900000000000000006044820152606401610a2e565b6132ea613b44565b60008881526001918201602090815260408083208a8452909152812080547fffffffffffff000000000000000000000000000000000000000000000000000016815591820181905561333f6002830182614746565b61334d600383016000614746565b5050604051869088907f19d0bd0cc4d63f9108c93b0abfd7408498ecbc73713f6bb3a2862d9b9d1983d890600090a350505050505050565b6133c56040805160e08101825260008082526020820181905291810182905290606082019081526020016000815260200160608152602001606081525090565b6133cd613b44565b600084815260019190910160209081526040808320858452825291829020825160e08082018552825460ff80821615158452610100820473ffffffffffffffffffffffffffffffffffffffff16958401959095527501000000000000000000000000000000000000000000810490911b7fffffffff0000000000000000000000000000000000000000000000000000000016948201949094529290916060840191790100000000000000000000000000000000000000000000000000900416600781111561349d5761349d614cc4565b60078111156134ae576134ae614cc4565b8152602001600182015481526020016002820180548060200260200160405190810160405280929190818152602001828054801561353b57602002820191906000526020600020906000905b82829054906101000a900460ff16600781111561351957613519614cc4565b8152602060019283018181049485019490930390920291018084116134fa5790505b5050505050815260200160038201805480602002602001604051908101604052809291908181526020018280548015611c6b57602002820191906000526020600020906000905b825461010083900a900460ff16815260206001928301818104948501949093039092029101808411613582579050505050505081525050905092915050565b60606135cb6145f4565b73ffffffffffffffffffffffffffffffffffffffff8316600090815260209182526040908190208054825181850281018501909352808352919290919083018282801561363757602002820191906000526020600020905b815481526020019060010190808311613623575b50505050509050919050565b6060600061364f6145c6565b6000848152602082905260408120549192508167ffffffffffffffff81111561367a5761367a6154d7565b6040519080825280602002602001820160405280156136c757816020015b604080516060808201835260008083526020830152918101919091528152602001906001900390816136985790505b5090506000805b83811015611a89576000878152600186016020908152604080832084845290915290205460ff16156138065760008781526001868101602090815260408084208585528252928390208351606081018552815460ff811615158252610100900460e01b7fffffffff0000000000000000000000000000000000000000000000000000000016818401529281018054855181850281018501875281815294959294928601938301828280156137d157602002820191906000526020600020906000905b82829054906101000a900460ff1660078111156137af576137af614cc4565b8152602060019283018181049485019490930390920291018084116137905790505b5050505050815250508383815181106137ec576137ec6159ed565b6020026020010181905250818061380290615bde565b9250505b6001016136ce565b60405160248101829052336044820181905282916000908190613855907f901cee11000000000000000000000000000000000000000000000000000000009060640161092c565b91509150600082156138e057600482511061387557506020810151613879565b5060005b806138e0576040517f08c379a000000000000000000000000000000000000000000000000000000000815260206004820152601860248201527f4e6f7420417574686f72697a656420546f20506f6c69637900000000000000006044820152606401610a2e565b60006138ea613a4f565b60008881526001919091016020526040812080547fffffffffffffffffffffffffffffffffffffffffffffffffffffffffffffff0016815591505b6003820154811015613a455760038201805460018401916000918490811061394f5761394f6159ed565b90600052602060002090600891828204019190066004029054906101000a900460e01b7bffffffffffffffffffffffffffffffffffffffffffffffffffffffff19167bffffffffffffffffffffffffffffffffffffffffffffffffffffffff19168152602001908152602001600020600090558160010160010160008360010160020183815481106139e3576139e36159ed565b6000918252602080832060088304015460079092166004026101000a90910460e01b7fffffffff000000000000000000000000000000000000000000000000000000001683528201929092526040018120613a3d91614725565b600101613925565b5050505050505050565b600080611c7760017ff9dbd639dd2ea165d77dd4c51dec420100d51ceacf023b1c40faa045ba8f9a65615d16565b600060606000613a8b6146f7565b7fffffffff0000000000000000000000000000000000000000000000000000000086166000908152602082905260409081902054905191925073ffffffffffffffffffffffffffffffffffffffff16908190613ae8908790615d29565b600060405180830381855af49150503d8060008114613b23576040519150601f19603f3d011682016040523d82523d6000602084013e613b28565b606091505b50909450925083613b3b57825160208401fd5b50509250929050565b600080611c7760017f1f3305601ed940efccf797d76856e5fe70659a8a6905d64c9f236321df91e718615d16565b8060c00151518160a001515114613b8b57613b8b615d45565b6001815280613b98613b44565b6000848152600191909101602090815260408083206080860151845282529182902083518154928501519385015160e01c7501000000000000000000000000000000000000000000027fffffffffffffff00000000ffffffffffffffffffffffffffffffffffffffffff73ffffffffffffffffffffffffffffffffffffffff909516610100027fffffffffffffffffffffff0000000000000000000000000000000000000000ff921515929092167fffffffffffffffffffffff00000000000000000000000000000000000000000090941693909317179283168217815560608401519092909183917fffffffffffff00ffffffffffffffffffffffffffffffffffffffffffffffffff9091167fffffffffffff0000000000ffffffffffffffffffffffffffffffffffffffffff90911617790100000000000000000000000000000000000000000000000000836007811115613cf757613cf7614cc4565b02179055506080820151600182015560a08201518051613d21916002840191602090910190614834565b5060c08201518051613d3d916003840191602090910190614942565b5050505050565b600080611c7760017f5c91f63a4ffcbd372b8ec622fd1fcaaa601b66330afdb30e5c292dd9123f20b0615d16565b6000613d7c613a4f565b82356000908152600191909101602052604090205460ff16613dfa576040517f08c379a000000000000000000000000000000000000000000000000000000000815260206004820152601060248201527f496e76616c696420506f6c6963794964000000000000000000000000000000006044820152606401610a2e565b60008381526001858101602052604090912080547fffffffffffffffffffffffffffffffffffffffffffffffffffffffffffffff001682178155839101613e418282616902565b5092949350505050565b600080613e56613a4f565b60008a81526001820160205260408120919250613e7691600301906148e3565b82156143ed5760005b878110156143e757613ea98a888884818110613e9d57613e9d6159ed565b90506020020135611b73565b51613f10576040517f08c379a000000000000000000000000000000000000000000000000000000000815260206004820152601160248201527f496e76616c6964205369676e61747572650000000000000000000000000000006044820152606401610a2e565b868682818110613f2257613f226159ed565b905060200201358260010160008c815260200190815260200160002060010160000160008b8b85818110613f5857613f586159ed565b9050602002016020810190613f6d91906169ef565b7fffffffff0000000000000000000000000000000000000000000000000000000016815260208082019290925260409081016000908120939093558c8352600185019091529020600301898983818110613fc957613fc96159ed565b9050602002016020810190613fde91906169ef565b81546001810183556000928352602083206008820401805463ffffffff60079093166004026101000a928302191660e09390931c919091029190911790555b85858381811061402f5761402f6159ed565b90506020028101906140419190615d74565b90508110156143de57600061408f878785818110614061576140616159ed565b90506020028101906140739190615d74565b84818110614083576140836159ed565b90506020020135610d6f565b80519091506140fa576040517f08c379a000000000000000000000000000000000000000000000000000000000815260206004820152600c60248201527f496e76616c69642052756c6500000000000000000000000000000000000000006044820152606401610a2e565b60005b8160200151606001515181101561430d578160200151606001518181518110614128576141286159ed565b6020026020010151606001511561420c5761417a8d8360200151606001518381518110614157576141576159ed565b6020026020010151602001516fffffffffffffffffffffffffffffffff16613385565b51614207576040517f08c379a000000000000000000000000000000000000000000000000000000000815260206004820152602760248201527f466f726569676e2043616c6c207265666572656e63656420696e2072756c652060448201527f6e6f7420736574000000000000000000000000000000000000000000000000006064820152608401610a2e565b614305565b8160200151606001518181518110614226576142266159ed565b60200260200101516040015115614305576142788d8360200151606001518381518110614255576142556159ed565b6020026020010151602001516fffffffffffffffffffffffffffffffff16611c7d565b51614305576040517f08c379a000000000000000000000000000000000000000000000000000000000815260206004820152602260248201527f547261636b6572207265666572656e63656420696e2072756c65206e6f74207360448201527f65740000000000000000000000000000000000000000000000000000000000006064820152608401610a2e565b6001016140fd565b5060008c81526001850160205260408120600201908c8c86818110614334576143346159ed565b905060200201602081019061434991906169ef565b7fffffffff00000000000000000000000000000000000000000000000000000000168152602081019190915260400160002087878581811061438d5761438d6159ed565b905060200281019061439f9190615d74565b848181106143af576143af6159ed565b83546001808201865560009586526020958690209290950293909301359201919091555091909101905061401d565b50600101613e7f565b5061458b565b60005b878110156145895761440e8a888884818110613e9d57613e9d6159ed565b51614475576040517f08c379a000000000000000000000000000000000000000000000000000000000815260206004820152601160248201527f496e76616c6964205369676e61747572650000000000000000000000000000006044820152606401610a2e565b868682818110614487576144876159ed565b905060200201358260010160008c815260200190815260200160002060010160000160008b8b858181106144bd576144bd6159ed565b90506020020160208101906144d291906169ef565b7fffffffff0000000000000000000000000000000000000000000000000000000016815260208082019290925260409081016000908120939093558c835260018501909152902060030189898381811061452e5761452e6159ed565b905060200201602081019061454391906169ef565b815460018082018455600093845260209093206008820401805463ffffffff60079093166004026101000a928302191660e09390931c91909102919091179055016143f0565b505b5096979650505050505050565b600080611c7760017f438102ff677bc3f21830c58117a05d6b953b31e3ea339da3f17957cd3941a690615d16565b600080611c7760017f8b87534450a5488e76eda19b94ce784ed5d5fd327ac126c78047b6b2a04cf2f6615d16565b600080611c7760017f1544053a94493269e0aa160e5aa5b54d19ee6492c78b8bd3af283b912c78cdeb615d16565b60018082526000848152908501602090815260408083208584528252909120825181549015157fffffffffffffffffffffffffffffffffffffffffffffffffffffffffffffff00821681178355928401518493909183917fffffffffffffffffffffffffffffffffffffffffffffffffffffffffffff00ff167fffffffffffffffffffffffffffffffffffffffffffffffffffffffffffff0000909116176101008360078111156146d5576146d5614cc4565b0217905550604082015160018201906146ee9082616a0a565b50505050505050565b600080611c7760017fbe498a3b14fd79a48c3c9af86ff14271ed497d09071013334028d28e7791db20615d16565b508054600082559060005260206000209081019061474391906149a9565b50565b50805460008255601f01602090049060005260206000209081019061474391906149a9565b508054600082559060005260206000209081019061474391906149be565b508054600082559060005260206000209081019061474391906149db565b50805460008255600502906000526020600020908101906147439190614a12565b60405180604001604052806000151581526020016147e4614a7e565b905290565b828054828255906000526020600020908101928215614824579160200282015b82811115614824578251825591602001919060010190614809565b506148309291506149a9565b5090565b82805482825590600052602060002090601f016020900481019282156148245791602002820160005b838211156148a957835183826101000a81548160ff0219169083600781111561488857614888614cc4565b0217905550926020019260010160208160000104928301926001030261485d565b80156148d65782816101000a81549060ff02191690556001016020816000010492830192600103026148a9565b50506148309291506149a9565b50805460008255600701600890049060005260206000209081019061474391906149a9565b50805461491490615b62565b6000825580601f10614924575050565b601f01602090049060005260206000209081019061474391906149a9565b82805482825590600052602060002090601f016020900481019282156148245791602002820160005b838211156148a957835183826101000a81548160ff021916908360ff160217905550926020019260010160208160000104928301926001030261496b565b5b8082111561483057600081556001016149aa565b808211156148305760006149d28282614908565b506001016149be565b5b808211156148305780547fffffffffffffffffffffffffff000000000000000000000000000000000000001681556001016149dc565b808211156148305780547fffffffffffffffffffffffffffffffffffffffffffffffffffffffff000000001681556000614a4f6001830182614908565b6002820160009055600382016000614a679190614908565b614a75600483016000614725565b50600501614a12565b6040518060e001604052806000815260200160608152602001614abb60405180606001604052806060815260200160608152602001606081525090565b8152602001606081526020016060815260200160608152602001606081525090565b600060208284031215614aef57600080fd5b5035919050565b600081518084526020840193506020830160005b82811015614b28578151865260209586019590910190600101614b0a565b5093949350505050565b6060808252845190820181905260009060208601906080840190835b81811015614b8e5783517fffffffff0000000000000000000000000000000000000000000000000000000016835260209384019390920191600101614b4e565b50508381036020850152614ba28187614af6565b915050828103604084015280845180835260208301915060208160051b8401016020870160005b83811015614c19577fffffffffffffffffffffffffffffffffffffffffffffffffffffffffffffffe0868403018552614c03838351614af6565b6020958601959093509190910190600101614bc9565b50909998505050505050505050565b600060e08284031215614c3a57600080fd5b50919050565b60008060408385031215614c5357600080fd5b82359150602083013567ffffffffffffffff811115614c7157600080fd5b614c7d85828601614c28565b9150509250929050565b600060208284031215614c9957600080fd5b813567ffffffffffffffff811115614cb057600080fd5b614cbc84828501614c28565b949350505050565b7f4e487b7100000000000000000000000000000000000000000000000000000000600052602160045260246000fd5b60088110614d0357614d03614cc4565b9052565b600081518084526020840193506020830160005b82811015614b2857614d2e868351614cf3565b6020958601959190910190600101614d1b565b60005b83811015614d5c578181015183820152602001614d44565b50506000910152565b60008151808452614d7d816020860160208601614d41565b601f017fffffffffffffffffffffffffffffffffffffffffffffffffffffffffffffffe0169290920160200192915050565b6000815160608452614dc46060850182614af6565b905060208301518482036020860152614ddd8282614d07565b9150506040830151848203604086015281815180845260208401915060208160051b85010160208401935060005b82811015614e5a577fffffffffffffffffffffffffffffffffffffffffffffffffffffffffffffffe0868303018452614e45828651614d65565b60209586019594909401939150600101614e0b565b50979650505050505050565b600081518084526020840193506020830160005b82811015614b28578151614e8f878251614cf3565b6fffffffffffffffffffffffffffffffff602082015116602088015260408101511515604088015260608101511515606088015250608086019550602082019150600181019050614e7a565b60038110614d0357614d03614cc4565b600082825180855260208501945060208160051b8301016020850160005b83811015614fec578483037fffffffffffffffffffffffffffffffffffffffffffffffffffffffffffffffe001885281518051151584526020810151614f53602086018215159052565b506040810151614f666040860182614edb565b506060810151614f796060860182614cf3565b5060808101516101006080860152614f95610100860182614d65565b905060a082015160a086015260c082015185820360c0870152614fb88282614d65565b91505060e0820151915084810360e0860152614fd48183614af6565b60209a8b019a90955093909301925050600101614f09565b50909695505050505050565b602081528151151560208201526000602083015160408084015280516060840152602081015160e06080850152615033610140850182614af6565b905060408201517fffffffffffffffffffffffffffffffffffffffffffffffffffffffffffffffa08583030160a086015261506e8282614daf565b91505060608201517fffffffffffffffffffffffffffffffffffffffffffffffffffffffffffffffa08583030160c08601526150aa8282614e66565b91505060808201517fffffffffffffffffffffffffffffffffffffffffffffffffffffffffffffffa08583030160e08601526150e68282614e66565b91505060a08201517fffffffffffffffffffffffffffffffffffffffffffffffffffffffffffffffa0858303016101008601526151238282614eeb565b91505060c082015191507fffffffffffffffffffffffffffffffffffffffffffffffffffffffffffffffa0848203016101208501526151628183614eeb565b95945050505050565b60008083601f84011261517d57600080fd5b50813567ffffffffffffffff81111561519557600080fd5b6020830191508360208260051b85010111156151b057600080fd5b9250929050565b60008060008060008060006080888a0312156151d257600080fd5b87359650602088013567ffffffffffffffff8111156151f057600080fd5b6151fc8a828b0161516b565b909750955050604088013567ffffffffffffffff81111561521c57600080fd5b6152288a828b0161516b565b909550935050606088013567ffffffffffffffff81111561524857600080fd5b6152548a828b0161516b565b989b979a50959850939692959293505050565b805115158252600060208201516152816020850182614cf3565b50604082015160606040850152614cbc6060850182614d65565b6000602082016020835280845180835260408501915060408160051b86010192506020860160005b82811015615312577fffffffffffffffffffffffffffffffffffffffffffffffffffffffffffffffc08786030184526152fd858351615267565b945060209384019391909101906001016152c3565b50929695505050505050565b6000806000806040858703121561533457600080fd5b843567ffffffffffffffff81111561534b57600080fd5b6153578782880161516b565b909550935050602085013567ffffffffffffffff81111561537757600080fd5b6153838782880161516b565b95989497509550505050565b600080604083850312156153a257600080fd5b50508035926020909101359150565b8051151582527fffffffff0000000000000000000000000000000000000000000000000000000060208201511660208301526000604082015160606040850152614cbc6060850182614d07565b60208152600061541160208301846153b1565b9392505050565b6020815260006154116020830184615267565b803573ffffffffffffffffffffffffffffffffffffffff8116811461544f57600080fd5b919050565b60008060006040848603121561546957600080fd5b6154728461542b565b9250602084013567ffffffffffffffff81111561548e57600080fd5b61549a8682870161516b565b9497909650939450505050565b80357fffffffff000000000000000000000000000000000000000000000000000000008116811461544f57600080fd5b7f4e487b7100000000000000000000000000000000000000000000000000000000600052604160045260246000fd5b60405160e0810167ffffffffffffffff81118282101715615529576155296154d7565b60405290565b6040516060810167ffffffffffffffff81118282101715615529576155296154d7565b604051601f82017fffffffffffffffffffffffffffffffffffffffffffffffffffffffffffffffe016810167ffffffffffffffff81118282101715615599576155996154d7565b604052919050565b600067ffffffffffffffff8211156155bb576155bb6154d7565b5060051b60200190565b6008811061474357600080fd5b803561544f816155c5565b600082601f8301126155ee57600080fd5b81356156016155fc826155a1565b615552565b8082825260208201915060208360051b86010192508583111561562357600080fd5b602085015b8381101561564957803561563b816155c5565b835260209283019201615628565b5095945050505050565b60008060006060848603121561566857600080fd5b83359250615678602085016154a7565b9150604084013567ffffffffffffffff81111561569457600080fd5b6156a0868287016155dd565b9150509250925092565b600081518084526020840193506020830160005b82811015614b2857815160ff168652602095860195909101906001016156be565b80511515825273ffffffffffffffffffffffffffffffffffffffff60208201511660208301527fffffffff000000000000000000000000000000000000000000000000000000006040820151166040830152600060608201516157456060850182614cf3565b506080820151608084015260a082015160e060a085015261576960e0850182614d07565b905060c083015184820360c086015261516282826156aa565b6000602082016020835280845180835260408501915060408160051b86010192506020860160005b82811015615312577fffffffffffffffffffffffffffffffffffffffffffffffffffffffffffffffc08786030184526157e48583516156df565b945060209384019391909101906001016157aa565b6000806000806080858703121561580f57600080fd5b8435935060208501359250615826604086016154a7565b9150606085013567ffffffffffffffff81111561584257600080fd5b61584e878288016155dd565b91505092959194509250565b60008060006060848603121561586f57600080fd5b8335925060208401359150604084013567ffffffffffffffff81111561589457600080fd5b6156a086828701614c28565b60208152600061541160208301846156df565b600060608284031215614c3a57600080fd5b600080604083850312156158d857600080fd5b82359150602083013567ffffffffffffffff8111156158f657600080fd5b614c7d858286016158b3565b60008060006060848603121561591757600080fd5b8335925060208401359150604084013567ffffffffffffffff81111561593c57600080fd5b6156a0868287016158b3565b60006020828403121561595a57600080fd5b6154118261542b565b6020815260006154116020830184614af6565b6000602082016020835280845180835260408501915060408160051b86010192506020860160005b82811015615312577fffffffffffffffffffffffffffffffffffffffffffffffffffffffffffffffc08786030184526159d88583516153b1565b9450602093840193919091019060010161599e565b7f4e487b7100000000000000000000000000000000000000000000000000000000600052603260045260246000fd5b801515811461474357600080fd5b803561544f81615a1c565b600082601f830112615a4657600080fd5b8135615a546155fc826155a1565b8082825260208201915060208360051b860101925085831115615a7657600080fd5b602085015b8381101561564957803560ff81168114615a9457600080fd5b835260209283019201615a7b565b600060e08236031215615ab457600080fd5b615abc615506565b615ac583615a2a565b8152615ad36020840161542b565b6020820152615ae4604084016154a7565b6040820152615af5606084016155d2565b60608201526080838101359082015260a083013567ffffffffffffffff811115615b1e57600080fd5b615b2a368286016155dd565b60a08301525060c083013567ffffffffffffffff811115615b4a57600080fd5b615b5636828601615a35565b60c08301525092915050565b600181811c90821680615b7657607f821691505b602082108103614c3a577f4e487b7100000000000000000000000000000000000000000000000000000000600052602260045260246000fd5b7f4e487b7100000000000000000000000000000000000000000000000000000000600052601160045260246000fd5b60007fffffffffffffffffffffffffffffffffffffffffffffffffffffffffffffffff8203615c0f57615c0f615baf565b5060010190565b600060208284031215615c2857600080fd5b5051919050565b600060608236031215615c4157600080fd5b615c4961552f565b8235615c5481615a1c565b81526020830135615c64816155c5565b6020820152604083013567ffffffffffffffff811115615c8357600080fd5b830136601f820112615c9457600080fd5b803567ffffffffffffffff811115615cae57615cae6154d7565b615cdf60207fffffffffffffffffffffffffffffffffffffffffffffffffffffffffffffffe0601f84011601615552565b818152366020838501011115615cf457600080fd5b8160208401602083013760009181016020019190915260408301525092915050565b81810381811115611c7757611c77615baf565b60008251615d3b818460208701614d41565b9190910192915050565b7f4e487b7100000000000000000000000000000000000000000000000000000000600052600160045260246000fd5b60008083357fffffffffffffffffffffffffffffffffffffffffffffffffffffffffffffffe1843603018112615da957600080fd5b83018035915067ffffffffffffffff821115615dc457600080fd5b6020019150600581901b36038213156151b057600080fd5b5b81811015615df15760008155600101615ddd565b5050565b68010000000000000000821115615e0e57615e0e6154d7565b805482825580831015615e3457816000526020600020615e32828201858301615ddc565b505b505050565b67ffffffffffffffff831115615e5157615e516154d7565b615e5b8382615df5565b8181600052602060002060005b85811015615e8457823582820155602090920191600101615e68565b505050505050565b600082357fffffffffffffffffffffffffffffffffffffffffffffffffffffffffffffffa1833603018112615d3b57600080fd5b68010000000000000000821115615ed957615ed96154d7565b805482825580831015615e3457816000526020600020601f840160051c8101601f85168015615f55577fffffffffffffffffffffffffffffffffffffffffffffffffffffffffffffffff820180547fffffffffffffffffffffffffffffffffffffffffffffffffffffffffffffffff8360200360031b1c168155505b50613d3d601f840160051c830182615ddc565b60008135611c77816155c5565b60008083357fffffffffffffffffffffffffffffffffffffffffffffffffffffffffffffffe1843603018112615faa57600080fd5b83018035915067ffffffffffffffff821115615fc557600080fd5b6020019150368190038213156151b057600080fd5b615fe48154615b62565b8015615df157601f811160018114615ffe57505060009055565b60008381526020902061601c601f840160051c820160018301615ddc565b5060008381526020812081855555505050565b601f821115615e3457806000526020600020601f840160051c810160208510156160565750805b613d3d601f850160051c830182615ddc565b67ffffffffffffffff831115616080576160806154d7565b6160948361608e8354615b62565b8361602f565b6000601f8411600181146160e657600085156160b05750838201355b7fffffffffffffffffffffffffffffffffffffffffffffffffffffffffffffffff600387901b1c1916600186901b178355613d3d565b6000838152602090207fffffffffffffffffffffffffffffffffffffffffffffffffffffffffffffffe0861690835b828110156161355786850135825560209485019460019092019101616115565b5086821015616170577fffffffffffffffffffffffffffffffffffffffffffffffffffffffffffffffff60f88860031b161c19848701351681555b505060018560011b0183555050505050565b6801000000000000000083111561619b5761619b6154d7565b8054838255808410156161d7576000828152602090208481019082015b808210156161d4576161c982615fda565b6001820191506161b8565b50505b5060008181526020812083915b85811015615e84576161f68386615f75565b616201818386616068565b505060209290920191600191820191016161e4565b6162208283615d74565b67ffffffffffffffff811115616238576162386154d7565b6162428184615df5565b82600052602060002060005b8281101561626a5783358282015560209093019260010161624e565b505050506001810161627f6020840184615d74565b67ffffffffffffffff811115616297576162976154d7565b6162a18184615ec0565b60008381526020902092508060051c60005b81811015616309576000805b60208110156162fc576162eb6162d487615f68565b60ff908116600384901b90811b91901b1984161790565b6020969096019591506001016162bf565b50858201556001016162b3565b507fffffffffffffffffffffffffffffffffffffffffffffffffffffffffffffffe08216808303818414616366576000805b828110156163605761634f6162d488615f68565b60209790970196915060010161633b565b50868401555b5050505050506163796040830183615d74565b615e32818360028601616182565b60008083357fffffffffffffffffffffffffffffffffffffffffffffffffffffffffffffffe18436030181126163bc57600080fd5b83018035915067ffffffffffffffff8211156163d757600080fd5b6020019150600781901b36038213156151b057600080fd5b60008135611c7781615a1c565b8135616407816155c5565b6008811061641757616417614cc4565b815460ff82169150817fffffffffffffffffffffffffffffffffffffffffffffffffffffffffffffff00821617835560208401356fffffffffffffffffffffffffffffffff8116811461646957600080fd5b70ffffffffffffffffffffffffffffffff008160081b16837fffffffffffffffffffffffffffffff0000000000000000000000000000000000841617178455505050600060408301356164bb81615a1c565b82547fffffffffffffffffffffffffffff00ffffffffffffffffffffffffffffffffff1690151560881b71ff00000000000000000000000000000000001617825550615df161650c606084016163ef565b8280547fffffffffffffffffffffffffff00ffffffffffffffffffffffffffffffffffff1691151560901b72ff00000000000000000000000000000000000016919091179055565b6801000000000000000083111561656d5761656d6154d7565b8054838255808410156165a4576000828152602090208481019082015b808210156165a1576000825560018201915061658a565b50505b5060008181526020812083915b85811015615e84576165c383836163fc565b60809290920191600191820191016165b1565b600082357fffffffffffffffffffffffffffffffffffffffffffffffffffffffffffffff01833603018112615d3b57600080fd5b8054600082558015615df157816000526020600020615e3482820182615ddc565b6000813560038110611c7757600080fd5b6003821061664c5761664c614cc4565b805462ff00008360101b167fffffffffffffffffffffffffffffffffffffffffffffffffffffffffff00ffff8216178255505050565b6008821061669257616692614cc4565b805463ff0000008360181b167fffffffffffffffffffffffffffffffffffffffffffffffffffffffff00ffffff8216178255505050565b81356166d481615a1c565b7fffffffffffffffffffffffffffffffffffffffffffffffffffffffffffffff0082541660ff8215151681178355505061674a616713602084016163ef565b8280547fffffffffffffffffffffffffffffffffffffffffffffffffffffffffffff00ff1691151560081b61ff0016919091179055565b61675f6167596040840161662b565b8261663c565b61677461676e60608401615f68565b82616682565b6167816080830183615f75565b61678f818360018601616068565b505060a082013560028201556167a860c0830183615f75565b6167b6818360038601616068565b50506167c560e0830183615d74565b615e32818360048601615e39565b680100000000000000008311156167ec576167ec6154d7565b8054838255808410156168c4578060050260058104821461680f5761680f615baf565b8460050260058104861461682557616825615baf565b60008481526020902091820191015b818110156168c1576000815561684c60018201615fda565b60006002820155600381016168618154615b62565b80156168ab57601f81116001811461687c57600083556168a9565b60008381526020902061689a601f840160051c820160018301615ddc565b50600083815260208120818555555b505b50506168b96004820161660a565b600501616834565b50505b5060008181526020812083915b85811015615e84576168ec6168e684876165d6565b836166c9565b60209290920191600591909101906001016168d1565b81358155600181016169176020840184615d74565b67ffffffffffffffff81111561692f5761692f6154d7565b6169398184615df5565b600092835260208320925b8181101561696057823584820155602090920191600101616944565b5050505061697d6169746040840184615e8c565b60028301616216565b61698a6060830183616387565b616998818360058601616554565b50506169a76080830183616387565b6169b5818360068601616554565b50506169c460a0830183615d74565b6169d28183600786016167d3565b50506169e160c0830183615d74565b615e328183600886016167d3565b600060208284031215616a0157600080fd5b615411826154a7565b815167ffffffffffffffff811115616a2457616a246154d7565b616a3881616a328454615b62565b8461602f565b6020601f821160018114616a8a5760008315616a545750848201515b7fffffffffffffffffffffffffffffffffffffffffffffffffffffffffffffffff600385901b1c1916600184901b178455613d3d565b6000848152602081207fffffffffffffffffffffffffffffffffffffffffffffffffffffffffffffffe08516915b82811015616ad85787850151825560209485019460019092019101616ab8565b5084821015616b1457868401517fffffffffffffffffffffffffffffffffffffffffffffffffffffffffffffffff600387901b60f8161c191681555b50505050600190811b0190555056fea2646970667358221220f917dfab6584379a759ea8843442fb3d22eb602f0629fbbdf5cb30fb095ca4d164736f6c634300081c0033","linkReferences":{}},"methodIdentifiers":{"applyPolicy(address,uint256[])":"9228303f","createForeignCall(uint256,(bool,address,bytes4,uint8,uint256,uint8[],uint8[]))":"2e4c803b","createFunctionSignature(uint256,bytes4,uint8[])":"9fe9c9b8","createPolicy((bool,bytes4,uint8[])[],(uint256,uint256[],(uint256[],uint8[],bytes[]),(uint8,uint128,bool,bool)[],(uint8,uint128,bool,bool)[],(bool,bool,uint8,uint8,bytes,bytes32,string,uint256[])[],(bool,bool,uint8,uint8,bytes,bytes32,string,uint256[])[])[])":"59ad408d","createRule((uint256,uint256[],(uint256[],uint8[],bytes[]),(uint8,uint128,bool,bool)[],(uint8,uint128,bool,bool)[],(bool,bool,uint8,uint8,bytes,bytes32,string,uint256[])[],(bool,bool,uint8,uint8,bytes,bytes32,string,uint256[])[]))":"44564dc7","createTracker(uint256,(bool,uint8,bytes))":"cd42bcf8","deleteForeignCall(uint256,uint256)":"d82260c8","deleteFunctionSignature(uint256,uint256)":"a626bb8d","deletePolicy(uint256)":"fed27c8f","deleteRule(uint256)":"30626b5c","deleteTracker(uint256,uint256)":"a82c9e07","getAllForeignCalls(uint256)":"a3937e99","getAllFunctionSignatures(uint256)":"e7e31b31","getAllTrackers(uint256)":"56f3b05f","getAppliedPolicyIds(address)":"e3749023","getForeignCall(uint256,uint256)":"da7d5d28","getFunctionSignature(uint256,uint256)":"660dac4d","getPolicy(uint256)":"2b07fce3","getRule(uint256)":"48462037","getTracker(uint256,uint256)":"72a340d7","updateForeignCall(uint256,uint256,(bool,address,bytes4,uint8,uint256,uint8[],uint8[]))":"c017d300","updateFunctionSignature(uint256,uint256,bytes4,uint8[])":"bcb01c22","updatePolicy(uint256,bytes4[],uint256[],uint256[][])":"50a9f0d4","updateRule(uint256,(uint256,uint256[],(uint256[],uint8[],bytes[]),(uint8,uint128,bool,bool)[],(uint8,uint128,bool,bool)[],(bool,bool,uint8,uint8,bytes,bytes32,string,uint256[])[],(bool,bool,uint8,uint8,bytes,bytes32,string,uint256[])[]))":"ae635b7c","updateTracker(uint256,uint256,(bool,uint8,bytes))":"cf7c6728"},"id":74}