{"abi":[{"type":"constructor","inputs":[{"name":"diamondCut","type":"tuple[]","internalType":"struct FacetCut[]","components":[{"name":"facetAddress","type":"address","internalType":"address"},{"name":"action","type":"uint8","internalType":"enum FacetCutAction"},{"name":"functionSelectors","type":"bytes4[]","internalType":"bytes4[]"}]},{"name":"args","type":"tuple","internalType":"struct RulesEngineDiamondArgs","components":[{"name":"init","type":"address","internalType":"address"},{"name":"initCalldata","type":"bytes","internalType":"bytes"}]}],"stateMutability":"payable"},{"type":"fallback","stateMutability":"payable"},{"type":"receive","stateMutability":"payable"},{"type":"function","name":"batch","inputs":[{"name":"calls","type":"bytes[]","internalType":"bytes[]"},{"name":"revertOnFail","type":"bool","internalType":"bool"}],"outputs":[],"stateMutability":"nonpayable"},{"type":"event","name":"DiamondCut","inputs":[{"name":"_diamondCut","type":"tuple[]","indexed":false,"internalType":"struct FacetCut[]","components":[{"name":"facetAddress","type":"address","internalType":"address"},{"name":"action","type":"uint8","internalType":"enum FacetCutAction"},{"name":"functionSelectors","type":"bytes4[]","internalType":"bytes4[]"}]},{"name":"init","type":"address","indexed":false,"internalType":"address"},{"name":"data","type":"bytes","indexed":false,"internalType":"bytes"}],"anonymous":false},{"type":"event","name":"EngineDeployed","inputs":[],"anonymous":false},{"type":"error","name":"BatchError","inputs":[{"name":"innerError","type":"bytes","internalType":"bytes"}]},{"type":"error","name":"CannotAddFunctionToDiamondThatAlreadyExists","inputs":[{"name":"_selector","type":"bytes4","internalType":"bytes4"}]},{"type":"error","name":"CannotAddSelectorsToZeroAddress","inputs":[{"name":"_selectors","type":"bytes4[]","internalType":"bytes4[]"}]},{"type":"error","name":"CannotRemoveFunctionThatDoesNotExist","inputs":[{"name":"_selector","type":"bytes4","internalType":"bytes4"}]},{"type":"error","name":"CannotRemoveImmutableFunction","inputs":[{"name":"_selector","type":"bytes4","internalType":"bytes4"}]},{"type":"error","name":"CannotReplaceFunctionThatDoesNotExists","inputs":[{"name":"_selector","type":"bytes4","internalType":"bytes4"}]},{"type":"error","name":"CannotReplaceFunctionWithTheSameFunctionFromTheSameFacet","inputs":[{"name":"_selector","type":"bytes4","internalType":"bytes4"}]},{"type":"error","name":"CannotReplaceFunctionsFromFacetWithZeroAddress","inputs":[{"name":"_selectors","type":"bytes4[]","internalType":"bytes4[]"}]},{"type":"error","name":"CannotReplaceImmutableFunction","inputs":[{"name":"_selector","type":"bytes4","internalType":"bytes4"}]},{"type":"error","name":"FacetHasNoCodeOrHasBeenDestroyed","inputs":[]},{"type":"error","name":"FunctionNotFound","inputs":[{"name":"_functionSelector","type":"bytes4","internalType":"bytes4"}]},{"type":"error","name":"IncorrectFacetCutAction","inputs":[{"name":"_action","type":"uint8","internalType":"uint8"}]},{"type":"error","name":"InitializationFunctionReverted","inputs":[{"name":"initializationContractAddress","type":"address","internalType":"address"},{"name":"data","type":"bytes","internalType":"bytes"}]},{"type":"error","name":"NoBytecodeAtAddress","inputs":[{"name":"_contractAddress","type":"address","internalType":"address"},{"name":"_message","type":"string","internalType":"string"}]},{"type":"error","name":"NoSelectorsProvidedForFacetForCut","inputs":[{"name":"_facetAddress","type":"address","internalType":"address"}]},{"type":"error","name":"RemoveFacetAddressMustBeZeroAddress","inputs":[{"name":"_facetAddress","type":"address","internalType":"address"}]}],"bytecode":{"object":"0x60806040526040516113b73803806113b783398101604081905261002291610a6c565b80516020820151610034918491610064565b6040517f9bda6a2e0a1f247f0674a888afc09fb63c7274360768368a2ef0ab498503f29690600090a15050610e70565b60005b83518110156101c657600084828151811061008457610084610c27565b602002602001015160400151905060008583815181106100a6576100a6610c27565b602002602001015160000151905081516000036100e65760405163e767f91f60e01b81526001600160a01b03821660048201526024015b60405180910390fd5b60008684815181106100fa576100fa610c27565b60200260200101516020015190506000600281111561011b5761011b610c3d565b81600281111561012d5761012d610c3d565b036101415761013c8284610211565b6101b8565b600181600281111561015557610155610c3d565b036101645761013c82846103af565b600281600281111561017857610178610c3d565b036101875761013c8284610535565b80600281111561019957610199610c3d565b604051633ff4d20f60e11b815260ff90911660048201526024016100dd565b505050806001019050610067565b507f8faa70878671ccd212d20771b795c50af8fd3ff6cf27f4bde57e5d4de0aeb6738383836040516101fa93929190610cc5565b60405180910390a161020c82826107a6565b505050565b6001600160a01b03821661023a57806040516302b8da0760e21b81526004016100dd9190610d97565b600061024461086c565b90506000816001018054905090506102748460405180606001604052806024815260200161136b602491396108a0565b60005b83518110156103a857600084828151811061029457610294610c27565b6020908102919091018101516001600160e01b031981166000908152918690526040909120549091506001600160a01b031680156102f15760405163ebbf5d0760e01b81526001600160e01b0319831660048201526024016100dd565b6040805180820182526001600160a01b03808a16825261ffff80881660208085019182526001600160e01b0319881660009081528b8252958620945185549251909316600160a01b026001600160b01b0319909216929093169190911717909155600180880180549182018155835291206008820401805460e085901c60046007909416939093026101000a92830263ffffffff909302191691909117905561039984610dc7565b93505050806001019050610277565b5050505050565b60006103b961086c565b90506001600160a01b0383166103e4578160405163cd98a96f60e01b81526004016100dd9190610d97565b6104068360405180606001604052806028815260200161138f602891396108a0565b60005b825181101561052f57600083828151811061042657610426610c27565b6020908102919091018101516001600160e01b031981166000908152918590526040909120549091506001600160a01b031630810361048457604051632901806d60e11b81526001600160e01b0319831660048201526024016100dd565b856001600160a01b0316816001600160a01b0316036104c257604051631ac6ce8d60e11b81526001600160e01b0319831660048201526024016100dd565b6001600160a01b0381166104f557604051637479f93960e01b81526001600160e01b0319831660048201526024016100dd565b506001600160e01b031916600090815260208390526040902080546001600160a01b0319166001600160a01b038616179055600101610409565b50505050565b600061053f61086c565b60018101549091506001600160a01b0384161561057a5760405163d091bc8160e01b81526001600160a01b03851660048201526024016100dd565b60005b83518110156103a857600084828151811061059a5761059a610c27565b6020908102919091018101516001600160e01b0319811660009081528683526040908190208151808301909252546001600160a01b038116808352600160a01b90910461ffff16938201939093529092509061061557604051637a08a22d60e01b81526001600160e01b0319831660048201526024016100dd565b8051306001600160a01b039091160361064d57604051630df5fd6160e31b81526001600160e01b0319831660048201526024016100dd565b8361065781610de8565b94505083816020015161ffff161461073557600085600101858154811061068057610680610c27565b90600052602060002090600891828204019190066004029054906101000a900460e01b90508086600101836020015161ffff16815481106106c3576106c3610c27565b600091825260208083206008830401805463ffffffff60079094166004026101000a938402191660e09590951c92909202939093179055838201516001600160e01b03199390931681529087905260409020805461ffff60a01b1916600160a01b61ffff909316929092029190911790555b8460010180548061074857610748610dff565b60008281526020808220600860001990940193840401805463ffffffff600460078716026101000a0219169055919092556001600160e01b0319909316815291859052506040902080546001600160b01b031916905560010161057d565b6001600160a01b0382166107b8575050565b6107da82604051806060016040528060278152602001611344602791396108a0565b600080836001600160a01b0316836040516107f59190610e15565b600060405180830381855af49150503d8060008114610830576040519150601f19603f3d011682016040523d82523d6000602084013e610835565b606091505b50915091508161052f5780511561084f5780518082602001fd5b838360405163192105d760e01b81526004016100dd929190610e31565b60008061089a60017fbe498a3b14fd79a48c3c9af86ff14271ed497d09071013334028d28e7791db20610e5d565b92915050565b813b600081900361020c57828260405163919834b960e01b81526004016100dd929190610e31565b634e487b7160e01b600052604160045260246000fd5b604080519081016001600160401b0381118282101715610900576109006108c8565b60405290565b604051606081016001600160401b0381118282101715610900576109006108c8565b604051601f8201601f191681016001600160401b0381118282101715610950576109506108c8565b604052919050565b60006001600160401b03821115610971576109716108c8565b5060051b60200190565b80516001600160a01b038116811461099257600080fd5b919050565b60005b838110156109b257818101518382015260200161099a565b50506000910152565b6000604082840312156109cd57600080fd5b6109d56108de565b90506109e08261097b565b815260208201516001600160401b038111156109fb57600080fd5b8201601f81018413610a0c57600080fd5b80516001600160401b03811115610a2557610a256108c8565b610a38601f8201601f1916602001610928565b818152856020838501011115610a4d57600080fd5b610a5e826020830160208601610997565b602084015250909392505050565b60008060408385031215610a7f57600080fd5b82516001600160401b03811115610a9557600080fd5b8301601f81018513610aa657600080fd5b8051610ab9610ab482610958565b610928565b8082825260208201915060208360051b850101925087831115610adb57600080fd5b602084015b83811015610bf05780516001600160401b03811115610afe57600080fd5b85016060818b03601f19011215610b1457600080fd5b610b1c610906565b610b286020830161097b565b8152604082015160038110610b3c57600080fd5b602082015260608201516001600160401b03811115610b5a57600080fd5b6020818401019250508a601f830112610b7257600080fd5b8151610b80610ab482610958565b8082825260208201915060208360051b86010192508d831115610ba257600080fd5b6020850194505b82851015610bda5784516001600160e01b031981168114610bc957600080fd5b825260209485019490910190610ba9565b6040840152505084525060209283019201610ae0565b506020870151909550925050506001600160401b03811115610c1157600080fd5b610c1d858286016109bb565b9150509250929050565b634e487b7160e01b600052603260045260246000fd5b634e487b7160e01b600052602160045260246000fd5b600081518084526020840193506020830160005b82811015610c8f5781516001600160e01b031916865260209586019590910190600101610c67565b5093949350505050565b60008151808452610cb1816020860160208601610997565b601f01601f19169290920160200192915050565b6000606082016060835280865180835260808501915060808160051b86010192506020880160005b82811015610d6857868503607f19018452815180516001600160a01b03168652602081015160038110610d3057634e487b7160e01b600052602160045260246000fd5b806020880152506040810151905060606040870152610d526060870182610c53565b9550506020938401939190910190600101610ced565b5050506001600160a01b0386166020850152508281036040840152610d8d8185610c99565b9695505050505050565b602081526000610daa6020830184610c53565b9392505050565b634e487b7160e01b600052601160045260246000fd5b600061ffff821661ffff8103610ddf57610ddf610db1565b60010192915050565b600081610df757610df7610db1565b506000190190565b634e487b7160e01b600052603160045260246000fd5b60008251610e27818460208701610997565b9190910192915050565b6001600160a01b0383168152604060208201819052600090610e5590830184610c99565b949350505050565b8181038181111561089a5761089a610db1565b6104c580610e7f6000396000f3fe6080604052600436106100225760003560e01c8063d2423b511461003357610029565b3661002957005b610031610053565b005b34801561003f57600080fd5b5061003161004e366004610231565b61012a565b60008061008160017fbe498a3b14fd79a48c3c9af86ff14271ed497d09071013334028d28e7791db206102bf565b600080356001600160e01b0319168152602082905260409020549092508291506001600160a01b0316806100db57604051630a82dd7360e31b81526001600160e01b03196000351660048201526024015b60405180910390fd5b806001600160a01b03163b60000361010657604051638454099560e01b815260040160405180910390fd5b3660008037600080366000845af43d6000803e808015610125573d6000f35b3d6000fd5b60005b828110156101d3576000803086868581811061014b5761014b6102e6565b905060200281019061015d91906102fc565b60405161016b92919061034a565b600060405180830381855af49150503d80600081146101a6576040519150601f19603f3d011682016040523d82523d6000602084013e6101ab565b606091505b5091509150811580156101bb5750835b156101c9576101c9816101d9565b505060010161012d565b50505050565b6044815110156101fe578060405163d935448560e01b81526004016100d291906103aa565b6004810190508080602001905181019061021891906103da565b60405162461bcd60e51b81526004016100d291906103aa565b60008060006040848603121561024657600080fd5b833567ffffffffffffffff81111561025d57600080fd5b8401601f8101861361026e57600080fd5b803567ffffffffffffffff81111561028557600080fd5b8660208260051b840101111561029a57600080fd5b60209182019450925084013580151581146102b457600080fd5b809150509250925092565b818103818111156102e057634e487b7160e01b600052601160045260246000fd5b92915050565b634e487b7160e01b600052603260045260246000fd5b6000808335601e1984360301811261031357600080fd5b83018035915067ffffffffffffffff82111561032e57600080fd5b60200191503681900382131561034357600080fd5b9250929050565b8183823760009101908152919050565b60005b8381101561037557818101518382015260200161035d565b50506000910152565b6000815180845261039681602086016020860161035a565b601f01601f19169290920160200192915050565b6020815260006103bd602083018461037e565b9392505050565b634e487b7160e01b600052604160045260246000fd5b6000602082840312156103ec57600080fd5b815167ffffffffffffffff81111561040357600080fd5b8201601f8101841361041457600080fd5b805167ffffffffffffffff81111561042e5761042e6103c4565b604051601f8201601f19908116603f0116810167ffffffffffffffff8111828210171561045d5761045d6103c4565b60405281815282820160200186101561047557600080fd5b61048682602083016020860161035a565b9594505050505056fea26469706673582212201dc2f36331bc034964d7758df8534a1ec8d5200a2ad6b74b11d775dcbaaf13dd64736f6c634300081b00334469616d6f6e644375744c69623a20696e6974206164647265737320686173206e6f20636f64654469616d6f6e644375744c69623a2041646420666163657420686173206e6f20636f64654469616d6f6e644375744c69623a205265706c61636520666163657420686173206e6f20636f6465","linkReferences":{}},"methodIdentifiers":{"batch(bytes[],bool)":"d2423b51"},"id":35}