{"abi":[{"type":"function","name":"_isTrackerSet","inputs":[{"name":"_policyId","type":"uint256","internalType":"uint256"},{"name":"_index","type":"uint256","internalType":"uint256"}],"outputs":[{"name":"","type":"bool","internalType":"bool"}],"stateMutability":"view"},{"type":"function","name":"applyPolicy","inputs":[{"name":"_contractAddress","type":"address","internalType":"address"},{"name":"_policyIds","type":"uint256[]","internalType":"uint256[]"}],"outputs":[],"stateMutability":"nonpayable"},{"type":"function","name":"cementPolicy","inputs":[{"name":"_policyId","type":"uint256","internalType":"uint256"}],"outputs":[],"stateMutability":"nonpayable"},{"type":"function","name":"closePolicy","inputs":[{"name":"_policyId","type":"uint256","internalType":"uint256"}],"outputs":[],"stateMutability":"nonpayable"},{"type":"function","name":"createPolicy","inputs":[{"name":"_functionSignatures","type":"tuple[]","internalType":"struct FunctionSignatureStorageSet[]","components":[{"name":"set","type":"bool","internalType":"bool"},{"name":"signature","type":"bytes4","internalType":"bytes4"},{"name":"parameterTypes","type":"uint8[]","internalType":"enum PT[]"}]},{"name":"_rules","type":"tuple[]","internalType":"struct Rule[]","components":[{"name":"instructionSet","type":"uint256[]","internalType":"uint256[]"},{"name":"rawData","type":"tuple","internalType":"struct RawData","components":[{"name":"instructionSetIndex","type":"uint256[]","internalType":"uint256[]"},{"name":"argumentTypes","type":"uint8[]","internalType":"enum PT[]"},{"name":"dataValues","type":"bytes[]","internalType":"bytes[]"}]},{"name":"placeHolders","type":"tuple[]","internalType":"struct Placeholder[]","components":[{"name":"pType","type":"uint8","internalType":"enum PT"},{"name":"typeSpecificIndex","type":"uint128","internalType":"uint128"},{"name":"trackerValue","type":"bool","internalType":"bool"},{"name":"foreignCall","type":"bool","internalType":"bool"}]},{"name":"effectPlaceHolders","type":"tuple[]","internalType":"struct Placeholder[]","components":[{"name":"pType","type":"uint8","internalType":"enum PT"},{"name":"typeSpecificIndex","type":"uint128","internalType":"uint128"},{"name":"trackerValue","type":"bool","internalType":"bool"},{"name":"foreignCall","type":"bool","internalType":"bool"}]},{"name":"posEffects","type":"tuple[]","internalType":"struct Effect[]","components":[{"name":"valid","type":"bool","internalType":"bool"},{"name":"dynamicParam","type":"bool","internalType":"bool"},{"name":"effectType","type":"uint8","internalType":"enum ET"},{"name":"pType","type":"uint8","internalType":"enum PT"},{"name":"param","type":"bytes","internalType":"bytes"},{"name":"text","type":"bytes32","internalType":"bytes32"},{"name":"errorMessage","type":"string","internalType":"string"},{"name":"instructionSet","type":"uint256[]","internalType":"uint256[]"}]},{"name":"negEffects","type":"tuple[]","internalType":"struct Effect[]","components":[{"name":"valid","type":"bool","internalType":"bool"},{"name":"dynamicParam","type":"bool","internalType":"bool"},{"name":"effectType","type":"uint8","internalType":"enum ET"},{"name":"pType","type":"uint8","internalType":"enum PT"},{"name":"param","type":"bytes","internalType":"bytes"},{"name":"text","type":"bytes32","internalType":"bytes32"},{"name":"errorMessage","type":"string","internalType":"string"},{"name":"instructionSet","type":"uint256[]","internalType":"uint256[]"}]}]},{"name":"_policyType","type":"uint8","internalType":"enum PolicyType"}],"outputs":[{"name":"","type":"uint256","internalType":"uint256"}],"stateMutability":"nonpayable"},{"type":"function","name":"createRule","inputs":[{"name":"_policyId","type":"uint256","internalType":"uint256"},{"name":"_rule","type":"tuple","internalType":"struct Rule","components":[{"name":"instructionSet","type":"uint256[]","internalType":"uint256[]"},{"name":"rawData","type":"tuple","internalType":"struct RawData","components":[{"name":"instructionSetIndex","type":"uint256[]","internalType":"uint256[]"},{"name":"argumentTypes","type":"uint8[]","internalType":"enum PT[]"},{"name":"dataValues","type":"bytes[]","internalType":"bytes[]"}]},{"name":"placeHolders","type":"tuple[]","internalType":"struct Placeholder[]","components":[{"name":"pType","type":"uint8","internalType":"enum PT"},{"name":"typeSpecificIndex","type":"uint128","internalType":"uint128"},{"name":"trackerValue","type":"bool","internalType":"bool"},{"name":"foreignCall","type":"bool","internalType":"bool"}]},{"name":"effectPlaceHolders","type":"tuple[]","internalType":"struct Placeholder[]","components":[{"name":"pType","type":"uint8","internalType":"enum PT"},{"name":"typeSpecificIndex","type":"uint128","internalType":"uint128"},{"name":"trackerValue","type":"bool","internalType":"bool"},{"name":"foreignCall","type":"bool","internalType":"bool"}]},{"name":"posEffects","type":"tuple[]","internalType":"struct Effect[]","components":[{"name":"valid","type":"bool","internalType":"bool"},{"name":"dynamicParam","type":"bool","internalType":"bool"},{"name":"effectType","type":"uint8","internalType":"enum ET"},{"name":"pType","type":"uint8","internalType":"enum PT"},{"name":"param","type":"bytes","internalType":"bytes"},{"name":"text","type":"bytes32","internalType":"bytes32"},{"name":"errorMessage","type":"string","internalType":"string"},{"name":"instructionSet","type":"uint256[]","internalType":"uint256[]"}]},{"name":"negEffects","type":"tuple[]","internalType":"struct Effect[]","components":[{"name":"valid","type":"bool","internalType":"bool"},{"name":"dynamicParam","type":"bool","internalType":"bool"},{"name":"effectType","type":"uint8","internalType":"enum ET"},{"name":"pType","type":"uint8","internalType":"enum PT"},{"name":"param","type":"bytes","internalType":"bytes"},{"name":"text","type":"bytes32","internalType":"bytes32"},{"name":"errorMessage","type":"string","internalType":"string"},{"name":"instructionSet","type":"uint256[]","internalType":"uint256[]"}]}]}],"outputs":[{"name":"","type":"uint256","internalType":"uint256"}],"stateMutability":"nonpayable"},{"type":"function","name":"deletePolicy","inputs":[{"name":"_policyId","type":"uint256","internalType":"uint256"}],"outputs":[],"stateMutability":"nonpayable"},{"type":"function","name":"deleteRule","inputs":[{"name":"_policyId","type":"uint256","internalType":"uint256"},{"name":"_ruleId","type":"uint256","internalType":"uint256"}],"outputs":[],"stateMutability":"nonpayable"},{"type":"function","name":"getAllRules","inputs":[{"name":"_policyId","type":"uint256","internalType":"uint256"}],"outputs":[{"name":"","type":"tuple[][]","internalType":"struct Rule[][]","components":[{"name":"instructionSet","type":"uint256[]","internalType":"uint256[]"},{"name":"rawData","type":"tuple","internalType":"struct RawData","components":[{"name":"instructionSetIndex","type":"uint256[]","internalType":"uint256[]"},{"name":"argumentTypes","type":"uint8[]","internalType":"enum PT[]"},{"name":"dataValues","type":"bytes[]","internalType":"bytes[]"}]},{"name":"placeHolders","type":"tuple[]","internalType":"struct Placeholder[]","components":[{"name":"pType","type":"uint8","internalType":"enum PT"},{"name":"typeSpecificIndex","type":"uint128","internalType":"uint128"},{"name":"trackerValue","type":"bool","internalType":"bool"},{"name":"foreignCall","type":"bool","internalType":"bool"}]},{"name":"effectPlaceHolders","type":"tuple[]","internalType":"struct Placeholder[]","components":[{"name":"pType","type":"uint8","internalType":"enum PT"},{"name":"typeSpecificIndex","type":"uint128","internalType":"uint128"},{"name":"trackerValue","type":"bool","internalType":"bool"},{"name":"foreignCall","type":"bool","internalType":"bool"}]},{"name":"posEffects","type":"tuple[]","internalType":"struct Effect[]","components":[{"name":"valid","type":"bool","internalType":"bool"},{"name":"dynamicParam","type":"bool","internalType":"bool"},{"name":"effectType","type":"uint8","internalType":"enum ET"},{"name":"pType","type":"uint8","internalType":"enum PT"},{"name":"param","type":"bytes","internalType":"bytes"},{"name":"text","type":"bytes32","internalType":"bytes32"},{"name":"errorMessage","type":"string","internalType":"string"},{"name":"instructionSet","type":"uint256[]","internalType":"uint256[]"}]},{"name":"negEffects","type":"tuple[]","internalType":"struct Effect[]","components":[{"name":"valid","type":"bool","internalType":"bool"},{"name":"dynamicParam","type":"bool","internalType":"bool"},{"name":"effectType","type":"uint8","internalType":"enum ET"},{"name":"pType","type":"uint8","internalType":"enum PT"},{"name":"param","type":"bytes","internalType":"bytes"},{"name":"text","type":"bytes32","internalType":"bytes32"},{"name":"errorMessage","type":"string","internalType":"string"},{"name":"instructionSet","type":"uint256[]","internalType":"uint256[]"}]}]}],"stateMutability":"view"},{"type":"function","name":"getAppliedPolicyIds","inputs":[{"name":"_contractAddress","type":"address","internalType":"address"}],"outputs":[{"name":"","type":"uint256[]","internalType":"uint256[]"}],"stateMutability":"view"},{"type":"function","name":"getPolicy","inputs":[{"name":"_policyId","type":"uint256","internalType":"uint256"}],"outputs":[{"name":"functionSigs","type":"bytes4[]","internalType":"bytes4[]"},{"name":"functionSigIds","type":"uint256[]","internalType":"uint256[]"},{"name":"ruleIds","type":"uint256[][]","internalType":"uint256[][]"}],"stateMutability":"view"},{"type":"function","name":"getRule","inputs":[{"name":"_policyId","type":"uint256","internalType":"uint256"},{"name":"_ruleId","type":"uint256","internalType":"uint256"}],"outputs":[{"name":"","type":"tuple","internalType":"struct RuleStorageSet","components":[{"name":"set","type":"bool","internalType":"bool"},{"name":"rule","type":"tuple","internalType":"struct Rule","components":[{"name":"instructionSet","type":"uint256[]","internalType":"uint256[]"},{"name":"rawData","type":"tuple","internalType":"struct RawData","components":[{"name":"instructionSetIndex","type":"uint256[]","internalType":"uint256[]"},{"name":"argumentTypes","type":"uint8[]","internalType":"enum PT[]"},{"name":"dataValues","type":"bytes[]","internalType":"bytes[]"}]},{"name":"placeHolders","type":"tuple[]","internalType":"struct Placeholder[]","components":[{"name":"pType","type":"uint8","internalType":"enum PT"},{"name":"typeSpecificIndex","type":"uint128","internalType":"uint128"},{"name":"trackerValue","type":"bool","internalType":"bool"},{"name":"foreignCall","type":"bool","internalType":"bool"}]},{"name":"effectPlaceHolders","type":"tuple[]","internalType":"struct Placeholder[]","components":[{"name":"pType","type":"uint8","internalType":"enum PT"},{"name":"typeSpecificIndex","type":"uint128","internalType":"uint128"},{"name":"trackerValue","type":"bool","internalType":"bool"},{"name":"foreignCall","type":"bool","internalType":"bool"}]},{"name":"posEffects","type":"tuple[]","internalType":"struct Effect[]","components":[{"name":"valid","type":"bool","internalType":"bool"},{"name":"dynamicParam","type":"bool","internalType":"bool"},{"name":"effectType","type":"uint8","internalType":"enum ET"},{"name":"pType","type":"uint8","internalType":"enum PT"},{"name":"param","type":"bytes","internalType":"bytes"},{"name":"text","type":"bytes32","internalType":"bytes32"},{"name":"errorMessage","type":"string","internalType":"string"},{"name":"instructionSet","type":"uint256[]","internalType":"uint256[]"}]},{"name":"negEffects","type":"tuple[]","internalType":"struct Effect[]","components":[{"name":"valid","type":"bool","internalType":"bool"},{"name":"dynamicParam","type":"bool","internalType":"bool"},{"name":"effectType","type":"uint8","internalType":"enum ET"},{"name":"pType","type":"uint8","internalType":"enum PT"},{"name":"param","type":"bytes","internalType":"bytes"},{"name":"text","type":"bytes32","internalType":"bytes32"},{"name":"errorMessage","type":"string","internalType":"string"},{"name":"instructionSet","type":"uint256[]","internalType":"uint256[]"}]}]}]}],"stateMutability":"view"},{"type":"function","name":"isClosedPolicy","inputs":[{"name":"_policyId","type":"uint256","internalType":"uint256"}],"outputs":[{"name":"","type":"bool","internalType":"bool"}],"stateMutability":"view"},{"type":"function","name":"openPolicy","inputs":[{"name":"_policyId","type":"uint256","internalType":"uint256"}],"outputs":[],"stateMutability":"nonpayable"},{"type":"function","name":"updatePolicy","inputs":[{"name":"_policyId","type":"uint256","internalType":"uint256"},{"name":"_signatures","type":"bytes4[]","internalType":"bytes4[]"},{"name":"_functionSignatureIds","type":"uint256[]","internalType":"uint256[]"},{"name":"_ruleIds","type":"uint256[][]","internalType":"uint256[][]"},{"name":"_policyType","type":"uint8","internalType":"enum PolicyType"}],"outputs":[{"name":"","type":"uint256","internalType":"uint256"}],"stateMutability":"nonpayable"},{"type":"function","name":"updateRule","inputs":[{"name":"_policyId","type":"uint256","internalType":"uint256"},{"name":"_ruleId","type":"uint256","internalType":"uint256"},{"name":"_rule","type":"tuple","internalType":"struct Rule","components":[{"name":"instructionSet","type":"uint256[]","internalType":"uint256[]"},{"name":"rawData","type":"tuple","internalType":"struct RawData","components":[{"name":"instructionSetIndex","type":"uint256[]","internalType":"uint256[]"},{"name":"argumentTypes","type":"uint8[]","internalType":"enum PT[]"},{"name":"dataValues","type":"bytes[]","internalType":"bytes[]"}]},{"name":"placeHolders","type":"tuple[]","internalType":"struct Placeholder[]","components":[{"name":"pType","type":"uint8","internalType":"enum PT"},{"name":"typeSpecificIndex","type":"uint128","internalType":"uint128"},{"name":"trackerValue","type":"bool","internalType":"bool"},{"name":"foreignCall","type":"bool","internalType":"bool"}]},{"name":"effectPlaceHolders","type":"tuple[]","internalType":"struct Placeholder[]","components":[{"name":"pType","type":"uint8","internalType":"enum PT"},{"name":"typeSpecificIndex","type":"uint128","internalType":"uint128"},{"name":"trackerValue","type":"bool","internalType":"bool"},{"name":"foreignCall","type":"bool","internalType":"bool"}]},{"name":"posEffects","type":"tuple[]","internalType":"struct Effect[]","components":[{"name":"valid","type":"bool","internalType":"bool"},{"name":"dynamicParam","type":"bool","internalType":"bool"},{"name":"effectType","type":"uint8","internalType":"enum ET"},{"name":"pType","type":"uint8","internalType":"enum PT"},{"name":"param","type":"bytes","internalType":"bytes"},{"name":"text","type":"bytes32","internalType":"bytes32"},{"name":"errorMessage","type":"string","internalType":"string"},{"name":"instructionSet","type":"uint256[]","internalType":"uint256[]"}]},{"name":"negEffects","type":"tuple[]","internalType":"struct Effect[]","components":[{"name":"valid","type":"bool","internalType":"bool"},{"name":"dynamicParam","type":"bool","internalType":"bool"},{"name":"effectType","type":"uint8","internalType":"enum ET"},{"name":"pType","type":"uint8","internalType":"enum PT"},{"name":"param","type":"bytes","internalType":"bytes"},{"name":"text","type":"bytes32","internalType":"bytes32"},{"name":"errorMessage","type":"string","internalType":"string"},{"name":"instructionSet","type":"uint256[]","internalType":"uint256[]"}]}]}],"outputs":[{"name":"","type":"uint256","internalType":"uint256"}],"stateMutability":"nonpayable"},{"type":"event","name":"PolicyApplied","inputs":[{"name":"policyIds","type":"uint256[]","indexed":false,"internalType":"uint256[]"},{"name":"callingContract","type":"address","indexed":true,"internalType":"address"}],"anonymous":false},{"type":"event","name":"PolicyCemented","inputs":[{"name":"policyId","type":"uint256","indexed":true,"internalType":"uint256"}],"anonymous":false},{"type":"event","name":"PolicyClosed","inputs":[{"name":"policyId","type":"uint256","indexed":true,"internalType":"uint256"}],"anonymous":false},{"type":"event","name":"PolicyCreated","inputs":[{"name":"policyId","type":"uint256","indexed":true,"internalType":"uint256"}],"anonymous":false},{"type":"event","name":"PolicyDeleted","inputs":[{"name":"policyId","type":"uint256","indexed":true,"internalType":"uint256"}],"anonymous":false},{"type":"event","name":"PolicyOpened","inputs":[{"name":"policyId","type":"uint256","indexed":true,"internalType":"uint256"}],"anonymous":false},{"type":"event","name":"PolicyUpdated","inputs":[{"name":"policyId","type":"uint256","indexed":true,"internalType":"uint256"}],"anonymous":false},{"type":"event","name":"RuleCreated","inputs":[{"name":"policyId","type":"uint256","indexed":true,"internalType":"uint256"},{"name":"ruleId","type":"uint256","indexed":true,"internalType":"uint256"}],"anonymous":false},{"type":"event","name":"RuleDeleted","inputs":[{"name":"policyId","type":"uint256","indexed":true,"internalType":"uint256"},{"name":"ruleId","type":"uint256","indexed":true,"internalType":"uint256"}],"anonymous":false},{"type":"event","name":"RuleUpdated","inputs":[{"name":"policyId","type":"uint256","indexed":true,"internalType":"uint256"},{"name":"ruleId","type":"uint256","indexed":true,"internalType":"uint256"}],"anonymous":false}],"bytecode":{"object":"0x6080604052348015600f57600080fd5b506159e58061001f6000396000f3fe608060405234801561001057600080fd5b50600436106101005760003560e01c8063798d6c7b11610097578063bc9b94eb11610066578063bc9b94eb14610237578063d46a37c41461024a578063e37490231461025d578063fed27c8f1461027d57600080fd5b8063798d6c7b146101eb57806380624b6f146101fe5780639228303f14610211578063a31c8ebb1461022457600080fd5b80632fd205bd116100d35780632fd205bd1461018257806337794b07146101955780634f10689b146101a85780636d279ef8146101cb57600080fd5b80631ff76a7b14610105578063266fc8a51461012b5780632b07fce31461014b5780632b0e44401461016d575b600080fd5b610118610113366004614173565b610290565b6040519081526020015b60405180910390f35b61013e6101393660046141f9565b6103bd565b6040516101229190614608565b61015e6101593660046141f9565b610fe9565b604051610122939291906146f0565b61018061017b3660046141f9565b6114be565b005b6101186101903660046147e6565b6116bf565b6101186101a33660046148be565b6118f7565b6101bb6101b63660046141f9565b611a8f565b6040519015158152602001610122565b6101de6101d936600461490e565b611ac9565b6040516101229190614930565b6101806101f93660046141f9565b6123f6565b6101bb61020c36600461490e565b61257b565b61018061021f366004614983565b6125a7565b61018061023236600461490e565b612adc565b6101186102453660046149d6565b612d1c565b6101806102583660046141f9565b612ee6565b61027061026b366004614a1d565b61303b565b6040516101229190614a3f565b61018061028b3660046141f9565b6130bd565b60008061029b61339e565b8054600190810180835560008181528284016020526040902080547fffffffffffffffffffffffffffffffffffffffffffffffffffffffffffffff0090811684178255600490910180549495509193879391169083818111156103005761030061424e565b02179055506040517f1929cb64000000000000000000000000000000000000000000000000000000008152600481018290523360248201523090631929cb64906044016020604051808303816000875af1158015610362573d6000803e3d6000fd5b505050506040513d601f19601f820116820180604052508101906103869190614a52565b5060405181907fde5ef345cecbaaffdfbe2454b7947aa14037bac2f45e4fc98976f8bffea3862390600090a2979650505050505050565b606060006103c961339e565b6001016000848152602001908152602001600020600101905060008160020180548060200260200160405190810160405280929190818152602001828054801561047457602002820191906000526020600020906000905b82829054906101000a900460e01b7bffffffffffffffffffffffffffffffffffffffffffffffffffffffff1916815260200190600401906020826003010492830192600103820291508084116104215790505b505050505090506000815167ffffffffffffffff81111561049757610497614a6b565b6040519080825280602002602001820160405280156104ca57816020015b60608152602001906001900390816104b55790505b50905060005b8251811015610fe05760008460010160008584815181106104f3576104f3614a9a565b60200260200101517bffffffffffffffffffffffffffffffffffffffffffffffffffffffff19167bffffffffffffffffffffffffffffffffffffffffffffffffffffffff1916815260200190815260200160002080548060200260200160405190810160405280929190818152602001828054801561059157602002820191906000526020600020905b81548152602001906001019080831161057d575b50505050509050805167ffffffffffffffff8111156105b2576105b2614a6b565b6040519080825280602002602001820160405280156105eb57816020015b6105d8613e7c565b8152602001906001900390816105d05790505b508383815181106105fe576105fe614a9a565b602002602001018190525060005b8151811015610fd65761061d6133cc565b6001016000898152602001908152602001600020600083838151811061064557610645614a9a565b60209081029190910181015182528101919091526040016000205460ff1615610fce576106706133cc565b6001016000898152602001908152602001600020600083838151811061069857610698614a9a565b602002602001015181526020019081526020016000206001016040518060c00160405290816000820180548060200260200160405190810160405280929190818152602001828054801561070b57602002820191906000526020600020905b8154815260200190600101908083116106f7575b50505050508152602001600182016040518060600160405290816000820180548060200260200160405190810160405280929190818152602001828054801561077357602002820191906000526020600020905b81548152602001906001019080831161075f575b50505050508152602001600182018054806020026020016040519081016040528092919081815260200182805480156107fb57602002820191906000526020600020906000905b82829054906101000a900460ff1660078111156107d9576107d961424e565b8152602060019283018181049485019490930390920291018084116107ba5790505b5050505050815260200160028201805480602002602001604051908101604052809291908181526020016000905b828210156108d557838290600052602060002001805461084890614ac9565b80601f016020809104026020016040519081016040528092919081815260200182805461087490614ac9565b80156108c15780601f10610896576101008083540402835291602001916108c1565b820191906000526020600020905b8154815290600101906020018083116108a457829003601f168201915b505050505081526020019060010190610829565b5050505081525050815260200160048201805480602002602001604051908101604052809291908181526020016000905b828210156109c75760008481526020902060408051608081019091529083018054829060ff16600781111561093d5761093d61424e565b600781111561094e5761094e61424e565b815290546fffffffffffffffffffffffffffffffff61010082041660208084019190915260ff710100000000000000000000000000000000008304811615156040850152720100000000000000000000000000000000000090920490911615156060909201919091529082526001929092019101610906565b50505050815260200160058201805480602002602001604051908101604052809291908181526020016000905b82821015610ab55760008481526020902060408051608081019091529083018054829060ff166007811115610a2b57610a2b61424e565b6007811115610a3c57610a3c61424e565b815290546fffffffffffffffffffffffffffffffff61010082041660208084019190915260ff7101000000000000000000000000000000000083048116151560408501527201000000000000000000000000000000000000909204909116151560609092019190915290825260019290920191016109f4565b50505050815260200160068201805480602002602001604051908101604052809291908181526020016000905b82821015610d2257600084815260209081902060408051610100808201835260058702909301805460ff808216151584529481048516151595830195909552909390929184019162010000909104166002811115610b4257610b4261424e565b6002811115610b5357610b5361424e565b815281546020909101906301000000900460ff166007811115610b7857610b7861424e565b6007811115610b8957610b8961424e565b8152602001600182018054610b9d90614ac9565b80601f0160208091040260200160405190810160405280929190818152602001828054610bc990614ac9565b8015610c165780601f10610beb57610100808354040283529160200191610c16565b820191906000526020600020905b815481529060010190602001808311610bf957829003601f168201915b5050505050815260200160028201548152602001600382018054610c3990614ac9565b80601f0160208091040260200160405190810160405280929190818152602001828054610c6590614ac9565b8015610cb25780601f10610c8757610100808354040283529160200191610cb2565b820191906000526020600020905b815481529060010190602001808311610c9557829003601f168201915b5050505050815260200160048201805480602002602001604051908101604052809291908181526020018280548015610d0a57602002820191906000526020600020905b815481526020019060010190808311610cf6575b50505050508152505081526020019060010190610ae2565b50505050815260200160078201805480602002602001604051908101604052809291908181526020016000905b82821015610f8f57600084815260209081902060408051610100808201835260058702909301805460ff808216151584529481048516151595830195909552909390929184019162010000909104166002811115610daf57610daf61424e565b6002811115610dc057610dc061424e565b815281546020909101906301000000900460ff166007811115610de557610de561424e565b6007811115610df657610df661424e565b8152602001600182018054610e0a90614ac9565b80601f0160208091040260200160405190810160405280929190818152602001828054610e3690614ac9565b8015610e835780601f10610e5857610100808354040283529160200191610e83565b820191906000526020600020905b815481529060010190602001808311610e6657829003601f168201915b5050505050815260200160028201548152602001600382018054610ea690614ac9565b80601f0160208091040260200160405190810160405280929190818152602001828054610ed290614ac9565b8015610f1f5780601f10610ef457610100808354040283529160200191610f1f565b820191906000526020600020905b815481529060010190602001808311610f0257829003601f168201915b5050505050815260200160048201805480602002602001604051908101604052809291908181526020018280548015610f7757602002820191906000526020600020905b815481526020019060010190808311610f63575b50505050508152505081526020019060010190610d4f565b5050505081525050848481518110610fa957610fa9614a9a565b60200260200101518281518110610fc257610fc2614a9a565b60200260200101819052505b60010161060c565b50506001016104d0565b50949350505050565b60608060606000610ff861339e565b6000868152600191820160205260409020600381015491019150156110ff57600281015467ffffffffffffffff81111561103457611034614a6b565b60405190808252806020026020018201604052801561105d578160200160208202803683370190505b50600282015490945067ffffffffffffffff81111561107e5761107e614a6b565b6040519080825280602002602001820160405280156110a7578160200160208202803683370190505b50600282015490935067ffffffffffffffff8111156110c8576110c8614a6b565b6040519080825280602002602001820160405280156110fb57816020015b60608152602001906001900390816110e65790505b5091505b600281015467ffffffffffffffff81111561111c5761111c614a6b565b60405190808252806020026020018201604052801561114f57816020015b606081526020019060019003908161113a5790505b50915060005b60028201548110156114b55781600201818154811061117657611176614a9a565b90600052602060002090600891828204019190066004029054906101000a900460e01b8582815181106111ab576111ab614a9a565b7fffffffff00000000000000000000000000000000000000000000000000000000909216602092830291909101909101526002820180548391600091849081106111f7576111f7614a9a565b90600052602060002090600891828204019190066004029054906101000a900460e01b7bffffffffffffffffffffffffffffffffffffffffffffffffffffffff19167bffffffffffffffffffffffffffffffffffffffffffffffffffffffff191681526020019081526020016000205484828151811061127957611279614a9a565b60200260200101818152505060005b8260010160008460020184815481106112a3576112a3614a9a565b6000918252602080832060088304015460079092166004026101000a90910460e01b7fffffffff000000000000000000000000000000000000000000000000000000001683528201929092526040019020548110156114ac5782600101600084600201848154811061131757611317614a9a565b6000918252602080832060088304015460079092166004026101000a90910460e01b7fffffffff0000000000000000000000000000000000000000000000000000000016835282019290925260400190205467ffffffffffffffff81111561138157611381614a6b565b6040519080825280602002602001820160405280156113aa578160200160208202803683370190505b508483815181106113bd576113bd614a9a565b60200260200101819052508260010160008460020184815481106113e3576113e3614a9a565b90600052602060002090600891828204019190066004029054906101000a900460e01b7bffffffffffffffffffffffffffffffffffffffffffffffffffffffff19167bffffffffffffffffffffffffffffffffffffffffffffffffffffffff19168152602001908152602001600020818154811061146357611463614a9a565b906000526020600020015484838151811061148057611480614a9a565b6020026020010151828151811061149957611499614a9a565b6020908102919091010152600101611288565b50600101611155565b50509193909250565b6040516024810182905233604482018190528291600090819061157c907f901cee1100000000000000000000000000000000000000000000000000000000906064015b604080517fffffffffffffffffffffffffffffffffffffffffffffffffffffffffffffffe08184030181529190526020810180517bffffffffffffffffffffffffffffffffffffffffffffffffffffffff167f901cee11000000000000000000000000000000000000000000000000000000001790526133fa565b915091506000821561160c57600482511061159c575060208101516115a0565b5060005b8061160c576040517f08c379a000000000000000000000000000000000000000000000000000000000815260206004820152601860248201527f4e6f7420417574686f72697a656420546f20506f6c696379000000000000000060448201526064015b60405180910390fd5b85611616816134c1565b1561168057604080518082018252601f81527f4e6f7420616c6c6f77656420666f722063656d656e74656420706f6c69637900602082015290517f08c379a00000000000000000000000000000000000000000000000000000000081526116039190600401614b16565b61168b8760006134ea565b60405187907f524fcc256039a8ee7fd3d614ec713bd4a9159d02d7261ae80028fc15b45c484890600090a250505050505050565b6000883360008061170363901cee1160e01b858560405160240161150192919091825273ffffffffffffffffffffffffffffffffffffffff16602082015260400190565b915091506000821561178e57600482511061172357506020810151611727565b5060005b8061178e576040517f08c379a000000000000000000000000000000000000000000000000000000000815260206004820152601860248201527f4e6f7420417574686f72697a656420546f20506f6c69637900000000000000006044820152606401611603565b8d611798816134c1565b1561180257604080518082018252601f81527f4e6f7420616c6c6f77656420666f722063656d656e74656420706f6c69637900602082015290517f08c379a00000000000000000000000000000000000000000000000000000000081526116039190600401614b16565b8c8b14611855576040518060600160405280602e8152602001615949602e91396040517f08c379a00000000000000000000000000000000000000000000000000000000081526004016116039190614b16565b8e6000036118a9576040518060600160405280603481526020016158cc603491396040517f08c379a00000000000000000000000000000000000000000000000000000000081526004016116039190614b16565b6040518f907f912ce63c438aca9d2f50d1d12de5b42efbcc84ce223b08122e8c2e3c000ca1f890600090a26118e48f8f8f8f8f8f8f8f613614565b9f9e505050505050505050505050505050565b6000833360008061193b63901cee1160e01b858560405160240161150192919091825273ffffffffffffffffffffffffffffffffffffffff16602082015260400190565b91509150600082156119c657600482511061195b5750602081015161195f565b5060005b806119c6576040517f08c379a000000000000000000000000000000000000000000000000000000000815260206004820152601860248201527f4e6f7420417574686f72697a656420546f20506f6c69637900000000000000006044820152606401611603565b886119d0816134c1565b15611a3a57604080518082018252601f81527f4e6f7420616c6c6f77656420666f722063656d656e74656420706f6c69637900602082015290517f08c379a00000000000000000000000000000000000000000000000000000000081526116039190600401614b16565b6000611a446133cc565b9050611a52818c8c8c613c9f565b506040518a908c907fe91f86fd53c89629ca0bc01d0f219a6cd6730e5252f179944d1f3c9b5def1b0790600090a350979998505050505050505050565b600080611a9a61339e565b60008481526001918201602052604090206004015460ff1690811115611ac257611ac261424e565b1492915050565b611ad1613ed4565b611ad96133cc565b600084815260019182016020908152604080832086845282529182902082518084018452815460ff16151581528351948201805460e08186028801810190965260c0870181815292969395948701949192849290918491840182828015611b5f57602002820191906000526020600020905b815481526020019060010190808311611b4b575b505050505081526020016001820160405180606001604052908160008201805480602002602001604051908101604052809291908181526020018280548015611bc757602002820191906000526020600020905b815481526020019060010190808311611bb3575b5050505050815260200160018201805480602002602001604051908101604052809291908181526020018280548015611c4f57602002820191906000526020600020906000905b82829054906101000a900460ff166007811115611c2d57611c2d61424e565b815260206001928301818104948501949093039092029101808411611c0e5790505b5050505050815260200160028201805480602002602001604051908101604052809291908181526020016000905b82821015611d29578382906000526020600020018054611c9c90614ac9565b80601f0160208091040260200160405190810160405280929190818152602001828054611cc890614ac9565b8015611d155780601f10611cea57610100808354040283529160200191611d15565b820191906000526020600020905b815481529060010190602001808311611cf857829003601f168201915b505050505081526020019060010190611c7d565b5050505081525050815260200160048201805480602002602001604051908101604052809291908181526020016000905b82821015611e1b5760008481526020902060408051608081019091529083018054829060ff166007811115611d9157611d9161424e565b6007811115611da257611da261424e565b815290546fffffffffffffffffffffffffffffffff61010082041660208084019190915260ff710100000000000000000000000000000000008304811615156040850152720100000000000000000000000000000000000090920490911615156060909201919091529082526001929092019101611d5a565b50505050815260200160058201805480602002602001604051908101604052809291908181526020016000905b82821015611f095760008481526020902060408051608081019091529083018054829060ff166007811115611e7f57611e7f61424e565b6007811115611e9057611e9061424e565b815290546fffffffffffffffffffffffffffffffff61010082041660208084019190915260ff710100000000000000000000000000000000008304811615156040850152720100000000000000000000000000000000000090920490911615156060909201919091529082526001929092019101611e48565b50505050815260200160068201805480602002602001604051908101604052809291908181526020016000905b8282101561217657600084815260209081902060408051610100808201835260058702909301805460ff808216151584529481048516151595830195909552909390929184019162010000909104166002811115611f9657611f9661424e565b6002811115611fa757611fa761424e565b815281546020909101906301000000900460ff166007811115611fcc57611fcc61424e565b6007811115611fdd57611fdd61424e565b8152602001600182018054611ff190614ac9565b80601f016020809104026020016040519081016040528092919081815260200182805461201d90614ac9565b801561206a5780601f1061203f5761010080835404028352916020019161206a565b820191906000526020600020905b81548152906001019060200180831161204d57829003601f168201915b505050505081526020016002820154815260200160038201805461208d90614ac9565b80601f01602080910402602001604051908101604052809291908181526020018280546120b990614ac9565b80156121065780601f106120db57610100808354040283529160200191612106565b820191906000526020600020905b8154815290600101906020018083116120e957829003601f168201915b505050505081526020016004820180548060200260200160405190810160405280929190818152602001828054801561215e57602002820191906000526020600020905b81548152602001906001019080831161214a575b50505050508152505081526020019060010190611f36565b50505050815260200160078201805480602002602001604051908101604052809291908181526020016000905b828210156123e357600084815260209081902060408051610100808201835260058702909301805460ff8082161515845294810485161515958301959095529093909291840191620100009091041660028111156122035761220361424e565b60028111156122145761221461424e565b815281546020909101906301000000900460ff1660078111156122395761223961424e565b600781111561224a5761224a61424e565b815260200160018201805461225e90614ac9565b80601f016020809104026020016040519081016040528092919081815260200182805461228a90614ac9565b80156122d75780601f106122ac576101008083540402835291602001916122d7565b820191906000526020600020905b8154815290600101906020018083116122ba57829003601f168201915b50505050508152602001600282015481526020016003820180546122fa90614ac9565b80601f016020809104026020016040519081016040528092919081815260200182805461232690614ac9565b80156123735780601f1061234857610100808354040283529160200191612373565b820191906000526020600020905b81548152906001019060200180831161235657829003601f168201915b50505050508152602001600482018054806020026020016040519081016040528092919081815260200182805480156123cb57602002820191906000526020600020905b8154815260200190600101908083116123b7575b505050505081525050815260200190600101906121a3565b5050509152505090525090505b92915050565b6040516024810182905233604482018190528291600090819061243d907f901cee110000000000000000000000000000000000000000000000000000000090606401611501565b91509150600082156124c857600482511061245d57506020810151612461565b5060005b806124c8576040517f08c379a000000000000000000000000000000000000000000000000000000000815260206004820152601860248201527f4e6f7420417574686f72697a656420546f20506f6c69637900000000000000006044820152606401611603565b856124d2816134c1565b1561253c57604080518082018252601f81527f4e6f7420616c6c6f77656420666f722063656d656e74656420706f6c69637900602082015290517f08c379a00000000000000000000000000000000000000000000000000000000081526116039190600401614b16565b6125478760016134ea565b60405187907fe9a53e8109d105e8132e423c8a8489a6c054acbfff3373248be4938a857143d990600090a250505050505050565b6000612585613d82565b6000938452600101602090815260408085209385529290525090205460ff1690565b60405173ffffffffffffffffffffffffffffffffffffffff84166024820152336044820181905284916000908190612679907f70aca0920000000000000000000000000000000000000000000000000000000090606401604080517fffffffffffffffffffffffffffffffffffffffffffffffffffffffffffffffe08184030181529190526020810180517bffffffffffffffffffffffffffffffffffffffffffffffffffffffff167f70aca092000000000000000000000000000000000000000000000000000000001790526133fa565b91509150600082156127045760048251106126995750602081015161269d565b5060005b80612704576040517f08c379a000000000000000000000000000000000000000000000000000000000815260206004820152601460248201527f4e6f7420417574686f72697a65642041646d696e0000000000000000000000006044820152606401611603565b600061270e613db0565b905060005b878110156128f457600061272561339e565b60010160008b8b8581811061273c5761273c614a9a565b90506020020135815260200190815260200160002090508060000160009054906101000a900460ff166040518060400160405280601581526020017f506f6c69637920646f6573206e6f742065786973740000000000000000000000815250906127d3576040517f08c379a00000000000000000000000000000000000000000000000000000000081526004016116039190614b16565b506127f58a8a848181106127e9576127e9614a9a565b905060200201356134c1565b1561285f57604080518082018252601f81527f4e6f7420616c6c6f77656420666f722063656d656e74656420706f6c69637900602082015290517f08c379a00000000000000000000000000000000000000000000000000000000081526116039190600401614b16565b6000600482015460ff16600181111561287a5761287a61424e565b036128eb5733600090815260058201602090815260409182902054825160608101909352603980845260ff909116929161597790830139906128e9576040517f08c379a00000000000000000000000000000000000000000000000000000000081526004016116039190614b16565b505b50600101612713565b508667ffffffffffffffff81111561290e5761290e614a6b565b604051908082528060200260200182016040528015612937578160200160208202803683370190505b5073ffffffffffffffffffffffffffffffffffffffff8a1660009081526020838152604090912082516129709391929190910190613ef5565b5060005b87811015612a805788888281811061298e5761298e614a9a565b905060200201358260000160008c73ffffffffffffffffffffffffffffffffffffffff1673ffffffffffffffffffffffffffffffffffffffff16815260200190815260200160002082815481106129e7576129e7614a9a565b90600052602060002001819055508160010160008a8a84818110612a0d57612a0d614a9a565b602090810292909201358352508181019290925260400160009081208054600180820183559183529290912090910180547fffffffffffffffffffffffff00000000000000000000000000000000000000001673ffffffffffffffffffffffffffffffffffffffff8d1617905501612974565b508873ffffffffffffffffffffffffffffffffffffffff167f12152a04e6faa55f635c036c0cb901dff565d19cd5703f5076adda8206cdb7c68989604051612ac9929190614b29565b60405180910390a2505050505050505050565b60405160248101839052336044820181905283916000908190612b23907f901cee110000000000000000000000000000000000000000000000000000000090606401611501565b9150915060008215612bae576004825110612b4357506020810151612b47565b5060005b80612bae576040517f08c379a000000000000000000000000000000000000000000000000000000000815260206004820152601860248201527f4e6f7420417574686f72697a656420546f20506f6c69637900000000000000006044820152606401611603565b86612bb8816134c1565b15612c2257604080518082018252601f81527f4e6f7420616c6c6f77656420666f722063656d656e74656420706f6c69637900602082015290517f08c379a00000000000000000000000000000000000000000000000000000000081526116039190600401614b16565b612c2a6133cc565b60008981526001918201602090815260408083208b8452909152812080547fffffffffffffffffffffffffffffffffffffffffffffffffffffffffffffff0016815591820181612c7a8282613f40565b600182016000612c8a8282613f40565b612c98600183016000613f61565b612ca6600283016000613f86565b50612cb79050600483016000613fa4565b612cc5600583016000613fa4565b612cd3600683016000613fc2565b612ce1600783016000613fc2565b50506040518992508a91507f371b8107ab385e638477ce677851ddf910d57c3afc1bab409674a9e251cfb02090600090a35050505050505050565b60008233600080612d6063901cee1160e01b858560405160240161150192919091825273ffffffffffffffffffffffffffffffffffffffff16602082015260400190565b9150915060008215612deb576004825110612d8057506020810151612d84565b5060005b80612deb576040517f08c379a000000000000000000000000000000000000000000000000000000000815260206004820152601860248201527f4e6f7420417574686f72697a656420546f20506f6c69637900000000000000006044820152606401611603565b87612df5816134c1565b15612e5f57604080518082018252601f81527f4e6f7420616c6c6f77656420666f722063656d656e74656420706f6c69637900602082015290517f08c379a00000000000000000000000000000000000000000000000000000000081526116039190600401614b16565b6000612e696133cc565b60008b8152602082905260408120805492935090918290612e8990614baa565b91829055509050612e9c828c838d613c9f565b5060008b8152602083905260408082208390555182918d917fcadd4461b462556a5a12f6e182d719fd2bbfaaa0a6fcf6a16cf7ecf6480769219190a39a9950505050505050505050565b60405160248101829052336044820181905282916000908190612f2d907f901cee110000000000000000000000000000000000000000000000000000000090606401611501565b9150915060008215612fb8576004825110612f4d57506020810151612f51565b5060005b80612fb8576040517f08c379a000000000000000000000000000000000000000000000000000000000815260206004820152601860248201527f4e6f7420417574686f72697a656420546f20506f6c69637900000000000000006044820152606401611603565b6001612fc261339e565b600088815260019190910160205260408082206004018054931515610100027fffffffffffffffffffffffffffffffffffffffffffffffffffffffffffff00ff90941693909317909255905187917fbaf00585ebbdf781652a166975bf4579319799593ec61cfadd690ea9833c3fc891a2505050505050565b6060613045613db0565b73ffffffffffffffffffffffffffffffffffffffff831660009081526020918252604090819020805482518185028101850190935280835291929091908301828280156130b157602002820191906000526020600020905b81548152602001906001019080831161309d575b50505050509050919050565b60405160248101829052336044820181905282916000908190613104907f901cee110000000000000000000000000000000000000000000000000000000090606401611501565b915091506000821561318f57600482511061312457506020810151613128565b5060005b8061318f576040517f08c379a000000000000000000000000000000000000000000000000000000000815260206004820152601860248201527f4e6f7420417574686f72697a656420546f20506f6c69637900000000000000006044820152606401611603565b85613199816134c1565b1561320357604080518082018252601f81527f4e6f7420616c6c6f77656420666f722063656d656e74656420706f6c69637900602082015290517f08c379a00000000000000000000000000000000000000000000000000000000081526116039190600401614b16565b600061320d61339e565b60008981526001919091016020526040812080547fffffffffffffffffffffffffffffffffffffffffffffffffffffffffffffff0016815591505b60038201548110156133685760038201805460018401916000918490811061327257613272614a9a565b90600052602060002090600891828204019190066004029054906101000a900460e01b7bffffffffffffffffffffffffffffffffffffffffffffffffffffffff19167bffffffffffffffffffffffffffffffffffffffffffffffffffffffff191681526020019081526020016000206000905581600101600101600083600101600201838154811061330657613306614a9a565b6000918252602080832060088304015460079092166004026101000a90910460e01b7fffffffff00000000000000000000000000000000000000000000000000000000168352820192909252604001812061336091613f40565b600101613248565b5060405188907f433ab09ab993382af577c4a70f77dcc7cf149b5b52eb40d19b869664bfb5496d90600090a25050505050505050565b6000806123f060017ff9dbd639dd2ea165d77dd4c51dec420100d51ceacf023b1c40faa045ba8f9a65614be2565b6000806123f060017f5c91f63a4ffcbd372b8ec622fd1fcaaa601b66330afdb30e5c292dd9123f20b0614be2565b600060606000613408613dde565b7fffffffff0000000000000000000000000000000000000000000000000000000086166000908152602082905260409081902054905191925073ffffffffffffffffffffffffffffffffffffffff16908190613465908790614bf5565b600060405180830381855af49150503d80600081146134a0576040519150601f19603f3d011682016040523d82523d6000602084013e6134a5565b606091505b509094509250836134b857825160208401fd5b50509250929050565b60006134cb61339e565b6000928352600101602052506040902060040154610100900460ff1690565b60006134f461339e565b6000848152600191820160205260408120909101915082600181111561351c5761351c61424e565b036135cc57600061352b613db0565b905060005b60008581526001830160205260409020548110156135b057600085815260018301602052604081208054849291908490811061356e5761356e614a9a565b600091825260208083209091015473ffffffffffffffffffffffffffffffffffffffff16835282019290925260400181206135a891613f40565b600101613530565b50600084815260018201602052604081206135ca91613f40565b505b6003810180548391907fffffffffffffffffffffffffffffffffffffffffffffffffffffffffffffff00166001838181111561360a5761360a61424e565b0217905550505050565b60008061361f61339e565b60008b815260019182016020526040902001905061363d8a846134ea565b61364b600282016000613fe3565b8315613b1b5760005b88811015613b155761367e8b89898481811061367257613672614a9a565b90506020020135613e0c565b6136e757604080518082018252601181527f496e76616c6964205369676e6174757265000000000000000000000000000000602082015290517f08c379a00000000000000000000000000000000000000000000000000000000081526116039190600401614b16565b8787828181106136f9576136f9614a9a565b905060200201358260000160008c8c8581811061371857613718614a9a565b905060200201602081019061372d9190614c11565b7fffffffff00000000000000000000000000000000000000000000000000000000168152602081019190915260400160002055600282018a8a8381811061377657613776614a9a565b905060200201602081019061378b9190614c11565b81546001810183556000928352602083206008820401805463ffffffff60079093166004026101000a928302191660e09390931c919091029190911790555b8686838181106137dc576137dc614a9a565b90506020028101906137ee9190614c53565b9050811015613b0c57600061383d8d89898681811061380f5761380f614a9a565b90506020028101906138219190614c53565b8581811061383157613831614a9a565b90506020020135611ac9565b80519091506138ab57604080518082018252600c81527f496e76616c69642052756c650000000000000000000000000000000000000000602082015290517f08c379a00000000000000000000000000000000000000000000000000000000081526116039190600401614b16565b60005b81602001516040015151811015613a495781602001516040015181815181106138d9576138d9614a9a565b602002602001015160600151156139825761392b8e836020015160400151838151811061390857613908614a9a565b6020026020010151602001516fffffffffffffffffffffffffffffffff16613e16565b604051806060016040528060278152602001615922602791399061397c576040517f08c379a00000000000000000000000000000000000000000000000000000000081526004016116039190614b16565b50613a41565b816020015160400151818151811061399c5761399c614a9a565b60200260200101516040015115613a41576139ee8e83602001516040015183815181106139cb576139cb614a9a565b6020026020010151602001516fffffffffffffffffffffffffffffffff1661257b565b6040518060600160405280602281526020016159006022913990613a3f576040517f08c379a00000000000000000000000000000000000000000000000000000000081526004016116039190614b16565b505b6001016138ae565b508360010160008d8d86818110613a6257613a62614a9a565b9050602002016020810190613a779190614c11565b7fffffffff000000000000000000000000000000000000000000000000000000001681526020810191909152604001600020888885818110613abb57613abb614a9a565b9050602002810190613acd9190614c53565b84818110613add57613add614a9a565b8354600180820186556000958652602095869020929095029390930135920191909155509190910190506137ca565b50600101613654565b50613c91565b60005b88811015613c8f57613b3c8b89898481811061367257613672614a9a565b613ba557604080518082018252601181527f496e76616c6964205369676e6174757265000000000000000000000000000000602082015290517f08c379a00000000000000000000000000000000000000000000000000000000081526116039190600401614b16565b878782818110613bb757613bb7614a9a565b905060200201358260000160008c8c85818110613bd657613bd6614a9a565b9050602002016020810190613beb9190614c11565b7fffffffff00000000000000000000000000000000000000000000000000000000168152602081019190915260400160002055600282018a8a83818110613c3457613c34614a9a565b9050602002016020810190613c499190614c11565b815460018082018455600093845260209093206008820401805463ffffffff60079093166004026101000a928302191660e09390931c9190910291909117905501613b1e565b505b509798975050505050505050565b6000613ca961339e565b6000858152600191909101602052604090205460ff16613d25576040517f08c379a000000000000000000000000000000000000000000000000000000000815260206004820152601060248201527f496e76616c696420506f6c6963794964000000000000000000000000000000006044820152606401611603565b600084815260018681016020908152604080842087855290915290912080547fffffffffffffffffffffffffffffffffffffffffffffffffffffffffffffff001682178155839101613d7782826157e8565b509295945050505050565b6000806123f060017f438102ff677bc3f21830c58117a05d6b953b31e3ea339da3f17957cd3941a690614be2565b6000806123f060017f1544053a94493269e0aa160e5aa5b54d19ee6492c78b8bd3af283b912c78cdeb614be2565b6000806123f060017fbe498a3b14fd79a48c3c9af86ff14271ed497d09071013334028d28e7791db20614be2565b6000612585613e20565b6000612585613e4e565b6000806123f060017f8b87534450a5488e76eda19b94ce784ed5d5fd327ac126c78047b6b2a04cf2f6614be2565b6000806123f060017f1f3305601ed940efccf797d76856e5fe70659a8a6905d64c9f236321df91e718614be2565b6040518060c0016040528060608152602001613eb260405180606001604052806060815260200160608152602001606081525090565b8152602001606081526020016060815260200160608152602001606081525090565b6040518060400160405280600015158152602001613ef0613e7c565b905290565b828054828255906000526020600020908101928215613f30579160200282015b82811115613f30578251825591602001919060010190613f15565b50613f3c929150614004565b5090565b5080546000825590600052602060002090810190613f5e9190614004565b50565b50805460008255601f016020900490600052602060002090810190613f5e9190614004565b5080546000825590600052602060002090810190613f5e9190614019565b5080546000825590600052602060002090810190613f5e9190614036565b5080546000825560050290600052602060002090810190613f5e919061406d565b508054600082556007016008900490600052602060002090810190613f5e91905b5b80821115613f3c5760008155600101614005565b80821115613f3c57600061402d82826140d9565b50600101614019565b5b80821115613f3c5780547fffffffffffffffffffffffffff00000000000000000000000000000000000000168155600101614037565b80821115613f3c5780547fffffffffffffffffffffffffffffffffffffffffffffffffffffffff0000000016815560006140aa60018301826140d9565b60028201600090556003820160006140c291906140d9565b6140d0600483016000613f40565b5060050161406d565b5080546140e590614ac9565b6000825580601f106140f5575050565b601f016020900490600052602060002090810190613f5e9190614004565b60008083601f84011261412557600080fd5b50813567ffffffffffffffff81111561413d57600080fd5b6020830191508360208260051b850101111561415857600080fd5b9250929050565b80356002811061416e57600080fd5b919050565b60008060008060006060868803121561418b57600080fd5b853567ffffffffffffffff8111156141a257600080fd5b6141ae88828901614113565b909650945050602086013567ffffffffffffffff8111156141ce57600080fd5b6141da88828901614113565b90945092506141ed90506040870161415f565b90509295509295909350565b60006020828403121561420b57600080fd5b5035919050565b600081518084526020840193506020830160005b82811015614244578151865260209586019590910190600101614226565b5093949350505050565b7f4e487b7100000000000000000000000000000000000000000000000000000000600052602160045260246000fd5b6008811061428d5761428d61424e565b9052565b60005b838110156142ac578181015183820152602001614294565b50506000910152565b600081518084526142cd816020860160208601614291565b601f017fffffffffffffffffffffffffffffffffffffffffffffffffffffffffffffffe0169290920160200192915050565b600081518084526020840193506020830160005b8281101561424457815161432887825161427d565b6fffffffffffffffffffffffffffffffff602082015116602088015260408101511515604088015260608101511515606088015250608086019550602082019150600181019050614313565b6003811061428d5761428d61424e565b600082825180855260208501945060208160051b8301016020850160005b83811015614485578483037fffffffffffffffffffffffffffffffffffffffffffffffffffffffffffffffe0018852815180511515845260208101516143ec602086018215159052565b5060408101516143ff6040860182614374565b506060810151614412606086018261427d565b506080810151610100608086015261442e6101008601826142b5565b905060a082015160a086015260c082015185820360c087015261445182826142b5565b91505060e0820151915084810360e086015261446d8183614212565b60209a8b019a909550939093019250506001016143a2565b50909695505050505050565b6000815160c084526144a660c0850182614212565b9050602083015184820360208601528051606083526144c86060840182614212565b6020838101518583038683015280518084529082019350600092909101905b80831015614511576144fa82855161427d565b6020820191506020840193506001830192506144e7565b506040840151935084810360408601528094508351925082815260208101945060208360051b820101915060208401935060005b83811015614594577fffffffffffffffffffffffffffffffffffffffffffffffffffffffffffffffe082840301865261457f8386516142b5565b60209687019695909501949250600101614545565b50506040860151935086810360408801526145af81856142ff565b9350505050606083015184820360608601526145cb82826142ff565b915050608083015184820360808601526145e58282614384565b91505060a083015184820360a08601526145ff8282614384565b95945050505050565b6000602082016020835280845180835260408501915060408160051b86010192506020860160005b828110156146e4578685037fffffffffffffffffffffffffffffffffffffffffffffffffffffffffffffffc0018452815180518087526020918201918088019190600582901b89010160005b828110156146cb577fffffffffffffffffffffffffffffffffffffffffffffffffffffffffffffffe08a83030184526146b6828651614491565b6020958601959490940193915060010161467c565b5097505050602094850194929092019150600101614630565b50929695505050505050565b6060808252845190820181905260009060208601906080840190835b8181101561474c5783517fffffffff000000000000000000000000000000000000000000000000000000001683526020938401939092019160010161470c565b505083810360208501526147608187614212565b915050828103604084015280845180835260208301915060208160051b8401016020870160005b838110156147d7577fffffffffffffffffffffffffffffffffffffffffffffffffffffffffffffffe08684030185526147c1838351614212565b6020958601959093509190910190600101614787565b50909998505050505050505050565b60008060008060008060008060a0898b03121561480257600080fd5b88359750602089013567ffffffffffffffff81111561482057600080fd5b61482c8b828c01614113565b909850965050604089013567ffffffffffffffff81111561484c57600080fd5b6148588b828c01614113565b909650945050606089013567ffffffffffffffff81111561487857600080fd5b6148848b828c01614113565b9094509250614897905060808a0161415f565b90509295985092959890939650565b600060c082840312156148b857600080fd5b50919050565b6000806000606084860312156148d357600080fd5b8335925060208401359150604084013567ffffffffffffffff8111156148f857600080fd5b614904868287016148a6565b9150509250925092565b6000806040838503121561492157600080fd5b50508035926020909101359150565b60208152815115156020820152600060208301516040808401526149576060840182614491565b949350505050565b803573ffffffffffffffffffffffffffffffffffffffff8116811461416e57600080fd5b60008060006040848603121561499857600080fd5b6149a18461495f565b9250602084013567ffffffffffffffff8111156149bd57600080fd5b6149c986828701614113565b9497909650939450505050565b600080604083850312156149e957600080fd5b82359150602083013567ffffffffffffffff811115614a0757600080fd5b614a13858286016148a6565b9150509250929050565b600060208284031215614a2f57600080fd5b614a388261495f565b9392505050565b602081526000614a386020830184614212565b600060208284031215614a6457600080fd5b5051919050565b7f4e487b7100000000000000000000000000000000000000000000000000000000600052604160045260246000fd5b7f4e487b7100000000000000000000000000000000000000000000000000000000600052603260045260246000fd5b600181811c90821680614add57607f821691505b6020821081036148b8577f4e487b7100000000000000000000000000000000000000000000000000000000600052602260045260246000fd5b602081526000614a3860208301846142b5565b6020815281602082015260007f07ffffffffffffffffffffffffffffffffffffffffffffffffffffffffffffff831115614b6257600080fd5b8260051b80856040850137919091016040019392505050565b7f4e487b7100000000000000000000000000000000000000000000000000000000600052601160045260246000fd5b60007fffffffffffffffffffffffffffffffffffffffffffffffffffffffffffffffff8203614bdb57614bdb614b7b565b5060010190565b818103818111156123f0576123f0614b7b565b60008251614c07818460208701614291565b9190910192915050565b600060208284031215614c2357600080fd5b81357fffffffff0000000000000000000000000000000000000000000000000000000081168114614a3857600080fd5b60008083357fffffffffffffffffffffffffffffffffffffffffffffffffffffffffffffffe1843603018112614c8857600080fd5b83018035915067ffffffffffffffff821115614ca357600080fd5b6020019150600581901b360382131561415857600080fd5b5b81811015614cd05760008155600101614cbc565b5050565b68010000000000000000821115614ced57614ced614a6b565b805482825580831015614d1357816000526020600020614d11828201858301614cbb565b505b505050565b67ffffffffffffffff831115614d3057614d30614a6b565b614d3a8382614cd4565b8181600052602060002060005b85811015614d6357823582820155602090920191600101614d47565b505050505050565b600082357fffffffffffffffffffffffffffffffffffffffffffffffffffffffffffffffa1833603018112614c0757600080fd5b68010000000000000000821115614db857614db8614a6b565b805482825580831015614d1357816000526020600020601f840160051c8101601f85168015614e34577fffffffffffffffffffffffffffffffffffffffffffffffffffffffffffffffff820180547fffffffffffffffffffffffffffffffffffffffffffffffffffffffffffffffff8360200360031b1c168155505b50614e47601f840160051c830182614cbb565b5050505050565b60008135600881106123f057600080fd5b60008083357fffffffffffffffffffffffffffffffffffffffffffffffffffffffffffffffe1843603018112614e9457600080fd5b83018035915067ffffffffffffffff821115614eaf57600080fd5b60200191503681900382131561415857600080fd5b614ece8154614ac9565b8015614cd057601f811160018114614ee857505060009055565b600083815260209020614f06601f840160051c820160018301614cbb565b5060008381526020812081855555505050565b601f821115614d1357806000526020600020601f840160051c81016020851015614f405750805b614e47601f850160051c830182614cbb565b67ffffffffffffffff831115614f6a57614f6a614a6b565b614f7e83614f788354614ac9565b83614f19565b6000601f841160018114614fd05760008515614f9a5750838201355b7fffffffffffffffffffffffffffffffffffffffffffffffffffffffffffffffff600387901b1c1916600186901b178355614e47565b6000838152602090207fffffffffffffffffffffffffffffffffffffffffffffffffffffffffffffffe0861690835b8281101561501f5786850135825560209485019460019092019101614fff565b508682101561505a577fffffffffffffffffffffffffffffffffffffffffffffffffffffffffffffffff60f88860031b161c19848701351681555b505060018560011b0183555050505050565b6801000000000000000083111561508557615085614a6b565b8054838255808410156150c1576000828152602090208481019082015b808210156150be576150b382614ec4565b6001820191506150a2565b50505b5060008181526020812083915b85811015614d63576150e08386614e5f565b6150eb818386614f52565b505060209290920191600191820191016150ce565b61510a8283614c53565b67ffffffffffffffff81111561512257615122614a6b565b61512c8184614cd4565b82600052602060002060005b8281101561515457833582820155602090930192600101615138565b50505050600181016151696020840184614c53565b67ffffffffffffffff81111561518157615181614a6b565b61518b8184614d9f565b60008381526020902092508060051c60005b818110156151f3576000805b60208110156151e6576151d56151be87614e4e565b60ff908116600384901b90811b91901b1984161790565b6020969096019591506001016151a9565b508582015560010161519d565b507fffffffffffffffffffffffffffffffffffffffffffffffffffffffffffffffe08216808303818414615250576000805b8281101561524a576152396151be88614e4e565b602097909701969150600101615225565b50868401555b5050505050506152636040830183614c53565b614d1181836002860161506c565b60008083357fffffffffffffffffffffffffffffffffffffffffffffffffffffffffffffffe18436030181126152a657600080fd5b83018035915067ffffffffffffffff8211156152c157600080fd5b6020019150600781901b360382131561415857600080fd5b6000813580151581146123f057600080fd5b6152f482614e4e565b600881106153045761530461424e565b815460ff82169150817fffffffffffffffffffffffffffffffffffffffffffffffffffffffffffffff00821617835560208401356fffffffffffffffffffffffffffffffff8116811461535657600080fd5b70ffffffffffffffffffffffffffffffff008160081b16837fffffffffffffffffffffffffffffff00000000000000000000000000000000008416171784555050506153a4604083016152d9565b81547fffffffffffffffffffffffffffff00ffffffffffffffffffffffffffffffffff1690151560881b71ff000000000000000000000000000000000016178155614cd06153f4606084016152d9565b8280547fffffffffffffffffffffffffff00ffffffffffffffffffffffffffffffffffff1691151560901b72ff00000000000000000000000000000000000016919091179055565b6801000000000000000083111561545557615455614a6b565b80548382558084101561548c576000828152602090208481019082015b808210156154895760008255600182019150615472565b50505b5060008181526020812083915b85811015614d63576154ab83836152eb565b6080929092019160019182019101615499565b600082357fffffffffffffffffffffffffffffffffffffffffffffffffffffffffffffff01833603018112614c0757600080fd5b8054600082558015614cd057816000526020600020614d1382820182614cbb565b60008135600381106123f057600080fd5b600382106155345761553461424e565b805462ff00008360101b167fffffffffffffffffffffffffffffffffffffffffffffffffffffffffff00ffff8216178255505050565b6008821061557a5761557a61424e565b805463ff0000008360181b167fffffffffffffffffffffffffffffffffffffffffffffffffffffffff00ffffff8216178255505050565b6155ba826152d9565b15157fffffffffffffffffffffffffffffffffffffffffffffffffffffffffffffff0082541660ff82168117835550506156306155f9602084016152d9565b8280547fffffffffffffffffffffffffffffffffffffffffffffffffffffffffffff00ff1691151560081b61ff0016919091179055565b61564561563f60408401615513565b82615524565b61565a61565460608401614e4e565b8261556a565b6156676080830183614e5f565b615675818360018601614f52565b505060a0820135600282015561568e60c0830183614e5f565b61569c818360038601614f52565b50506156ab60e0830183614c53565b614d11818360048601614d18565b680100000000000000008311156156d2576156d2614a6b565b8054838255808410156157aa57806005026005810482146156f5576156f5614b7b565b8460050260058104861461570b5761570b614b7b565b60008481526020902091820191015b818110156157a7576000815561573260018201614ec4565b60006002820155600381016157478154614ac9565b801561579157601f811160018114615762576000835561578f565b600083815260209020615780601f840160051c820160018301614cbb565b50600083815260208120818555555b505b505061579f600482016154f2565b60050161571a565b50505b5060008181526020812083915b85811015614d63576157d26157cc84876154be565b836155b1565b60209290920191600591909101906001016157b7565b6157f28283614c53565b67ffffffffffffffff81111561580a5761580a614a6b565b6158148184614cd4565b82600052602060002060005b8281101561583c57833582820155602090930192600101615820565b505050506158596158506020840184614d6b565b60018301615100565b6158666040830183615271565b61587481836004860161543c565b50506158836060830183615271565b61589181836005860161543c565b50506158a06080830183614c53565b6158ae8183600686016156b9565b50506158bd60a0830183614c53565b614d118183600786016156b956fe506f6c6963792049442063616e6e6f7420626520302e2043726561746520706f6c696379206265666f7265207570646174696e67547261636b6572207265666572656e63656420696e2072756c65206e6f7420736574466f726569676e2043616c6c207265666572656e63656420696e2072756c65206e6f74207365745369676e61747572657320616e64207369676e617475726520696427732061726520696e636f6e73697374656e744f6e6c7920766572696669656420706f6c69637920737562736372696265722063616e206170706c7920636c6f73656420706f6c6963696573a2646970667358221220358bfe2c7e85897640d45fea9e7016717cadffb776dce74879ae997622fb2e0864736f6c634300081c0033","linkReferences":{}},"methodIdentifiers":{"_isTrackerSet(uint256,uint256)":"80624b6f","applyPolicy(address,uint256[])":"9228303f","cementPolicy(uint256)":"d46a37c4","closePolicy(uint256)":"2b0e4440","createPolicy((bool,bytes4,uint8[])[],(uint256[],(uint256[],uint8[],bytes[]),(uint8,uint128,bool,bool)[],(uint8,uint128,bool,bool)[],(bool,bool,uint8,uint8,bytes,bytes32,string,uint256[])[],(bool,bool,uint8,uint8,bytes,bytes32,string,uint256[])[])[],uint8)":"1ff76a7b","createRule(uint256,(uint256[],(uint256[],uint8[],bytes[]),(uint8,uint128,bool,bool)[],(uint8,uint128,bool,bool)[],(bool,bool,uint8,uint8,bytes,bytes32,string,uint256[])[],(bool,bool,uint8,uint8,bytes,bytes32,string,uint256[])[]))":"bc9b94eb","deletePolicy(uint256)":"fed27c8f","deleteRule(uint256,uint256)":"a31c8ebb","getAllRules(uint256)":"266fc8a5","getAppliedPolicyIds(address)":"e3749023","getPolicy(uint256)":"2b07fce3","getRule(uint256,uint256)":"6d279ef8","isClosedPolicy(uint256)":"4f10689b","openPolicy(uint256)":"798d6c7b","updatePolicy(uint256,bytes4[],uint256[],uint256[][],uint8)":"2fd205bd","updateRule(uint256,uint256,(uint256[],(uint256[],uint8[],bytes[]),(uint8,uint128,bool,bool)[],(uint8,uint128,bool,bool)[],(bool,bool,uint8,uint8,bytes,bytes32,string,uint256[])[],(bool,bool,uint8,uint8,bytes,bytes32,string,uint256[])[]))":"37794b07"},"id":84}