{"abi":[{"type":"function","name":"createRule","inputs":[{"name":"_policyId","type":"uint256","internalType":"uint256"},{"name":"_rule","type":"tuple","internalType":"struct Rule","components":[{"name":"instructionSet","type":"uint256[]","internalType":"uint256[]"},{"name":"rawData","type":"tuple","internalType":"struct RawData","components":[{"name":"instructionSetIndex","type":"uint256[]","internalType":"uint256[]"},{"name":"argumentTypes","type":"uint8[]","internalType":"enum PT[]"},{"name":"dataValues","type":"bytes[]","internalType":"bytes[]"}]},{"name":"placeHolders","type":"tuple[]","internalType":"struct Placeholder[]","components":[{"name":"pType","type":"uint8","internalType":"enum PT"},{"name":"typeSpecificIndex","type":"uint128","internalType":"uint128"},{"name":"trackerValue","type":"bool","internalType":"bool"},{"name":"foreignCall","type":"bool","internalType":"bool"}]},{"name":"effectPlaceHolders","type":"tuple[]","internalType":"struct Placeholder[]","components":[{"name":"pType","type":"uint8","internalType":"enum PT"},{"name":"typeSpecificIndex","type":"uint128","internalType":"uint128"},{"name":"trackerValue","type":"bool","internalType":"bool"},{"name":"foreignCall","type":"bool","internalType":"bool"}]},{"name":"posEffects","type":"tuple[]","internalType":"struct Effect[]","components":[{"name":"valid","type":"bool","internalType":"bool"},{"name":"dynamicParam","type":"bool","internalType":"bool"},{"name":"effectType","type":"uint8","internalType":"enum ET"},{"name":"pType","type":"uint8","internalType":"enum PT"},{"name":"param","type":"bytes","internalType":"bytes"},{"name":"text","type":"bytes32","internalType":"bytes32"},{"name":"errorMessage","type":"string","internalType":"string"},{"name":"instructionSet","type":"uint256[]","internalType":"uint256[]"}]},{"name":"negEffects","type":"tuple[]","internalType":"struct Effect[]","components":[{"name":"valid","type":"bool","internalType":"bool"},{"name":"dynamicParam","type":"bool","internalType":"bool"},{"name":"effectType","type":"uint8","internalType":"enum ET"},{"name":"pType","type":"uint8","internalType":"enum PT"},{"name":"param","type":"bytes","internalType":"bytes"},{"name":"text","type":"bytes32","internalType":"bytes32"},{"name":"errorMessage","type":"string","internalType":"string"},{"name":"instructionSet","type":"uint256[]","internalType":"uint256[]"}]}]}],"outputs":[{"name":"","type":"uint256","internalType":"uint256"}],"stateMutability":"nonpayable"},{"type":"function","name":"deleteRule","inputs":[{"name":"_policyId","type":"uint256","internalType":"uint256"},{"name":"_ruleId","type":"uint256","internalType":"uint256"}],"outputs":[],"stateMutability":"nonpayable"},{"type":"function","name":"getAllRules","inputs":[{"name":"_policyId","type":"uint256","internalType":"uint256"}],"outputs":[{"name":"","type":"tuple[][]","internalType":"struct Rule[][]","components":[{"name":"instructionSet","type":"uint256[]","internalType":"uint256[]"},{"name":"rawData","type":"tuple","internalType":"struct RawData","components":[{"name":"instructionSetIndex","type":"uint256[]","internalType":"uint256[]"},{"name":"argumentTypes","type":"uint8[]","internalType":"enum PT[]"},{"name":"dataValues","type":"bytes[]","internalType":"bytes[]"}]},{"name":"placeHolders","type":"tuple[]","internalType":"struct Placeholder[]","components":[{"name":"pType","type":"uint8","internalType":"enum PT"},{"name":"typeSpecificIndex","type":"uint128","internalType":"uint128"},{"name":"trackerValue","type":"bool","internalType":"bool"},{"name":"foreignCall","type":"bool","internalType":"bool"}]},{"name":"effectPlaceHolders","type":"tuple[]","internalType":"struct Placeholder[]","components":[{"name":"pType","type":"uint8","internalType":"enum PT"},{"name":"typeSpecificIndex","type":"uint128","internalType":"uint128"},{"name":"trackerValue","type":"bool","internalType":"bool"},{"name":"foreignCall","type":"bool","internalType":"bool"}]},{"name":"posEffects","type":"tuple[]","internalType":"struct Effect[]","components":[{"name":"valid","type":"bool","internalType":"bool"},{"name":"dynamicParam","type":"bool","internalType":"bool"},{"name":"effectType","type":"uint8","internalType":"enum ET"},{"name":"pType","type":"uint8","internalType":"enum PT"},{"name":"param","type":"bytes","internalType":"bytes"},{"name":"text","type":"bytes32","internalType":"bytes32"},{"name":"errorMessage","type":"string","internalType":"string"},{"name":"instructionSet","type":"uint256[]","internalType":"uint256[]"}]},{"name":"negEffects","type":"tuple[]","internalType":"struct Effect[]","components":[{"name":"valid","type":"bool","internalType":"bool"},{"name":"dynamicParam","type":"bool","internalType":"bool"},{"name":"effectType","type":"uint8","internalType":"enum ET"},{"name":"pType","type":"uint8","internalType":"enum PT"},{"name":"param","type":"bytes","internalType":"bytes"},{"name":"text","type":"bytes32","internalType":"bytes32"},{"name":"errorMessage","type":"string","internalType":"string"},{"name":"instructionSet","type":"uint256[]","internalType":"uint256[]"}]}]}],"stateMutability":"view"},{"type":"function","name":"getRule","inputs":[{"name":"_policyId","type":"uint256","internalType":"uint256"},{"name":"_ruleId","type":"uint256","internalType":"uint256"}],"outputs":[{"name":"","type":"tuple","internalType":"struct RuleStorageSet","components":[{"name":"set","type":"bool","internalType":"bool"},{"name":"rule","type":"tuple","internalType":"struct Rule","components":[{"name":"instructionSet","type":"uint256[]","internalType":"uint256[]"},{"name":"rawData","type":"tuple","internalType":"struct RawData","components":[{"name":"instructionSetIndex","type":"uint256[]","internalType":"uint256[]"},{"name":"argumentTypes","type":"uint8[]","internalType":"enum PT[]"},{"name":"dataValues","type":"bytes[]","internalType":"bytes[]"}]},{"name":"placeHolders","type":"tuple[]","internalType":"struct Placeholder[]","components":[{"name":"pType","type":"uint8","internalType":"enum PT"},{"name":"typeSpecificIndex","type":"uint128","internalType":"uint128"},{"name":"trackerValue","type":"bool","internalType":"bool"},{"name":"foreignCall","type":"bool","internalType":"bool"}]},{"name":"effectPlaceHolders","type":"tuple[]","internalType":"struct Placeholder[]","components":[{"name":"pType","type":"uint8","internalType":"enum PT"},{"name":"typeSpecificIndex","type":"uint128","internalType":"uint128"},{"name":"trackerValue","type":"bool","internalType":"bool"},{"name":"foreignCall","type":"bool","internalType":"bool"}]},{"name":"posEffects","type":"tuple[]","internalType":"struct Effect[]","components":[{"name":"valid","type":"bool","internalType":"bool"},{"name":"dynamicParam","type":"bool","internalType":"bool"},{"name":"effectType","type":"uint8","internalType":"enum ET"},{"name":"pType","type":"uint8","internalType":"enum PT"},{"name":"param","type":"bytes","internalType":"bytes"},{"name":"text","type":"bytes32","internalType":"bytes32"},{"name":"errorMessage","type":"string","internalType":"string"},{"name":"instructionSet","type":"uint256[]","internalType":"uint256[]"}]},{"name":"negEffects","type":"tuple[]","internalType":"struct Effect[]","components":[{"name":"valid","type":"bool","internalType":"bool"},{"name":"dynamicParam","type":"bool","internalType":"bool"},{"name":"effectType","type":"uint8","internalType":"enum ET"},{"name":"pType","type":"uint8","internalType":"enum PT"},{"name":"param","type":"bytes","internalType":"bytes"},{"name":"text","type":"bytes32","internalType":"bytes32"},{"name":"errorMessage","type":"string","internalType":"string"},{"name":"instructionSet","type":"uint256[]","internalType":"uint256[]"}]}]}]}],"stateMutability":"view"},{"type":"function","name":"updateRule","inputs":[{"name":"_policyId","type":"uint256","internalType":"uint256"},{"name":"_ruleId","type":"uint256","internalType":"uint256"},{"name":"_rule","type":"tuple","internalType":"struct Rule","components":[{"name":"instructionSet","type":"uint256[]","internalType":"uint256[]"},{"name":"rawData","type":"tuple","internalType":"struct RawData","components":[{"name":"instructionSetIndex","type":"uint256[]","internalType":"uint256[]"},{"name":"argumentTypes","type":"uint8[]","internalType":"enum PT[]"},{"name":"dataValues","type":"bytes[]","internalType":"bytes[]"}]},{"name":"placeHolders","type":"tuple[]","internalType":"struct Placeholder[]","components":[{"name":"pType","type":"uint8","internalType":"enum PT"},{"name":"typeSpecificIndex","type":"uint128","internalType":"uint128"},{"name":"trackerValue","type":"bool","internalType":"bool"},{"name":"foreignCall","type":"bool","internalType":"bool"}]},{"name":"effectPlaceHolders","type":"tuple[]","internalType":"struct Placeholder[]","components":[{"name":"pType","type":"uint8","internalType":"enum PT"},{"name":"typeSpecificIndex","type":"uint128","internalType":"uint128"},{"name":"trackerValue","type":"bool","internalType":"bool"},{"name":"foreignCall","type":"bool","internalType":"bool"}]},{"name":"posEffects","type":"tuple[]","internalType":"struct Effect[]","components":[{"name":"valid","type":"bool","internalType":"bool"},{"name":"dynamicParam","type":"bool","internalType":"bool"},{"name":"effectType","type":"uint8","internalType":"enum ET"},{"name":"pType","type":"uint8","internalType":"enum PT"},{"name":"param","type":"bytes","internalType":"bytes"},{"name":"text","type":"bytes32","internalType":"bytes32"},{"name":"errorMessage","type":"string","internalType":"string"},{"name":"instructionSet","type":"uint256[]","internalType":"uint256[]"}]},{"name":"negEffects","type":"tuple[]","internalType":"struct Effect[]","components":[{"name":"valid","type":"bool","internalType":"bool"},{"name":"dynamicParam","type":"bool","internalType":"bool"},{"name":"effectType","type":"uint8","internalType":"enum ET"},{"name":"pType","type":"uint8","internalType":"enum PT"},{"name":"param","type":"bytes","internalType":"bytes"},{"name":"text","type":"bytes32","internalType":"bytes32"},{"name":"errorMessage","type":"string","internalType":"string"},{"name":"instructionSet","type":"uint256[]","internalType":"uint256[]"}]}]}],"outputs":[{"name":"","type":"uint256","internalType":"uint256"}],"stateMutability":"nonpayable"},{"type":"event","name":"RuleCreated","inputs":[{"name":"policyId","type":"uint256","indexed":true,"internalType":"uint256"},{"name":"ruleId","type":"uint256","indexed":true,"internalType":"uint256"}],"anonymous":false},{"type":"event","name":"RuleDeleted","inputs":[{"name":"policyId","type":"uint256","indexed":true,"internalType":"uint256"},{"name":"ruleId","type":"uint256","indexed":true,"internalType":"uint256"}],"anonymous":false},{"type":"event","name":"RuleUpdated","inputs":[{"name":"policyId","type":"uint256","indexed":true,"internalType":"uint256"},{"name":"ruleId","type":"uint256","indexed":true,"internalType":"uint256"}],"anonymous":false}],"bytecode":{"object":"0x6080604052348015600e575f5ffd5b506132f28061001c5f395ff3fe608060405234801561000f575f5ffd5b5060043610610064575f3560e01c80636d279ef81161004d5780636d279ef8146100b2578063a31c8ebb146100d2578063bc9b94eb146100e7575f5ffd5b8063266fc8a51461006857806337794b0714610091575b5f5ffd5b61007b610076366004611f87565b6100fa565b6040516100889190612367565b60405180910390f35b6100a461009f366004612462565b610ced565b604051908152602001610088565b6100c56100c03660046124ae565b610e93565b60405161008891906124ce565b6100e56100e03660046124ae565b61179e565b005b6100a46100f53660046124fc565b611966565b60605f610105611abd565b6001015f8481526020019081526020015f2060010190505f816002018054806020026020016040519081016040528092919081815260200182805480156101aa57602002820191905f5260205f20905f905b82829054906101000a900460e01b7bffffffffffffffffffffffffffffffffffffffffffffffffffffffff1916815260200190600401906020826003010492830192600103820291508084116101575790505b505050505090505f815167ffffffffffffffff8111156101cc576101cc612540565b6040519080825280602002602001820160405280156101ff57816020015b60608152602001906001900390816101ea5790505b5090505f5b8251811015610ce4575f846001015f8584815181106102255761022561256d565b60200260200101517bffffffffffffffffffffffffffffffffffffffffffffffffffffffff19167bffffffffffffffffffffffffffffffffffffffffffffffffffffffff191681526020019081526020015f208054806020026020016040519081016040528092919081815260200182805480156102c057602002820191905f5260205f20905b8154815260200190600101908083116102ac575b50505050509050805167ffffffffffffffff8111156102e1576102e1612540565b60405190808252806020026020018201604052801561031a57816020015b610307611d74565b8152602001906001900390816102ff5790505b5083838151811061032d5761032d61256d565b60209081029190910101525f5b8151811015610cda5761034b611aea565b6001015f8981526020019081526020015f205f8383815181106103705761037061256d565b60209081029190910181015182528101919091526040015f205460ff1615610cd25761039a611aea565b6001015f8981526020019081526020015f205f8383815181106103bf576103bf61256d565b602002602001015181526020019081526020015f206001016040518060c00160405290815f820180548060200260200160405190810160405280929190818152602001828054801561042e57602002820191905f5260205f20905b81548152602001906001019080831161041a575b50505050508152602001600182016040518060600160405290815f820180548060200260200160405190810160405280929190818152602001828054801561049357602002820191905f5260205f20905b81548152602001906001019080831161047f575b505050505081526020016001820180548060200260200160405190810160405280929190818152602001828054801561051857602002820191905f5260205f20905f905b82829054906101000a900460ff1660078111156104f6576104f6611fd8565b8152602060019283018181049485019490930390920291018084116104d75790505b5050505050815260200160028201805480602002602001604051908101604052809291908181526020015f905b828210156105ed578382905f5260205f200180546105629061259a565b80601f016020809104026020016040519081016040528092919081815260200182805461058e9061259a565b80156105d95780601f106105b0576101008083540402835291602001916105d9565b820191905f5260205f20905b8154815290600101906020018083116105bc57829003601f168201915b505050505081526020019060010190610545565b5050505081525050815260200160048201805480602002602001604051908101604052809291908181526020015f905b828210156106dd575f8481526020902060408051608081019091529083018054829060ff16600781111561065357610653611fd8565b600781111561066457610664611fd8565b815290546fffffffffffffffffffffffffffffffff61010082041660208084019190915260ff71010000000000000000000000000000000000830481161515604085015272010000000000000000000000000000000000009092049091161515606090920191909152908252600192909201910161061d565b50505050815260200160058201805480602002602001604051908101604052809291908181526020015f905b828210156107c9575f8481526020902060408051608081019091529083018054829060ff16600781111561073f5761073f611fd8565b600781111561075057610750611fd8565b815290546fffffffffffffffffffffffffffffffff61010082041660208084019190915260ff710100000000000000000000000000000000008304811615156040850152720100000000000000000000000000000000000090920490911615156060909201919091529082526001929092019101610709565b50505050815260200160068201805480602002602001604051908101604052809291908181526020015f905b82821015610a2e575f84815260209081902060408051610100808201835260058702909301805460ff80821615158452948104851615159583019590955290939092918401916201000090910416600281111561085457610854611fd8565b600281111561086557610865611fd8565b815281546020909101906301000000900460ff16600781111561088a5761088a611fd8565b600781111561089b5761089b611fd8565b81526020016001820180546108af9061259a565b80601f01602080910402602001604051908101604052809291908181526020018280546108db9061259a565b80156109265780601f106108fd57610100808354040283529160200191610926565b820191905f5260205f20905b81548152906001019060200180831161090957829003601f168201915b50505050508152602001600282015481526020016003820180546109499061259a565b80601f01602080910402602001604051908101604052809291908181526020018280546109759061259a565b80156109c05780601f10610997576101008083540402835291602001916109c0565b820191905f5260205f20905b8154815290600101906020018083116109a357829003601f168201915b5050505050815260200160048201805480602002602001604051908101604052809291908181526020018280548015610a1657602002820191905f5260205f20905b815481526020019060010190808311610a02575b505050505081525050815260200190600101906107f5565b50505050815260200160078201805480602002602001604051908101604052809291908181526020015f905b82821015610c93575f84815260209081902060408051610100808201835260058702909301805460ff808216151584529481048516151595830195909552909390929184019162010000909104166002811115610ab957610ab9611fd8565b6002811115610aca57610aca611fd8565b815281546020909101906301000000900460ff166007811115610aef57610aef611fd8565b6007811115610b0057610b00611fd8565b8152602001600182018054610b149061259a565b80601f0160208091040260200160405190810160405280929190818152602001828054610b409061259a565b8015610b8b5780601f10610b6257610100808354040283529160200191610b8b565b820191905f5260205f20905b815481529060010190602001808311610b6e57829003601f168201915b5050505050815260200160028201548152602001600382018054610bae9061259a565b80601f0160208091040260200160405190810160405280929190818152602001828054610bda9061259a565b8015610c255780601f10610bfc57610100808354040283529160200191610c25565b820191905f5260205f20905b815481529060010190602001808311610c0857829003601f168201915b5050505050815260200160048201805480602002602001604051908101604052809291908181526020018280548015610c7b57602002820191905f5260205f20905b815481526020019060010190808311610c67575b50505050508152505081526020019060010190610a5a565b5050505081525050848481518110610cad57610cad61256d565b60200260200101518281518110610cc657610cc661256d565b60200260200101819052505b60010161033a565b5050600101610204565b50949350505050565b5f83335f5f610daa63901cee1160e01b8585604051602401610d2f92919091825273ffffffffffffffffffffffffffffffffffffffff16602082015260400190565b604080517fffffffffffffffffffffffffffffffffffffffffffffffffffffffffffffffe08184030181529190526020810180517bffffffffffffffffffffffffffffffffffffffffffffffffffffffff167f901cee1100000000000000000000000000000000000000000000000000000000179052611b17565b915091505f8215610e38576004825110610dc957506020810151610dcc565b505f5b80610e38576040517f08c379a000000000000000000000000000000000000000000000000000000000815260206004820152601860248201527f4e6f7420417574686f72697a656420546f20506f6c696379000000000000000060448201526064015b60405180910390fd5b610e4189611bd8565b5f610e4a611aea565b9050610e58818b8b8b611c67565b5060405189908b907fe91f86fd53c89629ca0bc01d0f219a6cd6730e5252f179944d1f3c9b5def1b07905f90a3509698975050505050505050565b610e9b611dcc565b610ea3611aea565b5f84815260019182016020908152604080832086845282529182902082518084018452815460ff16151581528351948201805460e08186028801810190965260c0870181815292969395948701949192849290918491840182828015610f2657602002820191905f5260205f20905b815481526020019060010190808311610f12575b50505050508152602001600182016040518060600160405290815f8201805480602002602001604051908101604052809291908181526020018280548015610f8b57602002820191905f5260205f20905b815481526020019060010190808311610f77575b505050505081526020016001820180548060200260200160405190810160405280929190818152602001828054801561101057602002820191905f5260205f20905f905b82829054906101000a900460ff166007811115610fee57610fee611fd8565b815260206001928301818104948501949093039092029101808411610fcf5790505b5050505050815260200160028201805480602002602001604051908101604052809291908181526020015f905b828210156110e5578382905f5260205f2001805461105a9061259a565b80601f01602080910402602001604051908101604052809291908181526020018280546110869061259a565b80156110d15780601f106110a8576101008083540402835291602001916110d1565b820191905f5260205f20905b8154815290600101906020018083116110b457829003601f168201915b50505050508152602001906001019061103d565b5050505081525050815260200160048201805480602002602001604051908101604052809291908181526020015f905b828210156111d5575f8481526020902060408051608081019091529083018054829060ff16600781111561114b5761114b611fd8565b600781111561115c5761115c611fd8565b815290546fffffffffffffffffffffffffffffffff61010082041660208084019190915260ff710100000000000000000000000000000000008304811615156040850152720100000000000000000000000000000000000090920490911615156060909201919091529082526001929092019101611115565b50505050815260200160058201805480602002602001604051908101604052809291908181526020015f905b828210156112c1575f8481526020902060408051608081019091529083018054829060ff16600781111561123757611237611fd8565b600781111561124857611248611fd8565b815290546fffffffffffffffffffffffffffffffff61010082041660208084019190915260ff710100000000000000000000000000000000008304811615156040850152720100000000000000000000000000000000000090920490911615156060909201919091529082526001929092019101611201565b50505050815260200160068201805480602002602001604051908101604052809291908181526020015f905b82821015611526575f84815260209081902060408051610100808201835260058702909301805460ff80821615158452948104851615159583019590955290939092918401916201000090910416600281111561134c5761134c611fd8565b600281111561135d5761135d611fd8565b815281546020909101906301000000900460ff16600781111561138257611382611fd8565b600781111561139357611393611fd8565b81526020016001820180546113a79061259a565b80601f01602080910402602001604051908101604052809291908181526020018280546113d39061259a565b801561141e5780601f106113f55761010080835404028352916020019161141e565b820191905f5260205f20905b81548152906001019060200180831161140157829003601f168201915b50505050508152602001600282015481526020016003820180546114419061259a565b80601f016020809104026020016040519081016040528092919081815260200182805461146d9061259a565b80156114b85780601f1061148f576101008083540402835291602001916114b8565b820191905f5260205f20905b81548152906001019060200180831161149b57829003601f168201915b505050505081526020016004820180548060200260200160405190810160405280929190818152602001828054801561150e57602002820191905f5260205f20905b8154815260200190600101908083116114fa575b505050505081525050815260200190600101906112ed565b50505050815260200160078201805480602002602001604051908101604052809291908181526020015f905b8282101561178b575f84815260209081902060408051610100808201835260058702909301805460ff8082161515845294810485161515958301959095529093909291840191620100009091041660028111156115b1576115b1611fd8565b60028111156115c2576115c2611fd8565b815281546020909101906301000000900460ff1660078111156115e7576115e7611fd8565b60078111156115f8576115f8611fd8565b815260200160018201805461160c9061259a565b80601f01602080910402602001604051908101604052809291908181526020018280546116389061259a565b80156116835780601f1061165a57610100808354040283529160200191611683565b820191905f5260205f20905b81548152906001019060200180831161166657829003601f168201915b50505050508152602001600282015481526020016003820180546116a69061259a565b80601f01602080910402602001604051908101604052809291908181526020018280546116d29061259a565b801561171d5780601f106116f45761010080835404028352916020019161171d565b820191905f5260205f20905b81548152906001019060200180831161170057829003601f168201915b505050505081526020016004820180548060200260200160405190810160405280929190818152602001828054801561177357602002820191905f5260205f20905b81548152602001906001019080831161175f575b50505050508152505081526020019060010190611552565b5050509152505090525090505b92915050565b60405160248101839052336044820181905283915f9081906117e4907f901cee110000000000000000000000000000000000000000000000000000000090606401610d2f565b915091505f821561186d57600482511061180357506020810151611806565b505f5b8061186d576040517f08c379a000000000000000000000000000000000000000000000000000000000815260206004820152601860248201527f4e6f7420417574686f72697a656420546f20506f6c69637900000000000000006044820152606401610e2f565b61187687611bd8565b61187e611aea565b5f8881526001918201602090815260408083208a8452909152812080547fffffffffffffffffffffffffffffffffffffffffffffffffffffffffffffff00168155918201816118cd8282611dec565b600182015f6118dc8282611dec565b6118e9600183015f611e07565b6118f6600283015f611e29565b506119069050600483015f611e44565b611913600583015f611e44565b611920600683015f611e5f565b61192d600783015f611e5f565b50506040518892508991507f371b8107ab385e638477ce677851ddf910d57c3afc1bab409674a9e251cfb020905f90a350505050505050565b5f82335f5f6119a863901cee1160e01b8585604051602401610d2f92919091825273ffffffffffffffffffffffffffffffffffffffff16602082015260400190565b915091505f8215611a315760048251106119c7575060208101516119ca565b505f5b80611a31576040517f08c379a000000000000000000000000000000000000000000000000000000000815260206004820152601860248201527f4e6f7420417574686f72697a656420546f20506f6c69637900000000000000006044820152606401610e2f565b611a3a88611bd8565b5f611a43611aea565b5f8a8152602082905260408120805492935090918290611a6290612612565b91829055509050611a75828b838c611c67565b505f8a8152602083905260408082208390555182918c917fcadd4461b462556a5a12f6e182d719fd2bbfaaa0a6fcf6a16cf7ecf6480769219190a39998505050505050505050565b5f8061179860017ff9dbd639dd2ea165d77dd4c51dec420100d51ceacf023b1c40faa045ba8f9a65612649565b5f8061179860017f5c91f63a4ffcbd372b8ec622fd1fcaaa601b66330afdb30e5c292dd9123f20b0612649565b5f60605f611b23611d47565b7fffffffff0000000000000000000000000000000000000000000000000000000086165f908152602082905260409081902054905191925073ffffffffffffffffffffffffffffffffffffffff16908190611b7f90879061265c565b5f60405180830381855af49150503d805f8114611bb7576040519150601f19603f3d011682016040523d82523d5f602084013e611bbc565b606091505b50909450925083611bcf57825160208401fd5b50509250929050565b611be0611abd565b5f8281526001919091016020526040902060040154610100900460ff1615611c64576040517f08c379a000000000000000000000000000000000000000000000000000000000815260206004820152601f60248201527f4e6f7420616c6c6f77656420666f722063656d656e74656420706f6c696379006044820152606401610e2f565b50565b5f611c70611abd565b5f858152600191909101602052604090205460ff16611ceb576040517f08c379a000000000000000000000000000000000000000000000000000000000815260206004820152601060248201527f496e76616c696420506f6c6963794964000000000000000000000000000000006044820152606401610e2f565b5f84815260018681016020908152604080842087855290915290912080547fffffffffffffffffffffffffffffffffffffffffffffffffffffffffffffff001682178155839101611d3c82826131dc565b509295945050505050565b5f8061179860017fbe498a3b14fd79a48c3c9af86ff14271ed497d09071013334028d28e7791db20612649565b6040518060c0016040528060608152602001611daa60405180606001604052806060815260200160608152602001606081525090565b8152602001606081526020016060815260200160608152602001606081525090565b60405180604001604052805f15158152602001611de7611d74565b905290565b5080545f8255905f5260205f2090810190611c649190611e7d565b5080545f8255601f0160209004905f5260205f2090810190611c649190611e7d565b5080545f8255905f5260205f2090810190611c649190611e95565b5080545f8255905f5260205f2090810190611c649190611eb1565b5080545f8255600502905f5260205f2090810190611c649190611ee8565b5b80821115611e91575f8155600101611e7e565b5090565b80821115611e91575f611ea88282611f50565b50600101611e95565b5b80821115611e915780547fffffffffffffffffffffffffff00000000000000000000000000000000000000168155600101611eb2565b80821115611e915780547fffffffffffffffffffffffffffffffffffffffffffffffffffffffff000000001681555f611f246001830182611f50565b600282015f9055600382015f611f3a9190611f50565b611f47600483015f611dec565b50600501611ee8565b508054611f5c9061259a565b5f825580601f10611f6b575050565b601f0160209004905f5260205f2090810190611c649190611e7d565b5f60208284031215611f97575f5ffd5b5035919050565b5f8151808452602084019350602083015f5b82811015611fce578151865260209586019590910190600101611fb0565b5093949350505050565b7f4e487b71000000000000000000000000000000000000000000000000000000005f52602160045260245ffd5b6008811061201557612015611fd8565b9052565b5f81518084528060208401602086015e5f6020828601015260207fffffffffffffffffffffffffffffffffffffffffffffffffffffffffffffffe0601f83011685010191505092915050565b5f8151808452602084019350602083015f5b82811015611fce57815161208c878251612005565b6fffffffffffffffffffffffffffffffff602082015116602088015260408101511515604088015260608101511515606088015250608086019550602082019150600181019050612077565b6003811061201557612015611fd8565b5f82825180855260208501945060208160051b830101602085015f5b838110156121e7578483037fffffffffffffffffffffffffffffffffffffffffffffffffffffffffffffffe00188528151805115158452602081015161214e602086018215159052565b50604081015161216160408601826120d8565b5060608101516121746060860182612005565b5060808101516101006080860152612190610100860182612019565b905060a082015160a086015260c082015185820360c08701526121b38282612019565b91505060e0820151915084810360e08601526121cf8183611f9e565b60209a8b019a90955093909301925050600101612104565b50909695505050505050565b5f815160c0845261220760c0850182611f9e565b9050602083015184820360208601528051606083526122296060840182611f9e565b60208381015185830386830152805180845290820193505f92909101905b808310156122715761225a828551612005565b602082019150602084019350600183019250612247565b506040840151935084810360408601528094508351925082815260208101945060208360051b82010191506020840193505f5b838110156122f3577fffffffffffffffffffffffffffffffffffffffffffffffffffffffffffffffe08284030186526122de838651612019565b602096870196959095019492506001016122a4565b505060408601519350868103604088015261230e8185612065565b93505050506060830151848203606086015261232a8282612065565b9150506080830151848203608086015261234482826120e8565b91505060a083015184820360a086015261235e82826120e8565b95945050505050565b5f602082016020835280845180835260408501915060408160051b8601019250602086015f5b82811015612440578685037fffffffffffffffffffffffffffffffffffffffffffffffffffffffffffffffc0018452815180518087526020918201918088019190600582901b8901015f5b82811015612427577fffffffffffffffffffffffffffffffffffffffffffffffffffffffffffffffe08a83030184526124128286516121f3565b602095860195949094019391506001016123d8565b509750505060209485019492909201915060010161238d565b50929695505050505050565b5f60c0828403121561245c575f5ffd5b50919050565b5f5f5f60608486031215612474575f5ffd5b8335925060208401359150604084013567ffffffffffffffff811115612498575f5ffd5b6124a48682870161244c565b9150509250925092565b5f5f604083850312156124bf575f5ffd5b50508035926020909101359150565b602081528151151560208201525f60208301516040808401526124f460608401826121f3565b949350505050565b5f5f6040838503121561250d575f5ffd5b82359150602083013567ffffffffffffffff81111561252a575f5ffd5b6125368582860161244c565b9150509250929050565b7f4e487b71000000000000000000000000000000000000000000000000000000005f52604160045260245ffd5b7f4e487b71000000000000000000000000000000000000000000000000000000005f52603260045260245ffd5b600181811c908216806125ae57607f821691505b60208210810361245c577f4e487b71000000000000000000000000000000000000000000000000000000005f52602260045260245ffd5b7f4e487b71000000000000000000000000000000000000000000000000000000005f52601160045260245ffd5b5f7fffffffffffffffffffffffffffffffffffffffffffffffffffffffffffffffff8203612642576126426125e5565b5060010190565b81810381811115611798576117986125e5565b5f82518060208501845e5f920191825250919050565b5f5f83357fffffffffffffffffffffffffffffffffffffffffffffffffffffffffffffffe18436030181126126a5575f5ffd5b83018035915067ffffffffffffffff8211156126bf575f5ffd5b6020019150600581901b36038213156126d6575f5ffd5b9250929050565b5b818110156126f1575f81556001016126de565b5050565b6801000000000000000082111561270e5761270e612540565b80548282558083101561273257815f5260205f206127308282018583016126dd565b505b505050565b67ffffffffffffffff83111561274f5761274f612540565b61275983826126f5565b81815f5260205f205f5b8581101561277f57823582820155602090920191600101612763565b505050505050565b5f82357fffffffffffffffffffffffffffffffffffffffffffffffffffffffffffffffa18336030181126127b9575f5ffd5b9190910192915050565b680100000000000000008211156127dc576127dc612540565b80548282558083101561273257815f5260205f20601f840160051c8101601f85168015612856577fffffffffffffffffffffffffffffffffffffffffffffffffffffffffffffffff820180547fffffffffffffffffffffffffffffffffffffffffffffffffffffffffffffffff8360200360031b1c168155505b50612869601f840160051c8301826126dd565b5050505050565b5f813560088110611798575f5ffd5b5f5f83357fffffffffffffffffffffffffffffffffffffffffffffffffffffffffffffffe18436030181126128b2575f5ffd5b83018035915067ffffffffffffffff8211156128cc575f5ffd5b6020019150368190038213156126d6575f5ffd5b80546128eb9061259a565b80156126f157601f8111600181146129045750505f9055565b5f83815260209020612921601f840160051c8201600183016126dd565b505f8381526020812081855555505050565b601f82111561273257805f5260205f20601f840160051c810160208510156129585750805b612869601f850160051c8301826126dd565b67ffffffffffffffff83111561298257612982612540565b61299683612990835461259a565b83612933565b5f601f8411600181146129e6575f85156129b05750838201355b7fffffffffffffffffffffffffffffffffffffffffffffffffffffffffffffffff600387901b1c1916600186901b178355612869565b5f838152602081207fffffffffffffffffffffffffffffffffffffffffffffffffffffffffffffffe08716915b82811015612a335786850135825560209485019460019092019101612a13565b5086821015612a6e577fffffffffffffffffffffffffffffffffffffffffffffffffffffffffffffffff60f88860031b161c19848701351681555b505060018560011b0183555050505050565b68010000000000000000831115612a9957612a99612540565b805483825580841015612ad4575f828152602090208481019082015b80821015612ad157612ac6826128e0565b600182019150612ab5565b50505b505f8181526020812083915b8581101561277f57612af2838661287f565b612afd81838661296a565b50506020929092019160019182019101612ae0565b612b1c8283612672565b67ffffffffffffffff811115612b3457612b34612540565b612b3e81846126f5565b825f5260205f205f5b82811015612b6357833582820155602090930192600101612b47565b5050505060018101612b786020840184612672565b67ffffffffffffffff811115612b9057612b90612540565b612b9a81846127c3565b5f8381526020902092508060051c5f5b81811015612bff575f5f5b6020811015612bf257612be1612bca87612870565b60ff908116600384901b90811b91901b1984161790565b602096909601959150600101612bb5565b5085820155600101612baa565b507fffffffffffffffffffffffffffffffffffffffffffffffffffffffffffffffe08216808303818414612c5b575f5f5b82811015612c5557612c44612bca88612870565b602097909701969150600101612c30565b50868401555b505050505050612c6e6040830183612672565b612730818360028601612a80565b5f5f83357fffffffffffffffffffffffffffffffffffffffffffffffffffffffffffffffe1843603018112612caf575f5ffd5b83018035915067ffffffffffffffff821115612cc9575f5ffd5b6020019150600781901b36038213156126d6575f5ffd5b5f81358015158114611798575f5ffd5b612cf982612870565b60088110612d0957612d09611fd8565b815460ff82169150817fffffffffffffffffffffffffffffffffffffffffffffffffffffffffffffff00821617835560208401356fffffffffffffffffffffffffffffffff81168114612d5a575f5ffd5b70ffffffffffffffffffffffffffffffff008160081b16837fffffffffffffffffffffffffffffff0000000000000000000000000000000000841617178455505050612da860408301612ce0565b81547fffffffffffffffffffffffffffff00ffffffffffffffffffffffffffffffffff1690151560881b71ff0000000000000000000000000000000000161781556126f1612df860608401612ce0565b8280547fffffffffffffffffffffffffff00ffffffffffffffffffffffffffffffffffff1691151560901b72ff00000000000000000000000000000000000016919091179055565b68010000000000000000831115612e5957612e59612540565b805483825580841015612e8e575f828152602090208481019082015b80821015612e8b575f8255600182019150612e75565b50505b505f8181526020812083915b8581101561277f57612eac8383612cf0565b6080929092019160019182019101612e9a565b5f82357fffffffffffffffffffffffffffffffffffffffffffffffffffffffffffffff018336030181126127b9575f5ffd5b80545f825580156126f157815f5260205f20612732828201826126dd565b5f813560038110611798575f5ffd5b60038210612f2e57612f2e611fd8565b805462ff00008360101b167fffffffffffffffffffffffffffffffffffffffffffffffffffffffffff00ffff8216178255505050565b60088210612f7457612f74611fd8565b805463ff0000008360181b167fffffffffffffffffffffffffffffffffffffffffffffffffffffffff00ffffff8216178255505050565b612fb482612ce0565b15157fffffffffffffffffffffffffffffffffffffffffffffffffffffffffffffff0082541660ff821681178355505061302a612ff360208401612ce0565b8280547fffffffffffffffffffffffffffffffffffffffffffffffffffffffffffff00ff1691151560081b61ff0016919091179055565b61303f61303960408401612f0f565b82612f1e565b61305461304e60608401612870565b82612f64565b613061608083018361287f565b61306f81836001860161296a565b505060a0820135600282015561308860c083018361287f565b61309681836003860161296a565b50506130a560e0830183612672565b612730818360048601612737565b680100000000000000008311156130cc576130cc612540565b80548382558084101561319f57806005026005810482146130ef576130ef6125e5565b84600502600581048614613105576131056125e5565b5f8481526020902091820191015b8181101561319c575f815561312a600182016128e0565b5f600282015560038101805461313f9061259a565b801561318657601f811160018114613159575f8355613184565b5f83815260209020613176601f840160051c8201600183016126dd565b505f83815260208120818555555b505b505061319460048201612ef1565b600501613113565b50505b505f8181526020812083915b8581101561277f576131c66131c08487612ebf565b83612fab565b60209290920191600591909101906001016131ab565b6131e68283612672565b67ffffffffffffffff8111156131fe576131fe612540565b61320881846126f5565b825f5260205f205f5b8281101561322d57833582820155602090930192600101613211565b5050505061324a6132416020840184612787565b60018301612b12565b6132576040830183612c7c565b613265818360048601612e40565b50506132746060830183612c7c565b613282818360058601612e40565b50506132916080830183612672565b61329f8183600686016130b3565b50506132ae60a0830183612672565b6127308183600786016130b356fea2646970667358221220197224ef190c0b7490e4a44fe59699d82bda1b893151136195f7b46ef636dc4564736f6c634300081c0033","linkReferences":{}},"methodIdentifiers":{"createRule(uint256,(uint256[],(uint256[],uint8[],bytes[]),(uint8,uint128,bool,bool)[],(uint8,uint128,bool,bool)[],(bool,bool,uint8,uint8,bytes,bytes32,string,uint256[])[],(bool,bool,uint8,uint8,bytes,bytes32,string,uint256[])[]))":"bc9b94eb","deleteRule(uint256,uint256)":"a31c8ebb","getAllRules(uint256)":"266fc8a5","getRule(uint256,uint256)":"6d279ef8","updateRule(uint256,uint256,(uint256[],(uint256[],uint8[],bytes[]),(uint8,uint128,bool,bool)[],(uint8,uint128,bool,bool)[],(bool,bool,uint8,uint8,bytes,bytes32,string,uint256[])[],(bool,bool,uint8,uint8,bytes,bytes32,string,uint256[])[]))":"37794b07"},"id":88}