{"abi":[{"type":"function","name":"DEFAULT_ADMIN_ROLE","inputs":[],"outputs":[{"name":"","type":"bytes32","internalType":"bytes32"}],"stateMutability":"view"},{"type":"function","name":"confirmNewCallingContractAdmin","inputs":[{"name":"callingContractAddress","type":"address","internalType":"address"}],"outputs":[],"stateMutability":"nonpayable"},{"type":"function","name":"confirmNewPolicyAdmin","inputs":[{"name":"policyId","type":"uint256","internalType":"uint256"}],"outputs":[],"stateMutability":"nonpayable"},{"type":"function","name":"generatePolicyAdminRole","inputs":[{"name":"policyId","type":"uint256","internalType":"uint256"},{"name":"account","type":"address","internalType":"address"}],"outputs":[{"name":"","type":"bytes32","internalType":"bytes32"}],"stateMutability":"nonpayable"},{"type":"function","name":"getRoleAdmin","inputs":[{"name":"role","type":"bytes32","internalType":"bytes32"}],"outputs":[{"name":"","type":"bytes32","internalType":"bytes32"}],"stateMutability":"view"},{"type":"function","name":"getRoleMember","inputs":[{"name":"role","type":"bytes32","internalType":"bytes32"},{"name":"index","type":"uint256","internalType":"uint256"}],"outputs":[{"name":"","type":"address","internalType":"address"}],"stateMutability":"view"},{"type":"function","name":"getRoleMemberCount","inputs":[{"name":"role","type":"bytes32","internalType":"bytes32"}],"outputs":[{"name":"","type":"uint256","internalType":"uint256"}],"stateMutability":"view"},{"type":"function","name":"getRoleMembers","inputs":[{"name":"role","type":"bytes32","internalType":"bytes32"}],"outputs":[{"name":"","type":"address[]","internalType":"address[]"}],"stateMutability":"view"},{"type":"function","name":"grantCallingContractRole","inputs":[{"name":"_callingContract","type":"address","internalType":"address"},{"name":"_account","type":"address","internalType":"address"}],"outputs":[{"name":"","type":"bytes32","internalType":"bytes32"}],"stateMutability":"nonpayable"},{"type":"function","name":"grantCallingContractRoleAccessControl","inputs":[{"name":"_callingContract","type":"address","internalType":"address"},{"name":"_account","type":"address","internalType":"address"}],"outputs":[{"name":"","type":"bytes32","internalType":"bytes32"}],"stateMutability":"nonpayable"},{"type":"function","name":"grantCallingContractRoleOwnable","inputs":[{"name":"_callingContract","type":"address","internalType":"address"},{"name":"_account","type":"address","internalType":"address"}],"outputs":[{"name":"","type":"bytes32","internalType":"bytes32"}],"stateMutability":"nonpayable"},{"type":"function","name":"grantRole","inputs":[{"name":"role","type":"bytes32","internalType":"bytes32"},{"name":"account","type":"address","internalType":"address"}],"outputs":[],"stateMutability":"pure"},{"type":"function","name":"hasRole","inputs":[{"name":"role","type":"bytes32","internalType":"bytes32"},{"name":"account","type":"address","internalType":"address"}],"outputs":[{"name":"","type":"bool","internalType":"bool"}],"stateMutability":"view"},{"type":"function","name":"isCallingContractAdmin","inputs":[{"name":"_callingContract","type":"address","internalType":"address"},{"name":"_account","type":"address","internalType":"address"}],"outputs":[{"name":"","type":"bool","internalType":"bool"}],"stateMutability":"view"},{"type":"function","name":"isPolicyAdmin","inputs":[{"name":"policyId","type":"uint256","internalType":"uint256"},{"name":"account","type":"address","internalType":"address"}],"outputs":[{"name":"","type":"bool","internalType":"bool"}],"stateMutability":"view"},{"type":"function","name":"proposeNewCallingContractAdmin","inputs":[{"name":"callingContractAddress","type":"address","internalType":"address"},{"name":"newCallingContractAdmin","type":"address","internalType":"address"}],"outputs":[],"stateMutability":"nonpayable"},{"type":"function","name":"proposeNewPolicyAdmin","inputs":[{"name":"newPolicyAdmin","type":"address","internalType":"address"},{"name":"policyId","type":"uint256","internalType":"uint256"}],"outputs":[],"stateMutability":"nonpayable"},{"type":"function","name":"renounceRole","inputs":[{"name":"role","type":"bytes32","internalType":"bytes32"},{"name":"account","type":"address","internalType":"address"}],"outputs":[],"stateMutability":"nonpayable"},{"type":"function","name":"renounceRole","inputs":[{"name":"role","type":"bytes32","internalType":"bytes32"},{"name":"account","type":"address","internalType":"address"},{"name":"policyId","type":"uint256","internalType":"uint256"}],"outputs":[],"stateMutability":"nonpayable"},{"type":"function","name":"revokeRole","inputs":[{"name":"role","type":"bytes32","internalType":"bytes32"},{"name":"account","type":"address","internalType":"address"},{"name":"policyId","type":"uint256","internalType":"uint256"}],"outputs":[],"stateMutability":"nonpayable"},{"type":"function","name":"revokeRole","inputs":[{"name":"role","type":"bytes32","internalType":"bytes32"},{"name":"account","type":"address","internalType":"address"}],"outputs":[],"stateMutability":"nonpayable"},{"type":"function","name":"supportsInterface","inputs":[{"name":"interfaceId","type":"bytes4","internalType":"bytes4"}],"outputs":[{"name":"","type":"bool","internalType":"bool"}],"stateMutability":"view"},{"type":"event","name":"CallingContractAdminRoleConfirmed","inputs":[{"name":"callingContract","type":"address","indexed":true,"internalType":"address"},{"name":"adminAddress","type":"address","indexed":true,"internalType":"address"}],"anonymous":false},{"type":"event","name":"CallingContractAdminRoleGranted","inputs":[{"name":"callingContract","type":"address","indexed":true,"internalType":"address"},{"name":"adminAddress","type":"address","indexed":true,"internalType":"address"}],"anonymous":false},{"type":"event","name":"CallingContractAdminRoleProposed","inputs":[{"name":"callingContract","type":"address","indexed":true,"internalType":"address"},{"name":"proposedAdminAddress","type":"address","indexed":true,"internalType":"address"}],"anonymous":false},{"type":"event","name":"PolicyAdminRoleConfirmed","inputs":[{"name":"adminAddress","type":"address","indexed":true,"internalType":"address"},{"name":"policyId","type":"uint256","indexed":true,"internalType":"uint256"}],"anonymous":false},{"type":"event","name":"PolicyAdminRoleGranted","inputs":[{"name":"adminAddress","type":"address","indexed":true,"internalType":"address"},{"name":"policyId","type":"uint256","indexed":true,"internalType":"uint256"}],"anonymous":false},{"type":"event","name":"PolicyAdminRoleProposed","inputs":[{"name":"proposedAdminAddress","type":"address","indexed":true,"internalType":"address"},{"name":"policyId","type":"uint256","indexed":true,"internalType":"uint256"}],"anonymous":false},{"type":"event","name":"PolicyAdminRoleRenounced","inputs":[{"name":"adminAddress","type":"address","indexed":true,"internalType":"address"},{"name":"policyId","type":"uint256","indexed":true,"internalType":"uint256"}],"anonymous":false},{"type":"event","name":"PolicyAdminRoleRevoked","inputs":[{"name":"adminAddress","type":"address","indexed":true,"internalType":"address"},{"name":"policyId","type":"uint256","indexed":true,"internalType":"uint256"}],"anonymous":false},{"type":"event","name":"RoleAdminChanged","inputs":[{"name":"role","type":"bytes32","indexed":true,"internalType":"bytes32"},{"name":"previousAdminRole","type":"bytes32","indexed":true,"internalType":"bytes32"},{"name":"newAdminRole","type":"bytes32","indexed":true,"internalType":"bytes32"}],"anonymous":false},{"type":"event","name":"RoleGranted","inputs":[{"name":"role","type":"bytes32","indexed":true,"internalType":"bytes32"},{"name":"account","type":"address","indexed":true,"internalType":"address"},{"name":"sender","type":"address","indexed":true,"internalType":"address"}],"anonymous":false},{"type":"event","name":"RoleRevoked","inputs":[{"name":"role","type":"bytes32","indexed":true,"internalType":"bytes32"},{"name":"account","type":"address","indexed":true,"internalType":"address"},{"name":"sender","type":"address","indexed":true,"internalType":"address"}],"anonymous":false},{"type":"error","name":"AccessControlBadConfirmation","inputs":[]},{"type":"error","name":"AccessControlUnauthorizedAccount","inputs":[{"name":"account","type":"address","internalType":"address"},{"name":"neededRole","type":"bytes32","internalType":"bytes32"}]},{"type":"error","name":"ReentrancyGuardReentrantCall","inputs":[]}],"bytecode":{"object":"0x6080604052348015600e575f5ffd5b50600160025561203e806100215f395ff3fe608060405234801561000f575f5ffd5b5060043610610179575f3560e01c8063901cee11116100d2578063b1348c8911610088578063d27efca511610063578063d27efca51461035d578063d547741f1461020e578063d92f90fc14610370575f5ffd5b8063b1348c8914610324578063c976afd614610337578063ca15c8731461034a575f5ffd5b8063a217fddf116100b8578063a217fddf146102ea578063a3246ad3146102f1578063a8c014f414610311575f5ffd5b8063901cee111461029457806391d14854146102a7575f5ffd5b80632f2ff15d1161013257806370aca0921161010d57806370aca09214610236578063804ba97d146102495780639010d07c1461025c575f5ffd5b80632f2ff15d1461020e57806336568abe1461020e5780635f9a9c2b14610223575f5ffd5b8063248a9ca311610162578063248a9ca3146101c6578063261b0245146101e85780632f16a358146101fb575f5ffd5b806301ffc9a71461017d5780631929cb64146101a5575b5f5ffd5b61019061018b366004611be0565b610383565b60405190151581526020015b60405180910390f35b6101b86101b3366004611c40565b6103de565b60405190815260200161019c565b6101b86101d4366004611c6e565b5f9081526020819052604090206001015490565b6101b86101f6366004611c85565b6104c8565b6101b8610209366004611c85565b610774565b61022161021c366004611c40565b61094a565b005b610221610231366004611cb1565b6109ac565b610190610244366004611c85565b610b5e565b6101b8610257366004611c85565b610bc6565b61026f61026a366004611ccc565b610d22565b60405173ffffffffffffffffffffffffffffffffffffffff909116815260200161019c565b6101906102a2366004611c40565b610d39565b6101906102b5366004611c40565b5f9182526020828152604080842073ffffffffffffffffffffffffffffffffffffffff93909316845291905290205460ff1690565b6101b85f81565b6103046102ff366004611c6e565b610d67565b60405161019c9190611cec565b61022161031f366004611c85565b610d80565b610221610332366004611d44565b610f05565b610221610345366004611c6e565b610fdc565b6101b8610358366004611c6e565b61115c565b61022161036b366004611d44565b611172565b61022161037e366004611d79565b611244565b5f7fffffffff0000000000000000000000000000000000000000000000000000000082167f5a05180f0000000000000000000000000000000000000000000000000000000014806103d857506103d8826113b1565b92915050565b5f6103e7611447565b33301461044357604051806060016040528060228152602001611f84602291396040517f08c379a000000000000000000000000000000000000000000000000000000000815260040161043a9190611da3565b60405180910390fd5b5f61046e847f506f6c6963795f41646d696e0000000000000000000000000000000000000000611488565b905061047a8184611562565b604051849073ffffffffffffffffffffffffffffffffffffffff8516907f5d8751116265daef12864a389d3a862fedd252ff2c64f06702579fbd7813e579905f90a390506103d86001600255565b5f6104d1611447565b73ffffffffffffffffffffffffffffffffffffffff821661055157604080518082018252601c81527f5a65726f20416464726573732043616e6e6f742042652041646d696e00000000602082015290517f08c379a000000000000000000000000000000000000000000000000000000000815261043a9190600401611da3565b6040517f91d148540000000000000000000000000000000000000000000000000000000081527f43616c6c696e675f436f6e74726163745f41646d696e00000000000000000000600482015233602482015273ffffffffffffffffffffffffffffffffffffffff8416906391d1485490604401602060405180830381865afa1580156105df573d5f5f3e3d5ffd5b505050506040513d601f19601f820116820180604052508101906106039190611df6565b610653576040518060600160405280603d8152602001611fcc603d91396040517f08c379a000000000000000000000000000000000000000000000000000000000815260040161043a9190611da3565b5f61067e847f43616c6c696e675f436f6e74726163745f41646d696e00000000000000000000611686565b5f8181526020818152604080832073ffffffffffffffffffffffffffffffffffffffff8816845290915290205490915060ff165b1561070357604051806060016040528060268152602001611fa6602691396040517f08c379a000000000000000000000000000000000000000000000000000000000815260040161043a9190611da3565b61070d81846116ae565b508273ffffffffffffffffffffffffffffffffffffffff168473ffffffffffffffffffffffffffffffffffffffff167f2b474bca23ad1f8b56bb31f8c22933f265e0e15bb4fcf8bb6c9c1de01f68eb6560405160405180910390a390506103d86001600255565b5f61077d611447565b5f6107a8847f43616c6c696e675f436f6e74726163745f41646d696e00000000000000000000611686565b905073ffffffffffffffffffffffffffffffffffffffff831661082a57604080518082018252601c81527f5a65726f20416464726573732043616e6e6f742042652041646d696e00000000602082015290517f08c379a000000000000000000000000000000000000000000000000000000000815261043a9190600401611da3565b8373ffffffffffffffffffffffffffffffffffffffff16638da5cb5b6040518163ffffffff1660e01b8152600401602060405180830381865afa158015610873573d5f5f3e3d5ffd5b505050506040513d601f19601f820116820180604052508101906108979190611e15565b73ffffffffffffffffffffffffffffffffffffffff163373ffffffffffffffffffffffffffffffffffffffff1614610915576040518060600160405280603d8152602001611fcc603d91396040517f08c379a000000000000000000000000000000000000000000000000000000000815260040161043a9190611da3565b5f8181526020818152604080832073ffffffffffffffffffffffffffffffffffffffff8716845290915290205460ff166106b2565b6040517f08c379a000000000000000000000000000000000000000000000000000000000815260206004820152601160248201527f46756e6374696f6e2064697361626c6564000000000000000000000000000000604482015260640161043a565b5f6109e06109da837f43616c6c696e675f436f6e74726163745f41646d696e00000000000000000000611686565b5f610d22565b9050610a2c610a0f837f50726f706f7365645f43616c6c696e675f436f6e74726163745f41646d696e00611686565b5f9081526020818152604080832033845290915290205460ff1690565b610a7c57604051806060016040528060238152602001611f3b602391396040517f08c379a000000000000000000000000000000000000000000000000000000000815260040161043a9190611da3565b610aaf610aa9837f50726f706f7365645f43616c6c696e675f436f6e74726163745f41646d696e00611686565b336116e1565b50610ae3610add837f43616c6c696e675f436f6e74726163745f41646d696e00000000000000000000611686565b826116e1565b50610b17610b11837f43616c6c696e675f436f6e74726163745f41646d696e00000000000000000000611686565b336116ae565b50604051339073ffffffffffffffffffffffffffffffffffffffff8416907ffa5350a8d644c6aa3e792a6a6b7976e28cf5ba5fec66f6eefc2829f0ca689c41905f90a35050565b5f610bbf610b8c847f43616c6c696e675f436f6e74726163745f41646d696e00000000000000000000611686565b5f9081526020818152604080832073ffffffffffffffffffffffffffffffffffffffff8716845290915290205460ff1690565b9392505050565b5f610bcf611447565b73ffffffffffffffffffffffffffffffffffffffff8216610c4f57604080518082018252601c81527f5a65726f20416464726573732043616e6e6f742042652041646d696e00000000602082015290517f08c379a000000000000000000000000000000000000000000000000000000000815261043a9190600401611da3565b3373ffffffffffffffffffffffffffffffffffffffff841614610cb857604051806060016040528060268152602001611f5e602691396040517f08c379a000000000000000000000000000000000000000000000000000000000815260040161043a9190611da3565b8273ffffffffffffffffffffffffffffffffffffffff163b5f0361065357604051806060016040528060268152602001611f5e602691396040517f08c379a000000000000000000000000000000000000000000000000000000000815260040161043a9190611da3565b5f828152600160205260408120610bbf908361170c565b5f610bbf610b8c847f506f6c6963795f41646d696e0000000000000000000000000000000000000000611488565b5f8181526001602052604090206060906103d890611717565b610d8a8233610b5e565b610df357604080518082018252601a81527f4e6f742043616c6c696e6720436f6e74726163742041646d696e000000000000602082015290517f08c379a000000000000000000000000000000000000000000000000000000000815261043a9190600401611da3565b73ffffffffffffffffffffffffffffffffffffffff8116610e7357604080518082018252601c81527f5a65726f20416464726573732043616e6e6f742042652041646d696e00000000602082015290517f08c379a000000000000000000000000000000000000000000000000000000000815261043a9190600401611da3565b610ea6610ea0837f50726f706f7365645f43616c6c696e675f436f6e74726163745f41646d696e00611686565b826116ae565b508073ffffffffffffffffffffffffffffffffffffffff168273ffffffffffffffffffffffffffffffffffffffff167f7d2c38c3c31fae4a580fef38a6b852d68e5e78ecd34b57fce25d387127bc713d60405160405180910390a35050565b610f0d611447565b610f178183610d39565b15610f8157604080518082018252601981527f42656c6f77204d696e2041646d696e205468726573686f6c6400000000000000602082015290517f08c379a000000000000000000000000000000000000000000000000000000000815261043a9190600401611da3565b610f8b8383611723565b604051819073ffffffffffffffffffffffffffffffffffffffff8416907fa18e7770c8bee6a49fd728f59c26eb9a0293f6ab4195bb3672cc26ea098644ba905f90a3610fd76001600255565b505050565b5f61100a6109da837f506f6c6963795f41646d696e0000000000000000000000000000000000000000611488565b9050611039610a0f837f50726f706f7365645f506f6c6963795f41646d696e0000000000000000000000611488565b6110a257604080518082018252601981527f4e6f742050726f706f73656420506f6c6963792041646d696e00000000000000602082015290517f08c379a000000000000000000000000000000000000000000000000000000000815261043a9190600401611da3565b6110cf610aa9837f50726f706f7365645f506f6c6963795f41646d696e0000000000000000000000611488565b506110fd610add837f506f6c6963795f41646d696e0000000000000000000000000000000000000000611488565b5061112b610b11837f506f6c6963795f41646d696e0000000000000000000000000000000000000000611488565b50604051829033907f14ca48cb26e98f4c91402fa960abe9a5c1f5d5478f39a7e544901e6e48e108dd905f90a35050565b5f8181526001602052604081206103d89061177c565b61117a611447565b6111848183610d39565b156111ee57604080518082018252601981527f42656c6f77204d696e2041646d696e205468726573686f6c6400000000000000602082015290517f08c379a000000000000000000000000000000000000000000000000000000000815261043a9190600401611da3565b6111f88383611785565b604051819073ffffffffffffffffffffffffffffffffffffffff8416907fcdee8d3f2327f159a26a6a91394457975866d642f5531884dd73711727595a12905f90a3610fd76001600255565b61124e8133610d39565b6112b757604080518082018252601081527f4e6f7420506f6c6963792041646d696e00000000000000000000000000000000602082015290517f08c379a000000000000000000000000000000000000000000000000000000000815261043a9190600401611da3565b73ffffffffffffffffffffffffffffffffffffffff821661133757604080518082018252601c81527f5a65726f20416464726573732043616e6e6f742042652041646d696e00000000602082015290517f08c379a000000000000000000000000000000000000000000000000000000000815261043a9190600401611da3565b61136a611364827f50726f706f7365645f506f6c6963795f41646d696e0000000000000000000000611488565b836116ae565b50604051819073ffffffffffffffffffffffffffffffffffffffff8416907f3b0f200412e09c80b1126912caf7c728d400faf0ec6786b54d60af413d377ead905f90a35050565b5f7fffffffff0000000000000000000000000000000000000000000000000000000082167f7965db0b0000000000000000000000000000000000000000000000000000000014806103d857507f01ffc9a7000000000000000000000000000000000000000000000000000000007fffffffff000000000000000000000000000000000000000000000000000000008316146103d8565b6002805403611482576040517f3ee5aeb500000000000000000000000000000000000000000000000000000000815260040160405180910390fd5b60028055565b5f8260405160200161149c91815260200190565b604080517fffffffffffffffffffffffffffffffffffffffffffffffffffffffffffffffe0818403018152828252602083018590529101604080517fffffffffffffffffffffffffffffffffffffffffffffffffffffffffffffffe08184030181529082905261150f9291602001611e47565b604080517fffffffffffffffffffffffffffffffffffffffffffffffffffffffffffffffe081840301815282825280516020918201209083015201604051602081830303815290604052610bbf90611e63565b73ffffffffffffffffffffffffffffffffffffffff81166115e257604080518082018252601c81527f5a65726f20416464726573732043616e6e6f742042652041646d696e00000000602082015290517f08c379a000000000000000000000000000000000000000000000000000000000815261043a9190600401611da3565b5f8281526020818152604080832073ffffffffffffffffffffffffffffffffffffffff8516845290915290205460ff161561167c57604080518082018252601c81527f506f6c6963792041646d696e20416c7265616479204372656174656400000000602082015290517f08c379a000000000000000000000000000000000000000000000000000000000815261043a9190600401611da3565b610fd782826116ae565b6040805173ffffffffffffffffffffffffffffffffffffffff841660208201525f910161149c565b5f5f6116ba84846117af565b90508015610bbf575f8481526001602052604090206116d990846118a8565b509392505050565b5f5f6116ed84846118c9565b90508015610bbf575f8481526001602052604090206116d99084611982565b5f610bbf83836119a3565b60605f610bbf836119c9565b73ffffffffffffffffffffffffffffffffffffffff81163314611772576040517f6697b23200000000000000000000000000000000000000000000000000000000815260040160405180910390fd5b610fd782826116e1565b5f6103d8825490565b5f8281526020819052604090206001015461179f81611a22565b6117a983836116e1565b50505050565b5f8281526020818152604080832073ffffffffffffffffffffffffffffffffffffffff8516845290915281205460ff166118a1575f8381526020818152604080832073ffffffffffffffffffffffffffffffffffffffff86168452909152902080547fffffffffffffffffffffffffffffffffffffffffffffffffffffffffffffff0016600117905561183f3390565b73ffffffffffffffffffffffffffffffffffffffff168273ffffffffffffffffffffffffffffffffffffffff16847f2f8788117e7eff1d82e926ec794901d17c78024a50270940304540a733656f0d60405160405180910390a45060016103d8565b505f6103d8565b5f610bbf8373ffffffffffffffffffffffffffffffffffffffff8416611a2f565b5f8281526020818152604080832073ffffffffffffffffffffffffffffffffffffffff8516845290915281205460ff16156118a1575f8381526020818152604080832073ffffffffffffffffffffffffffffffffffffffff8616808552925280832080547fffffffffffffffffffffffffffffffffffffffffffffffffffffffffffffff0016905551339286917ff6391f5c32d9c69d2a47ea670b442974b53935d1edc7fd64eb21e047a839171b9190a45060016103d8565b5f610bbf8373ffffffffffffffffffffffffffffffffffffffff8416611a74565b5f825f0182815481106119b8576119b8611ea8565b905f5260205f200154905092915050565b6060815f01805480602002602001604051908101604052809291908181526020018280548015611a1657602002820191905f5260205f20905b815481526020019060010190808311611a02575b50505050509050919050565b611a2c8133611b57565b50565b5f8181526001830160205260408120546118a157508154600181810184555f8481526020808220909301849055845484825282860190935260409020919091556103d8565b5f8181526001830160205260408120548015611b4e575f611a96600183611ed5565b85549091505f90611aa990600190611ed5565b9050808214611b08575f865f018281548110611ac757611ac7611ea8565b905f5260205f200154905080875f018481548110611ae757611ae7611ea8565b5f918252602080832090910192909255918252600188019052604090208390555b8554869080611b1957611b19611f0d565b600190038181905f5260205f20015f90559055856001015f8681526020019081526020015f205f9055600193505050506103d8565b5f9150506103d8565b5f8281526020818152604080832073ffffffffffffffffffffffffffffffffffffffff8516845290915290205460ff16611bdc576040517fe2517d3f00000000000000000000000000000000000000000000000000000000815273ffffffffffffffffffffffffffffffffffffffff821660048201526024810183905260440161043a565b5050565b5f60208284031215611bf0575f5ffd5b81357fffffffff0000000000000000000000000000000000000000000000000000000081168114610bbf575f5ffd5b73ffffffffffffffffffffffffffffffffffffffff81168114611a2c575f5ffd5b5f5f60408385031215611c51575f5ffd5b823591506020830135611c6381611c1f565b809150509250929050565b5f60208284031215611c7e575f5ffd5b5035919050565b5f5f60408385031215611c96575f5ffd5b8235611ca181611c1f565b91506020830135611c6381611c1f565b5f60208284031215611cc1575f5ffd5b8135610bbf81611c1f565b5f5f60408385031215611cdd575f5ffd5b50508035926020909101359150565b602080825282518282018190525f918401906040840190835b81811015611d3957835173ffffffffffffffffffffffffffffffffffffffff16835260209384019390920191600101611d05565b509095945050505050565b5f5f5f60608486031215611d56575f5ffd5b833592506020840135611d6881611c1f565b929592945050506040919091013590565b5f5f60408385031215611d8a575f5ffd5b8235611d9581611c1f565b946020939093013593505050565b602081525f82518060208401528060208501604085015e5f6040828501015260407fffffffffffffffffffffffffffffffffffffffffffffffffffffffffffffffe0601f83011684010191505092915050565b5f60208284031215611e06575f5ffd5b81518015158114610bbf575f5ffd5b5f60208284031215611e25575f5ffd5b8151610bbf81611c1f565b5f81518060208401855e5f93019283525090919050565b5f611e5b611e558386611e30565b84611e30565b949350505050565b80516020808301519190811015611ea2577fffffffffffffffffffffffffffffffffffffffffffffffffffffffffffffffff8160200360031b1b821691505b50919050565b7f4e487b71000000000000000000000000000000000000000000000000000000005f52603260045260245ffd5b818103818111156103d8577f4e487b71000000000000000000000000000000000000000000000000000000005f52601160045260245ffd5b7f4e487b71000000000000000000000000000000000000000000000000000000005f52603160045260245ffdfe4e6f742050726f706f7365642043616c6c696e6720436f6e74726163742041646d696e4f6e6c792043616c6c696e6720436f6e74726163742043616e204372656174652041646d696e4f6e6c7952756c6573456e67696e6543616e43726561746541646d696e526f6c657343616c6c696e6720436f6e74726163742041646d696e20416c7265616479204772616e74656443616c6c696e6720436f6e74726163742041646d696e20526f6c65204e6f74204772616e7465642046726f6d2043616c6c696e6720436f6e7472616374a26469706673582212203d02aaea47892af57bdd3dc58a3b42c6b4685dc70c0a9fe9faaf5197484bfcc764736f6c634300081c0033","linkReferences":{}},"methodIdentifiers":{"DEFAULT_ADMIN_ROLE()":"a217fddf","confirmNewCallingContractAdmin(address)":"5f9a9c2b","confirmNewPolicyAdmin(uint256)":"c976afd6","generatePolicyAdminRole(uint256,address)":"1929cb64","getRoleAdmin(bytes32)":"248a9ca3","getRoleMember(bytes32,uint256)":"9010d07c","getRoleMemberCount(bytes32)":"ca15c873","getRoleMembers(bytes32)":"a3246ad3","grantCallingContractRole(address,address)":"804ba97d","grantCallingContractRoleAccessControl(address,address)":"261b0245","grantCallingContractRoleOwnable(address,address)":"2f16a358","grantRole(bytes32,address)":"2f2ff15d","hasRole(bytes32,address)":"91d14854","isCallingContractAdmin(address,address)":"70aca092","isPolicyAdmin(uint256,address)":"901cee11","proposeNewCallingContractAdmin(address,address)":"a8c014f4","proposeNewPolicyAdmin(address,uint256)":"d92f90fc","renounceRole(bytes32,address)":"36568abe","renounceRole(bytes32,address,uint256)":"b1348c89","revokeRole(bytes32,address)":"d547741f","revokeRole(bytes32,address,uint256)":"d27efca5","supportsInterface(bytes4)":"01ffc9a7"},"id":27}