{"abi":[{"type":"function","name":"applyPolicy","inputs":[{"name":"_contractAddress","type":"address","internalType":"address"},{"name":"_policyIds","type":"uint256[]","internalType":"uint256[]"}],"outputs":[],"stateMutability":"nonpayable"},{"type":"function","name":"cementPolicy","inputs":[{"name":"_policyId","type":"uint256","internalType":"uint256"}],"outputs":[],"stateMutability":"nonpayable"},{"type":"function","name":"closePolicy","inputs":[{"name":"_policyId","type":"uint256","internalType":"uint256"}],"outputs":[],"stateMutability":"nonpayable"},{"type":"function","name":"createPolicy","inputs":[{"name":"_callingFunctions","type":"tuple[]","internalType":"struct CallingFunctionStorageSet[]","components":[{"name":"set","type":"bool","internalType":"bool"},{"name":"signature","type":"bytes4","internalType":"bytes4"},{"name":"parameterTypes","type":"uint8[]","internalType":"enum PT[]"}]},{"name":"_rules","type":"tuple[]","internalType":"struct Rule[]","components":[{"name":"instructionSet","type":"uint256[]","internalType":"uint256[]"},{"name":"rawData","type":"tuple","internalType":"struct RawData","components":[{"name":"instructionSetIndex","type":"uint256[]","internalType":"uint256[]"},{"name":"argumentTypes","type":"uint8[]","internalType":"enum PT[]"},{"name":"dataValues","type":"bytes[]","internalType":"bytes[]"}]},{"name":"placeHolders","type":"tuple[]","internalType":"struct Placeholder[]","components":[{"name":"pType","type":"uint8","internalType":"enum PT"},{"name":"typeSpecificIndex","type":"uint128","internalType":"uint128"},{"name":"trackerValue","type":"bool","internalType":"bool"},{"name":"foreignCall","type":"bool","internalType":"bool"}]},{"name":"effectPlaceHolders","type":"tuple[]","internalType":"struct Placeholder[]","components":[{"name":"pType","type":"uint8","internalType":"enum PT"},{"name":"typeSpecificIndex","type":"uint128","internalType":"uint128"},{"name":"trackerValue","type":"bool","internalType":"bool"},{"name":"foreignCall","type":"bool","internalType":"bool"}]},{"name":"posEffects","type":"tuple[]","internalType":"struct Effect[]","components":[{"name":"valid","type":"bool","internalType":"bool"},{"name":"dynamicParam","type":"bool","internalType":"bool"},{"name":"effectType","type":"uint8","internalType":"enum ET"},{"name":"pType","type":"uint8","internalType":"enum PT"},{"name":"param","type":"bytes","internalType":"bytes"},{"name":"text","type":"bytes32","internalType":"bytes32"},{"name":"errorMessage","type":"string","internalType":"string"},{"name":"instructionSet","type":"uint256[]","internalType":"uint256[]"}]},{"name":"negEffects","type":"tuple[]","internalType":"struct Effect[]","components":[{"name":"valid","type":"bool","internalType":"bool"},{"name":"dynamicParam","type":"bool","internalType":"bool"},{"name":"effectType","type":"uint8","internalType":"enum ET"},{"name":"pType","type":"uint8","internalType":"enum PT"},{"name":"param","type":"bytes","internalType":"bytes"},{"name":"text","type":"bytes32","internalType":"bytes32"},{"name":"errorMessage","type":"string","internalType":"string"},{"name":"instructionSet","type":"uint256[]","internalType":"uint256[]"}]}]},{"name":"_policyType","type":"uint8","internalType":"enum PolicyType"}],"outputs":[{"name":"","type":"uint256","internalType":"uint256"}],"stateMutability":"nonpayable"},{"type":"function","name":"deletePolicy","inputs":[{"name":"_policyId","type":"uint256","internalType":"uint256"}],"outputs":[],"stateMutability":"nonpayable"},{"type":"function","name":"getAppliedPolicyIds","inputs":[{"name":"_contractAddress","type":"address","internalType":"address"}],"outputs":[{"name":"","type":"uint256[]","internalType":"uint256[]"}],"stateMutability":"view"},{"type":"function","name":"getPolicy","inputs":[{"name":"_policyId","type":"uint256","internalType":"uint256"}],"outputs":[{"name":"callingFunctions","type":"bytes4[]","internalType":"bytes4[]"},{"name":"callingFunctionIds","type":"uint256[]","internalType":"uint256[]"},{"name":"ruleIds","type":"uint256[][]","internalType":"uint256[][]"}],"stateMutability":"view"},{"type":"function","name":"isClosedPolicy","inputs":[{"name":"_policyId","type":"uint256","internalType":"uint256"}],"outputs":[{"name":"","type":"bool","internalType":"bool"}],"stateMutability":"view"},{"type":"function","name":"openPolicy","inputs":[{"name":"_policyId","type":"uint256","internalType":"uint256"}],"outputs":[],"stateMutability":"nonpayable"},{"type":"function","name":"updatePolicy","inputs":[{"name":"_policyId","type":"uint256","internalType":"uint256"},{"name":"_callingFunctions","type":"bytes4[]","internalType":"bytes4[]"},{"name":"_callingFunctionIds","type":"uint256[]","internalType":"uint256[]"},{"name":"_ruleIds","type":"uint256[][]","internalType":"uint256[][]"},{"name":"_policyType","type":"uint8","internalType":"enum PolicyType"}],"outputs":[{"name":"","type":"uint256","internalType":"uint256"}],"stateMutability":"nonpayable"},{"type":"event","name":"ForeignCallDeleted","inputs":[{"name":"policyId","type":"uint256","indexed":true,"internalType":"uint256"},{"name":"foreignCallId","type":"uint256","indexed":true,"internalType":"uint256"}],"anonymous":false},{"type":"event","name":"PolicyApplied","inputs":[{"name":"policyIds","type":"uint256[]","indexed":false,"internalType":"uint256[]"},{"name":"callingContract","type":"address","indexed":true,"internalType":"address"}],"anonymous":false},{"type":"event","name":"PolicyCemented","inputs":[{"name":"policyId","type":"uint256","indexed":true,"internalType":"uint256"}],"anonymous":false},{"type":"event","name":"PolicyClosed","inputs":[{"name":"policyId","type":"uint256","indexed":true,"internalType":"uint256"}],"anonymous":false},{"type":"event","name":"PolicyCreated","inputs":[{"name":"policyId","type":"uint256","indexed":true,"internalType":"uint256"}],"anonymous":false},{"type":"event","name":"PolicyDeleted","inputs":[{"name":"policyId","type":"uint256","indexed":true,"internalType":"uint256"}],"anonymous":false},{"type":"event","name":"PolicyOpened","inputs":[{"name":"policyId","type":"uint256","indexed":true,"internalType":"uint256"}],"anonymous":false},{"type":"event","name":"PolicyUpdated","inputs":[{"name":"policyId","type":"uint256","indexed":true,"internalType":"uint256"}],"anonymous":false},{"type":"event","name":"TrackerDeleted","inputs":[{"name":"policyId","type":"uint256","indexed":true,"internalType":"uint256"},{"name":"trackerId","type":"uint256","indexed":true,"internalType":"uint256"}],"anonymous":false}],"bytecode":{"object":"0x6080604052348015600e575f5ffd5b5061357e8061001c5f395ff3fe608060405234801561000f575f5ffd5b50600436106100b9575f3560e01c8063798d6c7b11610072578063d46a37c411610058578063d46a37c414610176578063e374902314610189578063fed27c8f146101a9575f5ffd5b8063798d6c7b146101505780639228303f14610163575f5ffd5b80632b0e4440116100a25780632b0e4440146101055780632fd205bd1461011a5780634f10689b1461012d575f5ffd5b80631ff76a7b146100bd5780632b07fce3146100e3575b5f5ffd5b6100d06100cb366004612e81565b6101bc565b6040519081526020015b60405180910390f35b6100f66100f1366004612f01565b6102e3565b6040516100da93929190612f52565b610118610113366004612f01565b6107a3565b005b6100d0610128366004613046565b610933565b61014061013b366004612f01565b610af9565b60405190151581526020016100da565b61011861015e366004612f01565b610b31565b610118610171366004613121565b610c46565b610118610184366004612f01565b61117c565b61019c610197366004613170565b6112cd565b6040516100da9190613190565b6101186101b7366004612f01565b61134c565b5f5f6101c66119d2565b805460019081018083555f8181528284016020526040902080547fffffffffffffffffffffffffffffffffffffffffffffffffffffffffffffff00908116841782556004909101805494955091938793911690838181111561022a5761022a6131a2565b02179055506040517f1929cb64000000000000000000000000000000000000000000000000000000008152600481018290523360248201523090631929cb64906044016020604051808303815f875af1158015610289573d5f5f3e3d5ffd5b505050506040513d601f19601f820116820180604052508101906102ad91906131cf565b5060405181907fde5ef345cecbaaffdfbe2454b7947aa14037bac2f45e4fc98976f8bffea38623905f90a2979650505050505050565b60608060605f6102f16119d2565b5f868152600191820160205260409020600381015491019150156103f757600281015467ffffffffffffffff81111561032c5761032c6131e6565b604051908082528060200260200182016040528015610355578160200160208202803683370190505b50600282015490945067ffffffffffffffff811115610376576103766131e6565b60405190808252806020026020018201604052801561039f578160200160208202803683370190505b50600282015490935067ffffffffffffffff8111156103c0576103c06131e6565b6040519080825280602002602001820160405280156103f357816020015b60608152602001906001900390816103de5790505b5091505b600281015467ffffffffffffffff811115610414576104146131e6565b60405190808252806020026020018201604052801561044757816020015b60608152602001906001900390816104325790505b5091505f5b600282015481101561079a5781600201818154811061046d5761046d613213565b905f5260205f2090600891828204019190066004029054906101000a900460e01b8582815181106104a0576104a0613213565b7fffffffff000000000000000000000000000000000000000000000000000000009092166020928302919091019091015260028201805483915f91849081106104eb576104eb613213565b905f5260205f2090600891828204019190066004029054906101000a900460e01b7bffffffffffffffffffffffffffffffffffffffffffffffffffffffff19167bffffffffffffffffffffffffffffffffffffffffffffffffffffffff191681526020019081526020015f205484828151811061056a5761056a613213565b60209081029190910101525f5b826001015f84600201848154811061059157610591613213565b5f918252602080832060088304015460079092166004026101000a90910460e01b7fffffffff0000000000000000000000000000000000000000000000000000000016835282019290925260400190205481101561079157826001015f84600201848154811061060357610603613213565b5f918252602080832060088304015460079092166004026101000a90910460e01b7fffffffff0000000000000000000000000000000000000000000000000000000016835282019290925260400190205467ffffffffffffffff81111561066c5761066c6131e6565b604051908082528060200260200182016040528015610695578160200160208202803683370190505b508483815181106106a8576106a8613213565b6020026020010181905250826001015f8460020184815481106106cd576106cd613213565b905f5260205f2090600891828204019190066004029054906101000a900460e01b7bffffffffffffffffffffffffffffffffffffffffffffffffffffffff19167bffffffffffffffffffffffffffffffffffffffffffffffffffffffff191681526020019081526020015f20818154811061074a5761074a613213565b905f5260205f20015484838151811061076557610765613213565b6020026020010151828151811061077e5761077e613213565b6020908102919091010152600101610577565b5060010161044c565b50509193909250565b60405160248101829052336044820181905282915f908190610860907f901cee1100000000000000000000000000000000000000000000000000000000906064015b604080517fffffffffffffffffffffffffffffffffffffffffffffffffffffffffffffffe08184030181529190526020810180517bffffffffffffffffffffffffffffffffffffffffffffffffffffffff167f901cee1100000000000000000000000000000000000000000000000000000000179052611a05565b915091505f82156108ee57600482511061087f57506020810151610882565b505f5b806108ee576040517f08c379a000000000000000000000000000000000000000000000000000000000815260206004820152601860248201527f4e6f7420417574686f72697a656420546f20506f6c696379000000000000000060448201526064015b60405180910390fd5b6108f786611ac6565b610901865f611b55565b60405186907f524fcc256039a8ee7fd3d614ec713bd4a9159d02d7261ae80028fc15b45c4848905f90a2505050505050565b5f88335f5f61097563901cee1160e01b85856040516024016107e592919091825273ffffffffffffffffffffffffffffffffffffffff16602082015260400190565b915091505f82156109fe57600482511061099457506020810151610997565b505f5b806109fe576040517f08c379a000000000000000000000000000000000000000000000000000000000815260206004820152601860248201527f4e6f7420417574686f72697a656420546f20506f6c696379000000000000000060448201526064016108e5565b610a078e611ac6565b8b8a14610a5a576040518060600160405280602e81526020016134e2602e91396040517f08c379a00000000000000000000000000000000000000000000000000000000081526004016108e59190613240565b8d5f03610aad57604051806060016040528060348152602001613465603491396040517f08c379a00000000000000000000000000000000000000000000000000000000081526004016108e59190613240565b6040518e907f912ce63c438aca9d2f50d1d12de5b42efbcc84ce223b08122e8c2e3c000ca1f8905f90a2610ae78e8e8e8e8e8e8e8e611c77565b9e9d5050505050505050505050505050565b5f80610b036119d2565b5f8481526001918201602052604090206004015460ff1690811115610b2a57610b2a6131a2565b1492915050565b60405160248101829052336044820181905282915f908190610b77907f901cee1100000000000000000000000000000000000000000000000000000000906064016107e5565b915091505f8215610c00576004825110610b9657506020810151610b99565b505f5b80610c00576040517f08c379a000000000000000000000000000000000000000000000000000000000815260206004820152601860248201527f4e6f7420417574686f72697a656420546f20506f6c696379000000000000000060448201526064016108e5565b610c0986611ac6565b610c14866001611b55565b60405186907fe9a53e8109d105e8132e423c8a8489a6c054acbfff3373248be4938a857143d9905f90a2505050505050565b60405173ffffffffffffffffffffffffffffffffffffffff84166024820152336044820181905284915f908190610d17907f70aca0920000000000000000000000000000000000000000000000000000000090606401604080517fffffffffffffffffffffffffffffffffffffffffffffffffffffffffffffffe08184030181529190526020810180517bffffffffffffffffffffffffffffffffffffffffffffffffffffffff167f70aca09200000000000000000000000000000000000000000000000000000000179052611a05565b915091505f8215610da0576004825110610d3657506020810151610d39565b505f5b80610da0576040517f08c379a000000000000000000000000000000000000000000000000000000000815260206004820152601460248201527f4e6f7420417574686f72697a65642041646d696e00000000000000000000000060448201526064016108e5565b73ffffffffffffffffffffffffffffffffffffffff8816610e2057604080518082018252601c81527f5a65726f20416464726573732043616e6e6f742042652041646d696e00000000602082015290517f08c379a00000000000000000000000000000000000000000000000000000000081526108e59190600401613240565b5f610e29612bed565b90505f5b87811015610f9d575f610e3e6119d2565b6001015f8b8b85818110610e5457610e54613213565b9050602002013581526020019081526020015f209050805f015f9054906101000a900460ff166040518060400160405280601581526020017f506f6c69637920646f6573206e6f74206578697374000000000000000000000081525090610ee8576040517f08c379a00000000000000000000000000000000000000000000000000000000081526004016108e59190613240565b50610f0a8a8a84818110610efe57610efe613213565b90506020020135611ac6565b5f600482015460ff166001811115610f2457610f246131a2565b03610f9457335f90815260058201602090815260409182902054825160608101909352603980845260ff90911692916135109083013990610f92576040517f08c379a00000000000000000000000000000000000000000000000000000000081526004016108e59190613240565b505b50600101610e2d565b508667ffffffffffffffff811115610fb757610fb76131e6565b604051908082528060200260200182016040528015610fe0578160200160208202803683370190505b5073ffffffffffffffffffffffffffffffffffffffff8a165f9081526020838152604090912082516110189391929190910190612d37565b505f5b878110156111205788888281811061103557611035613213565b90506020020135825f015f8c73ffffffffffffffffffffffffffffffffffffffff1673ffffffffffffffffffffffffffffffffffffffff1681526020019081526020015f20828154811061108b5761108b613213565b905f5260205f200181905550816001015f8a8a848181106110ae576110ae613213565b60209081029290920135835250818101929092526040015f9081208054600180820183559183529290912090910180547fffffffffffffffffffffffff00000000000000000000000000000000000000001673ffffffffffffffffffffffffffffffffffffffff8d161790550161101b565b508873ffffffffffffffffffffffffffffffffffffffff167f12152a04e6faa55f635c036c0cb901dff565d19cd5703f5076adda8206cdb7c68989604051611169929190613293565b60405180910390a2505050505050505050565b60405160248101829052336044820181905282915f9081906111c2907f901cee1100000000000000000000000000000000000000000000000000000000906064016107e5565b915091505f821561124b5760048251106111e1575060208101516111e4565b505f5b8061124b576040517f08c379a000000000000000000000000000000000000000000000000000000000815260206004820152601860248201527f4e6f7420417574686f72697a656420546f20506f6c696379000000000000000060448201526064016108e5565b60016112556119d2565b5f88815260019190910160205260408082206004018054931515610100027fffffffffffffffffffffffffffffffffffffffffffffffffffffffffffff00ff90941693909317909255905187917fbaf00585ebbdf781652a166975bf4579319799593ec61cfadd690ea9833c3fc891a2505050505050565b60606112d7612bed565b73ffffffffffffffffffffffffffffffffffffffff83165f90815260209182526040908190208054825181850281018501909352808352919290919083018282801561134057602002820191905f5260205f20905b81548152602001906001019080831161132c575b50505050509050919050565b60405160248101829052336044820181905282915f908190611392907f901cee1100000000000000000000000000000000000000000000000000000000906064016107e5565b915091505f821561141b5760048251106113b1575060208101516113b4565b505f5b8061141b576040517f08c379a000000000000000000000000000000000000000000000000000000000815260206004820152601860248201527f4e6f7420417574686f72697a656420546f20506f6c696379000000000000000060448201526064016108e5565b61142486611ac6565b5f61142d6119d2565b5f88815260019182016020908152604080832080547fffffffffffffffffffffffffffffffffffffffffffffffffffffffffffffff001681556003810180548351818602810186019094528084529196509486019491928301828280156114f257602002820191905f5260205f20905f905b82829054906101000a900460e01b7bffffffffffffffffffffffffffffffffffffffffffffffffffffffff19168152602001906004019060208260030104928301926001038202915080841161149f5790505b509394505f93505050505b815181101561169c575f836001015f84848151811061151e5761151e613213565b60200260200101517bffffffffffffffffffffffffffffffffffffffffffffffffffffffff19167bffffffffffffffffffffffffffffffffffffffffffffffffffffffff191681526020019081526020015f208054806020026020016040519081016040528092919081815260200182805480156115b957602002820191905f5260205f20905b8154815260200190600101908083116115a5575b509394505f93505050505b81518110156116925761168863a31c8ebb60e01b8d8484815181106115eb576115eb613213565b602002602001015160405160240161160d929190918252602082015260400190565b604080517fffffffffffffffffffffffffffffffffffffffffffffffffffffffffffffffe08184030181529190526020810180517bffffffffffffffffffffffffffffffffffffffffffffffffffffffff167fa31c8ebb00000000000000000000000000000000000000000000000000000000179052611a05565b50506001016115c4565b50506001016114fd565b505f6116a6612c1a565b5f8b8152602091909152604081205491505b818111611796576116c7612c1a565b5f8c81526001919091016020908152604080832084845290915290205460ff1615611784576116f4612c1a565b5f8c8152600191820160209081526040808320858452909152812080547fffffffffffff00000000000000000000000000000000000000000000000000001681559182018190556117486002830182612d80565b611755600383015f612d80565b505060405181908c907f19d0bd0cc4d63f9108c93b0abfd7408498ecbc73713f6bb3a2862d9b9d1983d8905f90a35b8061178e81613310565b9150506116b8565b505f6117a0612c47565b5f8c81526020829052604090205490915060015b81811161187d575f8d8152600184016020908152604080832084845290915290205460ff161561186b576117e6612c47565b5f8e8152600191820160209081526040808320858452909152812080547fffffffffffffffffffffffffffffffffffffffffffffffffffffffffffff00001681559161183490830182612da2565b600282015f90555050808d7ed9d817df2d853a886f2cbe7a671a676890264711abbb9d2c3ee79fb1bb653a60405160405180910390a35b8061187581613310565b9150506117b4565b505f5b60038701548110156119995760038701805460018901915f91849081106118a9576118a9613213565b905f5260205f2090600891828204019190066004029054906101000a900460e01b7bffffffffffffffffffffffffffffffffffffffffffffffffffffffff19167bffffffffffffffffffffffffffffffffffffffffffffffffffffffff191681526020019081526020015f205f9055866001016001015f88600101600201838154811061193857611938613213565b5f918252602080832060088304015460079092166004026101000a90910460e01b7fffffffff00000000000000000000000000000000000000000000000000000000168352820192909252604001812061199191612dd9565b600101611880565b506040518c907f433ab09ab993382af577c4a70f77dcc7cf149b5b52eb40d19b869664bfb5496d905f90a2505050505050505050505050565b5f806119ff60017ff9dbd639dd2ea165d77dd4c51dec420100d51ceacf023b1c40faa045ba8f9a65613347565b92915050565b5f60605f611a11612c74565b7fffffffff0000000000000000000000000000000000000000000000000000000086165f908152602082905260409081902054905191925073ffffffffffffffffffffffffffffffffffffffff16908190611a6d90879061335a565b5f60405180830381855af49150503d805f8114611aa5576040519150601f19603f3d011682016040523d82523d5f602084013e611aaa565b606091505b50909450925083611abd57825160208401fd5b50509250929050565b611ace6119d2565b5f8281526001919091016020526040902060040154610100900460ff1615611b52576040517f08c379a000000000000000000000000000000000000000000000000000000000815260206004820152601f60248201527f4e6f7420616c6c6f77656420666f722063656d656e74656420706f6c6963790060448201526064016108e5565b50565b5f611b5e6119d2565b5f8481526001918201602052604081209091019150826001811115611b8557611b856131a2565b03611c2f575f611b93612bed565b90505f5b5f858152600183016020526040902054811015611c14575f858152600183016020526040812080548492919084908110611bd357611bd3613213565b5f91825260208083209091015473ffffffffffffffffffffffffffffffffffffffff1683528201929092526040018120611c0c91612dd9565b600101611b97565b505f8481526001820160205260408120611c2d91612dd9565b505b6003810180548391907fffffffffffffffffffffffffffffffffffffffffffffffffffffffffffffff001660018381811115611c6d57611c6d6131a2565b0217905550505050565b5f5f611c816119d2565b5f8b8152600191820160205260409020019050611c9e8a84611b55565b611cab600282015f612df4565b8315612a6e575f5b88811015612a6857611cdd8b898984818110611cd157611cd1613213565b90506020020135612ca1565b611d4657604080518082018252601181527f496e76616c6964205369676e6174757265000000000000000000000000000000602082015290517f08c379a00000000000000000000000000000000000000000000000000000000081526108e59190600401613240565b878782818110611d5857611d58613213565b90506020020135825f015f8c8c85818110611d7557611d75613213565b9050602002016020810190611d8a9190613370565b7fffffffff0000000000000000000000000000000000000000000000000000000016815260208101919091526040015f2055600282018a8a83818110611dd257611dd2613213565b9050602002016020810190611de79190613370565b81546001810183555f928352602083206008820401805463ffffffff60079093166004026101000a928302191660e09390931c919091029190911790555b868683818110611e3757611e37613213565b9050602002810190611e4991906133af565b9050811015612a5f575f611e5b612ccb565b5f8e81526001919091016020526040812090898986818110611e7f57611e7f613213565b9050602002810190611e9191906133af565b85818110611ea157611ea1613213565b602090810292909201358352508181019290925260409081015f2081518083018352815460ff1615158152825160018301805460e08188028401810190965260c083018181529396949594870194929391928492918491840182828015611f2557602002820191905f5260205f20905b815481526020019060010190808311611f11575b50505050508152602001600182016040518060600160405290815f8201805480602002602001604051908101604052809291908181526020018280548015611f8a57602002820191905f5260205f20905b815481526020019060010190808311611f76575b505050505081526020016001820180548060200260200160405190810160405280929190818152602001828054801561200f57602002820191905f5260205f20905f905b82829054906101000a900460ff166007811115611fed57611fed6131a2565b815260206001928301818104948501949093039092029101808411611fce5790505b5050505050815260200160028201805480602002602001604051908101604052809291908181526020015f905b828210156120e4578382905f5260205f2001805461205990613413565b80601f016020809104026020016040519081016040528092919081815260200182805461208590613413565b80156120d05780601f106120a7576101008083540402835291602001916120d0565b820191905f5260205f20905b8154815290600101906020018083116120b357829003601f168201915b50505050508152602001906001019061203c565b5050505081525050815260200160048201805480602002602001604051908101604052809291908181526020015f905b828210156121d4575f8481526020902060408051608081019091529083018054829060ff16600781111561214a5761214a6131a2565b600781111561215b5761215b6131a2565b815290546fffffffffffffffffffffffffffffffff61010082041660208084019190915260ff710100000000000000000000000000000000008304811615156040850152720100000000000000000000000000000000000090920490911615156060909201919091529082526001929092019101612114565b50505050815260200160058201805480602002602001604051908101604052809291908181526020015f905b828210156122c0575f8481526020902060408051608081019091529083018054829060ff166007811115612236576122366131a2565b6007811115612247576122476131a2565b815290546fffffffffffffffffffffffffffffffff61010082041660208084019190915260ff710100000000000000000000000000000000008304811615156040850152720100000000000000000000000000000000000090920490911615156060909201919091529082526001929092019101612200565b50505050815260200160068201805480602002602001604051908101604052809291908181526020015f905b82821015612525575f84815260209081902060408051610100808201835260058702909301805460ff80821615158452948104851615159583019590955290939092918401916201000090910416600281111561234b5761234b6131a2565b600281111561235c5761235c6131a2565b815281546020909101906301000000900460ff166007811115612381576123816131a2565b6007811115612392576123926131a2565b81526020016001820180546123a690613413565b80601f01602080910402602001604051908101604052809291908181526020018280546123d290613413565b801561241d5780601f106123f45761010080835404028352916020019161241d565b820191905f5260205f20905b81548152906001019060200180831161240057829003601f168201915b505050505081526020016002820154815260200160038201805461244090613413565b80601f016020809104026020016040519081016040528092919081815260200182805461246c90613413565b80156124b75780601f1061248e576101008083540402835291602001916124b7565b820191905f5260205f20905b81548152906001019060200180831161249a57829003601f168201915b505050505081526020016004820180548060200260200160405190810160405280929190818152602001828054801561250d57602002820191905f5260205f20905b8154815260200190600101908083116124f9575b505050505081525050815260200190600101906122ec565b50505050815260200160078201805480602002602001604051908101604052809291908181526020015f905b8282101561278a575f84815260209081902060408051610100808201835260058702909301805460ff8082161515845294810485161515958301959095529093909291840191620100009091041660028111156125b0576125b06131a2565b60028111156125c1576125c16131a2565b815281546020909101906301000000900460ff1660078111156125e6576125e66131a2565b60078111156125f7576125f76131a2565b815260200160018201805461260b90613413565b80601f016020809104026020016040519081016040528092919081815260200182805461263790613413565b80156126825780601f1061265957610100808354040283529160200191612682565b820191905f5260205f20905b81548152906001019060200180831161266557829003601f168201915b50505050508152602001600282015481526020016003820180546126a590613413565b80601f01602080910402602001604051908101604052809291908181526020018280546126d190613413565b801561271c5780601f106126f35761010080835404028352916020019161271c565b820191905f5260205f20905b8154815290600101906020018083116126ff57829003601f168201915b505050505081526020016004820180548060200260200160405190810160405280929190818152602001828054801561277257602002820191905f5260205f20905b81548152602001906001019080831161275e575b50505050508152505081526020019060010190612551565b50505091525050905250805190915061280257604080518082018252600c81527f496e76616c69642052756c650000000000000000000000000000000000000000602082015290517f08c379a00000000000000000000000000000000000000000000000000000000081526108e59190600401613240565b5f5b8160200151604001515181101561299f57816020015160400151818151811061282f5761282f613213565b602002602001015160600151156128d8576128818e836020015160400151838151811061285e5761285e613213565b6020026020010151602001516fffffffffffffffffffffffffffffffff16612cf8565b6040518060600160405280602781526020016134bb60279139906128d2576040517f08c379a00000000000000000000000000000000000000000000000000000000081526004016108e59190613240565b50612997565b81602001516040015181815181106128f2576128f2613213565b60200260200101516040015115612997576129448e836020015160400151838151811061292157612921613213565b6020026020010151602001516fffffffffffffffffffffffffffffffff16612d01565b6040518060600160405280602281526020016134996022913990612995576040517f08c379a00000000000000000000000000000000000000000000000000000000081526004016108e59190613240565b505b600101612804565b50836001015f8d8d868181106129b7576129b7613213565b90506020020160208101906129cc9190613370565b7fffffffff0000000000000000000000000000000000000000000000000000000016815260208101919091526040015f20888885818110612a0f57612a0f613213565b9050602002810190612a2191906133af565b84818110612a3157612a31613213565b8354600180820186555f95865260209586902092909502939093013592019190915550919091019050611e25565b50600101611cb3565b50612bdf565b5f5b88811015612bdd57612a8e8b898984818110611cd157611cd1613213565b612af757604080518082018252601181527f496e76616c6964205369676e6174757265000000000000000000000000000000602082015290517f08c379a00000000000000000000000000000000000000000000000000000000081526108e59190600401613240565b878782818110612b0957612b09613213565b90506020020135825f015f8c8c85818110612b2657612b26613213565b9050602002016020810190612b3b9190613370565b7fffffffff0000000000000000000000000000000000000000000000000000000016815260208101919091526040015f2055600282018a8a83818110612b8357612b83613213565b9050602002016020810190612b989190613370565b8154600180820184555f93845260209093206008820401805463ffffffff60079093166004026101000a928302191660e09390931c9190910291909117905501612a70565b505b509798975050505050505050565b5f806119ff60017f1544053a94493269e0aa160e5aa5b54d19ee6492c78b8bd3af283b912c78cdeb613347565b5f806119ff60017f1f3305601ed940efccf797d76856e5fe70659a8a6905d64c9f236321df91e718613347565b5f806119ff60017f438102ff677bc3f21830c58117a05d6b953b31e3ea339da3f17957cd3941a690613347565b5f806119ff60017fbe498a3b14fd79a48c3c9af86ff14271ed497d09071013334028d28e7791db20613347565b5f612caa612d0a565b5f938452600101602090815260408085209385529290525090205460ff1690565b5f806119ff60017f5c91f63a4ffcbd372b8ec622fd1fcaaa601b66330afdb30e5c292dd9123f20b0613347565b5f612caa612c1a565b5f612caa612c47565b5f806119ff60017fdc82e9666de28bef254c770aa394fdb200d98373b70390c27adec32819f8f266613347565b828054828255905f5260205f20908101928215612d70579160200282015b82811115612d70578251825591602001919060010190612d55565b50612d7c929150612e12565b5090565b5080545f8255601f0160209004905f5260205f2090810190611b529190612e12565b508054612dae90613413565b5f825580601f10612dbd575050565b601f0160209004905f5260205f2090810190611b529190612e12565b5080545f8255905f5260205f2090810190611b529190612e12565b5080545f825560070160089004905f5260205f2090810190611b5291905b5b80821115612d7c575f8155600101612e13565b5f5f83601f840112612e36575f5ffd5b50813567ffffffffffffffff811115612e4d575f5ffd5b6020830191508360208260051b8501011115612e67575f5ffd5b9250929050565b803560028110612e7c575f5ffd5b919050565b5f5f5f5f5f60608688031215612e95575f5ffd5b853567ffffffffffffffff811115612eab575f5ffd5b612eb788828901612e26565b909650945050602086013567ffffffffffffffff811115612ed6575f5ffd5b612ee288828901612e26565b9094509250612ef5905060408701612e6e565b90509295509295909350565b5f60208284031215612f11575f5ffd5b5035919050565b5f8151808452602084019350602083015f5b82811015612f48578151865260209586019590910190600101612f2a565b5093949350505050565b606080825284519082018190525f9060208601906080840190835b81811015612fad5783517fffffffff0000000000000000000000000000000000000000000000000000000016835260209384019390920191600101612f6d565b50508381036020850152612fc18187612f18565b915050828103604084015280845180835260208301915060208160051b840101602087015f5b83811015613037577fffffffffffffffffffffffffffffffffffffffffffffffffffffffffffffffe0868403018552613021838351612f18565b6020958601959093509190910190600101612fe7565b50909998505050505050505050565b5f5f5f5f5f5f5f5f60a0898b03121561305d575f5ffd5b88359750602089013567ffffffffffffffff81111561307a575f5ffd5b6130868b828c01612e26565b909850965050604089013567ffffffffffffffff8111156130a5575f5ffd5b6130b18b828c01612e26565b909650945050606089013567ffffffffffffffff8111156130d0575f5ffd5b6130dc8b828c01612e26565b90945092506130ef905060808a01612e6e565b90509295985092959890939650565b803573ffffffffffffffffffffffffffffffffffffffff81168114612e7c575f5ffd5b5f5f5f60408486031215613133575f5ffd5b61313c846130fe565b9250602084013567ffffffffffffffff811115613157575f5ffd5b61316386828701612e26565b9497909650939450505050565b5f60208284031215613180575f5ffd5b613189826130fe565b9392505050565b602081525f6131896020830184612f18565b7f4e487b71000000000000000000000000000000000000000000000000000000005f52602160045260245ffd5b5f602082840312156131df575f5ffd5b5051919050565b7f4e487b71000000000000000000000000000000000000000000000000000000005f52604160045260245ffd5b7f4e487b71000000000000000000000000000000000000000000000000000000005f52603260045260245ffd5b602081525f82518060208401528060208501604085015e5f6040828501015260407fffffffffffffffffffffffffffffffffffffffffffffffffffffffffffffffe0601f83011684010191505092915050565b602081528160208201525f7f07ffffffffffffffffffffffffffffffffffffffffffffffffffffffffffffff8311156132ca575f5ffd5b8260051b80856040850137919091016040019392505050565b7f4e487b71000000000000000000000000000000000000000000000000000000005f52601160045260245ffd5b5f7fffffffffffffffffffffffffffffffffffffffffffffffffffffffffffffffff8203613340576133406132e3565b5060010190565b818103818111156119ff576119ff6132e3565b5f82518060208501845e5f920191825250919050565b5f60208284031215613380575f5ffd5b81357fffffffff0000000000000000000000000000000000000000000000000000000081168114613189575f5ffd5b5f5f83357fffffffffffffffffffffffffffffffffffffffffffffffffffffffffffffffe18436030181126133e2575f5ffd5b83018035915067ffffffffffffffff8211156133fc575f5ffd5b6020019150600581901b3603821315612e67575f5ffd5b600181811c9082168061342757607f821691505b60208210810361345e577f4e487b71000000000000000000000000000000000000000000000000000000005f52602260045260245ffd5b5091905056fe506f6c6963792049442063616e6e6f7420626520302e2043726561746520706f6c696379206265666f7265207570646174696e67547261636b6572207265666572656e63656420696e2072756c65206e6f7420736574466f726569676e2043616c6c207265666572656e63656420696e2072756c65206e6f74207365745369676e61747572657320616e64207369676e617475726520696427732061726520696e636f6e73697374656e744f6e6c7920766572696669656420706f6c69637920737562736372696265722063616e206170706c7920636c6f73656420706f6c6963696573a26469706673582212203373c217adf7cfebf6696953baef74818cb4acb3529b455f74b11f5e1e6e0b3a64736f6c634300081c0033","linkReferences":{}},"methodIdentifiers":{"applyPolicy(address,uint256[])":"9228303f","cementPolicy(uint256)":"d46a37c4","closePolicy(uint256)":"2b0e4440","createPolicy((bool,bytes4,uint8[])[],(uint256[],(uint256[],uint8[],bytes[]),(uint8,uint128,bool,bool)[],(uint8,uint128,bool,bool)[],(bool,bool,uint8,uint8,bytes,bytes32,string,uint256[])[],(bool,bool,uint8,uint8,bytes,bytes32,string,uint256[])[])[],uint8)":"1ff76a7b","deletePolicy(uint256)":"fed27c8f","getAppliedPolicyIds(address)":"e3749023","getPolicy(uint256)":"2b07fce3","isClosedPolicy(uint256)":"4f10689b","openPolicy(uint256)":"798d6c7b","updatePolicy(uint256,bytes4[],uint256[],uint256[][],uint8)":"2fd205bd"},"id":85}