{"abi":[{"type":"function","name":"applyPolicy","inputs":[{"name":"_contractAddress","type":"address","internalType":"address"},{"name":"_policyId","type":"uint256[]","internalType":"uint256[]"}],"outputs":[],"stateMutability":"nonpayable"},{"type":"function","name":"createForeignCall","inputs":[{"name":"_policyId","type":"uint256","internalType":"uint256"},{"name":"_foreignCall","type":"tuple","internalType":"struct ForeignCall","components":[{"name":"set","type":"bool","internalType":"bool"},{"name":"foreignCallAddress","type":"address","internalType":"address"},{"name":"signature","type":"bytes4","internalType":"bytes4"},{"name":"returnType","type":"uint8","internalType":"enum PT"},{"name":"foreignCallIndex","type":"uint256","internalType":"uint256"},{"name":"parameterTypes","type":"uint8[]","internalType":"enum PT[]"},{"name":"typeSpecificIndices","type":"uint8[]","internalType":"uint8[]"}]}],"outputs":[{"name":"","type":"uint256","internalType":"uint256"}],"stateMutability":"nonpayable"},{"type":"function","name":"createFunctionSignature","inputs":[{"name":"_policyId","type":"uint256","internalType":"uint256"},{"name":"_functionSignature","type":"bytes4","internalType":"bytes4"},{"name":"_pTypes","type":"uint8[]","internalType":"enum PT[]"}],"outputs":[{"name":"","type":"uint256","internalType":"uint256"}],"stateMutability":"nonpayable"},{"type":"function","name":"createPolicy","inputs":[{"name":"_functionSignatures","type":"tuple[]","internalType":"struct FunctionSignatureStorageSet[]","components":[{"name":"set","type":"bool","internalType":"bool"},{"name":"signature","type":"bytes4","internalType":"bytes4"},{"name":"parameterTypes","type":"uint8[]","internalType":"enum PT[]"}]},{"name":"_rules","type":"tuple[]","internalType":"struct Rule[]","components":[{"name":"instructionSet","type":"uint256[]","internalType":"uint256[]"},{"name":"rawData","type":"tuple","internalType":"struct RawData","components":[{"name":"instructionSetIndex","type":"uint256[]","internalType":"uint256[]"},{"name":"argumentTypes","type":"uint8[]","internalType":"enum PT[]"},{"name":"dataValues","type":"bytes[]","internalType":"bytes[]"}]},{"name":"placeHolders","type":"tuple[]","internalType":"struct Placeholder[]","components":[{"name":"pType","type":"uint8","internalType":"enum PT"},{"name":"typeSpecificIndex","type":"uint128","internalType":"uint128"},{"name":"trackerValue","type":"bool","internalType":"bool"},{"name":"foreignCall","type":"bool","internalType":"bool"}]},{"name":"effectPlaceHolders","type":"tuple[]","internalType":"struct Placeholder[]","components":[{"name":"pType","type":"uint8","internalType":"enum PT"},{"name":"typeSpecificIndex","type":"uint128","internalType":"uint128"},{"name":"trackerValue","type":"bool","internalType":"bool"},{"name":"foreignCall","type":"bool","internalType":"bool"}]},{"name":"posEffects","type":"tuple[]","internalType":"struct Effect[]","components":[{"name":"valid","type":"bool","internalType":"bool"},{"name":"dynamicParam","type":"bool","internalType":"bool"},{"name":"effectType","type":"uint8","internalType":"enum ET"},{"name":"pType","type":"uint8","internalType":"enum PT"},{"name":"param","type":"bytes","internalType":"bytes"},{"name":"text","type":"bytes32","internalType":"bytes32"},{"name":"errorMessage","type":"string","internalType":"string"},{"name":"instructionSet","type":"uint256[]","internalType":"uint256[]"}]},{"name":"negEffects","type":"tuple[]","internalType":"struct Effect[]","components":[{"name":"valid","type":"bool","internalType":"bool"},{"name":"dynamicParam","type":"bool","internalType":"bool"},{"name":"effectType","type":"uint8","internalType":"enum ET"},{"name":"pType","type":"uint8","internalType":"enum PT"},{"name":"param","type":"bytes","internalType":"bytes"},{"name":"text","type":"bytes32","internalType":"bytes32"},{"name":"errorMessage","type":"string","internalType":"string"},{"name":"instructionSet","type":"uint256[]","internalType":"uint256[]"}]}]}],"outputs":[{"name":"","type":"uint256","internalType":"uint256"}],"stateMutability":"nonpayable"},{"type":"function","name":"createRule","inputs":[{"name":"_policyId","type":"uint256","internalType":"uint256"},{"name":"_rule","type":"tuple","internalType":"struct Rule","components":[{"name":"instructionSet","type":"uint256[]","internalType":"uint256[]"},{"name":"rawData","type":"tuple","internalType":"struct RawData","components":[{"name":"instructionSetIndex","type":"uint256[]","internalType":"uint256[]"},{"name":"argumentTypes","type":"uint8[]","internalType":"enum PT[]"},{"name":"dataValues","type":"bytes[]","internalType":"bytes[]"}]},{"name":"placeHolders","type":"tuple[]","internalType":"struct Placeholder[]","components":[{"name":"pType","type":"uint8","internalType":"enum PT"},{"name":"typeSpecificIndex","type":"uint128","internalType":"uint128"},{"name":"trackerValue","type":"bool","internalType":"bool"},{"name":"foreignCall","type":"bool","internalType":"bool"}]},{"name":"effectPlaceHolders","type":"tuple[]","internalType":"struct Placeholder[]","components":[{"name":"pType","type":"uint8","internalType":"enum PT"},{"name":"typeSpecificIndex","type":"uint128","internalType":"uint128"},{"name":"trackerValue","type":"bool","internalType":"bool"},{"name":"foreignCall","type":"bool","internalType":"bool"}]},{"name":"posEffects","type":"tuple[]","internalType":"struct Effect[]","components":[{"name":"valid","type":"bool","internalType":"bool"},{"name":"dynamicParam","type":"bool","internalType":"bool"},{"name":"effectType","type":"uint8","internalType":"enum ET"},{"name":"pType","type":"uint8","internalType":"enum PT"},{"name":"param","type":"bytes","internalType":"bytes"},{"name":"text","type":"bytes32","internalType":"bytes32"},{"name":"errorMessage","type":"string","internalType":"string"},{"name":"instructionSet","type":"uint256[]","internalType":"uint256[]"}]},{"name":"negEffects","type":"tuple[]","internalType":"struct Effect[]","components":[{"name":"valid","type":"bool","internalType":"bool"},{"name":"dynamicParam","type":"bool","internalType":"bool"},{"name":"effectType","type":"uint8","internalType":"enum ET"},{"name":"pType","type":"uint8","internalType":"enum PT"},{"name":"param","type":"bytes","internalType":"bytes"},{"name":"text","type":"bytes32","internalType":"bytes32"},{"name":"errorMessage","type":"string","internalType":"string"},{"name":"instructionSet","type":"uint256[]","internalType":"uint256[]"}]}]}],"outputs":[{"name":"","type":"uint256","internalType":"uint256"}],"stateMutability":"nonpayable"},{"type":"function","name":"createTracker","inputs":[{"name":"_policyId","type":"uint256","internalType":"uint256"},{"name":"_tracker","type":"tuple","internalType":"struct Trackers","components":[{"name":"set","type":"bool","internalType":"bool"},{"name":"pType","type":"uint8","internalType":"enum PT"},{"name":"trackerValue","type":"bytes","internalType":"bytes"}]}],"outputs":[{"name":"","type":"uint256","internalType":"uint256"}],"stateMutability":"nonpayable"},{"type":"function","name":"deleteForeignCall","inputs":[{"name":"_policyId","type":"uint256","internalType":"uint256"},{"name":"_foreignCallId","type":"uint256","internalType":"uint256"}],"outputs":[],"stateMutability":"nonpayable"},{"type":"function","name":"deleteFunctionSignature","inputs":[{"name":"_policyId","type":"uint256","internalType":"uint256"},{"name":"_functionSignatureId","type":"uint256","internalType":"uint256"}],"outputs":[],"stateMutability":"nonpayable"},{"type":"function","name":"deletePolicy","inputs":[{"name":"_policyId","type":"uint256","internalType":"uint256"}],"outputs":[],"stateMutability":"nonpayable"},{"type":"function","name":"deleteRule","inputs":[{"name":"_policyId","type":"uint256","internalType":"uint256"},{"name":"_ruleId","type":"uint256","internalType":"uint256"}],"outputs":[],"stateMutability":"nonpayable"},{"type":"function","name":"deleteTracker","inputs":[{"name":"_policyId","type":"uint256","internalType":"uint256"},{"name":"_trackerIndex","type":"uint256","internalType":"uint256"}],"outputs":[],"stateMutability":"nonpayable"},{"type":"function","name":"getAllForeignCalls","inputs":[{"name":"_policyId","type":"uint256","internalType":"uint256"}],"outputs":[{"name":"fc","type":"tuple[]","internalType":"struct ForeignCall[]","components":[{"name":"set","type":"bool","internalType":"bool"},{"name":"foreignCallAddress","type":"address","internalType":"address"},{"name":"signature","type":"bytes4","internalType":"bytes4"},{"name":"returnType","type":"uint8","internalType":"enum PT"},{"name":"foreignCallIndex","type":"uint256","internalType":"uint256"},{"name":"parameterTypes","type":"uint8[]","internalType":"enum PT[]"},{"name":"typeSpecificIndices","type":"uint8[]","internalType":"uint8[]"}]}],"stateMutability":"view"},{"type":"function","name":"getAllFunctionSignatures","inputs":[{"name":"_policyId","type":"uint256","internalType":"uint256"}],"outputs":[{"name":"","type":"tuple[]","internalType":"struct FunctionSignatureStorageSet[]","components":[{"name":"set","type":"bool","internalType":"bool"},{"name":"signature","type":"bytes4","internalType":"bytes4"},{"name":"parameterTypes","type":"uint8[]","internalType":"enum PT[]"}]}],"stateMutability":"view"},{"type":"function","name":"getAllRules","inputs":[{"name":"_policyId","type":"uint256","internalType":"uint256"}],"outputs":[{"name":"","type":"tuple[][]","internalType":"struct Rule[][]","components":[{"name":"instructionSet","type":"uint256[]","internalType":"uint256[]"},{"name":"rawData","type":"tuple","internalType":"struct RawData","components":[{"name":"instructionSetIndex","type":"uint256[]","internalType":"uint256[]"},{"name":"argumentTypes","type":"uint8[]","internalType":"enum PT[]"},{"name":"dataValues","type":"bytes[]","internalType":"bytes[]"}]},{"name":"placeHolders","type":"tuple[]","internalType":"struct Placeholder[]","components":[{"name":"pType","type":"uint8","internalType":"enum PT"},{"name":"typeSpecificIndex","type":"uint128","internalType":"uint128"},{"name":"trackerValue","type":"bool","internalType":"bool"},{"name":"foreignCall","type":"bool","internalType":"bool"}]},{"name":"effectPlaceHolders","type":"tuple[]","internalType":"struct Placeholder[]","components":[{"name":"pType","type":"uint8","internalType":"enum PT"},{"name":"typeSpecificIndex","type":"uint128","internalType":"uint128"},{"name":"trackerValue","type":"bool","internalType":"bool"},{"name":"foreignCall","type":"bool","internalType":"bool"}]},{"name":"posEffects","type":"tuple[]","internalType":"struct Effect[]","components":[{"name":"valid","type":"bool","internalType":"bool"},{"name":"dynamicParam","type":"bool","internalType":"bool"},{"name":"effectType","type":"uint8","internalType":"enum ET"},{"name":"pType","type":"uint8","internalType":"enum PT"},{"name":"param","type":"bytes","internalType":"bytes"},{"name":"text","type":"bytes32","internalType":"bytes32"},{"name":"errorMessage","type":"string","internalType":"string"},{"name":"instructionSet","type":"uint256[]","internalType":"uint256[]"}]},{"name":"negEffects","type":"tuple[]","internalType":"struct Effect[]","components":[{"name":"valid","type":"bool","internalType":"bool"},{"name":"dynamicParam","type":"bool","internalType":"bool"},{"name":"effectType","type":"uint8","internalType":"enum ET"},{"name":"pType","type":"uint8","internalType":"enum PT"},{"name":"param","type":"bytes","internalType":"bytes"},{"name":"text","type":"bytes32","internalType":"bytes32"},{"name":"errorMessage","type":"string","internalType":"string"},{"name":"instructionSet","type":"uint256[]","internalType":"uint256[]"}]}]}],"stateMutability":"view"},{"type":"function","name":"getAllTrackers","inputs":[{"name":"_policyId","type":"uint256","internalType":"uint256"}],"outputs":[{"name":"","type":"tuple[]","internalType":"struct Trackers[]","components":[{"name":"set","type":"bool","internalType":"bool"},{"name":"pType","type":"uint8","internalType":"enum PT"},{"name":"trackerValue","type":"bytes","internalType":"bytes"}]}],"stateMutability":"view"},{"type":"function","name":"getAppliedPolicyIds","inputs":[{"name":"_contractAddress","type":"address","internalType":"address"}],"outputs":[{"name":"","type":"uint256[]","internalType":"uint256[]"}],"stateMutability":"view"},{"type":"function","name":"getForeignCall","inputs":[{"name":"_policyId","type":"uint256","internalType":"uint256"},{"name":"_foreignCallId","type":"uint256","internalType":"uint256"}],"outputs":[{"name":"fc","type":"tuple","internalType":"struct ForeignCall","components":[{"name":"set","type":"bool","internalType":"bool"},{"name":"foreignCallAddress","type":"address","internalType":"address"},{"name":"signature","type":"bytes4","internalType":"bytes4"},{"name":"returnType","type":"uint8","internalType":"enum PT"},{"name":"foreignCallIndex","type":"uint256","internalType":"uint256"},{"name":"parameterTypes","type":"uint8[]","internalType":"enum PT[]"},{"name":"typeSpecificIndices","type":"uint8[]","internalType":"uint8[]"}]}],"stateMutability":"view"},{"type":"function","name":"getFunctionSignature","inputs":[{"name":"_policyId","type":"uint256","internalType":"uint256"},{"name":"_functionSignatureId","type":"uint256","internalType":"uint256"}],"outputs":[{"name":"","type":"tuple","internalType":"struct FunctionSignatureStorageSet","components":[{"name":"set","type":"bool","internalType":"bool"},{"name":"signature","type":"bytes4","internalType":"bytes4"},{"name":"parameterTypes","type":"uint8[]","internalType":"enum PT[]"}]}],"stateMutability":"view"},{"type":"function","name":"getPolicy","inputs":[{"name":"_policyId","type":"uint256","internalType":"uint256"}],"outputs":[{"name":"functionSigs","type":"bytes4[]","internalType":"bytes4[]"},{"name":"functionSigIds","type":"uint256[]","internalType":"uint256[]"},{"name":"ruleIds","type":"uint256[][]","internalType":"uint256[][]"}],"stateMutability":"view"},{"type":"function","name":"getRule","inputs":[{"name":"_policyId","type":"uint256","internalType":"uint256"},{"name":"_ruleId","type":"uint256","internalType":"uint256"}],"outputs":[{"name":"","type":"tuple","internalType":"struct RuleStorageSet","components":[{"name":"set","type":"bool","internalType":"bool"},{"name":"rule","type":"tuple","internalType":"struct Rule","components":[{"name":"instructionSet","type":"uint256[]","internalType":"uint256[]"},{"name":"rawData","type":"tuple","internalType":"struct RawData","components":[{"name":"instructionSetIndex","type":"uint256[]","internalType":"uint256[]"},{"name":"argumentTypes","type":"uint8[]","internalType":"enum PT[]"},{"name":"dataValues","type":"bytes[]","internalType":"bytes[]"}]},{"name":"placeHolders","type":"tuple[]","internalType":"struct Placeholder[]","components":[{"name":"pType","type":"uint8","internalType":"enum PT"},{"name":"typeSpecificIndex","type":"uint128","internalType":"uint128"},{"name":"trackerValue","type":"bool","internalType":"bool"},{"name":"foreignCall","type":"bool","internalType":"bool"}]},{"name":"effectPlaceHolders","type":"tuple[]","internalType":"struct Placeholder[]","components":[{"name":"pType","type":"uint8","internalType":"enum PT"},{"name":"typeSpecificIndex","type":"uint128","internalType":"uint128"},{"name":"trackerValue","type":"bool","internalType":"bool"},{"name":"foreignCall","type":"bool","internalType":"bool"}]},{"name":"posEffects","type":"tuple[]","internalType":"struct Effect[]","components":[{"name":"valid","type":"bool","internalType":"bool"},{"name":"dynamicParam","type":"bool","internalType":"bool"},{"name":"effectType","type":"uint8","internalType":"enum ET"},{"name":"pType","type":"uint8","internalType":"enum PT"},{"name":"param","type":"bytes","internalType":"bytes"},{"name":"text","type":"bytes32","internalType":"bytes32"},{"name":"errorMessage","type":"string","internalType":"string"},{"name":"instructionSet","type":"uint256[]","internalType":"uint256[]"}]},{"name":"negEffects","type":"tuple[]","internalType":"struct Effect[]","components":[{"name":"valid","type":"bool","internalType":"bool"},{"name":"dynamicParam","type":"bool","internalType":"bool"},{"name":"effectType","type":"uint8","internalType":"enum ET"},{"name":"pType","type":"uint8","internalType":"enum PT"},{"name":"param","type":"bytes","internalType":"bytes"},{"name":"text","type":"bytes32","internalType":"bytes32"},{"name":"errorMessage","type":"string","internalType":"string"},{"name":"instructionSet","type":"uint256[]","internalType":"uint256[]"}]}]}]}],"stateMutability":"view"},{"type":"function","name":"getTracker","inputs":[{"name":"_policyId","type":"uint256","internalType":"uint256"},{"name":"_index","type":"uint256","internalType":"uint256"}],"outputs":[{"name":"tracker","type":"tuple","internalType":"struct Trackers","components":[{"name":"set","type":"bool","internalType":"bool"},{"name":"pType","type":"uint8","internalType":"enum PT"},{"name":"trackerValue","type":"bytes","internalType":"bytes"}]}],"stateMutability":"view"},{"type":"function","name":"updateForeignCall","inputs":[{"name":"_policyId","type":"uint256","internalType":"uint256"},{"name":"_foreignCallId","type":"uint256","internalType":"uint256"},{"name":"_foreignCall","type":"tuple","internalType":"struct ForeignCall","components":[{"name":"set","type":"bool","internalType":"bool"},{"name":"foreignCallAddress","type":"address","internalType":"address"},{"name":"signature","type":"bytes4","internalType":"bytes4"},{"name":"returnType","type":"uint8","internalType":"enum PT"},{"name":"foreignCallIndex","type":"uint256","internalType":"uint256"},{"name":"parameterTypes","type":"uint8[]","internalType":"enum PT[]"},{"name":"typeSpecificIndices","type":"uint8[]","internalType":"uint8[]"}]}],"outputs":[{"name":"fc","type":"tuple","internalType":"struct ForeignCall","components":[{"name":"set","type":"bool","internalType":"bool"},{"name":"foreignCallAddress","type":"address","internalType":"address"},{"name":"signature","type":"bytes4","internalType":"bytes4"},{"name":"returnType","type":"uint8","internalType":"enum PT"},{"name":"foreignCallIndex","type":"uint256","internalType":"uint256"},{"name":"parameterTypes","type":"uint8[]","internalType":"enum PT[]"},{"name":"typeSpecificIndices","type":"uint8[]","internalType":"uint8[]"}]}],"stateMutability":"nonpayable"},{"type":"function","name":"updateFunctionSignature","inputs":[{"name":"_policyId","type":"uint256","internalType":"uint256"},{"name":"_functionSignatureId","type":"uint256","internalType":"uint256"},{"name":"_functionSignature","type":"bytes4","internalType":"bytes4"},{"name":"_pTypes","type":"uint8[]","internalType":"enum PT[]"}],"outputs":[{"name":"","type":"uint256","internalType":"uint256"}],"stateMutability":"nonpayable"},{"type":"function","name":"updatePolicy","inputs":[{"name":"_policyId","type":"uint256","internalType":"uint256"},{"name":"_signatures","type":"bytes4[]","internalType":"bytes4[]"},{"name":"_functionSignatureIds","type":"uint256[]","internalType":"uint256[]"},{"name":"_ruleIds","type":"uint256[][]","internalType":"uint256[][]"}],"outputs":[{"name":"","type":"uint256","internalType":"uint256"}],"stateMutability":"nonpayable"},{"type":"function","name":"updateRule","inputs":[{"name":"_policyId","type":"uint256","internalType":"uint256"},{"name":"_ruleId","type":"uint256","internalType":"uint256"},{"name":"_rule","type":"tuple","internalType":"struct Rule","components":[{"name":"instructionSet","type":"uint256[]","internalType":"uint256[]"},{"name":"rawData","type":"tuple","internalType":"struct RawData","components":[{"name":"instructionSetIndex","type":"uint256[]","internalType":"uint256[]"},{"name":"argumentTypes","type":"uint8[]","internalType":"enum PT[]"},{"name":"dataValues","type":"bytes[]","internalType":"bytes[]"}]},{"name":"placeHolders","type":"tuple[]","internalType":"struct Placeholder[]","components":[{"name":"pType","type":"uint8","internalType":"enum PT"},{"name":"typeSpecificIndex","type":"uint128","internalType":"uint128"},{"name":"trackerValue","type":"bool","internalType":"bool"},{"name":"foreignCall","type":"bool","internalType":"bool"}]},{"name":"effectPlaceHolders","type":"tuple[]","internalType":"struct Placeholder[]","components":[{"name":"pType","type":"uint8","internalType":"enum PT"},{"name":"typeSpecificIndex","type":"uint128","internalType":"uint128"},{"name":"trackerValue","type":"bool","internalType":"bool"},{"name":"foreignCall","type":"bool","internalType":"bool"}]},{"name":"posEffects","type":"tuple[]","internalType":"struct Effect[]","components":[{"name":"valid","type":"bool","internalType":"bool"},{"name":"dynamicParam","type":"bool","internalType":"bool"},{"name":"effectType","type":"uint8","internalType":"enum ET"},{"name":"pType","type":"uint8","internalType":"enum PT"},{"name":"param","type":"bytes","internalType":"bytes"},{"name":"text","type":"bytes32","internalType":"bytes32"},{"name":"errorMessage","type":"string","internalType":"string"},{"name":"instructionSet","type":"uint256[]","internalType":"uint256[]"}]},{"name":"negEffects","type":"tuple[]","internalType":"struct Effect[]","components":[{"name":"valid","type":"bool","internalType":"bool"},{"name":"dynamicParam","type":"bool","internalType":"bool"},{"name":"effectType","type":"uint8","internalType":"enum ET"},{"name":"pType","type":"uint8","internalType":"enum PT"},{"name":"param","type":"bytes","internalType":"bytes"},{"name":"text","type":"bytes32","internalType":"bytes32"},{"name":"errorMessage","type":"string","internalType":"string"},{"name":"instructionSet","type":"uint256[]","internalType":"uint256[]"}]}]}],"outputs":[{"name":"","type":"uint256","internalType":"uint256"}],"stateMutability":"nonpayable"},{"type":"function","name":"updateTracker","inputs":[{"name":"_policyId","type":"uint256","internalType":"uint256"},{"name":"_trackerIndex","type":"uint256","internalType":"uint256"},{"name":"_tracker","type":"tuple","internalType":"struct Trackers","components":[{"name":"set","type":"bool","internalType":"bool"},{"name":"pType","type":"uint8","internalType":"enum PT"},{"name":"trackerValue","type":"bytes","internalType":"bytes"}]}],"outputs":[],"stateMutability":"nonpayable"},{"type":"event","name":"ForeignCallCreated","inputs":[{"name":"policyId","type":"uint256","indexed":true,"internalType":"uint256"},{"name":"foreignCallId","type":"uint256","indexed":true,"internalType":"uint256"}],"anonymous":false},{"type":"event","name":"ForeignCallDeleted","inputs":[{"name":"policyId","type":"uint256","indexed":true,"internalType":"uint256"},{"name":"foreignCallId","type":"uint256","indexed":true,"internalType":"uint256"}],"anonymous":false},{"type":"event","name":"ForeignCallUpdated","inputs":[{"name":"policyId","type":"uint256","indexed":true,"internalType":"uint256"},{"name":"foreignCallId","type":"uint256","indexed":true,"internalType":"uint256"}],"anonymous":false},{"type":"error","name":"BelowMinAdminThreshold","inputs":[]},{"type":"error","name":"NewAdminAlreadyProposed","inputs":[]},{"type":"error","name":"NotPolicyAdmin","inputs":[]},{"type":"error","name":"NotProposedPolicyAdmin","inputs":[]},{"type":"error","name":"OnlyRulesEngineCanCreateAdminRoles","inputs":[]},{"type":"error","name":"PolicyAdminAlreadyCreated","inputs":[]},{"type":"error","name":"ZeroAddressCannotBeAdmin","inputs":[]}],"bytecode":{"object":"0x6080604052348015600f57600080fd5b506178888061001f6000396000f3fe608060405234801561001057600080fd5b50600436106101ae5760003560e01c8063a626bb8d116100ee578063cf7c672811610097578063da7d5d2811610071578063da7d5d28146103d8578063e3749023146103eb578063e7e31b311461040b578063fed27c8f1461042b57600080fd5b8063cf7c67281461039f578063d5d9c9f4146103b2578063d82260c8146103c557600080fd5b8063bcb01c22116100c8578063bcb01c2214610359578063c017d3001461036c578063cd42bcf81461038c57600080fd5b8063a626bb8d14610320578063a82c9e0714610333578063bc9b94eb1461034657600080fd5b8063660dac4d1161015b5780639228303f116101355780639228303f146102c55780639fe9c9b8146102da578063a31c8ebb146102ed578063a3937e991461030057600080fd5b8063660dac4d146102655780636d279ef81461028557806372a340d7146102a557600080fd5b806337794b071161018c57806337794b071461021f57806350a9f0d41461023257806356f3b05f1461024557600080fd5b8063266fc8a5146101b35780632b07fce3146101dc5780632e4c803b146101fe575b600080fd5b6101c66101c1366004615798565b61043e565b6040516101d39190615baf565b60405180910390f35b6101ef6101ea366004615798565b61106a565b6040516101d393929190615c97565b61021161020c366004615da5565b61153f565b6040519081526020016101d3565b61021161022d366004615dfe565b611726565b610211610240366004615e9a565b61181c565b610258610253366004615798565b611a2a565b6040516101d39190615f86565b610278610273366004615ffd565b611c1e565b6040516101d3919061606c565b610298610293366004615ffd565b611d28565b6040516101d39190616086565b6102b86102b3366004615ffd565b612653565b6040516101d391906160ad565b6102d86102d33660046160e9565b612779565b005b6102116102e83660046162e8565b61297d565b6102d86102fb366004615ffd565b612b63565b61031361030e366004615798565b612d01565b6040516101d3919061640d565b6102d861032e366004615ffd565b613023565b6102d8610341366004615ffd565b6133d4565b610211610354366004616484565b613508565b6102116103673660046164c1565b613634565b61037f61037a366004616522565b613a57565b6040516101d39190616568565b61021161039a36600461658d565b613bbe565b6102d86103ad3660046165ca565b613cf1565b6102116103c0366004616610565b613dde565b6102d86103d3366004615ffd565b613ebd565b61037f6103e6366004615ffd565b614032565b6103fe6103f9366004616681565b61426e565b6040516101d3919061669c565b61041e610419366004615798565b6142f0565b6040516101d391906166af565b6102d8610439366004615798565b6144c5565b6060600061044a614706565b600101600084815260200190815260200160002060010190506000816002018054806020026020016040519081016040528092919081815260200182805480156104f557602002820191906000526020600020906000905b82829054906101000a900460e01b7bffffffffffffffffffffffffffffffffffffffffffffffffffffffff1916815260200190600401906020826003010492830192600103820291508084116104a25790505b505050505090506000815167ffffffffffffffff8111156105185761051861616c565b60405190808252806020026020018201604052801561054b57816020015b60608152602001906001900390816105365790505b50905060005b825181101561106157600084600101600085848151811061057457610574616726565b60200260200101517bffffffffffffffffffffffffffffffffffffffffffffffffffffffff19167bffffffffffffffffffffffffffffffffffffffffffffffffffffffff1916815260200190815260200160002080548060200260200160405190810160405280929190818152602001828054801561061257602002820191906000526020600020905b8154815260200190600101908083116105fe575b50505050509050805167ffffffffffffffff8111156106335761063361616c565b60405190808252806020026020018201604052801561066c57816020015b6106596153e7565b8152602001906001900390816106515790505b5083838151811061067f5761067f616726565b602002602001018190525060005b81518110156110575761069e614734565b600101600089815260200190815260200160002060008383815181106106c6576106c6616726565b60209081029190910181015182528101919091526040016000205460ff161561104f576106f1614734565b6001016000898152602001908152602001600020600083838151811061071957610719616726565b602002602001015181526020019081526020016000206001016040518060c00160405290816000820180548060200260200160405190810160405280929190818152602001828054801561078c57602002820191906000526020600020905b815481526020019060010190808311610778575b5050505050815260200160018201604051806060016040529081600082018054806020026020016040519081016040528092919081815260200182805480156107f457602002820191906000526020600020905b8154815260200190600101908083116107e0575b505050505081526020016001820180548060200260200160405190810160405280929190818152602001828054801561087c57602002820191906000526020600020906000905b82829054906101000a900460ff16600781111561085a5761085a6157ed565b81526020600192830181810494850194909303909202910180841161083b5790505b5050505050815260200160028201805480602002602001604051908101604052809291908181526020016000905b828210156109565783829060005260206000200180546108c990616755565b80601f01602080910402602001604051908101604052809291908181526020018280546108f590616755565b80156109425780601f1061091757610100808354040283529160200191610942565b820191906000526020600020905b81548152906001019060200180831161092557829003601f168201915b5050505050815260200190600101906108aa565b5050505081525050815260200160048201805480602002602001604051908101604052809291908181526020016000905b82821015610a485760008481526020902060408051608081019091529083018054829060ff1660078111156109be576109be6157ed565b60078111156109cf576109cf6157ed565b815290546fffffffffffffffffffffffffffffffff61010082041660208084019190915260ff710100000000000000000000000000000000008304811615156040850152720100000000000000000000000000000000000090920490911615156060909201919091529082526001929092019101610987565b50505050815260200160058201805480602002602001604051908101604052809291908181526020016000905b82821015610b365760008481526020902060408051608081019091529083018054829060ff166007811115610aac57610aac6157ed565b6007811115610abd57610abd6157ed565b815290546fffffffffffffffffffffffffffffffff61010082041660208084019190915260ff710100000000000000000000000000000000008304811615156040850152720100000000000000000000000000000000000090920490911615156060909201919091529082526001929092019101610a75565b50505050815260200160068201805480602002602001604051908101604052809291908181526020016000905b82821015610da357600084815260209081902060408051610100808201835260058702909301805460ff808216151584529481048516151595830195909552909390929184019162010000909104166002811115610bc357610bc36157ed565b6002811115610bd457610bd46157ed565b815281546020909101906301000000900460ff166007811115610bf957610bf96157ed565b6007811115610c0a57610c0a6157ed565b8152602001600182018054610c1e90616755565b80601f0160208091040260200160405190810160405280929190818152602001828054610c4a90616755565b8015610c975780601f10610c6c57610100808354040283529160200191610c97565b820191906000526020600020905b815481529060010190602001808311610c7a57829003601f168201915b5050505050815260200160028201548152602001600382018054610cba90616755565b80601f0160208091040260200160405190810160405280929190818152602001828054610ce690616755565b8015610d335780601f10610d0857610100808354040283529160200191610d33565b820191906000526020600020905b815481529060010190602001808311610d1657829003601f168201915b5050505050815260200160048201805480602002602001604051908101604052809291908181526020018280548015610d8b57602002820191906000526020600020905b815481526020019060010190808311610d77575b50505050508152505081526020019060010190610b63565b50505050815260200160078201805480602002602001604051908101604052809291908181526020016000905b8282101561101057600084815260209081902060408051610100808201835260058702909301805460ff808216151584529481048516151595830195909552909390929184019162010000909104166002811115610e3057610e306157ed565b6002811115610e4157610e416157ed565b815281546020909101906301000000900460ff166007811115610e6657610e666157ed565b6007811115610e7757610e776157ed565b8152602001600182018054610e8b90616755565b80601f0160208091040260200160405190810160405280929190818152602001828054610eb790616755565b8015610f045780601f10610ed957610100808354040283529160200191610f04565b820191906000526020600020905b815481529060010190602001808311610ee757829003601f168201915b5050505050815260200160028201548152602001600382018054610f2790616755565b80601f0160208091040260200160405190810160405280929190818152602001828054610f5390616755565b8015610fa05780601f10610f7557610100808354040283529160200191610fa0565b820191906000526020600020905b815481529060010190602001808311610f8357829003601f168201915b5050505050815260200160048201805480602002602001604051908101604052809291908181526020018280548015610ff857602002820191906000526020600020905b815481526020019060010190808311610fe4575b50505050508152505081526020019060010190610dd0565b505050508152505084848151811061102a5761102a616726565b6020026020010151828151811061104357611043616726565b60200260200101819052505b60010161068d565b5050600101610551565b50949350505050565b60608060606000611079614706565b60008681526001918201602052604090206003810154910191501561118057600281015467ffffffffffffffff8111156110b5576110b561616c565b6040519080825280602002602001820160405280156110de578160200160208202803683370190505b50600282015490945067ffffffffffffffff8111156110ff576110ff61616c565b604051908082528060200260200182016040528015611128578160200160208202803683370190505b50600282015490935067ffffffffffffffff8111156111495761114961616c565b60405190808252806020026020018201604052801561117c57816020015b60608152602001906001900390816111675790505b5091505b600281015467ffffffffffffffff81111561119d5761119d61616c565b6040519080825280602002602001820160405280156111d057816020015b60608152602001906001900390816111bb5790505b50915060005b6002820154811015611536578160020181815481106111f7576111f7616726565b90600052602060002090600891828204019190066004029054906101000a900460e01b85828151811061122c5761122c616726565b7fffffffff000000000000000000000000000000000000000000000000000000009092166020928302919091019091015260028201805483916000918490811061127857611278616726565b90600052602060002090600891828204019190066004029054906101000a900460e01b7bffffffffffffffffffffffffffffffffffffffffffffffffffffffff19167bffffffffffffffffffffffffffffffffffffffffffffffffffffffff19168152602001908152602001600020548482815181106112fa576112fa616726565b60200260200101818152505060005b82600101600084600201848154811061132457611324616726565b6000918252602080832060088304015460079092166004026101000a90910460e01b7fffffffff0000000000000000000000000000000000000000000000000000000016835282019290925260400190205481101561152d5782600101600084600201848154811061139857611398616726565b6000918252602080832060088304015460079092166004026101000a90910460e01b7fffffffff0000000000000000000000000000000000000000000000000000000016835282019290925260400190205467ffffffffffffffff8111156114025761140261616c565b60405190808252806020026020018201604052801561142b578160200160208202803683370190505b5084838151811061143e5761143e616726565b602002602001018190525082600101600084600201848154811061146457611464616726565b90600052602060002090600891828204019190066004029054906101000a900460e01b7bffffffffffffffffffffffffffffffffffffffffffffffffffffffff19167bffffffffffffffffffffffffffffffffffffffffffffffffffffffff1916815260200190815260200160002081815481106114e4576114e4616726565b906000526020600020015484838151811061150157611501616726565b6020026020010151828151811061151a5761151a616726565b6020908102919091010152600101611309565b506001016111d6565b50509193909250565b600082336000806115fe63901cee1160e01b858560405160240161158392919091825273ffffffffffffffffffffffffffffffffffffffff16602082015260400190565b604080517fffffffffffffffffffffffffffffffffffffffffffffffffffffffffffffffe08184030181529190526020810180517bffffffffffffffffffffffffffffffffffffffffffffffffffffffff167f901cee1100000000000000000000000000000000000000000000000000000000179052614762565b915091506000821561168e57600482511061161e57506020810151611622565b5060005b8061168e576040517f08c379a000000000000000000000000000000000000000000000000000000000815260206004820152601860248201527f4e6f7420417574686f72697a656420546f20506f6c696379000000000000000060448201526064015b60405180910390fd5b6000611698614829565b60008a81526020829052604081208054929350909182906116b8906167d1565b9182905550905060006116ca8a61688f565b6080810183905290506116dd8b82614857565b60008b8152602084905260408082208490555183918d917f9006068daf408b7e36a22c789f04c4ba9c6c638a6cf8438c2250583384f2192f9190a3509998505050505050505050565b6000833360008061176a63901cee1160e01b858560405160240161158392919091825273ffffffffffffffffffffffffffffffffffffffff16602082015260400190565b91509150600082156117f557600482511061178a5750602081015161178e565b5060005b806117f5576040517f08c379a000000000000000000000000000000000000000000000000000000000815260206004820152601860248201527f4e6f7420417574686f72697a656420546f20506f6c69637900000000000000006044820152606401611685565b60006117ff614734565b905061180d818b8b8b614a29565b50979998505050505050505050565b6000873360008061186063901cee1160e01b858560405160240161158392919091825273ffffffffffffffffffffffffffffffffffffffff16602082015260400190565b91509150600082156118eb57600482511061188057506020810151611884565b5060005b806118eb576040517f08c379a000000000000000000000000000000000000000000000000000000000815260206004820152601860248201527f4e6f7420417574686f72697a656420546f20506f6c69637900000000000000006044820152606401611685565b8a891461197a576040517f08c379a000000000000000000000000000000000000000000000000000000000815260206004820152602e60248201527f5369676e61747572657320616e64207369676e6174757265206964277320617260448201527f6520696e636f6e73697374656e740000000000000000000000000000000000006064820152608401611685565b8c600003611a0a576040517f08c379a000000000000000000000000000000000000000000000000000000000815260206004820152603460248201527f506f6c6963792049442063616e6e6f7420626520302e2043726561746520706f60448201527f6c696379206265666f7265207570646174696e670000000000000000000000006064820152608401611685565b611a198d8d8d8d8d8d8d614b0c565b9d9c50505050505050505050505050565b60606000611a3661525a565b6000848152602082905260408120549192508167ffffffffffffffff811115611a6157611a6161616c565b604051908082528060200260200182016040528015611aae57816020015b60408051606080820183526000808352602083015291810191909152815260200190600190039081611a7f5790505b509050600060015b838111611c13576000878152600186016020908152604080832084845290915290205460ff1615611c015760008781526001860160209081526040808320848452825291829020825160608101909352805460ff808216151585529192840191610100909104166007811115611b2e57611b2e6157ed565b6007811115611b3f57611b3f6157ed565b8152602001600182018054611b5390616755565b80601f0160208091040260200160405190810160405280929190818152602001828054611b7f90616755565b8015611bcc5780601f10611ba157610100808354040283529160200191611bcc565b820191906000526020600020905b815481529060010190602001808311611baf57829003601f168201915b505050505081525050838381518110611be757611be7616726565b60200260200101819052508180611bfd906167d1565b9250505b80611c0b816167d1565b915050611ab6565b509095945050505050565b60408051606080820183526000808352602083015291810191909152611c42615288565b60008481526001918201602090815260408083208684528252918290208251606081018452815460ff811615158252610100900460e01b7fffffffff000000000000000000000000000000000000000000000000000000001681840152938101805484518185028101850186528181529294860193830182828015611d1657602002820191906000526020600020906000905b82829054906101000a900460ff166007811115611cf457611cf46157ed565b815260206001928301818104948501949093039092029101808411611cd55790505b50505050508152505090505b92915050565b611d3061543f565b611d38614734565b600084815260019182016020908152604080832086845282529182902082518084018452815460ff16151581528351948201805460e08186028801810190965260c0870181815292969395948701949192849290918491840182828015611dbe57602002820191906000526020600020905b815481526020019060010190808311611daa575b505050505081526020016001820160405180606001604052908160008201805480602002602001604051908101604052809291908181526020018280548015611e2657602002820191906000526020600020905b815481526020019060010190808311611e12575b5050505050815260200160018201805480602002602001604051908101604052809291908181526020018280548015611eae57602002820191906000526020600020906000905b82829054906101000a900460ff166007811115611e8c57611e8c6157ed565b815260206001928301818104948501949093039092029101808411611e6d5790505b5050505050815260200160028201805480602002602001604051908101604052809291908181526020016000905b82821015611f88578382906000526020600020018054611efb90616755565b80601f0160208091040260200160405190810160405280929190818152602001828054611f2790616755565b8015611f745780601f10611f4957610100808354040283529160200191611f74565b820191906000526020600020905b815481529060010190602001808311611f5757829003601f168201915b505050505081526020019060010190611edc565b5050505081525050815260200160048201805480602002602001604051908101604052809291908181526020016000905b8282101561207a5760008481526020902060408051608081019091529083018054829060ff166007811115611ff057611ff06157ed565b6007811115612001576120016157ed565b815290546fffffffffffffffffffffffffffffffff61010082041660208084019190915260ff710100000000000000000000000000000000008304811615156040850152720100000000000000000000000000000000000090920490911615156060909201919091529082526001929092019101611fb9565b50505050815260200160058201805480602002602001604051908101604052809291908181526020016000905b828210156121685760008481526020902060408051608081019091529083018054829060ff1660078111156120de576120de6157ed565b60078111156120ef576120ef6157ed565b815290546fffffffffffffffffffffffffffffffff61010082041660208084019190915260ff7101000000000000000000000000000000000083048116151560408501527201000000000000000000000000000000000000909204909116151560609092019190915290825260019290920191016120a7565b50505050815260200160068201805480602002602001604051908101604052809291908181526020016000905b828210156123d557600084815260209081902060408051610100808201835260058702909301805460ff8082161515845294810485161515958301959095529093909291840191620100009091041660028111156121f5576121f56157ed565b6002811115612206576122066157ed565b815281546020909101906301000000900460ff16600781111561222b5761222b6157ed565b600781111561223c5761223c6157ed565b815260200160018201805461225090616755565b80601f016020809104026020016040519081016040528092919081815260200182805461227c90616755565b80156122c95780601f1061229e576101008083540402835291602001916122c9565b820191906000526020600020905b8154815290600101906020018083116122ac57829003601f168201915b50505050508152602001600282015481526020016003820180546122ec90616755565b80601f016020809104026020016040519081016040528092919081815260200182805461231890616755565b80156123655780601f1061233a57610100808354040283529160200191612365565b820191906000526020600020905b81548152906001019060200180831161234857829003601f168201915b50505050508152602001600482018054806020026020016040519081016040528092919081815260200182805480156123bd57602002820191906000526020600020905b8154815260200190600101908083116123a9575b50505050508152505081526020019060010190612195565b50505050815260200160078201805480602002602001604051908101604052809291908181526020016000905b8282101561264257600084815260209081902060408051610100808201835260058702909301805460ff808216151584529481048516151595830195909552909390929184019162010000909104166002811115612462576124626157ed565b6002811115612473576124736157ed565b815281546020909101906301000000900460ff166007811115612498576124986157ed565b60078111156124a9576124a96157ed565b81526020016001820180546124bd90616755565b80601f01602080910402602001604051908101604052809291908181526020018280546124e990616755565b80156125365780601f1061250b57610100808354040283529160200191612536565b820191906000526020600020905b81548152906001019060200180831161251957829003601f168201915b505050505081526020016002820154815260200160038201805461255990616755565b80601f016020809104026020016040519081016040528092919081815260200182805461258590616755565b80156125d25780601f106125a7576101008083540402835291602001916125d2565b820191906000526020600020905b8154815290600101906020018083116125b557829003601f168201915b505050505081526020016004820180548060200260200160405190810160405280929190818152602001828054801561262a57602002820191906000526020600020905b815481526020019060010190808311612616575b50505050508152505081526020019060010190612402565b505050915250509052509392505050565b6040805160608082018352600080835260208301819052928201529061267761525a565b60008581526001820160209081526040808320878452825291829020825160608101909352805460ff80821615158552949550929390929184019161010090041660078111156126c9576126c96157ed565b60078111156126da576126da6157ed565b81526020016001820180546126ee90616755565b80601f016020809104026020016040519081016040528092919081815260200182805461271a90616755565b80156127675780601f1061273c57610100808354040283529160200191612767565b820191906000526020600020905b81548152906001019060200180831161274a57829003601f168201915b50505050508152505091505092915050565b8181600081811061278c5761278c616726565b90506020020135336000806127d463901cee1160e01b858560405160240161158392919091825273ffffffffffffffffffffffffffffffffffffffff16602082015260400190565b915091506000821561285f5760048251106127f4575060208101516127f8565b5060005b8061285f576040517f08c379a000000000000000000000000000000000000000000000000000000000815260206004820152601860248201527f4e6f7420417574686f72697a656420546f20506f6c69637900000000000000006044820152606401611685565b60006128696152b6565b90508667ffffffffffffffff8111156128845761288461616c565b6040519080825280602002602001820160405280156128ad578160200160208202803683370190505b5073ffffffffffffffffffffffffffffffffffffffff8a1660009081526020838152604090912082516128e69391929190910190615460565b5060005b878110156129715788888281811061290457612904616726565b905060200201358260000160008c73ffffffffffffffffffffffffffffffffffffffff1673ffffffffffffffffffffffffffffffffffffffff168152602001908152602001600020828154811061295d5761295d616726565b6000918252602090912001556001016128ea565b50505050505050505050565b600083336000806129c163901cee1160e01b858560405160240161158392919091825273ffffffffffffffffffffffffffffffffffffffff16602082015260400190565b9150915060008215612a4c5760048251106129e1575060208101516129e5565b5060005b80612a4c576040517f08c379a000000000000000000000000000000000000000000000000000000000815260206004820152601860248201527f4e6f7420417574686f72697a656420546f20506f6c69637900000000000000006044820152606401611685565b6000612a56615288565b60008b8152602082905260408120805492935090918290612a76906167d1565b919050819055905060018260010160008d8152602001908152602001600020600083815260200190815260200160002060000160006101000a81548160ff021916908315150217905550898260010160008d8152602001908152602001600020600083815260200190815260200160002060000160016101000a81548163ffffffff021916908360e01c0217905550888260010160008d815260200190815260200160002060008381526020019081526020016000206001019080519060200190612b429291906154ab565b5060009a8b5260209190915260409099208990555096979650505050505050565b60405160248101839052336044820181905283916000908190612baa907f901cee110000000000000000000000000000000000000000000000000000000090606401611583565b9150915060008215612c35576004825110612bca57506020810151612bce565b5060005b80612c35576040517f08c379a000000000000000000000000000000000000000000000000000000000815260206004820152601860248201527f4e6f7420417574686f72697a656420546f20506f6c69637900000000000000006044820152606401611685565b612c3d614734565b60008881526001918201602090815260408083208a8452909152812080547fffffffffffffffffffffffffffffffffffffffffffffffffffffffffffffff0016815591820181612c8d828261555a565b600182016000612c9d828261555a565b612cab60018301600061557b565b612cb96002830160006155a0565b50612cca90506004830160006155be565b612cd86005830160006155be565b612ce66006830160006155dc565b612cf46007830160006155dc565b5050505050505050505050565b60606000612d0d614829565b6000848152602091909152604081205491508167ffffffffffffffff811115612d3857612d3861616c565b604051908082528060200260200182016040528015612da957816020015b612d966040805160e08101825260008082526020820181905291810182905290606082019081526020016000815260200160608152602001606081525090565b815260200190600190039081612d565790505b509050600060015b83811161301957612dc0614829565b60008781526001919091016020908152604080832084845290915290205460ff161561300757612dee614829565b600087815260019190910160209081526040808320848452825291829020825160e08082018552825460ff80821615158452610100820473ffffffffffffffffffffffffffffffffffffffff16958401959095527501000000000000000000000000000000000000000000810490911b7fffffffff00000000000000000000000000000000000000000000000000000000169482019490945292909160608401917901000000000000000000000000000000000000000000000000009004166007811115612ebe57612ebe6157ed565b6007811115612ecf57612ecf6157ed565b81526020016001820154815260200160028201805480602002602001604051908101604052809291908181526020018280548015612f5c57602002820191906000526020600020906000905b82829054906101000a900460ff166007811115612f3a57612f3a6157ed565b815260206001928301818104948501949093039092029101808411612f1b5790505b5050505050815260200160038201805480602002602001604051908101604052809291908181526020018280548015612fd257602002820191906000526020600020906000905b825461010083900a900460ff16815260206001928301818104948501949093039092029101808411612fa35790505b505050505081525050838381518110612fed57612fed616726565b60200260200101819052508180613003906167d1565b9250505b80613011816167d1565b915050612db1565b5090949350505050565b6040516024810183905233604482018190528391600090819061306a907f901cee110000000000000000000000000000000000000000000000000000000090606401611583565b91509150600082156130f557600482511061308a5750602081015161308e565b5060005b806130f5576040517f08c379a000000000000000000000000000000000000000000000000000000000815260206004820152601860248201527f4e6f7420417574686f72697a656420546f20506f6c69637900000000000000006044820152606401611685565b60006130ff614706565b600089815260019190910160205260408120915061311b615288565b60008a8152600191909101602090815260408083208b8452909152902054610100900460e01b905061314b615288565b60008a81526001918201602090815260408083208c8452909152812080547fffffffffffffffffffffffffffffffffffffffffffffffffffffff00000000001681559161319a9083018261557b565b506131ab90506003830160006155fd565b7fffffffff000000000000000000000000000000000000000000000000000000008116600090815260018301602052604081208190555b7fffffffff00000000000000000000000000000000000000000000000000000000821660009081526002840160205260409020548110156132ec57613225614734565b60008b8152600191820160209081526040808320858452909152812080547fffffffffffffffffffffffffffffffffffffffffffffffffffffffffffffff0016815591820181613275828261555a565b600182016000613285828261555a565b61329360018301600061557b565b6132a16002830160006155a0565b506132b290506004830160006155be565b6132c06005830160006155be565b6132ce6006830160006155dc565b6132dc6007830160006155dc565b5050600190920191506131e29050565b507fffffffff000000000000000000000000000000000000000000000000000000008116600090815260028301602052604081206133299161555a565b60006133348a6142f0565b905060005b8151811015612cf45781818151811061335457613354616726565b602002602001015160000151156133cc578360010160020182828151811061337e5761337e616726565b60209081029190910181015181015182546001810184556000938452919092206008820401805463ffffffff60079093166004026101000a928302191660e09390931c919091029190911790555b600101613339565b6040516024810183905233604482018190528391600090819061341b907f901cee110000000000000000000000000000000000000000000000000000000090606401611583565b91509150600082156134a657600482511061343b5750602081015161343f565b5060005b806134a6576040517f08c379a000000000000000000000000000000000000000000000000000000000815260206004820152601860248201527f4e6f7420417574686f72697a656420546f20506f6c69637900000000000000006044820152606401611685565b6134ae61525a565b60008881526001918201602090815260408083208a8452909152812080547fffffffffffffffffffffffffffffffffffffffffffffffffffffffffffff0000168155916134fd90830182615622565b505050505050505050565b6000823360008061354c63901cee1160e01b858560405160240161158392919091825273ffffffffffffffffffffffffffffffffffffffff16602082015260400190565b91509150600082156135d757600482511061356c57506020810151613570565b5060005b806135d7576040517f08c379a000000000000000000000000000000000000000000000000000000000815260206004820152601860248201527f4e6f7420417574686f72697a656420546f20506f6c69637900000000000000006044820152606401611685565b60006135e1614734565b60008a8152602082905260408120805492935090918290613601906167d1565b91829055509050613614828b838c614a29565b506000998a52602091909152604090982088905550959695505050505050565b6000843360008061367863901cee1160e01b858560405160240161158392919091825273ffffffffffffffffffffffffffffffffffffffff16602082015260400190565b91509150600082156137035760048251106136985750602081015161369c565b5060005b80613703576040517f08c379a000000000000000000000000000000000000000000000000000000000815260206004820152601860248201527f4e6f7420417574686f72697a656420546f20506f6c69637900000000000000006044820152606401611685565b600061370d615288565b60008c815260018201602090815260408083208e845290915290208054919250907fffffffff000000000000000000000000000000000000000000000000000000008b811661010090920460e01b16146137e9576040517f08c379a000000000000000000000000000000000000000000000000000000000815260206004820152603660248201527f44656c6574652066756e6374696f6e207369676e6174757265206265666f726560448201527f207570646174696e6720746f2061206e6577206f6e65000000000000000000006064820152608401611685565b8851600182015411156138a4576040517f08c379a000000000000000000000000000000000000000000000000000000000815260206004820152604660248201527f4e657720706172616d65746572207479706573206d757374206265206f66206760448201527f726561746572206f7220657175616c206c656e67746820746f20746865206f7260648201527f6967696e616c0000000000000000000000000000000000000000000000000000608482015260a401611685565b60005b60018201548110156139b9578160010181815481106138c8576138c8616726565b90600052602060002090602091828204019190069054906101000a900460ff1660078111156138f9576138f96157ed565b8a828151811061390b5761390b616726565b60200260200101516007811115613924576139246157ed565b146139b1576040517f08c379a000000000000000000000000000000000000000000000000000000000815260206004820152603c60248201527f4e657720706172616d65746572207479706573206d757374206265206f66207460448201527f68652073616d65207479706520617320746865206f726967696e616c000000006064820152608401611685565b6001016138a7565b50885160018201541015613a475760018101545b8951811015613a4557816001018a82815181106139ec576139ec616726565b602090810291909101810151825460018101845560009384529282902091830490910180549192909160ff601f9092166101000a918202191690836007811115613a3857613a386157ed565b02179055506001016139cd565b505b50989a9950505050505050505050565b613a976040805160e08101825260008082526020820181905291810182905290606082019081526020016000815260200160608152602001606081525090565b60405160248101859052336044820181905285916000908190613ade907f901cee110000000000000000000000000000000000000000000000000000000090606401611583565b9150915060008215613b69576004825110613afe57506020810151613b02565b5060005b80613b69576040517f08c379a000000000000000000000000000000000000000000000000000000000815260206004820152601860248201527f4e6f7420417574686f72697a656420546f20506f6c69637900000000000000006044820152606401611685565b613b728761688f565b608081018990529550613b858987614857565b60405188908a907f82132283659aa079ae6d599fbbe109c1bfb961fc5bbbb0a98a343b4ea6dc3e0090600090a350505050509392505050565b60008233600080613c0263901cee1160e01b858560405160240161158392919091825273ffffffffffffffffffffffffffffffffffffffff16602082015260400190565b9150915060008215613c8d576004825110613c2257506020810151613c26565b5060005b80613c8d576040517f08c379a000000000000000000000000000000000000000000000000000000000815260206004820152601860248201527f4e6f7420417574686f72697a656420546f20506f6c69637900000000000000006044820152606401611685565b6000613c9761525a565b60008a8152602082905260408120805492935090918290613cb7906167d1565b91829055509050613cd2828b83613ccd8d61694f565b6152e4565b6000998a52602091909152604090982088905550959695505050505050565b60405160248101849052336044820181905284916000908190613d38907f901cee110000000000000000000000000000000000000000000000000000000090606401611583565b9150915060008215613dc3576004825110613d5857506020810151613d5c565b5060005b80613dc3576040517f08c379a000000000000000000000000000000000000000000000000000000000815260206004820152601860248201527f4e6f7420417574686f72697a656420546f20506f6c69637900000000000000006044820152606401611685565b6000613dcd61525a565b90506134fd818a8a613ccd8b61694f565b600080613de9614706565b80546001908101808355600081815282840160205260409081902080547fffffffffffffffffffffffffffffffffffffffffffffffffffffffffffffff001690931790925590517f1929cb6400000000000000000000000000000000000000000000000000000000815260048101829052336024820152919250903090631929cb64906044016020604051808303816000875af1158015613e8e573d6000803e3d6000fd5b505050506040513d601f19601f82011682018060405250810190613eb29190616a36565b509695505050505050565b60405160248101839052336044820181905283916000908190613f04907f901cee110000000000000000000000000000000000000000000000000000000090606401611583565b9150915060008215613f8f576004825110613f2457506020810151613f28565b5060005b80613f8f576040517f08c379a000000000000000000000000000000000000000000000000000000000815260206004820152601860248201527f4e6f7420417574686f72697a656420546f20506f6c69637900000000000000006044820152606401611685565b613f97614829565b60008881526001918201602090815260408083208a8452909152812080547fffffffffffff0000000000000000000000000000000000000000000000000000168155918201819055613fec600283018261557b565b613ffa60038301600061557b565b5050604051869088907f19d0bd0cc4d63f9108c93b0abfd7408498ecbc73713f6bb3a2862d9b9d1983d890600090a350505050505050565b6140726040805160e08101825260008082526020820181905291810182905290606082019081526020016000815260200160608152602001606081525090565b61407a614829565b600084815260019190910160209081526040808320858452825291829020825160e08082018552825460ff80821615158452610100820473ffffffffffffffffffffffffffffffffffffffff16958401959095527501000000000000000000000000000000000000000000810490911b7fffffffff0000000000000000000000000000000000000000000000000000000016948201949094529290916060840191790100000000000000000000000000000000000000000000000000900416600781111561414a5761414a6157ed565b600781111561415b5761415b6157ed565b815260200160018201548152602001600282018054806020026020016040519081016040528092919081815260200182805480156141e857602002820191906000526020600020906000905b82829054906101000a900460ff1660078111156141c6576141c66157ed565b8152602060019283018181049485019490930390920291018084116141a75790505b5050505050815260200160038201805480602002602001604051908101604052809291908181526020018280548015611d1657602002820191906000526020600020906000905b825461010083900a900460ff1681526020600192830181810494850194909303909202910180841161422f579050505050505081525050905092915050565b60606142786152b6565b73ffffffffffffffffffffffffffffffffffffffff831660009081526020918252604090819020805482518185028101850190935280835291929091908301828280156142e457602002820191906000526020600020905b8154815260200190600101908083116142d0575b50505050509050919050565b606060006142fc615288565b6000848152602082905260408120549192508167ffffffffffffffff8111156143275761432761616c565b60405190808252806020026020018201604052801561437457816020015b604080516060808201835260008083526020830152918101919091528152602001906001900390816143455790505b509050600060015b838111611c13576000878152600186016020908152604080832084845290915290205460ff16156144b35760008781526001868101602090815260408084208585528252928390208351606081018552815460ff811615158252610100900460e01b7fffffffff00000000000000000000000000000000000000000000000000000000168184015292810180548551818502810185018752818152949592949286019383018282801561447e57602002820191906000526020600020906000905b82829054906101000a900460ff16600781111561445c5761445c6157ed565b81526020600192830181810494850194909303909202910180841161443d5790505b50505050508152505083838151811061449957614499616726565b602002602001018190525081806144af906167d1565b9250505b806144bd816167d1565b91505061437c565b6040516024810182905233604482018190528291600090819061450c907f901cee110000000000000000000000000000000000000000000000000000000090606401611583565b915091506000821561459757600482511061452c57506020810151614530565b5060005b80614597576040517f08c379a000000000000000000000000000000000000000000000000000000000815260206004820152601860248201527f4e6f7420417574686f72697a656420546f20506f6c69637900000000000000006044820152606401611685565b60006145a1614706565b60008881526001919091016020526040812080547fffffffffffffffffffffffffffffffffffffffffffffffffffffffffffffff0016815591505b60038201548110156146fc5760038201805460018401916000918490811061460657614606616726565b90600052602060002090600891828204019190066004029054906101000a900460e01b7bffffffffffffffffffffffffffffffffffffffffffffffffffffffff19167bffffffffffffffffffffffffffffffffffffffffffffffffffffffff191681526020019081526020016000206000905581600101600101600083600101600201838154811061469a5761469a616726565b6000918252602080832060088304015460079092166004026101000a90910460e01b7fffffffff0000000000000000000000000000000000000000000000000000000016835282019290925260400181206146f49161555a565b6001016145dc565b5050505050505050565b600080611d2260017ff9dbd639dd2ea165d77dd4c51dec420100d51ceacf023b1c40faa045ba8f9a65616a4f565b600080611d2260017f5c91f63a4ffcbd372b8ec622fd1fcaaa601b66330afdb30e5c292dd9123f20b0616a4f565b6000606060006147706153b9565b7fffffffff0000000000000000000000000000000000000000000000000000000086166000908152602082905260409081902054905191925073ffffffffffffffffffffffffffffffffffffffff169081906147cd908790616a62565b600060405180830381855af49150503d8060008114614808576040519150601f19603f3d011682016040523d82523d6000602084013e61480d565b606091505b5090945092508361482057825160208401fd5b50509250929050565b600080611d2260017f1f3305601ed940efccf797d76856e5fe70659a8a6905d64c9f236321df91e718616a4f565b8060c00151518160a00151511461487057614870616a7e565b600181528061487d614829565b6000848152600191909101602090815260408083206080860151845282529182902083518154928501519385015160e01c7501000000000000000000000000000000000000000000027fffffffffffffff00000000ffffffffffffffffffffffffffffffffffffffffff73ffffffffffffffffffffffffffffffffffffffff909516610100027fffffffffffffffffffffff0000000000000000000000000000000000000000ff921515929092167fffffffffffffffffffffff00000000000000000000000000000000000000000090941693909317179283168217815560608401519092909183917fffffffffffff00ffffffffffffffffffffffffffffffffffffffffffffffffff9091167fffffffffffff0000000000ffffffffffffffffffffffffffffffffffffffffff909116177901000000000000000000000000000000000000000000000000008360078111156149dc576149dc6157ed565b02179055506080820151600182015560a08201518051614a069160028401916020909101906154ab565b5060c08201518051614a2291600384019160209091019061565c565b5050505050565b6000614a33614706565b6000858152600191909101602052604090205460ff16614aaf576040517f08c379a000000000000000000000000000000000000000000000000000000000815260206004820152601060248201527f496e76616c696420506f6c6963794964000000000000000000000000000000006044820152606401611685565b600084815260018681016020908152604080842087855290915290912080547fffffffffffffffffffffffffffffffffffffffffffffffffffffffffffffff001682178155839101614b01828261763b565b509295945050505050565b600080614b17614706565b60008a81526001820160205260408120919250614b3791600301906155fd565b82156150af5760005b878110156150a957614b6a8a888884818110614b5e57614b5e616726565b90506020020135611c1e565b51614bd1576040517f08c379a000000000000000000000000000000000000000000000000000000000815260206004820152601160248201527f496e76616c6964205369676e61747572650000000000000000000000000000006044820152606401611685565b868682818110614be357614be3616726565b905060200201358260010160008c815260200190815260200160002060010160000160008b8b85818110614c1957614c19616726565b9050602002016020810190614c2e919061771e565b7fffffffff0000000000000000000000000000000000000000000000000000000016815260208082019290925260409081016000908120939093558c8352600185019091529020600301898983818110614c8a57614c8a616726565b9050602002016020810190614c9f919061771e565b81546001810183556000928352602083206008820401805463ffffffff60079093166004026101000a928302191660e09390931c919091029190911790555b858583818110614cf057614cf0616726565b9050602002810190614d029190616aad565b90508110156150a0576000614d518c888886818110614d2357614d23616726565b9050602002810190614d359190616aad565b85818110614d4557614d45616726565b90506020020135611d28565b8051909150614dbc576040517f08c379a000000000000000000000000000000000000000000000000000000000815260206004820152600c60248201527f496e76616c69642052756c6500000000000000000000000000000000000000006044820152606401611685565b60005b81602001516040015151811015614fcf578160200151604001518181518110614dea57614dea616726565b60200260200101516060015115614ece57614e3c8d8360200151604001518381518110614e1957614e19616726565b6020026020010151602001516fffffffffffffffffffffffffffffffff16614032565b51614ec9576040517f08c379a000000000000000000000000000000000000000000000000000000000815260206004820152602760248201527f466f726569676e2043616c6c207265666572656e63656420696e2072756c652060448201527f6e6f7420736574000000000000000000000000000000000000000000000000006064820152608401611685565b614fc7565b8160200151604001518181518110614ee857614ee8616726565b60200260200101516040015115614fc757614f3a8d8360200151604001518381518110614f1757614f17616726565b6020026020010151602001516fffffffffffffffffffffffffffffffff16612653565b51614fc7576040517f08c379a000000000000000000000000000000000000000000000000000000000815260206004820152602260248201527f547261636b6572207265666572656e63656420696e2072756c65206e6f74207360448201527f65740000000000000000000000000000000000000000000000000000000000006064820152608401611685565b600101614dbf565b5060008c81526001850160205260408120600201908c8c86818110614ff657614ff6616726565b905060200201602081019061500b919061771e565b7fffffffff00000000000000000000000000000000000000000000000000000000168152602081019190915260400160002087878581811061504f5761504f616726565b90506020028101906150619190616aad565b8481811061507157615071616726565b835460018082018655600095865260209586902092909502939093013592019190915550919091019050614cde565b50600101614b40565b5061524d565b60005b8781101561524b576150d08a888884818110614b5e57614b5e616726565b51615137576040517f08c379a000000000000000000000000000000000000000000000000000000000815260206004820152601160248201527f496e76616c6964205369676e61747572650000000000000000000000000000006044820152606401611685565b86868281811061514957615149616726565b905060200201358260010160008c815260200190815260200160002060010160000160008b8b8581811061517f5761517f616726565b9050602002016020810190615194919061771e565b7fffffffff0000000000000000000000000000000000000000000000000000000016815260208082019290925260409081016000908120939093558c83526001850190915290206003018989838181106151f0576151f0616726565b9050602002016020810190615205919061771e565b815460018082018455600093845260209093206008820401805463ffffffff60079093166004026101000a928302191660e09390931c91909102919091179055016150b2565b505b5096979650505050505050565b600080611d2260017f438102ff677bc3f21830c58117a05d6b953b31e3ea339da3f17957cd3941a690616a4f565b600080611d2260017f8b87534450a5488e76eda19b94ce784ed5d5fd327ac126c78047b6b2a04cf2f6616a4f565b600080611d2260017f1544053a94493269e0aa160e5aa5b54d19ee6492c78b8bd3af283b912c78cdeb616a4f565b60018082526000848152908501602090815260408083208584528252909120825181549015157fffffffffffffffffffffffffffffffffffffffffffffffffffffffffffffff00821681178355928401518493909183917fffffffffffffffffffffffffffffffffffffffffffffffffffffffffffff00ff167fffffffffffffffffffffffffffffffffffffffffffffffffffffffffffff000090911617610100836007811115615397576153976157ed565b0217905550604082015160018201906153b09082617739565b50505050505050565b600080611d2260017fbe498a3b14fd79a48c3c9af86ff14271ed497d09071013334028d28e7791db20616a4f565b6040518060c001604052806060815260200161541d60405180606001604052806060815260200160608152602001606081525090565b8152602001606081526020016060815260200160608152602001606081525090565b604051806040016040528060001515815260200161545b6153e7565b905290565b82805482825590600052602060002090810192821561549b579160200282015b8281111561549b578251825591602001919060010190615480565b506154a79291506156c3565b5090565b82805482825590600052602060002090601f0160209004810192821561549b5791602002820160005b8382111561552057835183826101000a81548160ff021916908360078111156154ff576154ff6157ed565b021790555092602001926001016020816000010492830192600103026154d4565b801561554d5782816101000a81549060ff0219169055600101602081600001049283019260010302615520565b50506154a79291506156c3565b508054600082559060005260206000209081019061557891906156c3565b50565b50805460008255601f01602090049060005260206000209081019061557891906156c3565b508054600082559060005260206000209081019061557891906156d8565b508054600082559060005260206000209081019061557891906156f5565b5080546000825560050290600052602060002090810190615578919061572c565b50805460008255600701600890049060005260206000209081019061557891906156c3565b50805461562e90616755565b6000825580601f1061563e575050565b601f01602090049060005260206000209081019061557891906156c3565b82805482825590600052602060002090601f0160209004810192821561549b5791602002820160005b8382111561552057835183826101000a81548160ff021916908360ff1602179055509260200192600101602081600001049283019260010302615685565b5b808211156154a757600081556001016156c4565b808211156154a75760006156ec8282615622565b506001016156d8565b5b808211156154a75780547fffffffffffffffffffffffffff000000000000000000000000000000000000001681556001016156f6565b808211156154a75780547fffffffffffffffffffffffffffffffffffffffffffffffffffffffff0000000016815560006157696001830182615622565b60028201600090556003820160006157819190615622565b61578f60048301600061555a565b5060050161572c565b6000602082840312156157aa57600080fd5b5035919050565b600081518084526020840193506020830160005b828110156157e35781518652602095860195909101906001016157c5565b5093949350505050565b7f4e487b7100000000000000000000000000000000000000000000000000000000600052602160045260246000fd5b6008811061582c5761582c6157ed565b9052565b600081518084526020840193506020830160005b828110156157e35761585786835161581c565b6020958601959190910190600101615844565b60005b8381101561588557818101518382015260200161586d565b50506000910152565b600081518084526158a681602086016020860161586a565b601f017fffffffffffffffffffffffffffffffffffffffffffffffffffffffffffffffe0169290920160200192915050565b600081518084526020840193506020830160005b828110156157e357815161590187825161581c565b6fffffffffffffffffffffffffffffffff6020820151166020880152604081015115156040880152606081015115156060880152506080860195506020820191506001810190506158ec565b6003811061582c5761582c6157ed565b600082825180855260208501945060208160051b8301016020850160005b83811015615a5e578483037fffffffffffffffffffffffffffffffffffffffffffffffffffffffffffffffe0018852815180511515845260208101516159c5602086018215159052565b5060408101516159d8604086018261594d565b5060608101516159eb606086018261581c565b5060808101516101006080860152615a0761010086018261588e565b905060a082015160a086015260c082015185820360c0870152615a2a828261588e565b91505060e0820151915084810360e0860152615a4681836157b1565b60209a8b019a9095509390930192505060010161597b565b50909695505050505050565b6000815160c08452615a7f60c08501826157b1565b905060208301518482036020860152805160608352615aa160608401826157b1565b905060208201518382036020850152615aba8282615830565b915050604082015191508281036040840152809250815180825260208201935060208160051b83010160208401935060005b82811015615b3b577fffffffffffffffffffffffffffffffffffffffffffffffffffffffffffffffe0848303018652615b2682865161588e565b60209687019695909501949150600101615aec565b50604087015194508781036040890152615b5581866158d8565b94505050505060608301518482036060860152615b7282826158d8565b91505060808301518482036080860152615b8c828261595d565b91505060a083015184820360a0860152615ba6828261595d565b95945050505050565b6000602082016020835280845180835260408501915060408160051b86010192506020860160005b82811015615c8b578685037fffffffffffffffffffffffffffffffffffffffffffffffffffffffffffffffc0018452815180518087526020918201918088019190600582901b89010160005b82811015615c72577fffffffffffffffffffffffffffffffffffffffffffffffffffffffffffffffe08a8303018452615c5d828651615a6a565b60209586019594909401939150600101615c23565b5097505050602094850194929092019150600101615bd7565b50929695505050505050565b6060808252845190820181905260009060208601906080840190835b81811015615cf35783517fffffffff0000000000000000000000000000000000000000000000000000000016835260209384019390920191600101615cb3565b50508381036020850152615d0781876157b1565b915050828103604084015280845180835260208301915060208160051b8401016020870160005b83811015615d7e577fffffffffffffffffffffffffffffffffffffffffffffffffffffffffffffffe0868403018552615d688383516157b1565b6020958601959093509190910190600101615d2e565b50909998505050505050505050565b600060e08284031215615d9f57600080fd5b50919050565b60008060408385031215615db857600080fd5b82359150602083013567ffffffffffffffff811115615dd657600080fd5b615de285828601615d8d565b9150509250929050565b600060c08284031215615d9f57600080fd5b600080600060608486031215615e1357600080fd5b8335925060208401359150604084013567ffffffffffffffff811115615e3857600080fd5b615e4486828701615dec565b9150509250925092565b60008083601f840112615e6057600080fd5b50813567ffffffffffffffff811115615e7857600080fd5b6020830191508360208260051b8501011115615e9357600080fd5b9250929050565b60008060008060008060006080888a031215615eb557600080fd5b87359650602088013567ffffffffffffffff811115615ed357600080fd5b615edf8a828b01615e4e565b909750955050604088013567ffffffffffffffff811115615eff57600080fd5b615f0b8a828b01615e4e565b909550935050606088013567ffffffffffffffff811115615f2b57600080fd5b615f378a828b01615e4e565b989b979a50959850939692959293505050565b80511515825260006020820151615f64602085018261581c565b50604082015160606040850152615f7e606085018261588e565b949350505050565b6000602082016020835280845180835260408501915060408160051b86010192506020860160005b82811015615c8b577fffffffffffffffffffffffffffffffffffffffffffffffffffffffffffffffc0878603018452615fe8858351615f4a565b94506020938401939190910190600101615fae565b6000806040838503121561601057600080fd5b50508035926020909101359150565b8051151582527fffffffff0000000000000000000000000000000000000000000000000000000060208201511660208301526000604082015160606040850152615f7e6060850182615830565b60208152600061607f602083018461601f565b9392505050565b6020815281511515602082015260006020830151604080840152615f7e6060840182615a6a565b60208152600061607f6020830184615f4a565b803573ffffffffffffffffffffffffffffffffffffffff811681146160e457600080fd5b919050565b6000806000604084860312156160fe57600080fd5b616107846160c0565b9250602084013567ffffffffffffffff81111561612357600080fd5b61612f86828701615e4e565b9497909650939450505050565b80357fffffffff00000000000000000000000000000000000000000000000000000000811681146160e457600080fd5b7f4e487b7100000000000000000000000000000000000000000000000000000000600052604160045260246000fd5b60405160e0810167ffffffffffffffff811182821017156161be576161be61616c565b60405290565b6040516060810167ffffffffffffffff811182821017156161be576161be61616c565b604051601f82017fffffffffffffffffffffffffffffffffffffffffffffffffffffffffffffffe016810167ffffffffffffffff8111828210171561622e5761622e61616c565b604052919050565b600067ffffffffffffffff8211156162505761625061616c565b5060051b60200190565b6008811061557857600080fd5b80356160e48161625a565b600082601f83011261628357600080fd5b813561629661629182616236565b6161e7565b8082825260208201915060208360051b8601019250858311156162b857600080fd5b602085015b838110156162de5780356162d08161625a565b8352602092830192016162bd565b5095945050505050565b6000806000606084860312156162fd57600080fd5b8335925061630d6020850161613c565b9150604084013567ffffffffffffffff81111561632957600080fd5b615e4486828701616272565b600081518084526020840193506020830160005b828110156157e357815160ff16865260209586019590910190600101616349565b80511515825273ffffffffffffffffffffffffffffffffffffffff60208201511660208301527fffffffff000000000000000000000000000000000000000000000000000000006040820151166040830152600060608201516163d0606085018261581c565b506080820151608084015260a082015160e060a08501526163f460e0850182615830565b905060c083015184820360c0860152615ba68282616335565b6000602082016020835280845180835260408501915060408160051b86010192506020860160005b82811015615c8b577fffffffffffffffffffffffffffffffffffffffffffffffffffffffffffffffc087860301845261646f85835161636a565b94506020938401939190910190600101616435565b6000806040838503121561649757600080fd5b82359150602083013567ffffffffffffffff8111156164b557600080fd5b615de285828601615dec565b600080600080608085870312156164d757600080fd5b84359350602085013592506164ee6040860161613c565b9150606085013567ffffffffffffffff81111561650a57600080fd5b61651687828801616272565b91505092959194509250565b60008060006060848603121561653757600080fd5b8335925060208401359150604084013567ffffffffffffffff81111561655c57600080fd5b615e4486828701615d8d565b60208152600061607f602083018461636a565b600060608284031215615d9f57600080fd5b600080604083850312156165a057600080fd5b82359150602083013567ffffffffffffffff8111156165be57600080fd5b615de28582860161657b565b6000806000606084860312156165df57600080fd5b8335925060208401359150604084013567ffffffffffffffff81111561660457600080fd5b615e448682870161657b565b6000806000806040858703121561662657600080fd5b843567ffffffffffffffff81111561663d57600080fd5b61664987828801615e4e565b909550935050602085013567ffffffffffffffff81111561666957600080fd5b61667587828801615e4e565b95989497509550505050565b60006020828403121561669357600080fd5b61607f826160c0565b60208152600061607f60208301846157b1565b6000602082016020835280845180835260408501915060408160051b86010192506020860160005b82811015615c8b577fffffffffffffffffffffffffffffffffffffffffffffffffffffffffffffffc087860301845261671185835161601f565b945060209384019391909101906001016166d7565b7f4e487b7100000000000000000000000000000000000000000000000000000000600052603260045260246000fd5b600181811c9082168061676957607f821691505b602082108103615d9f577f4e487b7100000000000000000000000000000000000000000000000000000000600052602260045260246000fd5b7f4e487b7100000000000000000000000000000000000000000000000000000000600052601160045260246000fd5b60007fffffffffffffffffffffffffffffffffffffffffffffffffffffffffffffffff8203616802576168026167a2565b5060010190565b801515811461557857600080fd5b80356160e481616809565b600082601f83011261683357600080fd5b813561684161629182616236565b8082825260208201915060208360051b86010192508583111561686357600080fd5b602085015b838110156162de57803560ff8116811461688157600080fd5b835260209283019201616868565b600060e082360312156168a157600080fd5b6168a961619b565b6168b283616817565b81526168c0602084016160c0565b60208201526168d16040840161613c565b60408201526168e260608401616267565b60608201526080838101359082015260a083013567ffffffffffffffff81111561690b57600080fd5b61691736828601616272565b60a08301525060c083013567ffffffffffffffff81111561693757600080fd5b61694336828601616822565b60c08301525092915050565b60006060823603121561696157600080fd5b6169696161c4565b823561697481616809565b815260208301356169848161625a565b6020820152604083013567ffffffffffffffff8111156169a357600080fd5b830136601f8201126169b457600080fd5b803567ffffffffffffffff8111156169ce576169ce61616c565b6169ff60207fffffffffffffffffffffffffffffffffffffffffffffffffffffffffffffffe0601f840116016161e7565b818152366020838501011115616a1457600080fd5b8160208401602083013760009181016020019190915260408301525092915050565b600060208284031215616a4857600080fd5b5051919050565b81810381811115611d2257611d226167a2565b60008251616a7481846020870161586a565b9190910192915050565b7f4e487b7100000000000000000000000000000000000000000000000000000000600052600160045260246000fd5b60008083357fffffffffffffffffffffffffffffffffffffffffffffffffffffffffffffffe1843603018112616ae257600080fd5b83018035915067ffffffffffffffff821115616afd57600080fd5b6020019150600581901b3603821315615e9357600080fd5b5b81811015616b2a5760008155600101616b16565b5050565b68010000000000000000821115616b4757616b4761616c565b805482825580831015616b6d57816000526020600020616b6b828201858301616b15565b505b505050565b67ffffffffffffffff831115616b8a57616b8a61616c565b616b948382616b2e565b8181600052602060002060005b85811015616bbd57823582820155602090920191600101616ba1565b505050505050565b600082357fffffffffffffffffffffffffffffffffffffffffffffffffffffffffffffffa1833603018112616a7457600080fd5b68010000000000000000821115616c1257616c1261616c565b805482825580831015616b6d57816000526020600020601f840160051c8101601f85168015616c8e577fffffffffffffffffffffffffffffffffffffffffffffffffffffffffffffffff820180547fffffffffffffffffffffffffffffffffffffffffffffffffffffffffffffffff8360200360031b1c168155505b50614a22601f840160051c830182616b15565b60008135611d228161625a565b60008083357fffffffffffffffffffffffffffffffffffffffffffffffffffffffffffffffe1843603018112616ce357600080fd5b83018035915067ffffffffffffffff821115616cfe57600080fd5b602001915036819003821315615e9357600080fd5b616d1d8154616755565b8015616b2a57601f811160018114616d3757505060009055565b600083815260209020616d55601f840160051c820160018301616b15565b5060008381526020812081855555505050565b601f821115616b6d57806000526020600020601f840160051c81016020851015616d8f5750805b614a22601f850160051c830182616b15565b67ffffffffffffffff831115616db957616db961616c565b616dcd83616dc78354616755565b83616d68565b6000601f841160018114616e1f5760008515616de95750838201355b7fffffffffffffffffffffffffffffffffffffffffffffffffffffffffffffffff600387901b1c1916600186901b178355614a22565b6000838152602090207fffffffffffffffffffffffffffffffffffffffffffffffffffffffffffffffe0861690835b82811015616e6e5786850135825560209485019460019092019101616e4e565b5086821015616ea9577fffffffffffffffffffffffffffffffffffffffffffffffffffffffffffffffff60f88860031b161c19848701351681555b505060018560011b0183555050505050565b68010000000000000000831115616ed457616ed461616c565b805483825580841015616f10576000828152602090208481019082015b80821015616f0d57616f0282616d13565b600182019150616ef1565b50505b5060008181526020812083915b85811015616bbd57616f2f8386616cae565b616f3a818386616da1565b50506020929092019160019182019101616f1d565b616f598283616aad565b67ffffffffffffffff811115616f7157616f7161616c565b616f7b8184616b2e565b82600052602060002060005b82811015616fa357833582820155602090930192600101616f87565b5050505060018101616fb86020840184616aad565b67ffffffffffffffff811115616fd057616fd061616c565b616fda8184616bf9565b60008381526020902092508060051c60005b81811015617042576000805b60208110156170355761702461700d87616ca1565b60ff908116600384901b90811b91901b1984161790565b602096909601959150600101616ff8565b5085820155600101616fec565b507fffffffffffffffffffffffffffffffffffffffffffffffffffffffffffffffe0821680830381841461709f576000805b828110156170995761708861700d88616ca1565b602097909701969150600101617074565b50868401555b5050505050506170b26040830183616aad565b616b6b818360028601616ebb565b60008083357fffffffffffffffffffffffffffffffffffffffffffffffffffffffffffffffe18436030181126170f557600080fd5b83018035915067ffffffffffffffff82111561711057600080fd5b6020019150600781901b3603821315615e9357600080fd5b60008135611d2281616809565b81356171408161625a565b60088110617150576171506157ed565b815460ff82169150817fffffffffffffffffffffffffffffffffffffffffffffffffffffffffffffff00821617835560208401356fffffffffffffffffffffffffffffffff811681146171a257600080fd5b70ffffffffffffffffffffffffffffffff008160081b16837fffffffffffffffffffffffffffffff0000000000000000000000000000000000841617178455505050600060408301356171f481616809565b82547fffffffffffffffffffffffffffff00ffffffffffffffffffffffffffffffffff1690151560881b71ff00000000000000000000000000000000001617825550616b2a61724560608401617128565b8280547fffffffffffffffffffffffffff00ffffffffffffffffffffffffffffffffffff1691151560901b72ff00000000000000000000000000000000000016919091179055565b680100000000000000008311156172a6576172a661616c565b8054838255808410156172dd576000828152602090208481019082015b808210156172da57600082556001820191506172c3565b50505b5060008181526020812083915b85811015616bbd576172fc8383617135565b60809290920191600191820191016172ea565b600082357fffffffffffffffffffffffffffffffffffffffffffffffffffffffffffffff01833603018112616a7457600080fd5b8054600082558015616b2a57816000526020600020616b6d82820182616b15565b6000813560038110611d2257600080fd5b60038210617385576173856157ed565b805462ff00008360101b167fffffffffffffffffffffffffffffffffffffffffffffffffffffffffff00ffff8216178255505050565b600882106173cb576173cb6157ed565b805463ff0000008360181b167fffffffffffffffffffffffffffffffffffffffffffffffffffffffff00ffffff8216178255505050565b813561740d81616809565b7fffffffffffffffffffffffffffffffffffffffffffffffffffffffffffffff0082541660ff8215151681178355505061748361744c60208401617128565b8280547fffffffffffffffffffffffffffffffffffffffffffffffffffffffffffff00ff1691151560081b61ff0016919091179055565b61749861749260408401617364565b82617375565b6174ad6174a760608401616ca1565b826173bb565b6174ba6080830183616cae565b6174c8818360018601616da1565b505060a082013560028201556174e160c0830183616cae565b6174ef818360038601616da1565b50506174fe60e0830183616aad565b616b6b818360048601616b72565b680100000000000000008311156175255761752561616c565b8054838255808410156175fd5780600502600581048214617548576175486167a2565b8460050260058104861461755e5761755e6167a2565b60008481526020902091820191015b818110156175fa576000815561758560018201616d13565b600060028201556003810161759a8154616755565b80156175e457601f8111600181146175b557600083556175e2565b6000838152602090206175d3601f840160051c820160018301616b15565b50600083815260208120818555555b505b50506175f260048201617343565b60050161756d565b50505b5060008181526020812083915b85811015616bbd5761762561761f848761730f565b83617402565b602092909201916005919091019060010161760a565b6176458283616aad565b67ffffffffffffffff81111561765d5761765d61616c565b6176678184616b2e565b82600052602060002060005b8281101561768f57833582820155602090930192600101617673565b505050506176ac6176a36020840184616bc5565b60018301616f4f565b6176b960408301836170c0565b6176c781836004860161728d565b50506176d660608301836170c0565b6176e481836005860161728d565b50506176f36080830183616aad565b61770181836006860161750c565b505061771060a0830183616aad565b616b6b81836007860161750c565b60006020828403121561773057600080fd5b61607f8261613c565b815167ffffffffffffffff8111156177535761775361616c565b617767816177618454616755565b84616d68565b6020601f8211600181146177b957600083156177835750848201515b7fffffffffffffffffffffffffffffffffffffffffffffffffffffffffffffffff600385901b1c1916600184901b178455614a22565b6000848152602081207fffffffffffffffffffffffffffffffffffffffffffffffffffffffffffffffe08516915b8281101561780757878501518255602094850194600190920191016177e7565b508482101561784357868401517fffffffffffffffffffffffffffffffffffffffffffffffffffffffffffffffff600387901b60f8161c191681555b50505050600190811b0190555056fea26469706673582212204dff72c19e55ceb6b3890b668dbf33b35013e52f2dfe96c142260dbce400d81c64736f6c634300081c0033","linkReferences":{}},"methodIdentifiers":{"applyPolicy(address,uint256[])":"9228303f","createForeignCall(uint256,(bool,address,bytes4,uint8,uint256,uint8[],uint8[]))":"2e4c803b","createFunctionSignature(uint256,bytes4,uint8[])":"9fe9c9b8","createPolicy((bool,bytes4,uint8[])[],(uint256[],(uint256[],uint8[],bytes[]),(uint8,uint128,bool,bool)[],(uint8,uint128,bool,bool)[],(bool,bool,uint8,uint8,bytes,bytes32,string,uint256[])[],(bool,bool,uint8,uint8,bytes,bytes32,string,uint256[])[])[])":"d5d9c9f4","createRule(uint256,(uint256[],(uint256[],uint8[],bytes[]),(uint8,uint128,bool,bool)[],(uint8,uint128,bool,bool)[],(bool,bool,uint8,uint8,bytes,bytes32,string,uint256[])[],(bool,bool,uint8,uint8,bytes,bytes32,string,uint256[])[]))":"bc9b94eb","createTracker(uint256,(bool,uint8,bytes))":"cd42bcf8","deleteForeignCall(uint256,uint256)":"d82260c8","deleteFunctionSignature(uint256,uint256)":"a626bb8d","deletePolicy(uint256)":"fed27c8f","deleteRule(uint256,uint256)":"a31c8ebb","deleteTracker(uint256,uint256)":"a82c9e07","getAllForeignCalls(uint256)":"a3937e99","getAllFunctionSignatures(uint256)":"e7e31b31","getAllRules(uint256)":"266fc8a5","getAllTrackers(uint256)":"56f3b05f","getAppliedPolicyIds(address)":"e3749023","getForeignCall(uint256,uint256)":"da7d5d28","getFunctionSignature(uint256,uint256)":"660dac4d","getPolicy(uint256)":"2b07fce3","getRule(uint256,uint256)":"6d279ef8","getTracker(uint256,uint256)":"72a340d7","updateForeignCall(uint256,uint256,(bool,address,bytes4,uint8,uint256,uint8[],uint8[]))":"c017d300","updateFunctionSignature(uint256,uint256,bytes4,uint8[])":"bcb01c22","updatePolicy(uint256,bytes4[],uint256[],uint256[][])":"50a9f0d4","updateRule(uint256,uint256,(uint256[],(uint256[],uint8[],bytes[]),(uint8,uint128,bool,bool)[],(uint8,uint128,bool,bool)[],(bool,bool,uint8,uint8,bytes,bytes32,string,uint256[])[],(bool,bool,uint8,uint8,bytes,bytes32,string,uint256[])[]))":"37794b07","updateTracker(uint256,uint256,(bool,uint8,bytes))":"cf7c6728"},"id":79}