{"abi":[{"type":"function","name":"assemblyEncode","inputs":[{"name":"parameterTypes","type":"uint8[]","internalType":"enum PT[]"},{"name":"values","type":"bytes[]","internalType":"bytes[]"},{"name":"selector","type":"bytes4","internalType":"bytes4"},{"name":"dynamicVarLengths","type":"uint256[]","internalType":"uint256[]"}],"outputs":[{"name":"encoded","type":"bytes","internalType":"bytes"}],"stateMutability":"pure"},{"type":"function","name":"bool2ui","inputs":[{"name":"x","type":"bool","internalType":"bool"}],"outputs":[{"name":"ans","type":"uint256","internalType":"uint256"}],"stateMutability":"pure"},{"type":"function","name":"buildArguments","inputs":[{"name":"_policyId","type":"uint256","internalType":"uint256"},{"name":"placeHolders","type":"tuple[]","internalType":"struct Placeholder[]","components":[{"name":"pType","type":"uint8","internalType":"enum PT"},{"name":"typeSpecificIndex","type":"uint256","internalType":"uint256"},{"name":"trackerValue","type":"bool","internalType":"bool"},{"name":"foreignCall","type":"bool","internalType":"bool"}]},{"name":"fcArgs","type":"tuple[]","internalType":"struct ForeignCallArgumentMappings[]","components":[{"name":"foreignCallIndex","type":"uint256","internalType":"uint256"},{"name":"mappings","type":"tuple[]","internalType":"struct IndividualArgumentMapping[]","components":[{"name":"functionCallArgumentType","type":"uint8","internalType":"enum PT"},{"name":"functionSignatureArg","type":"tuple","internalType":"struct Placeholder","components":[{"name":"pType","type":"uint8","internalType":"enum PT"},{"name":"typeSpecificIndex","type":"uint256","internalType":"uint256"},{"name":"trackerValue","type":"bool","internalType":"bool"},{"name":"foreignCall","type":"bool","internalType":"bool"}]}]}]},{"name":"functionSignatureArgs","type":"tuple","internalType":"struct Arguments","components":[{"name":"argumentTypes","type":"uint8[]","internalType":"enum PT[]"},{"name":"values","type":"bytes[]","internalType":"bytes[]"}]}],"outputs":[{"name":"","type":"tuple","internalType":"struct Arguments","components":[{"name":"argumentTypes","type":"uint8[]","internalType":"enum PT[]"},{"name":"values","type":"bytes[]","internalType":"bytes[]"}]}],"stateMutability":"nonpayable"},{"type":"function","name":"checkPolicies","inputs":[{"name":"contractAddress","type":"address","internalType":"address"},{"name":"functionSignature","type":"bytes","internalType":"bytes"},{"name":"arguments","type":"bytes","internalType":"bytes"}],"outputs":[{"name":"retVal","type":"uint256","internalType":"uint256"}],"stateMutability":"nonpayable"},{"type":"function","name":"doEffects","inputs":[{"name":"_policyId","type":"uint256","internalType":"uint256"},{"name":"_effects","type":"tuple[]","internalType":"struct Effect[]","components":[{"name":"valid","type":"bool","internalType":"bool"},{"name":"effectType","type":"uint8","internalType":"enum ET"},{"name":"text","type":"string","internalType":"string"},{"name":"instructionSet","type":"uint256[]","internalType":"uint256[]"}]},{"name":"applicableRule","type":"tuple","internalType":"struct Rule","components":[{"name":"instructionSet","type":"uint256[]","internalType":"uint256[]"},{"name":"rawData","type":"tuple","internalType":"struct RawData","components":[{"name":"instructionSetIndex","type":"uint256[]","internalType":"uint256[]"},{"name":"argumentTypes","type":"uint8[]","internalType":"enum PT[]"},{"name":"dataValues","type":"bytes[]","internalType":"bytes[]"}]},{"name":"placeHolders","type":"tuple[]","internalType":"struct Placeholder[]","components":[{"name":"pType","type":"uint8","internalType":"enum PT"},{"name":"typeSpecificIndex","type":"uint256","internalType":"uint256"},{"name":"trackerValue","type":"bool","internalType":"bool"},{"name":"foreignCall","type":"bool","internalType":"bool"}]},{"name":"effectPlaceHolders","type":"tuple[]","internalType":"struct Placeholder[]","components":[{"name":"pType","type":"uint8","internalType":"enum PT"},{"name":"typeSpecificIndex","type":"uint256","internalType":"uint256"},{"name":"trackerValue","type":"bool","internalType":"bool"},{"name":"foreignCall","type":"bool","internalType":"bool"}]},{"name":"fcArgumentMappingsConditions","type":"tuple[]","internalType":"struct ForeignCallArgumentMappings[]","components":[{"name":"foreignCallIndex","type":"uint256","internalType":"uint256"},{"name":"mappings","type":"tuple[]","internalType":"struct IndividualArgumentMapping[]","components":[{"name":"functionCallArgumentType","type":"uint8","internalType":"enum PT"},{"name":"functionSignatureArg","type":"tuple","internalType":"struct Placeholder","components":[{"name":"pType","type":"uint8","internalType":"enum PT"},{"name":"typeSpecificIndex","type":"uint256","internalType":"uint256"},{"name":"trackerValue","type":"bool","internalType":"bool"},{"name":"foreignCall","type":"bool","internalType":"bool"}]}]}]},{"name":"fcArgumentMappingsEffects","type":"tuple[]","internalType":"struct ForeignCallArgumentMappings[]","components":[{"name":"foreignCallIndex","type":"uint256","internalType":"uint256"},{"name":"mappings","type":"tuple[]","internalType":"struct IndividualArgumentMapping[]","components":[{"name":"functionCallArgumentType","type":"uint8","internalType":"enum PT"},{"name":"functionSignatureArg","type":"tuple","internalType":"struct Placeholder","components":[{"name":"pType","type":"uint8","internalType":"enum PT"},{"name":"typeSpecificIndex","type":"uint256","internalType":"uint256"},{"name":"trackerValue","type":"bool","internalType":"bool"},{"name":"foreignCall","type":"bool","internalType":"bool"}]}]}]},{"name":"posEffects","type":"tuple[]","internalType":"struct Effect[]","components":[{"name":"valid","type":"bool","internalType":"bool"},{"name":"effectType","type":"uint8","internalType":"enum ET"},{"name":"text","type":"string","internalType":"string"},{"name":"instructionSet","type":"uint256[]","internalType":"uint256[]"}]},{"name":"negEffects","type":"tuple[]","internalType":"struct Effect[]","components":[{"name":"valid","type":"bool","internalType":"bool"},{"name":"effectType","type":"uint8","internalType":"enum ET"},{"name":"text","type":"string","internalType":"string"},{"name":"instructionSet","type":"uint256[]","internalType":"uint256[]"}]}]},{"name":"functionSignatureArgs","type":"tuple","internalType":"struct Arguments","components":[{"name":"argumentTypes","type":"uint8[]","internalType":"enum PT[]"},{"name":"values","type":"bytes[]","internalType":"bytes[]"}]}],"outputs":[],"stateMutability":"nonpayable"},{"type":"function","name":"evaluateExpression","inputs":[{"name":"_policyId","type":"uint256","internalType":"uint256"},{"name":"applicableRule","type":"tuple","internalType":"struct Rule","components":[{"name":"instructionSet","type":"uint256[]","internalType":"uint256[]"},{"name":"rawData","type":"tuple","internalType":"struct RawData","components":[{"name":"instructionSetIndex","type":"uint256[]","internalType":"uint256[]"},{"name":"argumentTypes","type":"uint8[]","internalType":"enum PT[]"},{"name":"dataValues","type":"bytes[]","internalType":"bytes[]"}]},{"name":"placeHolders","type":"tuple[]","internalType":"struct Placeholder[]","components":[{"name":"pType","type":"uint8","internalType":"enum PT"},{"name":"typeSpecificIndex","type":"uint256","internalType":"uint256"},{"name":"trackerValue","type":"bool","internalType":"bool"},{"name":"foreignCall","type":"bool","internalType":"bool"}]},{"name":"effectPlaceHolders","type":"tuple[]","internalType":"struct Placeholder[]","components":[{"name":"pType","type":"uint8","internalType":"enum PT"},{"name":"typeSpecificIndex","type":"uint256","internalType":"uint256"},{"name":"trackerValue","type":"bool","internalType":"bool"},{"name":"foreignCall","type":"bool","internalType":"bool"}]},{"name":"fcArgumentMappingsConditions","type":"tuple[]","internalType":"struct ForeignCallArgumentMappings[]","components":[{"name":"foreignCallIndex","type":"uint256","internalType":"uint256"},{"name":"mappings","type":"tuple[]","internalType":"struct IndividualArgumentMapping[]","components":[{"name":"functionCallArgumentType","type":"uint8","internalType":"enum PT"},{"name":"functionSignatureArg","type":"tuple","internalType":"struct Placeholder","components":[{"name":"pType","type":"uint8","internalType":"enum PT"},{"name":"typeSpecificIndex","type":"uint256","internalType":"uint256"},{"name":"trackerValue","type":"bool","internalType":"bool"},{"name":"foreignCall","type":"bool","internalType":"bool"}]}]}]},{"name":"fcArgumentMappingsEffects","type":"tuple[]","internalType":"struct ForeignCallArgumentMappings[]","components":[{"name":"foreignCallIndex","type":"uint256","internalType":"uint256"},{"name":"mappings","type":"tuple[]","internalType":"struct IndividualArgumentMapping[]","components":[{"name":"functionCallArgumentType","type":"uint8","internalType":"enum PT"},{"name":"functionSignatureArg","type":"tuple","internalType":"struct Placeholder","components":[{"name":"pType","type":"uint8","internalType":"enum PT"},{"name":"typeSpecificIndex","type":"uint256","internalType":"uint256"},{"name":"trackerValue","type":"bool","internalType":"bool"},{"name":"foreignCall","type":"bool","internalType":"bool"}]}]}]},{"name":"posEffects","type":"tuple[]","internalType":"struct Effect[]","components":[{"name":"valid","type":"bool","internalType":"bool"},{"name":"effectType","type":"uint8","internalType":"enum ET"},{"name":"text","type":"string","internalType":"string"},{"name":"instructionSet","type":"uint256[]","internalType":"uint256[]"}]},{"name":"negEffects","type":"tuple[]","internalType":"struct Effect[]","components":[{"name":"valid","type":"bool","internalType":"bool"},{"name":"effectType","type":"uint8","internalType":"enum ET"},{"name":"text","type":"string","internalType":"string"},{"name":"instructionSet","type":"uint256[]","internalType":"uint256[]"}]}]},{"name":"functionSignatureArgs","type":"tuple","internalType":"struct Arguments","components":[{"name":"argumentTypes","type":"uint8[]","internalType":"enum PT[]"},{"name":"values","type":"bytes[]","internalType":"bytes[]"}]},{"name":"instructionSet","type":"uint256[]","internalType":"uint256[]"}],"outputs":[],"stateMutability":"nonpayable"},{"type":"function","name":"evaluateForeignCallForRule","inputs":[{"name":"fc","type":"tuple","internalType":"struct ForeignCall","components":[{"name":"foreignCallAddress","type":"address","internalType":"address"},{"name":"foreignCallIndex","type":"uint256","internalType":"uint256"},{"name":"signature","type":"bytes4","internalType":"bytes4"},{"name":"returnType","type":"uint8","internalType":"enum PT"},{"name":"parameterTypes","type":"uint8[]","internalType":"enum PT[]"}]},{"name":"fcArgumentMappings","type":"tuple[]","internalType":"struct ForeignCallArgumentMappings[]","components":[{"name":"foreignCallIndex","type":"uint256","internalType":"uint256"},{"name":"mappings","type":"tuple[]","internalType":"struct IndividualArgumentMapping[]","components":[{"name":"functionCallArgumentType","type":"uint8","internalType":"enum PT"},{"name":"functionSignatureArg","type":"tuple","internalType":"struct Placeholder","components":[{"name":"pType","type":"uint8","internalType":"enum PT"},{"name":"typeSpecificIndex","type":"uint256","internalType":"uint256"},{"name":"trackerValue","type":"bool","internalType":"bool"},{"name":"foreignCall","type":"bool","internalType":"bool"}]}]}]},{"name":"functionArguments","type":"tuple","internalType":"struct Arguments","components":[{"name":"argumentTypes","type":"uint8[]","internalType":"enum PT[]"},{"name":"values","type":"bytes[]","internalType":"bytes[]"}]}],"outputs":[{"name":"retVal","type":"tuple","internalType":"struct ForeignCallReturnValue","components":[{"name":"pType","type":"uint8","internalType":"enum PT"},{"name":"value","type":"bytes","internalType":"bytes"}]}],"stateMutability":"nonpayable"},{"type":"function","name":"evaluateForeignCalls","inputs":[{"name":"_policyId","type":"uint256","internalType":"uint256"},{"name":"placeHolders","type":"tuple[]","internalType":"struct Placeholder[]","components":[{"name":"pType","type":"uint8","internalType":"enum PT"},{"name":"typeSpecificIndex","type":"uint256","internalType":"uint256"},{"name":"trackerValue","type":"bool","internalType":"bool"},{"name":"foreignCall","type":"bool","internalType":"bool"}]},{"name":"fcArgumentMappings","type":"tuple[]","internalType":"struct ForeignCallArgumentMappings[]","components":[{"name":"foreignCallIndex","type":"uint256","internalType":"uint256"},{"name":"mappings","type":"tuple[]","internalType":"struct IndividualArgumentMapping[]","components":[{"name":"functionCallArgumentType","type":"uint8","internalType":"enum PT"},{"name":"functionSignatureArg","type":"tuple","internalType":"struct Placeholder","components":[{"name":"pType","type":"uint8","internalType":"enum PT"},{"name":"typeSpecificIndex","type":"uint256","internalType":"uint256"},{"name":"trackerValue","type":"bool","internalType":"bool"},{"name":"foreignCall","type":"bool","internalType":"bool"}]}]}]},{"name":"functionSignatureArgs","type":"tuple","internalType":"struct Arguments","components":[{"name":"argumentTypes","type":"uint8[]","internalType":"enum PT[]"},{"name":"values","type":"bytes[]","internalType":"bytes[]"}]},{"name":"placeholderIndex","type":"uint256","internalType":"uint256"}],"outputs":[{"name":"returnValue","type":"tuple","internalType":"struct ForeignCallReturnValue","components":[{"name":"pType","type":"uint8","internalType":"enum PT"},{"name":"value","type":"bytes","internalType":"bytes"}]}],"stateMutability":"nonpayable"},{"type":"function","name":"evaluateRulesAndExecuteEffects","inputs":[{"name":"_policyId","type":"uint256","internalType":"uint256"},{"name":"applicableRules","type":"tuple[]","internalType":"struct Rule[]","components":[{"name":"instructionSet","type":"uint256[]","internalType":"uint256[]"},{"name":"rawData","type":"tuple","internalType":"struct RawData","components":[{"name":"instructionSetIndex","type":"uint256[]","internalType":"uint256[]"},{"name":"argumentTypes","type":"uint8[]","internalType":"enum PT[]"},{"name":"dataValues","type":"bytes[]","internalType":"bytes[]"}]},{"name":"placeHolders","type":"tuple[]","internalType":"struct Placeholder[]","components":[{"name":"pType","type":"uint8","internalType":"enum PT"},{"name":"typeSpecificIndex","type":"uint256","internalType":"uint256"},{"name":"trackerValue","type":"bool","internalType":"bool"},{"name":"foreignCall","type":"bool","internalType":"bool"}]},{"name":"effectPlaceHolders","type":"tuple[]","internalType":"struct Placeholder[]","components":[{"name":"pType","type":"uint8","internalType":"enum PT"},{"name":"typeSpecificIndex","type":"uint256","internalType":"uint256"},{"name":"trackerValue","type":"bool","internalType":"bool"},{"name":"foreignCall","type":"bool","internalType":"bool"}]},{"name":"fcArgumentMappingsConditions","type":"tuple[]","internalType":"struct ForeignCallArgumentMappings[]","components":[{"name":"foreignCallIndex","type":"uint256","internalType":"uint256"},{"name":"mappings","type":"tuple[]","internalType":"struct IndividualArgumentMapping[]","components":[{"name":"functionCallArgumentType","type":"uint8","internalType":"enum PT"},{"name":"functionSignatureArg","type":"tuple","internalType":"struct Placeholder","components":[{"name":"pType","type":"uint8","internalType":"enum PT"},{"name":"typeSpecificIndex","type":"uint256","internalType":"uint256"},{"name":"trackerValue","type":"bool","internalType":"bool"},{"name":"foreignCall","type":"bool","internalType":"bool"}]}]}]},{"name":"fcArgumentMappingsEffects","type":"tuple[]","internalType":"struct ForeignCallArgumentMappings[]","components":[{"name":"foreignCallIndex","type":"uint256","internalType":"uint256"},{"name":"mappings","type":"tuple[]","internalType":"struct IndividualArgumentMapping[]","components":[{"name":"functionCallArgumentType","type":"uint8","internalType":"enum PT"},{"name":"functionSignatureArg","type":"tuple","internalType":"struct Placeholder","components":[{"name":"pType","type":"uint8","internalType":"enum PT"},{"name":"typeSpecificIndex","type":"uint256","internalType":"uint256"},{"name":"trackerValue","type":"bool","internalType":"bool"},{"name":"foreignCall","type":"bool","internalType":"bool"}]}]}]},{"name":"posEffects","type":"tuple[]","internalType":"struct Effect[]","components":[{"name":"valid","type":"bool","internalType":"bool"},{"name":"effectType","type":"uint8","internalType":"enum ET"},{"name":"text","type":"string","internalType":"string"},{"name":"instructionSet","type":"uint256[]","internalType":"uint256[]"}]},{"name":"negEffects","type":"tuple[]","internalType":"struct Effect[]","components":[{"name":"valid","type":"bool","internalType":"bool"},{"name":"effectType","type":"uint8","internalType":"enum ET"},{"name":"text","type":"string","internalType":"string"},{"name":"instructionSet","type":"uint256[]","internalType":"uint256[]"}]}]},{"name":"functionSignatureArgs","type":"tuple","internalType":"struct Arguments","components":[{"name":"argumentTypes","type":"uint8[]","internalType":"enum PT[]"},{"name":"values","type":"bytes[]","internalType":"bytes[]"}]}],"outputs":[{"name":"retVal","type":"bool","internalType":"bool"}],"stateMutability":"nonpayable"},{"type":"function","name":"initialize","inputs":[{"name":"_owner","type":"address","internalType":"address"}],"outputs":[],"stateMutability":"nonpayable"},{"type":"function","name":"retrieveRawAddressFromInstructionSet","inputs":[{"name":"_ruleId","type":"uint256","internalType":"uint256"},{"name":"instructionSetId","type":"uint256","internalType":"uint256"}],"outputs":[{"name":"retVal","type":"tuple","internalType":"struct AddressVerificationStruct","components":[{"name":"instructionSetValue","type":"uint256","internalType":"uint256"},{"name":"rawData","type":"address","internalType":"address"}]}],"stateMutability":"view"},{"type":"function","name":"retrieveRawStringFromInstructionSet","inputs":[{"name":"_ruleId","type":"uint256","internalType":"uint256"},{"name":"instructionSetId","type":"uint256","internalType":"uint256"}],"outputs":[{"name":"retVal","type":"tuple","internalType":"struct StringVerificationStruct","components":[{"name":"instructionSetValue","type":"uint256","internalType":"uint256"},{"name":"rawData","type":"string","internalType":"string"}]}],"stateMutability":"view"},{"type":"function","name":"run","inputs":[{"name":"_policyId","type":"uint256","internalType":"uint256"},{"name":"prog","type":"uint256[]","internalType":"uint256[]"},{"name":"arguments","type":"tuple","internalType":"struct Arguments","components":[{"name":"argumentTypes","type":"uint8[]","internalType":"enum PT[]"},{"name":"values","type":"bytes[]","internalType":"bytes[]"}]}],"outputs":[{"name":"ans","type":"bool","internalType":"bool"}],"stateMutability":"nonpayable"},{"type":"function","name":"ui2bool","inputs":[{"name":"x","type":"uint256","internalType":"uint256"}],"outputs":[{"name":"ans","type":"bool","internalType":"bool"}],"stateMutability":"pure"},{"type":"event","name":"RulesEngineEvent","inputs":[{"name":"_message","type":"string","indexed":false,"internalType":"string"}],"anonymous":false}],"bytecode":{"object":"0x6080604052348015600f57600080fd5b506154eb8061001f6000396000f3fe608060405234801561001057600080fd5b50600436106100ea5760003560e01c80637e6382ac1161008c5780638d31335a116100665780638d31335a146101fe578063a6e481d31461021e578063c4d66de814610231578063c80388a21461024457600080fd5b80637e6382ac146101b75780638085367b146101ca57806386ff45ad146101eb57600080fd5b8063454ebe58116100c8578063454ebe581461014d5780634e9f6125146101705780634fefca38146101905780635fcaa1c9146101a357600080fd5b806301fa2e8d146100ef578063230db75e146101045780632f71833b1461012d575b600080fd5b6101026100fd3660046144bb565b61027b565b005b610117610112366004614589565b6104b9565b6040516101249190614706565b60405180910390f35b61014061013b36600461473a565b6108d3565b6040516101249190614897565b61016061015b3660046148aa565b610de8565b6040519015158152602001610124565b61018361017e36600461497d565b610f6c565b604051610124919061499f565b61010261019e3660046149c4565b610fb6565b6101606101b1366004614a53565b60011490565b6101606101c5366004614a6c565b611049565b6101dd6101d8366004614ae7565b6119e6565b604051908152602001610124565b6101dd6101f9366004614b45565b611a00565b61021161020c366004614bcb565b611a91565b6040516101249190614c55565b61011761022c366004614c68565b611c54565b61010261023f366004614d0b565b611e50565b61025761025236600461497d565b611efb565b60408051825181526020928301516001600160a01b03169281019290925201610124565b60005b838110156104b15784848281811061029857610298614d28565b90506020028101906102aa9190614d3e565b6102b8906020810190614ae7565b156104a95760008585838181106102d1576102d1614d28565b90506020028101906102e39190614d3e565b6102f4906040810190602001614d5e565b60028111156103055761030561468c565b0361037e5761037985858381811061031f5761031f614d28565b90506020028101906103319190614d3e565b61033f906040810190614d79565b8080601f016020809104026020016040519081016040528093929190818152602001838380828437600092019190915250611f4d92505050565b6104a9565b600185858381811061039257610392614d28565b90506020028101906103a49190614d3e565b6103b5906040810190602001614d5e565b60028111156103c6576103c661468c565b0361043a576103798585838181106103e0576103e0614d28565b90506020028101906103f29190614d3e565b610400906040810190614d79565b8080601f016020809104026020016040519081016040528093929190818152602001838380828437600092019190915250611f6792505050565b6104a986848488888681811061045257610452614d28565b90506020028101906104649190614d3e565b610472906060810190614dbf565b80806020026020016040519081016040528093929190818152602001838360200280828437600092019190915250610fb692505050565b60010161027e565b505050505050565b6040805180820190915260008152606060208201526000808360200151516001600160401b038111156104ee576104ee613bc8565b604051908082528060200260200182016040528015610517578160200160208202803683370190505b50905060008460200151516001600160401b0381111561053957610539613bc8565b60405190808252806020026020018201604052801561056c57816020015b60608152602001906001900390816105575790505b50905060008560200151516001600160401b0381111561058e5761058e613bc8565b6040519080825280602002602001820160405280156105b7578160200160208202803683370190505b50905060005b875181101561076f5788602001518882815181106105dd576105dd614d28565b602002602001015160000151036107675760005b88828151811061060357610603614d28565b6020026020010151602001515181101561076557600089838151811061062b5761062b614d28565b602002602001015160200151828151811061064857610648614d28565b6020026020010151600001519050600089602001518b858151811061066f5761066f614d28565b602002602001015160200151848151811061068c5761068c614d28565b60200260200101516020015160200151815181106106ac576106ac614d28565b60200260200101519050818584815181106106c9576106c9614d28565b602002602001019060058111156106e2576106e261468c565b908160058111156106f5576106f561468c565b815250508086848151811061070c5761070c614d28565b6020908102919091010152600182600581111561072b5761072b61468c565b0361075b57805187898151811061074457610744614d28565b602090810291909101015261075888614e1e565b97505b50506001016105f1565b505b6001016105bd565b50600061078282848b6040015187611a91565b90506000808a600001516001600160a01b0316836040516107a39190614e37565b6000604051808303816000865af19150503d80600081146107e0576040519150601f19603f3d011682016040523d82523d6000602084013e6107e5565b606091505b509150915081156108c55760038b6060015160058111156108085761080861468c565b0361082c578760035b908160058111156108245761082461468c565b9052506108bd565b60028b6060015160058111156108445761084461468c565b0361085157876002610811565b60018b6060015160058111156108695761086961468c565b0361087657876001610811565b60008b60600151600581111561088e5761088e61468c565b0361089b57876000610811565b60048b6060015160058111156108b3576108b361468c565b036108bd57600488525b602088018190525b505050505050509392505050565b6040805180820190915260608082526020820152604080518082019091526060808252602082015284516001600160401b0381111561091457610914613bc8565b60405190808252806020026020018201604052801561093d578160200160208202803683370190505b50815284516001600160401b0381111561095957610959613bc8565b60405190808252806020026020018201604052801561098c57816020015b60608152602001906001900390816109775790505b5060208201526000805b8651811015610ddc578681815181106109b1576109b1614d28565b60200260200101516060015115610a565760006109d18989898986611c54565b90508060000151846000015184815181106109ee576109ee614d28565b60200260200101906005811115610a0757610a0761468c565b90816005811115610a1a57610a1a61468c565b81525050806020015184602001518481518110610a3957610a39614d28565b602002602001018190525082610a4e90614e1e565b925050610dd4565b868181518110610a6857610a68614d28565b60200260200101516040015115610c1d576000610a83611fa1565b905060005b60008a8152600180840160205260409091200154811015610c165760008a81526001808401602052604090912001805482908110610ac857610ac8614d28565b60009182526020909120600290910201548551805160ff9092169186908110610af357610af3614d28565b60200260200101906005811115610b0c57610b0c61468c565b90816005811115610b1f57610b1f61468c565b90525060008a81526001808401602052604090912001805482908110610b4757610b47614d28565b90600052602060002090600202016001018054610b6390614e49565b80601f0160208091040260200160405190810160405280929190818152602001828054610b8f90614e49565b8015610bdc5780601f10610bb157610100808354040283529160200191610bdc565b820191906000526020600020905b815481529060010190602001808311610bbf57829003601f168201915b505050505085602001518581518110610bf757610bf7614d28565b602002602001018190525083610c0c90614e1e565b9350600101610a88565b5050610dd4565b6000878281518110610c3157610c31614d28565b6020026020010151600001516005811115610c4e57610c4e61468c565b03610c9f57600083600001518381518110610c6b57610c6b614d28565b60200260200101906005811115610c8457610c8461468c565b90816005811115610c9757610c9761468c565b905250610d6b565b6002878281518110610cb357610cb3614d28565b6020026020010151600001516005811115610cd057610cd061468c565b03610ced57600283600001518381518110610c6b57610c6b614d28565b6001878281518110610d0157610d01614d28565b6020026020010151600001516005811115610d1e57610d1e61468c565b03610d6b57600183600001518381518110610d3b57610d3b614d28565b60200260200101906005811115610d5457610d5461468c565b90816005811115610d6757610d6761468c565b9052505b8460200151878281518110610d8257610d82614d28565b60200260200101516020015181518110610d9e57610d9e614d28565b602002602001015183602001518381518110610dbc57610dbc614d28565b602002602001018190525081610dd190614e1e565b91505b600101610996565b50909695505050505050565b600160005b8351811015610f6457610e1a85858381518110610e0c57610e0c614d28565b602002602001015185611fd5565b610ec15760009150306001600160a01b03166301fa2e8d86868481518110610e4457610e44614d28565b602002602001015160e00151878581518110610e6257610e62614d28565b6020026020010151876040518563ffffffff1660e01b8152600401610e8a94939291906150bb565b600060405180830381600087803b158015610ea457600080fd5b505af1158015610eb8573d6000803e3d6000fd5b50505050610f5c565b306001600160a01b03166301fa2e8d86868481518110610ee357610ee3614d28565b602002602001015160c00151878581518110610f0157610f01614d28565b6020026020010151876040518563ffffffff1660e01b8152600401610f2994939291906150bb565b600060405180830381600087803b158015610f4357600080fd5b505af1158015610f57573d6000803e3d6000fd5b505050505b600101610ded565b509392505050565b604080518082019091526000815260606020820152600080610f908585600161205a565b9150915080806020019051810190610fa891906151c7565b602084015250815292915050565b6000610fcc8585606001518660a00151866108d3565b905060018251111561104257604051631f98e0ab60e21b81523090637e6382ac90610fff90889086908690600401615234565b6020604051808303816000875af115801561101e573d6000803e3d6000fd5b505050506040513d601f19601f820116820180604052508101906104b19190615269565b5050505050565b6000611053613af7565b6000805b858210156119bb5760008088888581811061107457611074614d28565b90506020020135600c81111561108c5761108c61468c565b9050600b81600c8111156110a2576110a261468c565b0361126c57600089896110b6876001615286565b8181106110c5576110c5614d28565b60200291909101359150600090506110dd8980614dbf565b838181106110ed576110ed614d28565b90506020020160208101906111029190615299565b905060008160058111156111185761111861468c565b036111765761112a60208a018a614dbf565b8381811061113a5761113a614d28565b905060200281019061114c9190614d79565b8101906111599190614d0b565b6001600160a01b0316935061116f600287615286565b9550611265565b600281600581111561118a5761118a61468c565b036111d85761119c60208a018a614dbf565b838181106111ac576111ac614d28565b90506020028101906111be9190614d79565b8101906111cb9190614a53565b935061116f600287615286565b60018160058111156111ec576111ec61468c565b03611265576111fe60208a018a614dbf565b8381811061120e5761120e614d28565b90506020028101906112209190614d79565b81019061122d91906152b4565b60405160200161123d9190614c55565b60408051601f1981840301815291905280516020909101209350611262600287615286565b95505b505061198f565b600c81600c8111156112805761128061468c565b036113e357600061128f611fa1565b905060028160010160008d81526020019081526020016000206001018b8b8860016112ba9190615286565b8181106112c9576112c9614d28565b90506020020135815481106112e0576112e0614d28565b600091825260209091206002909102015460ff1660058111156113055761130561468c565b036113d057858a8a611318886002615286565b81811061132757611327614d28565b905060200201356040811061133e5761133e614d28565b602002015160405160200161135591815260200190565b6040516020818303038152906040528160010160008d81526020019081526020016000206001018b8b88600161138b9190615286565b81811061139a5761139a614d28565b90506020020135815481106113b1576113b1614d28565b906000526020600020906002020160010190816113ce9190615334565b505b6113db600386615286565b94505061198f565b600081600c8111156113f7576113f761468c565b03611435578888611409866001615286565b81811061141857611418614d28565b90506020020135915060028461142e9190615286565b935061198f565b600181600c8111156114495761144961468c565b036114d75784898961145c876002615286565b81811061146b5761146b614d28565b905060200201356040811061148257611482614d28565b6020020151858a8a611495886001615286565b8181106114a4576114a4614d28565b90506020020135604081106114bb576114bb614d28565b60200201516114ca9190615286565b915061142e600385615286565b600281600c8111156114eb576114eb61468c565b0361156c578489896114fe876002615286565b81811061150d5761150d614d28565b905060200201356040811061152457611524614d28565b6020020151858a8a611537886001615286565b81811061154657611546614d28565b905060200201356040811061155d5761155d614d28565b60200201516114ca91906153f2565b600381600c8111156115805761158061468c565b0361160157848989611593876002615286565b8181106115a2576115a2614d28565b90506020020135604081106115b9576115b9614d28565b6020020151858a8a6115cc886001615286565b8181106115db576115db614d28565b90506020020135604081106115f2576115f2614d28565b60200201516114ca9190615405565b600481600c8111156116155761161561468c565b0361169657848989611628876002615286565b81811061163757611637614d28565b905060200201356040811061164e5761164e614d28565b6020020151858a8a611661886001615286565b81811061167057611670614d28565b905060200201356040811061168757611687614d28565b60200201516114ca919061541c565b600581600c8111156116aa576116aa61468c565b0361172a576114ca858a8a6116c0886002615286565b8181106116cf576116cf614d28565b90506020020135604081106116e6576116e6614d28565b6020020151868b8b6116f9896001615286565b81811061170857611708614d28565b905060200201356040811061171f5761171f614d28565b6020020151106119e6565b600681600c81111561173e5761173e61468c565b036117be576114ca858a8a611754886002615286565b81811061176357611763614d28565b905060200201356040811061177a5761177a614d28565b6020020151868b8b61178d896001615286565b81811061179c5761179c614d28565b90506020020135604081106117b3576117b3614d28565b6020020151116119e6565b600781600c8111156117d2576117d261468c565b03611852576114ca858a8a6117e8886002615286565b8181106117f7576117f7614d28565b905060200201356040811061180e5761180e614d28565b6020020151868b8b611821896001615286565b81811061183057611830614d28565b905060200201356040811061184757611847614d28565b6020020151146119e6565b600881600c8111156118665761186661468c565b036118c8576114ca6118b0868b8b61187f896001615286565b81811061188e5761188e614d28565b90506020020135604081106118a5576118a5614d28565b602002015160011490565b80156101d857506101d8868b8b61187f896002615286565b600981600c8111156118dc576118dc61468c565b0361190c576114ca6118f5868b8b61187f896001615286565b806101d857506101d8868b8b61187f896002615286565b600a81600c8111156119205761192061468c565b0361194c5761193f611939868b8b61187f896001615286565b156119e6565b915061142e600285615286565b60405162461bcd60e51b815260206004820152601360248201527224b63632b3b0b61034b739ba393ab1ba34b7b760691b60448201526064015b60405180910390fd5b818584604081106119a2576119a2614d28565b60200201526119b2600184615286565b92505050611057565b6119da836119ca6001846153f2565b604081106118a5576118a5614d28565b98975050505050505050565b6000816119f45760006119f7565b60015b60ff1692915050565b60016000611a0c612b8e565b905060005b6001600160a01b038816600090815260208390526040902054811015611a86576001600160a01b03881660009081526020839052604090208054611a75919083908110611a6057611a60614d28565b90600052602060002001548989898989612bbc565b611a7e57600092505b600101611a11565b505095945050505050565b60608351855114611aa457611aa461543e565b845182511115611ab657611ab661543e565b600085516020611ac69190615405565b9050600083516020611ad89190615405565b905060005b8451811015611b37576020858281518110611afa57611afa614d28565b6020026020010151601f611b0e9190615286565b611b18919061541c565b611b23906020615405565b611b2d9083615286565b9150600101611add565b5080820160040160405193508084528560208501528060200184016040525060048083016000805b8a51811015611c46576020810260208c0101516020820260208c0101518160008114611b9a5760018114611bb45760028114611c2757611c34565b6001600160a01b036020830151168760208c010152611c34565b600486038760208c0101526020840260208e0101516040810151808860208e0101526060820191506020880160208d01016020601f830104915060005b82811015611c0d57602081028481015190830152600101611bf1565b505060208102602001880197505050600185019450611c34565b60208201518760208c0101525b50505060209390930192600101611b5f565b505050505050949350505050565b6040805180820190915260008152606060208201526000611c73612df0565b905060005b6000888152600180840160205260409091200154811015611a8657868481518110611ca557611ca5614d28565b6020026020010151602001518260010160008a81526020019081526020016000206001018281548110611cda57611cda614d28565b90600052602060002090600402016001015403611e3f576000888152600180840160205260408220018054611e34919084908110611d1a57611d1a614d28565b60009182526020918290206040805160a081018252600490930290910180546001600160a01b0316835260018101549383019390935260028301546001600160e01b031960e082901b1691830191909152909190606083019060ff640100000000909104166005811115611d9057611d9061468c565b6005811115611da157611da161468c565b815260200160038201805480602002602001604051908101604052809291908181526020018280548015611e2457602002820191906000526020600020906000905b82829054906101000a900460ff166005811115611e0257611e0261468c565b815260206001928301818104948501949093039092029101808411611de35790505b50505050508152505088886104b9565b9350611e4792505050565b600101611c78565b95945050505050565b6000611e5a612e1e565b805490915060ff1615611ea45760405162461bcd60e51b8152602060048201526012602482015271105b1c9958591e525b9a5d1a585b1a5e995960721b6044820152606401611986565b6040516001600160a01b0383166024820152611ef59063f2fde38b60e01b9060440160408051601f198184030181529190526020810180516001600160e01b031663f2fde38b60e01b179052612e4c565b50505050565b6040805180820190915260008082526020820152600080611f1e8585600061205a565b9150915080806020019051810190611f369190615454565b6001600160a01b0316602084015250815292915050565b8060405162461bcd60e51b81526004016119869190614c55565b7f52894df7fe00b6fc7efac33cdc922cb2330fae87180401745d00a7a53ad30df981604051611f969190614c55565b60405180910390a150565b600080611fcf60017f438102ff677bc3f21830c58117a05d6b953b31e3ea339da3f17957cd3941a6906153f2565b92915050565b600080611fec8585604001518660800151866108d3565b8451604051631f98e0ab60e21b81529192503091637e6382ac91612017918991908690600401615234565b6020604051808303816000875af1158015612036573d6000803e3d6000fd5b505050506040513d601f19601f82011682018060405250810190611e479190615269565b600060606000612068612eee565b60008781526001918201602090815260409182902082518084018452815460ff161515815283519482018054610120818602880181019096526101008701818152929693959487019491928492909184918401828280156120e857602002820191906000526020600020905b8154815260200190600101908083116120d4575b50505050508152602001600182016040518060600160405290816000820180548060200260200160405190810160405280929190818152602001828054801561215057602002820191906000526020600020905b81548152602001906001019080831161213c575b50505050508152602001600182018054806020026020016040519081016040528092919081815260200182805480156121d857602002820191906000526020600020906000905b82829054906101000a900460ff1660058111156121b6576121b661468c565b8152602060019283018181049485019490930390920291018084116121975790505b5050505050815260200160028201805480602002602001604051908101604052809291908181526020016000905b828210156122b257838290600052602060002001805461222590614e49565b80601f016020809104026020016040519081016040528092919081815260200182805461225190614e49565b801561229e5780601f106122735761010080835404028352916020019161229e565b820191906000526020600020905b81548152906001019060200180831161228157829003601f168201915b505050505081526020019060010190612206565b5050505081525050815260200160048201805480602002602001604051908101604052809291908181526020016000905b82821015612370576000848152602090206040805160808101909152600384029091018054829060ff16600581111561231e5761231e61468c565b600581111561232f5761232f61468c565b815260018281015460208084019190915260029093015460ff80821615156040850152610100909104161515606090920191909152918352920191016122e3565b50505050815260200160058201805480602002602001604051908101604052809291908181526020016000905b8282101561242a576000848152602090206040805160808101909152600384029091018054829060ff1660058111156123d8576123d861468c565b60058111156123e9576123e961468c565b815260018281015460208084019190915260029093015460ff808216151560408501526101009091041615156060909201919091529183529201910161239d565b50505050815260200160068201805480602002602001604051908101604052809291908181526020016000905b8282101561259757838290600052602060002090600202016040518060400160405290816000820154815260200160018201805480602002602001604051908101604052809291908181526020016000905b828210156125805760008481526020902060408051808201909152600484029091018054829060ff1660058111156124e3576124e361468c565b60058111156124f4576124f461468c565b81526040805160808101909152600183018054602090930192829060ff1660058111156125235761252361468c565b60058111156125345761253461468c565b815260018281015460208084019190915260029093015460ff808216151560408501526101009091041615156060909201919091529190925292845293909101929190910190506124a9565b505050508152505081526020019060010190612457565b50505050815260200160078201805480602002602001604051908101604052809291908181526020016000905b8282101561270457838290600052602060002090600202016040518060400160405290816000820154815260200160018201805480602002602001604051908101604052809291908181526020016000905b828210156126ed5760008481526020902060408051808201909152600484029091018054829060ff1660058111156126505761265061468c565b60058111156126615761266161468c565b81526040805160808101909152600183018054602090930192829060ff1660058111156126905761269061468c565b60058111156126a1576126a161468c565b815260018281015460208084019190915260029093015460ff80821615156040850152610100909104161515606090920191909152919092529284529390910192919091019050612616565b5050505081525050815260200190600101906125c4565b50505050815260200160088201805480602002602001604051908101604052809291908181526020016000905b8282101561288f576000848152602090819020604080516080810190915260038502909101805460ff8082161515845292939192918401916101009091041660028111156127815761278161468c565b60028111156127925761279261468c565b81526020016001820180546127a690614e49565b80601f01602080910402602001604051908101604052809291908181526020018280546127d290614e49565b801561281f5780601f106127f45761010080835404028352916020019161281f565b820191906000526020600020905b81548152906001019060200180831161280257829003601f168201915b505050505081526020016002820180548060200260200160405190810160405280929190818152602001828054801561287757602002820191906000526020600020905b815481526020019060010190808311612863575b50505050508152505081526020019060010190612731565b50505050815260200160098201805480602002602001604051908101604052809291908181526020016000905b82821015612a1a576000848152602090819020604080516080810190915260038502909101805460ff80821615158452929391929184019161010090910416600281111561290c5761290c61468c565b600281111561291d5761291d61468c565b815260200160018201805461293190614e49565b80601f016020809104026020016040519081016040528092919081815260200182805461295d90614e49565b80156129aa5780601f1061297f576101008083540402835291602001916129aa565b820191906000526020600020905b81548152906001019060200180831161298d57829003601f168201915b5050505050815260200160028201805480602002602001604051908101604052809291908181526020018280548015612a0257602002820191906000526020600020905b8154815260200190600101908083116129ee575b505050505081525050815260200190600101906128bc565b505050915250509052508051909150612a645760405162461bcd60e51b815260206004820152600c60248201526b556e6b6e6f776e2052756c6560a01b6044820152606401611986565b60005b60208083015101515151811015612b845785826020015160200151600001518281518110612a9757612a97614d28565b602002602001015103612b7c57846005811115612ab657612ab661468c565b826020015160200151602001518281518110612ad457612ad4614d28565b60200260200101516005811115612aed57612aed61468c565b14612b2b5760405162461bcd60e51b815260206004820152600e60248201526d496e636f7272656374207479706560901b6044820152606401611986565b816020015160200151604001518181518110612b4957612b49614d28565b602002602001015192508160200151600001518681518110612b6d57612b6d614d28565b60200260200101519350612b84565b600101612a67565b5050935093915050565b600080611fcf60017f1544053a94493269e0aa160e5aa5b54d19ee6492c78b8bd3af283b912c78cdeb6153f2565b600080612bc7612f1c565b90506000612bd3612f4a565b60008a815260018401602052604090205490915060609060ff1615612dbc578160010160008460010160008d81526020019081526020016000206001016000018a8a604051612c23929190615471565b908152604080516020928190038301902054835290820192909252016000205460ff1615612dbc578160010160008460010160008d81526020019081526020016000206001016000018a8a604051612c7c929190615471565b9081526020016040518091039020548152602001908152602001600020600101805490506001600160401b03811115612cb757612cb7613bc8565b604051908082528060200260200182016040528015612ce0578160200160208202803683370190505b50905060005b8151811015612dba578260010160008560010160008e81526020019081526020016000206001016000018b8b604051612d20929190615471565b90815260200160405180910390205481526020019081526020016000206001018181548110612d5157612d51614d28565b90600052602060002090602091828204019190069054906101000a900460ff16828281518110612d8357612d83614d28565b60200260200101906005811115612d9c57612d9c61468c565b90816005811115612daf57612daf61468c565b905250600101612ce6565b505b6000612dca86880188615481565b9050612de18b612ddb8d8c8c612f78565b83610de8565b9b9a5050505050505050505050565b600080611fcf60017f1f3305601ed940efccf797d76856e5fe70659a8a6905d64c9f236321df91e7186153f2565b600080611fcf60017fe9b0251cee7e1bb8b178e56e954bef13496065e8dd664538ecbb99cf4ec347f36153f2565b600060606000612e5a613ac9565b6001600160e01b03198616600090815260208290526040908190205490519192506001600160a01b0316908190612e92908790614e37565b600060405180830381855af49150503d8060008114612ecd576040519150601f19603f3d011682016040523d82523d6000602084013e612ed2565b606091505b50909450925083612ee557825160208401fd5b50509250929050565b600080611fcf60017f5c91f63a4ffcbd372b8ec622fd1fcaaa601b66330afdb30e5c292dd9123f20b06153f2565b600080611fcf60017ff9dbd639dd2ea165d77dd4c51dec420100d51ceacf023b1c40faa045ba8f9a656153f2565b600080611fcf60017f8b87534450a5488e76eda19b94ce784ed5d5fd327ac126c78047b6b2a04cf2f66153f2565b60606000612f84612f1c565b905060008160010160008781526020019081526020016000206001016001018585604051612fb3929190615471565b908152604051908190036020019020546001600160401b03811115612fda57612fda613bc8565b60405190808252806020026020018201604052801561301357816020015b613000613b16565b815260200190600190039081612ff85790505b5090506000613020612eee565b905060005b8251811015610ddc578160010160008560010160008b8152602001908152602001600020600101600101898960405161305f929190615471565b9081526020016040518091039020838154811061307e5761307e614d28565b6000918252602080832090910154835282019290925260400190205460ff1615613ac1578160010160008560010160008b815260200190815260200160002060010160010189896040516130d3929190615471565b908152602001604051809103902083815481106130f2576130f2614d28565b90600052602060002001548152602001908152602001600020600101604051806101000160405290816000820180548060200260200160405190810160405280929190818152602001828054801561316957602002820191906000526020600020905b815481526020019060010190808311613155575b5050505050815260200160018201604051806060016040529081600082018054806020026020016040519081016040528092919081815260200182805480156131d157602002820191906000526020600020905b8154815260200190600101908083116131bd575b505050505081526020016001820180548060200260200160405190810160405280929190818152602001828054801561325957602002820191906000526020600020906000905b82829054906101000a900460ff1660058111156132375761323761468c565b8152602060019283018181049485019490930390920291018084116132185790505b5050505050815260200160028201805480602002602001604051908101604052809291908181526020016000905b828210156133335783829060005260206000200180546132a690614e49565b80601f01602080910402602001604051908101604052809291908181526020018280546132d290614e49565b801561331f5780601f106132f45761010080835404028352916020019161331f565b820191906000526020600020905b81548152906001019060200180831161330257829003601f168201915b505050505081526020019060010190613287565b5050505081525050815260200160048201805480602002602001604051908101604052809291908181526020016000905b828210156133f1576000848152602090206040805160808101909152600384029091018054829060ff16600581111561339f5761339f61468c565b60058111156133b0576133b061468c565b815260018281015460208084019190915260029093015460ff8082161515604085015261010090910416151560609092019190915291835292019101613364565b50505050815260200160058201805480602002602001604051908101604052809291908181526020016000905b828210156134ab576000848152602090206040805160808101909152600384029091018054829060ff1660058111156134595761345961468c565b600581111561346a5761346a61468c565b815260018281015460208084019190915260029093015460ff808216151560408501526101009091041615156060909201919091529183529201910161341e565b50505050815260200160068201805480602002602001604051908101604052809291908181526020016000905b8282101561361857838290600052602060002090600202016040518060400160405290816000820154815260200160018201805480602002602001604051908101604052809291908181526020016000905b828210156136015760008481526020902060408051808201909152600484029091018054829060ff1660058111156135645761356461468c565b60058111156135755761357561468c565b81526040805160808101909152600183018054602090930192829060ff1660058111156135a4576135a461468c565b60058111156135b5576135b561468c565b815260018281015460208084019190915260029093015460ff8082161515604085015261010090910416151560609092019190915291909252928452939091019291909101905061352a565b5050505081525050815260200190600101906134d8565b50505050815260200160078201805480602002602001604051908101604052809291908181526020016000905b8282101561378557838290600052602060002090600202016040518060400160405290816000820154815260200160018201805480602002602001604051908101604052809291908181526020016000905b8282101561376e5760008481526020902060408051808201909152600484029091018054829060ff1660058111156136d1576136d161468c565b60058111156136e2576136e261468c565b81526040805160808101909152600183018054602090930192829060ff1660058111156137115761371161468c565b60058111156137225761372261468c565b815260018281015460208084019190915260029093015460ff80821615156040850152610100909104161515606090920191909152919092529284529390910192919091019050613697565b505050508152505081526020019060010190613645565b50505050815260200160088201805480602002602001604051908101604052809291908181526020016000905b82821015613910576000848152602090819020604080516080810190915260038502909101805460ff8082161515845292939192918401916101009091041660028111156138025761380261468c565b60028111156138135761381361468c565b815260200160018201805461382790614e49565b80601f016020809104026020016040519081016040528092919081815260200182805461385390614e49565b80156138a05780601f10613875576101008083540402835291602001916138a0565b820191906000526020600020905b81548152906001019060200180831161388357829003601f168201915b50505050508152602001600282018054806020026020016040519081016040528092919081815260200182805480156138f857602002820191906000526020600020905b8154815260200190600101908083116138e4575b505050505081525050815260200190600101906137b2565b50505050815260200160098201805480602002602001604051908101604052809291908181526020016000905b82821015613a9b576000848152602090819020604080516080810190915260038502909101805460ff80821615158452929391929184019161010090910416600281111561398d5761398d61468c565b600281111561399e5761399e61468c565b81526020016001820180546139b290614e49565b80601f01602080910402602001604051908101604052809291908181526020018280546139de90614e49565b8015613a2b5780601f10613a0057610100808354040283529160200191613a2b565b820191906000526020600020905b815481529060010190602001808311613a0e57829003601f168201915b5050505050815260200160028201805480602002602001604051908101604052809291908181526020018280548015613a8357602002820191906000526020600020905b815481526020019060010190808311613a6f575b5050505050815250508152602001906001019061393d565b5050505081525050838281518110613ab557613ab5614d28565b60200260200101819052505b600101613025565b600080611fcf60017fbe498a3b14fd79a48c3c9af86ff14271ed497d09071013334028d28e7791db206153f2565b6040518061080001604052806040906020820280368337509192915050565b60405180610100016040528060608152602001613b4d60405180606001604052806060815260200160608152602001606081525090565b81526020016060815260200160608152602001606081526020016060815260200160608152602001606081525090565b60008083601f840112613b8f57600080fd5b5081356001600160401b03811115613ba657600080fd5b6020830191508360208260051b8501011115613bc157600080fd5b9250929050565b634e487b7160e01b600052604160045260246000fd5b604051608081016001600160401b0381118282101715613c0057613c00613bc8565b60405290565b604080519081016001600160401b0381118282101715613c0057613c00613bc8565b60405161010081016001600160401b0381118282101715613c0057613c00613bc8565b60405160a081016001600160401b0381118282101715613c0057613c00613bc8565b604051601f8201601f191681016001600160401b0381118282101715613c9557613c95613bc8565b604052919050565b60006001600160401b03821115613cb657613cb6613bc8565b5060051b60200190565b600082601f830112613cd157600080fd5b8135613ce4613cdf82613c9d565b613c6d565b8082825260208201915060208360051b860101925085831115613d0657600080fd5b602085015b83811015613d23578035835260209283019201613d0b565b5095945050505050565b803560068110613d3c57600080fd5b919050565b600082601f830112613d5257600080fd5b8135613d60613cdf82613c9d565b8082825260208201915060208360051b860101925085831115613d8257600080fd5b602085015b83811015613d2357613d9881613d2d565b835260209283019201613d87565b60006001600160401b03821115613dbf57613dbf613bc8565b50601f01601f191660200190565b6000613ddb613cdf84613da6565b9050828152838383011115613def57600080fd5b828260208301376000602084830101529392505050565b600082601f830112613e1757600080fd5b8135613e25613cdf82613c9d565b8082825260208201915060208360051b860101925085831115613e4757600080fd5b602085015b83811015613d235780356001600160401b03811115613e6a57600080fd5b8601603f81018813613e7b57600080fd5b613e8d88602083013560408401613dcd565b84525060209283019201613e4c565b600060608284031215613eae57600080fd5b604051606081016001600160401b0381118282101715613ed057613ed0613bc8565b60405290508082356001600160401b03811115613eec57600080fd5b613ef885828601613cc0565b82525060208301356001600160401b03811115613f1457600080fd5b613f2085828601613d41565b60208301525060408301356001600160401b03811115613f3f57600080fd5b613f4b85828601613e06565b6040830152505092915050565b8015158114613f6657600080fd5b50565b600060808284031215613f7b57600080fd5b613f83613bde565b9050613f8e82613d2d565b8152602082810135908201526040820135613fa881613f58565b60408201526060820135613fbb81613f58565b606082015292915050565b600082601f830112613fd757600080fd5b8135613fe5613cdf82613c9d565b8082825260208201915060208360071b86010192508583111561400757600080fd5b602085015b83811015613d235761401e8782613f69565b835260209092019160800161400c565b600082601f83011261403f57600080fd5b813561404d613cdf82613c9d565b8082825260208201915060208360051b86010192508583111561406f57600080fd5b602085015b83811015613d235780356001600160401b0381111561409257600080fd5b86016040818903601f190112156140a857600080fd5b6140b0613c06565b6020820135815260408201356001600160401b038111156140d057600080fd5b60208184010192505088601f8301126140e857600080fd5b81356140f6613cdf82613c9d565b80828252602082019150602060a0840286010192508b83111561411857600080fd5b6020850194505b828510156141715760a0858d03121561413757600080fd5b61413f613c06565b61414886613d2d565b81526141578d60208801613f69565b60208201528083525060208201915060a08501945061411f565b8060208501525050508085525050602083019250602081019050614074565b803560038110613d3c57600080fd5b600082601f8301126141b057600080fd5b6141bf83833560208501613dcd565b9392505050565b600082601f8301126141d757600080fd5b81356141e5613cdf82613c9d565b8082825260208201915060208360051b86010192508583111561420757600080fd5b602085015b83811015613d235780356001600160401b0381111561422a57600080fd5b86016080818903601f1901121561424057600080fd5b614248613bde565b602082013561425681613f58565b815261426460408301614190565b602082015260608201356001600160401b0381111561428257600080fd5b6142918a60208386010161419f565b60408301525060808201356001600160401b038111156142b057600080fd5b6142bf8a602083860101613cc0565b6060830152508452506020928301920161420c565b600061010082840312156142e757600080fd5b6142ef613c28565b905081356001600160401b0381111561430757600080fd5b61431384828501613cc0565b82525060208201356001600160401b0381111561432f57600080fd5b61433b84828501613e9c565b60208301525060408201356001600160401b0381111561435a57600080fd5b61436684828501613fc6565b60408301525060608201356001600160401b0381111561438557600080fd5b61439184828501613fc6565b60608301525060808201356001600160401b038111156143b057600080fd5b6143bc8482850161402e565b60808301525060a08201356001600160401b038111156143db57600080fd5b6143e78482850161402e565b60a08301525060c08201356001600160401b0381111561440657600080fd5b614412848285016141c6565b60c08301525060e08201356001600160401b0381111561443157600080fd5b61443d848285016141c6565b60e08301525092915050565b60006040828403121561445b57600080fd5b614463613c06565b905081356001600160401b0381111561447b57600080fd5b61448784828501613d41565b82525060208201356001600160401b038111156144a357600080fd5b6144af84828501613e06565b60208301525092915050565b6000806000806000608086880312156144d357600080fd5b8535945060208601356001600160401b038111156144f057600080fd5b6144fc88828901613b7d565b90955093505060408601356001600160401b0381111561451b57600080fd5b614527888289016142d4565b92505060608601356001600160401b0381111561454357600080fd5b61454f88828901614449565b9150509295509295909350565b6001600160a01b0381168114613f6657600080fd5b80356001600160e01b031981168114613d3c57600080fd5b60008060006060848603121561459e57600080fd5b83356001600160401b038111156145b457600080fd5b840160a081870312156145c657600080fd5b6145ce613c4b565b81356145d98161455c565b8152602082810135908201526145f160408301614571565b604082015261460260608301613d2d565b606082015260808201356001600160401b0381111561462057600080fd5b61462c88828501613d41565b60808301525093505060208401356001600160401b0381111561464e57600080fd5b61465a8682870161402e565b92505060408401356001600160401b0381111561467657600080fd5b61468286828701614449565b9150509250925092565b634e487b7160e01b600052602160045260246000fd5b600681106146b2576146b261468c565b9052565b60005b838110156146d15781810151838201526020016146b9565b50506000910152565b600081518084526146f28160208601602086016146b6565b601f01601f19169290920160200192915050565b602081526147186020820183516146a2565b6000602083015160408084015261473260608401826146da565b949350505050565b6000806000806080858703121561475057600080fd5b8435935060208501356001600160401b0381111561476d57600080fd5b61477987828801613fc6565b93505060408501356001600160401b0381111561479557600080fd5b6147a18782880161402e565b92505060608501356001600160401b038111156147bd57600080fd5b6147c987828801614449565b91505092959194509250565b600081518084526020840193506020830160005b8281101561480f576147fc8683516146a2565b60209586019591909101906001016147e9565b5093949350505050565b600082825180855260208501945060208160051b8301016020850160005b83811015610ddc57601f198584030188526148538383516146da565b6020988901989093509190910190600101614837565b600081516040845261487e60408501826147d5565b905060208301518482036020860152611e478282614819565b6020815260006141bf6020830184614869565b6000806000606084860312156148bf57600080fd5b8335925060208401356001600160401b038111156148dc57600080fd5b8401601f810186136148ed57600080fd5b80356148fb613cdf82613c9d565b8082825260208201915060208360051b85010192508883111561491d57600080fd5b602084015b8381101561495e5780356001600160401b0381111561494057600080fd5b61494f8b6020838901016142d4565b84525060209283019201614922565b50945050505060408401356001600160401b0381111561467657600080fd5b6000806040838503121561499057600080fd5b50508035926020909101359150565b60208152815160208201526000602083015160408084015261473260608401826146da565b600080600080608085870312156149da57600080fd5b8435935060208501356001600160401b038111156149f757600080fd5b614a03878288016142d4565b93505060408501356001600160401b03811115614a1f57600080fd5b614a2b87828801614449565b92505060608501356001600160401b03811115614a4757600080fd5b6147c987828801613cc0565b600060208284031215614a6557600080fd5b5035919050565b60008060008060608587031215614a8257600080fd5b8435935060208501356001600160401b03811115614a9f57600080fd5b614aab87828801613b7d565b90945092505060408501356001600160401b03811115614aca57600080fd5b850160408188031215614adc57600080fd5b939692955090935050565b600060208284031215614af957600080fd5b81356141bf81613f58565b60008083601f840112614b1657600080fd5b5081356001600160401b03811115614b2d57600080fd5b602083019150836020828501011115613bc157600080fd5b600080600080600060608688031215614b5d57600080fd5b8535614b688161455c565b945060208601356001600160401b03811115614b8357600080fd5b614b8f88828901614b04565b90955093505060408601356001600160401b03811115614bae57600080fd5b614bba88828901614b04565b969995985093965092949392505050565b60008060008060808587031215614be157600080fd5b84356001600160401b03811115614bf757600080fd5b614c0387828801613d41565b94505060208501356001600160401b03811115614c1f57600080fd5b614c2b87828801613e06565b935050614c3a60408601614571565b915060608501356001600160401b03811115614a4757600080fd5b6020815260006141bf60208301846146da565b600080600080600060a08688031215614c8057600080fd5b8535945060208601356001600160401b03811115614c9d57600080fd5b614ca988828901613fc6565b94505060408601356001600160401b03811115614cc557600080fd5b614cd18882890161402e565b93505060608601356001600160401b03811115614ced57600080fd5b614cf988828901614449565b95989497509295608001359392505050565b600060208284031215614d1d57600080fd5b81356141bf8161455c565b634e487b7160e01b600052603260045260246000fd5b60008235607e19833603018112614d5457600080fd5b9190910192915050565b600060208284031215614d7057600080fd5b6141bf82614190565b6000808335601e19843603018112614d9057600080fd5b8301803591506001600160401b03821115614daa57600080fd5b602001915036819003821315613bc157600080fd5b6000808335601e19843603018112614dd657600080fd5b8301803591506001600160401b03821115614df057600080fd5b6020019150600581901b3603821315613bc157600080fd5b634e487b7160e01b600052601160045260246000fd5b600060018201614e3057614e30614e08565b5060010190565b60008251614d548184602087016146b6565b600181811c90821680614e5d57607f821691505b602082108103614e7d57634e487b7160e01b600052602260045260246000fd5b50919050565b600081518084526020840193506020830160005b8281101561480f578151865260209586019590910190600101614e97565b600082825180855260208501945060208160051b8301016020850160005b83811015610ddc57848303601f190188528151805115158452602081015160038110614f0157614f0161468c565b80602086015250604081015160806040860152614f2160808601826146da565b9050606082015191508481036060860152614f3c8183614e83565b60209a8b019a90955093909301925050600101614ed3565b6000815160608452614f696060850182614e83565b905060208301518482036020860152614f8282826147d5565b91505060408301518482036040860152611e478282614819565b614fa78282516146a2565b602081015160208301526040810151151560408301526060810151151560608301525050565b600081518084526020840193506020830160005b8281101561480f57614ff4868351614f9c565b6080959095019460209190910190600101614fe1565b600082825180855260208501945060208160051b8301016020850160005b83811015610ddc57848303601f190188528151805184526020908101516040828601819052815190860181905291019060009060608601905b808310156150a25783516150768382516146a2565b6020810151905061508a6020840182614f9c565b5060a082019150602084019350600183019250615061565b5060209a8b019a90955093909301925050600101615028565b8481526080602082015260006150d46080830186614eb5565b8281036040840152845161010082526150f1610100830182614e83565b90506020860151828203602084015261510a8282614f54565b915050604086015182820360408401526151248282614fcd565b9150506060860151828203606084015261513e8282614fcd565b91505060808601518282036080840152615158828261500a565b91505060a086015182820360a0840152615172828261500a565b91505060c086015182820360c084015261518c8282614eb5565b91505060e086015182820360e08401526151a68282614eb5565b9250505082810360608401526151bc8185614869565b979650505050505050565b6000602082840312156151d957600080fd5b81516001600160401b038111156151ef57600080fd5b8201601f8101841361520057600080fd5b805161520e613cdf82613da6565b81815285602083850101111561522357600080fd5b611e478260208301602086016146b6565b83815260606020820152600061524d6060830185614e83565b828103604084015261525f8185614869565b9695505050505050565b60006020828403121561527b57600080fd5b81516141bf81613f58565b80820180821115611fcf57611fcf614e08565b6000602082840312156152ab57600080fd5b6141bf82613d2d565b6000602082840312156152c657600080fd5b81356001600160401b038111156152dc57600080fd5b6147328482850161419f565b601f82111561532f57806000526020600020601f840160051c8101602085101561530f5750805b601f840160051c820191505b81811015611042576000815560010161531b565b505050565b81516001600160401b0381111561534d5761534d613bc8565b6153618161535b8454614e49565b846152e8565b6020601f821160018114615395576000831561537d5750848201515b600019600385901b1c1916600184901b178455611042565b600084815260208120601f198516915b828110156153c557878501518255602094850194600190920191016153a5565b50848210156153e35786840151600019600387901b60f8161c191681555b50505050600190811b01905550565b81810381811115611fcf57611fcf614e08565b8082028115828204841417611fcf57611fcf614e08565b60008261543957634e487b7160e01b600052601260045260246000fd5b500490565b634e487b7160e01b600052600160045260246000fd5b60006020828403121561546657600080fd5b81516141bf8161455c565b8183823760009101908152919050565b60006020828403121561549357600080fd5b81356001600160401b038111156154a957600080fd5b6147328482850161444956fea2646970667358221220118a36bd0789fd289320ad0df5df60305020b6cd85feed3dc230582be9cd7eb564736f6c634300081c0033","linkReferences":{}},"methodIdentifiers":{"assemblyEncode(uint8[],bytes[],bytes4,uint256[])":"8d31335a","bool2ui(bool)":"8085367b","buildArguments(uint256,(uint8,uint256,bool,bool)[],(uint256,(uint8,(uint8,uint256,bool,bool))[])[],(uint8[],bytes[]))":"2f71833b","checkPolicies(address,bytes,bytes)":"86ff45ad","doEffects(uint256,(bool,uint8,string,uint256[])[],(uint256[],(uint256[],uint8[],bytes[]),(uint8,uint256,bool,bool)[],(uint8,uint256,bool,bool)[],(uint256,(uint8,(uint8,uint256,bool,bool))[])[],(uint256,(uint8,(uint8,uint256,bool,bool))[])[],(bool,uint8,string,uint256[])[],(bool,uint8,string,uint256[])[]),(uint8[],bytes[]))":"01fa2e8d","evaluateExpression(uint256,(uint256[],(uint256[],uint8[],bytes[]),(uint8,uint256,bool,bool)[],(uint8,uint256,bool,bool)[],(uint256,(uint8,(uint8,uint256,bool,bool))[])[],(uint256,(uint8,(uint8,uint256,bool,bool))[])[],(bool,uint8,string,uint256[])[],(bool,uint8,string,uint256[])[]),(uint8[],bytes[]),uint256[])":"4fefca38","evaluateForeignCallForRule((address,uint256,bytes4,uint8,uint8[]),(uint256,(uint8,(uint8,uint256,bool,bool))[])[],(uint8[],bytes[]))":"230db75e","evaluateForeignCalls(uint256,(uint8,uint256,bool,bool)[],(uint256,(uint8,(uint8,uint256,bool,bool))[])[],(uint8[],bytes[]),uint256)":"a6e481d3","evaluateRulesAndExecuteEffects(uint256,(uint256[],(uint256[],uint8[],bytes[]),(uint8,uint256,bool,bool)[],(uint8,uint256,bool,bool)[],(uint256,(uint8,(uint8,uint256,bool,bool))[])[],(uint256,(uint8,(uint8,uint256,bool,bool))[])[],(bool,uint8,string,uint256[])[],(bool,uint8,string,uint256[])[])[],(uint8[],bytes[]))":"454ebe58","initialize(address)":"c4d66de8","retrieveRawAddressFromInstructionSet(uint256,uint256)":"c80388a2","retrieveRawStringFromInstructionSet(uint256,uint256)":"4e9f6125","run(uint256,uint256[],(uint8[],bytes[]))":"7e6382ac","ui2bool(uint256)":"5fcaa1c9"},"id":50}