{"abi":[{"type":"function","name":"addTracker","inputs":[{"name":"_policyId","type":"uint256","internalType":"uint256"},{"name":"tracker","type":"tuple","internalType":"struct Trackers","components":[{"name":"pType","type":"uint8","internalType":"enum PT"},{"name":"trackerValue","type":"bytes","internalType":"bytes"}]}],"outputs":[{"name":"","type":"uint256","internalType":"uint256"}],"stateMutability":"nonpayable"},{"type":"function","name":"applyPolicy","inputs":[{"name":"_contractAddress","type":"address","internalType":"address"},{"name":"_policyId","type":"uint256[]","internalType":"uint256[]"}],"outputs":[],"stateMutability":"nonpayable"},{"type":"function","name":"getAppliedPolicyIds","inputs":[{"name":"_contractAddress","type":"address","internalType":"address"}],"outputs":[{"name":"","type":"uint256[]","internalType":"uint256[]"}],"stateMutability":"view"},{"type":"function","name":"getForeignCall","inputs":[{"name":"_policyId","type":"uint256","internalType":"uint256"}],"outputs":[{"name":"fc","type":"tuple","internalType":"struct ForeignCallSet","components":[{"name":"set","type":"bool","internalType":"bool"},{"name":"foreignCalls","type":"tuple[]","internalType":"struct ForeignCall[]","components":[{"name":"foreignCallAddress","type":"address","internalType":"address"},{"name":"foreignCallIndex","type":"uint256","internalType":"uint256"},{"name":"signature","type":"bytes4","internalType":"bytes4"},{"name":"returnType","type":"uint8","internalType":"enum PT"},{"name":"parameterTypes","type":"uint8[]","internalType":"enum PT[]"}]}]}],"stateMutability":"view"},{"type":"function","name":"getForeignCall","inputs":[{"name":"_policyId","type":"uint256","internalType":"uint256"},{"name":"_foreignCallId","type":"uint256","internalType":"uint256"}],"outputs":[{"name":"fc","type":"tuple","internalType":"struct ForeignCall","components":[{"name":"foreignCallAddress","type":"address","internalType":"address"},{"name":"foreignCallIndex","type":"uint256","internalType":"uint256"},{"name":"signature","type":"bytes4","internalType":"bytes4"},{"name":"returnType","type":"uint8","internalType":"enum PT"},{"name":"parameterTypes","type":"uint8[]","internalType":"enum PT[]"}]}],"stateMutability":"view"},{"type":"function","name":"getFunctionSignature","inputs":[{"name":"_functionSignatureId","type":"uint256","internalType":"uint256"}],"outputs":[{"name":"","type":"tuple","internalType":"struct FunctionSignatureStorageSet","components":[{"name":"set","type":"bool","internalType":"bool"},{"name":"signature","type":"bytes","internalType":"bytes"},{"name":"parameterTypes","type":"uint8[]","internalType":"enum PT[]"}]}],"stateMutability":"view"},{"type":"function","name":"getRule","inputs":[{"name":"_ruleId","type":"uint256","internalType":"uint256"}],"outputs":[{"name":"","type":"tuple","internalType":"struct RuleStorageSet","components":[{"name":"set","type":"bool","internalType":"bool"},{"name":"rule","type":"tuple","internalType":"struct Rule","components":[{"name":"instructionSet","type":"uint256[]","internalType":"uint256[]"},{"name":"rawData","type":"tuple","internalType":"struct RawData","components":[{"name":"instructionSetIndex","type":"uint256[]","internalType":"uint256[]"},{"name":"argumentTypes","type":"uint8[]","internalType":"enum PT[]"},{"name":"dataValues","type":"bytes[]","internalType":"bytes[]"}]},{"name":"placeHolders","type":"tuple[]","internalType":"struct Placeholder[]","components":[{"name":"pType","type":"uint8","internalType":"enum PT"},{"name":"typeSpecificIndex","type":"uint256","internalType":"uint256"},{"name":"trackerValue","type":"bool","internalType":"bool"},{"name":"foreignCall","type":"bool","internalType":"bool"}]},{"name":"effectPlaceHolders","type":"tuple[]","internalType":"struct Placeholder[]","components":[{"name":"pType","type":"uint8","internalType":"enum PT"},{"name":"typeSpecificIndex","type":"uint256","internalType":"uint256"},{"name":"trackerValue","type":"bool","internalType":"bool"},{"name":"foreignCall","type":"bool","internalType":"bool"}]},{"name":"fcArgumentMappingsConditions","type":"tuple[]","internalType":"struct ForeignCallArgumentMappings[]","components":[{"name":"foreignCallIndex","type":"uint256","internalType":"uint256"},{"name":"mappings","type":"tuple[]","internalType":"struct IndividualArgumentMapping[]","components":[{"name":"functionCallArgumentType","type":"uint8","internalType":"enum PT"},{"name":"functionSignatureArg","type":"tuple","internalType":"struct Placeholder","components":[{"name":"pType","type":"uint8","internalType":"enum PT"},{"name":"typeSpecificIndex","type":"uint256","internalType":"uint256"},{"name":"trackerValue","type":"bool","internalType":"bool"},{"name":"foreignCall","type":"bool","internalType":"bool"}]}]}]},{"name":"fcArgumentMappingsEffects","type":"tuple[]","internalType":"struct ForeignCallArgumentMappings[]","components":[{"name":"foreignCallIndex","type":"uint256","internalType":"uint256"},{"name":"mappings","type":"tuple[]","internalType":"struct IndividualArgumentMapping[]","components":[{"name":"functionCallArgumentType","type":"uint8","internalType":"enum PT"},{"name":"functionSignatureArg","type":"tuple","internalType":"struct Placeholder","components":[{"name":"pType","type":"uint8","internalType":"enum PT"},{"name":"typeSpecificIndex","type":"uint256","internalType":"uint256"},{"name":"trackerValue","type":"bool","internalType":"bool"},{"name":"foreignCall","type":"bool","internalType":"bool"}]}]}]},{"name":"posEffects","type":"tuple[]","internalType":"struct Effect[]","components":[{"name":"valid","type":"bool","internalType":"bool"},{"name":"effectType","type":"uint8","internalType":"enum ET"},{"name":"text","type":"string","internalType":"string"},{"name":"instructionSet","type":"uint256[]","internalType":"uint256[]"}]},{"name":"negEffects","type":"tuple[]","internalType":"struct Effect[]","components":[{"name":"valid","type":"bool","internalType":"bool"},{"name":"effectType","type":"uint8","internalType":"enum ET"},{"name":"text","type":"string","internalType":"string"},{"name":"instructionSet","type":"uint256[]","internalType":"uint256[]"}]}]}]}],"stateMutability":"view"},{"type":"function","name":"getTracker","inputs":[{"name":"_policyId","type":"uint256","internalType":"uint256"},{"name":"index","type":"uint256","internalType":"uint256"}],"outputs":[{"name":"trackers","type":"tuple","internalType":"struct Trackers","components":[{"name":"pType","type":"uint8","internalType":"enum PT"},{"name":"trackerValue","type":"bytes","internalType":"bytes"}]}],"stateMutability":"nonpayable"},{"type":"function","name":"getTracker","inputs":[{"name":"_policyId","type":"uint256","internalType":"uint256"}],"outputs":[{"name":"trackerValuesSet","type":"tuple","internalType":"struct TrackerValuesSet","components":[{"name":"set","type":"bool","internalType":"bool"},{"name":"trackers","type":"tuple[]","internalType":"struct Trackers[]","components":[{"name":"pType","type":"uint8","internalType":"enum PT"},{"name":"trackerValue","type":"bytes","internalType":"bytes"}]}]}],"stateMutability":"view"},{"type":"function","name":"updateForeignCall","inputs":[{"name":"_policyId","type":"uint256","internalType":"uint256"},{"name":"foreignContractAddress","type":"address","internalType":"address"},{"name":"functionSignature","type":"string","internalType":"string"},{"name":"returnType","type":"uint8","internalType":"enum PT"},{"name":"arguments","type":"uint8[]","internalType":"enum PT[]"}],"outputs":[{"name":"fc","type":"tuple","internalType":"struct ForeignCall","components":[{"name":"foreignCallAddress","type":"address","internalType":"address"},{"name":"foreignCallIndex","type":"uint256","internalType":"uint256"},{"name":"signature","type":"bytes4","internalType":"bytes4"},{"name":"returnType","type":"uint8","internalType":"enum PT"},{"name":"parameterTypes","type":"uint8[]","internalType":"enum PT[]"}]}],"stateMutability":"nonpayable"},{"type":"function","name":"updateFunctionSignature","inputs":[{"name":"_functionSignatureId","type":"uint256","internalType":"uint256"},{"name":"functionSignature","type":"bytes","internalType":"bytes"},{"name":"pTypes","type":"uint8[]","internalType":"enum PT[]"}],"outputs":[{"name":"","type":"uint256","internalType":"uint256"}],"stateMutability":"nonpayable"},{"type":"function","name":"updatePolicy","inputs":[{"name":"_policyId","type":"uint256","internalType":"uint256"},{"name":"_signatures","type":"bytes[]","internalType":"bytes[]"},{"name":"functionSignatureIds","type":"uint256[]","internalType":"uint256[]"},{"name":"ruleIds","type":"uint256[][]","internalType":"uint256[][]"}],"outputs":[{"name":"","type":"uint256","internalType":"uint256"}],"stateMutability":"nonpayable"},{"type":"function","name":"updateRule","inputs":[{"name":"_ruleId","type":"uint256","internalType":"uint256"},{"name":"rule","type":"tuple","internalType":"struct Rule","components":[{"name":"instructionSet","type":"uint256[]","internalType":"uint256[]"},{"name":"rawData","type":"tuple","internalType":"struct RawData","components":[{"name":"instructionSetIndex","type":"uint256[]","internalType":"uint256[]"},{"name":"argumentTypes","type":"uint8[]","internalType":"enum PT[]"},{"name":"dataValues","type":"bytes[]","internalType":"bytes[]"}]},{"name":"placeHolders","type":"tuple[]","internalType":"struct Placeholder[]","components":[{"name":"pType","type":"uint8","internalType":"enum PT"},{"name":"typeSpecificIndex","type":"uint256","internalType":"uint256"},{"name":"trackerValue","type":"bool","internalType":"bool"},{"name":"foreignCall","type":"bool","internalType":"bool"}]},{"name":"effectPlaceHolders","type":"tuple[]","internalType":"struct Placeholder[]","components":[{"name":"pType","type":"uint8","internalType":"enum PT"},{"name":"typeSpecificIndex","type":"uint256","internalType":"uint256"},{"name":"trackerValue","type":"bool","internalType":"bool"},{"name":"foreignCall","type":"bool","internalType":"bool"}]},{"name":"fcArgumentMappingsConditions","type":"tuple[]","internalType":"struct ForeignCallArgumentMappings[]","components":[{"name":"foreignCallIndex","type":"uint256","internalType":"uint256"},{"name":"mappings","type":"tuple[]","internalType":"struct IndividualArgumentMapping[]","components":[{"name":"functionCallArgumentType","type":"uint8","internalType":"enum PT"},{"name":"functionSignatureArg","type":"tuple","internalType":"struct Placeholder","components":[{"name":"pType","type":"uint8","internalType":"enum PT"},{"name":"typeSpecificIndex","type":"uint256","internalType":"uint256"},{"name":"trackerValue","type":"bool","internalType":"bool"},{"name":"foreignCall","type":"bool","internalType":"bool"}]}]}]},{"name":"fcArgumentMappingsEffects","type":"tuple[]","internalType":"struct ForeignCallArgumentMappings[]","components":[{"name":"foreignCallIndex","type":"uint256","internalType":"uint256"},{"name":"mappings","type":"tuple[]","internalType":"struct IndividualArgumentMapping[]","components":[{"name":"functionCallArgumentType","type":"uint8","internalType":"enum PT"},{"name":"functionSignatureArg","type":"tuple","internalType":"struct Placeholder","components":[{"name":"pType","type":"uint8","internalType":"enum PT"},{"name":"typeSpecificIndex","type":"uint256","internalType":"uint256"},{"name":"trackerValue","type":"bool","internalType":"bool"},{"name":"foreignCall","type":"bool","internalType":"bool"}]}]}]},{"name":"posEffects","type":"tuple[]","internalType":"struct Effect[]","components":[{"name":"valid","type":"bool","internalType":"bool"},{"name":"effectType","type":"uint8","internalType":"enum ET"},{"name":"text","type":"string","internalType":"string"},{"name":"instructionSet","type":"uint256[]","internalType":"uint256[]"}]},{"name":"negEffects","type":"tuple[]","internalType":"struct Effect[]","components":[{"name":"valid","type":"bool","internalType":"bool"},{"name":"effectType","type":"uint8","internalType":"enum ET"},{"name":"text","type":"string","internalType":"string"},{"name":"instructionSet","type":"uint256[]","internalType":"uint256[]"}]}]}],"outputs":[{"name":"","type":"uint256","internalType":"uint256"}],"stateMutability":"nonpayable"},{"type":"function","name":"updateTracker","inputs":[{"name":"_policyId","type":"uint256","internalType":"uint256"},{"name":"updatedUintTracker","type":"uint256","internalType":"uint256"},{"name":"updatedAddressTracker","type":"address","internalType":"address"},{"name":"updatedStringTracker","type":"string","internalType":"string"},{"name":"updatedBoolTracker","type":"bool","internalType":"bool"},{"name":"updatedBytesTracker","type":"bytes","internalType":"bytes"}],"outputs":[],"stateMutability":"nonpayable"}],"bytecode":{"object":"0x6080604052348015600f57600080fd5b50613ea98061001f6000396000f3fe608060405234801561001057600080fd5b50600436106100ea5760003560e01c80639c7a08e61161008c578063d57a72cd11610066578063d57a72cd14610203578063da7d5d2814610223578063e374902314610236578063f7a481171461025657600080fd5b80639c7a08e6146101b0578063a78049c8146101c3578063c3a83344146101e357600080fd5b80635de1dc1f116100c85780635de1dc1f146101555780636af870c61461016857806372a340d71461017b5780639228303f1461019b57600080fd5b806305e4eff3146100ef5780633bbaa76c146101155780634846203714610135575b600080fd5b6101026100fd366004612386565b610269565b6040519081526020015b60405180910390f35b610128610123366004612547565b6102bf565b60405161010c91906126a1565b6101486101433660046126bb565b6104e1565b60405161010c91906129af565b610102610163366004612ac0565b610eb3565b610102610176366004612b7b565b610f2c565b61018e610189366004612c28565b61143b565b60405161010c9190612c70565b6101ae6101a9366004612c83565b61156c565b005b6101ae6101be366004612ce3565b61165d565b6101d66101d13660046126bb565b611948565b60405161010c9190612d7f565b6101f66101f13660046126bb565b611adf565b60405161010c9190612dfa565b6102166102113660046126bb565b611c30565b60405161010c9190612e69565b610128610231366004612c28565b611dab565b610249610244366004612eae565b611f8c565b60405161010c9190612ec9565b610102610264366004612edc565b612001565b600080610274612069565b90508360000361028957805460010180825593505b600084815260018281016020526040909120805460ff1916821781558491016102b28282613b5d565b5084925050505b92915050565b6102c761217d565b60006102d1612097565b6001600160a01b038716835285516020808801919091206001600160e01b0319166040850152815490840181905290915081600061030e83613c79565b909155505060608201846005811115610329576103296125db565b9081600581111561033c5761033c6125db565b90525082516001600160401b03811115610358576103586123f0565b604051908082528060200260200182016040528015610381578160200160208202803683370190505b50608083015260005b83518110156103fa578381815181106103a5576103a5613c92565b6020026020010151836080015182815181106103c3576103c3613c92565b602002602001019060058111156103dc576103dc6125db565b908160058111156103ef576103ef6125db565b90525060010161038a565b50600087815260018281016020908152604080842083018054808501825590855293829020865160049095020180546001600160a01b0319166001600160a01b03909516949094178455908501519183019190915583015160028201805463ffffffff19811660e09390931c9283178255606086015186949390929164ffffffffff191617640100000000836005811115610497576104976125db565b0217905550608082015180516104b79160038401916020909101906121ad565b505050600096875260019081016020526040909620805460ff191690961790955550929392505050565b6104e9612261565b6104f1612069565b60008381526001918201602090815260409182902082518084018452815460ff1615158152835194820180546101208186028801810190965261010087018181529296939594870194919284929091849184018282801561057157602002820191906000526020600020905b81548152602001906001019080831161055d575b5050505050815260200160018201604051806060016040529081600082018054806020026020016040519081016040528092919081815260200182805480156105d957602002820191906000526020600020905b8154815260200190600101908083116105c5575b505050505081526020016001820180548060200260200160405190810160405280929190818152602001828054801561066157602002820191906000526020600020906000905b82829054906101000a900460ff16600581111561063f5761063f6125db565b8152602060019283018181049485019490930390920291018084116106205790505b5050505050815260200160028201805480602002602001604051908101604052809291908181526020016000905b8282101561073b5783829060005260206000200180546106ae90613101565b80601f01602080910402602001604051908101604052809291908181526020018280546106da90613101565b80156107275780601f106106fc57610100808354040283529160200191610727565b820191906000526020600020905b81548152906001019060200180831161070a57829003601f168201915b50505050508152602001906001019061068f565b5050505081525050815260200160048201805480602002602001604051908101604052809291908181526020016000905b828210156107f9576000848152602090206040805160808101909152600384029091018054829060ff1660058111156107a7576107a76125db565b60058111156107b8576107b86125db565b815260018281015460208084019190915260029093015460ff808216151560408501526101009091041615156060909201919091529183529201910161076c565b50505050815260200160058201805480602002602001604051908101604052809291908181526020016000905b828210156108b3576000848152602090206040805160808101909152600384029091018054829060ff166005811115610861576108616125db565b6005811115610872576108726125db565b815260018281015460208084019190915260029093015460ff8082161515604085015261010090910416151560609092019190915291835292019101610826565b50505050815260200160068201805480602002602001604051908101604052809291908181526020016000905b82821015610a2057838290600052602060002090600202016040518060400160405290816000820154815260200160018201805480602002602001604051908101604052809291908181526020016000905b82821015610a095760008481526020902060408051808201909152600484029091018054829060ff16600581111561096c5761096c6125db565b600581111561097d5761097d6125db565b81526040805160808101909152600183018054602090930192829060ff1660058111156109ac576109ac6125db565b60058111156109bd576109bd6125db565b815260018281015460208084019190915260029093015460ff80821615156040850152610100909104161515606090920191909152919092529284529390910192919091019050610932565b5050505081525050815260200190600101906108e0565b50505050815260200160078201805480602002602001604051908101604052809291908181526020016000905b82821015610b8d57838290600052602060002090600202016040518060400160405290816000820154815260200160018201805480602002602001604051908101604052809291908181526020016000905b82821015610b765760008481526020902060408051808201909152600484029091018054829060ff166005811115610ad957610ad96125db565b6005811115610aea57610aea6125db565b81526040805160808101909152600183018054602090930192829060ff166005811115610b1957610b196125db565b6005811115610b2a57610b2a6125db565b815260018281015460208084019190915260029093015460ff80821615156040850152610100909104161515606090920191909152919092529284529390910192919091019050610a9f565b505050508152505081526020019060010190610a4d565b50505050815260200160088201805480602002602001604051908101604052809291908181526020016000905b82821015610d18576000848152602090819020604080516080810190915260038502909101805460ff808216151584529293919291840191610100909104166002811115610c0a57610c0a6125db565b6002811115610c1b57610c1b6125db565b8152602001600182018054610c2f90613101565b80601f0160208091040260200160405190810160405280929190818152602001828054610c5b90613101565b8015610ca85780601f10610c7d57610100808354040283529160200191610ca8565b820191906000526020600020905b815481529060010190602001808311610c8b57829003601f168201915b5050505050815260200160028201805480602002602001604051908101604052809291908181526020018280548015610d0057602002820191906000526020600020905b815481526020019060010190808311610cec575b50505050508152505081526020019060010190610bba565b50505050815260200160098201805480602002602001604051908101604052809291908181526020016000905b82821015610ea3576000848152602090819020604080516080810190915260038502909101805460ff808216151584529293919291840191610100909104166002811115610d9557610d956125db565b6002811115610da657610da66125db565b8152602001600182018054610dba90613101565b80601f0160208091040260200160405190810160405280929190818152602001828054610de690613101565b8015610e335780601f10610e0857610100808354040283529160200191610e33565b820191906000526020600020905b815481529060010190602001808311610e1657829003601f168201915b5050505050815260200160028201805480602002602001604051908101604052809291908181526020018280548015610e8b57602002820191906000526020600020905b815481526020019060010190808311610e77575b50505050508152505081526020019060010190610d45565b5050509152505090525092915050565b600080610ebe6120c5565b905084600003610ed357805460010180825594505b600085815260018281016020526040909120805460ff19168217815501610efa8582613ca8565b50600085815260018201602090815260409091208451610f22926002909201918601906121ad565b5093949350505050565b600080610f376120f3565b9050868514610fa45760405162461bcd60e51b815260206004820152602e60248201527f5369676e61747572657320616e64207369676e6174757265206964277320617260448201526d19481a5b98dbdb9cda5cdd195b9d60921b60648201526084015b60405180910390fd5b88600003610fd45780546001908101808355600081815282840160205260409020805460ff191690921790915598505b821561134d5760005b8781101561134757611006878783818110610ffa57610ffa613c92565b90506020020135611c30565b516110475760405162461bcd60e51b8152602060048201526011602482015270496e76616c6964205369676e617475726560781b6044820152606401610f9b565b86868281811061105957611059613c92565b905060200201358260010160008c81526020019081526020016000206001016000018a8a8481811061108d5761108d613c92565b905060200281019061109f91906130bb565b6040516110ad929190613d60565b9081526040519081900360200190205560005b8585838181106110d2576110d2613c92565b90506020028101906110e49190612f1e565b90508110156112ba57600061113287878581811061110457611104613c92565b90506020028101906111169190612f1e565b8481811061112657611126613c92565b905060200201356104e1565b80519091506111725760405162461bcd60e51b815260206004820152600c60248201526b496e76616c69642052756c6560a01b6044820152606401610f9b565b60005b816020015160400151518110156112b05781602001516040015181815181106111a0576111a0613c92565b6020026020010151606001511561121c576111ba8d611948565b516112175760405162461bcd60e51b815260206004820152602760248201527f466f726569676e2043616c6c207265666572656e63656420696e2072756c65206044820152661b9bdd081cd95d60ca1b6064820152608401610f9b565b6112a8565b816020015160400151818151811061123657611236613c92565b602002602001015160400151156112a8576112508d611adf565b516112a85760405162461bcd60e51b815260206004820152602260248201527f547261636b6572207265666572656e63656420696e2072756c65206e6f742073604482015261195d60f21b6064820152608401610f9b565b600101611175565b50506001016110c0565b508484828181106112cd576112cd613c92565b90506020028101906112df9190612f1e565b60008c815260018501602052604090206002018b8b8581811061130457611304613c92565b905060200281019061131691906130bb565b604051611324929190613d60565b90815260405190819003602001902061133e929091612282565b50600101610fdd565b5061142e565b60005b8781101561142c5761136d878783818110610ffa57610ffa613c92565b516113ae5760405162461bcd60e51b8152602060048201526011602482015270496e76616c6964205369676e617475726560781b6044820152606401610f9b565b8686828181106113c0576113c0613c92565b905060200201358260010160008c81526020019081526020016000206001016000018a8a848181106113f4576113f4613c92565b905060200281019061140691906130bb565b604051611414929190613d60565b90815260405190819003602001902055600101611350565b505b5096979650505050505050565b6114436122bd565b600061144d612121565b600085815260018083016020526040909120805460ff1916821781559192509081019061147a9085613d70565b8154811061148a5761148a613c92565b60009182526020909120604080518082019091526002909202018054829060ff1660058111156114bc576114bc6125db565b60058111156114cd576114cd6125db565b81526020016001820180546114e190613101565b80601f016020809104026020016040519081016040528092919081815260200182805461150d90613101565b801561155a5780601f1061152f5761010080835404028352916020019161155a565b820191906000526020600020905b81548152906001019060200180831161153d57829003601f168201915b50505050508152505091505092915050565b600061157661214f565b9050816001600160401b03811115611590576115906123f0565b6040519080825280602002602001820160405280156115b9578160200160208202803683370190505b506001600160a01b03851660009081526020838152604090912082516115e593919291909101906122cf565b5060005b828110156116565783838281811061160357611603613c92565b90506020020135826000016000876001600160a01b03166001600160a01b03168152602001908152602001600020828154811061164257611642613c92565b6000918252602090912001556001016115e9565b5050505050565b6000611667612121565b6000888152600180830160205260408220805460ff191690911790559091505b600088815260018084016020526040909120015481101561193e576002600089815260018085016020526040909120018054839081106116c9576116c9613c92565b600091825260209091206002909102015460ff1660058111156116ee576116ee6125db565b03611756576040805160208101899052015b60408051601f1981840301815291815260008a815260018086016020529190200180548390811061173357611733613c92565b906000526020600020906002020160010190816117509190613ca8565b50611936565b60008881526001838101602052604082200180548390811061177a5761177a613c92565b600091825260209091206002909102015460ff16600581111561179f5761179f6125db565b036117bd57604080516001600160a01b038816602082015201611700565b6001600089815260018085016020526040909120018054839081106117e4576117e4613c92565b600091825260209091206002909102015460ff166005811115611809576118096125db565b0361181f57846040516020016117009190613d83565b60036000898152600180850160205260409091200180548390811061184657611846613c92565b600091825260209091206002909102015460ff16600581111561186b5761186b6125db565b036118825760408051851515602082015201611700565b6005600089815260018085016020526040909120018054839081106118a9576118a9613c92565b600091825260209091206002909102015460ff1660058111156118ce576118ce6125db565b0361193657826040516020016118e49190613d83565b60408051601f1981840301815291815260008a815260018086016020529190200180548390811061191757611917613c92565b906000526020600020906002020160010190816119349190613ca8565b505b600101611687565b5050505050505050565b604080518082019091526000815260606020820152611965612097565b600083815260019182016020908152604080832081518083018352815460ff1615158152948101805483518186028101860190945280845291948685019491929184015b82821015611ad15760008481526020908190206040805160a0810182526004860290920180546001600160a01b03168352600181015493830193909352600283015460e081901b6001600160e01b031916918301919091529091906060830190640100000000900460ff166005811115611a2557611a256125db565b6005811115611a3657611a366125db565b815260200160038201805480602002602001604051908101604052809291908181526020018280548015611ab957602002820191906000526020600020906000905b82829054906101000a900460ff166005811115611a9757611a976125db565b815260206001928301818104948501949093039092029101808411611a785790505b505050505081525050815260200190600101906119a9565b505050915250909392505050565b604080518082019091526000815260606020820152611afc612121565b600083815260019182016020908152604080832081518083018352815460ff1615158152948101805483518186028101860190945280845291948685019491929184015b82821015611ad15760008481526020902060408051808201909152600284029091018054829060ff166005811115611b7a57611b7a6125db565b6005811115611b8b57611b8b6125db565b8152602001600182018054611b9f90613101565b80601f0160208091040260200160405190810160405280929190818152602001828054611bcb90613101565b8015611c185780601f10611bed57610100808354040283529160200191611c18565b820191906000526020600020905b815481529060010190602001808311611bfb57829003601f168201915b50505050508152505081526020019060010190611b40565b611c56604051806060016040528060001515815260200160608152602001606081525090565b611c5e6120c5565b600083815260019182016020908152604091829020825160608101909352805460ff1615158352928301805492939291840191611c9a90613101565b80601f0160208091040260200160405190810160405280929190818152602001828054611cc690613101565b8015611d135780601f10611ce857610100808354040283529160200191611d13565b820191906000526020600020905b815481529060010190602001808311611cf657829003601f168201915b5050505050815260200160028201805480602002602001604051908101604052809291908181526020018280548015611d9b57602002820191906000526020600020906000905b82829054906101000a900460ff166005811115611d7957611d796125db565b815260206001928301818104948501949093039092029101808411611d5a5790505b5050505050815250509050919050565b611db361217d565b6000611dbd612097565b90506000816001016000868152602001908152602001600020600101805480602002602001604051908101604052809291908181526020016000905b82821015611f215760008481526020908190206040805160a0810182526004860290920180546001600160a01b03168352600181015493830193909352600283015460e081901b6001600160e01b031916918301919091529091906060830190640100000000900460ff166005811115611e7557611e756125db565b6005811115611e8657611e866125db565b815260200160038201805480602002602001604051908101604052809291908181526020018280548015611f0957602002820191906000526020600020906000905b82829054906101000a900460ff166005811115611ee757611ee76125db565b815260206001928301818104948501949093039092029101808411611ec85790505b50505050508152505081526020019060010190611df9565b50505050905060005b8151811015611f835784828281518110611f4657611f46613c92565b60200260200101516020015103611f7b57818181518110611f6957611f69613c92565b602002602001015193505050506102b9565b600101611f2a565b50505092915050565b6060611f9661214f565b6001600160a01b0383166000908152602091825260409081902080548251818502810185019093528083529192909190830182828015611ff557602002820191906000526020600020905b815481526020019060010190808311611fe1575b50505050509050919050565b60008061200c612121565b60008581526001808301602090815260408320805460ff1916831781558201805492830181558352909120919250849160029091020161204c8282613d96565b505060008481526001918201602052604090200154905092915050565b6000806102b960017f5c91f63a4ffcbd372b8ec622fd1fcaaa601b66330afdb30e5c292dd9123f20b0613d70565b6000806102b960017f1f3305601ed940efccf797d76856e5fe70659a8a6905d64c9f236321df91e718613d70565b6000806102b960017f8b87534450a5488e76eda19b94ce784ed5d5fd327ac126c78047b6b2a04cf2f6613d70565b6000806102b960017ff9dbd639dd2ea165d77dd4c51dec420100d51ceacf023b1c40faa045ba8f9a65613d70565b6000806102b960017f438102ff677bc3f21830c58117a05d6b953b31e3ea339da3f17957cd3941a690613d70565b6000806102b960017f1544053a94493269e0aa160e5aa5b54d19ee6492c78b8bd3af283b912c78cdeb613d70565b6040805160a0810182526000808252602082018190529181018290529060608201905b8152602001606081525090565b82805482825590600052602060002090601f016020900481019282156122515791602002820160005b8382111561222257835183826101000a81548160ff02191690836005811115612201576122016125db565b021790555092602001926001016020816000010492830192600103026121d6565b801561224f5782816101000a81549060ff0219169055600101602081600001049283019260010302612222565b505b5061225d92915061230a565b5090565b604051806040016040528060001515815260200161227d61231f565b905290565b828054828255906000526020600020908101928215612251579160200282015b828111156122515782358255916020019190600101906122a2565b604080518082019091528060006121a0565b828054828255906000526020600020908101928215612251579160200282015b828111156122515782518255916020019190600101906122ef565b5b8082111561225d576000815560010161230b565b6040518061010001604052806060815260200161235660405180606001604052806060815260200160608152602001606081525090565b81526020016060815260200160608152602001606081526020016060815260200160608152602001606081525090565b6000806040838503121561239957600080fd5b8235915060208301356001600160401b038111156123b657600080fd5b830161010081860312156123c957600080fd5b809150509250929050565b80356001600160a01b03811681146123eb57600080fd5b919050565b634e487b7160e01b600052604160045260246000fd5b604051601f8201601f191681016001600160401b038111828210171561242e5761242e6123f0565b604052919050565b600082601f83011261244757600080fd5b8135602083016000806001600160401b03841115612467576124676123f0565b50601f8301601f191660200161247c81612406565b91505082815285838301111561249157600080fd5b82826020830137600092810160200192909252509392505050565b600681106124b957600080fd5b50565b600082601f8301126124cd57600080fd5b81356001600160401b038111156124e6576124e66123f0565b8060051b6124f660208201612406565b9182526020818501810192908101908684111561251257600080fd5b6020860192505b8383101561253d57823561252c816124ac565b825260209283019290910190612519565b9695505050505050565b600080600080600060a0868803121561255f57600080fd5b8535945061256f602087016123d4565b935060408601356001600160401b0381111561258a57600080fd5b61259688828901612436565b93505060608601356125a7816124ac565b915060808601356001600160401b038111156125c257600080fd5b6125ce888289016124bc565b9150509295509295909350565b634e487b7160e01b600052602160045260246000fd5b60068110612601576126016125db565b9052565b600081518084526020840193506020830160005b82811015610f225761262c8683516125f1565b6020958601959190910190600101612619565b80516001600160a01b03168252602080820151908301526040808201516001600160e01b0319169083015260608082015160009161267f908501826125f1565b50608082015160a0608085015261269960a0850182612605565b949350505050565b6020815260006126b4602083018461263f565b9392505050565b6000602082840312156126cd57600080fd5b5035919050565b600081518084526020840193506020830160005b82811015610f225781518652602095860195909101906001016126e8565b6000815180845260005b8181101561272c57602081850181015186830182015201612710565b506000602082860101526020601f19601f83011685010191505092915050565b600081516060845261276160608501826126d4565b90506020830151848203602086015261277a8282612605565b9150506040830151848203604086015281815180845260208401915060208160051b85010160208401935060005b828110156127d957601f198683030184526127c4828651612706565b602095860195949094019391506001016127a8565b50979650505050505050565b6127f08282516125f1565b602081015160208301526040810151151560408301526060810151151560608301525050565b600081518084526020840193506020830160005b82811015610f225761283d8683516127e5565b608095909501946020919091019060010161282a565b600082825180855260208501945060208160051b8301016020850160005b8381101561290457848303601f190188528151805184526020908101516040828601819052815190860181905291019060009060608601905b808310156128eb5783516128bf8382516125f1565b602081015190506128d360208401826127e5565b5060a0820191506020840193506001830192506128aa565b5060209a8b019a90955093909301925050600101612871565b50909695505050505050565b600082825180855260208501945060208160051b8301016020850160005b8381101561290457848303601f19018852815180511515845260208101516003811061295c5761295c6125db565b8060208601525060408101516080604086015261297c6080860182612706565b905060608201519150848103606086015261299781836126d4565b60209a8b019a9095509390930192505060010161292e565b6020815281511515602082015260006020830151604080840152805161010060608501526129e16101608501826126d4565b90506020820151605f198583030160808601526129fe828261274c565b9150506040820151605f198583030160a0860152612a1c8282612816565b9150506060820151605f198583030160c0860152612a3a8282612816565b9150506080820151605f198583030160e0860152612a588282612853565b91505060a0820151605f1985830301610100860152612a778282612853565b91505060c0820151605f1985830301610120860152612a968282612910565b91505060e08201519150605f1984820301610140850152612ab78183612910565b95945050505050565b600080600060608486031215612ad557600080fd5b8335925060208401356001600160401b03811115612af257600080fd5b612afe86828701612436565b92505060408401356001600160401b03811115612b1a57600080fd5b612b26868287016124bc565b9150509250925092565b60008083601f840112612b4257600080fd5b5081356001600160401b03811115612b5957600080fd5b6020830191508360208260051b8501011115612b7457600080fd5b9250929050565b60008060008060008060006080888a031215612b9657600080fd5b8735965060208801356001600160401b03811115612bb357600080fd5b612bbf8a828b01612b30565b90975095505060408801356001600160401b03811115612bde57600080fd5b612bea8a828b01612b30565b90955093505060608801356001600160401b03811115612c0957600080fd5b612c158a828b01612b30565b989b979a50959850939692959293505050565b60008060408385031215612c3b57600080fd5b50508035926020909101359150565b612c558282516125f1565b60006020820151604060208501526126996040850182612706565b6020815260006126b46020830184612c4a565b600080600060408486031215612c9857600080fd5b612ca1846123d4565b925060208401356001600160401b03811115612cbc57600080fd5b612cc886828701612b30565b9497909650939450505050565b80151581146124b957600080fd5b60008060008060008060c08789031215612cfc57600080fd5b8635955060208701359450612d13604088016123d4565b935060608701356001600160401b03811115612d2e57600080fd5b612d3a89828a01612436565b9350506080870135612d4b81612cd5565b915060a08701356001600160401b03811115612d6657600080fd5b612d7289828a01612436565b9150509295509295509295565b60208152600060608201835115156020840152602084015160408085015281815180845260808601915060808160051b870101935060208301925060005b81811015612dee57607f19878603018352612dd985855161263f565b94506020938401939290920191600101612dbd565b50929695505050505050565b60208152600060608201835115156020840152602084015160408085015281815180845260808601915060808160051b870101935060208301925060005b81811015612dee57607f19878603018352612e54858551612c4a565b94506020938401939290920191600101612e38565b602081528151151560208201526000602083015160606040840152612e916080840182612706565b90506040840151601f19848303016060850152612ab78282612605565b600060208284031215612ec057600080fd5b6126b4826123d4565b6020815260006126b460208301846126d4565b60008060408385031215612eef57600080fd5b8235915060208301356001600160401b03811115612f0c57600080fd5b8301604081860312156123c957600080fd5b6000808335601e19843603018112612f3557600080fd5b8301803591506001600160401b03821115612f4f57600080fd5b6020019150600581901b3603821315612b7457600080fd5b634e487b7160e01b600052601160045260246000fd5b5b81811015612f925760008155600101612f7e565b5050565b600160401b821115612faa57612faa6123f0565b805482825580831015612fd057816000526020600020612fce828201858301612f7d565b505b505050565b6001600160401b03831115612fec57612fec6123f0565b612ff68382612f96565b8181600052602060002060005b8581101561301f57823582820155602090920191600101613003565b505050505050565b60008235605e1983360301811261303d57600080fd5b9190910192915050565b600160401b82111561305b5761305b6123f0565b805482825580831015612fd057816000526020600020601f840160051c8101601f8516801561309b57600019820180546000198360200360031b1c168155505b50611656601f840160051c830182612f7d565b600081356102b9816124ac565b6000808335601e198436030181126130d257600080fd5b8301803591506001600160401b038211156130ec57600080fd5b602001915036819003821315612b7457600080fd5b600181811c9082168061311557607f821691505b60208210810361313557634e487b7160e01b600052602260045260246000fd5b50919050565b600019600383901b1c191660019190911b1790565b601f821115612fd057806000526020600020601f840160051c810160208510156131775750805b611656601f850160051c830182612f7d565b6001600160401b038311156131a0576131a06123f0565b6131b4836131ae8354613101565b83613150565b6000601f8411600181146131e257600085156131d05750838201355b6131da868261313b565b845550611656565b600083815260209020601f19861690835b8281101561321357868501358255602094850194600190920191016131f3565b50868210156132305760001960f88860031b161c19848701351681555b505060018560011b0183555050505050565b600160401b831115613256576132566123f0565b8054838255808410156132de576000828152602090208481019082015b808210156132db576132858254613101565b80156132cf57601f8111600181146132a057600084556132cd565b6000848152602090206132be601f840160051c820160018301612f7d565b50600084815260208120818655555b505b50600182019150613273565b50505b5060008181526020812083915b8581101561301f576132fd83866130bb565b613308818386613189565b505060209290920191600191820191016132eb565b6133278283612f1e565b6001600160401b0381111561333e5761333e6123f0565b6133488184612f96565b82600052602060002060005b8281101561337057833582820155602090930192600101613354565b50505050600181016133856020840184612f1e565b6001600160401b0381111561339c5761339c6123f0565b6133a68184613047565b60008381526020902092508060051c60005b8181101561340e576000805b6020811015613401576133f06133d9876130ae565b60ff908116600384901b90811b91901b1984161790565b6020969096019591506001016133c4565b50858201556001016133b8565b50601f19821680830381841461344d576000805b82811015613447576134366133d9886130ae565b602097909701969150600101613422565b50868401555b5050505050506134606040830183612f1e565b612fce818360028601613242565b6000808335601e1984360301811261348557600080fd5b8301803591506001600160401b0382111561349f57600080fd5b6020019150600781901b3603821315612b7457600080fd5b600682106134c7576134c76125db565b60ff1981541660ff831681178255505050565b81356134e5816124ac565b6134ef81836134b7565b506020820135600182015560028101604083013561350c81612cd5565b815460ff191660ff8215151617825550606083013561352a81612cd5565b815461ff00191681151560081b61ff001617825550505050565b600160401b831115613558576135586123f0565b8054838255808410156135c4578060030260038104821461357b5761357b612f67565b8460030260038104861461359157613591612f67565b60008481526020902091820191015b818110156135c15760008082556001820181905560028201556003016135a0565b50505b5060008181526020812083915b8581101561301f576135e383836134da565b60809290920191600391909101906001016135d1565b60008235603e1983360301811261303d57600080fd5b60008154600083558015612fd0576001600160fe1b038116811461363557613635612f67565b60009150828252602082208160021b81015b808210156116565783825561366e6001830160008155600060018201556000600282015550565b600482019150613647565b600160401b82111561368d5761368d6123f0565b805482825580831015612fd0576001600160fe1b03811681146136b2576136b2612f67565b6001600160fe1b03831683146136ca576136ca612f67565b8160005260206000208160021b81018460021b820191505b80821015611656576000825561370a6001830160008155600060018201556000600282015550565b6004820191506136e2565b8135815560018101602083013536849003601e1901811261373557600080fd5b830180356001600160401b0381111561374d57600080fd5b60208201915060a08102360382131561376557600080fd5b61376f8184613679565b600092835260208320925b8181101561301f57823561378d816124ac565b61379781866134b7565b5060208301356137a6816124ac565b6137b381600187016134b7565b50604083013560028501556003840160608401356137d081612cd5565b815460ff191660ff821515161782555060808401356137ee81612cd5565b815461ff00191681151560081b61ff001617909155506004939093019260a0929092019160010161377a565b600160401b83111561382e5761382e6123f0565b8054838255808410156138a9576001600160ff1b038116811461385357613853612f67565b6001600160ff1b038416841461386b5761386b612f67565b8160005260206000208160011b81018560011b820191505b808210156138a6576000825561389b6001830161360f565b600282019150613883565b50505b5060008181526020812083915b8581101561301f576138d16138cb84876135f9565b83613715565b60209290920191600291909101906001016138b6565b60008235607e1983360301811261303d57600080fd5b8054600082558015612f9257816000526020600020612fd082820182612f7d565b813561392981612cd5565b815460ff191660ff821515161782555060208201356003811015801561394e57600080fd5b50815461ff001916600882901b61ff0016178255506001810161397460408401846130bb565b6001600160401b0381111561398b5761398b6123f0565b61399f816139998554613101565b85613150565b6000601f8211600181146139cd57600083156139bb5750838201355b6139c5848261313b565b865550613a26565b600085815260208120601f198516915b828110156139fd57868501358255602094850194600190920191016139dd565b5084821015613a1a5760001960f88660031b161c19848701351681555b505060018360011b0185555b5050505050613a386060830183612f1e565b612fce818360028601612fd5565b600160401b831115613a5a57613a5a6123f0565b805483825580841015613b1f5780600302600381048214613a7d57613a7d612f67565b84600302600381048614613a9357613a93612f67565b60008481526020902091820191015b81811015613b1c576000815560018101613abc8154613101565b8015613b0657601f811160018114613ad75760008355613b04565b600083815260209020613af5601f840160051c820160018301612f7d565b50600083815260208120818555555b505b5050613b14600282016138fd565b600301613aa2565b50505b5060008181526020812083915b8581101561301f57613b47613b4184876138e7565b8361391e565b6020929092019160039190910190600101613b2c565b613b678283612f1e565b6001600160401b03811115613b7e57613b7e6123f0565b613b888184612f96565b82600052602060002060005b82811015613bb057833582820155602090930192600101613b94565b50505050613bcd613bc46020840184613027565b6001830161331d565b613bda604083018361346e565b613be8818360048601613544565b5050613bf7606083018361346e565b613c05818360058601613544565b5050613c146080830183612f1e565b613c2281836006860161381a565b5050613c3160a0830183612f1e565b613c3f81836007860161381a565b5050613c4e60c0830183612f1e565b613c5c818360088601613a46565b5050613c6b60e0830183612f1e565b612fce818360098601613a46565b600060018201613c8b57613c8b612f67565b5060010190565b634e487b7160e01b600052603260045260246000fd5b81516001600160401b03811115613cc157613cc16123f0565b613cd581613ccf8454613101565b84613150565b6020601f821160018114613d035760008315613cf15750848201515b613cfb848261313b565b855550611656565b600084815260208120601f198516915b82811015613d335787850151825560209485019460019092019101613d13565b5084821015613d515786840151600019600387901b60f8161c191681555b50505050600190811b01905550565b8183823760009101908152919050565b818103818111156102b9576102b9612f67565b6020815260006126b46020830184612706565b8135613da1816124ac565b613dab81836134b7565b5060018101613dbd60208401846130bb565b6001600160401b03811115613dd457613dd46123f0565b613de2816139998554613101565b6000601f821160018114613e105760008315613dfe5750838201355b613e08848261313b565b865550613e6a565b600085815260209020601f19841690835b82811015613e415786850135825560209485019460019092019101613e21565b5084821015613e5e5760001960f88660031b161c19848701351681555b505060018360011b0185555b5050505050505056fea264697066735822122077fa5723769d6079a05db5efc85cf0cd996bebaf9c80e36700e6b8ec97b6f6df64736f6c634300081c0033","linkReferences":{}},"methodIdentifiers":{"addTracker(uint256,(uint8,bytes))":"f7a48117","applyPolicy(address,uint256[])":"9228303f","getAppliedPolicyIds(address)":"e3749023","getForeignCall(uint256)":"a78049c8","getForeignCall(uint256,uint256)":"da7d5d28","getFunctionSignature(uint256)":"d57a72cd","getRule(uint256)":"48462037","getTracker(uint256)":"c3a83344","getTracker(uint256,uint256)":"72a340d7","updateForeignCall(uint256,address,string,uint8,uint8[])":"3bbaa76c","updateFunctionSignature(uint256,bytes,uint8[])":"5de1dc1f","updatePolicy(uint256,bytes[],uint256[],uint256[][])":"6af870c6","updateRule(uint256,(uint256[],(uint256[],uint8[],bytes[]),(uint8,uint256,bool,bool)[],(uint8,uint256,bool,bool)[],(uint256,(uint8,(uint8,uint256,bool,bool))[])[],(uint256,(uint8,(uint8,uint256,bool,bool))[])[],(bool,uint8,string,uint256[])[],(bool,uint8,string,uint256[])[]))":"05e4eff3","updateTracker(uint256,uint256,address,string,bool,bytes)":"9c7a08e6"},"id":44}