{"abi":[{"type":"function","name":"addClosedPolicySubscriber","inputs":[{"name":"_policyId","type":"uint256","internalType":"uint256"},{"name":"_subscriber","type":"address","internalType":"address"}],"outputs":[],"stateMutability":"nonpayable"},{"type":"function","name":"createForeignCall","inputs":[{"name":"_policyId","type":"uint256","internalType":"uint256"},{"name":"_foreignCall","type":"tuple","internalType":"struct ForeignCall","components":[{"name":"set","type":"bool","internalType":"bool"},{"name":"foreignCallAddress","type":"address","internalType":"address"},{"name":"signature","type":"bytes4","internalType":"bytes4"},{"name":"returnType","type":"uint8","internalType":"enum PT"},{"name":"foreignCallIndex","type":"uint256","internalType":"uint256"},{"name":"parameterTypes","type":"uint8[]","internalType":"enum PT[]"},{"name":"typeSpecificIndices","type":"uint8[]","internalType":"uint8[]"}]},{"name":"foreignCallName","type":"string","internalType":"string"}],"outputs":[{"name":"","type":"uint256","internalType":"uint256"}],"stateMutability":"nonpayable"},{"type":"function","name":"createFunctionSignature","inputs":[{"name":"_policyId","type":"uint256","internalType":"uint256"},{"name":"_functionSignature","type":"bytes4","internalType":"bytes4"},{"name":"_pTypes","type":"uint8[]","internalType":"enum PT[]"},{"name":"_functionSignatureName","type":"string","internalType":"string"},{"name":"_encodedValues","type":"string","internalType":"string"}],"outputs":[{"name":"","type":"uint256","internalType":"uint256"}],"stateMutability":"nonpayable"},{"type":"function","name":"createTracker","inputs":[{"name":"_policyId","type":"uint256","internalType":"uint256"},{"name":"_tracker","type":"tuple","internalType":"struct Trackers","components":[{"name":"set","type":"bool","internalType":"bool"},{"name":"pType","type":"uint8","internalType":"enum PT"},{"name":"trackerValue","type":"bytes","internalType":"bytes"},{"name":"trackerIndex","type":"uint256","internalType":"uint256"}]},{"name":"trackerName","type":"string","internalType":"string"}],"outputs":[{"name":"","type":"uint256","internalType":"uint256"}],"stateMutability":"nonpayable"},{"type":"function","name":"deleteForeignCall","inputs":[{"name":"_policyId","type":"uint256","internalType":"uint256"},{"name":"_foreignCallId","type":"uint256","internalType":"uint256"}],"outputs":[],"stateMutability":"nonpayable"},{"type":"function","name":"deleteFunctionSignature","inputs":[{"name":"_policyId","type":"uint256","internalType":"uint256"},{"name":"_functionSignatureId","type":"uint256","internalType":"uint256"}],"outputs":[],"stateMutability":"nonpayable"},{"type":"function","name":"deleteTracker","inputs":[{"name":"_policyId","type":"uint256","internalType":"uint256"},{"name":"_trackerIndex","type":"uint256","internalType":"uint256"}],"outputs":[],"stateMutability":"nonpayable"},{"type":"function","name":"getAllForeignCalls","inputs":[{"name":"_policyId","type":"uint256","internalType":"uint256"}],"outputs":[{"name":"fc","type":"tuple[]","internalType":"struct ForeignCall[]","components":[{"name":"set","type":"bool","internalType":"bool"},{"name":"foreignCallAddress","type":"address","internalType":"address"},{"name":"signature","type":"bytes4","internalType":"bytes4"},{"name":"returnType","type":"uint8","internalType":"enum PT"},{"name":"foreignCallIndex","type":"uint256","internalType":"uint256"},{"name":"parameterTypes","type":"uint8[]","internalType":"enum PT[]"},{"name":"typeSpecificIndices","type":"uint8[]","internalType":"uint8[]"}]}],"stateMutability":"view"},{"type":"function","name":"getAllFunctionSignatures","inputs":[{"name":"_policyId","type":"uint256","internalType":"uint256"}],"outputs":[{"name":"","type":"tuple[]","internalType":"struct FunctionSignatureStorageSet[]","components":[{"name":"set","type":"bool","internalType":"bool"},{"name":"signature","type":"bytes4","internalType":"bytes4"},{"name":"parameterTypes","type":"uint8[]","internalType":"enum PT[]"}]}],"stateMutability":"view"},{"type":"function","name":"getAllTrackers","inputs":[{"name":"_policyId","type":"uint256","internalType":"uint256"}],"outputs":[{"name":"","type":"tuple[]","internalType":"struct Trackers[]","components":[{"name":"set","type":"bool","internalType":"bool"},{"name":"pType","type":"uint8","internalType":"enum PT"},{"name":"trackerValue","type":"bytes","internalType":"bytes"},{"name":"trackerIndex","type":"uint256","internalType":"uint256"}]}],"stateMutability":"view"},{"type":"function","name":"getForeignCall","inputs":[{"name":"_policyId","type":"uint256","internalType":"uint256"},{"name":"_foreignCallId","type":"uint256","internalType":"uint256"}],"outputs":[{"name":"fc","type":"tuple","internalType":"struct ForeignCall","components":[{"name":"set","type":"bool","internalType":"bool"},{"name":"foreignCallAddress","type":"address","internalType":"address"},{"name":"signature","type":"bytes4","internalType":"bytes4"},{"name":"returnType","type":"uint8","internalType":"enum PT"},{"name":"foreignCallIndex","type":"uint256","internalType":"uint256"},{"name":"parameterTypes","type":"uint8[]","internalType":"enum PT[]"},{"name":"typeSpecificIndices","type":"uint8[]","internalType":"uint8[]"}]}],"stateMutability":"view"},{"type":"function","name":"getForeignCallMetadata","inputs":[{"name":"_policyId","type":"uint256","internalType":"uint256"},{"name":"_foreignCallId","type":"uint256","internalType":"uint256"}],"outputs":[{"name":"fcMeta","type":"string","internalType":"string"}],"stateMutability":"view"},{"type":"function","name":"getFunctionSignature","inputs":[{"name":"_policyId","type":"uint256","internalType":"uint256"},{"name":"_functionSignatureId","type":"uint256","internalType":"uint256"}],"outputs":[{"name":"","type":"tuple","internalType":"struct FunctionSignatureStorageSet","components":[{"name":"set","type":"bool","internalType":"bool"},{"name":"signature","type":"bytes4","internalType":"bytes4"},{"name":"parameterTypes","type":"uint8[]","internalType":"enum PT[]"}]}],"stateMutability":"view"},{"type":"function","name":"getFunctionSignatureMetadata","inputs":[{"name":"_policyId","type":"uint256","internalType":"uint256"},{"name":"_functionSignatureId","type":"uint256","internalType":"uint256"}],"outputs":[{"name":"","type":"tuple","internalType":"struct FunctionSignatureHashMapping","components":[{"name":"functionSignature","type":"string","internalType":"string"},{"name":"signature","type":"bytes4","internalType":"bytes4"},{"name":"encodedValues","type":"string","internalType":"string"}]}],"stateMutability":"view"},{"type":"function","name":"getTracker","inputs":[{"name":"_policyId","type":"uint256","internalType":"uint256"},{"name":"_index","type":"uint256","internalType":"uint256"}],"outputs":[{"name":"tracker","type":"tuple","internalType":"struct Trackers","components":[{"name":"set","type":"bool","internalType":"bool"},{"name":"pType","type":"uint8","internalType":"enum PT"},{"name":"trackerValue","type":"bytes","internalType":"bytes"},{"name":"trackerIndex","type":"uint256","internalType":"uint256"}]}],"stateMutability":"view"},{"type":"function","name":"getTrackerMetadata","inputs":[{"name":"_policyId","type":"uint256","internalType":"uint256"},{"name":"_trackerId","type":"uint256","internalType":"uint256"}],"outputs":[{"name":"trMeta","type":"string","internalType":"string"}],"stateMutability":"view"},{"type":"function","name":"isCemented","inputs":[{"name":"_policyId","type":"uint256","internalType":"uint256"}],"outputs":[{"name":"_cemented","type":"bool","internalType":"bool"}],"stateMutability":"view"},{"type":"function","name":"isClosedPolicySubscriber","inputs":[{"name":"_policyId","type":"uint256","internalType":"uint256"},{"name":"_subscriber","type":"address","internalType":"address"}],"outputs":[{"name":"","type":"bool","internalType":"bool"}],"stateMutability":"view"},{"type":"function","name":"removeClosedPolicySubscriber","inputs":[{"name":"_policyId","type":"uint256","internalType":"uint256"},{"name":"_subscriber","type":"address","internalType":"address"}],"outputs":[],"stateMutability":"nonpayable"},{"type":"function","name":"updateForeignCall","inputs":[{"name":"_policyId","type":"uint256","internalType":"uint256"},{"name":"_foreignCallId","type":"uint256","internalType":"uint256"},{"name":"_foreignCall","type":"tuple","internalType":"struct ForeignCall","components":[{"name":"set","type":"bool","internalType":"bool"},{"name":"foreignCallAddress","type":"address","internalType":"address"},{"name":"signature","type":"bytes4","internalType":"bytes4"},{"name":"returnType","type":"uint8","internalType":"enum PT"},{"name":"foreignCallIndex","type":"uint256","internalType":"uint256"},{"name":"parameterTypes","type":"uint8[]","internalType":"enum PT[]"},{"name":"typeSpecificIndices","type":"uint8[]","internalType":"uint8[]"}]}],"outputs":[{"name":"fc","type":"tuple","internalType":"struct ForeignCall","components":[{"name":"set","type":"bool","internalType":"bool"},{"name":"foreignCallAddress","type":"address","internalType":"address"},{"name":"signature","type":"bytes4","internalType":"bytes4"},{"name":"returnType","type":"uint8","internalType":"enum PT"},{"name":"foreignCallIndex","type":"uint256","internalType":"uint256"},{"name":"parameterTypes","type":"uint8[]","internalType":"enum PT[]"},{"name":"typeSpecificIndices","type":"uint8[]","internalType":"uint8[]"}]}],"stateMutability":"nonpayable"},{"type":"function","name":"updateFunctionSignature","inputs":[{"name":"_policyId","type":"uint256","internalType":"uint256"},{"name":"_functionSignatureId","type":"uint256","internalType":"uint256"},{"name":"_functionSignature","type":"bytes4","internalType":"bytes4"},{"name":"_pTypes","type":"uint8[]","internalType":"enum PT[]"}],"outputs":[{"name":"","type":"uint256","internalType":"uint256"}],"stateMutability":"nonpayable"},{"type":"function","name":"updateTracker","inputs":[{"name":"_policyId","type":"uint256","internalType":"uint256"},{"name":"_trackerIndex","type":"uint256","internalType":"uint256"},{"name":"_tracker","type":"tuple","internalType":"struct Trackers","components":[{"name":"set","type":"bool","internalType":"bool"},{"name":"pType","type":"uint8","internalType":"enum PT"},{"name":"trackerValue","type":"bytes","internalType":"bytes"},{"name":"trackerIndex","type":"uint256","internalType":"uint256"}]}],"outputs":[],"stateMutability":"nonpayable"},{"type":"event","name":"AssociatedRuleDeleted","inputs":[{"name":"policyId","type":"uint256","indexed":true,"internalType":"uint256"},{"name":"foreignCallId","type":"uint256","indexed":true,"internalType":"uint256"}],"anonymous":false},{"type":"event","name":"ForeignCallCreated","inputs":[{"name":"policyId","type":"uint256","indexed":true,"internalType":"uint256"},{"name":"foreignCallId","type":"uint256","indexed":true,"internalType":"uint256"}],"anonymous":false},{"type":"event","name":"ForeignCallDeleted","inputs":[{"name":"policyId","type":"uint256","indexed":true,"internalType":"uint256"},{"name":"foreignCallId","type":"uint256","indexed":true,"internalType":"uint256"}],"anonymous":false},{"type":"event","name":"ForeignCallUpdated","inputs":[{"name":"policyId","type":"uint256","indexed":true,"internalType":"uint256"},{"name":"foreignCallId","type":"uint256","indexed":true,"internalType":"uint256"}],"anonymous":false},{"type":"event","name":"FunctionSignatureCreated","inputs":[{"name":"policyId","type":"uint256","indexed":true,"internalType":"uint256"},{"name":"functionSignatureId","type":"uint256","indexed":true,"internalType":"uint256"}],"anonymous":false},{"type":"event","name":"FunctionSignatureDeleted","inputs":[{"name":"policyId","type":"uint256","indexed":true,"internalType":"uint256"},{"name":"functionSignatureId","type":"uint256","indexed":true,"internalType":"uint256"}],"anonymous":false},{"type":"event","name":"FunctionSignatureUpdated","inputs":[{"name":"policyId","type":"uint256","indexed":true,"internalType":"uint256"},{"name":"functionSignatureId","type":"uint256","indexed":true,"internalType":"uint256"}],"anonymous":false},{"type":"event","name":"PolicySubsciberAdded","inputs":[{"name":"policyId","type":"uint256","indexed":true,"internalType":"uint256"},{"name":"subscriber","type":"address","indexed":true,"internalType":"address"}],"anonymous":false},{"type":"event","name":"PolicySubsciberRemoved","inputs":[{"name":"policyId","type":"uint256","indexed":true,"internalType":"uint256"},{"name":"subscriber","type":"address","indexed":true,"internalType":"address"}],"anonymous":false},{"type":"event","name":"TrackerCreated","inputs":[{"name":"policyId","type":"uint256","indexed":true,"internalType":"uint256"},{"name":"trackerId","type":"uint256","indexed":true,"internalType":"uint256"}],"anonymous":false},{"type":"event","name":"TrackerDeleted","inputs":[{"name":"policyId","type":"uint256","indexed":true,"internalType":"uint256"},{"name":"trackerId","type":"uint256","indexed":true,"internalType":"uint256"}],"anonymous":false},{"type":"event","name":"TrackerUpdated","inputs":[{"name":"policyId","type":"uint256","indexed":true,"internalType":"uint256"},{"name":"trackerId","type":"uint256","indexed":true,"internalType":"uint256"}],"anonymous":false}],"bytecode":{"object":"0x6080604052348015600f57600080fd5b50613d378061001f6000396000f3fe608060405234801561001057600080fd5b50600436106101825760003560e01c8063a3937e99116100d8578063c017d3001161008c578063da7d5d2811610066578063da7d5d2814610370578063e7e31b3114610383578063f69187ee146103a357600080fd5b8063c017d3001461032a578063d70018131461034a578063d82260c81461035d57600080fd5b8063a626bb8d116100bd578063a626bb8d146102f1578063a82c9e0714610304578063bcb01c221461031757600080fd5b8063a3937e99146102b1578063a39d4249146102d157600080fd5b80634c957ad91161013a5780636edc1808116101145780636edc18081461026b57806372a340d71461027e5780637374c9941461029e57600080fd5b80634c957ad91461021857806356f3b05f1461022b578063660dac4d1461024b57600080fd5b80632dc2ac0d1161016b5780632dc2ac0d146101c2578063348ec401146101d55780633bf07314146101f857600080fd5b806318f4b33f146101875780632711fe6b146101ad575b600080fd5b61019a610195366004612d74565b6103b6565b6040519081526020015b60405180910390f35b6101c06101bb366004612e12565b61058a565b005b6101c06101d0366004612e50565b61071d565b6101e86101e3366004612ea0565b610774565b60405190151581526020016101a4565b61020b610206366004612eb9565b61079d565b6040516101a49190612f3f565b6101e8610226366004612e12565b61084f565b61023e610239366004612ea0565b610897565b6040516101a4919061300b565b61025e610259366004612eb9565b610aa5565b6040516101a49190613127565b61019a61027936600461313a565b610bae565b61029161028c366004612eb9565b610cdb565b6040516101a4919061317a565b6101c06102ac366004612e12565b610e1d565b6102c46102bf366004612ea0565b610fa8565b6040516101a4919061326e565b6102e46102df366004612eb9565b6112c9565b6040516101a491906132e5565b6101c06102ff366004612eb9565b611463565b6101c0610312366004612eb9565b611816565b61019a6103253660046134e6565b61191e565b61033d610338366004613547565b611d12565b6040516101a4919061358d565b61019a61035836600461363a565b611e9d565b6101c061036b366004612eb9565b6120ff565b61033d61037e366004612eb9565b612213565b610396610391366004612ea0565b61244f565b6040516101a491906136e9565b61020b6103b1366004612eb9565b612624565b60008433866103c481610774565b15610430576040517f08c379a000000000000000000000000000000000000000000000000000000000815260206004820152601f60248201527f4e6f7420616c6c6f77656420666f722063656d656e74656420706f6c6963790060448201526064015b60405180910390fd5b60006104426040890160208a01613760565b73ffffffffffffffffffffffffffffffffffffffff16036104c257604080518082018252601c81527f5a65726f20416464726573732043616e6e6f742042652041646d696e00000000602082015290517f08c379a00000000000000000000000000000000000000000000000000000000081526104279190600401612f3f565b60006104cc61262e565b60008a81526020829052604081208054929350909182906104ec906137aa565b9182905550905060006104fe8a61385f565b6080810183905290506105118b8261265c565b60008b8152602084905260409020829055888861052c61282e565b60008e815260209182526040808220878352909252209161054e9190836139b8565b5060405182908c907f9006068daf408b7e36a22c789f04c4ba9c6c638a6cf8438c2250583384f2192f90600090a3509998505050505050505050565b81338361059681610774565b156105fd576040517f08c379a000000000000000000000000000000000000000000000000000000000815260206004820152601f60248201527f4e6f7420616c6c6f77656420666f722063656d656e74656420706f6c696379006044820152606401610427565b73ffffffffffffffffffffffffffffffffffffffff841661067d57604080518082018252601c81527f5a65726f20416464726573732043616e6e6f742042652041646d696e00000000602082015290517f08c379a00000000000000000000000000000000000000000000000000000000081526104279190600401612f3f565b600161068761285c565b60008781526001919091016020908152604080832073ffffffffffffffffffffffffffffffffffffffff8916808552600590910190925280832080547fffffffffffffffffffffffffffffffffffffffffffffffffffffffffffffff001694151594909417909355915187917f790a3138425334d31f4463869c596f58d51e891ecb665b5090fa0ae9ed8b6fd291a35050505050565b8233600061072961288a565b905061073f81878761073a88613ad2565b6128b8565b604051859087907f7d0cd6a27b5d0487bca14f5b3852217db2c9951f3ad91646fe09e0c19abcef5090600090a3505050505050565b600061077e61285c565b6000928352600101602052506040902060040154610100900460ff1690565b60606107a7612998565b6000848152602091825260408082208583529092522080546107c89061391f565b80601f01602080910402602001604051908101604052809291908181526020018280546107f49061391f565b80156108415780601f1061081657610100808354040283529160200191610841565b820191906000526020600020905b81548152906001019060200180831161082457829003601f168201915b505050505090505b92915050565b600061085961285c565b60009384526001016020908152604080852073ffffffffffffffffffffffffffffffffffffffff949094168552600590930190525090205460ff1690565b606060006108a361288a565b6000848152602082905260408120549192508167ffffffffffffffff8111156108ce576108ce613398565b60405190808252806020026020018201604052801561092b57816020015b610918604080516080810190915260008082526020820190815260200160608152602001600081525090565b8152602001906001900390816108ec5790505b509050600060015b838111610a9a576000878152600186016020908152604080832084845290915290205460ff1615610a885760008781526001860160209081526040808320848452825291829020825160808101909352805460ff8082161515855291928401916101009091041660078111156109ab576109ab612f59565b60078111156109bc576109bc612f59565b81526020016001820180546109d09061391f565b80601f01602080910402602001604051908101604052809291908181526020018280546109fc9061391f565b8015610a495780601f10610a1e57610100808354040283529160200191610a49565b820191906000526020600020905b815481529060010190602001808311610a2c57829003601f168201915b50505050508152602001600282015481525050838381518110610a6e57610a6e613b77565b60200260200101819052508180610a84906137aa565b9250505b80610a92816137aa565b915050610933565b509095945050505050565b60408051606080820183526000808352602083015291810191909152610ac96129c5565b60008481526001918201602090815260408083208684528252918290208251606081018452815460ff811615158252610100900460e01b7fffffffff000000000000000000000000000000000000000000000000000000001681840152938101805484518185028101850186528181529294860193830182828015610b9d57602002820191906000526020600020906000905b82829054906101000a900460ff166007811115610b7b57610b7b612f59565b815260206001928301818104948501949093039092029101808411610b5c5790505b505050505081525050905092915050565b6000843386610bbc81610774565b15610c23576040517f08c379a000000000000000000000000000000000000000000000000000000000815260206004820152601f60248201527f4e6f7420616c6c6f77656420666f722063656d656e74656420706f6c696379006044820152606401610427565b6000610c2d61288a565b60008a8152602082905260408120805492935090918290610c4d906137aa565b91829055509050610c63828b8361073a8d613ad2565b60008a81526020839052604090208190558787610c7e612998565b60008d8152602091825260408082208683529092522091610ca09190836139b8565b5060405181908b907f1ea0bdfd9680c9b8e4038e41083d7800dca81e6f55a15ce48d858ebb70693d2a90600090a39998505050505050505050565b610d07604080516080810190915260008082526020820190815260200160608152602001600081525090565b6000610d1161288a565b60008581526001820160209081526040808320878452825291829020825160808101909352805460ff8082161515855294955092939092918401916101009004166007811115610d6357610d63612f59565b6007811115610d7457610d74612f59565b8152602001600182018054610d889061391f565b80601f0160208091040260200160405190810160405280929190818152602001828054610db49061391f565b8015610e015780601f10610dd657610100808354040283529160200191610e01565b820191906000526020600020905b815481529060010190602001808311610de457829003601f168201915b5050505050815260200160028201548152505091505092915050565b813383610e2981610774565b15610e90576040517f08c379a000000000000000000000000000000000000000000000000000000000815260206004820152601f60248201527f4e6f7420616c6c6f77656420666f722063656d656e74656420706f6c696379006044820152606401610427565b73ffffffffffffffffffffffffffffffffffffffff8416610f1057604080518082018252601c81527f5a65726f20416464726573732043616e6e6f742042652041646d696e00000000602082015290517f08c379a00000000000000000000000000000000000000000000000000000000081526104279190600401612f3f565b610f1861285c565b60008681526001919091016020908152604080832073ffffffffffffffffffffffffffffffffffffffff8816808552600590910190925280832080547fffffffffffffffffffffffffffffffffffffffffffffffffffffffffffffff0016905551909187917febc594f3b2a99e6227cfcc8bd404d054b6cc3dad7f287e1944cb88681a05c14c9190a35050505050565b60606000610fb461262e565b6000848152602091909152604081205491508167ffffffffffffffff811115610fdf57610fdf613398565b60405190808252806020026020018201604052801561105057816020015b61103d6040805160e08101825260008082526020820181905291810182905290606082019081526020016000815260200160608152602001606081525090565b815260200190600190039081610ffd5790505b5090506000805b8381116112bf5761106661262e565b60008781526001919091016020908152604080832084845290915290205460ff16156112ad5761109461262e565b600087815260019190910160209081526040808320848452825291829020825160e08082018552825460ff80821615158452610100820473ffffffffffffffffffffffffffffffffffffffff16958401959095527501000000000000000000000000000000000000000000810490911b7fffffffff0000000000000000000000000000000000000000000000000000000016948201949094529290916060840191790100000000000000000000000000000000000000000000000000900416600781111561116457611164612f59565b600781111561117557611175612f59565b8152602001600182015481526020016002820180548060200260200160405190810160405280929190818152602001828054801561120257602002820191906000526020600020906000905b82829054906101000a900460ff1660078111156111e0576111e0612f59565b8152602060019283018181049485019490930390920291018084116111c15790505b505050505081526020016003820180548060200260200160405190810160405280929190818152602001828054801561127857602002820191906000526020600020906000905b825461010083900a900460ff168152602060019283018181049485019490930390920291018084116112495790505b50505050508152505083838151811061129357611293613b77565b602002602001018190525081806112a9906137aa565b9250505b806112b7816137aa565b915050611057565b5090949350505050565b604080516060808201835280825260006020830152918101919091526112ed612998565b60008481526020918252604080822085835290925281902081516060810190925280548290829061131d9061391f565b80601f01602080910402602001604051908101604052809291908181526020018280546113499061391f565b80156113965780601f1061136b57610100808354040283529160200191611396565b820191906000526020600020905b81548152906001019060200180831161137957829003601f168201915b5050509183525050600182015460e01b7fffffffff000000000000000000000000000000000000000000000000000000001660208201526002820180546040909201916113e29061391f565b80601f016020809104026020016040519081016040528092919081815260200182805461140e9061391f565b8015610b9d5780601f1061143057610100808354040283529160200191610b9d565b820191906000526020600020905b81548152906001019060200180831161143e5750505091909252509195945050505050565b81338361146f81610774565b156114d6576040517f08c379a000000000000000000000000000000000000000000000000000000000815260206004820152601f60248201527f4e6f7420616c6c6f77656420666f722063656d656e74656420706f6c696379006044820152606401610427565b60006114e061285c565b60008781526001919091016020526040812091506114fc6129c5565b600088815260019190910160209081526040808320898452909152902054610100900460e01b905061152c6129c5565b60008881526001918201602090815260408083208a8452909152812080547fffffffffffffffffffffffffffffffffffffffffffffffffffffff00000000001681559161157b90830182612a21565b5061158c9050600383016000612a49565b7fffffffff000000000000000000000000000000000000000000000000000000008116600090815260018301602052604081208190555b7fffffffff00000000000000000000000000000000000000000000000000000000821660009081526002840160205260409020548110156116f6576116066129f3565b6000898152600191820160209081526040808320858452909152812080547fffffffffffffffffffffffffffffffffffffffffffffffffffffffffffffff00168155918201816116568282612a6e565b6001820160006116668282612a6e565b611674600183016000612a21565b611682600283016000612a8c565b506116939050600483016000612aaa565b6116a1600583016000612aaa565b6116af600683016000612ac8565b6116bd600783016000612ac8565b50506040518992508a91507fc2ebaca961b98bedef10bce18fc3c8bdcba15a62d52feb7f59578c9998e1d42a90600090a36001016115c3565b507fffffffff0000000000000000000000000000000000000000000000000000000081166000908152600283016020526040812061173391612a6e565b600061173e8861244f565b905060005b81518110156117de5781818151811061175e5761175e613b77565b602002602001015160000151156117d6578360010160020182828151811061178857611788613b77565b60209081029190910181015181015182546001810184556000938452919092206008820401805463ffffffff60079093166004026101000a928302191660e09390931c919091029190911790555b600101611743565b50604051879089907f6d08ac46410096cd5c65404c072fa6ce1dd663de93bf00c02d214f1babf6894f90600090a35050505050505050565b81338361182281610774565b15611889576040517f08c379a000000000000000000000000000000000000000000000000000000000815260206004820152601f60248201527f4e6f7420616c6c6f77656420666f722063656d656e74656420706f6c696379006044820152606401610427565b61189161288a565b6000868152600191820160209081526040808320888452909152812080547fffffffffffffffffffffffffffffffffffffffffffffffffffffffffffff0000168155916118e090830182612ae9565b6002820160009055505083857ed9d817df2d853a886f2cbe7a671a676890264711abbb9d2c3ee79fb1bb653a60405160405180910390a35050505050565b600084338661192c81610774565b15611993576040517f08c379a000000000000000000000000000000000000000000000000000000000815260206004820152601f60248201527f4e6f7420616c6c6f77656420666f722063656d656e74656420706f6c696379006044820152606401610427565b600061199d6129c5565b60008a815260018201602090815260408083208c845290915290208054919250907fffffffff0000000000000000000000000000000000000000000000000000000089811661010090920460e01b1614611a79576040517f08c379a000000000000000000000000000000000000000000000000000000000815260206004820152603660248201527f44656c6574652066756e6374696f6e207369676e6174757265206265666f726560448201527f207570646174696e6720746f2061206e6577206f6e65000000000000000000006064820152608401610427565b865160018201541115611b34576040517f08c379a000000000000000000000000000000000000000000000000000000000815260206004820152604660248201527f4e657720706172616d65746572207479706573206d757374206265206f66206760448201527f726561746572206f7220657175616c206c656e67746820746f20746865206f7260648201527f6967696e616c0000000000000000000000000000000000000000000000000000608482015260a401610427565b60005b6001820154811015611c4957816001018181548110611b5857611b58613b77565b90600052602060002090602091828204019190069054906101000a900460ff166007811115611b8957611b89612f59565b888281518110611b9b57611b9b613b77565b60200260200101516007811115611bb457611bb4612f59565b14611c41576040517f08c379a000000000000000000000000000000000000000000000000000000000815260206004820152603c60248201527f4e657720706172616d65746572207479706573206d757374206265206f66207460448201527f68652073616d65207479706520617320746865206f726967696e616c000000006064820152608401610427565b600101611b37565b50865160018201541015611cd75760018101545b8751811015611cd55781600101888281518110611c7c57611c7c613b77565b602090810291909101810151825460018101845560009384529282902091830490910180549192909160ff601f9092166101000a918202191690836007811115611cc857611cc8612f59565b0217905550600101611c5d565b505b60405189908b907fdd0db90814c3f4a8b95a5df9551e0078cde6fe0f831200384762b48ea9acebed90600090a3509698975050505050505050565b611d526040805160e08101825260008082526020820181905291810182905290606082019081526020016000815260200160608152602001606081525090565b833385611d5e81610774565b15611dc5576040517f08c379a000000000000000000000000000000000000000000000000000000000815260206004820152601f60248201527f4e6f7420616c6c6f77656420666f722063656d656e74656420706f6c696379006044820152606401610427565b611dce8561385f565b602081015190945073ffffffffffffffffffffffffffffffffffffffff16611e5557604080518082018252601c81527f5a65726f20416464726573732043616e6e6f742042652041646d696e00000000602082015290517f08c379a00000000000000000000000000000000000000000000000000000000081526104279190600401612f3f565b60808401869052611e66878561265c565b604051869088907f82132283659aa079ae6d599fbbe109c1bfb961fc5bbbb0a98a343b4ea6dc3e0090600090a35050509392505050565b6000853387611eab81610774565b15611f12576040517f08c379a000000000000000000000000000000000000000000000000000000000815260206004820152601f60248201527f4e6f7420616c6c6f77656420666f722063656d656e74656420706f6c696379006044820152606401610427565b6000611f1c6129c5565b60008b8152602082905260408120805492935090918290611f3c906137aa565b919050819055905060018260010160008d8152602001908152602001600020600083815260200190815260200160002060000160006101000a81548160ff021916908315150217905550898260010160008d8152602001908152602001600020600083815260200190815260200160002060000160016101000a81548163ffffffff021916908360e01c0217905550888260010160008d815260200190815260200160002060008381526020019081526020016000206001019080519060200190612008929190612b23565b5060008b8152602083905260408120829055612022612998565b60008d81526020828152604080832086845290915290209091506120468a82613ba6565b508a8160000160008e8152602001908152602001600020600084815260200190815260200160002060010160006101000a81548163ffffffff021916908360e01c0217905550878160000160008e8152602001908152602001600020600084815260200190815260200160002060020190816120c29190613ba6565b5060405182908d907f198f288cfe3cc08e322e6cb04557ce15e347ed91478a566c5b8950ce69ef305a90600090a3509a9950505050505050505050565b81338361210b81610774565b15612172576040517f08c379a000000000000000000000000000000000000000000000000000000000815260206004820152601f60248201527f4e6f7420616c6c6f77656420666f722063656d656e74656420706f6c696379006044820152606401610427565b61217a61262e565b6000868152600191820160209081526040808320888452909152812080547fffffffffffff00000000000000000000000000000000000000000000000000001681559182018190556121cf6002830182612a21565b6121dd600383016000612a21565b5050604051849086907f19d0bd0cc4d63f9108c93b0abfd7408498ecbc73713f6bb3a2862d9b9d1983d890600090a35050505050565b6122536040805160e08101825260008082526020820181905291810182905290606082019081526020016000815260200160608152602001606081525090565b61225b61262e565b600084815260019190910160209081526040808320858452825291829020825160e08082018552825460ff80821615158452610100820473ffffffffffffffffffffffffffffffffffffffff16958401959095527501000000000000000000000000000000000000000000810490911b7fffffffff0000000000000000000000000000000000000000000000000000000016948201949094529290916060840191790100000000000000000000000000000000000000000000000000900416600781111561232b5761232b612f59565b600781111561233c5761233c612f59565b815260200160018201548152602001600282018054806020026020016040519081016040528092919081815260200182805480156123c957602002820191906000526020600020906000905b82829054906101000a900460ff1660078111156123a7576123a7612f59565b8152602060019283018181049485019490930390920291018084116123885790505b5050505050815260200160038201805480602002602001604051908101604052809291908181526020018280548015610b9d57602002820191906000526020600020906000905b825461010083900a900460ff16815260206001928301818104948501949093039092029101808411612410579050505050505081525050905092915050565b6060600061245b6129c5565b6000848152602082905260408120549192508167ffffffffffffffff81111561248657612486613398565b6040519080825280602002602001820160405280156124d357816020015b604080516060808201835260008083526020830152918101919091528152602001906001900390816124a45790505b509050600060015b838111610a9a576000878152600186016020908152604080832084845290915290205460ff16156126125760008781526001868101602090815260408084208585528252928390208351606081018552815460ff811615158252610100900460e01b7fffffffff0000000000000000000000000000000000000000000000000000000016818401529281018054855181850281018501875281815294959294928601938301828280156125dd57602002820191906000526020600020906000905b82829054906101000a900460ff1660078111156125bb576125bb612f59565b81526020600192830181810494850194909303909202910180841161259c5790505b5050505050815250508383815181106125f8576125f8613b77565b6020026020010181905250818061260e906137aa565b9250505b8061261c816137aa565b9150506124db565b60606107a761282e565b60008061084960017f1f3305601ed940efccf797d76856e5fe70659a8a6905d64c9f236321df91e718613cbf565b8060c00151518160a00151511461267557612675613cd2565b600181528061268261262e565b6000848152600191909101602090815260408083206080860151845282529182902083518154928501519385015160e01c7501000000000000000000000000000000000000000000027fffffffffffffff00000000ffffffffffffffffffffffffffffffffffffffffff73ffffffffffffffffffffffffffffffffffffffff909516610100027fffffffffffffffffffffff0000000000000000000000000000000000000000ff921515929092167fffffffffffffffffffffff00000000000000000000000000000000000000000090941693909317179283168217815560608401519092909183917fffffffffffff00ffffffffffffffffffffffffffffffffffffffffffffffffff9091167fffffffffffff0000000000ffffffffffffffffffffffffffffffffffffffffff909116177901000000000000000000000000000000000000000000000000008360078111156127e1576127e1612f59565b02179055506080820151600182015560a0820151805161280b916002840191602090910190612b23565b5060c08201518051612827916003840191602090910190612bd7565b5050505050565b60008061084960017f680281604e63223dcddb1c0e3af179db8bd5c81752348dc75dc7ed88d927353c613cbf565b60008061084960017ff9dbd639dd2ea165d77dd4c51dec420100d51ceacf023b1c40faa045ba8f9a65613cbf565b60008061084960017f438102ff677bc3f21830c58117a05d6b953b31e3ea339da3f17957cd3941a690613cbf565b60018082526000848152908501602090815260408083208584528252909120825181549015157fffffffffffffffffffffffffffffffffffffffffffffffffffffffffffffff00821681178355928401518493909183917fffffffffffffffffffffffffffffffffffffffffffffffffffffffffffff00ff167fffffffffffffffffffffffffffffffffffffffffffffffffffffffffffff00009091161761010083600781111561296b5761296b612f59565b0217905550604082015160018201906129849082613ba6565b506060820151816002015590505050505050565b60008061084960017eae59ab445727a5796201aff46e4ecaebcc33dc49db6fcd6318a37c45503337613cbf565b60008061084960017f8b87534450a5488e76eda19b94ce784ed5d5fd327ac126c78047b6b2a04cf2f6613cbf565b60008061084960017f5c91f63a4ffcbd372b8ec622fd1fcaaa601b66330afdb30e5c292dd9123f20b0613cbf565b50805460008255601f016020900490600052602060002090810190612a469190612c3e565b50565b508054600082556007016008900490600052602060002090810190612a469190612c3e565b5080546000825590600052602060002090810190612a469190612c3e565b5080546000825590600052602060002090810190612a469190612c53565b5080546000825590600052602060002090810190612a469190612c70565b5080546000825560050290600052602060002090810190612a469190612ca7565b508054612af59061391f565b6000825580601f10612b05575050565b601f016020900490600052602060002090810190612a469190612c3e565b82805482825590600052602060002090601f01602090048101928215612bc75791602002820160005b83821115612b9857835183826101000a81548160ff02191690836007811115612b7757612b77612f59565b02179055509260200192600101602081600001049283019260010302612b4c565b8015612bc55782816101000a81549060ff0219169055600101602081600001049283019260010302612b98565b505b50612bd3929150612c3e565b5090565b82805482825590600052602060002090601f01602090048101928215612bc75791602002820160005b83821115612b9857835183826101000a81548160ff021916908360ff1602179055509260200192600101602081600001049283019260010302612c00565b5b80821115612bd35760008155600101612c3f565b80821115612bd3576000612c678282612ae9565b50600101612c53565b5b80821115612bd35780547fffffffffffffffffffffffffff00000000000000000000000000000000000000168155600101612c71565b80821115612bd35780547fffffffffffffffffffffffffffffffffffffffffffffffffffffffff000000001681556000612ce46001830182612ae9565b6002820160009055600382016000612cfc9190612ae9565b612d0a600483016000612a6e565b50600501612ca7565b600060e08284031215612d2557600080fd5b50919050565b60008083601f840112612d3d57600080fd5b50813567ffffffffffffffff811115612d5557600080fd5b602083019150836020828501011115612d6d57600080fd5b9250929050565b60008060008060608587031215612d8a57600080fd5b84359350602085013567ffffffffffffffff811115612da857600080fd5b612db487828801612d13565b935050604085013567ffffffffffffffff811115612dd157600080fd5b612ddd87828801612d2b565b95989497509550505050565b803573ffffffffffffffffffffffffffffffffffffffff81168114612e0d57600080fd5b919050565b60008060408385031215612e2557600080fd5b82359150612e3560208401612de9565b90509250929050565b600060808284031215612d2557600080fd5b600080600060608486031215612e6557600080fd5b8335925060208401359150604084013567ffffffffffffffff811115612e8a57600080fd5b612e9686828701612e3e565b9150509250925092565b600060208284031215612eb257600080fd5b5035919050565b60008060408385031215612ecc57600080fd5b50508035926020909101359150565b6000815180845260005b81811015612f0157602081850181015186830182015201612ee5565b5060006020828601015260207fffffffffffffffffffffffffffffffffffffffffffffffffffffffffffffffe0601f83011685010191505092915050565b602081526000612f526020830184612edb565b9392505050565b7f4e487b7100000000000000000000000000000000000000000000000000000000600052602160045260246000fd5b60088110612fbf577f4e487b7100000000000000000000000000000000000000000000000000000000600052602160045260246000fd5b9052565b80511515825260006020820151612fdd6020850182612f88565b50604082015160806040850152612ff76080850182612edb565b606093840151949093019390935250919050565b6000602082016020835280845180835260408501915060408160051b86010192506020860160005b82811015613082577fffffffffffffffffffffffffffffffffffffffffffffffffffffffffffffffc087860301845261306d858351612fc3565b94506020938401939190910190600101613033565b50929695505050505050565b600081518084526020840193506020830160005b828110156130c8576130b5868351612f88565b60209586019591909101906001016130a2565b5093949350505050565b8051151582527fffffffff000000000000000000000000000000000000000000000000000000006020820151166020830152600060408201516060604085015261311f606085018261308e565b949350505050565b602081526000612f5260208301846130d2565b6000806000806060858703121561315057600080fd5b84359350602085013567ffffffffffffffff81111561316e57600080fd5b612db487828801612e3e565b602081526000612f526020830184612fc3565b600081518084526020840193506020830160005b828110156130c857815160ff168652602095860195909101906001016131a1565b80511515825273ffffffffffffffffffffffffffffffffffffffff60208201511660208301527fffffffff000000000000000000000000000000000000000000000000000000006040820151166040830152600060608201516132286060850182612f88565b506080820151608084015260a082015160e060a085015261324c60e085018261308e565b905060c083015184820360c0860152613265828261318d565b95945050505050565b6000602082016020835280845180835260408501915060408160051b86010192506020860160005b82811015613082577fffffffffffffffffffffffffffffffffffffffffffffffffffffffffffffffc08786030184526132d08583516131c2565b94506020938401939190910190600101613296565b6020815260008251606060208401526133016080840182612edb565b90507fffffffff00000000000000000000000000000000000000000000000000000000602085015116604084015260408401517fffffffffffffffffffffffffffffffffffffffffffffffffffffffffffffffe08483030160608501526132658282612edb565b80357fffffffff0000000000000000000000000000000000000000000000000000000081168114612e0d57600080fd5b7f4e487b7100000000000000000000000000000000000000000000000000000000600052604160045260246000fd5b60405160e0810167ffffffffffffffff811182821017156133ea576133ea613398565b60405290565b604051601f82017fffffffffffffffffffffffffffffffffffffffffffffffffffffffffffffffe016810167ffffffffffffffff8111828210171561343757613437613398565b604052919050565b600067ffffffffffffffff82111561345957613459613398565b5060051b60200190565b803560088110612e0d57600080fd5b600082601f83011261348357600080fd5b81356134966134918261343f565b6133f0565b8082825260208201915060208360051b8601019250858311156134b857600080fd5b602085015b838110156134dc576134ce81613463565b8352602092830192016134bd565b5095945050505050565b600080600080608085870312156134fc57600080fd5b843593506020850135925061351360408601613368565b9150606085013567ffffffffffffffff81111561352f57600080fd5b61353b87828801613472565b91505092959194509250565b60008060006060848603121561355c57600080fd5b8335925060208401359150604084013567ffffffffffffffff81111561358157600080fd5b612e9686828701612d13565b602081526000612f5260208301846131c2565b60008067ffffffffffffffff8411156135bb576135bb613398565b50601f83017fffffffffffffffffffffffffffffffffffffffffffffffffffffffffffffffe0166020016135ee816133f0565b91505082815283838301111561360357600080fd5b828260208301376000602084830101529392505050565b600082601f83011261362b57600080fd5b612f52838335602085016135a0565b600080600080600060a0868803121561365257600080fd5b8535945061366260208701613368565b9350604086013567ffffffffffffffff81111561367e57600080fd5b61368a88828901613472565b935050606086013567ffffffffffffffff8111156136a757600080fd5b6136b38882890161361a565b925050608086013567ffffffffffffffff8111156136d057600080fd5b6136dc8882890161361a565b9150509295509295909350565b6000602082016020835280845180835260408501915060408160051b86010192506020860160005b82811015613082577fffffffffffffffffffffffffffffffffffffffffffffffffffffffffffffffc087860301845261374b8583516130d2565b94506020938401939190910190600101613711565b60006020828403121561377257600080fd5b612f5282612de9565b7f4e487b7100000000000000000000000000000000000000000000000000000000600052601160045260246000fd5b60007fffffffffffffffffffffffffffffffffffffffffffffffffffffffffffffffff82036137db576137db61377b565b5060010190565b80358015158114612e0d57600080fd5b600082601f83011261380357600080fd5b81356138116134918261343f565b8082825260208201915060208360051b86010192508583111561383357600080fd5b602085015b838110156134dc57803560ff8116811461385157600080fd5b835260209283019201613838565b600060e0823603121561387157600080fd5b6138796133c7565b613882836137e2565b815261389060208401612de9565b60208201526138a160408401613368565b60408201526138b260608401613463565b60608201526080838101359082015260a083013567ffffffffffffffff8111156138db57600080fd5b6138e736828601613472565b60a08301525060c083013567ffffffffffffffff81111561390757600080fd5b613913368286016137f2565b60c08301525092915050565b600181811c9082168061393357607f821691505b602082108103612d25577f4e487b7100000000000000000000000000000000000000000000000000000000600052602260045260246000fd5b601f8211156139b357806000526020600020601f840160051c810160208510156139935750805b601f840160051c820191505b81811015612827576000815560010161399f565b505050565b67ffffffffffffffff8311156139d0576139d0613398565b6139e4836139de835461391f565b8361396c565b6000601f841160018114613a365760008515613a005750838201355b7fffffffffffffffffffffffffffffffffffffffffffffffffffffffffffffffff600387901b1c1916600186901b178355612827565b6000838152602090207fffffffffffffffffffffffffffffffffffffffffffffffffffffffffffffffe0861690835b82811015613a855786850135825560209485019460019092019101613a65565b5086821015613ac0577fffffffffffffffffffffffffffffffffffffffffffffffffffffffffffffffff60f88860031b161c19848701351681555b505060018560011b0183555050505050565b600060808236031215613ae457600080fd5b6040516080810167ffffffffffffffff81118282101715613b0757613b07613398565b604052613b13836137e2565b8152613b2160208401613463565b6020820152604083013567ffffffffffffffff811115613b4057600080fd5b830136601f820112613b5157600080fd5b613b60368235602084016135a0565b604083015250606092830135928101929092525090565b7f4e487b7100000000000000000000000000000000000000000000000000000000600052603260045260246000fd5b815167ffffffffffffffff811115613bc057613bc0613398565b613bd481613bce845461391f565b8461396c565b6020601f821160018114613c265760008315613bf05750848201515b7fffffffffffffffffffffffffffffffffffffffffffffffffffffffffffffffff600385901b1c1916600184901b178455612827565b6000848152602081207fffffffffffffffffffffffffffffffffffffffffffffffffffffffffffffffe08516915b82811015613c745787850151825560209485019460019092019101613c54565b5084821015613cb057868401517fffffffffffffffffffffffffffffffffffffffffffffffffffffffffffffffff600387901b60f8161c191681555b50505050600190811b01905550565b818103818111156108495761084961377b565b7f4e487b7100000000000000000000000000000000000000000000000000000000600052600160045260246000fdfea2646970667358221220e0fafa4c71b85bdfe22cd599b7f9c1ae37d1d8265c071742c8e8777fb0b4699364736f6c634300081c0033","linkReferences":{}},"methodIdentifiers":{"addClosedPolicySubscriber(uint256,address)":"2711fe6b","createForeignCall(uint256,(bool,address,bytes4,uint8,uint256,uint8[],uint8[]),string)":"18f4b33f","createFunctionSignature(uint256,bytes4,uint8[],string,string)":"d7001813","createTracker(uint256,(bool,uint8,bytes,uint256),string)":"6edc1808","deleteForeignCall(uint256,uint256)":"d82260c8","deleteFunctionSignature(uint256,uint256)":"a626bb8d","deleteTracker(uint256,uint256)":"a82c9e07","getAllForeignCalls(uint256)":"a3937e99","getAllFunctionSignatures(uint256)":"e7e31b31","getAllTrackers(uint256)":"56f3b05f","getForeignCall(uint256,uint256)":"da7d5d28","getForeignCallMetadata(uint256,uint256)":"f69187ee","getFunctionSignature(uint256,uint256)":"660dac4d","getFunctionSignatureMetadata(uint256,uint256)":"a39d4249","getTracker(uint256,uint256)":"72a340d7","getTrackerMetadata(uint256,uint256)":"3bf07314","isCemented(uint256)":"348ec401","isClosedPolicySubscriber(uint256,address)":"4c957ad9","removeClosedPolicySubscriber(uint256,address)":"7374c994","updateForeignCall(uint256,uint256,(bool,address,bytes4,uint8,uint256,uint8[],uint8[]))":"c017d300","updateFunctionSignature(uint256,uint256,bytes4,uint8[])":"bcb01c22","updateTracker(uint256,uint256,(bool,uint8,bytes,uint256))":"2dc2ac0d"},"id":81}