{"abi":[{"type":"function","name":"applyPolicy","inputs":[{"name":"_contractAddress","type":"address","internalType":"address"},{"name":"_policyId","type":"uint256[]","internalType":"uint256[]"}],"outputs":[],"stateMutability":"nonpayable"},{"type":"function","name":"createForeignCall","inputs":[{"name":"_policyId","type":"uint256","internalType":"uint256"},{"name":"_foreignCall","type":"tuple","internalType":"struct ForeignCall","components":[{"name":"set","type":"bool","internalType":"bool"},{"name":"foreignCallAddress","type":"address","internalType":"address"},{"name":"signature","type":"bytes4","internalType":"bytes4"},{"name":"returnType","type":"uint8","internalType":"enum PT"},{"name":"foreignCallIndex","type":"uint256","internalType":"uint256"},{"name":"parameterTypes","type":"uint8[]","internalType":"enum PT[]"},{"name":"typeSpecificIndices","type":"uint8[]","internalType":"uint8[]"}]}],"outputs":[{"name":"","type":"uint256","internalType":"uint256"}],"stateMutability":"nonpayable"},{"type":"function","name":"createPolicy","inputs":[{"name":"_signatures","type":"bytes4[]","internalType":"bytes4[]"},{"name":"_functionSignatureIds","type":"uint256[]","internalType":"uint256[]"},{"name":"_ruleIds","type":"uint256[][]","internalType":"uint256[][]"}],"outputs":[{"name":"","type":"uint256","internalType":"uint256"}],"stateMutability":"nonpayable"},{"type":"function","name":"createRule","inputs":[{"name":"_rule","type":"tuple","internalType":"struct Rule","components":[{"name":"policyId","type":"uint256","internalType":"uint256"},{"name":"instructionSet","type":"uint256[]","internalType":"uint256[]"},{"name":"rawData","type":"tuple","internalType":"struct RawData","components":[{"name":"instructionSetIndex","type":"uint256[]","internalType":"uint256[]"},{"name":"argumentTypes","type":"uint8[]","internalType":"enum PT[]"},{"name":"dataValues","type":"bytes[]","internalType":"bytes[]"}]},{"name":"placeHolders","type":"tuple[]","internalType":"struct Placeholder[]","components":[{"name":"pType","type":"uint8","internalType":"enum PT"},{"name":"typeSpecificIndex","type":"uint128","internalType":"uint128"},{"name":"trackerValue","type":"bool","internalType":"bool"},{"name":"foreignCall","type":"bool","internalType":"bool"}]},{"name":"effectPlaceHolders","type":"tuple[]","internalType":"struct Placeholder[]","components":[{"name":"pType","type":"uint8","internalType":"enum PT"},{"name":"typeSpecificIndex","type":"uint128","internalType":"uint128"},{"name":"trackerValue","type":"bool","internalType":"bool"},{"name":"foreignCall","type":"bool","internalType":"bool"}]},{"name":"posEffects","type":"tuple[]","internalType":"struct Effect[]","components":[{"name":"valid","type":"bool","internalType":"bool"},{"name":"dynamicParam","type":"bool","internalType":"bool"},{"name":"effectType","type":"uint8","internalType":"enum ET"},{"name":"pType","type":"uint8","internalType":"enum PT"},{"name":"param","type":"bytes","internalType":"bytes"},{"name":"text","type":"bytes32","internalType":"bytes32"},{"name":"errorMessage","type":"string","internalType":"string"},{"name":"instructionSet","type":"uint256[]","internalType":"uint256[]"}]},{"name":"negEffects","type":"tuple[]","internalType":"struct Effect[]","components":[{"name":"valid","type":"bool","internalType":"bool"},{"name":"dynamicParam","type":"bool","internalType":"bool"},{"name":"effectType","type":"uint8","internalType":"enum ET"},{"name":"pType","type":"uint8","internalType":"enum PT"},{"name":"param","type":"bytes","internalType":"bytes"},{"name":"text","type":"bytes32","internalType":"bytes32"},{"name":"errorMessage","type":"string","internalType":"string"},{"name":"instructionSet","type":"uint256[]","internalType":"uint256[]"}]}]}],"outputs":[{"name":"","type":"uint256","internalType":"uint256"}],"stateMutability":"nonpayable"},{"type":"function","name":"createTracker","inputs":[{"name":"_policyId","type":"uint256","internalType":"uint256"},{"name":"_tracker","type":"tuple","internalType":"struct Trackers","components":[{"name":"set","type":"bool","internalType":"bool"},{"name":"pType","type":"uint8","internalType":"enum PT"},{"name":"trackerValue","type":"bytes","internalType":"bytes"}]}],"outputs":[{"name":"","type":"uint256","internalType":"uint256"}],"stateMutability":"nonpayable"},{"type":"function","name":"deleteForeignCall","inputs":[{"name":"_policyId","type":"uint256","internalType":"uint256"},{"name":"_foreignCallId","type":"uint256","internalType":"uint256"}],"outputs":[],"stateMutability":"nonpayable"},{"type":"function","name":"deletePolicy","inputs":[{"name":"_policyId","type":"uint256","internalType":"uint256"}],"outputs":[],"stateMutability":"nonpayable"},{"type":"function","name":"deleteRule","inputs":[{"name":"_ruleId","type":"uint256","internalType":"uint256"}],"outputs":[],"stateMutability":"nonpayable"},{"type":"function","name":"deleteTracker","inputs":[{"name":"_policyId","type":"uint256","internalType":"uint256"},{"name":"_trackerIndex","type":"uint256","internalType":"uint256"}],"outputs":[],"stateMutability":"nonpayable"},{"type":"function","name":"getAllForeignCalls","inputs":[{"name":"_policyId","type":"uint256","internalType":"uint256"}],"outputs":[{"name":"fc","type":"tuple[]","internalType":"struct ForeignCall[]","components":[{"name":"set","type":"bool","internalType":"bool"},{"name":"foreignCallAddress","type":"address","internalType":"address"},{"name":"signature","type":"bytes4","internalType":"bytes4"},{"name":"returnType","type":"uint8","internalType":"enum PT"},{"name":"foreignCallIndex","type":"uint256","internalType":"uint256"},{"name":"parameterTypes","type":"uint8[]","internalType":"enum PT[]"},{"name":"typeSpecificIndices","type":"uint8[]","internalType":"uint8[]"}]}],"stateMutability":"view"},{"type":"function","name":"getAllTrackers","inputs":[{"name":"_policyId","type":"uint256","internalType":"uint256"}],"outputs":[{"name":"","type":"tuple[]","internalType":"struct Trackers[]","components":[{"name":"set","type":"bool","internalType":"bool"},{"name":"pType","type":"uint8","internalType":"enum PT"},{"name":"trackerValue","type":"bytes","internalType":"bytes"}]}],"stateMutability":"view"},{"type":"function","name":"getAppliedPolicyIds","inputs":[{"name":"_contractAddress","type":"address","internalType":"address"}],"outputs":[{"name":"","type":"uint256[]","internalType":"uint256[]"}],"stateMutability":"view"},{"type":"function","name":"getForeignCall","inputs":[{"name":"_policyId","type":"uint256","internalType":"uint256"},{"name":"_foreignCallId","type":"uint256","internalType":"uint256"}],"outputs":[{"name":"fc","type":"tuple","internalType":"struct ForeignCall","components":[{"name":"set","type":"bool","internalType":"bool"},{"name":"foreignCallAddress","type":"address","internalType":"address"},{"name":"signature","type":"bytes4","internalType":"bytes4"},{"name":"returnType","type":"uint8","internalType":"enum PT"},{"name":"foreignCallIndex","type":"uint256","internalType":"uint256"},{"name":"parameterTypes","type":"uint8[]","internalType":"enum PT[]"},{"name":"typeSpecificIndices","type":"uint8[]","internalType":"uint8[]"}]}],"stateMutability":"view"},{"type":"function","name":"getFunctionSignature","inputs":[{"name":"_functionSignatureId","type":"uint256","internalType":"uint256"}],"outputs":[{"name":"","type":"tuple","internalType":"struct FunctionSignatureStorageSet","components":[{"name":"set","type":"bool","internalType":"bool"},{"name":"signature","type":"bytes4","internalType":"bytes4"},{"name":"parameterTypes","type":"uint8[]","internalType":"enum PT[]"}]}],"stateMutability":"view"},{"type":"function","name":"getPolicy","inputs":[{"name":"_policyId","type":"uint256","internalType":"uint256"}],"outputs":[{"name":"functionSigs","type":"bytes4[]","internalType":"bytes4[]"},{"name":"functionSigIds","type":"uint256[]","internalType":"uint256[]"},{"name":"ruleIds","type":"uint256[][]","internalType":"uint256[][]"}],"stateMutability":"view"},{"type":"function","name":"getRule","inputs":[{"name":"_ruleId","type":"uint256","internalType":"uint256"}],"outputs":[{"name":"","type":"tuple","internalType":"struct RuleStorageSet","components":[{"name":"set","type":"bool","internalType":"bool"},{"name":"rule","type":"tuple","internalType":"struct Rule","components":[{"name":"policyId","type":"uint256","internalType":"uint256"},{"name":"instructionSet","type":"uint256[]","internalType":"uint256[]"},{"name":"rawData","type":"tuple","internalType":"struct RawData","components":[{"name":"instructionSetIndex","type":"uint256[]","internalType":"uint256[]"},{"name":"argumentTypes","type":"uint8[]","internalType":"enum PT[]"},{"name":"dataValues","type":"bytes[]","internalType":"bytes[]"}]},{"name":"placeHolders","type":"tuple[]","internalType":"struct Placeholder[]","components":[{"name":"pType","type":"uint8","internalType":"enum PT"},{"name":"typeSpecificIndex","type":"uint128","internalType":"uint128"},{"name":"trackerValue","type":"bool","internalType":"bool"},{"name":"foreignCall","type":"bool","internalType":"bool"}]},{"name":"effectPlaceHolders","type":"tuple[]","internalType":"struct Placeholder[]","components":[{"name":"pType","type":"uint8","internalType":"enum PT"},{"name":"typeSpecificIndex","type":"uint128","internalType":"uint128"},{"name":"trackerValue","type":"bool","internalType":"bool"},{"name":"foreignCall","type":"bool","internalType":"bool"}]},{"name":"posEffects","type":"tuple[]","internalType":"struct Effect[]","components":[{"name":"valid","type":"bool","internalType":"bool"},{"name":"dynamicParam","type":"bool","internalType":"bool"},{"name":"effectType","type":"uint8","internalType":"enum ET"},{"name":"pType","type":"uint8","internalType":"enum PT"},{"name":"param","type":"bytes","internalType":"bytes"},{"name":"text","type":"bytes32","internalType":"bytes32"},{"name":"errorMessage","type":"string","internalType":"string"},{"name":"instructionSet","type":"uint256[]","internalType":"uint256[]"}]},{"name":"negEffects","type":"tuple[]","internalType":"struct Effect[]","components":[{"name":"valid","type":"bool","internalType":"bool"},{"name":"dynamicParam","type":"bool","internalType":"bool"},{"name":"effectType","type":"uint8","internalType":"enum ET"},{"name":"pType","type":"uint8","internalType":"enum PT"},{"name":"param","type":"bytes","internalType":"bytes"},{"name":"text","type":"bytes32","internalType":"bytes32"},{"name":"errorMessage","type":"string","internalType":"string"},{"name":"instructionSet","type":"uint256[]","internalType":"uint256[]"}]}]}]}],"stateMutability":"view"},{"type":"function","name":"getTracker","inputs":[{"name":"_policyId","type":"uint256","internalType":"uint256"},{"name":"_index","type":"uint256","internalType":"uint256"}],"outputs":[{"name":"tracker","type":"tuple","internalType":"struct Trackers","components":[{"name":"set","type":"bool","internalType":"bool"},{"name":"pType","type":"uint8","internalType":"enum PT"},{"name":"trackerValue","type":"bytes","internalType":"bytes"}]}],"stateMutability":"view"},{"type":"function","name":"updateForeignCall","inputs":[{"name":"_policyId","type":"uint256","internalType":"uint256"},{"name":"_foreignCallId","type":"uint256","internalType":"uint256"},{"name":"_foreignCall","type":"tuple","internalType":"struct ForeignCall","components":[{"name":"set","type":"bool","internalType":"bool"},{"name":"foreignCallAddress","type":"address","internalType":"address"},{"name":"signature","type":"bytes4","internalType":"bytes4"},{"name":"returnType","type":"uint8","internalType":"enum PT"},{"name":"foreignCallIndex","type":"uint256","internalType":"uint256"},{"name":"parameterTypes","type":"uint8[]","internalType":"enum PT[]"},{"name":"typeSpecificIndices","type":"uint8[]","internalType":"uint8[]"}]}],"outputs":[{"name":"fc","type":"tuple","internalType":"struct ForeignCall","components":[{"name":"set","type":"bool","internalType":"bool"},{"name":"foreignCallAddress","type":"address","internalType":"address"},{"name":"signature","type":"bytes4","internalType":"bytes4"},{"name":"returnType","type":"uint8","internalType":"enum PT"},{"name":"foreignCallIndex","type":"uint256","internalType":"uint256"},{"name":"parameterTypes","type":"uint8[]","internalType":"enum PT[]"},{"name":"typeSpecificIndices","type":"uint8[]","internalType":"uint8[]"}]}],"stateMutability":"nonpayable"},{"type":"function","name":"updateFunctionSignature","inputs":[{"name":"_functionSignatureId","type":"uint256","internalType":"uint256"},{"name":"_functionSignature","type":"bytes4","internalType":"bytes4"},{"name":"_pTypes","type":"uint8[]","internalType":"enum PT[]"}],"outputs":[{"name":"","type":"uint256","internalType":"uint256"}],"stateMutability":"nonpayable"},{"type":"function","name":"updatePolicy","inputs":[{"name":"_policyId","type":"uint256","internalType":"uint256"},{"name":"_signatures","type":"bytes4[]","internalType":"bytes4[]"},{"name":"_functionSignatureIds","type":"uint256[]","internalType":"uint256[]"},{"name":"_ruleIds","type":"uint256[][]","internalType":"uint256[][]"}],"outputs":[{"name":"","type":"uint256","internalType":"uint256"}],"stateMutability":"nonpayable"},{"type":"function","name":"updateRule","inputs":[{"name":"_ruleId","type":"uint256","internalType":"uint256"},{"name":"_rule","type":"tuple","internalType":"struct Rule","components":[{"name":"policyId","type":"uint256","internalType":"uint256"},{"name":"instructionSet","type":"uint256[]","internalType":"uint256[]"},{"name":"rawData","type":"tuple","internalType":"struct RawData","components":[{"name":"instructionSetIndex","type":"uint256[]","internalType":"uint256[]"},{"name":"argumentTypes","type":"uint8[]","internalType":"enum PT[]"},{"name":"dataValues","type":"bytes[]","internalType":"bytes[]"}]},{"name":"placeHolders","type":"tuple[]","internalType":"struct Placeholder[]","components":[{"name":"pType","type":"uint8","internalType":"enum PT"},{"name":"typeSpecificIndex","type":"uint128","internalType":"uint128"},{"name":"trackerValue","type":"bool","internalType":"bool"},{"name":"foreignCall","type":"bool","internalType":"bool"}]},{"name":"effectPlaceHolders","type":"tuple[]","internalType":"struct Placeholder[]","components":[{"name":"pType","type":"uint8","internalType":"enum PT"},{"name":"typeSpecificIndex","type":"uint128","internalType":"uint128"},{"name":"trackerValue","type":"bool","internalType":"bool"},{"name":"foreignCall","type":"bool","internalType":"bool"}]},{"name":"posEffects","type":"tuple[]","internalType":"struct Effect[]","components":[{"name":"valid","type":"bool","internalType":"bool"},{"name":"dynamicParam","type":"bool","internalType":"bool"},{"name":"effectType","type":"uint8","internalType":"enum ET"},{"name":"pType","type":"uint8","internalType":"enum PT"},{"name":"param","type":"bytes","internalType":"bytes"},{"name":"text","type":"bytes32","internalType":"bytes32"},{"name":"errorMessage","type":"string","internalType":"string"},{"name":"instructionSet","type":"uint256[]","internalType":"uint256[]"}]},{"name":"negEffects","type":"tuple[]","internalType":"struct Effect[]","components":[{"name":"valid","type":"bool","internalType":"bool"},{"name":"dynamicParam","type":"bool","internalType":"bool"},{"name":"effectType","type":"uint8","internalType":"enum ET"},{"name":"pType","type":"uint8","internalType":"enum PT"},{"name":"param","type":"bytes","internalType":"bytes"},{"name":"text","type":"bytes32","internalType":"bytes32"},{"name":"errorMessage","type":"string","internalType":"string"},{"name":"instructionSet","type":"uint256[]","internalType":"uint256[]"}]}]}],"outputs":[{"name":"","type":"uint256","internalType":"uint256"}],"stateMutability":"nonpayable"},{"type":"function","name":"updateTracker","inputs":[{"name":"_policyId","type":"uint256","internalType":"uint256"},{"name":"_trackerIndex","type":"uint256","internalType":"uint256"},{"name":"_tracker","type":"tuple","internalType":"struct Trackers","components":[{"name":"set","type":"bool","internalType":"bool"},{"name":"pType","type":"uint8","internalType":"enum PT"},{"name":"trackerValue","type":"bytes","internalType":"bytes"}]}],"outputs":[],"stateMutability":"nonpayable"},{"type":"event","name":"ForeignCallCreated","inputs":[{"name":"policyId","type":"uint256","indexed":true,"internalType":"uint256"},{"name":"foreignCallId","type":"uint256","indexed":true,"internalType":"uint256"}],"anonymous":false},{"type":"event","name":"ForeignCallDeleted","inputs":[{"name":"policyId","type":"uint256","indexed":true,"internalType":"uint256"},{"name":"foreignCallId","type":"uint256","indexed":true,"internalType":"uint256"}],"anonymous":false},{"type":"event","name":"ForeignCallUpdated","inputs":[{"name":"policyId","type":"uint256","indexed":true,"internalType":"uint256"},{"name":"foreignCallId","type":"uint256","indexed":true,"internalType":"uint256"}],"anonymous":false},{"type":"error","name":"BelowMinAdminThreshold","inputs":[]},{"type":"error","name":"NewAdminAlreadyProposed","inputs":[]},{"type":"error","name":"NotPolicyAdmin","inputs":[]},{"type":"error","name":"NotProposedPolicyAdmin","inputs":[]},{"type":"error","name":"OnlyRulesEngineCanCreateAdminRoles","inputs":[]},{"type":"error","name":"PolicyAdminAlreadyCreated","inputs":[]},{"type":"error","name":"ZeroAddressCannotBeAdmin","inputs":[]}],"bytecode":{"object":"0x6080604052348015600f57600080fd5b50615f3b8061001f6000396000f3fe608060405234801561001057600080fd5b50600436106101825760003560e01c8063a82c9e07116100d8578063cf7c67281161008c578063da7d5d2811610066578063da7d5d2814610366578063e374902314610379578063fed27c8f1461039957600080fd5b8063cf7c672814610320578063d57a72cd14610333578063d82260c81461035357600080fd5b8063ae635b7c116100bd578063ae635b7c146102da578063c017d300146102ed578063cd42bcf81461030d57600080fd5b8063a82c9e07146102b4578063ac100fc0146102c757600080fd5b806350a9f0d41161013a5780639228303f116101145780639228303f1461026e578063a3937e9914610281578063a5bcf7f2146102a157600080fd5b806350a9f0d41461021b57806356f3b05f1461022e57806372a340d71461024e57600080fd5b806330626b5c1161016b57806330626b5c146101d357806344564dc7146101e857806348462037146101fb57600080fd5b80632b07fce3146101875780632e4c803b146101b2575b600080fd5b61019a610195366004613f79565b6103ac565b6040516101a993929190613fc4565b60405180910390f35b6101c56101c03660046140d2565b610881565b6040519081526020016101a9565b6101e66101e1366004613f79565b610a55565b005b6101c56101f6366004614119565b610c07565b61020e610209366004613f79565b610d08565b6040516101a9919061448a565b6101c5610229366004614649565b611635565b61024161023c366004613f79565b611843565b6040516101a9919061472d565b61026161025c3660046147b0565b611a2d565b6040516101a991906147d2565b6101e661027c366004614815565b611b54565b61029461028f366004613f79565b611d4c565b6040516101a99190614940565b6101c56102af366004614b63565b612064565b6101e66102c23660046147b0565b6120e8565b6101c56102d5366004614bba565b61221c565b6101c56102e83660046140d2565b61230d565b6103006102fb366004614c60565b612406565b6040516101a99190614ca6565b6101c561031b366004614ccb565b61256d565b6101e661032e366004614d08565b61268f565b610346610341366004613f79565b61277c565b6040516101a99190614d4e565b6101e66103613660046147b0565b61287c565b6103006103743660046147b0565b6129f1565b61038c610387366004614da1565b612c2e565b6040516101a99190614dbc565b6101e66103a7366004613f79565b612cb0565b606080606060006103bb612ef1565b6000868152600191820160205260409020600381015491019150156104c257600281015467ffffffffffffffff8111156103f7576103f76149e7565b604051908082528060200260200182016040528015610420578160200160208202803683370190505b50600282015490945067ffffffffffffffff811115610441576104416149e7565b60405190808252806020026020018201604052801561046a578160200160208202803683370190505b50600282015490935067ffffffffffffffff81111561048b5761048b6149e7565b6040519080825280602002602001820160405280156104be57816020015b60608152602001906001900390816104a95790505b5091505b600281015467ffffffffffffffff8111156104df576104df6149e7565b60405190808252806020026020018201604052801561051257816020015b60608152602001906001900390816104fd5790505b50915060005b60028201548110156108785781600201818154811061053957610539614dcf565b90600052602060002090600891828204019190066004029054906101000a900460e01b85828151811061056e5761056e614dcf565b7fffffffff00000000000000000000000000000000000000000000000000000000909216602092830291909101909101526002820180548391600091849081106105ba576105ba614dcf565b90600052602060002090600891828204019190066004029054906101000a900460e01b7bffffffffffffffffffffffffffffffffffffffffffffffffffffffff19167bffffffffffffffffffffffffffffffffffffffffffffffffffffffff191681526020019081526020016000205484828151811061063c5761063c614dcf565b60200260200101818152505060005b82600101600084600201848154811061066657610666614dcf565b6000918252602080832060088304015460079092166004026101000a90910460e01b7fffffffff0000000000000000000000000000000000000000000000000000000016835282019290925260400190205481101561086f578260010160008460020184815481106106da576106da614dcf565b6000918252602080832060088304015460079092166004026101000a90910460e01b7fffffffff0000000000000000000000000000000000000000000000000000000016835282019290925260400190205467ffffffffffffffff811115610744576107446149e7565b60405190808252806020026020018201604052801561076d578160200160208202803683370190505b5084838151811061078057610780614dcf565b60200260200101819052508260010160008460020184815481106107a6576107a6614dcf565b90600052602060002090600891828204019190066004029054906101000a900460e01b7bffffffffffffffffffffffffffffffffffffffffffffffffffffffff19167bffffffffffffffffffffffffffffffffffffffffffffffffffffffff19168152602001908152602001600020818154811061082657610826614dcf565b906000526020600020015484838151811061084357610843614dcf565b6020026020010151828151811061085c5761085c614dcf565b602090810291909101015260010161064b565b50600101610518565b50509193909250565b6000823360008061094063901cee1160e01b85856040516024016108c592919091825273ffffffffffffffffffffffffffffffffffffffff16602082015260400190565b604080517fffffffffffffffffffffffffffffffffffffffffffffffffffffffffffffffe08184030181529190526020810180517bffffffffffffffffffffffffffffffffffffffffffffffffffffffff167f901cee1100000000000000000000000000000000000000000000000000000000179052612f1f565b91509150600082156109d057600482511061096057506020810151610964565b5060005b806109d0576040517f08c379a000000000000000000000000000000000000000000000000000000000815260206004820152601860248201527f4e6f7420417574686f72697a656420546f20506f6c696379000000000000000060448201526064015b60405180910390fd5b60006109da612fe6565b60008a8152602082905260408120549192506109f58a614e84565b608081018390529050610a088b82613014565b60008b815260208490526040808220805460010190555183918d917f9006068daf408b7e36a22c789f04c4ba9c6c638a6cf8438c2250583384f2192f9190a3509998505050505050505050565b610a5d6131e6565b60008281526001918201602052604080822090920154915160248101839052336044820181905291908190610ab6907f901cee1100000000000000000000000000000000000000000000000000000000906064016108c5565b9150915060008215610b41576004825110610ad657506020810151610ada565b5060005b80610b41576040517f08c379a000000000000000000000000000000000000000000000000000000000815260206004820152601860248201527f4e6f7420417574686f72697a656420546f20506f6c696379000000000000000060448201526064016109c7565b610b496131e6565b600087815260019182016020526040812080547fffffffffffffffffffffffffffffffffffffffffffffffffffffffffffffff0016815591820181815581610b946002850182613bc5565b600282016000610ba48282613bc5565b610bb2600183016000613be6565b610bc0600283016000613c0b565b50610bd19050600583016000613c29565b610bdf600683016000613c29565b610bed600783016000613c47565b610bfb600883016000613c47565b50505050505050505050565b604051813560248201819052336044830181905260009283908190610c50907f901cee1100000000000000000000000000000000000000000000000000000000906064016108c5565b9150915060008215610cdb576004825110610c7057506020810151610c74565b5060005b80610cdb576040517f08c379a000000000000000000000000000000000000000000000000000000000815260206004820152601860248201527f4e6f7420417574686f72697a656420546f20506f6c696379000000000000000060448201526064016109c7565b6000610ce56131e6565b8054600101808255909150610cfc9082908a613214565b98975050505050505050565b610d10613c68565b610d186131e6565b60008381526001918201602090815260409182902082518084018452815460ff1615158152835160e081018552948201805486526002830180548651818702810187019097528087529296939587860195929385840193919291830182828015610da157602002820191906000526020600020905b815481526020019060010190808311610d8d575b505050505081526020016002820160405180606001604052908160008201805480602002602001604051908101604052809291908181526020018280548015610e0957602002820191906000526020600020905b815481526020019060010190808311610df5575b5050505050815260200160018201805480602002602001604051908101604052809291908181526020018280548015610e9157602002820191906000526020600020906000905b82829054906101000a900460ff166007811115610e6f57610e6f614156565b815260206001928301818104948501949093039092029101808411610e505790505b5050505050815260200160028201805480602002602001604051908101604052809291908181526020016000905b82821015610f6b578382906000526020600020018054610ede90614f44565b80601f0160208091040260200160405190810160405280929190818152602001828054610f0a90614f44565b8015610f575780601f10610f2c57610100808354040283529160200191610f57565b820191906000526020600020905b815481529060010190602001808311610f3a57829003601f168201915b505050505081526020019060010190610ebf565b5050505081525050815260200160058201805480602002602001604051908101604052809291908181526020016000905b8282101561105d5760008481526020902060408051608081019091529083018054829060ff166007811115610fd357610fd3614156565b6007811115610fe457610fe4614156565b815290546fffffffffffffffffffffffffffffffff61010082041660208084019190915260ff710100000000000000000000000000000000008304811615156040850152720100000000000000000000000000000000000090920490911615156060909201919091529082526001929092019101610f9c565b50505050815260200160068201805480602002602001604051908101604052809291908181526020016000905b8282101561114b5760008481526020902060408051608081019091529083018054829060ff1660078111156110c1576110c1614156565b60078111156110d2576110d2614156565b815290546fffffffffffffffffffffffffffffffff61010082041660208084019190915260ff71010000000000000000000000000000000000830481161515604085015272010000000000000000000000000000000000009092049091161515606090920191909152908252600192909201910161108a565b50505050815260200160078201805480602002602001604051908101604052809291908181526020016000905b828210156113b857600084815260209081902060408051610100808201835260058702909301805460ff8082161515845294810485161515958301959095529093909291840191620100009091041660028111156111d8576111d8614156565b60028111156111e9576111e9614156565b815281546020909101906301000000900460ff16600781111561120e5761120e614156565b600781111561121f5761121f614156565b815260200160018201805461123390614f44565b80601f016020809104026020016040519081016040528092919081815260200182805461125f90614f44565b80156112ac5780601f10611281576101008083540402835291602001916112ac565b820191906000526020600020905b81548152906001019060200180831161128f57829003601f168201915b50505050508152602001600282015481526020016003820180546112cf90614f44565b80601f01602080910402602001604051908101604052809291908181526020018280546112fb90614f44565b80156113485780601f1061131d57610100808354040283529160200191611348565b820191906000526020600020905b81548152906001019060200180831161132b57829003601f168201915b50505050508152602001600482018054806020026020016040519081016040528092919081815260200182805480156113a057602002820191906000526020600020905b81548152602001906001019080831161138c575b50505050508152505081526020019060010190611178565b50505050815260200160088201805480602002602001604051908101604052809291908181526020016000905b8282101561162557600084815260209081902060408051610100808201835260058702909301805460ff80821615158452948104851615159583019590955290939092918401916201000090910416600281111561144557611445614156565b600281111561145657611456614156565b815281546020909101906301000000900460ff16600781111561147b5761147b614156565b600781111561148c5761148c614156565b81526020016001820180546114a090614f44565b80601f01602080910402602001604051908101604052809291908181526020018280546114cc90614f44565b80156115195780601f106114ee57610100808354040283529160200191611519565b820191906000526020600020905b8154815290600101906020018083116114fc57829003601f168201915b505050505081526020016002820154815260200160038201805461153c90614f44565b80601f016020809104026020016040519081016040528092919081815260200182805461156890614f44565b80156115b55780601f1061158a576101008083540402835291602001916115b5565b820191906000526020600020905b81548152906001019060200180831161159857829003601f168201915b505050505081526020016004820180548060200260200160405190810160405280929190818152602001828054801561160d57602002820191906000526020600020905b8154815260200190600101908083116115f9575b505050505081525050815260200190600101906113e5565b5050509152505090525092915050565b6000873360008061167963901cee1160e01b85856040516024016108c592919091825273ffffffffffffffffffffffffffffffffffffffff16602082015260400190565b91509150600082156117045760048251106116995750602081015161169d565b5060005b80611704576040517f08c379a000000000000000000000000000000000000000000000000000000000815260206004820152601860248201527f4e6f7420417574686f72697a656420546f20506f6c696379000000000000000060448201526064016109c7565b8a8914611793576040517f08c379a000000000000000000000000000000000000000000000000000000000815260206004820152602e60248201527f5369676e61747572657320616e64207369676e6174757265206964277320617260448201527f6520696e636f6e73697374656e7400000000000000000000000000000000000060648201526084016109c7565b8c600003611823576040517f08c379a000000000000000000000000000000000000000000000000000000000815260206004820152603460248201527f506f6c6963792049442063616e6e6f7420626520302e2043726561746520706f60448201527f6c696379206265666f7265207570646174696e6700000000000000000000000060648201526084016109c7565b6118328d8d8d8d8d8d8d6132ed565b9d9c50505050505050505050505050565b6060600061184f613a38565b6000848152602082905260408120549192508167ffffffffffffffff81111561187a5761187a6149e7565b6040519080825280602002602001820160405280156118c757816020015b604080516060808201835260008083526020830152918101919091528152602001906001900390816118985790505b5090506000805b83811015611a22576000878152600186016020908152604080832084845290915290205460ff1615611a1a5760008781526001860160209081526040808320848452825291829020825160608101909352805460ff80821615158552919284019161010090910416600781111561194757611947614156565b600781111561195857611958614156565b815260200160018201805461196c90614f44565b80601f016020809104026020016040519081016040528092919081815260200182805461199890614f44565b80156119e55780601f106119ba576101008083540402835291602001916119e5565b820191906000526020600020905b8154815290600101906020018083116119c857829003601f168201915b505050505081525050838381518110611a0057611a00614dcf565b60200260200101819052508180611a1690614fc0565b9250505b6001016118ce565b509095945050505050565b60408051606080820183526000808352602083018190529282015290611a51613a38565b60008581526001820160209081526040808320878452825291829020825160608101909352805460ff8082161515855294955092939092918401916101009004166007811115611aa357611aa3614156565b6007811115611ab457611ab4614156565b8152602001600182018054611ac890614f44565b80601f0160208091040260200160405190810160405280929190818152602001828054611af490614f44565b8015611b415780601f10611b1657610100808354040283529160200191611b41565b820191906000526020600020905b815481529060010190602001808311611b2457829003601f168201915b5050505050815250509150505b92915050565b81816000818110611b6757611b67614dcf565b9050602002013533600080611baf63901cee1160e01b85856040516024016108c592919091825273ffffffffffffffffffffffffffffffffffffffff16602082015260400190565b9150915060008215611c3a576004825110611bcf57506020810151611bd3565b5060005b80611c3a576040517f08c379a000000000000000000000000000000000000000000000000000000000815260206004820152601860248201527f4e6f7420417574686f72697a656420546f20506f6c696379000000000000000060448201526064016109c7565b6000611c44613a66565b90508667ffffffffffffffff811115611c5f57611c5f6149e7565b604051908082528060200260200182016040528015611c88578160200160208202803683370190505b5073ffffffffffffffffffffffffffffffffffffffff8a166000908152602083815260409091208251611cc19391929190910190613c89565b5060005b87811015610bfb57888882818110611cdf57611cdf614dcf565b905060200201358260000160008c73ffffffffffffffffffffffffffffffffffffffff1673ffffffffffffffffffffffffffffffffffffffff1681526020019081526020016000208281548110611d3857611d38614dcf565b600091825260209091200155600101611cc5565b60606000611d58612fe6565b6000848152602091909152604081205491508167ffffffffffffffff811115611d8357611d836149e7565b604051908082528060200260200182016040528015611df457816020015b611de16040805160e08101825260008082526020820181905291810182905290606082019081526020016000815260200160608152602001606081525090565b815260200190600190039081611da15790505b5090506000805b8381101561205a57611e0b612fe6565b60008781526001919091016020908152604080832084845290915290205460ff161561205257611e39612fe6565b600087815260019190910160209081526040808320848452825291829020825160e08082018552825460ff80821615158452610100820473ffffffffffffffffffffffffffffffffffffffff16958401959095527501000000000000000000000000000000000000000000810490911b7fffffffff00000000000000000000000000000000000000000000000000000000169482019490945292909160608401917901000000000000000000000000000000000000000000000000009004166007811115611f0957611f09614156565b6007811115611f1a57611f1a614156565b81526020016001820154815260200160028201805480602002602001604051908101604052809291908181526020018280548015611fa757602002820191906000526020600020906000905b82829054906101000a900460ff166007811115611f8557611f85614156565b815260206001928301818104948501949093039092029101808411611f665790505b505050505081526020016003820180548060200260200160405190810160405280929190818152602001828054801561201d57602002820191906000526020600020906000905b825461010083900a900460ff16815260206001928301818104948501949093039092029101808411611fee5790505b50505050508152505083838151811061203857612038614dcf565b6020026020010181905250818061204e90614fc0565b9250505b600101611dfb565b5090949350505050565b60008061206f613a94565b90508460000361208457805460010180825594505b600085815260018281016020908152604090922080547fffffffffffffffffffffffffffffffffffffffffffffffffffffff00000000001661010060e089901c02178217815585516120de93919092019190860190613cd4565b5093949350505050565b6040516024810183905233604482018190528391600090819061212f907f901cee1100000000000000000000000000000000000000000000000000000000906064016108c5565b91509150600082156121ba57600482511061214f57506020810151612153565b5060005b806121ba576040517f08c379a000000000000000000000000000000000000000000000000000000000815260206004820152601860248201527f4e6f7420417574686f72697a656420546f20506f6c696379000000000000000060448201526064016109c7565b6121c2613a38565b60008881526001918201602090815260408083208a8452909152812080547fffffffffffffffffffffffffffffffffffffffffffffffffffffffffffff00001681559161221190830182613d83565b505050505050505050565b600080612227612ef1565b80546001908101808355600081815282840160205260409081902080547fffffffffffffffffffffffffffffffffffffffffffffffffffffffffffffff001690931790925590517f1929cb6400000000000000000000000000000000000000000000000000000000815260048101829052336024820152919250903090631929cb64906044016020604051808303816000875af11580156122cc573d6000803e3d6000fd5b505050506040513d601f19601f820116820180604052508101906122f09190614ff8565b50612300818a8a8a8a8a8a6132ed565b9998505050505050505050565b604051813560248201819052336044830181905260009283908190612356907f901cee1100000000000000000000000000000000000000000000000000000000906064016108c5565b91509150600082156123e15760048251106123765750602081015161237a565b5060005b806123e1576040517f08c379a000000000000000000000000000000000000000000000000000000000815260206004820152601860248201527f4e6f7420417574686f72697a656420546f20506f6c696379000000000000000060448201526064016109c7565b60006123eb6131e6565b90506123f8818a8a613214565b509798975050505050505050565b6124466040805160e08101825260008082526020820181905291810182905290606082019081526020016000815260200160608152602001606081525090565b6040516024810185905233604482018190528591600090819061248d907f901cee1100000000000000000000000000000000000000000000000000000000906064016108c5565b91509150600082156125185760048251106124ad575060208101516124b1565b5060005b80612518576040517f08c379a000000000000000000000000000000000000000000000000000000000815260206004820152601860248201527f4e6f7420417574686f72697a656420546f20506f6c696379000000000000000060448201526064016109c7565b61252187614e84565b6080810189905295506125348987613014565b60405188908a907f82132283659aa079ae6d599fbbe109c1bfb961fc5bbbb0a98a343b4ea6dc3e0090600090a350505050509392505050565b600082336000806125b163901cee1160e01b85856040516024016108c592919091825273ffffffffffffffffffffffffffffffffffffffff16602082015260400190565b915091506000821561263c5760048251106125d1575060208101516125d5565b5060005b8061263c576040517f08c379a000000000000000000000000000000000000000000000000000000000815260206004820152601860248201527f4e6f7420417574686f72697a656420546f20506f6c696379000000000000000060448201526064016109c7565b6000612646613a38565b60008a81526020829052604090205490915061266c828b836126678d615011565b613ac2565b6000998a5260209190915260409098208054600101905550959695505050505050565b604051602481018490523360448201819052849160009081906126d6907f901cee1100000000000000000000000000000000000000000000000000000000906064016108c5565b91509150600082156127615760048251106126f6575060208101516126fa565b5060005b80612761576040517f08c379a000000000000000000000000000000000000000000000000000000000815260206004820152601860248201527f4e6f7420417574686f72697a656420546f20506f6c696379000000000000000060448201526064016109c7565b600061276b613a38565b9050612211818a8a6126678b615011565b604080516060808201835260008083526020830152918101919091526127a0613a94565b6000838152600191820160209081526040918290208251606081018452815460ff811615158252610100900460e01b7fffffffff00000000000000000000000000000000000000000000000000000000168184015293810180548451818502810185018652818152929486019383018282801561286c57602002820191906000526020600020906000905b82829054906101000a900460ff16600781111561284a5761284a614156565b81526020600192830181810494850194909303909202910180841161282b5790505b5050505050815250509050919050565b604051602481018390523360448201819052839160009081906128c3907f901cee1100000000000000000000000000000000000000000000000000000000906064016108c5565b915091506000821561294e5760048251106128e3575060208101516128e7565b5060005b8061294e576040517f08c379a000000000000000000000000000000000000000000000000000000000815260206004820152601860248201527f4e6f7420417574686f72697a656420546f20506f6c696379000000000000000060448201526064016109c7565b612956612fe6565b60008881526001918201602090815260408083208a8452909152812080547fffffffffffff00000000000000000000000000000000000000000000000000001681559182018190556129ab6002830182613be6565b6129b9600383016000613be6565b5050604051869088907f19d0bd0cc4d63f9108c93b0abfd7408498ecbc73713f6bb3a2862d9b9d1983d890600090a350505050505050565b612a316040805160e08101825260008082526020820181905291810182905290606082019081526020016000815260200160608152602001606081525090565b612a39612fe6565b600084815260019190910160209081526040808320858452825291829020825160e08082018552825460ff80821615158452610100820473ffffffffffffffffffffffffffffffffffffffff16958401959095527501000000000000000000000000000000000000000000810490911b7fffffffff00000000000000000000000000000000000000000000000000000000169482019490945292909160608401917901000000000000000000000000000000000000000000000000009004166007811115612b0957612b09614156565b6007811115612b1a57612b1a614156565b81526020016001820154815260200160028201805480602002602001604051908101604052809291908181526020018280548015612ba757602002820191906000526020600020906000905b82829054906101000a900460ff166007811115612b8557612b85614156565b815260206001928301818104948501949093039092029101808411612b665790505b5050505050815260200160038201805480602002602001604051908101604052809291908181526020018280548015612c1d57602002820191906000526020600020906000905b825461010083900a900460ff16815260206001928301818104948501949093039092029101808411612bee5790505b505050505081525050905092915050565b6060612c38613a66565b73ffffffffffffffffffffffffffffffffffffffff83166000908152602091825260409081902080548251818502810185019093528083529192909190830182828015612ca457602002820191906000526020600020905b815481526020019060010190808311612c90575b50505050509050919050565b60405160248101829052336044820181905282916000908190612cf7907f901cee1100000000000000000000000000000000000000000000000000000000906064016108c5565b9150915060008215612d82576004825110612d1757506020810151612d1b565b5060005b80612d82576040517f08c379a000000000000000000000000000000000000000000000000000000000815260206004820152601860248201527f4e6f7420417574686f72697a656420546f20506f6c696379000000000000000060448201526064016109c7565b6000612d8c612ef1565b60008881526001919091016020526040812080547fffffffffffffffffffffffffffffffffffffffffffffffffffffffffffffff0016815591505b6003820154811015612ee757600382018054600184019160009184908110612df157612df1614dcf565b90600052602060002090600891828204019190066004029054906101000a900460e01b7bffffffffffffffffffffffffffffffffffffffffffffffffffffffff19167bffffffffffffffffffffffffffffffffffffffffffffffffffffffff1916815260200190815260200160002060009055816001016001016000836001016002018381548110612e8557612e85614dcf565b6000918252602080832060088304015460079092166004026101000a90910460e01b7fffffffff000000000000000000000000000000000000000000000000000000001683528201929092526040018120612edf91613bc5565b600101612dc7565b5050505050505050565b600080611b4e60017ff9dbd639dd2ea165d77dd4c51dec420100d51ceacf023b1c40faa045ba8f9a656150f8565b600060606000612f2d613b97565b7fffffffff0000000000000000000000000000000000000000000000000000000086166000908152602082905260409081902054905191925073ffffffffffffffffffffffffffffffffffffffff16908190612f8a90879061510b565b600060405180830381855af49150503d8060008114612fc5576040519150601f19603f3d011682016040523d82523d6000602084013e612fca565b606091505b50909450925083612fdd57825160208401fd5b50509250929050565b600080611b4e60017f1f3305601ed940efccf797d76856e5fe70659a8a6905d64c9f236321df91e7186150f8565b8060c00151518160a00151511461302d5761302d615127565b600181528061303a612fe6565b6000848152600191909101602090815260408083206080860151845282529182902083518154928501519385015160e01c7501000000000000000000000000000000000000000000027fffffffffffffff00000000ffffffffffffffffffffffffffffffffffffffffff73ffffffffffffffffffffffffffffffffffffffff909516610100027fffffffffffffffffffffff0000000000000000000000000000000000000000ff921515929092167fffffffffffffffffffffff00000000000000000000000000000000000000000090941693909317179283168217815560608401519092909183917fffffffffffff00ffffffffffffffffffffffffffffffffffffffffffffffffff9091167fffffffffffff0000000000ffffffffffffffffffffffffffffffffffffffffff9091161779010000000000000000000000000000000000000000000000000083600781111561319957613199614156565b02179055506080820151600182015560a082015180516131c3916002840191602090910190613cd4565b5060c082015180516131df916003840191602090910190613dbd565b5050505050565b600080611b4e60017f5c91f63a4ffcbd372b8ec622fd1fcaaa601b66330afdb30e5c292dd9123f20b06150f8565b600061321e612ef1565b82356000908152600191909101602052604090205460ff1661329c576040517f08c379a000000000000000000000000000000000000000000000000000000000815260206004820152601060248201527f496e76616c696420506f6c69637949640000000000000000000000000000000060448201526064016109c7565b60008381526001858101602052604090912080547fffffffffffffffffffffffffffffffffffffffffffffffffffffffffffffff0016821781558391016132e38282615ce4565b5092949350505050565b6000806132f8612ef1565b60008a815260018201602052604081209192506133189160030190613e24565b821561388e5760005b878110156138885761334a87878381811061333e5761333e614dcf565b9050602002013561277c565b516133b1576040517f08c379a000000000000000000000000000000000000000000000000000000000815260206004820152601160248201527f496e76616c6964205369676e617475726500000000000000000000000000000060448201526064016109c7565b8686828181106133c3576133c3614dcf565b905060200201358260010160008c815260200190815260200160002060010160000160008b8b858181106133f9576133f9614dcf565b905060200201602081019061340e9190615dd1565b7fffffffff0000000000000000000000000000000000000000000000000000000016815260208082019290925260409081016000908120939093558c835260018501909152902060030189898381811061346a5761346a614dcf565b905060200201602081019061347f9190615dd1565b81546001810183556000928352602083206008820401805463ffffffff60079093166004026101000a928302191660e09390931c919091029190911790555b8585838181106134d0576134d0614dcf565b90506020028101906134e29190615156565b905081101561387f57600061353087878581811061350257613502614dcf565b90506020028101906135149190615156565b8481811061352457613524614dcf565b90506020020135610d08565b805190915061359b576040517f08c379a000000000000000000000000000000000000000000000000000000000815260206004820152600c60248201527f496e76616c69642052756c65000000000000000000000000000000000000000060448201526064016109c7565b60005b816020015160600151518110156137ae5781602001516060015181815181106135c9576135c9614dcf565b602002602001015160600151156136ad5761361b8d83602001516060015183815181106135f8576135f8614dcf565b6020026020010151602001516fffffffffffffffffffffffffffffffff166129f1565b516136a8576040517f08c379a000000000000000000000000000000000000000000000000000000000815260206004820152602760248201527f466f726569676e2043616c6c207265666572656e63656420696e2072756c652060448201527f6e6f74207365740000000000000000000000000000000000000000000000000060648201526084016109c7565b6137a6565b81602001516060015181815181106136c7576136c7614dcf565b602002602001015160400151156137a6576137198d83602001516060015183815181106136f6576136f6614dcf565b6020026020010151602001516fffffffffffffffffffffffffffffffff16611a2d565b516137a6576040517f08c379a000000000000000000000000000000000000000000000000000000000815260206004820152602260248201527f547261636b6572207265666572656e63656420696e2072756c65206e6f74207360448201527f657400000000000000000000000000000000000000000000000000000000000060648201526084016109c7565b60010161359e565b5060008c81526001850160205260408120600201908c8c868181106137d5576137d5614dcf565b90506020020160208101906137ea9190615dd1565b7fffffffff00000000000000000000000000000000000000000000000000000000168152602081019190915260400160002087878581811061382e5761382e614dcf565b90506020028101906138409190615156565b8481811061385057613850614dcf565b8354600180820186556000958652602095869020929095029390930135920191909155509190910190506134be565b50600101613321565b50613a2b565b60005b87811015613a29576138ae87878381811061333e5761333e614dcf565b51613915576040517f08c379a000000000000000000000000000000000000000000000000000000000815260206004820152601160248201527f496e76616c6964205369676e617475726500000000000000000000000000000060448201526064016109c7565b86868281811061392757613927614dcf565b905060200201358260010160008c815260200190815260200160002060010160000160008b8b8581811061395d5761395d614dcf565b90506020020160208101906139729190615dd1565b7fffffffff0000000000000000000000000000000000000000000000000000000016815260208082019290925260409081016000908120939093558c83526001850190915290206003018989838181106139ce576139ce614dcf565b90506020020160208101906139e39190615dd1565b815460018082018455600093845260209093206008820401805463ffffffff60079093166004026101000a928302191660e09390931c9190910291909117905501613891565b505b5096979650505050505050565b600080611b4e60017f438102ff677bc3f21830c58117a05d6b953b31e3ea339da3f17957cd3941a6906150f8565b600080611b4e60017f1544053a94493269e0aa160e5aa5b54d19ee6492c78b8bd3af283b912c78cdeb6150f8565b600080611b4e60017f8b87534450a5488e76eda19b94ce784ed5d5fd327ac126c78047b6b2a04cf2f66150f8565b60018082526000848152908501602090815260408083208584528252909120825181549015157fffffffffffffffffffffffffffffffffffffffffffffffffffffffffffffff00821681178355928401518493909183917fffffffffffffffffffffffffffffffffffffffffffffffffffffffffffff00ff167fffffffffffffffffffffffffffffffffffffffffffffffffffffffffffff000090911617610100836007811115613b7557613b75614156565b021790555060408201516001820190613b8e9082615dec565b50505050505050565b600080611b4e60017fbe498a3b14fd79a48c3c9af86ff14271ed497d09071013334028d28e7791db206150f8565b5080546000825590600052602060002090810190613be39190613e45565b50565b50805460008255601f016020900490600052602060002090810190613be39190613e45565b5080546000825590600052602060002090810190613be39190613e5a565b5080546000825590600052602060002090810190613be39190613e77565b5080546000825560050290600052602060002090810190613be39190613eae565b6040518060400160405280600015158152602001613c84613f1a565b905290565b828054828255906000526020600020908101928215613cc4579160200282015b82811115613cc4578251825591602001919060010190613ca9565b50613cd0929150613e45565b5090565b82805482825590600052602060002090601f01602090048101928215613cc45791602002820160005b83821115613d4957835183826101000a81548160ff02191690836007811115613d2857613d28614156565b02179055509260200192600101602081600001049283019260010302613cfd565b8015613d765782816101000a81549060ff0219169055600101602081600001049283019260010302613d49565b5050613cd0929150613e45565b508054613d8f90614f44565b6000825580601f10613d9f575050565b601f016020900490600052602060002090810190613be39190613e45565b82805482825590600052602060002090601f01602090048101928215613cc45791602002820160005b83821115613d4957835183826101000a81548160ff021916908360ff1602179055509260200192600101602081600001049283019260010302613de6565b508054600082556007016008900490600052602060002090810190613be391905b5b80821115613cd05760008155600101613e46565b80821115613cd0576000613e6e8282613d83565b50600101613e5a565b5b80821115613cd05780547fffffffffffffffffffffffffff00000000000000000000000000000000000000168155600101613e78565b80821115613cd05780547fffffffffffffffffffffffffffffffffffffffffffffffffffffffff000000001681556000613eeb6001830182613d83565b6002820160009055600382016000613f039190613d83565b613f11600483016000613bc5565b50600501613eae565b6040518060e001604052806000815260200160608152602001613f5760405180606001604052806060815260200160608152602001606081525090565b8152602001606081526020016060815260200160608152602001606081525090565b600060208284031215613f8b57600080fd5b5035919050565b600081518084526020840193506020830160005b828110156120de578151865260209586019590910190600101613fa6565b6060808252845190820181905260009060208601906080840190835b818110156140205783517fffffffff0000000000000000000000000000000000000000000000000000000016835260209384019390920191600101613fe0565b505083810360208501526140348187613f92565b915050828103604084015280845180835260208301915060208160051b8401016020870160005b838110156140ab577fffffffffffffffffffffffffffffffffffffffffffffffffffffffffffffffe0868403018552614095838351613f92565b602095860195909350919091019060010161405b565b50909998505050505050505050565b600060e082840312156140cc57600080fd5b50919050565b600080604083850312156140e557600080fd5b82359150602083013567ffffffffffffffff81111561410357600080fd5b61410f858286016140ba565b9150509250929050565b60006020828403121561412b57600080fd5b813567ffffffffffffffff81111561414257600080fd5b61414e848285016140ba565b949350505050565b7f4e487b7100000000000000000000000000000000000000000000000000000000600052602160045260246000fd5b6008811061419557614195614156565b9052565b600081518084526020840193506020830160005b828110156120de576141c0868351614185565b60209586019591909101906001016141ad565b60005b838110156141ee5781810151838201526020016141d6565b50506000910152565b6000815180845261420f8160208601602086016141d3565b601f017fffffffffffffffffffffffffffffffffffffffffffffffffffffffffffffffe0169290920160200192915050565b60008151606084526142566060850182613f92565b90506020830151848203602086015261426f8282614199565b9150506040830151848203604086015281815180845260208401915060208160051b85010160208401935060005b828110156142ec577fffffffffffffffffffffffffffffffffffffffffffffffffffffffffffffffe08683030184526142d78286516141f7565b6020958601959490940193915060010161429d565b50979650505050505050565b600081518084526020840193506020830160005b828110156120de578151614321878251614185565b6fffffffffffffffffffffffffffffffff60208201511660208801526040810151151560408801526060810151151560608801525060808601955060208201915060018101905061430c565b6003811061419557614195614156565b600082825180855260208501945060208160051b8301016020850160005b8381101561447e578483037fffffffffffffffffffffffffffffffffffffffffffffffffffffffffffffffe0018852815180511515845260208101516143e5602086018215159052565b5060408101516143f8604086018261436d565b50606081015161440b6060860182614185565b50608081015161010060808601526144276101008601826141f7565b905060a082015160a086015260c082015185820360c087015261444a82826141f7565b91505060e0820151915084810360e08601526144668183613f92565b60209a8b019a9095509390930192505060010161439b565b50909695505050505050565b602081528151151560208201526000602083015160408084015280516060840152602081015160e060808501526144c5610140850182613f92565b905060408201517fffffffffffffffffffffffffffffffffffffffffffffffffffffffffffffffa08583030160a08601526145008282614241565b91505060608201517fffffffffffffffffffffffffffffffffffffffffffffffffffffffffffffffa08583030160c086015261453c82826142f8565b91505060808201517fffffffffffffffffffffffffffffffffffffffffffffffffffffffffffffffa08583030160e086015261457882826142f8565b91505060a08201517fffffffffffffffffffffffffffffffffffffffffffffffffffffffffffffffa0858303016101008601526145b5828261437d565b91505060c082015191507fffffffffffffffffffffffffffffffffffffffffffffffffffffffffffffffa0848203016101208501526145f4818361437d565b95945050505050565b60008083601f84011261460f57600080fd5b50813567ffffffffffffffff81111561462757600080fd5b6020830191508360208260051b850101111561464257600080fd5b9250929050565b60008060008060008060006080888a03121561466457600080fd5b87359650602088013567ffffffffffffffff81111561468257600080fd5b61468e8a828b016145fd565b909750955050604088013567ffffffffffffffff8111156146ae57600080fd5b6146ba8a828b016145fd565b909550935050606088013567ffffffffffffffff8111156146da57600080fd5b6146e68a828b016145fd565b989b979a50959850939692959293505050565b805115158252600060208201516147136020850182614185565b5060408201516060604085015261414e60608501826141f7565b6000602082016020835280845180835260408501915060408160051b86010192506020860160005b828110156147a4577fffffffffffffffffffffffffffffffffffffffffffffffffffffffffffffffc087860301845261478f8583516146f9565b94506020938401939190910190600101614755565b50929695505050505050565b600080604083850312156147c357600080fd5b50508035926020909101359150565b6020815260006147e560208301846146f9565b9392505050565b803573ffffffffffffffffffffffffffffffffffffffff8116811461481057600080fd5b919050565b60008060006040848603121561482a57600080fd5b614833846147ec565b9250602084013567ffffffffffffffff81111561484f57600080fd5b61485b868287016145fd565b9497909650939450505050565b600081518084526020840193506020830160005b828110156120de57815160ff1686526020958601959091019060010161487c565b80511515825273ffffffffffffffffffffffffffffffffffffffff60208201511660208301527fffffffff000000000000000000000000000000000000000000000000000000006040820151166040830152600060608201516149036060850182614185565b506080820151608084015260a082015160e060a085015261492760e0850182614199565b905060c083015184820360c08601526145f48282614868565b6000602082016020835280845180835260408501915060408160051b86010192506020860160005b828110156147a4577fffffffffffffffffffffffffffffffffffffffffffffffffffffffffffffffc08786030184526149a285835161489d565b94506020938401939190910190600101614968565b80357fffffffff000000000000000000000000000000000000000000000000000000008116811461481057600080fd5b7f4e487b7100000000000000000000000000000000000000000000000000000000600052604160045260246000fd5b60405160e0810167ffffffffffffffff81118282101715614a3957614a396149e7565b60405290565b6040516060810167ffffffffffffffff81118282101715614a3957614a396149e7565b604051601f82017fffffffffffffffffffffffffffffffffffffffffffffffffffffffffffffffe016810167ffffffffffffffff81118282101715614aa957614aa96149e7565b604052919050565b600067ffffffffffffffff821115614acb57614acb6149e7565b5060051b60200190565b60088110613be357600080fd5b803561481081614ad5565b600082601f830112614afe57600080fd5b8135614b11614b0c82614ab1565b614a62565b8082825260208201915060208360051b860101925085831115614b3357600080fd5b602085015b83811015614b59578035614b4b81614ad5565b835260209283019201614b38565b5095945050505050565b600080600060608486031215614b7857600080fd5b83359250614b88602085016149b7565b9150604084013567ffffffffffffffff811115614ba457600080fd5b614bb086828701614aed565b9150509250925092565b60008060008060008060608789031215614bd357600080fd5b863567ffffffffffffffff811115614bea57600080fd5b614bf689828a016145fd565b909750955050602087013567ffffffffffffffff811115614c1657600080fd5b614c2289828a016145fd565b909550935050604087013567ffffffffffffffff811115614c4257600080fd5b614c4e89828a016145fd565b979a9699509497509295939492505050565b600080600060608486031215614c7557600080fd5b8335925060208401359150604084013567ffffffffffffffff811115614c9a57600080fd5b614bb0868287016140ba565b6020815260006147e5602083018461489d565b6000606082840312156140cc57600080fd5b60008060408385031215614cde57600080fd5b82359150602083013567ffffffffffffffff811115614cfc57600080fd5b61410f85828601614cb9565b600080600060608486031215614d1d57600080fd5b8335925060208401359150604084013567ffffffffffffffff811115614d4257600080fd5b614bb086828701614cb9565b602081528151151560208201527fffffffff0000000000000000000000000000000000000000000000000000000060208301511660408201526000604083015160608084015261414e6080840182614199565b600060208284031215614db357600080fd5b6147e5826147ec565b6020815260006147e56020830184613f92565b7f4e487b7100000000000000000000000000000000000000000000000000000000600052603260045260246000fd5b8015158114613be357600080fd5b803561481081614dfe565b600082601f830112614e2857600080fd5b8135614e36614b0c82614ab1565b8082825260208201915060208360051b860101925085831115614e5857600080fd5b602085015b83811015614b5957803560ff81168114614e7657600080fd5b835260209283019201614e5d565b600060e08236031215614e9657600080fd5b614e9e614a16565b614ea783614e0c565b8152614eb5602084016147ec565b6020820152614ec6604084016149b7565b6040820152614ed760608401614ae2565b60608201526080838101359082015260a083013567ffffffffffffffff811115614f0057600080fd5b614f0c36828601614aed565b60a08301525060c083013567ffffffffffffffff811115614f2c57600080fd5b614f3836828601614e17565b60c08301525092915050565b600181811c90821680614f5857607f821691505b6020821081036140cc577f4e487b7100000000000000000000000000000000000000000000000000000000600052602260045260246000fd5b7f4e487b7100000000000000000000000000000000000000000000000000000000600052601160045260246000fd5b60007fffffffffffffffffffffffffffffffffffffffffffffffffffffffffffffffff8203614ff157614ff1614f91565b5060010190565b60006020828403121561500a57600080fd5b5051919050565b60006060823603121561502357600080fd5b61502b614a3f565b823561503681614dfe565b8152602083013561504681614ad5565b6020820152604083013567ffffffffffffffff81111561506557600080fd5b830136601f82011261507657600080fd5b803567ffffffffffffffff811115615090576150906149e7565b6150c160207fffffffffffffffffffffffffffffffffffffffffffffffffffffffffffffffe0601f84011601614a62565b8181523660208385010111156150d657600080fd5b8160208401602083013760009181016020019190915260408301525092915050565b81810381811115611b4e57611b4e614f91565b6000825161511d8184602087016141d3565b9190910192915050565b7f4e487b7100000000000000000000000000000000000000000000000000000000600052600160045260246000fd5b60008083357fffffffffffffffffffffffffffffffffffffffffffffffffffffffffffffffe184360301811261518b57600080fd5b83018035915067ffffffffffffffff8211156151a657600080fd5b6020019150600581901b360382131561464257600080fd5b5b818110156151d357600081556001016151bf565b5050565b680100000000000000008211156151f0576151f06149e7565b805482825580831015615216578160005260206000206152148282018583016151be565b505b505050565b67ffffffffffffffff831115615233576152336149e7565b61523d83826151d7565b8181600052602060002060005b858110156152665782358282015560209092019160010161524a565b505050505050565b600082357fffffffffffffffffffffffffffffffffffffffffffffffffffffffffffffffa183360301811261511d57600080fd5b680100000000000000008211156152bb576152bb6149e7565b80548282558083101561521657816000526020600020601f840160051c8101601f85168015615337577fffffffffffffffffffffffffffffffffffffffffffffffffffffffffffffffff820180547fffffffffffffffffffffffffffffffffffffffffffffffffffffffffffffffff8360200360031b1c168155505b506131df601f840160051c8301826151be565b60008135611b4e81614ad5565b60008083357fffffffffffffffffffffffffffffffffffffffffffffffffffffffffffffffe184360301811261538c57600080fd5b83018035915067ffffffffffffffff8211156153a757600080fd5b60200191503681900382131561464257600080fd5b6153c68154614f44565b80156151d357601f8111600181146153e057505060009055565b6000838152602090206153fe601f840160051c8201600183016151be565b5060008381526020812081855555505050565b601f82111561521657806000526020600020601f840160051c810160208510156154385750805b6131df601f850160051c8301826151be565b67ffffffffffffffff831115615462576154626149e7565b615476836154708354614f44565b83615411565b6000601f8411600181146154c857600085156154925750838201355b7fffffffffffffffffffffffffffffffffffffffffffffffffffffffffffffffff600387901b1c1916600186901b1783556131df565b6000838152602090207fffffffffffffffffffffffffffffffffffffffffffffffffffffffffffffffe0861690835b8281101561551757868501358255602094850194600190920191016154f7565b5086821015615552577fffffffffffffffffffffffffffffffffffffffffffffffffffffffffffffffff60f88860031b161c19848701351681555b505060018560011b0183555050505050565b6801000000000000000083111561557d5761557d6149e7565b8054838255808410156155b9576000828152602090208481019082015b808210156155b6576155ab826153bc565b60018201915061559a565b50505b5060008181526020812083915b85811015615266576155d88386615357565b6155e381838661544a565b505060209290920191600191820191016155c6565b6156028283615156565b67ffffffffffffffff81111561561a5761561a6149e7565b61562481846151d7565b82600052602060002060005b8281101561564c57833582820155602090930192600101615630565b50505050600181016156616020840184615156565b67ffffffffffffffff811115615679576156796149e7565b61568381846152a2565b60008381526020902092508060051c60005b818110156156eb576000805b60208110156156de576156cd6156b68761534a565b60ff908116600384901b90811b91901b1984161790565b6020969096019591506001016156a1565b5085820155600101615695565b507fffffffffffffffffffffffffffffffffffffffffffffffffffffffffffffffe08216808303818414615748576000805b82811015615742576157316156b68861534a565b60209790970196915060010161571d565b50868401555b50505050505061575b6040830183615156565b615214818360028601615564565b60008083357fffffffffffffffffffffffffffffffffffffffffffffffffffffffffffffffe184360301811261579e57600080fd5b83018035915067ffffffffffffffff8211156157b957600080fd5b6020019150600781901b360382131561464257600080fd5b60008135611b4e81614dfe565b81356157e981614ad5565b600881106157f9576157f9614156565b815460ff82169150817fffffffffffffffffffffffffffffffffffffffffffffffffffffffffffffff00821617835560208401356fffffffffffffffffffffffffffffffff8116811461584b57600080fd5b70ffffffffffffffffffffffffffffffff008160081b16837fffffffffffffffffffffffffffffff00000000000000000000000000000000008416171784555050506000604083013561589d81614dfe565b82547fffffffffffffffffffffffffffff00ffffffffffffffffffffffffffffffffff1690151560881b71ff000000000000000000000000000000000016178255506151d36158ee606084016157d1565b8280547fffffffffffffffffffffffffff00ffffffffffffffffffffffffffffffffffff1691151560901b72ff00000000000000000000000000000000000016919091179055565b6801000000000000000083111561594f5761594f6149e7565b805483825580841015615986576000828152602090208481019082015b80821015615983576000825560018201915061596c565b50505b5060008181526020812083915b85811015615266576159a583836157de565b6080929092019160019182019101615993565b600082357fffffffffffffffffffffffffffffffffffffffffffffffffffffffffffffff0183360301811261511d57600080fd5b80546000825580156151d357816000526020600020615216828201826151be565b6000813560038110611b4e57600080fd5b60038210615a2e57615a2e614156565b805462ff00008360101b167fffffffffffffffffffffffffffffffffffffffffffffffffffffffffff00ffff8216178255505050565b60088210615a7457615a74614156565b805463ff0000008360181b167fffffffffffffffffffffffffffffffffffffffffffffffffffffffff00ffffff8216178255505050565b8135615ab681614dfe565b7fffffffffffffffffffffffffffffffffffffffffffffffffffffffffffffff0082541660ff82151516811783555050615b2c615af5602084016157d1565b8280547fffffffffffffffffffffffffffffffffffffffffffffffffffffffffffff00ff1691151560081b61ff0016919091179055565b615b41615b3b60408401615a0d565b82615a1e565b615b56615b506060840161534a565b82615a64565b615b636080830183615357565b615b7181836001860161544a565b505060a08201356002820155615b8a60c0830183615357565b615b9881836003860161544a565b5050615ba760e0830183615156565b61521481836004860161521b565b68010000000000000000831115615bce57615bce6149e7565b805483825580841015615ca65780600502600581048214615bf157615bf1614f91565b84600502600581048614615c0757615c07614f91565b60008481526020902091820191015b81811015615ca35760008155615c2e600182016153bc565b6000600282015560038101615c438154614f44565b8015615c8d57601f811160018114615c5e5760008355615c8b565b600083815260209020615c7c601f840160051c8201600183016151be565b50600083815260208120818555555b505b5050615c9b600482016159ec565b600501615c16565b50505b5060008181526020812083915b8581101561526657615cce615cc884876159b8565b83615aab565b6020929092019160059190910190600101615cb3565b8135815560018101615cf96020840184615156565b67ffffffffffffffff811115615d1157615d116149e7565b615d1b81846151d7565b600092835260208320925b81811015615d4257823584820155602090920191600101615d26565b50505050615d5f615d56604084018461526e565b600283016155f8565b615d6c6060830183615769565b615d7a818360058601615936565b5050615d896080830183615769565b615d97818360068601615936565b5050615da660a0830183615156565b615db4818360078601615bb5565b5050615dc360c0830183615156565b615214818360088601615bb5565b600060208284031215615de357600080fd5b6147e5826149b7565b815167ffffffffffffffff811115615e0657615e066149e7565b615e1a81615e148454614f44565b84615411565b6020601f821160018114615e6c5760008315615e365750848201515b7fffffffffffffffffffffffffffffffffffffffffffffffffffffffffffffffff600385901b1c1916600184901b1784556131df565b6000848152602081207fffffffffffffffffffffffffffffffffffffffffffffffffffffffffffffffe08516915b82811015615eba5787850151825560209485019460019092019101615e9a565b5084821015615ef657868401517fffffffffffffffffffffffffffffffffffffffffffffffffffffffffffffffff600387901b60f8161c191681555b50505050600190811b0190555056fea26469706673582212201639bae4c84840a3485877e7f68bcc97a8f953ae645af86dfeccbf3ce96c0adc64736f6c634300081c0033","linkReferences":{}},"methodIdentifiers":{"applyPolicy(address,uint256[])":"9228303f","createForeignCall(uint256,(bool,address,bytes4,uint8,uint256,uint8[],uint8[]))":"2e4c803b","createPolicy(bytes4[],uint256[],uint256[][])":"ac100fc0","createRule((uint256,uint256[],(uint256[],uint8[],bytes[]),(uint8,uint128,bool,bool)[],(uint8,uint128,bool,bool)[],(bool,bool,uint8,uint8,bytes,bytes32,string,uint256[])[],(bool,bool,uint8,uint8,bytes,bytes32,string,uint256[])[]))":"44564dc7","createTracker(uint256,(bool,uint8,bytes))":"cd42bcf8","deleteForeignCall(uint256,uint256)":"d82260c8","deletePolicy(uint256)":"fed27c8f","deleteRule(uint256)":"30626b5c","deleteTracker(uint256,uint256)":"a82c9e07","getAllForeignCalls(uint256)":"a3937e99","getAllTrackers(uint256)":"56f3b05f","getAppliedPolicyIds(address)":"e3749023","getForeignCall(uint256,uint256)":"da7d5d28","getFunctionSignature(uint256)":"d57a72cd","getPolicy(uint256)":"2b07fce3","getRule(uint256)":"48462037","getTracker(uint256,uint256)":"72a340d7","updateForeignCall(uint256,uint256,(bool,address,bytes4,uint8,uint256,uint8[],uint8[]))":"c017d300","updateFunctionSignature(uint256,bytes4,uint8[])":"a5bcf7f2","updatePolicy(uint256,bytes4[],uint256[],uint256[][])":"50a9f0d4","updateRule(uint256,(uint256,uint256[],(uint256[],uint8[],bytes[]),(uint8,uint128,bool,bool)[],(uint8,uint128,bool,bool)[],(bool,bool,uint8,uint8,bytes,bytes32,string,uint256[])[],(bool,bool,uint8,uint8,bytes,bytes32,string,uint256[])[]))":"ae635b7c","updateTracker(uint256,uint256,(bool,uint8,bytes))":"cf7c6728"},"id":82}