{"abi":[{"type":"function","name":"addTracker","inputs":[{"name":"_policyId","type":"uint256","internalType":"uint256"},{"name":"tracker","type":"tuple","internalType":"struct Trackers","components":[{"name":"pType","type":"uint8","internalType":"enum PT"},{"name":"trackerValue","type":"bytes","internalType":"bytes"}]}],"outputs":[{"name":"","type":"uint256","internalType":"uint256"}],"stateMutability":"nonpayable"},{"type":"function","name":"applyPolicy","inputs":[{"name":"_contractAddress","type":"address","internalType":"address"},{"name":"_policyId","type":"uint256[]","internalType":"uint256[]"}],"outputs":[],"stateMutability":"nonpayable"},{"type":"function","name":"getAppliedPolicyIds","inputs":[{"name":"_contractAddress","type":"address","internalType":"address"}],"outputs":[{"name":"","type":"uint256[]","internalType":"uint256[]"}],"stateMutability":"view"},{"type":"function","name":"getForeignCall","inputs":[{"name":"_policyId","type":"uint256","internalType":"uint256"}],"outputs":[{"name":"fc","type":"tuple","internalType":"struct ForeignCallSet","components":[{"name":"set","type":"bool","internalType":"bool"},{"name":"foreignCalls","type":"tuple[]","internalType":"struct ForeignCall[]","components":[{"name":"foreignCallAddress","type":"address","internalType":"address"},{"name":"foreignCallIndex","type":"uint256","internalType":"uint256"},{"name":"signature","type":"bytes4","internalType":"bytes4"},{"name":"returnType","type":"uint8","internalType":"enum PT"},{"name":"parameterTypes","type":"uint8[]","internalType":"enum PT[]"}]}]}],"stateMutability":"view"},{"type":"function","name":"getForeignCall","inputs":[{"name":"_policyId","type":"uint256","internalType":"uint256"},{"name":"_foreignCallId","type":"uint256","internalType":"uint256"}],"outputs":[{"name":"fc","type":"tuple","internalType":"struct ForeignCall","components":[{"name":"foreignCallAddress","type":"address","internalType":"address"},{"name":"foreignCallIndex","type":"uint256","internalType":"uint256"},{"name":"signature","type":"bytes4","internalType":"bytes4"},{"name":"returnType","type":"uint8","internalType":"enum PT"},{"name":"parameterTypes","type":"uint8[]","internalType":"enum PT[]"}]}],"stateMutability":"view"},{"type":"function","name":"getFunctionSignature","inputs":[{"name":"_functionSignatureId","type":"uint256","internalType":"uint256"}],"outputs":[{"name":"","type":"tuple","internalType":"struct FunctionSignatureStorageSet","components":[{"name":"set","type":"bool","internalType":"bool"},{"name":"signature","type":"bytes","internalType":"bytes"},{"name":"parameterTypes","type":"uint8[]","internalType":"enum PT[]"}]}],"stateMutability":"view"},{"type":"function","name":"getRule","inputs":[{"name":"_ruleId","type":"uint256","internalType":"uint256"}],"outputs":[{"name":"","type":"tuple","internalType":"struct RuleStorageSet","components":[{"name":"set","type":"bool","internalType":"bool"},{"name":"rule","type":"tuple","internalType":"struct Rule","components":[{"name":"instructionSet","type":"uint256[]","internalType":"uint256[]"},{"name":"rawData","type":"tuple","internalType":"struct RawData","components":[{"name":"instructionSetIndex","type":"uint256[]","internalType":"uint256[]"},{"name":"argumentTypes","type":"uint8[]","internalType":"enum PT[]"},{"name":"dataValues","type":"bytes[]","internalType":"bytes[]"}]},{"name":"placeHolders","type":"tuple[]","internalType":"struct Placeholder[]","components":[{"name":"pType","type":"uint8","internalType":"enum PT"},{"name":"typeSpecificIndex","type":"uint256","internalType":"uint256"},{"name":"trackerValue","type":"bool","internalType":"bool"},{"name":"foreignCall","type":"bool","internalType":"bool"}]},{"name":"effectPlaceHolders","type":"tuple[]","internalType":"struct Placeholder[]","components":[{"name":"pType","type":"uint8","internalType":"enum PT"},{"name":"typeSpecificIndex","type":"uint256","internalType":"uint256"},{"name":"trackerValue","type":"bool","internalType":"bool"},{"name":"foreignCall","type":"bool","internalType":"bool"}]},{"name":"fcArgumentMappingsConditions","type":"tuple[]","internalType":"struct ForeignCallArgumentMappings[]","components":[{"name":"foreignCallIndex","type":"uint256","internalType":"uint256"},{"name":"mappings","type":"tuple[]","internalType":"struct IndividualArgumentMapping[]","components":[{"name":"functionCallArgumentType","type":"uint8","internalType":"enum PT"},{"name":"functionSignatureArg","type":"tuple","internalType":"struct Placeholder","components":[{"name":"pType","type":"uint8","internalType":"enum PT"},{"name":"typeSpecificIndex","type":"uint256","internalType":"uint256"},{"name":"trackerValue","type":"bool","internalType":"bool"},{"name":"foreignCall","type":"bool","internalType":"bool"}]}]}]},{"name":"fcArgumentMappingsEffects","type":"tuple[]","internalType":"struct ForeignCallArgumentMappings[]","components":[{"name":"foreignCallIndex","type":"uint256","internalType":"uint256"},{"name":"mappings","type":"tuple[]","internalType":"struct IndividualArgumentMapping[]","components":[{"name":"functionCallArgumentType","type":"uint8","internalType":"enum PT"},{"name":"functionSignatureArg","type":"tuple","internalType":"struct Placeholder","components":[{"name":"pType","type":"uint8","internalType":"enum PT"},{"name":"typeSpecificIndex","type":"uint256","internalType":"uint256"},{"name":"trackerValue","type":"bool","internalType":"bool"},{"name":"foreignCall","type":"bool","internalType":"bool"}]}]}]},{"name":"posEffects","type":"tuple[]","internalType":"struct Effect[]","components":[{"name":"valid","type":"bool","internalType":"bool"},{"name":"effectType","type":"uint8","internalType":"enum ET"},{"name":"text","type":"string","internalType":"string"},{"name":"instructionSet","type":"uint256[]","internalType":"uint256[]"}]},{"name":"negEffects","type":"tuple[]","internalType":"struct Effect[]","components":[{"name":"valid","type":"bool","internalType":"bool"},{"name":"effectType","type":"uint8","internalType":"enum ET"},{"name":"text","type":"string","internalType":"string"},{"name":"instructionSet","type":"uint256[]","internalType":"uint256[]"}]}]}]}],"stateMutability":"view"},{"type":"function","name":"getTracker","inputs":[{"name":"_policyId","type":"uint256","internalType":"uint256"},{"name":"index","type":"uint256","internalType":"uint256"}],"outputs":[{"name":"trackers","type":"tuple","internalType":"struct Trackers","components":[{"name":"pType","type":"uint8","internalType":"enum PT"},{"name":"trackerValue","type":"bytes","internalType":"bytes"}]}],"stateMutability":"nonpayable"},{"type":"function","name":"getTracker","inputs":[{"name":"_policyId","type":"uint256","internalType":"uint256"}],"outputs":[{"name":"trackerValuesSet","type":"tuple","internalType":"struct TrackerValuesSet","components":[{"name":"set","type":"bool","internalType":"bool"},{"name":"trackers","type":"tuple[]","internalType":"struct Trackers[]","components":[{"name":"pType","type":"uint8","internalType":"enum PT"},{"name":"trackerValue","type":"bytes","internalType":"bytes"}]}]}],"stateMutability":"view"},{"type":"function","name":"updateForeignCall","inputs":[{"name":"_policyId","type":"uint256","internalType":"uint256"},{"name":"foreignContractAddress","type":"address","internalType":"address"},{"name":"functionSignature","type":"string","internalType":"string"},{"name":"returnType","type":"uint8","internalType":"enum PT"},{"name":"arguments","type":"uint8[]","internalType":"enum PT[]"}],"outputs":[{"name":"fc","type":"tuple","internalType":"struct ForeignCall","components":[{"name":"foreignCallAddress","type":"address","internalType":"address"},{"name":"foreignCallIndex","type":"uint256","internalType":"uint256"},{"name":"signature","type":"bytes4","internalType":"bytes4"},{"name":"returnType","type":"uint8","internalType":"enum PT"},{"name":"parameterTypes","type":"uint8[]","internalType":"enum PT[]"}]}],"stateMutability":"nonpayable"},{"type":"function","name":"updateFunctionSignature","inputs":[{"name":"_functionSignatureId","type":"uint256","internalType":"uint256"},{"name":"functionSignature","type":"string","internalType":"string"},{"name":"pTypes","type":"uint8[]","internalType":"enum PT[]"}],"outputs":[{"name":"","type":"uint256","internalType":"uint256"}],"stateMutability":"nonpayable"},{"type":"function","name":"updatePolicy","inputs":[{"name":"_policyId","type":"uint256","internalType":"uint256"},{"name":"_signatures","type":"string[]","internalType":"string[]"},{"name":"functionSignatureIds","type":"uint256[]","internalType":"uint256[]"},{"name":"ruleIds","type":"uint256[][]","internalType":"uint256[][]"}],"outputs":[{"name":"","type":"uint256","internalType":"uint256"}],"stateMutability":"nonpayable"},{"type":"function","name":"updateRule","inputs":[{"name":"_ruleId","type":"uint256","internalType":"uint256"},{"name":"rule","type":"tuple","internalType":"struct Rule","components":[{"name":"instructionSet","type":"uint256[]","internalType":"uint256[]"},{"name":"rawData","type":"tuple","internalType":"struct RawData","components":[{"name":"instructionSetIndex","type":"uint256[]","internalType":"uint256[]"},{"name":"argumentTypes","type":"uint8[]","internalType":"enum PT[]"},{"name":"dataValues","type":"bytes[]","internalType":"bytes[]"}]},{"name":"placeHolders","type":"tuple[]","internalType":"struct Placeholder[]","components":[{"name":"pType","type":"uint8","internalType":"enum PT"},{"name":"typeSpecificIndex","type":"uint256","internalType":"uint256"},{"name":"trackerValue","type":"bool","internalType":"bool"},{"name":"foreignCall","type":"bool","internalType":"bool"}]},{"name":"effectPlaceHolders","type":"tuple[]","internalType":"struct Placeholder[]","components":[{"name":"pType","type":"uint8","internalType":"enum PT"},{"name":"typeSpecificIndex","type":"uint256","internalType":"uint256"},{"name":"trackerValue","type":"bool","internalType":"bool"},{"name":"foreignCall","type":"bool","internalType":"bool"}]},{"name":"fcArgumentMappingsConditions","type":"tuple[]","internalType":"struct ForeignCallArgumentMappings[]","components":[{"name":"foreignCallIndex","type":"uint256","internalType":"uint256"},{"name":"mappings","type":"tuple[]","internalType":"struct IndividualArgumentMapping[]","components":[{"name":"functionCallArgumentType","type":"uint8","internalType":"enum PT"},{"name":"functionSignatureArg","type":"tuple","internalType":"struct Placeholder","components":[{"name":"pType","type":"uint8","internalType":"enum PT"},{"name":"typeSpecificIndex","type":"uint256","internalType":"uint256"},{"name":"trackerValue","type":"bool","internalType":"bool"},{"name":"foreignCall","type":"bool","internalType":"bool"}]}]}]},{"name":"fcArgumentMappingsEffects","type":"tuple[]","internalType":"struct ForeignCallArgumentMappings[]","components":[{"name":"foreignCallIndex","type":"uint256","internalType":"uint256"},{"name":"mappings","type":"tuple[]","internalType":"struct IndividualArgumentMapping[]","components":[{"name":"functionCallArgumentType","type":"uint8","internalType":"enum PT"},{"name":"functionSignatureArg","type":"tuple","internalType":"struct Placeholder","components":[{"name":"pType","type":"uint8","internalType":"enum PT"},{"name":"typeSpecificIndex","type":"uint256","internalType":"uint256"},{"name":"trackerValue","type":"bool","internalType":"bool"},{"name":"foreignCall","type":"bool","internalType":"bool"}]}]}]},{"name":"posEffects","type":"tuple[]","internalType":"struct Effect[]","components":[{"name":"valid","type":"bool","internalType":"bool"},{"name":"effectType","type":"uint8","internalType":"enum ET"},{"name":"text","type":"string","internalType":"string"},{"name":"instructionSet","type":"uint256[]","internalType":"uint256[]"}]},{"name":"negEffects","type":"tuple[]","internalType":"struct Effect[]","components":[{"name":"valid","type":"bool","internalType":"bool"},{"name":"effectType","type":"uint8","internalType":"enum ET"},{"name":"text","type":"string","internalType":"string"},{"name":"instructionSet","type":"uint256[]","internalType":"uint256[]"}]}]}],"outputs":[{"name":"","type":"uint256","internalType":"uint256"}],"stateMutability":"nonpayable"},{"type":"function","name":"updateTracker","inputs":[{"name":"_policyId","type":"uint256","internalType":"uint256"},{"name":"updatedUintTracker","type":"uint256","internalType":"uint256"},{"name":"updatedAddressTracker","type":"address","internalType":"address"},{"name":"updatedStringTracker","type":"string","internalType":"string"},{"name":"updatedBoolTracker","type":"bool","internalType":"bool"},{"name":"updatedBytesTracker","type":"bytes","internalType":"bytes"}],"outputs":[],"stateMutability":"nonpayable"}],"bytecode":{"object":"0x6080604052348015600f57600080fd5b50613ecd8061001f6000396000f3fe608060405234801561001057600080fd5b50600436106100ea5760003560e01c80639c7a08e61161008c578063d57a72cd11610066578063d57a72cd14610203578063da7d5d2814610223578063e374902314610236578063f7a481171461025657600080fd5b80639c7a08e6146101b0578063a78049c8146101c3578063c3a83344146101e357600080fd5b806348462037116100c8578063484620371461014857806372a340d7146101685780639228303f1461018857806396e2eb381461019d57600080fd5b806305e4eff3146100ef5780632b8c2f37146101155780633bbaa76c14610128575b600080fd5b6101026100fd366004612391565b610269565b6040519081526020015b60405180910390f35b61010261012336600461242a565b6102bf565b61013b610136366004612656565b6107ce565b60405161010c91906127b0565b61015b6101563660046127c3565b6109f0565b60405161010c9190612ab7565b61017b610176366004612bc8565b6113c2565b60405161010c9190612c10565b61019b610196366004612c23565b6114f3565b005b6101026101ab366004612c75565b6115e4565b61019b6101be366004612cf3565b61165d565b6101d66101d13660046127c3565b611948565b60405161010c9190612da3565b6101f66101f13660046127c3565b611adf565b60405161010c9190612e1e565b6102166102113660046127c3565b611c30565b60405161010c9190612e8d565b61013b610231366004612bc8565b611dab565b610249610244366004612ed2565b611f8c565b60405161010c9190612eed565b610102610264366004612f00565b612001565b600080610274612069565b90508360000361028957805460010180825593505b600084815260018281016020526040909120805460ff1916821781558491016102b28282613b81565b5084925050505b92915050565b6000806102ca612097565b90508685146103375760405162461bcd60e51b815260206004820152602e60248201527f5369676e61747572657320616e64207369676e6174757265206964277320617260448201526d19481a5b98dbdb9cda5cdd195b9d60921b60648201526084015b60405180910390fd5b886000036103675780546001908101808355600081815282840160205260409020805460ff191690921790915598505b82156106e05760005b878110156106da5761039987878381811061038d5761038d613c9d565b90506020020135611c30565b516103da5760405162461bcd60e51b8152602060048201526011602482015270496e76616c6964205369676e617475726560781b604482015260640161032e565b8686828181106103ec576103ec613c9d565b905060200201358260010160008c81526020019081526020016000206001016000018a8a8481811061042057610420613c9d565b905060200281019061043291906130df565b604051610440929190613cb3565b9081526040519081900360200190205560005b85858381811061046557610465613c9d565b90506020028101906104779190612f42565b905081101561064d5760006104c587878581811061049757610497613c9d565b90506020028101906104a99190612f42565b848181106104b9576104b9613c9d565b905060200201356109f0565b80519091506105055760405162461bcd60e51b815260206004820152600c60248201526b496e76616c69642052756c6560a01b604482015260640161032e565b60005b8160200151604001515181101561064357816020015160400151818151811061053357610533613c9d565b602002602001015160600151156105af5761054d8d611948565b516105aa5760405162461bcd60e51b815260206004820152602760248201527f466f726569676e2043616c6c207265666572656e63656420696e2072756c65206044820152661b9bdd081cd95d60ca1b606482015260840161032e565b61063b565b81602001516040015181815181106105c9576105c9613c9d565b6020026020010151604001511561063b576105e38d611adf565b5161063b5760405162461bcd60e51b815260206004820152602260248201527f547261636b6572207265666572656e63656420696e2072756c65206e6f742073604482015261195d60f21b606482015260840161032e565b600101610508565b5050600101610453565b5084848281811061066057610660613c9d565b90506020028101906106729190612f42565b60008c815260018501602052604090206002018b8b8581811061069757610697613c9d565b90506020028101906106a991906130df565b6040516106b7929190613cb3565b9081526040519081900360200190206106d192909161217d565b50600101610370565b506107c1565b60005b878110156107bf5761070087878381811061038d5761038d613c9d565b516107415760405162461bcd60e51b8152602060048201526011602482015270496e76616c6964205369676e617475726560781b604482015260640161032e565b86868281811061075357610753613c9d565b905060200201358260010160008c81526020019081526020016000206001016000018a8a8481811061078757610787613c9d565b905060200281019061079991906130df565b6040516107a7929190613cb3565b908152604051908190036020019020556001016106e3565b505b5096979650505050505050565b6107d66121c8565b60006107e06120c5565b6001600160a01b038716835285516020808801919091206001600160e01b0319166040850152815490840181905290915081600061081d83613cc3565b909155505060608201846005811115610838576108386126ea565b9081600581111561084b5761084b6126ea565b90525082516001600160401b03811115610867576108676124f3565b604051908082528060200260200182016040528015610890578160200160208202803683370190505b50608083015260005b8351811015610909578381815181106108b4576108b4613c9d565b6020026020010151836080015182815181106108d2576108d2613c9d565b602002602001019060058111156108eb576108eb6126ea565b908160058111156108fe576108fe6126ea565b905250600101610899565b50600087815260018281016020908152604080842083018054808501825590855293829020865160049095020180546001600160a01b0319166001600160a01b03909516949094178455908501519183019190915583015160028201805463ffffffff19811660e09390931c9283178255606086015186949390929164ffffffffff1916176401000000008360058111156109a6576109a66126ea565b0217905550608082015180516109c69160038401916020909101906121f8565b505050600096875260019081016020526040909620805460ff191690961790955550929392505050565b6109f86122a7565b610a00612069565b60008381526001918201602090815260409182902082518084018452815460ff16151581528351948201805461012081860288018101909652610100870181815292969395948701949192849290918491840182828015610a8057602002820191906000526020600020905b815481526020019060010190808311610a6c575b505050505081526020016001820160405180606001604052908160008201805480602002602001604051908101604052809291908181526020018280548015610ae857602002820191906000526020600020905b815481526020019060010190808311610ad4575b5050505050815260200160018201805480602002602001604051908101604052809291908181526020018280548015610b7057602002820191906000526020600020906000905b82829054906101000a900460ff166005811115610b4e57610b4e6126ea565b815260206001928301818104948501949093039092029101808411610b2f5790505b5050505050815260200160028201805480602002602001604051908101604052809291908181526020016000905b82821015610c4a578382906000526020600020018054610bbd90613125565b80601f0160208091040260200160405190810160405280929190818152602001828054610be990613125565b8015610c365780601f10610c0b57610100808354040283529160200191610c36565b820191906000526020600020905b815481529060010190602001808311610c1957829003601f168201915b505050505081526020019060010190610b9e565b5050505081525050815260200160048201805480602002602001604051908101604052809291908181526020016000905b82821015610d08576000848152602090206040805160808101909152600384029091018054829060ff166005811115610cb657610cb66126ea565b6005811115610cc757610cc76126ea565b815260018281015460208084019190915260029093015460ff8082161515604085015261010090910416151560609092019190915291835292019101610c7b565b50505050815260200160058201805480602002602001604051908101604052809291908181526020016000905b82821015610dc2576000848152602090206040805160808101909152600384029091018054829060ff166005811115610d7057610d706126ea565b6005811115610d8157610d816126ea565b815260018281015460208084019190915260029093015460ff8082161515604085015261010090910416151560609092019190915291835292019101610d35565b50505050815260200160068201805480602002602001604051908101604052809291908181526020016000905b82821015610f2f57838290600052602060002090600202016040518060400160405290816000820154815260200160018201805480602002602001604051908101604052809291908181526020016000905b82821015610f185760008481526020902060408051808201909152600484029091018054829060ff166005811115610e7b57610e7b6126ea565b6005811115610e8c57610e8c6126ea565b81526040805160808101909152600183018054602090930192829060ff166005811115610ebb57610ebb6126ea565b6005811115610ecc57610ecc6126ea565b815260018281015460208084019190915260029093015460ff80821615156040850152610100909104161515606090920191909152919092529284529390910192919091019050610e41565b505050508152505081526020019060010190610def565b50505050815260200160078201805480602002602001604051908101604052809291908181526020016000905b8282101561109c57838290600052602060002090600202016040518060400160405290816000820154815260200160018201805480602002602001604051908101604052809291908181526020016000905b828210156110855760008481526020902060408051808201909152600484029091018054829060ff166005811115610fe857610fe86126ea565b6005811115610ff957610ff96126ea565b81526040805160808101909152600183018054602090930192829060ff166005811115611028576110286126ea565b6005811115611039576110396126ea565b815260018281015460208084019190915260029093015460ff80821615156040850152610100909104161515606090920191909152919092529284529390910192919091019050610fae565b505050508152505081526020019060010190610f5c565b50505050815260200160088201805480602002602001604051908101604052809291908181526020016000905b82821015611227576000848152602090819020604080516080810190915260038502909101805460ff808216151584529293919291840191610100909104166002811115611119576111196126ea565b600281111561112a5761112a6126ea565b815260200160018201805461113e90613125565b80601f016020809104026020016040519081016040528092919081815260200182805461116a90613125565b80156111b75780601f1061118c576101008083540402835291602001916111b7565b820191906000526020600020905b81548152906001019060200180831161119a57829003601f168201915b505050505081526020016002820180548060200260200160405190810160405280929190818152602001828054801561120f57602002820191906000526020600020905b8154815260200190600101908083116111fb575b505050505081525050815260200190600101906110c9565b50505050815260200160098201805480602002602001604051908101604052809291908181526020016000905b828210156113b2576000848152602090819020604080516080810190915260038502909101805460ff8082161515845292939192918401916101009091041660028111156112a4576112a46126ea565b60028111156112b5576112b56126ea565b81526020016001820180546112c990613125565b80601f01602080910402602001604051908101604052809291908181526020018280546112f590613125565b80156113425780601f1061131757610100808354040283529160200191611342565b820191906000526020600020905b81548152906001019060200180831161132557829003601f168201915b505050505081526020016002820180548060200260200160405190810160405280929190818152602001828054801561139a57602002820191906000526020600020905b815481526020019060010190808311611386575b50505050508152505081526020019060010190611254565b5050509152505090525092915050565b6113ca6122c8565b60006113d46120f3565b600085815260018083016020526040909120805460ff191682178155919250908101906114019085613cdc565b8154811061141157611411613c9d565b60009182526020909120604080518082019091526002909202018054829060ff166005811115611443576114436126ea565b6005811115611454576114546126ea565b815260200160018201805461146890613125565b80601f016020809104026020016040519081016040528092919081815260200182805461149490613125565b80156114e15780601f106114b6576101008083540402835291602001916114e1565b820191906000526020600020905b8154815290600101906020018083116114c457829003601f168201915b50505050508152505091505092915050565b60006114fd612121565b9050816001600160401b03811115611517576115176124f3565b604051908082528060200260200182016040528015611540578160200160208202803683370190505b506001600160a01b038516600090815260208381526040909120825161156c93919291909101906122da565b5060005b828110156115dd5783838281811061158a5761158a613c9d565b90506020020135826000016000876001600160a01b03166001600160a01b0316815260200190815260200160002082815481106115c9576115c9613c9d565b600091825260209091200155600101611570565b5050505050565b6000806115ef61214f565b90508460000361160457805460010180825594505b600085815260018281016020526040909120805460ff1916821781550161162b8582613cef565b50600085815260018201602090815260409091208451611653926002909201918601906121f8565b5093949350505050565b60006116676120f3565b6000888152600180830160205260408220805460ff191690911790559091505b600088815260018084016020526040909120015481101561193e576002600089815260018085016020526040909120018054839081106116c9576116c9613c9d565b600091825260209091206002909102015460ff1660058111156116ee576116ee6126ea565b03611756576040805160208101899052015b60408051601f1981840301815291815260008a815260018086016020529190200180548390811061173357611733613c9d565b906000526020600020906002020160010190816117509190613cef565b50611936565b60008881526001838101602052604082200180548390811061177a5761177a613c9d565b600091825260209091206002909102015460ff16600581111561179f5761179f6126ea565b036117bd57604080516001600160a01b038816602082015201611700565b6001600089815260018085016020526040909120018054839081106117e4576117e4613c9d565b600091825260209091206002909102015460ff166005811115611809576118096126ea565b0361181f57846040516020016117009190613da7565b60036000898152600180850160205260409091200180548390811061184657611846613c9d565b600091825260209091206002909102015460ff16600581111561186b5761186b6126ea565b036118825760408051851515602082015201611700565b6005600089815260018085016020526040909120018054839081106118a9576118a9613c9d565b600091825260209091206002909102015460ff1660058111156118ce576118ce6126ea565b0361193657826040516020016118e49190613da7565b60408051601f1981840301815291815260008a815260018086016020529190200180548390811061191757611917613c9d565b906000526020600020906002020160010190816119349190613cef565b505b600101611687565b5050505050505050565b6040805180820190915260008152606060208201526119656120c5565b600083815260019182016020908152604080832081518083018352815460ff1615158152948101805483518186028101860190945280845291948685019491929184015b82821015611ad15760008481526020908190206040805160a0810182526004860290920180546001600160a01b03168352600181015493830193909352600283015460e081901b6001600160e01b031916918301919091529091906060830190640100000000900460ff166005811115611a2557611a256126ea565b6005811115611a3657611a366126ea565b815260200160038201805480602002602001604051908101604052809291908181526020018280548015611ab957602002820191906000526020600020906000905b82829054906101000a900460ff166005811115611a9757611a976126ea565b815260206001928301818104948501949093039092029101808411611a785790505b505050505081525050815260200190600101906119a9565b505050915250909392505050565b604080518082019091526000815260606020820152611afc6120f3565b600083815260019182016020908152604080832081518083018352815460ff1615158152948101805483518186028101860190945280845291948685019491929184015b82821015611ad15760008481526020902060408051808201909152600284029091018054829060ff166005811115611b7a57611b7a6126ea565b6005811115611b8b57611b8b6126ea565b8152602001600182018054611b9f90613125565b80601f0160208091040260200160405190810160405280929190818152602001828054611bcb90613125565b8015611c185780601f10611bed57610100808354040283529160200191611c18565b820191906000526020600020905b815481529060010190602001808311611bfb57829003601f168201915b50505050508152505081526020019060010190611b40565b611c56604051806060016040528060001515815260200160608152602001606081525090565b611c5e61214f565b600083815260019182016020908152604091829020825160608101909352805460ff1615158352928301805492939291840191611c9a90613125565b80601f0160208091040260200160405190810160405280929190818152602001828054611cc690613125565b8015611d135780601f10611ce857610100808354040283529160200191611d13565b820191906000526020600020905b815481529060010190602001808311611cf657829003601f168201915b5050505050815260200160028201805480602002602001604051908101604052809291908181526020018280548015611d9b57602002820191906000526020600020906000905b82829054906101000a900460ff166005811115611d7957611d796126ea565b815260206001928301818104948501949093039092029101808411611d5a5790505b5050505050815250509050919050565b611db36121c8565b6000611dbd6120c5565b90506000816001016000868152602001908152602001600020600101805480602002602001604051908101604052809291908181526020016000905b82821015611f215760008481526020908190206040805160a0810182526004860290920180546001600160a01b03168352600181015493830193909352600283015460e081901b6001600160e01b031916918301919091529091906060830190640100000000900460ff166005811115611e7557611e756126ea565b6005811115611e8657611e866126ea565b815260200160038201805480602002602001604051908101604052809291908181526020018280548015611f0957602002820191906000526020600020906000905b82829054906101000a900460ff166005811115611ee757611ee76126ea565b815260206001928301818104948501949093039092029101808411611ec85790505b50505050508152505081526020019060010190611df9565b50505050905060005b8151811015611f835784828281518110611f4657611f46613c9d565b60200260200101516020015103611f7b57818181518110611f6957611f69613c9d565b602002602001015193505050506102b9565b600101611f2a565b50505092915050565b6060611f96612121565b6001600160a01b0383166000908152602091825260409081902080548251818502810185019093528083529192909190830182828015611ff557602002820191906000526020600020905b815481526020019060010190808311611fe1575b50505050509050919050565b60008061200c6120f3565b60008581526001808301602090815260408320805460ff1916831781558201805492830181558352909120919250849160029091020161204c8282613dba565b505060008481526001918201602052604090200154905092915050565b6000806102b960017f5c91f63a4ffcbd372b8ec622fd1fcaaa601b66330afdb30e5c292dd9123f20b0613cdc565b6000806102b960017ff9dbd639dd2ea165d77dd4c51dec420100d51ceacf023b1c40faa045ba8f9a65613cdc565b6000806102b960017f1f3305601ed940efccf797d76856e5fe70659a8a6905d64c9f236321df91e718613cdc565b6000806102b960017f438102ff677bc3f21830c58117a05d6b953b31e3ea339da3f17957cd3941a690613cdc565b6000806102b960017f1544053a94493269e0aa160e5aa5b54d19ee6492c78b8bd3af283b912c78cdeb613cdc565b6000806102b960017f8b87534450a5488e76eda19b94ce784ed5d5fd327ac126c78047b6b2a04cf2f6613cdc565b8280548282559060005260206000209081019282156121b8579160200282015b828111156121b857823582559160200191906001019061219d565b506121c4929150612315565b5090565b6040805160a0810182526000808252602082018190529181018290529060608201905b8152602001606081525090565b82805482825590600052602060002090601f016020900481019282156121b85791602002820160005b8382111561226d57835183826101000a81548160ff0219169083600581111561224c5761224c6126ea565b02179055509260200192600101602081600001049283019260010302612221565b801561229a5782816101000a81549060ff021916905560010160208160000104928301926001030261226d565b50506121c4929150612315565b60405180604001604052806000151581526020016122c361232a565b905290565b604080518082019091528060006121eb565b8280548282559060005260206000209081019282156121b8579160200282015b828111156121b85782518255916020019190600101906122fa565b5b808211156121c45760008155600101612316565b6040518061010001604052806060815260200161236160405180606001604052806060815260200160608152602001606081525090565b81526020016060815260200160608152602001606081526020016060815260200160608152602001606081525090565b600080604083850312156123a457600080fd5b8235915060208301356001600160401b038111156123c157600080fd5b830161010081860312156123d457600080fd5b809150509250929050565b60008083601f8401126123f157600080fd5b5081356001600160401b0381111561240857600080fd5b6020830191508360208260051b850101111561242357600080fd5b9250929050565b60008060008060008060006080888a03121561244557600080fd5b8735965060208801356001600160401b0381111561246257600080fd5b61246e8a828b016123df565b90975095505060408801356001600160401b0381111561248d57600080fd5b6124998a828b016123df565b90955093505060608801356001600160401b038111156124b857600080fd5b6124c48a828b016123df565b989b979a50959850939692959293505050565b80356001600160a01b03811681146124ee57600080fd5b919050565b634e487b7160e01b600052604160045260246000fd5b604051601f8201601f191681016001600160401b0381118282101715612531576125316124f3565b604052919050565b6000806001600160401b03841115612553576125536124f3565b50601f8301601f191660200161256881612509565b91505082815283838301111561257d57600080fd5b828260208301376000602084830101529392505050565b600082601f8301126125a557600080fd5b6125b483833560208501612539565b9392505050565b600681106125c857600080fd5b50565b600082601f8301126125dc57600080fd5b81356001600160401b038111156125f5576125f56124f3565b8060051b61260560208201612509565b9182526020818501810192908101908684111561262157600080fd5b6020860192505b8383101561264c57823561263b816125bb565b825260209283019290910190612628565b9695505050505050565b600080600080600060a0868803121561266e57600080fd5b8535945061267e602087016124d7565b935060408601356001600160401b0381111561269957600080fd5b6126a588828901612594565b93505060608601356126b6816125bb565b915060808601356001600160401b038111156126d157600080fd5b6126dd888289016125cb565b9150509295509295909350565b634e487b7160e01b600052602160045260246000fd5b60068110612710576127106126ea565b9052565b600081518084526020840193506020830160005b828110156116535761273b868351612700565b6020958601959190910190600101612728565b80516001600160a01b03168252602080820151908301526040808201516001600160e01b0319169083015260608082015160009161278e90850182612700565b50608082015160a060808501526127a860a0850182612714565b949350505050565b6020815260006125b4602083018461274e565b6000602082840312156127d557600080fd5b5035919050565b600081518084526020840193506020830160005b828110156116535781518652602095860195909101906001016127f0565b6000815180845260005b8181101561283457602081850181015186830182015201612818565b506000602082860101526020601f19601f83011685010191505092915050565b600081516060845261286960608501826127dc565b9050602083015184820360208601526128828282612714565b9150506040830151848203604086015281815180845260208401915060208160051b85010160208401935060005b828110156128e157601f198683030184526128cc82865161280e565b602095860195949094019391506001016128b0565b50979650505050505050565b6128f8828251612700565b602081015160208301526040810151151560408301526060810151151560608301525050565b600081518084526020840193506020830160005b82811015611653576129458683516128ed565b6080959095019460209190910190600101612932565b600082825180855260208501945060208160051b8301016020850160005b83811015612a0c57848303601f190188528151805184526020908101516040828601819052815190860181905291019060009060608601905b808310156129f35783516129c7838251612700565b602081015190506129db60208401826128ed565b5060a0820191506020840193506001830192506129b2565b5060209a8b019a90955093909301925050600101612979565b50909695505050505050565b600082825180855260208501945060208160051b8301016020850160005b83811015612a0c57848303601f190188528151805115158452602081015160038110612a6457612a646126ea565b80602086015250604081015160806040860152612a84608086018261280e565b9050606082015191508481036060860152612a9f81836127dc565b60209a8b019a90955093909301925050600101612a36565b602081528151151560208201526000602083015160408084015280516101006060850152612ae96101608501826127dc565b90506020820151605f19858303016080860152612b068282612854565b9150506040820151605f198583030160a0860152612b24828261291e565b9150506060820151605f198583030160c0860152612b42828261291e565b9150506080820151605f198583030160e0860152612b60828261295b565b91505060a0820151605f1985830301610100860152612b7f828261295b565b91505060c0820151605f1985830301610120860152612b9e8282612a18565b91505060e08201519150605f1984820301610140850152612bbf8183612a18565b95945050505050565b60008060408385031215612bdb57600080fd5b50508035926020909101359150565b612bf5828251612700565b60006020820151604060208501526127a8604085018261280e565b6020815260006125b46020830184612bea565b600080600060408486031215612c3857600080fd5b612c41846124d7565b925060208401356001600160401b03811115612c5c57600080fd5b612c68868287016123df565b9497909650939450505050565b600080600060608486031215612c8a57600080fd5b8335925060208401356001600160401b03811115612ca757600080fd5b612cb386828701612594565b92505060408401356001600160401b03811115612ccf57600080fd5b612cdb868287016125cb565b9150509250925092565b80151581146125c857600080fd5b60008060008060008060c08789031215612d0c57600080fd5b8635955060208701359450612d23604088016124d7565b935060608701356001600160401b03811115612d3e57600080fd5b612d4a89828a01612594565b9350506080870135612d5b81612ce5565b915060a08701356001600160401b03811115612d7657600080fd5b8701601f81018913612d8757600080fd5b612d9689823560208401612539565b9150509295509295509295565b60208152600060608201835115156020840152602084015160408085015281815180845260808601915060808160051b870101935060208301925060005b81811015612e1257607f19878603018352612dfd85855161274e565b94506020938401939290920191600101612de1565b50929695505050505050565b60208152600060608201835115156020840152602084015160408085015281815180845260808601915060808160051b870101935060208301925060005b81811015612e1257607f19878603018352612e78858551612bea565b94506020938401939290920191600101612e5c565b602081528151151560208201526000602083015160606040840152612eb5608084018261280e565b90506040840151601f19848303016060850152612bbf8282612714565b600060208284031215612ee457600080fd5b6125b4826124d7565b6020815260006125b460208301846127dc565b60008060408385031215612f1357600080fd5b8235915060208301356001600160401b03811115612f3057600080fd5b8301604081860312156123d457600080fd5b6000808335601e19843603018112612f5957600080fd5b8301803591506001600160401b03821115612f7357600080fd5b6020019150600581901b360382131561242357600080fd5b634e487b7160e01b600052601160045260246000fd5b5b81811015612fb65760008155600101612fa2565b5050565b600160401b821115612fce57612fce6124f3565b805482825580831015612ff457816000526020600020612ff2828201858301612fa1565b505b505050565b6001600160401b03831115613010576130106124f3565b61301a8382612fba565b8181600052602060002060005b8581101561304357823582820155602090920191600101613027565b505050505050565b60008235605e1983360301811261306157600080fd5b9190910192915050565b600160401b82111561307f5761307f6124f3565b805482825580831015612ff457816000526020600020601f840160051c8101601f851680156130bf57600019820180546000198360200360031b1c168155505b506115dd601f840160051c830182612fa1565b600081356102b9816125bb565b6000808335601e198436030181126130f657600080fd5b8301803591506001600160401b0382111561311057600080fd5b60200191503681900382131561242357600080fd5b600181811c9082168061313957607f821691505b60208210810361315957634e487b7160e01b600052602260045260246000fd5b50919050565b600019600383901b1c191660019190911b1790565b601f821115612ff457806000526020600020601f840160051c8101602085101561319b5750805b6115dd601f850160051c830182612fa1565b6001600160401b038311156131c4576131c46124f3565b6131d8836131d28354613125565b83613174565b6000601f84116001811461320657600085156131f45750838201355b6131fe868261315f565b8455506115dd565b600083815260209020601f19861690835b828110156132375786850135825560209485019460019092019101613217565b50868210156132545760001960f88860031b161c19848701351681555b505060018560011b0183555050505050565b600160401b83111561327a5761327a6124f3565b805483825580841015613302576000828152602090208481019082015b808210156132ff576132a98254613125565b80156132f357601f8111600181146132c457600084556132f1565b6000848152602090206132e2601f840160051c820160018301612fa1565b50600084815260208120818655555b505b50600182019150613297565b50505b5060008181526020812083915b858110156130435761332183866130df565b61332c8183866131ad565b5050602092909201916001918201910161330f565b61334b8283612f42565b6001600160401b03811115613362576133626124f3565b61336c8184612fba565b82600052602060002060005b8281101561339457833582820155602090930192600101613378565b50505050600181016133a96020840184612f42565b6001600160401b038111156133c0576133c06124f3565b6133ca818461306b565b60008381526020902092508060051c60005b81811015613432576000805b6020811015613425576134146133fd876130d2565b60ff908116600384901b90811b91901b1984161790565b6020969096019591506001016133e8565b50858201556001016133dc565b50601f198216808303818414613471576000805b8281101561346b5761345a6133fd886130d2565b602097909701969150600101613446565b50868401555b5050505050506134846040830183612f42565b612ff2818360028601613266565b6000808335601e198436030181126134a957600080fd5b8301803591506001600160401b038211156134c357600080fd5b6020019150600781901b360382131561242357600080fd5b600682106134eb576134eb6126ea565b60ff1981541660ff831681178255505050565b8135613509816125bb565b61351381836134db565b506020820135600182015560028101604083013561353081612ce5565b815460ff191660ff8215151617825550606083013561354e81612ce5565b815461ff00191681151560081b61ff001617825550505050565b600160401b83111561357c5761357c6124f3565b8054838255808410156135e8578060030260038104821461359f5761359f612f8b565b846003026003810486146135b5576135b5612f8b565b60008481526020902091820191015b818110156135e55760008082556001820181905560028201556003016135c4565b50505b5060008181526020812083915b858110156130435761360783836134fe565b60809290920191600391909101906001016135f5565b60008235603e1983360301811261306157600080fd5b60008154600083558015612ff4576001600160fe1b038116811461365957613659612f8b565b60009150828252602082208160021b81015b808210156115dd578382556136926001830160008155600060018201556000600282015550565b60048201915061366b565b600160401b8211156136b1576136b16124f3565b805482825580831015612ff4576001600160fe1b03811681146136d6576136d6612f8b565b6001600160fe1b03831683146136ee576136ee612f8b565b8160005260206000208160021b81018460021b820191505b808210156115dd576000825561372e6001830160008155600060018201556000600282015550565b600482019150613706565b8135815560018101602083013536849003601e1901811261375957600080fd5b830180356001600160401b0381111561377157600080fd5b60208201915060a08102360382131561378957600080fd5b613793818461369d565b600092835260208320925b818110156130435782356137b1816125bb565b6137bb81866134db565b5060208301356137ca816125bb565b6137d781600187016134db565b50604083013560028501556003840160608401356137f481612ce5565b815460ff191660ff8215151617825550608084013561381281612ce5565b815461ff00191681151560081b61ff001617909155506004939093019260a0929092019160010161379e565b600160401b831115613852576138526124f3565b8054838255808410156138cd576001600160ff1b038116811461387757613877612f8b565b6001600160ff1b038416841461388f5761388f612f8b565b8160005260206000208160011b81018560011b820191505b808210156138ca57600082556138bf60018301613633565b6002820191506138a7565b50505b5060008181526020812083915b85811015613043576138f56138ef848761361d565b83613739565b60209290920191600291909101906001016138da565b60008235607e1983360301811261306157600080fd5b8054600082558015612fb657816000526020600020612ff482820182612fa1565b813561394d81612ce5565b815460ff191660ff821515161782555060208201356003811015801561397257600080fd5b50815461ff001916600882901b61ff0016178255506001810161399860408401846130df565b6001600160401b038111156139af576139af6124f3565b6139c3816139bd8554613125565b85613174565b6000601f8211600181146139f157600083156139df5750838201355b6139e9848261315f565b865550613a4a565b600085815260208120601f198516915b82811015613a215786850135825560209485019460019092019101613a01565b5084821015613a3e5760001960f88660031b161c19848701351681555b505060018360011b0185555b5050505050613a5c6060830183612f42565b612ff2818360028601612ff9565b600160401b831115613a7e57613a7e6124f3565b805483825580841015613b435780600302600381048214613aa157613aa1612f8b565b84600302600381048614613ab757613ab7612f8b565b60008481526020902091820191015b81811015613b40576000815560018101613ae08154613125565b8015613b2a57601f811160018114613afb5760008355613b28565b600083815260209020613b19601f840160051c820160018301612fa1565b50600083815260208120818555555b505b5050613b3860028201613921565b600301613ac6565b50505b5060008181526020812083915b8581101561304357613b6b613b65848761390b565b83613942565b6020929092019160039190910190600101613b50565b613b8b8283612f42565b6001600160401b03811115613ba257613ba26124f3565b613bac8184612fba565b82600052602060002060005b82811015613bd457833582820155602090930192600101613bb8565b50505050613bf1613be8602084018461304b565b60018301613341565b613bfe6040830183613492565b613c0c818360048601613568565b5050613c1b6060830183613492565b613c29818360058601613568565b5050613c386080830183612f42565b613c4681836006860161383e565b5050613c5560a0830183612f42565b613c6381836007860161383e565b5050613c7260c0830183612f42565b613c80818360088601613a6a565b5050613c8f60e0830183612f42565b612ff2818360098601613a6a565b634e487b7160e01b600052603260045260246000fd5b8183823760009101908152919050565b600060018201613cd557613cd5612f8b565b5060010190565b818103818111156102b9576102b9612f8b565b81516001600160401b03811115613d0857613d086124f3565b613d1c81613d168454613125565b84613174565b6020601f821160018114613d4a5760008315613d385750848201515b613d42848261315f565b8555506115dd565b600084815260208120601f198516915b82811015613d7a5787850151825560209485019460019092019101613d5a565b5084821015613d985786840151600019600387901b60f8161c191681555b50505050600190811b01905550565b6020815260006125b4602083018461280e565b8135613dc5816125bb565b613dcf81836134db565b5060018101613de160208401846130df565b6001600160401b03811115613df857613df86124f3565b613e06816139bd8554613125565b6000601f821160018114613e345760008315613e225750838201355b613e2c848261315f565b865550613e8e565b600085815260209020601f19841690835b82811015613e655786850135825560209485019460019092019101613e45565b5084821015613e825760001960f88660031b161c19848701351681555b505060018360011b0185555b5050505050505056fea264697066735822122033c057a2a0b21cb515d300baccf6e23696a22b8d1d7e617a36f2e034adb5568264736f6c634300081c0033","linkReferences":{}},"methodIdentifiers":{"addTracker(uint256,(uint8,bytes))":"f7a48117","applyPolicy(address,uint256[])":"9228303f","getAppliedPolicyIds(address)":"e3749023","getForeignCall(uint256)":"a78049c8","getForeignCall(uint256,uint256)":"da7d5d28","getFunctionSignature(uint256)":"d57a72cd","getRule(uint256)":"48462037","getTracker(uint256)":"c3a83344","getTracker(uint256,uint256)":"72a340d7","updateForeignCall(uint256,address,string,uint8,uint8[])":"3bbaa76c","updateFunctionSignature(uint256,string,uint8[])":"96e2eb38","updatePolicy(uint256,string[],uint256[],uint256[][])":"2b8c2f37","updateRule(uint256,(uint256[],(uint256[],uint8[],bytes[]),(uint8,uint256,bool,bool)[],(uint8,uint256,bool,bool)[],(uint256,(uint8,(uint8,uint256,bool,bool))[])[],(uint256,(uint8,(uint8,uint256,bool,bool))[])[],(bool,uint8,string,uint256[])[],(bool,uint8,string,uint256[])[]))":"05e4eff3","updateTracker(uint256,uint256,address,string,bool,bytes)":"9c7a08e6"},"id":44}