{"abi":[{"type":"function","name":"addClosedPolicySubscriber","inputs":[{"name":"policyId","type":"uint256","internalType":"uint256"},{"name":"subscriber","type":"address","internalType":"address"}],"outputs":[],"stateMutability":"nonpayable"},{"type":"function","name":"createCallingFunction","inputs":[{"name":"policyId","type":"uint256","internalType":"uint256"},{"name":"functionSignature","type":"bytes4","internalType":"bytes4"},{"name":"pTypes","type":"uint8[]","internalType":"enum ParamTypes[]"},{"name":"callingFunctionName","type":"string","internalType":"string"},{"name":"encodedValues","type":"string","internalType":"string"}],"outputs":[{"name":"","type":"uint256","internalType":"uint256"}],"stateMutability":"nonpayable"},{"type":"function","name":"createForeignCall","inputs":[{"name":"_policyId","type":"uint256","internalType":"uint256"},{"name":"_foreignCall","type":"tuple","internalType":"struct ForeignCall","components":[{"name":"set","type":"bool","internalType":"bool"},{"name":"foreignCallAddress","type":"address","internalType":"address"},{"name":"signature","type":"bytes4","internalType":"bytes4"},{"name":"returnType","type":"uint8","internalType":"enum ParamTypes"},{"name":"foreignCallIndex","type":"uint256","internalType":"uint256"},{"name":"parameterTypes","type":"uint8[]","internalType":"enum ParamTypes[]"},{"name":"encodedIndices","type":"tuple[]","internalType":"struct ForeignCallEncodedIndex[]","components":[{"name":"eType","type":"uint8","internalType":"enum EncodedIndexType"},{"name":"index","type":"uint256","internalType":"uint256"}]}]},{"name":"foreignCallName","type":"string","internalType":"string"}],"outputs":[{"name":"","type":"uint256","internalType":"uint256"}],"stateMutability":"nonpayable"},{"type":"function","name":"createTracker","inputs":[{"name":"policyId","type":"uint256","internalType":"uint256"},{"name":"tracker","type":"tuple","internalType":"struct Trackers","components":[{"name":"set","type":"bool","internalType":"bool"},{"name":"pType","type":"uint8","internalType":"enum ParamTypes"},{"name":"mapped","type":"bool","internalType":"bool"},{"name":"trackerKeyType","type":"uint8","internalType":"enum ParamTypes"},{"name":"trackerValue","type":"bytes","internalType":"bytes"},{"name":"trackerIndex","type":"uint256","internalType":"uint256"}]},{"name":"trackerName","type":"string","internalType":"string"},{"name":"trackerKeys","type":"bytes[]","internalType":"bytes[]"},{"name":"trackerValues","type":"bytes[]","internalType":"bytes[]"}],"outputs":[{"name":"","type":"uint256","internalType":"uint256"}],"stateMutability":"nonpayable"},{"type":"function","name":"createTracker","inputs":[{"name":"policyId","type":"uint256","internalType":"uint256"},{"name":"tracker","type":"tuple","internalType":"struct Trackers","components":[{"name":"set","type":"bool","internalType":"bool"},{"name":"pType","type":"uint8","internalType":"enum ParamTypes"},{"name":"mapped","type":"bool","internalType":"bool"},{"name":"trackerKeyType","type":"uint8","internalType":"enum ParamTypes"},{"name":"trackerValue","type":"bytes","internalType":"bytes"},{"name":"trackerIndex","type":"uint256","internalType":"uint256"}]},{"name":"trackerName","type":"string","internalType":"string"}],"outputs":[{"name":"","type":"uint256","internalType":"uint256"}],"stateMutability":"nonpayable"},{"type":"function","name":"deleteCallingFunction","inputs":[{"name":"policyId","type":"uint256","internalType":"uint256"},{"name":"callingFunctionId","type":"uint256","internalType":"uint256"}],"outputs":[],"stateMutability":"nonpayable"},{"type":"function","name":"deleteForeignCall","inputs":[{"name":"policyId","type":"uint256","internalType":"uint256"},{"name":"foreignCallId","type":"uint256","internalType":"uint256"}],"outputs":[],"stateMutability":"nonpayable"},{"type":"function","name":"deleteTracker","inputs":[{"name":"policyId","type":"uint256","internalType":"uint256"},{"name":"trackerIndex","type":"uint256","internalType":"uint256"}],"outputs":[],"stateMutability":"nonpayable"},{"type":"function","name":"getAllCallingFunctions","inputs":[{"name":"policyId","type":"uint256","internalType":"uint256"}],"outputs":[{"name":"","type":"tuple[]","internalType":"struct CallingFunctionStorageSet[]","components":[{"name":"set","type":"bool","internalType":"bool"},{"name":"signature","type":"bytes4","internalType":"bytes4"},{"name":"parameterTypes","type":"uint8[]","internalType":"enum ParamTypes[]"}]}],"stateMutability":"view"},{"type":"function","name":"getAllForeignCalls","inputs":[{"name":"policyId","type":"uint256","internalType":"uint256"}],"outputs":[{"name":"fc","type":"tuple[]","internalType":"struct ForeignCall[]","components":[{"name":"set","type":"bool","internalType":"bool"},{"name":"foreignCallAddress","type":"address","internalType":"address"},{"name":"signature","type":"bytes4","internalType":"bytes4"},{"name":"returnType","type":"uint8","internalType":"enum ParamTypes"},{"name":"foreignCallIndex","type":"uint256","internalType":"uint256"},{"name":"parameterTypes","type":"uint8[]","internalType":"enum ParamTypes[]"},{"name":"encodedIndices","type":"tuple[]","internalType":"struct ForeignCallEncodedIndex[]","components":[{"name":"eType","type":"uint8","internalType":"enum EncodedIndexType"},{"name":"index","type":"uint256","internalType":"uint256"}]}]}],"stateMutability":"view"},{"type":"function","name":"getAllTrackers","inputs":[{"name":"policyId","type":"uint256","internalType":"uint256"}],"outputs":[{"name":"","type":"tuple[]","internalType":"struct Trackers[]","components":[{"name":"set","type":"bool","internalType":"bool"},{"name":"pType","type":"uint8","internalType":"enum ParamTypes"},{"name":"mapped","type":"bool","internalType":"bool"},{"name":"trackerKeyType","type":"uint8","internalType":"enum ParamTypes"},{"name":"trackerValue","type":"bytes","internalType":"bytes"},{"name":"trackerIndex","type":"uint256","internalType":"uint256"}]}],"stateMutability":"view"},{"type":"function","name":"getCallingFunction","inputs":[{"name":"policyId","type":"uint256","internalType":"uint256"},{"name":"callingFunctionId","type":"uint256","internalType":"uint256"}],"outputs":[{"name":"","type":"tuple","internalType":"struct CallingFunctionStorageSet","components":[{"name":"set","type":"bool","internalType":"bool"},{"name":"signature","type":"bytes4","internalType":"bytes4"},{"name":"parameterTypes","type":"uint8[]","internalType":"enum ParamTypes[]"}]}],"stateMutability":"view"},{"type":"function","name":"getCallingFunctionMetadata","inputs":[{"name":"policyId","type":"uint256","internalType":"uint256"},{"name":"callingFunctionId","type":"uint256","internalType":"uint256"}],"outputs":[{"name":"","type":"tuple","internalType":"struct CallingFunctionHashMapping","components":[{"name":"callingFunction","type":"string","internalType":"string"},{"name":"signature","type":"bytes4","internalType":"bytes4"},{"name":"encodedValues","type":"string","internalType":"string"}]}],"stateMutability":"view"},{"type":"function","name":"getForeignCall","inputs":[{"name":"policyId","type":"uint256","internalType":"uint256"},{"name":"foreignCallId","type":"uint256","internalType":"uint256"}],"outputs":[{"name":"fc","type":"tuple","internalType":"struct ForeignCall","components":[{"name":"set","type":"bool","internalType":"bool"},{"name":"foreignCallAddress","type":"address","internalType":"address"},{"name":"signature","type":"bytes4","internalType":"bytes4"},{"name":"returnType","type":"uint8","internalType":"enum ParamTypes"},{"name":"foreignCallIndex","type":"uint256","internalType":"uint256"},{"name":"parameterTypes","type":"uint8[]","internalType":"enum ParamTypes[]"},{"name":"encodedIndices","type":"tuple[]","internalType":"struct ForeignCallEncodedIndex[]","components":[{"name":"eType","type":"uint8","internalType":"enum EncodedIndexType"},{"name":"index","type":"uint256","internalType":"uint256"}]}]}],"stateMutability":"view"},{"type":"function","name":"getForeignCallMetadata","inputs":[{"name":"policyId","type":"uint256","internalType":"uint256"},{"name":"foreignCallId","type":"uint256","internalType":"uint256"}],"outputs":[{"name":"fcMeta","type":"string","internalType":"string"}],"stateMutability":"view"},{"type":"function","name":"getMappedTrackerValue","inputs":[{"name":"policyId","type":"uint256","internalType":"uint256"},{"name":"index","type":"uint256","internalType":"uint256"},{"name":"trackerKey","type":"bytes","internalType":"bytes"}],"outputs":[{"name":"","type":"bytes","internalType":"bytes"}],"stateMutability":"view"},{"type":"function","name":"getTracker","inputs":[{"name":"policyId","type":"uint256","internalType":"uint256"},{"name":"index","type":"uint256","internalType":"uint256"}],"outputs":[{"name":"tracker","type":"tuple","internalType":"struct Trackers","components":[{"name":"set","type":"bool","internalType":"bool"},{"name":"pType","type":"uint8","internalType":"enum ParamTypes"},{"name":"mapped","type":"bool","internalType":"bool"},{"name":"trackerKeyType","type":"uint8","internalType":"enum ParamTypes"},{"name":"trackerValue","type":"bytes","internalType":"bytes"},{"name":"trackerIndex","type":"uint256","internalType":"uint256"}]}],"stateMutability":"view"},{"type":"function","name":"getTrackerMetadata","inputs":[{"name":"policyId","type":"uint256","internalType":"uint256"},{"name":"trackerId","type":"uint256","internalType":"uint256"}],"outputs":[{"name":"trMeta","type":"string","internalType":"string"}],"stateMutability":"view"},{"type":"function","name":"isClosedPolicySubscriber","inputs":[{"name":"policyId","type":"uint256","internalType":"uint256"},{"name":"subscriber","type":"address","internalType":"address"}],"outputs":[{"name":"","type":"bool","internalType":"bool"}],"stateMutability":"view"},{"type":"function","name":"removeClosedPolicySubscriber","inputs":[{"name":"policyId","type":"uint256","internalType":"uint256"},{"name":"subscriber","type":"address","internalType":"address"}],"outputs":[],"stateMutability":"nonpayable"},{"type":"function","name":"updateCallingFunction","inputs":[{"name":"policyId","type":"uint256","internalType":"uint256"},{"name":"callingFunctionID","type":"uint256","internalType":"uint256"},{"name":"functionSignature","type":"bytes4","internalType":"bytes4"},{"name":"pTypes","type":"uint8[]","internalType":"enum ParamTypes[]"}],"outputs":[{"name":"","type":"uint256","internalType":"uint256"}],"stateMutability":"nonpayable"},{"type":"function","name":"updateForeignCall","inputs":[{"name":"policyId","type":"uint256","internalType":"uint256"},{"name":"foreignCallId","type":"uint256","internalType":"uint256"},{"name":"foreignCall","type":"tuple","internalType":"struct ForeignCall","components":[{"name":"set","type":"bool","internalType":"bool"},{"name":"foreignCallAddress","type":"address","internalType":"address"},{"name":"signature","type":"bytes4","internalType":"bytes4"},{"name":"returnType","type":"uint8","internalType":"enum ParamTypes"},{"name":"foreignCallIndex","type":"uint256","internalType":"uint256"},{"name":"parameterTypes","type":"uint8[]","internalType":"enum ParamTypes[]"},{"name":"encodedIndices","type":"tuple[]","internalType":"struct ForeignCallEncodedIndex[]","components":[{"name":"eType","type":"uint8","internalType":"enum EncodedIndexType"},{"name":"index","type":"uint256","internalType":"uint256"}]}]}],"outputs":[{"name":"fc","type":"tuple","internalType":"struct ForeignCall","components":[{"name":"set","type":"bool","internalType":"bool"},{"name":"foreignCallAddress","type":"address","internalType":"address"},{"name":"signature","type":"bytes4","internalType":"bytes4"},{"name":"returnType","type":"uint8","internalType":"enum ParamTypes"},{"name":"foreignCallIndex","type":"uint256","internalType":"uint256"},{"name":"parameterTypes","type":"uint8[]","internalType":"enum ParamTypes[]"},{"name":"encodedIndices","type":"tuple[]","internalType":"struct ForeignCallEncodedIndex[]","components":[{"name":"eType","type":"uint8","internalType":"enum EncodedIndexType"},{"name":"index","type":"uint256","internalType":"uint256"}]}]}],"stateMutability":"nonpayable"},{"type":"function","name":"updateTracker","inputs":[{"name":"_policyId","type":"uint256","internalType":"uint256"},{"name":"_trackerIndex","type":"uint256","internalType":"uint256"},{"name":"_tracker","type":"tuple","internalType":"struct Trackers","components":[{"name":"set","type":"bool","internalType":"bool"},{"name":"pType","type":"uint8","internalType":"enum ParamTypes"},{"name":"mapped","type":"bool","internalType":"bool"},{"name":"trackerKeyType","type":"uint8","internalType":"enum ParamTypes"},{"name":"trackerValue","type":"bytes","internalType":"bytes"},{"name":"trackerIndex","type":"uint256","internalType":"uint256"}]},{"name":"_trackerKey","type":"bytes","internalType":"bytes"},{"name":"_trackerValue","type":"bytes","internalType":"bytes"}],"outputs":[],"stateMutability":"nonpayable"},{"type":"function","name":"updateTracker","inputs":[{"name":"policyId","type":"uint256","internalType":"uint256"},{"name":"trackerIndex","type":"uint256","internalType":"uint256"},{"name":"tracker","type":"tuple","internalType":"struct Trackers","components":[{"name":"set","type":"bool","internalType":"bool"},{"name":"pType","type":"uint8","internalType":"enum ParamTypes"},{"name":"mapped","type":"bool","internalType":"bool"},{"name":"trackerKeyType","type":"uint8","internalType":"enum ParamTypes"},{"name":"trackerValue","type":"bytes","internalType":"bytes"},{"name":"trackerIndex","type":"uint256","internalType":"uint256"}]}],"outputs":[],"stateMutability":"nonpayable"},{"type":"event","name":"AssociatedRuleDeleted","inputs":[{"name":"policyId","type":"uint256","indexed":true,"internalType":"uint256"},{"name":"foreignCallId","type":"uint256","indexed":true,"internalType":"uint256"}],"anonymous":false},{"type":"event","name":"CallingFunctionCreated","inputs":[{"name":"policyId","type":"uint256","indexed":true,"internalType":"uint256"},{"name":"callingFunctionId","type":"uint256","indexed":true,"internalType":"uint256"}],"anonymous":false},{"type":"event","name":"CallingFunctionDeleted","inputs":[{"name":"policyId","type":"uint256","indexed":true,"internalType":"uint256"},{"name":"callingFunctionId","type":"uint256","indexed":true,"internalType":"uint256"}],"anonymous":false},{"type":"event","name":"CallingFunctionUpdated","inputs":[{"name":"policyId","type":"uint256","indexed":true,"internalType":"uint256"},{"name":"callingFunctionId","type":"uint256","indexed":true,"internalType":"uint256"}],"anonymous":false},{"type":"event","name":"ForeignCallCreated","inputs":[{"name":"policyId","type":"uint256","indexed":true,"internalType":"uint256"},{"name":"foreignCallId","type":"uint256","indexed":true,"internalType":"uint256"}],"anonymous":false},{"type":"event","name":"ForeignCallDeleted","inputs":[{"name":"policyId","type":"uint256","indexed":true,"internalType":"uint256"},{"name":"foreignCallId","type":"uint256","indexed":true,"internalType":"uint256"}],"anonymous":false},{"type":"event","name":"ForeignCallUpdated","inputs":[{"name":"policyId","type":"uint256","indexed":true,"internalType":"uint256"},{"name":"foreignCallId","type":"uint256","indexed":true,"internalType":"uint256"}],"anonymous":false},{"type":"event","name":"PolicySubsciberAdded","inputs":[{"name":"policyId","type":"uint256","indexed":true,"internalType":"uint256"},{"name":"subscriber","type":"address","indexed":true,"internalType":"address"}],"anonymous":false},{"type":"event","name":"PolicySubsciberRemoved","inputs":[{"name":"policyId","type":"uint256","indexed":true,"internalType":"uint256"},{"name":"subscriber","type":"address","indexed":true,"internalType":"address"}],"anonymous":false},{"type":"event","name":"TrackerCreated","inputs":[{"name":"policyId","type":"uint256","indexed":true,"internalType":"uint256"},{"name":"trackerId","type":"uint256","indexed":true,"internalType":"uint256"}],"anonymous":false},{"type":"event","name":"TrackerDeleted","inputs":[{"name":"policyId","type":"uint256","indexed":true,"internalType":"uint256"},{"name":"trackerId","type":"uint256","indexed":true,"internalType":"uint256"}],"anonymous":false},{"type":"event","name":"TrackerUpdated","inputs":[{"name":"policyId","type":"uint256","indexed":true,"internalType":"uint256"},{"name":"trackerId","type":"uint256","indexed":true,"internalType":"uint256"}],"anonymous":false}],"bytecode":{"object":"0x6080604052348015600e575f5ffd5b50614c678061001c5f395ff3fe608060405234801561000f575f5ffd5b506004361061018f575f3560e01c80639f9fa719116100dd578063da7d5d2811610088578063f479c99411610063578063f479c994146103af578063f69187ee146103c2578063febf8f92146103d5575f5ffd5b8063da7d5d281461035c578063eeeb60471461036f578063f3e7dfc31461038f575f5ffd5b8063b0955878116100b8578063b095587814610316578063bfc8523614610329578063d82260c814610349575f5ffd5b80639f9fa719146102d0578063a3937e99146102e3578063a82c9e0714610303575f5ffd5b80634c957ad91161013d57806372a340d71161011857806372a340d71461028a57806372cb754c146102aa5780637374c994146102bd575f5ffd5b80634c957ad91461023457806356f39ae31461025757806356f3b05f1461026a575f5ffd5b806336f89f791161016d57806336f89f79146101ee5780633bf07314146102015780633fafdf6e14610221575f5ffd5b80630b5f5723146101935780631af4a8f9146101b95780632711fe6b146101d9575b5f5ffd5b6101a66101a13660046134a7565b6103e8565b6040519081526020015b60405180910390f35b6101cc6101c7366004613589565b6105d5565b6040516101b09190613750565b6101ec6101e736600461379a565b6106fb565b005b6101a66101fc3660046137c8565b61082a565b61021461020f366004613838565b610927565b6040516101b091906138a4565b6101ec61022f366004613838565b6109d6565b61024761024236600461379a565b610d10565b60405190151581526020016101b0565b6101a6610265366004613a86565b610d56565b61027d610278366004613ae5565b6110df565b6040516101b09190613b62565b61029d610298366004613838565b61134b565b6040516101b09190613be3565b6101a66102b8366004613bf5565b6114d2565b6101ec6102cb36600461379a565b611547565b6102146102de366004613c31565b61166e565b6102f66102f1366004613ae5565b611748565b6040516101b09190613c68565b6101ec610311366004613838565b611a86565b6101a6610324366004613d6d565b611b29565b61033c610337366004613838565b611b98565b6040516101b09190613e6b565b6101ec610357366004613838565b611c9c565b6101cc61036a366004613838565b611d4a565b61038261037d366004613838565b611fa7565b6040516101b09190613e7d565b6103a261039d366004613ae5565b61213b565b6040516101b09190613eff565b6101ec6103bd366004613f74565b612307565b6102146103d0366004613838565b61236a565b6101ec6103e3366004614020565b612374565b5f6103f389336123cf565b6103fc8961252d565b610405886125bc565b831580610410575081155b156104a2576040517f08c379a000000000000000000000000000000000000000000000000000000000815260206004820152602760248201527f547261636b6572206b65797320616e642076616c7565732063616e6e6f74206260448201527f6520656d7074790000000000000000000000000000000000000000000000000060648201526084015b60405180910390fd5b838214610531576040517f08c379a000000000000000000000000000000000000000000000000000000000815260206004820152603160248201527f547261636b6572206b65797320616e642076616c756573206d7573742068617660448201527f65207468652073616d65206c656e6774680000000000000000000000000000006064820152608401610499565b5f61053a61283b565b5f8b8152602091909152604090205490506105548a612868565b90505f5b858110156105bb576105b38b838c8a8a8681811061057857610578614062565b905060200281019061058a919061408f565b8a8a8881811061059c5761059c614062565b90506020028101906105ae919061408f565b61289a565b600101610558565b506105c88a828a8a6128be565b9998505050505050505050565b6106136040805160e0810182525f8082526020820181905291810182905290606082019081526020015f815260200160608152602001606081525090565b61061d84336123cf565b6106268461252d565b61062f8261419d565b602081015190915073ffffffffffffffffffffffffffffffffffffffff166106b657604080518082018252601c81527f5a65726f20416464726573732043616e6e6f742042652041646d696e00000000602082015290517f08c379a000000000000000000000000000000000000000000000000000000000815261049991906004016138a4565b608081018390526106c884838561291c565b604051839085907f82132283659aa079ae6d599fbbe109c1bfb961fc5bbbb0a98a343b4ea6dc3e00905f90a39392505050565b61070582336123cf565b61070e8261252d565b73ffffffffffffffffffffffffffffffffffffffff811661078e57604080518082018252601c81527f5a65726f20416464726573732043616e6e6f742042652041646d696e00000000602082015290517f08c379a000000000000000000000000000000000000000000000000000000000815261049991906004016138a4565b6001610798612945565b5f8481526001919091016020908152604080832073ffffffffffffffffffffffffffffffffffffffff8616808552600590910190925280832080547fffffffffffffffffffffffffffffffffffffffffffffffffffffffffffffff001694151594909417909355915184917f790a3138425334d31f4463869c596f58d51e891ecb665b5090fa0ae9ed8b6fd291a35050565b5f61083585336123cf565b61083e8561252d565b5f61084f6040860160208701614259565b73ffffffffffffffffffffffffffffffffffffffff16036108cf57604080518082018252601c81527f5a65726f20416464726573732043616e6e6f742042652041646d696e00000000602082015290517f08c379a000000000000000000000000000000000000000000000000000000000815261049991906004016138a4565b5f6108d986612972565b90506108e686868361291c565b6108f28682868661297c565b604051819087907f9006068daf408b7e36a22c789f04c4ba9c6c638a6cf8438c2250583384f2192f905f90a395945050505050565b60606109316129a7565b5f8481526020918252604080822085835290925220805461095190614274565b80601f016020809104026020016040519081016040528092919081815260200182805461097d90614274565b80156109c85780601f1061099f576101008083540402835291602001916109c8565b820191905f5260205f20905b8154815290600101906020018083116109ab57829003601f168201915b505050505090505b92915050565b6109e082336123cf565b6109e98261252d565b5f6109f2612945565b5f848152600191909101602052604081209150610a0d6129d4565b5f85815260019190910160209081526040808320868452909152902054610100900460e01b9050610a3c6129d4565b5f858152600191820160209081526040808320878452909152812080547fffffffffffffffffffffffffffffffffffffffffffffffffffffff000000000016815591610a8a9083018261310d565b50610a9a9050600383015f61312f565b7fffffffff0000000000000000000000000000000000000000000000000000000081165f90815260018301602052604081208190555b7fffffffff0000000000000000000000000000000000000000000000000000000082165f908152600284016020526040902054811015610bf957610b12612a01565b5f868152600191820160209081526040808320858452909152812080547fffffffffffffffffffffffffffffffffffffffffffffffffffffffffffffff0016815591820181610b618282613151565b600182015f610b708282613151565b610b7d600183015f61310d565b610b8a600283015f61316c565b50610b9a9050600483015f613187565b610ba7600583015f613187565b610bb4600683015f6131a5565b610bc1600783015f6131a5565b50506040518692508791507fc2ebaca961b98bedef10bce18fc3c8bdcba15a62d52feb7f59578c9998e1d42a905f90a3600101610ad0565b507fffffffff0000000000000000000000000000000000000000000000000000000081165f9081526002830160205260408120610c3591613151565b5f610c3f8561213b565b90505f5b8151811015610cdc57818181518110610c5e57610c5e614062565b60200260200101515f015115610cd45783600101600201828281518110610c8757610c87614062565b60209081029190910181015181015182546001810184555f938452919092206008820401805463ffffffff60079093166004026101000a928302191660e09390931c919091029190911790555b600101610c43565b50604051849086907f5b5ef7f155302df6e9d2c1a0610671ea5b89849a316a1f75018ab14fdd5a8bb6905f90a35050505050565b5f610d19612945565b5f9384526001016020908152604080852073ffffffffffffffffffffffffffffffffffffffff949094168552600590930190525090205460ff1690565b5f610d6185336123cf565b610d6a8561252d565b5f610d736129d4565b5f878152600182016020908152604080832089845290915290208054919250907fffffffff0000000000000000000000000000000000000000000000000000000086811661010090920460e01b1614610e4e576040517f08c379a000000000000000000000000000000000000000000000000000000000815260206004820152603460248201527f44656c6574652063616c6c696e672066756e6374696f6e206265666f7265207560448201527f70646174696e6720746f2061206e6577206f6e650000000000000000000000006064820152608401610499565b835160018201541115610f09576040517f08c379a000000000000000000000000000000000000000000000000000000000815260206004820152604660248201527f4e657720706172616d65746572207479706573206d757374206265206f66206760448201527f726561746572206f7220657175616c206c656e67746820746f20746865206f7260648201527f6967696e616c0000000000000000000000000000000000000000000000000000608482015260a401610499565b5f5b600182015481101561101b57816001018181548110610f2c57610f2c614062565b905f5260205f2090602091828204019190069054906101000a900460ff166007811115610f5b57610f5b6135d5565b858281518110610f6d57610f6d614062565b60200260200101516007811115610f8657610f866135d5565b14611013576040517f08c379a000000000000000000000000000000000000000000000000000000000815260206004820152603c60248201527f4e657720706172616d65746572207479706573206d757374206265206f66207460448201527f68652073616d65207479706520617320746865206f726967696e616c000000006064820152608401610499565b600101610f0b565b508351600182015410156110a85760018101545b84518110156110a6578160010185828151811061104e5761104e614062565b60209081029190910181015182546001810184555f9384529282902091830490910180549192909160ff601f9092166101000a918202191690836007811115611099576110996135d5565b021790555060010161102f565b505b604051869088907f2b77470866bba4d7ed745d96afff93047d8aad605c3a97a181658f934bda526f905f90a3509395945050505050565b60605f6110ea61283b565b5f848152602082905260408120549192508167ffffffffffffffff811115611114576111146138ee565b60405190808252806020026020018201604052801561119057816020015b6040805160c0810182525f80825260208083018290529282018190526060808301829052608083015260a082015282527fffffffffffffffffffffffffffffffffffffffffffffffffffffffffffffffff9092019101816111325790505b5090505f60015b838111611340575f878152600186016020908152604080832084845290915290205460ff161561132e575f8781526001860160209081526040808320848452825291829020825160c08101909352805460ff80821615158552919284019161010090910416600781111561120d5761120d6135d5565b600781111561121e5761121e6135d5565b8152815460ff6201000082048116151560208401526040909201916301000000909104166007811115611253576112536135d5565b6007811115611264576112646135d5565b815260200160018201805461127890614274565b80601f01602080910402602001604051908101604052809291908181526020018280546112a490614274565b80156112ef5780601f106112c6576101008083540402835291602001916112ef565b820191905f5260205f20905b8154815290600101906020018083116112d257829003601f168201915b5050505050815260200160028201548152505083838151811061131457611314614062565b6020026020010181905250818061132a906142ec565b9250505b80611338816142ec565b915050611197565b509095945050505050565b6040805160c0810182525f808252602082018190529181018290526060808201839052608082015260a081018290529061138361283b565b5f8581526001820160209081526040808320878452825291829020825160c08101909352805460ff80821615158552949550929390929184019161010090041660078111156113d4576113d46135d5565b60078111156113e5576113e56135d5565b8152815460ff620100008204811615156020840152604090920191630100000090910416600781111561141a5761141a6135d5565b600781111561142b5761142b6135d5565b815260200160018201805461143f90614274565b80601f016020809104026020016040519081016040528092919081815260200182805461146b90614274565b80156114b65780601f1061148d576101008083540402835291602001916114b6565b820191905f5260205f20905b81548152906001019060200180831161149957829003601f168201915b5050505050815260200160028201548152505091505092915050565b5f6114dd85336123cf565b6114e68561252d565b6114ef846125bc565b5f6114f986612868565b9050611506868287612a2e565b611512868286866128be565b604051819087907f1ea0bdfd9680c9b8e4038e41083d7800dca81e6f55a15ce48d858ebb70693d2a905f90a395945050505050565b61155182336123cf565b61155a8261252d565b73ffffffffffffffffffffffffffffffffffffffff81166115da57604080518082018252601c81527f5a65726f20416464726573732043616e6e6f742042652041646d696e00000000602082015290517f08c379a000000000000000000000000000000000000000000000000000000000815261049991906004016138a4565b6115e2612945565b5f8381526001919091016020908152604080832073ffffffffffffffffffffffffffffffffffffffff8516808552600590910190925280832080547fffffffffffffffffffffffffffffffffffffffffffffffffffffffffffffff0016905551909184917febc594f3b2a99e6227cfcc8bd404d054b6cc3dad7f287e1944cb88681a05c14c9190a35050565b60605f61167961283b565b5f8781526002820160209081526040808320898452909152908190209051919250906116a89086908690614323565b908152602001604051809103902080546116c190614274565b80601f01602080910402602001604051908101604052809291908181526020018280546116ed90614274565b80156117385780601f1061170f57610100808354040283529160200191611738565b820191905f5260205f20905b81548152906001019060200180831161171b57829003601f168201915b5050505050915050949350505050565b60605f611753612a4e565b5f848152602091909152604081205491508167ffffffffffffffff81111561177d5761177d6138ee565b6040519080825280602002602001820160405280156117ec57816020015b6117d96040805160e0810182525f8082526020820181905291810182905290606082019081526020015f815260200160608152602001606081525090565b81526020019060019003908161179b5790505b5090505f805b838111611a7c57611801612a4e565b5f8781526001919091016020908152604080832084845290915290205460ff1615611a6a5761182e612a4e565b5f87815260019190910160209081526040808320848452825291829020825160e08082018552825460ff80821615158452610100820473ffffffffffffffffffffffffffffffffffffffff16958401959095527501000000000000000000000000000000000000000000810490911b7fffffffff000000000000000000000000000000000000000000000000000000001694820194909452929091606084019179010000000000000000000000000000000000000000000000000090041660078111156118fd576118fd6135d5565b600781111561190e5761190e6135d5565b8152602001600182015481526020016002820180548060200260200160405190810160405280929190818152602001828054801561199857602002820191905f5260205f20905f905b82829054906101000a900460ff166007811115611976576119766135d5565b8152602060019283018181049485019490930390920291018084116119575790505b5050505050815260200160038201805480602002602001604051908101604052809291908181526020015f905b82821015611a36578382905f5260205f2090600202016040518060400160405290815f82015f9054906101000a900460ff166002811115611a0857611a086135d5565b6002811115611a1957611a196135d5565b8152602001600182015481525050815260200190600101906119c5565b5050505081525050838381518110611a5057611a50614062565b60200260200101819052508180611a66906142ec565b9250505b80611a74816142ec565b9150506117f2565b5090949350505050565b611a9082336123cf565b611a998261252d565b611aa161283b565b5f838152600191820160209081526040808320858452909152812080547fffffffffffffffffffffffffffffffffffffffffffffffffffffffff0000000016815591611aef908301826131c3565b600282015f9055505080827ed9d817df2d853a886f2cbe7a671a676890264711abbb9d2c3ee79fb1bb653a60405160405180910390a35050565b5f611b3486336123cf565b611b3d8661252d565b5f611b4787612a7b565b9050611b5587828888612a85565b611b628782888787612af7565b604051819088907f24103d2c348f3e3042849986bfdaee686941377c8a32bbe5b6cc13ad09c8af83905f90a39695505050505050565b60408051606080820183525f808352602083015291810191909152611bbb6129d4565b5f8481526001918201602090815260408083208684528252918290208251606081018452815460ff811615158252610100900460e01b7fffffffff000000000000000000000000000000000000000000000000000000001681840152938101805484518185028101850186528181529294860193830182828015611c8b57602002820191905f5260205f20905f905b82829054906101000a900460ff166007811115611c6957611c696135d5565b815260206001928301818104948501949093039092029101808411611c4a5790505b505050505081525050905092915050565b611ca682336123cf565b611caf8261252d565b611cb7612a4e565b5f838152600191820160209081526040808320858452909152812080547fffffffffffff0000000000000000000000000000000000000000000000000000168155918201819055611d0b600283018261310d565b611d18600383015f6131fa565b5050604051819083907f19d0bd0cc4d63f9108c93b0abfd7408498ecbc73713f6bb3a2862d9b9d1983d8905f90a35050565b611d886040805160e0810182525f8082526020820181905291810182905290606082019081526020015f815260200160608152602001606081525090565b611d90612a4e565b5f84815260019190910160209081526040808320858452825291829020825160e08082018552825460ff80821615158452610100820473ffffffffffffffffffffffffffffffffffffffff16958401959095527501000000000000000000000000000000000000000000810490911b7fffffffff00000000000000000000000000000000000000000000000000000000169482019490945292909160608401917901000000000000000000000000000000000000000000000000009004166007811115611e5f57611e5f6135d5565b6007811115611e7057611e706135d5565b81526020016001820154815260200160028201805480602002602001604051908101604052809291908181526020018280548015611efa57602002820191905f5260205f20905f905b82829054906101000a900460ff166007811115611ed857611ed86135d5565b815260206001928301818104948501949093039092029101808411611eb95790505b5050505050815260200160038201805480602002602001604051908101604052809291908181526020015f905b82821015611f98578382905f5260205f2090600202016040518060400160405290815f82015f9054906101000a900460ff166002811115611f6a57611f6a6135d5565b6002811115611f7b57611f7b6135d5565b815260200160018201548152505081526020019060010190611f27565b50505091525090949350505050565b60408051606080820183528082525f602083015291810191909152611fca612b80565b5f84815260209182526040808220858352909252819020815160608101909252805482908290611ff990614274565b80601f016020809104026020016040519081016040528092919081815260200182805461202590614274565b80156120705780601f1061204757610100808354040283529160200191612070565b820191905f5260205f20905b81548152906001019060200180831161205357829003601f168201915b5050509183525050600182015460e01b7fffffffff000000000000000000000000000000000000000000000000000000001660208201526002820180546040909201916120bc90614274565b80601f01602080910402602001604051908101604052809291908181526020018280546120e890614274565b8015611c8b5780601f1061210a57610100808354040283529160200191611c8b565b820191905f5260205f20905b8154815290600101906020018083116121165750505091909252509195945050505050565b60605f6121466129d4565b5f848152602082905260408120549192508167ffffffffffffffff811115612170576121706138ee565b6040519080825280602002602001820160405280156121bc57816020015b60408051606080820183525f80835260208301529181019190915281526020019060019003908161218e5790505b5090505f60015b838111611340575f878152600186016020908152604080832084845290915290205460ff16156122f5575f8781526001868101602090815260408084208585528252928390208351606081018552815460ff811615158252610100900460e01b7fffffffff0000000000000000000000000000000000000000000000000000000016818401529281018054855181850281018501875281815294959294928601938301828280156122c057602002820191905f5260205f20905f905b82829054906101000a900460ff16600781111561229e5761229e6135d5565b81526020600192830181810494850194909303909202910180841161227f5790505b5050505050815250508383815181106122db576122db614062565b602002602001018190525081806122f1906142ec565b9250505b806122ff816142ec565b9150506121c3565b61231187336123cf565b5f61231a61283b565b905061233481898961232b8a614332565b89898989612bad565b604051879089907f7d0cd6a27b5d0487bca14f5b3852217db2c9951f3ad91646fe09e0c19abcef50905f90a35050505050505050565b6060610931612d87565b61237e83336123cf565b5f61238761283b565b905061239d81858561239886614332565b612db4565b604051839085907f7d0cd6a27b5d0487bca14f5b3852217db2c9951f3ad91646fe09e0c19abcef50905f90a350505050565b6040516024810183905273ffffffffffffffffffffffffffffffffffffffff821660448201525f90819061249d907f901cee110000000000000000000000000000000000000000000000000000000090606401604080517fffffffffffffffffffffffffffffffffffffffffffffffffffffffffffffffe08184030181529190526020810180517bffffffffffffffffffffffffffffffffffffffffffffffffffffffff167f901cee1100000000000000000000000000000000000000000000000000000000179052612f41565b915091505f82156125265760048251106124bc575060208101516124bf565b505f5b80612526576040517f08c379a000000000000000000000000000000000000000000000000000000000815260206004820152601860248201527f4e6f7420417574686f72697a656420546f20506f6c69637900000000000000006044820152606401610499565b5050505050565b612535612945565b5f8281526001919091016020526040902060040154610100900460ff16156125b9576040517f08c379a000000000000000000000000000000000000000000000000000000000815260206004820152601f60248201527f4e6f7420616c6c6f77656420666f722063656d656e74656420706f6c696379006044820152606401610499565b50565b60016125ce60408301602084016143ca565b60078111156125df576125df6135d5565b148061260b575060026125f860408301602084016143ca565b6007811115612609576126096135d5565b145b806126365750600361262360408301602084016143ca565b6007811115612634576126346135d5565b145b806126615750600561264e60408301602084016143ca565b600781111561265f5761265f6135d5565b145b8061268b57505f61267860408301602084016143ca565b6007811115612689576126896135d5565b145b6126f1576040517f08c379a000000000000000000000000000000000000000000000000000000000815260206004820152601460248201527f496e76616c696420747261636b657220747970650000000000000000000000006044820152606401610499565b61270160608201604083016143e5565b156125b957600161271860808301606084016143ca565b6007811115612729576127296135d5565b14806127555750600261274260808301606084016143ca565b6007811115612753576127536135d5565b145b806127805750600361276d60808301606084016143ca565b600781111561277e5761277e6135d5565b145b806127ab5750600561279860808301606084016143ca565b60078111156127a9576127a96135d5565b145b806127d557505f6127c260808301606084016143ca565b60078111156127d3576127d36135d5565b145b6125b9576040517f08c379a000000000000000000000000000000000000000000000000000000000815260206004820152601860248201527f496e76616c696420747261636b6572206b6579207479706500000000000000006044820152606401610499565b5f806109d060017f438102ff677bc3f21830c58117a05d6b953b31e3ea339da3f17957cd3941a690614400565b5f5f61287261283b565b5f84815260208290526040812080549293509161288e906142ec565b91829055509392505050565b5f6128a361283b565b90506128b481898961232b8a614332565b5050505050505050565b81816128c86129a7565b5f8781526020918252604080822088835290925220916128e9919083614467565b50604051839085907f1ea0bdfd9680c9b8e4038e41083d7800dca81e6f55a15ce48d858ebb70693d2a905f90a350505050565b5f612925612a4e565b9050612932848484613002565b5f93845260205260409092209190915550565b5f806109d060017ff9dbd639dd2ea165d77dd4c51dec420100d51ceacf023b1c40faa045ba8f9a65614400565b5f5f612872612a4e565b8181612986612d87565b5f878152602091825260408082208883529092522091612526919083614467565b5f806109d060017fc6d0732f7ed4c7ec3d1a6580f5e91e95dcc3d159872b5f4e9d9b8e65d3b720f2614400565b5f806109d060017fdc82e9666de28bef254c770aa394fdb200d98373b70390c27adec32819f8f266614400565b5f806109d060017f5c91f63a4ffcbd372b8ec622fd1fcaaa601b66330afdb30e5c292dd9123f20b0614400565b5f612a3761283b565b9050612a4881858561239886614332565b50505050565b5f806109d060017f1f3305601ed940efccf797d76856e5fe70659a8a6905d64c9f236321df91e718614400565b5f5f6128726129d4565b5f612a8e6129d4565b5f868152600182810160209081526040808420898552825290922080547fffffffffffffffffffffffffffffffffffffffffffffffffffffff00000000001661010060e089901c0217821781558551939450612aef93910191850190613218565b505050505050565b5f612b00612b80565b5f878152602082815260408083208984529091529020909150612b23848261457d565b505f8681526020828152604080832088845290915290206001810180547fffffffffffffffffffffffffffffffffffffffffffffffffffffffff000000001660e087901c179055600201612b77838261457d565b50505050505050565b5f806109d060017fb88f46389dea4b934f6c24412aa4a67e6afeeee9cd7e06827b5b8f09c0e7d7ea614400565b6001604080870182905281875260a087018890525f898152918a01602090815281832089845281529120865181549015157fffffffffffffffffffffffffffffffffffffffffffffffffffffffffffffff00821681178355928801518893909183917fffffffffffffffffffffffffffffffffffffffffffffffffffffffffffff00ff167fffffffffffffffffffffffffffffffffffffffffffffffffffffffffffff000090911617610100836007811115612c6b57612c6b6135d5565b02179055506040820151815490151562010000027fffffffffffffffffffffffffffffffffffffffffffffffffffffffffff00ffff82168117835560608401519183917fffffffffffffffffffffffffffffffffffffffffffffffffffffffff00ffffff167fffffffffffffffffffffffffffffffffffffffffffffffffffffffff0000ffff909116176301000000836007811115612d0c57612d0c6135d5565b021790555060808201516001820190612d25908261457d565b5060a091909101516002918201555f8881529089016020908152604080832089845290915290819020905183918391612d619088908890614323565b90815260200160405180910390209182612d7c929190614467565b505050505050505050565b5f806109d060017f680281604e63223dcddb1c0e3af179db8bd5c81752348dc75dc7ed88d927353c614400565b60018082525f604080840182905260a0840185905285825291860160209081528282208583528152919020825181549015157fffffffffffffffffffffffffffffffffffffffffffffffffffffffffffffff00821681178355928401518493909183917fffffffffffffffffffffffffffffffffffffffffffffffffffffffffffff00ff167fffffffffffffffffffffffffffffffffffffffffffffffffffffffffffff000090911617610100836007811115612e7357612e736135d5565b02179055506040820151815490151562010000027fffffffffffffffffffffffffffffffffffffffffffffffffffffffffff00ffff82168117835560608401519183917fffffffffffffffffffffffffffffffffffffffffffffffffffffffff00ffffff167fffffffffffffffffffffffffffffffffffffffffffffffffffffffff0000ffff909116176301000000836007811115612f1457612f146135d5565b021790555060808201516001820190612f2d908261457d565b5060a0820151816002015590505050505050565b5f60605f612f4d6130e0565b7fffffffff0000000000000000000000000000000000000000000000000000000086165f908152602082905260409081902054905191925073ffffffffffffffffffffffffffffffffffffffff16908190612fa9908790614694565b5f60405180830381855af49150503d805f8114612fe1576040519150601f19603f3d011682016040523d82523d5f602084013e612fe6565b606091505b50909450925083612ff957825160208401fd5b50509250929050565b61300f60c08301836146aa565b905061301e60a084018461470e565b90501461302d5761302d614772565b81613036612a4e565b5f85815260019190910160209081526040808320858452909152902061305c8282614aee565b9050506001613069612a4e565b5f85815260019190910160209081526040808320858452909152902080547fffffffffffffffffffffffffffffffffffffffffffffffffffffffffffffff0016911515919091179055806130bb612a4e565b5f94855260019081016020908152604080872094875293905291909320019190915550565b5f806109d060017fbe498a3b14fd79a48c3c9af86ff14271ed497d09071013334028d28e7791db20614400565b5080545f8255601f0160209004905f5260205f20908101906125b991906132c7565b5080545f825560070160089004905f5260205f20908101906125b991906132c7565b5080545f8255905f5260205f20908101906125b991906132c7565b5080545f8255905f5260205f20908101906125b991906132db565b5080545f8255600302905f5260205f20908101906125b991906132f7565b5080545f8255600502905f5260205f20908101906125b99190613366565b5080546131cf90614274565b5f825580601f106131de575050565b601f0160209004905f5260205f20908101906125b991906132c7565b5080545f8255600202905f5260205f20908101906125b991906133ce565b828054828255905f5260205f2090601f016020900481019282156132b7579160200282015f5b8382111561328957835183826101000a81548160ff02191690836007811115613269576132696135d5565b021790555092602001926001016020815f0104928301926001030261323e565b80156132b55782816101000a81549060ff02191690556001016020815f01049283019260010302613289565b505b506132c39291506132c7565b5090565b5b808211156132c3575f81556001016132c8565b808211156132c3575f6132ee82826131c3565b506001016132db565b808211156132c35780547fffffffffffffffffffffffffffffff00000000000000000000000000000000001681555f61333360018301826131c3565b506002810180547fffffffffffffffffffffffffffffffffffffffffffffffffffffffffffffff001690556003016132f7565b808211156132c35780547fffffffffffffffffffffffffffffffffffffffffffffffffffffffff000000001681555f6133a260018301826131c3565b600282015f9055600382015f6133b891906131c3565b6133c5600483015f613151565b50600501613366565b5b808211156132c35780547fffffffffffffffffffffffffffffffffffffffffffffffffffffffffffffff001681555f60018201556002016133cf565b5f60c0828403121561341b575f5ffd5b50919050565b5f5f83601f840112613431575f5ffd5b50813567ffffffffffffffff811115613448575f5ffd5b60208301915083602082850101111561345f575f5ffd5b9250929050565b5f5f83601f840112613476575f5ffd5b50813567ffffffffffffffff81111561348d575f5ffd5b6020830191508360208260051b850101111561345f575f5ffd5b5f5f5f5f5f5f5f5f60a0898b0312156134be575f5ffd5b88359750602089013567ffffffffffffffff8111156134db575f5ffd5b6134e78b828c0161340b565b975050604089013567ffffffffffffffff811115613503575f5ffd5b61350f8b828c01613421565b909750955050606089013567ffffffffffffffff81111561352e575f5ffd5b61353a8b828c01613466565b909550935050608089013567ffffffffffffffff811115613559575f5ffd5b6135658b828c01613466565b999c989b5096995094979396929594505050565b5f60e0828403121561341b575f5ffd5b5f5f5f6060848603121561359b575f5ffd5b8335925060208401359150604084013567ffffffffffffffff8111156135bf575f5ffd5b6135cb86828701613579565b9150509250925092565b7f4e487b71000000000000000000000000000000000000000000000000000000005f52602160045260245ffd5b60088110613612576136126135d5565b9052565b5f8151808452602084019350602083015f5b8281101561364e5761363b868351613602565b6020958601959190910190600101613628565b5093949350505050565b5f8151808452602084019350602083015f5b8281101561364e578151805160038110613686576136866135d5565b875260209081015181880152604090960195919091019060010161366a565b80511515825273ffffffffffffffffffffffffffffffffffffffff60208201511660208301527fffffffff0000000000000000000000000000000000000000000000000000000060408201511660408301525f606082015161370a6060850182613602565b506080820151608084015260a082015160e060a085015261372e60e0850182613616565b905060c083015184820360c08601526137478282613658565b95945050505050565b602081525f61376260208301846136a5565b9392505050565b73ffffffffffffffffffffffffffffffffffffffff811681146125b9575f5ffd5b803561379581613769565b919050565b5f5f604083850312156137ab575f5ffd5b8235915060208301356137bd81613769565b809150509250929050565b5f5f5f5f606085870312156137db575f5ffd5b84359350602085013567ffffffffffffffff8111156137f8575f5ffd5b61380487828801613579565b935050604085013567ffffffffffffffff811115613820575f5ffd5b61382c87828801613421565b95989497509550505050565b5f5f60408385031215613849575f5ffd5b50508035926020909101359150565b5f81518084528060208401602086015e5f6020828601015260207fffffffffffffffffffffffffffffffffffffffffffffffffffffffffffffffe0601f83011685010191505092915050565b602081525f6137626020830184613858565b7fffffffff00000000000000000000000000000000000000000000000000000000811681146125b9575f5ffd5b8035613795816138b6565b7f4e487b71000000000000000000000000000000000000000000000000000000005f52604160045260245ffd5b6040805190810167ffffffffffffffff8111828210171561393e5761393e6138ee565b60405290565b60405160e0810167ffffffffffffffff8111828210171561393e5761393e6138ee565b60405160c0810167ffffffffffffffff8111828210171561393e5761393e6138ee565b604051601f82017fffffffffffffffffffffffffffffffffffffffffffffffffffffffffffffffe016810167ffffffffffffffff811182821017156139d1576139d16138ee565b604052919050565b5f67ffffffffffffffff8211156139f2576139f26138ee565b5060051b60200190565b600881106125b9575f5ffd5b8035613795816139fc565b5f82601f830112613a22575f5ffd5b8135613a35613a30826139d9565b61398a565b8082825260208201915060208360051b860101925085831115613a56575f5ffd5b602085015b83811015613a7c578035613a6e816139fc565b835260209283019201613a5b565b5095945050505050565b5f5f5f5f60808587031215613a99575f5ffd5b84359350602085013592506040850135613ab2816138b6565b9150606085013567ffffffffffffffff811115613acd575f5ffd5b613ad987828801613a13565b91505092959194509250565b5f60208284031215613af5575f5ffd5b5035919050565b8051151582525f6020820151613b156020850182613602565b506040820151151560408401526060820151613b346060850182613602565b50608082015160c06080850152613b4e60c0850182613858565b60a093840151949093019390935250919050565b5f602082016020835280845180835260408501915060408160051b8601019250602086015f5b82811015613bd7577fffffffffffffffffffffffffffffffffffffffffffffffffffffffffffffffc0878603018452613bc2858351613afc565b94506020938401939190910190600101613b88565b50929695505050505050565b602081525f6137626020830184613afc565b5f5f5f5f60608587031215613c08575f5ffd5b84359350602085013567ffffffffffffffff811115613c25575f5ffd5b6138048782880161340b565b5f5f5f5f60608587031215613c44575f5ffd5b8435935060208501359250604085013567ffffffffffffffff811115613820575f5ffd5b5f602082016020835280845180835260408501915060408160051b8601019250602086015f5b82811015613bd7577fffffffffffffffffffffffffffffffffffffffffffffffffffffffffffffffc0878603018452613cc88583516136a5565b94506020938401939190910190600101613c8e565b5f82601f830112613cec575f5ffd5b8135602083015f5f67ffffffffffffffff841115613d0c57613d0c6138ee565b50601f83017fffffffffffffffffffffffffffffffffffffffffffffffffffffffffffffffe016602001613d3f8161398a565b915050828152858383011115613d53575f5ffd5b828260208301375f92810160200192909252509392505050565b5f5f5f5f5f60a08688031215613d81575f5ffd5b853594506020860135613d93816138b6565b9350604086013567ffffffffffffffff811115613dae575f5ffd5b613dba88828901613a13565b935050606086013567ffffffffffffffff811115613dd6575f5ffd5b613de288828901613cdd565b925050608086013567ffffffffffffffff811115613dfe575f5ffd5b613e0a88828901613cdd565b9150509295509295909350565b8051151582527fffffffff0000000000000000000000000000000000000000000000000000000060208201511660208301525f604082015160606040850152613e636060850182613616565b949350505050565b602081525f6137626020830184613e17565b602081525f825160606020840152613e986080840182613858565b90507fffffffff00000000000000000000000000000000000000000000000000000000602085015116604084015260408401517fffffffffffffffffffffffffffffffffffffffffffffffffffffffffffffffe08483030160608501526137478282613858565b5f602082016020835280845180835260408501915060408160051b8601019250602086015f5b82811015613bd7577fffffffffffffffffffffffffffffffffffffffffffffffffffffffffffffffc0878603018452613f5f858351613e17565b94506020938401939190910190600101613f25565b5f5f5f5f5f5f5f60a0888a031215613f8a575f5ffd5b8735965060208801359550604088013567ffffffffffffffff811115613fae575f5ffd5b613fba8a828b0161340b565b955050606088013567ffffffffffffffff811115613fd6575f5ffd5b613fe28a828b01613421565b909550935050608088013567ffffffffffffffff811115614001575f5ffd5b61400d8a828b01613421565b989b979a50959850939692959293505050565b5f5f5f60608486031215614032575f5ffd5b8335925060208401359150604084013567ffffffffffffffff811115614056575f5ffd5b6135cb8682870161340b565b7f4e487b71000000000000000000000000000000000000000000000000000000005f52603260045260245ffd5b5f5f83357fffffffffffffffffffffffffffffffffffffffffffffffffffffffffffffffe18436030181126140c2575f5ffd5b83018035915067ffffffffffffffff8211156140dc575f5ffd5b60200191503681900382131561345f575f5ffd5b80151581146125b9575f5ffd5b8035613795816140f0565b600381106125b9575f5ffd5b5f82601f830112614123575f5ffd5b8135614131613a30826139d9565b8082825260208201915060208360061b860101925085831115614152575f5ffd5b602085015b83811015613a7c576040818803121561416e575f5ffd5b61417661391b565b813561418181614108565b8152602082810135818301529084529290920191604001614157565b5f60e082360312156141ad575f5ffd5b6141b5613944565b6141be836140fd565b81526141cc6020840161378a565b60208201526141dd604084016138e3565b60408201526141ee60608401613a08565b60608201526080838101359082015260a083013567ffffffffffffffff811115614216575f5ffd5b61422236828601613a13565b60a08301525060c083013567ffffffffffffffff811115614241575f5ffd5b61424d36828601614114565b60c08301525092915050565b5f60208284031215614269575f5ffd5b813561376281613769565b600181811c9082168061428857607f821691505b60208210810361341b577f4e487b71000000000000000000000000000000000000000000000000000000005f52602260045260245ffd5b7f4e487b71000000000000000000000000000000000000000000000000000000005f52601160045260245ffd5b5f7fffffffffffffffffffffffffffffffffffffffffffffffffffffffffffffffff820361431c5761431c6142bf565b5060010190565b818382375f9101908152919050565b5f60c08236031215614342575f5ffd5b61434a613967565b8235614355816140f0565b81526020830135614365816139fc565b60208201526040830135614378816140f0565b604082015261438960608401613a08565b6060820152608083013567ffffffffffffffff8111156143a7575f5ffd5b6143b336828601613cdd565b60808301525060a092830135928101929092525090565b5f602082840312156143da575f5ffd5b8135613762816139fc565b5f602082840312156143f5575f5ffd5b8135613762816140f0565b818103818111156109d0576109d06142bf565b5b81811015614427575f8155600101614414565b5050565b601f82111561446257805f5260205f20601f840160051c810160208510156144505750805b612526601f850160051c830182614413565b505050565b67ffffffffffffffff83111561447f5761447f6138ee565b6144938361448d8354614274565b8361442b565b5f601f8411600181146144e3575f85156144ad5750838201355b7fffffffffffffffffffffffffffffffffffffffffffffffffffffffffffffffff600387901b1c1916600186901b178355612526565b5f838152602081207fffffffffffffffffffffffffffffffffffffffffffffffffffffffffffffffe08716915b828110156145305786850135825560209485019460019092019101614510565b508682101561456b577fffffffffffffffffffffffffffffffffffffffffffffffffffffffffffffffff60f88860031b161c19848701351681555b505060018560011b0183555050505050565b815167ffffffffffffffff811115614597576145976138ee565b6145ab816145a58454614274565b8461442b565b6020601f8211600181146145fc575f83156145c65750848201515b7fffffffffffffffffffffffffffffffffffffffffffffffffffffffffffffffff600385901b1c1916600184901b178455612526565b5f848152602081207fffffffffffffffffffffffffffffffffffffffffffffffffffffffffffffffe08516915b828110156146495787850151825560209485019460019092019101614629565b508482101561468557868401517fffffffffffffffffffffffffffffffffffffffffffffffffffffffffffffffff600387901b60f8161c191681555b50505050600190811b01905550565b5f82518060208501845e5f920191825250919050565b5f5f83357fffffffffffffffffffffffffffffffffffffffffffffffffffffffffffffffe18436030181126146dd575f5ffd5b83018035915067ffffffffffffffff8211156146f7575f5ffd5b6020019150600681901b360382131561345f575f5ffd5b5f5f83357fffffffffffffffffffffffffffffffffffffffffffffffffffffffffffffffe1843603018112614741575f5ffd5b83018035915067ffffffffffffffff82111561475b575f5ffd5b6020019150600581901b360382131561345f575f5ffd5b7f4e487b71000000000000000000000000000000000000000000000000000000005f52600160045260245ffd5b5f81356109d0816138b6565b5f81356109d0816139fc565b600882106147c7576147c76135d5565b805479ff000000000000000000000000000000000000000000000000008360c81b167fffffffffffff00ffffffffffffffffffffffffffffffffffffffffffffffffff8216178255505050565b6801000000000000000082111561482d5761482d6138ee565b80548282558083101561446257815f5260205f20601f840160051c8101601f851680156148a7577fffffffffffffffffffffffffffffffffffffffffffffffffffffffffffffffff820180547fffffffffffffffffffffffffffffffffffffffffffffffffffffffffffffffff8360200360031b1c168155505b50612526601f840160051c830182614413565b67ffffffffffffffff8311156148d2576148d26138ee565b6148dc8382614814565b5f8181526020902082908460051c5f5b81811015614941575f5f5b60208110156149345761492361490c876147ab565b60ff908116600384901b90811b91901b1984161790565b6020969096019591506001016148f7565b50838201556001016148ec565b507fffffffffffffffffffffffffffffffffffffffffffffffffffffffffffffffe086168087038188146128b4575f5f5b828110156149975761498661490c886147ab565b602097909701969150600101614972565b50848401555050505050505050565b81356149b181614108565b600381106149c1576149c16135d5565b81547fffffffffffffffffffffffffffffffffffffffffffffffffffffffffffffff001660ff9190911617815560209190910135600190910155565b68010000000000000000831115614a1657614a166138ee565b805483825580841015614aba577f7fffffffffffffffffffffffffffffffffffffffffffffffffffffffffffffff81168114614a5457614a546142bf565b7f7fffffffffffffffffffffffffffffffffffffffffffffffffffffffffffffff84168414614a8557614a856142bf565b815f5260205f208160011b81018560011b820191505b80821015614ab7575f82555f6001830155600282019150614a9b565b50505b505f8181526020812083915b85811015612aef57614ad883836149a6565b6040929092019160029190910190600101614ac6565b8135614af9816140f0565b81547fffffffffffffffffffffffffffffffffffffffffffffffffffffffffffffff00811691151560ff1691821783556020840135614b3781613769565b74ffffffffffffffffffffffffffffffffffffffff008160081b16837fffffffffffffffffffffff000000000000000000000000000000000000000000841617178455505050614bda614b8c6040840161479f565b8280547fffffffffffffff00000000ffffffffffffffffffffffffffffffffffffffffff1660389290921c78ffffffff00000000000000000000000000000000000000000016919091179055565b614bef614be9606084016147ab565b826147b7565b60808201356001820155614c0660a083018361470e565b614c148183600286016148ba565b5050614c2360c08301836146aa565b612a488183600386016149fd56fea2646970667358221220067ac204e897c83100830dda10190e661fd9dd4c09e03bd2d6629f1b195b33cd64736f6c634300081c0033","linkReferences":{}},"methodIdentifiers":{"addClosedPolicySubscriber(uint256,address)":"2711fe6b","createCallingFunction(uint256,bytes4,uint8[],string,string)":"b0955878","createForeignCall(uint256,(bool,address,bytes4,uint8,uint256,uint8[],(uint8,uint256)[]),string)":"36f89f79","createTracker(uint256,(bool,uint8,bool,uint8,bytes,uint256),string)":"72cb754c","createTracker(uint256,(bool,uint8,bool,uint8,bytes,uint256),string,bytes[],bytes[])":"0b5f5723","deleteCallingFunction(uint256,uint256)":"3fafdf6e","deleteForeignCall(uint256,uint256)":"d82260c8","deleteTracker(uint256,uint256)":"a82c9e07","getAllCallingFunctions(uint256)":"f3e7dfc3","getAllForeignCalls(uint256)":"a3937e99","getAllTrackers(uint256)":"56f3b05f","getCallingFunction(uint256,uint256)":"bfc85236","getCallingFunctionMetadata(uint256,uint256)":"eeeb6047","getForeignCall(uint256,uint256)":"da7d5d28","getForeignCallMetadata(uint256,uint256)":"f69187ee","getMappedTrackerValue(uint256,uint256,bytes)":"9f9fa719","getTracker(uint256,uint256)":"72a340d7","getTrackerMetadata(uint256,uint256)":"3bf07314","isClosedPolicySubscriber(uint256,address)":"4c957ad9","removeClosedPolicySubscriber(uint256,address)":"7374c994","updateCallingFunction(uint256,uint256,bytes4,uint8[])":"56f39ae3","updateForeignCall(uint256,uint256,(bool,address,bytes4,uint8,uint256,uint8[],(uint8,uint256)[]))":"1af4a8f9","updateTracker(uint256,uint256,(bool,uint8,bool,uint8,bytes,uint256))":"febf8f92","updateTracker(uint256,uint256,(bool,uint8,bool,uint8,bytes,uint256),bytes,bytes)":"f479c994"},"id":28}